:020000040000FA
:1027AC00FF001E0200000000FF1E8C000000000055
:1027BC00FFA47F0000000000FFD3420101000000D5
:1027CC00FFAD4F0102000000FFDE3A0100000000E7
:1027DC00FF54580101000000FF15B8010000000073
:1027EC00FF6FF00202000000FF5E700203000000A9
:1027FC00FF98080204000000FF6FA0020300000015
:10280C00FF90810203000000FFA4FF0204000000FF
:10281C00FFE9740204000000FF001E02000000002B
:0100160022C7
:0100170022C6
:0100180022C5
:0100190022C4
:01001A0022C3
:01001E0022BF
:081734008F438D448A458B466A
:10173C00E546454570030218A7903ECAE07002A327
:03174C00E0702327
:10174F00120F2C90482BEEF0A3EFF090482BE0FCFB
:10175F00A3E0FD2404F582E43CF5837401F07F07D8
:03176F00120EF95E
:10177200AB47AD44AF43121428903ECAE0FFA3E04A
:1017820090482DCFF0A3EFF0E4A3F0A3F090482D02
:10179200E0FEA3E0FF4E60458F828E83A3A3E0FEAE
:1017A200A3E0FFC39546EE9545503290482DE0FCEC
:1017B200A3E0FDC3E5469FF546E5459EF545A3EC4E
:1017C200F0A3EDF090482DE0FEA3E0F5828E83E0D9
:1017D200FFA3E090482DCFF0A3EFF080B0903F3C04
:1017E200E0FEA3E0FFF5828E83A3A3E545F0A3E527
:1017F20046F0EF2404F582E43EF583E547F0EF245A
:1018020005F582E43EF583E543F0EF2406F582E434
:101812003EF583E544F090482FE0FEA3E0FF4E70D2
:1018220011903F3CE0FDA3E0903ECACDF0A3EDF065
:101832008010903F3CE0FDA3E08F828E83CDF0A329
:10184200EDF0903F3CE0FEA3E0FFF5828E83E0FDE9
:10185200A3E090482FCDF0A3EDF090482DE0FCA33B
:10186200E0FD8F828E83ECF0A3EDF0F5828C83A3F2
:10187200A3C083C082C3A3E09546FF0582D582023E
:1018820015831582E09545D082D083F0A3EFF090C6
:10189200482FE0FEA3E0FF903F3CEEF0A3EFF04EB6
:0518A2007003123293F7
:0118A700221E
:04142800AA07A90561
:10142C00903ECAE0FDA3E0904898CDF0A3EDF0E427
:10143C00A3F0A3F0904898E0FCA3E0FD4C700302ED
:10144C0015B7ED2404F582E43CF583E06B600302F0
:10145C001596904898E0A3E02406F582E43CF583C9
:10146C00E0696003021596ED2405F582E43CF583F2
:10147C00E06A6007EAF46003021575904898E0FC96
:10148C00A3E0FDF5828C83E0F8A3E0F58288834528
:10149C0083601F8D828C83A3A3E0FEA3E0FF8D826B
:1014AC008C83E0FCA3E0F5828C83A3A3EE8FF01277
:1014BC00047590489AE07002A3E0704D904898E053
:1014CC00FEA3E0FFF5828E83E0FDA3E0903ECACD43
:1014DC00F0A3EDF0903F3CE0FDA3E08F828E83CD36
:1014EC00F0A3EDF0904898E0FFA3E0903F3CCFF0E4
:1014FC00A3EFF0903ECAE0FFA3E0904898CFF0A392
:10150C00EFF0E4A3F0A3F08058904898E0FEA3E03D
:10151C00F5828E83E0FEA3E0FF90489AE0FCA3E006
:10152C00F5828C83EEF0A3EFF0903F3CE0FEA3E05D
:10153C00FF904898E0FCA3E0FDF5828C83EEF0A3CD
:10154C00EFF0903F3CECF0A3EDF090489AE0FEA356
:10155C00E0F5828E83E0FFA3E0904898CFF0A3EFF4
:10156C00F0EAF4700302144022904898E0FEA3E0E5
:10157C00FFA3EEF0A3EFF0F5828E83E0FFA3E090E3
:10158C004898CFF0A3EFF0021440904898E0FEA3E7
:10159C00E0FFA3EEF0A3EFF0F5828E83E0FFA3E073
:0B15AC00904898CFF0A3EFF00214402D
:0115B7002211
:1015B8008E338F348F828E83E5822404F582E4355E
:1015C80083F583E024FE601F1470030216D11470A3
:1015D80003021707240360030217337B007A04E42D
:0715E800FD7F02120FA32298
:1015EF00903ECAE0FEA3E0FF4E70030216BB8F824F
:1015FF008E83A3A374FFF5F0120475903ECAE0FE2C
:10160F00A3E0F5828E83A3A3E0FEA3E04E60030266
:10161F0016BB120F2C8E338F34903ECAE0FEA3E020
:10162F00FF2405F582E43EF583E0FDE5342404F55F
:10163F0082E43533F583EDF0EF2406F582E43EF5D1
:10164F0083E0FFE5342405F582E43533F583EFF0CD
:10165F00903ECAE0FEA3E02404F582E43EF583E069
:10166F00FFAD34AC33120EF9903ECAE0FEA3E0FF9B
:10167F00F5828E83E0FCA3E08C35F536903F3CE09D
:10168F00FDA3E08F828E83CDF0A3EDF0903ECAE0F4
:10169F00FFA3E0903F3CCFF0A3EFF0903ECAE535BB
:1016AF00F0A3E536F04535600302160A903ECAE016
:1016BF007002A3E0606E7B007A04E4FD7F02120FDC
:0116CF00A377
:1016D00022E5342406FFE43533FAA9077B019000A4
:1016E000011203CCFF9000021203CCFD9000031204
:1016F00004A1FBAAF0E5342406F582E43533F58332
:10170000E0F54712173422E5342406FFE43533FAB6
:10171000A9077B019000011203CCFF900002120385
:10172000CCFDE5342406FBE435338B82F583E0FB06
:041730001214282245
:0E2BCA008F6E8D6F8A708B71E571457060544F
:102BD800120F3D9048FBEEF0FCA3EFF0FD9048FB90
:102BE800E0FEA3E0FF2404F582E43EF5837403F0DD
:102BF800EF2406FFE43EFE8F82F583E572F0AA0615
:102C0800A9077B01900001E56E12040B900002E514
:102C18006F12040B900003E5708571F01204D97FE0
:042C280007120EF988
:012C2C002285
:062DEE008F698D6A8B6BFA
:102DF400120F3D9048FAEEF0FCA3EFF0FD9048FA74
:102E0400E0FEA3E0FF2404F582E43EF5837404F0BD
:102E1400EF2406FFE43EFE8F82F583E56BF0AA06FD
:102E2400A9077B01900001E56912040B900002E5FB
:092E34006A12040B7F07120EF96B
:012E3D002272
:022A12008F43F0
:102A14009037D5E0C39543F0901DD4E0F544854349
:102A240045E544C394D0505074042544F582E434FD
:102A34001DF583E0703B1545E5457038C3E54495C5
:102A44004304F5442404F582E4341DAF82FEAB4311
:102A5400AD431237D0901DD4E0B544032543F0753F
:102A6400F020E544A424D5F582E5F0341DAF82FEC0
:0E2A740022854345054480A91232E7E4FEFFA7
:012A82002231
:102D9D00EF4E604CC3EF94D5FFEE941DFEEF78051A
:102DAD00CEC313CE13D8F9F543C394D05032740467
:102DBD002543F582E4341DF583E0FB9037D5E02BF8
:102DCD00F074042543F582E4341DAF82FEE4FD1258
:102DDD0037D0901DD4E0FFE543C39F5003E543F08A
:012DED0022C3
:10323C00EF541FD39400E49400400FEF7805CEC3F5
:10324C0013CE13D8F904F572800CEF7805CEC313A6
:0B325C00CE13D8F9F572AF72120036E5
:013267002244
:1027260078AFE6FE08E6FFF5828E83A3A3A3E0FC5E
:10273600A3E0FD78B7ECF208EDF2C2AF8F828E838C
:10274600E5822408F582E43583F583E0FEA3E0788C
:0B275600AFA60608F6D2AFED4C7039BC
:10276100120F2C78B5EEF208EFF22404F582E43E64
:10277100F5837403F0EF2405F582E43EF5837401DB
:10278100F018E2FC08E2FD7F0E120EF97E907F0048
:0927910078B77490F2087400F2AC
:10279A00C2AF903F4EE004F0D2AF78B7E2FE08E253
:0127AA00FF2F
:0127AB00220B
:10333B007814E2FE08E2FF8E2FF530452F60158FD3
:10334B00828E83E0FEA3E0FF18EEF208EFF24E70E0
:08335B00031232BDAE2FAF30AA
:013363002247
:103364007810E2FE08E2FF8E2FF530452F60158FAE
:10337400828E83E0FEA3E0FF18EEF208EFF24E70B7
:08338400031232BDAE2FAF3081
:01338C00221E
:10338D007812E2FE08E2FF8E2FF530452F60158F83
:10339D00828E83E0FEA3E0FF18EEF208EFF24E708E
:0833AD00031232BDAE2FAF3058
:0133B50022F5
:1033B6007816E2FE08E2FF8E2FF530452F60158F56
:1033C600828E83E0FEA3E0FF18EEF208EFF24E7065
:0833D600031232BDAE2FAF302F
:0133DE0022CC
:102D4300300A1B782FE51BF27825E2FE08E2F582B4
:102D53008E83E0FFA3E07829CFF208EFF222300957
:102D63001B781BE51CF2782CE2FE08E2F5828E83C9
:102D7300E0FFA3E07819CFF208EFF22230081A78C7
:102D830022E51EF2781CE2FE08E2F5828E83E0FF64
:0A2D9300A3E07820CFF208EFF2224F
:102AF4008F828E83A3A3E024FE60201460331460CD
:102B040046240370577816E2FD08E28F828E83CD47
:102B1400F0A3EDF018EEF208EFF2227812E2FD08CD
:102B2400E28F828E83CDF0A3EDF018EEF208EFF27F
:102B3400227810E2FD08E28F828E83CDF0A3EDF0BF
:102B440018EEF208EFF2227814E2FD08E28F828E8A
:0D2B540083CDF0A3EDF018EEF208EFF222B1
:042FF2008E2F8F305F
:102FF6008F828E83E0FEA3E0FF4E700D85308285C2
:103006002F83ECF0A3EDF0801B8F828E83E0FAA372
:10301600E0FB4A6006AE02AF0380EE8F828E83EC41
:0C302600F0A3EDF08D828C83E4F0A3F0A9
:01303200227B
:1034A4008F828E83E0FCA3E0FDFBAA044A60118DA9
:1034B400828C83E0FDA3E08F828E83CDF0A3EDF0B8
:0434C400AE02AF03A2
:0134C80022E1
:080FF80000014343C7C7C7C74E
:0A381100E4F51DF51BF51CF51E2261
:101FAF00C2AFE51D70030220B0900FF893F52130FA
:101FBF000A4C7825E2FE08E2FFF5828E83A3A3A3E5
:101FCF00E0782BF2E4782FF2D2AF782BE2FD3333A7
:101FDF003354F8FD9027B093F5A574AC2DF582E43A
:101FEF003427F583E493740193FA740293F5828A8C
:101FFF0083120766E4F5A5C2AF120F7080A43009F3
:10200F004D782CE2FE08E2FFF5828E83A3A3A3E0B6
:10201F00782BF2E4781BF2D2AF782BE2FD33333317
:10202F0054F8FD9027B093F5A574AC2DF582E434E8
:10203F0027F583E493740193FA740293F5828A83EC
:10204F00120766E4F5A5C2AF120F81021FB1200877
:10205F0003021FB1781CE2FE08E2FFF5828E83A314
:10206F00A3A3E0782BF2E47822F2D2AF782BE2FD33
:10207F0033333354F8FD9027B093F5A574AC2DF599
:10208F0082E43427F583E493740193FA740293F591
:10209F00828A83120766E4F5A5C2AF120F92021F60
:0A20AF00B1E4782BF2F521D2AF2244
:10244B00C2AF782BE27818F27824E521F2E51DD3A0
:10245B00940150030225147E00E51D54FE24F8F56B
:10246B0082EE340FF583E493F521300A4C7825E2A4
:10247B00FE08E2FFF5828E83A3A3A3E0782BF2E4A0
:10248B00782FF2D2AF782BE2FD33333354F8FD9033
:10249B0027B093F5A574AC2DF582E43427F583E4CE
:1024AB0093740193FA740293F5828A83120766E49C
:1024BB00F5A5C2AF120F708094300991782CE2FE13
:1024CB0008E2FFF5828E83A3A3A3E0782BF2E478D6
:1024DB001BF2D2AF782BE2FD33333354F8FD902748
:1024EB00B093F5A574AC2DF582E43427F583E49312
:1024FB00740193FA740293F5828A83120766E4F5EA
:10250B00A5C2AF120F810224587818E2782BF2780B
:07251B0024E2F521D2AF22FA
:102A8300C2AF782BE27823F2782EE521F2E51DD34D
:102A93009403404F7521C77825E2FE08E2FFF582D3
:102AA3008E83A3A3A3E0782BF2E4782FF2D2AF783E
:102AB3002BE2FD33333354F8FD9027B093F5A5741F
:102AC300AC2DF582E43427F583E493740193FA740F
:102AD3000293F5828A83120766E4F5A5C2AF120F4B
:102AE3007080AA7823E2782BF2782EE2F521D2AF18
:012AF30022C0
:1030A700D51B03531DFB782FE270197825E2FE0824
:1030B700E2FFF5828E83E0FDA3E07829CDF208EDEB
:1030C700F2122AF4E4782FF27829E2FF08E2782551
:0630D700CFF208EFF22227
:1030DD00D51C03531DFD781BE27019782CE2FE08F8
:1030ED00E2FFF5828E83E0FDA3E07819CDF208EDC5
:1030FD00F2122AF4E4781BF27819E2FF08E2782C38
:06310D00CFF208EFF222F0
:10311300D51E03531DFE7822E27019781CE2FE08C7
:10312300E2FFF5828E83E0FDA3E07820CDF208ED87
:10313300F2122AF4E47822F27820E2FF08E2781C03
:06314300CFF208EFF222BA
:101C44008F2F8D308A318B32E53245317003021D7E
:101C540067782BE2FBAD30AF2F1219E57839E2FE3D
:101C640008E28E73F574E4F575F5767835E2FE08CE
:101C7400E22532F532EE3531F531E57445736036DF
:101C8400857482857383A3A3E0FEA3E0FFC395322A
:101C9400EE95315021C3E5329FF532E5319EF531A1
:101CA400857375857476857482857383E0FEA3E0FD
:101CB4008E73F57480C47833E2FE08E2FFF5828EF9
:101CC40083A3A3E531F0A3E532F0782BE2FDEF2402
:101CD40004F582E43EF583EDF07833E2FE08E2FF9A
:101CE4002405F582E43EF583E52FF0EF2406F58222
:101CF400E43EF583E530F0E576457570097839EE14
:101D0400F208EFF2800B857682857583EEF0A3EFFF
:101D1400F07833E2FE08E2FFF5828E83E0FCA3E074
:101D24008C75F5768F828E83E573F0A3E574F0F5F8
:101D340082857383A3A3C083C082C3A3E09532FFCB
:101D44000582D5820215831582E09531D082D08335
:101D5400F0A3EFF018E575F208E576F24575700327
:041D64001232932282
:1019E500AA07A9057839E2FC08E28C73F574E4F5D9
:1019F50075F576E57445737003021B15E5742404CB
:101A0500F582E43573F583E06B6003021AFEE57435
:101A15002406F582E43573F583E0696003021AFE56
:101A2500E5742405F582E43573F583E06A6007EA19
:101A3500F46003021AE7857482857383E0FCA3E0F2
:101A4500FD4C6019857383857482A3A3E0FEA3E032
:101A5500FF8D828C83A3A3EE8FF0120475E5764586
:101A650075703B857482857383E0FFA3E07839CF79
:101A7500F208EFF27833E2FF08E28574828573831A
:101A8500CFF0A3EFF018E573F208E574F27839E2C8
:101A9500FE08E28E73F574E4F575F576803C857481
:101AA50082857383E0FFA3E0857682857583CFF019
:101AB500A3EFF07833E2FF08E2857482857383CF64
:101AC500F0A3EFF018E573F208E574F285768285E8
:101AD5007583E0FEA3E08E73F574EAF470030219D2
:101AE500F822857375857476857482857383E0FE27
:101AF500A3E08E73F5740219F88573758574768580
:101B05007482857383E0FEA3E08E73F5740219F881
:011B150022AD
:1028AC007836E22FF218E23EF27832E2706F783925
:1028BC00E2FE08E2FF4E605F8F828E83A3A3E0FEF0
:1028CC00A3E0FF7835E2FC08E2FDD3EF9DEE9C50CF
:1028DC001108E2FC08E2FD7F011220B97832740184
:1028EC00F2227839E2FE08E2F5828E83A3A3C0833C
:1028FC00C0827835E2FE08E2FFC3A3E09FFF0582A9
:10290C00D5820215831582E09ED082D083F0A3EF8E
:0E291C00F0E418F208F222E47835F208F22214
:041E8C008E488F49A4
:101E90008F828E83E5822404F582E43583F583E026
:101EA0006003021FAE7839E2FE08E2F5828E83A35A
:101EB000A3E0FEA3E0FF7835E2FC08E2FDD3EF9D4E
:101EC000EE9C4003021F6F120F2C8E488F49783909
:101ED000E2FE08E2FF2405F582E43EF583E0FDE53D
:101EE000492404F582E43548F583EDF0EF2406F546
:101EF00082E43EF583E0FFE5492405F582E43548B8
:101F0000F583EFF018E2FE08E22404F582E43EF5E2
:101F100083E0FFAD49AC48120EF97839E2FE08E2E1
:101F2000FFF5828E83A3A3E0FCA3E0FDC37836E235
:101F30009DF218E29CF28F828E83E0FEA3E0FF7890
:101F400033E2FC08E2FD7839E2FA08E2FBF5828A26
:101F500083ECF0A3EDF07833EAF208EBF27839EE97
:101F6000F208EFF24E6003021EA57835F208F2780F
:101F700035E2FE08E2FF4E602E7839E2FC08E2F519
:101F8000828C83A3A3C083C082C3A3E09FFF05828A
:101F9000D5820215831582E09ED082D083F0A3EF14
:0E1FA000F0E47835F208F2E47832F2120F0A1B
:011FAE002210
:1020B9008D828C83A3A3A3EFF033333354F8902795
:1020C900AF9314605414700302216924026003025F
:1020D90021AFE51B70107825ECF208EDF27827ECBA
:1020E900F208EDF280257827E2FE08E2F5828E8378
:1020F900ECF0A3EDF018ECF208EDF2782FE2B40160
:102109000A7402F27829ECF208EDF2051B431D046A
:102119008D828C83E4F0A3F022E51C7010782CECFE
:10212900F208EDF27830ECF208EDF280257830E231
:10213900FE08E2F5828E83ECF0A3EDF018ECF208CC
:10214900EDF2781BE2B4010A7402F27819ECF20894
:10215900EDF2051C431D028D828C83E4F0A3F0226D
:10216900E51E7010781CECF208EDF2781EECF2080E
:10217900EDF28025781EE2FE08E2F5828E83ECF00E
:10218900A3EDF018ECF208EDF27822E2B4010A743A
:1021990002F27820ECF208EDF2051E431D018D8252
:0721A9008C83E4F0A3F02297
:10370A00E4901DD4F0FF7FD0901D04E4F0A3DFFC09
:06371A009037D574D0F0D9
:013720002286
:1018A800781474C4F208745CF2E4FF75F00AEFA4CB
:1018B8002466F582E5F034C4AD82FC75F00AEFA425
:1018C800245CF582E5F034C4F583ECF0A3EDF07503
:1018D800F00AEFA4245EF582E5F034C4F5837404BD
:1018E800F00FBF3FC6E490C6D2F0A3F0A37404F093
:1018F800781074C0F2087400F2E4FF75F00EEFA4DB
:10190800240EF582E5F034C0AD82FC75F00EEFA42C
:101918002400F582E5F034C0F583ECF0A3EDF07512
:10192800F00EEFA42402F582E5F034C0F5837403C9
:10193800F00FBF3FC6E490C372F0A3F0A37403F0A6
:10194800781274C3F2087480F2E4FFEF75F016A4FD
:101958002496F582E434C3AD82FCEF75F016A42416
:1019680080F582E434C3F583ECF0A3EDF0EF75F075
:1019780016A42482F582E434C3F5837402F00FBF01
:1019880009C9E490C446F0A3F0A37402F078167471
:10199800C6F20874DCF2E4FF75F046EFA42422F5E1
:1019A80082E5F034C7AD82FC75F046EFA424DCF57F
:1019B80082E5F034C6F583ECF0A3EDF075F046EF60
:1019C800A424DEF582E5F034C6F5837401F00FBF78
:0C19D80007C6E490C8C6F0A3F0A304F01A
:0119E40022E0
:102CE800E4FFEF75F007A42415F582E434CEAD8235
:102CF800FCEF75F007A4240EF582E434CEF583ECDE
:102D0800F0A3EDF00FBF13DAE490CE93F0A3F078C0
:102D18003374CEF208740EF2E47839F208F278329D
:102D2800F27835F208F2120F2C7837EEF208EFF24B
:0A2D38002404F582E43EF583E4F084
:012D4200226E
:102E3E00E49048B8F09048B8E0FF75F007A424D3AA
:102E4E00F582E4343EAD82FCEF75F007A424CCF598
:102E5E0082E4343EF583ECF0A3EDF09048B8E00444
:052E6E00F0E0B40FD0FC
:102E7300E4903F35F0A3F0903F3C743EF0A374CC54
:092E8300F0E4903ECAF0A3F02235
:10003600D20E122A12C20E22D20E122D9DC20E22EC
:10004600D20E12CDB4C20E220237700237800234AD
:0D005600C90235980237900237A0022B61D5
:1032930090D9167402F0A3E5A5F0A37480F0AF8172
:1032A300A807E6A3F0A37414F0E58114F8E6A3F0ED
:0A32B3007CD97D127F04120EF9226F
:1032BD0090D9167402F0A3E5A5F0A37480F0AF8148
:1032CD00A807E6A3F0A37415F0E58114F8E6A3F0C2
:0A32DD007CD97D127F04120EF92245
:1032E70090D9167402F0A3E5A5F0A37480F0AF811E
:1032F700A807E6A3F0A37417F0E58114F8E6A3F096
:0A3307007CD97D127F04120EF9221A
:1031E20090D9167402F0A3E5A5F0A37480F0AF8124
:1031F200A807E6A3F0A37416F0E58114F8E6A3F09D
:0D3202007CD97D127F04120EF9E4FEFF223C
:10364700E5792425F582E43578F5832290044075E1
:09365700F003E55E120694E02286
:0A0A6B0090B825E054FEF053A2F30A
:100A7500E4F55AF55B0000000000000000000000EE
:100A85000000055BE55B7002055AB498E8E55AB4C9
:020A950006E376
:100A9700D2A4D2A053A1EE00000000C205D2007874
:100AA7001FE6FF30E602800EEF30E704C200801138
:100AB70020A40920A006D205C200800520A002C2FA
:100AC7000090A4F77481F0EF20E3327FFF12004E0D
:100AD700E4904FE8F0A3F07E4F7FE87B02FA7DE8D1
:100AE7007C01120054904FE8E0B4AA0BA3E0B45580
:100AF700067DFF7FFF801C7D017F048016904ED608
:100B0700E05460C4135407FF12004E904ED6E0FF26
:100B1700A3E0FD12005130050BE490BD03F075A56D
:100B27000112AB8112122675A897E490B203F01256
:100B37001FAF300037E4F5A512812612CA7B75A5D1
:100B47000412B99E904EB7E06006E4F5A512EB4A91
:100B5700904EE5E06006E4F5A512C251904ECFE055
:100B670030E30312A1BFE4F5A51237EAE4F5A512B5
:050B7700E076E4F5A5A5
:100B7C0090BE2AE0FF90D946E06F7003020C5990AA
:100B8C00CC04E0FF64016008EF64026003020C51C6
:100B9C0090BE2AE078B4F290BE29E018F2A3E0FFF0
:100BAC0008E2B507EBE22401F218E23400F2123647
:070BBC0047E07003020C5139
:100BC300C2AFE579242A12364BE0FFA3E078AFCF1A
:100BD300F208EFF2E579242812364BE0FFA3E00890
:100BE300CFF208EFF2D2AF78AFE2FE08E2FFC378AC
:100BF300B4E29F79B0F318E29E19F378B1E2FE08EC
:100C0300E2FFD378B0E29F18E29E4042E42579F5F3
:100C130082E5783401F5837408F0123647E4F01264
:100C23000F2C9048B5EEF0A3EFF02404F582E43ED8
:100C3300F5837404F0EF2405F582E43EF583E5774C
:0E0C4300F09048B5E0FCA3E0FD7F06120EF92C
:080C510090BE2AE090D946F0A4
:100C5900904E1EE030E00975A50112E550E4F5A5B6
:100C6900E490BD0CF0E51D6003020B36F5A5904E2E
:100C7900B5E030E00312E9A7E4F5A5904E46E0544B
:030C89000F6014E5
:100C8C00E4F5A512D74D9048B7EFF0E4F5A5EF6069
:040C9C0003020B360E
:100CA000904E46E054F07003020B36E51D600302DF
:0F0CB0000B36E58754FC4401F5870000020B3634
:10122600E4F5A8781FE620E369E4904FE8F0A3F020
:10123600904E1BF07E4E7F007BEA7A01FDFC120089
:10124600547E377FD67B607A007D507C0312005433
:10125600904E1CE090D947F0904FE8E064AA7004E5
:10126600A3E06455601575A5017E4E7F007C407D28
:10127600007BEA7A011234EEE4F5A590D6A5E0905B
:101286004ED6B40106E04460F08007E04440F054D6
:10129600DFF090CBED7406F0E4F5A5128894EF60CC
:1012A6000675A50112AB81E4F5A520000B904E2131
:1012B6007403F0758E018006904E20E0F58E12368E
:1012C600C21218A8123811122CE8122E3E12370A32
:1012D600E4F5A512DC82E4F5A5F5A5123843E4F59C
:1012E600A5781FE630E20D1213FC8F82F583741089
:1012F600F012141C781FE6543060101213FC8F8213
:10130600F5837410F0781FE612141C781FE630E39C
:1013160044120F2C8E5C8F5D8F828E83E5822404AF
:10132600F582E43583F5837402F0EF2406FFE43E8C
:10133600FE8F82F583740EF0A3E4F08F828E83A372
:10134600A37403F08F828E83A3A3A3F0AD5DAC5C80
:101356007F04120EF930001412389D1238891238A3
:101366009312385712387F1238618006781FE65478
:10137600C0F612382F12381B12383912382512EBE4
:1013860036C288C28AE490BD13F090BD03F090BDCA
:101396001B740FF090BD0A743DF0A37409F090BD64
:1013A600037401F0E490BD0CF075A50112E53DE46F
:0213B600F5A59B
:1013B8007E047F407B29FA7DF67C0212005490045B
:1013C80067E0FEA3E064557003EE64AA7025F55E3D
:1013D800123653FEA3E04E6013900442123656FFB5
:1013E800123653FCA3E0F5828C83EFF0055EE55ED0
:0313F800B40DDD54
:1013FB0022120F2C8E5C8F5D8F828E83E5822404EC
:10140B00F582E43583F5837402F0EF2406FFE43EA6
:0D141B0022A3F0AD5DAC5C7F04120EF9223F
:1037210090D3FFE02481F582E434D4F583EFF09067
:06373100D3FFE004F022CA
:03000000021B16CA
:03003300021E7C2E
:03000300021D6873
:03000B00021E7D55
:03001300021DA922
:03001B00021E8B37
:03002300021E5268
:03002B00021E8A28
:03006300021E8BEF
:101D6800C0D0C0E030361153A4DF90B203E0547FF6
:101D7800F090B207E020E7F9C0F0C092C083C082BB
:101D8800C085C08475D008759200121013300F41B9
:101D9800D084D085D082D083D092D0F0D0E0D0D07B
:101DA80032C0D0C0E0C0F0C092C083C082C085C03D
:101DB8008475D0087592001237B0200503300E11D3
:101DC800D084D085D082D083D092D0F0D0E0D0D04B
:011DD80032D8
:101DD90075D000C0A5C000C001C002C003C004C0C6
:101DE90005C006C00775A500200E2F74FDC0E0745C
:101DF9001DC0E03212244BD007D006D005D004D044
:101E090003D002D001D000D0A5D084D085D082D013
:101E190083D092D0F0D0E0D0D022742CC0E0741ED0
:101E2900C0E032122A83D007D006D005D004D003EF
:101E3900D002D001D000D0A5D084D085D082D08363
:091E4900D092D0F0D0E0D0D022FC
:101E5200C0D0C0E0C0F0C092C083C082C085C08440
:101E620075D00875920012282CD084D085D082D0EB
:0A1E720083D092D0F0D0E0D0D0323F
:101E7C0032C000C0E0C0D0D0D0D0E0D0003232327E
:100EF900748055A870030220B9C2AF1220B9D2AFCD
:100F090022748055A87003022D43C2AF122D43D21B
:100F1900AF22748055A87003022AF4C2AF122AF4D2
:100F2900D2AF22748055A8700302333BC2AF12338B
:100F39003BD2AF22748055A87003023364C2AF124A
:100F49003364D2AF22748055A8700302338DC2AFC7
:100F590012338DD2AF22748055A870030233B6C202
:100F6900AF1233B6D2AF22748055A870030230A7EE
:100F7900C2AF1230A7D2AF22748055A870030230D5
:100F8900DDC2AF1230DDD2AF22748055A8700302E2
:100F99003113C2AF123113D2AF22748055A8700336
:100FA900021C44C2AF121C44D2AF22748055A870EF
:100FB900030219E5C2AF1219E5D2AF22748055A810
:100FC90070030228ACC2AF1228ACD2AF227480558C
:100FD900A87003022FF2C2AF122FF2D2AF2274808F
:0F0FE90055A870030234A4C2AF1234A4D2AF22B1
:03000E00021B478B
:09390B00740EC0E07400C0E0324B
:101B160043A110D2A4C2A490BD147401F0E4F00055
:101B260000000000000000000090BF00E4F090A458
:101B3600F4E04480F090BD10E05407781FF675205D
:101B46000043A110D2A4C2A4D2A4C2A490BF00E4B0
:101B5600F090BD18740FF090BD007401F090BF00B6
:101B66007403F075A50075D00078FF79DFE4F618E8
:101B7600D9FC781EF6D8FD75A4045387DFC2A0539E
:101B8600A3FE75A70078007F00E4F208DFFC900151
:101B9600007F007E4DE4F0A3DFFCDEFA90C0007FFC
:101BA600007E40E4F0A3DFFCDEFA757C00900000C6
:0E1BB60078107455F0A3D8FC7581FF021BFF58
:10355700904E00E090B803F0904E01E090B802F072
:10356700904E02E090B801F0904E03E090B800F062
:013577002231
:103FC000C2AF90BD03E4F00000438E08F80000008B
:033FD00002000EDE
:103FE000C2AF90BD03E4F00000538EF7F80000006C
:033FF00002000EBE
:103660008E858F848C838D82EB600DE493A375929D
:0936700001F0A3759200DBF322C6
:1034EE008E858F848C838D82EA7003EB6015EB6082
:1034FE0003EA04FAE493A3759201F0A3759200DB3C
:04350E00F3DAF122D9
:0D37D0008E838F82EB6005EDF0A3DBFB2202
:103692008E838F82EA7003EB600DEB6003EA04FA1B
:0836A200EDF0A3DBFBDAF922D5
:103578008E858F848C838D82AF031BEF6010E0A350
:10358800FF759201E0A37592006F60ECD322C3220D
:1036AA008E858F848C838D82EB600CE0A3759201EA
:0836BA00F0A3759200DBF4227D
:103311008E858F848C838D82EB601EE0FFA3E0FE9F
:10332100A3E0FDA3E0A3759201F0A3EDF0A3EEF0FD
:0A333100A3EFF0A3759200DBE22287
:103512008E858F848C838D82EA7003EB6014EB605E
:1035220003EA04FAE0A3759201F0A3759200DBF4BA
:03353200DAF222A8
:1035B8008E858F848C838D82EB60121BE493A3FF2E
:0F35C800759201E0A37592006F60EDD322C322CC
:10326800D310AF01C3C0D0EFF5E9EDF5EDEEF5EA07
:10327800ECF5EE7402140070FC00E5E9FFE5EAFEE7
:0B328800E5EBFDE5ECFCD0D092AF229E
:1033DF00D310AF01C3C0D0EFF5E9EEF5EAEDF5ED8F
:1033EF00ECF5EE7402140070FCE5E9FFE5EAFEE58A
:0833FF00EDE5EED0D092AF2203
:10314900D310AF01C3C0D0EDF5E9ECF5EAEFF5EB2B
:10315900EEF5ECEBF5EDEAF5EE7404140070FCE520
:10316900E9FFE5EAFEE5EBFDE5ECFCE5EDE5EED092
:04317900D092AF221F
:10340700D310AF01C3C0D0EFF5E9EEF5EAEDF5ED66
:10341700ECF5EE7402140070FCE5E9E5EAE5EDFF72
:08342700E5EEFED0D092AF22C9
:1031B000D310AF01C3C0D0EDF5E9ECF5EAEFF5EBC4
:1031C000EEF5ECEBF5EDEAF5EE7404140070FCE5B9
:1031D000E9E5EAE5EBE5ECE5EDFFE5EEFED0D092C2
:0231E000AF221C
:10292A008E858F848C838D82EB22E0FFA3E0FEA349
:10293A00E0FDA3E0FCA37592012212292A601F126E
:10294A002934F0A3DB028016EDF0A3DB02800FEE40
:10295A00F0A3DB028008EFF0A3759200DBE1759229
:10296A00002212292A602B122934EBC39404400254
:10297A00ECF0A3EBC394034002EDF0A3EBC3940283
:10298A004002EEF0A3EFF0A3759200EBC39404FBB0
:06299A0050D575920022E9
:10303300F582E43583F5837401F08F828E83E58214
:10304300222424F582E5833401F58322F582E435D5
:1030530083F5832224E7F582E43EF5832278B7E6FD
:0B306300FE08E6227896E2FE08E2225A
:10353500E490D87EF090D87FF090D880F0784DF266
:1035450008F290D88BF090B403F090BC22E0547F41
:02355500F02262
:10229600C2AF90BE12E04403F0D2AF90CC08E05437
:1022A600FCF0E4F5777578C975790F785DF290B82A
:1022B6001BE04480F090B817E04404F0E490D0BBF3
:1022C600F090D0BCF078787401F2087400F2E478EB
:1022D60055F2785B7404F2E4FFEF75F009A4247EEE
:1022E600F582E434CDF583E4F0EF75F009A424EC2F
:1022F600F582E434CCF583E4F00FBF10DC788AE293
:1023060054A7F208E25480F220000975A50112C70D
:102316009CE4F5A5E490CCD9F090D0A3F0C221902E
:10232600BC23E054FDF07E147F2A90B60AEEF0A39B
:10233600EFF0783FEEF208EFF27E1C7F5D903F47AC
:10234600EEF0A3EFF090B60EEEF0A3EFF0E4903FC0
:102356004EF090B807F090B805F090D091F090D07C
:0C23660090F090D0A5F090D0A4F0C21927
:012372002248
:040CBF008F418D4292
:100CC300E47898F208E5A5F275F06FEF90C90F127A
:100CD3000694EF2583AF82FE78B7F608EFF68E838E
:100CE300E0700FE54264026009E5426404600302B8
:100CF3000EF8E542640B600D75A501AF4112D508EE
:100D0300E4F5A5C22375A501AF4112D21DE4F5A5F3
:100D1300123060F5828E83E030E50B75A501AF419B
:100D2300129B97E4F5A57B06AD417FFF1214289033
:100D3300D87EE0B40103123535E541D39400401C5D
:100D4300123060FF8E83123044E0601012303D1287
:100D53003044E4F090D659E0600214F0E54175F0B8
:100D63000AA424BFF582E434D0AF82FE7B0AE4FDFB
:100D73001237D01230608E832465123046E0540659
:100D8300604390CD7CE07002A3E06039E490D93BEE
:100D9300F090D93CF0A3F090D93FF090D93EF012F7
:100DA3000F2C7896EEF208EFF224041230597419DE
:100DB300F0EF2405123059E541F018E2FC08E2FD9A
:100DC3007F08120EF9123060FF7B6F7A01E4FD1287
:100DD3003692123060FF8E83241C12304F7404123B
:100DE300303C241F12304FE4F0A3742812303C240B
:100DF3000A12304F740812303C2415123033241376
:100E030012303324141230332417123033242612B1
:100E1300304F747DF0A3E412303C242812304FE4A9
:100E2300F0A374FAF0904E36E014FF18E6FC08E6DF
:100E3300FD8C832422123046EFF08D828C83E58271
:100E4300241912304F74FFF090D762E0FF8D828C2B
:100E530083E5822417123046EFF0785BE2B5410355
:100E63007404F2E541C394015034C2AF90CC08E05E
:100E730054FEF0E542640B600790CC04E054FCF0B0
:100E8300D2AF90D65CE4F090CBFE12066300000074
:100E930000E490CBFDF0788AE254EFF2803090CCFE
:100EA30008E054FDF0E542640B600BE020E007909E
:100EB300CC04E054FCF090D659E0701290D648F080
:100EC30090BC22E0547FF0C221E490D69DF090CEF6
:100ED3009DE0B541037402F090CC04E07008122247
:100EE3009678987401F27898E260057F01122E8C4F
:050EF3007899E2F5A56D
:010EF80022D7
:0221B0008F415D
:1021B200E47898F208E5A5F275F0F3EF9038CA12C8
:1021C2000694AF82AE837896EEF208EFF2E07003E7
:1021D200022295123067FF24E8123059E4F0EF1220
:1021E2003057E0FF30E70590D091800E1230671231
:1021F2003057E0FF30E60D90D090E0FEEFF4FFEEB6
:102202005FF0801C90D0A5E0FF7896E2FC08E22403
:10221200E7F582E43CF583E0F4FEEF5E90D0A5F0B2
:10222200E5414480F54275A501AF4112D508E4F5B8
:01223200A506
:1022330075A501AF4112D21DE4F5A5123067FF7BEE
:10224300F37A00E4FD12369290BF23E04440F0E4B9
:102253007870F2786DF290CC08E054F3F090CC04EF
:10226300E054F3F07011122296C24E90B433E0544E
:10227300FCF078987401F27898E2601190D75AE0F4
:10228300700B90D95EE060057F01122E8C7899E285
:02229300F5A5AF
:012295002226
:0A381B00E4F5A512EAFFE4F5A5228A
:0A38250075A50112E556E4F5A52291
:05000600E47862F22223
:04317D008F438D44AB
:10318100120F2C90489BEEF0A3EFF02404F582E49B
:103191003EF583E543F0EF2405F582E43EF583E552
:0F31A10044F090489BE0FCA3E0FD7F02020EF992
:1034570090BE27E0904836F090BE241205B1904800
:103467003212064B90BE27E0FF904836E0B507E0E2
:063477009048321205B17D
:01347D00222C
:022E8C008F4372
:102E8E007F0390CC04E07003D38001C34002E4FFC3
:102E9E0090D95EE0520790D75AE0B50703EF70283D
:102EAE0090D75AEFF0120F2C904898EEF0A3EFF057
:102EBE00904898E0FCA3E0FD2404F582E43CF58301
:082ECE007445F07F05120EF9B6
:012ED60022D9
:08391400060120063900012024
:0A382F0075A50212CAC7E4F5A52230
:02306E008F3D94
:1030700085A53EE4F5A5E53D701275A5017E4E7F60
:10308000007C407D007BEA7A011234EEE53DB40419
:103090001275A5017E377FD67C447D8A7B607A00DD
:0630A0001234EE853EA58E
:0130A6002207
:1036790085A53DE4F5A57E147F2A7C407DC97B1F85
:083689007A011234EE853DA523
:013691002216
:0C37DD0085A54175A50212DA828541A580
:0137E90022BD
:0A38390075A50112AF4DE4F5A522BC
:10361100E5A5F075A5012275F005A424A8F582E4BD
:0C36210034D6F58322EFF0A3E0F5A522DB
:102F670090D6A2E0123618E0703B90D6A2E0FB752F
:102F7700F005A424ABF582E434D6F583EEF0A3EF95
:102F8700F0EB75F005A424A9F582E434D6F583ECBB
:102F9700F0A3EDF0EB1236187401F090D6A2E0041E
:062FA700F0E0540FF022DF
:0C37EA0085A55C75A50112C657855CA57D
:0137F60022B0
:0F37700090481112361112CCA8904811E0F5A51F
:01377F002227
:0F37800090481112361112B438904811E0F5A597
:01378F002217
:0F37900090481212361112A45F9048111236267B
:01379F002207
:083598008E7A8F7BAF05AE04B3
:1035A00090D949123611AD03AC02AB7BAA7A1295C1
:0735B000E790D9481236260E
:0135B70022F1
:1034C90090D94B1236117888ECF208EDF27884EA3B
:1034D900F208EBF27886EEF208EFF212E0C790D923
:0434E9004A12362627
:0134ED0022BC
:0F37A00090D95A1236111274E990D95AE0F5A552
:0137AF0022F7
:0A384300E4F5A512B863E4F5A52230
:1036C200759850758920E587547F4480F587758DFC
:0836D200E6D28ED299C29822C3
:0A384D0075A501129770E4F5A5229D
:0D37F700E4F5A512E62012977DE4F5A52269
:1035D70090B001EFF0A3ECF0A3EDF090B005E0445C
:0D35E70010F00000000000000000000022B5
:10100000353035305F5350500000000000002001A3
:03101000000100DC
:0A38570075A50312CC90E4F5A5223C
:0A38610075A503129F4BE4F5A522A4
:0A386B0075A50312A09D75A50422A7
:0A38750075A50312946275A50422E4
:0A387F0075A50312C2CEE4F5A522E0
:052C8C009048E4EFF0A8
:102C9100E4A3F09048E5E0FFC39401504775F06F5D
:102CA100EF90D150120694EF2583F583E0FF904811
:102CB100E4E0FEEFB50625A3E0FF75F06F90D15477
:102CC100120694EF2583F5831205B1E4FBFAF9F8B6
:102CD100C312055660069048E5E0FF229048E5E002
:062CE10004F080AF7FFF4C
:012CE70022CA
:102ED7009049DDEEF0A3EFF0EB4A603C90A403E0ED
:102EE70020E1F9C2AFAF0590A406ECF0A3EFF0AF75
:102EF7000390A40AEAF0A3EFF09049DDE0FFA3E016
:102F070090A412CFF0A3EFF090A403E04402F0D214
:092F1700AF90A403E020E1F922CF
:0A38890075A50412E95DE4F5A5221F
:0A38930075A50412E3F9E4F5A5227F
:10347E00A31206A08E827583001203CC6F22EE7506
:10348E00F04AA42428F582E4344C227B017A4F7949
:06349E00C71206C0E42283
:0A389D0075A50412D4F6E4F5A52287
:0A38A700E4F5A512E44675A504221D
:10320F00E4FE12348CF583E0B50719EE75F04AA48D
:10321F00242BF582E4344CF583E030E00712348C34
:0C322F00AF82FE220EEEB401D9E4FEFFD7
:01323B002270
:1035F40090A4B3EDF090A4B2EBF090A4B1EFF090EE
:0D360400A4B07480F090A4B0E020E7F9229B
:102FAD009048FCEEF0FAA3EFF0FBA3ECF0FEA3EDDE
:022FBD00F0FF23
:102FBF00A37401F0AD03AC02FB7A00120057EF705F
:102FCF001C9048FCE0FEA3E0FFA3E0FAA3E0FB7D2A
:102FDF00017C0012005AEF7004904900F0904900F4
:022FEF00E0FF01
:012FF10022BD
:10373700AB07AA06AE04AF05AC02AD037B017A0066
:0337470002005429
:0A38B10075A50412BAB075A5042233
:10374A009048F7E5A5F075A50412D8469048F7E029
:02375A00F5A5D3
:01375C00224A
:10375D009048F3E5A5F075A50412E30C9048F3E04D
:02376D00F5A5C0
:01376F002237
:0C38040085A56875A50412E54A8568A535
:013810002295
:0A38BB0075A50212F73975A5042265
:0A38C50075A50212F78375A5042211
:0A38CF0075A50212450575A5042237
:0A38D90075A5021260B275A5042265
:0A38E30075A502129AC775A504220C
:0A38ED0075A50412E54A75A5022234
:0A38F70075A50412E30C75A502226A
:0A39010075A50412D84675A5022230
:102692009048FB1234999048FAF09048FAE0FEC351
:1026A2009408500D12347E60089048FAE004F080DD
:1026B200E99048FAE01206D526D60026E00126EA7D
:1026C2000226F40326FE04270805271206271C0704
:1026D20000002725ED6003D38001C3928022ED60C4
:1026E20003D38001C3928522ED6003D38001C3929C
:1026F2009722ED6003D38001C392B122ED6003D330
:102702008001C392B222ED6003D38001C392B3224F
:10271200ED6003D38001C392B422ED6003D3800144
:03272200C392B7A8
:012725002291
:102B61009048E71234999048E6F09048E6E0FEC3B9
:102B71009408500D12347E60089048E6E004F0801D
:102B8100E99048E6E01206D52BA5002BA9012BAD53
:102B9100022BB1032BB5042BB9052BBD062BC107A5
:102BA10000002BC7A280801AA2858016A2978012EE
:102BB100A2B1800EA2B2800AA2B38006A2B48002A2
:082BC100A2B7E433FF227F02FA
:012BC90022E9
:10946D0054F8FFE04F90B81BF0E054874410F09093
:10947D00B817E054074490FFE490B816F0A3EFF04E
:10948D002290BE2BE00490BA0BF090BA2B7402F030
:10949D002290BE27E054FC440390BA03F090BA2307
:1094AD007401F02290B60A741CF0A37470F090B69B
:1094BD000E741CF0A37482F0C21522F090BF2374B9
:1094CD0060F090BE23E04401F022E090CA33FF75B6
:1094DD00F06F120694EF2583F58322E025E0FFA3BC
:1094ED00E0C413131354014F22E4F577F5777EC9C9
:1094FD007F0F8E788F798E788F792290BE26E0F24D
:10950D00A3E054FC08F290CCE6E0FEA3E054FCFF8F
:10951D0008EEF2FE08EFF222F090BE23E054FCF0CC
:10952D002290B61A741CF0A3745EF022F582E43515
:10953D0083F583E4F08F828E832290CC08E0440281
:10954D00F07577017578CA75797E2290BE27E00493
:10955D0090BA03F02290BE27E054FC2254FC25E083
:10956D00FF901C6CE054074FF02290B85FE0640B45
:10957D002290B81BE0548722E05402FF90BC23E0F8
:10958D0054FD4F2290BF23E054FEF0229000E4E002
:10959D00D39410229000E8E054FDF02290BF23E018
:1095AD004401F0E054E7F0224440F090BE1AE0543C
:1095BD00FEF0229000E4E004F022D22F90BF23E0D1
:1095CD004418F02290BE27E00490BA0BF02290B818
:1095DD001BE054F822E090B684F090B68EE0229015
:0995ED00BE081205B1EF240222B0
:10420000E4F54D90D95CE0F54CE4F0C222788BE205
:104210004401F2A220B34003024A7F90C90EE02479
:10422000FE70030245181470030246E41470030282
:1042300048911460121470030243B4146003024ADC
:104240004412E56E024A4AD2229000F3E0540D2453
:10425000FB606924F8700302436C240C6003024382
:01426000AFAE
:10426100789E129508789FE26F700318E26E70468F
:1042710078ABE624FE6003024A4A124AB412DA3EDF
:1042810012952E90B81BE090C91012946D1295589A
:10429100E4FDFF12CC6290CA331295851294A9787D
:1042A100477405F29000F3E04404F07F1A12E4AC85
:0842B1009000E4024641C22224
:1042B900024A4A78ABE624FE601B24026003024AE4
:1042C9004A12CED31294B1129562440112949312F8
:1042D9009591024A4A12957760FB90BF43E020E02E
:1042E900099000E4E0D39402404212EACF124AA6B0
:1042F90090CBFE120663000000009000F4E0FF126C
:10430900DAA112E5C890CC047401F0C211129547E4
:104319009000F3E04408F07F1012E4ACD222E4905C
:1043290000E4F090CA81E04490F0802C12CED312C0
:10433900952E12DA3E90B81BE090CBFD12946D12C7
:104349009562440390BA03F09000F4E0FFE4FD1293
:10435900CC621294AA1295C078457405F27847F296
:10436900024A4A129599400E7F1912E4AC12DCDF19
:104379001294F6024A4A12E13E1294C99000F4E0FE
:1043890090C9121294DBE04460F0C22275F06FEF1D
:1043990090CA331294DFE090D66EF09000F4129434
:1043A900D7E4F002450DC222024A4AD2229000EB1C
:1043B900E0546D24FB700302444724F8700302445F
:1043C900B324E070030244BB24C070030244EC240C
:0643D9006C6003024513B5
:1043DF0078A212950878A2E2FC08E2FDC3EF9DFFD8
:1043EF00EE9CFED3EF9418EE9400504778A5E26D43
:1043FF00700318E26C6003024A4A78ABE624FE7041
:10440F002A124A8090CCDAE0FFE4FD12CC6290CC05
:10441F00DA1294D71295851294969000EBE044042B
:10442F00F07F1D12E4ACE49000E4F078457408F2DC
:05443F00024A4AC222FE
:10444400024A4A78ABE6602E24FE6003024A4A120E
:104454009599400B7F1B12E4AC757701024A4A120E
:104464004A80E4FDFF12CC6212949712959178452C
:064474007408F202450D80
:10447A0012957760FBE0640460F6E0640560F190F1
:10448A00BF43E0F54E20E203024A4A124AB412EA56
:10449A006E12956244011294A678477408F2129536
:0644AA00C7E49000E4F0FD
:1044B000024A4AE4FF12DAA1024A4A12B02E9000E0
:1044C000EB746DF090CC047402F090CC08E04401E1
:1044D0001294C8C2221294F690CA33F090CBFDE039
:1044E00090C910F01295C0D219024A37129599401E
:1044F0001A7F1C12E4AC12E5C812954E90CA81E0F6
:1045000044F0F0E490C90EF0024A4AC2221295C06B
:10451000024A4AC222024A4AD2229000F7E0540DCF
:1045200024FB700302464724F870030246DF240C84
:104530006003024A4A12952678ABE614602D146097
:104540004A14604724036003024A4AE54C64016050
:1045500003024A4A129558C21512B95D90BA2374E3
:1045600002F0129591784574038017E54C6402605F
:1045700003024A4A1295D1C21512B95D1294977876
:104580004504F290D95C14F0024A4A12957760FB18
:1045900090BF43E030E04CE54C6402704678ABE6F7
:1045A000B4020512E8B2800312EACF90BE241205CD
:1045B000B19000E512064B1295A19000F27401F043
:1045C00012C70912949E78477404F21295DB129474
:1045D0007512DDE812952E9000F7E04404F07F0894
:1045E0000246D99000F0E030E12078ABE664036049
:1045F00003024A4A9000F7E04410F0C2221294CF1E
:10460000E490C90EF07F070246D912EA6E78ABE655
:10461000B4021712955812B95D1294AA7847740320
:10462000F290D95CE54CF0024A4A12DF191295D19A
:1046300012B95D90BA2B7401F078477403F290D9E7
:104640005C7401F0024A4A78ABE624FE602424023E
:104650006003024A4A9000E8E04402F012C70912DF
:104660009562440190BA0BF01294B1129497784578
:1046700080299000F2E004F012957760FB90BF4231
:10468000E030E01D1295A112C70912952E12DDE847
:104690001295DB12947512949E78477404F2024AC4
:1046A0004A90BF43E020E003024A4A1294C912EA4A
:1046B000CF12E13E90CC047401F0C211124AA6124E
:1046C000954790CA81E044F0F0E490CBA2F0C2227A
:1046D0009000F7E04408F07F1012E4AC024A4AC2AE
:1046E00022024A4AD222129526E04401F07845740B
:1046F00002F29000EEE0FF541924F7604F24F060BE
:104700005F24186003024786EF30E6121295A990E5
:1047100000EFE020E6031295B5754D01806A78AB95
:10472000E664027063754D0112D40D12948E9000F0
:10473000EEE04440F090D75CE02401FB90D75BE0D2
:104740003400FAE4FD7F0F120FA3803C90D756E0AF
:1047500060099000EFE04401F0802D9000EE802091
:104760009000EFE020E4217F0C12E4ACC2AF90BED9
:1047700012E04403F0D2AF788BE254FEF29000EFE7
:10478000E04410F08002C2229000EFE0FF5407FEE8
:10479000BE0109EF4402129525024A4AEE64036005
:1047A000030248661295267857E2FF90BE27E06F15
:1047B0006003024A4A1295DBF0E0547FF090B81A89
:1047C000E054FEF0E054FDF090D784E0602590D7EF
:1047D00056E0FDD39411500812957E4418F08036AF
:1047E000EDD3947912957E50054450F080284470A2
:1047F000F0802390D756E0FDD3941B500812957E8D
:104800004420F08011EDD394B712957E50054458A2
:10481000F080034478F090B817E054FC4402F0E0D4
:1048200054FBF090D756E075F008A4FF90B817E05D
:104830005407FDED4FFFE5F012948678477409F2B6
:10484000901CF2E0FFA3E090B61ACFF0A3EFF012B5
:104850009558E490B805F090BA2304F09000EFE08A
:104860004404F0024A4A9000EFE0FD5407640760F8
:1048700003024A4A12952690B85BE06003024A4A56
:10488000ED54F89000EFF09000EEE04410F0024A92
:104890004AD2229000F0E0FF543D24FB606A24E8F5
:1048A00070030249E9241C6003024A40EF30E6121B
:1048B0009000F1E020E6031295B51295A9754D011F
:1048C000803E78ABE664027037754D0112DB6612EC
:1048D0009526E04401F012948E9000F0E04440F000
:1048E000904E06E070057B80FA800F90D760E02440
:1048F00001FB90D75FE03400FAE4FD7F0F120FA3B5
:1049000078457406F2024A4A784AE2FDC378ABE67B
:104910009D5403F54B640170511295A190BE27E0A0
:10492000C39D1313543F049000F2F0E0FF64057040
:10493000030249E2EFD3940540147F1312E4AC90D4
:1049400000F07480129525E04401F00249E21294CF
:10495000B190B85BE0640C60F8E0640160F312D3DE
:104960009090BE271294910249E29000F2E06072AA
:10497000E58E54707005754F288003E4F54FE4F51B
:104980004EE54EC3954F500500054E80F4E54B644F
:10499000036004E54B704B90BF43E030E04490B8B7
:1049A0005FE0640560F8000090BF43E030E23090C3
:1049B000B82BE054786410702690BE27E07858F247
:1049C0009000E8E04402F012D39012EA6E90BE2705
:1049D000E0041294A61295C778457407F28003127A
:0249E000EACF1C
:1049E20078457407F2806112B02E90BE27E054031E
:1049F20078ABF69000F0E04420F090CC08E044015F
:104A0200F090CC047402F01294F690CBFDE090C9C1
:104A1200101294C890CA33E4F012CED312956244B5
:104A22000390BA0BF0783FE2FF08E290B60ACFF0AB
:104A3200A3EFF0D22290C912E04490F0800AC22281
:104A42008006788BE254FEF2302232E490B8BBF05A
:104A5200E54D600B904E3A1295E24440F080099089
:104A62004E391295E254BFF090BA23E020E007904D
:0D4A7200BA2BE030E00790B87BE054FCF078
:104A7F002212CED390BE27E054FC440390BA0BF021
:104A8F0090B60A741CF0A37470F090B60E741CF0FC
:104A9F00A37482F0C215227ECB7FF37C4E7D007B08
:104AAF000A1236AA2212CED3904E36E0FF12A70872
:014ABF0022D4
:10DF19009000E9E0B4FF239000F6E004F09000EDF2
:10DF2900E0FF9000F6E0B5070C9000F5E06402F020
:10DF3900E49000F6F0E49000E9F090BE27E0541C6C
:10DF49001313543FFF7401A807088002C333D8FC98
:07DF5900FF9000E9E04FF02A
:01DF6000229E
:10DDE80012EAE71295ECF553E43EF552E43DF5519D
:10DDF800E43CF550E553129569E55225E0FFE553FB
:10DE08001294EEA3F0E55125E0FFE5521294EEA33B
:10DE1800F0E55025E0541EFFE5511294EEFFA3E013
:10DE280054E04FF090D756E06007901C65E044043A
:01DE3800F0F9
:01DE390022C6
:10DA3E0090BE17E04401F0E490D8E2F090CC05E0FF
:10DA4E00FEA3E0FFC39438EE94015004EF4E701322
:10DA5E001295ECFFE43EFEE43DFDE43CFC90BE0876
:10DA6E0012064B90BE0BE012956990BE0A1294E816
:10DA7E00901C6DF090BE091294E8901C6EF090BE52
:10DA8E0008E025E0541E1294EBFF901C6FE054E06A
:03DA9E004FF02224
:10DAA10075F06FEF90C90F120694EF2583AF82FED8
:10DAB100752220E4F525F5298E83E582241D129532
:10DAC10039E582241B129539E582241CF582E4355F
:10DAD10083F5837404F08F828E83E5822423F5829B
:10DAE100E43583F583E4F0A3F08F828E83E582240D
:10DAF1001A129539A3A3F08F828E83A3A3A3E044C6
:02DB010080F0B2
:01DB030022FF
:07EB360012BC2F12000622A1
:10A47F008E488F498F828E83E5822404F582E435DE
:10A48F0083F583E024FE602B24FD603224F96050B5
:10A49F0024FD605D24FA605D1460342416600302AD
:10A4AF00A5CBE5492405F582E43548F583E0FF1295
:10A4BF00E53F22AF49AE4812B13C120F0A22E549DF
:10A4CF002405F582E43548F583E0FF12D7BF22E576
:10A4DF00492405F582E43548F583E0FF12C40322D1
:10A4EF00E5492405F582E43548F583E0FF12E97567
:10A4FF002212CE3C22E5492405F582E43548F58346
:10A50F00E0FF75F06FA42412F582E5F034C9F583EE
:10A51F00EF2583F583E030E11975F06FEFA4245731
:10A52F00F582E5F034CAF583EF2583F583E0440126
:10A53F00F022E5492405F582E43548F583E0FF75FF
:10A54F00F06FA4246FF582E5F034CAF583EF25830D
:10A55F00F583E030E11875F06FEFA42457F582E52D
:10A56F00F034CAF583EF2583F583E04402F0E54923
:10A57F002405F582E43548F583E0FF75F06FA424D8
:10A58F006FF582E5F034CAF583EF2583F583E0306C
:10A59F00E21875F06FEFA42457F582E5F034CAF591
:10A5AF0083EF2583F583E04404F0E5492405F58224
:0DA5BF00E43548F583E0FD7F1C12E37822AF
:10BC2F00E4FF90B81BE04480F090B817E04404F0B4
:10BC3F007E147F2A90B602EEF0A3EFF090B60AEED4
:10BC4F00F0A3EFF0783FEEF208EFF27E1C7F5D90ED
:10BC5F003F47EEF0FCA3EFF0FD90B60EECF0A3ED36
:10BC6F00F090B606ECF0A3EDF090B44A7414F0A384
:10BC7F00742AF090B452EEF0A3EFF07E027FF090B2
:10BC8F00B622EEF0A3EFF090B62AEEF0A3EFF0E4B9
:10BC9F007855F27522207EC97F0F8E788F798E7836
:10BCAF008F79785B7404F2E4FF75F06FEFA4242BA7
:10BCBF00F582E5F034C9F5832FF5837404F075F040
:10BCCF006FEFA42429F582E5F034C9F5832FF583AE
:10BCDF00E4F00FBF02D390AA07E030E406788BE2BE
:10BCEF004440F29000FB74FFF090B8417401F09063
:10BCFF00BE28E0FCA3E0FDA3E0FEA3E0FF90D90A7D
:03BD0F0012064BCE
:01BD1200220E
:10B13C00EF2406FDE43EFC8D82F583A3E0F5288D1B
:10B14C00828C83E0F52790D90EE0FF600C12384D0D
:10B15C0090D90EE0600302B24830430D78B2E65449
:10B16C00FEF61295F6C22E801030460512EAF380D8
:10B17C0008303805129D7BC22E303E6212606D3055
:10B18C001807E478ACF612AE0078ABE620E04390FA
:10B19C00D69DE0B4090990B677E0547FF08010900A
:10B1AC00B677E0FF90D8D6E0FEEF4E90B677F090F1
:10B1BC00D670E0B4090312D50412EB3D903EC7E003
:10B1CC0030E00512E876800A903EC7E030E10312C9
:10B1DC00D489301807E478ACF612AE00C232303D98
:10B1EC002830152290B60EE0FEA3E0FF903F47E01A
:10B1FC00B50607A3E0B50702D21690B81BE0547F42
:10B20C00F0E4FF12C58EC23022303B06E4FF12C5BB
:10B21C008E22303C07302F241274E42230450C78F7
:10B22C00B2E6B40217E4F612E3AC2230440E90BF3F
:0DB23C0022E054CFF0E478B2F612E7D422FD
:109D7B0090BF23E054FEF0201903029E0B90CC04FD
:109D8B00E06402707BE5792468F582E5783401F5AF
:109D9B0083E0D394004026857982857883A3E0FF06
:109DAB0090B82BE05407B50704E478ACF6E57924BA
:109DBB006AF582E5783401F583E4F0801290B85FA0
:109DCB00E0640B60F8E0640460F3E0640560EE129D
:109DDB00AE00E5792468F582E5783401F583E0641B
:109DEB00016003029EEEE5792449F582E5783401A2
:109DFB00F583E064046003029EEEAF77124AC02243
:109E0B00783CE224FA607924046003029EEE12EAA5
:109E1B00CF12E98EE490B81FF090BE27E00490BA01
:109E2B0003F090BA237401F090B81BE054F8F0E003
:109E3B0054874410F090B817E054074490FF90B843
:109E4B0016E4F0A3EFF078477409F212DDE890B650
:109E5B001A741CF0A3745EF09000EEE04408F090CE
:109E6B00D756E0600990BE27E024047857F2788B30
:109E7B00E24401F2782BE2FBE4FD7F0F120FB422D8
:109E8B007858E2784AF290BE17E04410F0000000D8
:109E9B000090BE00E0FCA3E0FDA3E0FEA3E0FF907A
:109EAB0000E512064B9000E8E04402F0E49000F26B
:109EBB00F012D39012EA6E784AE20490BA03F09053
:109ECB00BA237401F09000F0E04404F090BE23E05C
:109EDB0054FCF07F0A12E4AC782BE2FBE4FD7F0F1D
:049EEB00120FB4227C
:10D9D80090CC04E0FF64046017EF6408601290C9FB
:10D9E8000EE0FF64076009EF64086004EFB4092AD9
:10D9F80090D90DE0FF90BE03E0C39FF54BC313FF22
:10DA08007E00120FC590BE00E0FCA3E0FDA3E0FE7F
:09DA1800A3E0FF90D90A12064BAD
:10DA21002290BE00E0FCA3E0FDA3E0FEA3E0FF9096
:0DDA3100D90A12064B7F017E00120FC5229C
:10606D0090BE17E04403F00000000090BE03E05422
:10607D000378ABF6E620E06B12D9D8786DE26003B9
:10608D0012598D78ACE6D39400400116302428C205
:10609D0024C2AF90BE12E04440F07865E2FF08E202
:1060AD0090BE06CFF0A3EFF090BE13E04480F0D287
:1060BD00AF7862740CF2227847E2783DF2E47847CB
:1060CD00F27845E2783CF2E47845F290D69DE0FF17
:1060DD0090D670F0E490D69DF0BF090790BC22E0F9
:1060ED00547FF078ACE6700312420078ABE6FD30D9
:1060FD00E00302642790BE17E04403F090CC04E067
:10610D006401600302628DED704C30112F08E67052
:10611D002B788BE24402F290BF23E054FEF090BE48
:10612D0003E054FC440190BA0BF012CED37D01AFC5
:10613D007712CC6212B66DC21102641720210302D0
:10614D00641730220302641778ACE660030264170B
:10615D0012D08002641778ABE66402600302641704
:10616D0030192208E6601C12EACFE579241AF5826F
:10617D00E43578F583E4F078ACF690BF23E054E78E
:10618D00F0C22FC21978ACE66003026417783CE2C6
:10619D006410600302628790B85FE0640B60F8E002
:1061AD00640460F3E0640560EE90BF43E0F54A20BF
:1061BD00E20302625190B82BE054077859F28579C9
:1061CD0082857883A3E0FFE2FEEF6E7064125229A0
:1061DD00202F0302641790B85FE0702490BF43E056
:1061ED00F54A30E308E4FF12C58E026417E54A3024
:1061FD00E4061274E4026417E4FF12C58E026417FC
:10620D00302924E579241AF582E43578F583E4F014
:10621D00E579241AF582E43578F583E0FF90B81A14
:10622D00E054FEFEEF4EF090BF23E04418F0026400
:10623D0017E579241AF582E43578F583E4F012D167
:10624D0006026417E579241AF582E43578F583E4BE
:10625D00F012D106E5792449F582E5783401F5830C
:10626D00E020E403026417E5792458F582E57834DB
:10627D0001F583E4F0A3F0026417128FA2026417F4
:10628D0090CC04E06402600302640D3018030264D4
:10629D001730191490BE17E04402F0000000009072
:1062AD00BE03E0540378ABF690D87FE06401703400
:1062BD00D3784EE2940018E29400402890D880E004
:1062CD00602208E224FFF218E234FFF208E27002C5
:1062DD0018E27010D22590C92EE0FFA3E0784DCFC3
:1062ED00F208EFF278ABE6640260030263E008E6C1
:1062FD006003026417A222B34003026417A24CB3D9
:10630D00400302641790C911E0540360030263CB8C
:10631D0030195FC21090B85BE0700A90CA77E0FF49
:10632D0012CD00800312CED390CA77E0FFD3940034
:10633D00403CEF25E078ACF690BF23E04401F090AF
:10634D00CA5AE030E35A90CA7AE0FF7E0090CA5FE5
:10635D00E0FCA3E02FFFEE3CCF24FFCF34FF90CA2B
:10636D0067F0A3EFF090CA5AE054F7F08032D210E4
:10637D00802E90D87EE0B4010512DC25801990C9DD
:10638D003AE0FF90BE0AE0C39FC394044004D233A9
:10639D008002C23312CED3D21090BF23E054FEF050
:1063AD0078457410F2E4FDFF12CC6290BE03E05408
:1063BD00FC440390BA0BF012B66DC233804C90CAF8
:1063CD0058E030E40690CA6C7401F0788BE254FD0D
:1063DD00F28037301034A222B3502F78ABE6702AFA
:1063ED0008E67026A24CB3502190B85FE0640B60B4
:1063FD00F8E0640460F3E0640560EE12AE00800A1C
:10640D0090CC04E0B40803127F3F785DE260057F15
:0A641D0002124AC0788BE254BFF26D
:016427002252
:02CC62008F51F0
:10CC640075F06FEFA424FCF582E5F034C9F5832F49
:10CC7400F583E0FFED601675F06FE551A424FDF532
:10CC840082E5F034C9F5832551F583E0FFEF606157
:10CC9400785BE26551605375F06FE551A42499F512
:10CCA40082E5F034C9F5832551AD82FC7EAC7F4C1E
:10CCB4007B101236AA90CBF3E090B80BF090CBF433
:10CCC400E090B80AF090CBF5E090B809F090CBF67C
:10CCD400E090B808F090CBF7E090B80FF090CBF864
:10CCE400E090B80EF0785BE551F290B8537403F01D
:0BCCF40022E490B853F0785B7404F267
:01CCFF002212
:10CE3C009000EEE0FF54486440600AEF54A0700587
:10CE4C00E05424602F12EACF90BF23E054FEF07818
:10CE5C002BE2FBE4FD7F0F120FB4202E699000EE45
:10CE6C00E0FF30E20354FBF09000EEE054FEF07F64
:10CE7C000B12E4AC9000F0E0544464406006A3E074
:10CE8C005405604212EACF90BF23E054FEF0782B99
:10CE9C00E2FBE4FD7F0F120FB4202E2A9000F1E08C
:10CEAC00FF30E703547FF09000F0E054FBF090BEAD
:10CEBC0023E054FCF0E04401F0783CE2B40602E4D8
:07CECC00F27F0912E4AC2221
:10E97500EF24FE700D9000F7E04401F090C90E748D
:09E9850002F0788BE24401F22259
:10E53F00857982857883E054466023A3A3E0540352
:10E54F00701C75F06FEFA42412F582E5F034C9F555
:0FE55F00832FF583E04420F0788BE24402F22210
:106FFC008E4D8F4E8D828C83E0854E82854D83F035
:10700C008D828C83A3E0854E82854D83A3F08D8287
:10701C008C83A3A3E0854E82854D83A3A3F08D8240
:10702C008C83A3A3A3E0854E82854D83A3A3A3F0F9
:10703C00ED2404F582E43CF583E05403FFE54E2493
:10704C0004F582E4354DF583EFF0ED2405F582E48B
:10705C003CF583E0FFC4333354C0FFED2404F582C8
:10706C00E43CF583E0FE1313543F4FFFE54E24053B
:10707C00F582E4354DF583EFF0ED2406F582E43C22
:10708C00F583E0FFC4333354C0FFED2405F582E4EF
:10709C003CF583E0FE1313543F4FFFE54E2406F5F9
:1070AC0082E4354DF583EFF0ED2407F582E43CF5F1
:1070BC0083E0FFC4333354C0FFED2406F582E43C77
:1070CC00F583E0FE1313543F4FFFE54E2407F58282
:1070DC00E4354DF583EFF0ED2407F582E43CF583C0
:1070EC00E0FFC45403FFE54E240BF582E4354DF567
:1070FC0083EFF0ED2408F582E43CF583E0FFE54EE8
:10710C002408F582E4354DF583EFF0ED2409F58282
:10711C00E43CF583E0FFE54E2409F582E4354DF5BA
:10712C0083EFF0ED240AF582E43CF583E0FFE54EB5
:10713C00240AF582E4354DF583EFF0ED240BF5824E
:10714C00E43CF583E0FFE54E240CF582E4354DF587
:10715C0083EFF0ED240CF582E43CF583E0FFE54E83
:10716C00240DF582E4354DF583EFF0ED240DF58219
:10717C00E43CF583E0FFE54E240EF582E4354DF555
:10718C0083EFF0ED240EF582E43CF583E05407FF29
:10719C00E54E240FF582E4354DF583EFF0ED240E2A
:1071AC00F582E43CF583E0FFC31354FCFFED240FA0
:1071BC00F582E43CF583E0FEC433333354804FFF57
:1071CC00E54E2413F582E4354DF583EFF0ED2410F4
:1071DC00F582E43CF583E0FFC43333335480FFED98
:1071EC00240FF582E43CF583E0FEC3134FFFE54E1C
:1071FC002412F582E4354DF583EFF0ED2411F58280
:10720C00E43CF583E0FFC43333335480FFED2410AA
:10721C00F582E43CF583E0FEC3134FFFE54E2411E9
:10722C00F582E4354DF583EFF0ED2411F582E43C65
:10723C00F583E0FFC313540FFFE54E2410F582E4F1
:10724C00354DF583EFF0ED2411F582E43CF583E048
:10725C00FFC4135407FFE54E2414F582E4354DF5B5
:04726C0083EFF0229A
:10D57B0090BE17E04440F00000000090BE00E05465
:10D58B000FF0C390BE06E0648094805035A3E02476
:10D59B00E2FE90BE06E0340490C90CF0A3CEF090EE
:10D5AB00BE00E0FCA3E0FDA3E0FEA3E024FFFFEE42
:10D5BB0034FFFEED34FFFDEC34FFFC90CCE812069B
:10D5CB004B2290BE06E0FFA3E090C90CCFF0A3EF77
:10D5DB00F090BE00E0FCA3E0FDA3E0FEA3E0FF9013
:06D5EB00CCE812064B2201
:08DCDF0090C90FE054466052A9
:10DCE70090BF23E054BFF090BF337440F090CCE86E
:10DCF700E0FCA3E0FDA3E0FEA3E0FF90BE00120658
:10DD07004B90C90CE0FFA3E090BE06CFF0A3EFF065
:10DD170090BE12E04470F000000000000000009088
:10DD2700BF13E0F55090BF12E0F55090BF23E044D9
:02DD370040F0BA
:01DD390022C7
:10E5C80090BF23E054BFF090BF337440F090BE1268
:10E5D800E04403F000000000000090BF13E0FF904B
:0BE5E800BF12E0FF90BF23E04440F0B2
:01E5F3002205
:0FEA6E00E490B807F090B81BE054874468F0229A
:04E378008F538D54DE
:10E37C00120F2C9048B3EEF0A3EFF02404F582E4D6
:10E38C003EF583E553F0EF2405F582E43EF583E595
:0FE39C0054F09048B3E0FCA3E0FD7F06120EF9A9
:01E3AB00224F
:02E4AC008F508F
:10E4AE00120F2C9048A7EEF0A3EFF02404F582E4AF
:10E4BE003EF583E550F0EF2405F582E43EF583E466
:0EE4CE00F09048A7E0FCA3E0FD7F05120EF9D8
:01E4DC00221D
:10B66D0090BA2B7402F0E5792424F582E578340143
:10B67D00F583E05402FF90BC23E054FD4FF0AF770B
:10B68D0012D292788BE24402F290D87EE06401707F
:10B69D00557E037F4A90B622EEF0A3EFF090B626CA
:10B6AD007414F0A37429F090D88BE0701B783F745C
:10B6BD0003F208744AF290B62AEEF0A3EFF090B6BA
:10B6CD000AEEF0A3EFF0803D783F7407F20874475F
:10B6DD00F27E07FF90B62AEEF0A3EFF090B60AEED9
:10B6ED00F0A3EFF0801F783FE2FF08E290B60ACF9B
:10B6FD00F0A3EFF0903F47E0FFA3E090B60ECFF040
:10B70D00A3EFF0D215E5792447F582E5783401F5FC
:10B71D0083E0540390B805F078457410F2904E1DF7
:10B72D00E030E12190D87EE06401601920191620E7
:10B73D003313857982857883E020E70990B868E036
:10B74D004480F0800790B868E0547FF0904E39E067
:0CB75D0090B684F090B68EE054BFF0224D
:0EEA8C00904E22E0FF90B8B3E02FF404FF227A
:10913E00754E01E579241AF582E5783401F583E060
:10914E00FF20E3030292D730190FE579245EF582F2
:10915E00E5783401F583E0F54EE5792419F582E5DD
:10916E00783401F583E0FE904E3CE0C36480F8EE67
:10917E006480984055EF30E1030292D7E57924667A
:10918E00F582E5783401F583E0254EF0E579246625
:10919E00F582E5783401F583E0C3648094B2500320
:1091AE000292D7E579241AF582E5783401F583E049
:1091BE0054E4F0AD777F1D12E378E5792466F582ED
:1091CE00E5783401F583741EF022E5792419F582D1
:1091DE00E5783401F583E0FF904E3BE0D36480F8F0
:1091EE00EF648098400302929BE579241AF582E59C
:1091FE00783401F583E030E0030292D7E5792466F6
:10920E00F582E5783401F583E0C3954EF0E57924D7
:10921E0066F582E5783401F583E0D36480944E40A0
:10922E00030292D7E579241AF582E5783401F583A5
:10923E00E054F4F0E579241AF582E5783401F583EB
:10924E00E04410F0857982857883E030E528E58268
:10925E002456F582E5833401F583E0FEA3E0D39432
:10926E0000EE94014010E579241AF582E578340178
:10927E00F583E04404F0AD777F1D12E378E57924A1
:10928E0066F582E5783401F58374E2F022E57924FF
:10929E0066F582E5783401F583E0FFD3648094802F
:1092AE004010E5792466F582E5783401F583E01403
:1092BE00F022C3EF64809480500FE5792466F58226
:0992CE00E5783401F583E004F0B9
:0192D7002274
:0CEAC30090BA23E054FCF0E0440CF02278
:0CEACF0090BA2BE054FCF0E0440CF02264
:10E8B20090BA23E054FCF090BA2BE054FCF090BAEA
:0DE8C20023E0440CF090BA2BE0440CF0224F
:104000000011001B007900B700E00153FFFF000022
:10401000000000000000000000000000000000039D
:104020000303020202020101010101010101040472
:104030000404040404040404040404040404040341
:104040000303020202020101010101010101001B3F
:10405000000A0014001EFFFF001D007900B7FFFFDB
:10406000FFFF00E001530036FFFF003C005A005301
:10407000001D016F02280168021C02A703FD000257
:07408000FEFE01FE0102FE3D
:108FA200E4F54EC22A90D94DF078B97601788BE279
:108FB2004402F2E54E600302913DA222B340030255
:108FC200913DA24CB3400302913DE5792436F582EE
:108FD200E43578F583E06401704A754E01E5792441
:108FE20036F582E43578F583E4F090B81BE05487D7
:108FF2004418F090B817E054FC4401F0E490B8161D
:10900200F0A3E05407F0E5792434F582E43578F5ED
:10901200837404F0E5792435F582E43578F583E448
:04902200F00290D3F5
:10902600857982857883A3A3A3E0F55030E75D5464
:109036003F90400E93F54FB401097F0112D6DB8FA6
:109046004E8049301C0A754E0112EADBC21C803C78
:10905600E54FB4020F754E017848E2FE08E2FF12B2
:1090660067648028E54FB40318785EE2FE08E2FFE5
:1090760012A3248F4EE54E7013754E0112EADB8063
:109086000BE54FB40406754E0312EA9AE54E703DA1
:10909600857982857883A3A3E05403702930290556
:1090A600754E018021E5792446F582E5783401F58F
:1090B60083E06012754E01E5792446F582E5783441
:0D90C60001F583E014F0E54E600312EADBD3
:1090D300E54EB40203E4F54EE54E6045B403079054
:1090E300CA81E0549FF0D211857982857883A3E009
:1090F300FF90B81BE054F8FEEF4EF012990078474A
:109103007410F2E579241FF582E43578F583E0FEE7
:10911300A3E024FFFBEE34FFFA7D01E4FF120FA36B
:1091230022C21130210EA222B35009A24CB3500423
:0A91330012D08022788BE254FDF286
:01913D00220F
:108C2D00E4F54E90D94DF0C22A78B97601788BE2F1
:108C3D004402F230202E754E017848E2FE08E2FF24
:108C4D00F5828E83E030E00FEF4E600B18E2FE08E8
:108C5D00E2FF1267648002C22090D880E0B4021552
:108C6D00E4F0801190D87FE0600B90D880E0600533
:108C7D0012BD138F4EA222B34003028D1DE54E602F
:108C8D0003028D1DA24CB34003028D1D90C945E01A
:108C9D006401702B754E01F090B81BE05487441899
:108CAD00F090B817E054FC4401F0E490B816F0A32E
:0F8CBD00E05407F090C9437404F0A3E4F0805131
:108CCC0090C912E0FF543F90400E93F54FEF30E700
:108CDC0040E54FB40109E4FF12D6DB8F4E8032E53C
:108CEC004FB4020F754E017848E2FE08E2FF12679E
:108CFC0064801E301C0A754E0112EADBC21C801106
:108D0C00E54FB4030C785EE2FE08E2FF12A3248F59
:018D1C004E08
:108D1D00E54E703E202912202B0F90CA5AE020E715
:108D2D000890D87FE0541E6029754E0112EADBE5EC
:108D3D00792449F582E5783401F583E05414601205
:108D4D0020290FE579245DF582E5783401F58374EA
:108D5D0001F0E54EB40203E4F54EE54E605F90C9B7
:108D6D0010E0FF90B81BE054F8FEEF4EF0129900A2
:108D7D007847E2641160037410F2302A6090CA588B
:108D8D00E05414605890CA67E0FEA3E0FF90CA61FA
:108D9D00E0FCA3E0FDC39FEC9E404278B9E6FF7E68
:108DAD0000ED2FFFEE3C90CA67F0A3EFF090CA588C
:108DBD007404F090C911F0A3E04480F022E5792409
:108DCD0049F582E5783401F583E05414600FE579B7
:0D8DDD00245DF582E5783401F5837401F022
:018DEA002266
:10BD130090D889E078B9F690D880E0FFB4010BC2DF
:10BD230025E490C929F07D01800FEFB40209E49066
:10BD3300D880F07D018002E4FDED700302BDF39035
:10BD4300B81BE05487FF90D881E0FE4F90B81BF0FA
:10BD530090CA56E030E02AEE64706009EE645060E9
:10BD630004EEB4200890D94D7401F08014EE647889
:10BD73006009EE64586004EEB4400690D94D740235
:10BD8300F090D883E0FFA3E090B61ACFF0A3EFF0D2
:10BD930090D87FE0541E601D90D88AE0601ED22A9E
:10BDA300E490C943F090C912E020E31090C92AE05F
:10BDB3006402F0800790C92AE06402F090D887E01B
:10BDC300FEA3E07803C333CE33CED8F9FF90B81780
:10BDD300E05407FBEEEF4BFF90B816EEF0A3EFF045
:10BDE30090B817E054FCFF90D882E04F90B817F05A
:02BDF300AF059A
:01BDF500222B
:02D6DB008F516D
:10D6DD007F021FE579242EF582E43578F583E0FD90
:10D6ED00A3E090B81ACDF0A3EDF0E5792430F582E2
:10D6FD00E43578F583E0FDA3E090B816CDF0A3ED09
:10D70D00F0E5792432F582E43578F583E0FDA3E088
:10D71D0090B61ACDF0A3EDF0857878857979E57915
:10D72D00242DF582E43578F583E078B9F6D22AE533
:0FD73D00792435F582E43578F583E090D94DF005
:01D74C0022BA
:106764008E518F5290B81BE054874418F090D87F14
:10677400E0541E600D857982857883A3A3A3E0206D
:10678400E30FE579241BF582E43578F583E06402B0
:10679400F090B817E054FC4403F0E5522404F58269
:1067A400E43551F583E075F008A4FF90B817E05480
:1067B40007FDE5F0ED4FFF90B816E5F0F0A3EFF01C
:1067C400855282855183A3A3E0FEA3E0FF90B61A0D
:1067D400EEF0A3EFF0E5792432F582E43578F58321
:1067E400EEF0A3EFF0E5792434F582E43578F5830F
:1067F4007402F090D94DE0FFE5792435F582E43553
:1068040078F583EFF0D22A855282855183E054F0E3
:1068140024E070030268E924D0602624F0700302A7
:1068240068FA24E0700302690B24706003026A7D35
:10683400855282855183A3E0FD7F0A12E378026AC0
:016844007DD6
:1068450090BE24E0FCA3E0FDA3E0FEA3E0FF7801F9
:106855001205679048A712064B9048A7E0FCA3E0F5
:10686500FDA3E0FEA3E024F0FFE43EFEE43DFDE4ED
:106875003CFC90CCE412064B90CCE7E054FEFFF0D4
:10688500855282855183A3A3E0FCA3E0F5828C8326
:10689500A3EFF090CCE6E0FF855282855183A3A358
:1068A500E0FCA3E0F5828C83A3A3EFF090CCE5E0B8
:1068B500FF855282855183A3A3E0FCA3E0F5828C7A
:1068C50083A3A3A3EFF090CCE4E0FF85528285512A
:1068D50083A3A3E0FCA3E02404F582E43CF583EF65
:0168E500F0C2
:1068E600026A7DE57924EEF582E43578F583740154
:1068F600F0026A7D855282855183A3E0FD7F0D12E9
:05690600E378026A7D48
:10690B00E5792449F582E5783401F583E06030E5DB
:10691B00792456F582E5783401F583A3E025E0FF71
:10692B000582D5820215831582E0339048AFF0A320
:10693B00EFF0E02414F09048AFE03400F08024E551
:10694B00792421F582E43578F583E0FEA3E0780322
:10695B00C333CE33CED8F92414FFE43E9048AFF0C6
:10696B00A3EFF090BE24E0FCA3E0FDA3E0FEA3E0C8
:10697B00FF78011205679048AB12064B9048ABE0CD
:10698B00F8A3E0F9A3E0FAA3E0FB9048AFE0FEA385
:10699B00E0FFE4FCFDEB2FFFEA3EFEED39FDEC38AA
:1069AB00FC9048AB12064B9048AEE054FEF090487A
:1069BB00ABE05407F09048AEE0FF855282855183DF
:1069CB00A3A3E0FCA3E0F5828C83A3EFF09048AD8A
:1069DB00E0FF855282855183A3A3E0FCA3E0F582FF
:1069EB008C83A3A3EFF09048ACE0FF8552828551D6
:1069FB0083A3A3E0FCA3E0F5828C83A3A3A3EFF016
:106A0B009048ABE0FF855282855183A3A3E0FCA3A2
:106A1B00E02404F582E43CF583EFF0120F4E90482E
:106A2B00B1EEF0FCA3EFF0FD9048B1E0FEA3E0FF68
:106A3B002404F582E43EF583740FF0855282855170
:106A4B0083A3E0FBEF2405F582E43EF583EBF085B1
:106A5B005282855183A3A3E0FEA3E0FFED2406FB46
:106A6B00E43C8B82F583A3A3EEF0A3EFF07F061239
:026A7B000EF912
:0E6A7D00857982857883A3A3A3E054FBF022E1
:04A324008E518F5275
:10A328008F828E83A3E0FF75F06FA42457F582E532
:10A33800F034CAF583EF2583F583E0545E60037F2C
:10A348000022AF52AE5112771478B9A6078552820F
:10A35800855183A3A3E0FF90B817E054FCFEEF4EAD
:10A36800F0855282855183A3A3A3E0FFA3E090B6B2
:10A378001ACFF0A3EFF0E5792434F582E43578F5C7
:10A38800837404F0855282855183A3A3A3E0FEA3BE
:10A39800E0FFE5792432F582E43578F583EEF0A321
:10A3A800EFF090D94DE0FFE5792435F582E4357872
:10A3B800F583EFF0E5522405F582E43551F583E0A5
:10A3C800FEA3E0FF7860E2FC08E2FDD3EF9DEE9C7F
:10A3D800500F8E538F548552828551837404F080B8
:10A3E800548C538D54855282855183A3A3A3E5537E
:10A3F8008554F0120475E5522405F582E43551F5CB
:10A4080083C083C082C3A3E09DFF0582D582021565
:10A41800831582E09CD082D083F0A3EFF08552822E
:10A42800855183A3A37401F0857982857883A3A3DA
:10A43800A3E04402F0E554AE537803C333CE33CEE1
:10A44800D8F9FF90B817E05407FDEEEF4DFF90B82C
:10A4580016EEF0A3EFF0D22AE579241BF582E43555
:10A4680078F583E06402F0857982857883A3A3A3D5
:06A47800E054FEF07F013C
:01A47E0022BB
:0CEADB0090B81BE05487F078B976012257
:0EEA9A0090B81BE054874408F078B97601224A
:10990000E579241BF582E43578F583E0FF90B81AF9
:10991000E054FDFEEF4EF0E579241AF582E4357847
:10992000F583E0FF90B81AE054FEFEEF4EF090BED3
:1099300017E04402F00000000078ACE6FF25E0FFED
:1099400090BE03E02F440190BA03F090CC04E0B441
:10995000020E90BA03E05403FFBF0304E024FEF0BC
:1099600030161930140DC216C21490B81BE0448092
:10997000F0801090B81BE0547FF0800790B81BE097
:109980004480F090B817E04404F090D87EE054038F
:10999000600512DC25800312CED3E4FDAF7712CC34
:1099A00062E5792424F582E5783401F583E05402F8
:1099B000FF90BC23E054FD4FF0AF7712D29290B8E5
:1099C0007BE054FCF0E0FF90D94DE0FEEF4E90B804
:1099D0007BF0E5792422F582E5783401F583E0FF18
:1099E00012A7087847E264116015E5792447F582EB
:1099F000E5783401F583E0540390B807F08005E47E
:109A000090B807F020280D12EAC30000000090BAB9
:109A1000237401F0C22878B9E6FF78AC26F6302A24
:109A200060857982857883A3A3A3E04408F0E57973
:109A3000242DF582E43578F583EFF090B81AE0FE36
:109A4000A3E0FFE579242EF582E43578F583EEF086
:109A5000A3EFF090B816E0FEA3E0FFE5792430F51F
:109A600082E43578F583EEF0A3EFF090CC04E0B417
:109A7000010FE5792446F582E5783401F583740415
:029A8000F022D2
:047714008E558F56A9
:107718007F187E01E4F97860F2087411F2E57924A3
:1077280047F582E5783401F583E030E01009E57922
:107738002418F582E43578F583E0FC800DE579249A
:1077480017F582E43578F583E0FCE5562405F582E3
:10775800E43555F583E0FAA3E0FBE96066D3EB94E2
:1077680011EA940050057D0102781ED3EB9436EAA5
:10777800940050057D0302781ED3EB9453EA9400DD
:10778800500EEC30E2057D0702781E7D0B02781E54
:10779800D3EB946FEA940150047D0F8079D3EB9476
:1077A80028EA9402500CEC30E4047D1F80687D2F99
:1077B8008064D3EB94A7EA940250047D3F80577D00
:1077C8007F8053D3EB9411EA940050047D018046E6
:1077D800D3EB941BEA9400500CEC30E1047D038059
:1077E800357D078031D3EB9479EA940050047D0706
:1077F8008024D3EB94B7EA9400500CEC30E3047D7A
:107808000F80137D1F800FD3EB94E0EA940050049F
:107818007D1F80027D3FEC5205E970030278C7EDB9
:10782800C3944040167F7878607403F20874FDF2C0
:107838007E0590D94D7402F0027928EDC39420405A
:10784800167F7078607402F20874A7F27E0590D9EA
:107858004D7401F0027928EDC3941040167F5878D2
:10786800607402F2087428F27E0390D94D7402F015
:10787800027928EDC3940840167F5078607401F2AD
:1078880008746FF27E0390D94D7401F0027928EDE7
:10789800C3940440127F407860E4F2087453F29075
:1078A800D94D7402F08079EDC3940240737F20783B
:1078B80060E4F2087436F290D94D7401F08061EDFD
:1078C800C39420400F7F7878607401F2087453F2F3
:1078D8007E05804CEDC39410400E7F707860E4F212
:1078E8000874E0F27E058038EDC39408400E7F5896
:1078F8007860E4F20874B7F27E038024EDC3940440
:10790800400E7F507860E4F2087479F27E038010AC
:10791800EDC39402400A7F207860E4F208741BF2F9
:0A79280090B81BE054874FF0AF0643
:017932002232
:02A708008F516F
:10A70A00E4F552F553FF90D91CE06404700302A8E3
:10A71A003E904E36E06551704F90B87BE05403602E
:10A72A00010F90D8D5E0B50712783BE2B5510C90ED
:10A73A0000FAE0FE9000FCE06E6056EF601975F0DA
:10A74A0002E551A4242CF582E5F0344EF583E0F5B8
:10A75A0052A3E0F553800A904E34E0F552A3E0F597
:10A76A005390D8D5EFF08029783BE2B5510C900090
:10A77A00FAE0FF9000FCE06F601775F002E551A463
:10A78A00242CF582E5F0344EF583E0F552A3E0F58A
:10A79A0053E5534552700302A83E9000FDE0605B0A
:10A7AA00AF53EF3395E0F5548F559000FAE0243D0E
:10A7BA00F582E4344EF583E0FFFD3395E0FCED25A8
:10A7CA0055F555EC3554F554C3648094805005759D
:10A7DA005300804AC3E5559480E5546480948040D0
:10A7EA0009855252747FF5538034EF3395E0FEEFBA
:09A7FA002553F553EE3552F552DA
:02A803008023B0
:10A80500743D2551F582E4344EF583E0FF3395E040
:10A81500EFFEE424F0F555E43EF554AD55FC7F0814
:03A825001235D712
:10A828009000FAE09000FCF0AD53AC527F0B12356B
:06A83800D7783BE551F268
:01A83E0022F7
:10DC250090D88CE014604404704A90CC04E0B401B0
:10DC35001D78ABE6700C90D88EE0248090BC22F065
:10DC4500803290D88DE0248090BC22F0802678AB7D
:10DC5500E6700C90D88DE0248090BC22F080159061
:10DC6500D88EE0248090BC22F08009E490BC22F09C
:0DDC750090BC02F012CED3E490B853F02220
:10E925007862E2640E601390B86E7401F0A3E4F0AF
:0BE9350090BE1AE04401F0740EF222C4
:10CED3007862E2640A60467ECB7FF312E17E90CBF8
:10CEE300F6E090B81FF090BC037480F090CC04E09F
:10CEF300B4010990BE1AE04401F0801C90BE1AE010
:10CF030054FEF0E04402F090BE067402F0A37430C5
:10CF1300F090BE1BE04401F07862740AF230331CD7
:10CF230090B86E7409F0A37450F090BC1E7401F0B5
:10CF3300A3745AF090BC277472F0801F7851E2FFFB
:10CF430008E290BC1ECFF0A3EFF0785AE290BC2722
:10CF5300F090B86E7403F0A37410F090B403E0542F
:03CF63007FF0223A
:10CD00008F4B7862E2FF640B700302CD94EF640AEC
:10CD1000600D7ECB7FF312E17E90BC037480F090B7
:10CD2000CBF6E090B81FF0E54B600C90B86E743A0B
:10CD3000F0A37498F080357850E2FDFB75F010A4F4
:10CD40002410FEE5F0340390B86EF0A3CEF0EB753E
:10CD5000F004A4FFAEF0C374EA9F90BC1FF074020D
:10CD60009E90BC1EF0ED240E90BC27F090B403E022
:10CD7000547FF090BE1AE054FEF0E04402F090BE02
:10CD8000067402F0A37430F090BE1BE04401F0780A
:0ECD900062740BF2E54B600578537401F222D9
:10DB66007862E2640560427E4E7F0012E17E12E535
:10DB7600C890BC037401F090B86EE04480F0900049
:10DB8600F1E054BFF090B403E04480F0786274058D
:10DB9600F290BE1AE054FDF090BE067401F0A37434
:10DBA60028F090BE1BE04401F09000F1E030E3085D
:10DBB60090BC02E04408F02290BC02E054F7F02248
:10D40D0090B8137433F090B812748BF090B8117407
:10D41D009EF09000EAE090BC13F07862E264026046
:10D42D0044E490BC0CF0A3749EF0A3748BF0A37431
:10D43D0033F090BC037402F012E5C890B86EE0446E
:10D44D0080F09000EFE054BFF090B403E04480F022
:10D45D0078627402F290BE0614F0A37428F090BEA8
:10D46D001BE04401F09000EFE030E30890BC02E0D7
:0CD47D004408F02290BC02E054F7F022BA
:10E98E007862E26403600990BC037440F07403F291
:09E99E00904E36E0FF12A708229A
:0AB95D007862E26404700302BA3C51
:10B9670090BE12E04403F090CC04E0707490BF23C3
:10B97700E078A6F2E4F090BF337440F090BE2BE07D
:10B9870078A7F29000F8E0FF75F06FA4241DF58208
:10B99700E5F034C9F583EF2583F583E0FCA3E0FDEB
:10B9A700A3E0FEA3E0FF90BE28E0F8A3E0F9A3E040
:10B9B700FAA3E02FFFEA3EFEE93DFDE83CFC90BE1E
:10B9C7000012064B90BE13E04402F090BE2BE0FF3E
:10B9D70078A7E2B507A690BF13E0F218E290BF235D
:01B9E700F06F
:10B9E8009000F8E0FF75F06FA42413F582E5F034B9
:10B9F800C9F583EF2583AF82FE12E17E90BC037404
:10BA080004F07851E2FF08E290BC1ECFF0A3EFF0FB
:10BA1800785AE290BC27F090B86E7402F0A374D8FC
:10BA2800F090BE1AE04401F090B403E04480F0784E
:10BA3800627404F2904E36E014FF12A70890BC021C
:0EBA4800E05401FF9000F5E04F90BC02F022A8
:10D390007862E2FF64076051EF640560077E4E7FAC
:10D3A0000012E17E90BC037420F07851E2FF08E2A5
:10D3B00090BC1ECFF0A3EFF0785AE290BC27F0901B
:10D3C000B86E740CF0A374D0F090BE1AE054FEF066
:10D3D00090B403E0547FF0E490B853F0904E03E033
:10D3E00090B81FF078627407F29000E5E0FCA3E0CB
:10D3F000FDA3E0FEA3E0FF90BE0012064B90BE121C
