:020000040000FA
:10280C00FF00210200000000FF1E75000000000008
:10281C00FFA9100000000000FFD49201010000008D
:10282C00FFB00E0102000000FFE2560100000000A4
:10283C00FF54D60101000000FF15A10100000000AB
:10284C00FF76BD0202000000FF60120203000000D0
:10285C00FFA3BF0204000000FF78E40203000000A5
:10286C00FF8BCE0203000000FFAF3102040000001A
:10287C00FFF6FF0204000000FF0021020000000030
:0100190022C4
:01001A0022C3
:01001E0022BF
:01001F0022BE
:0100200022BD
:0100210022BC
:08171D008F438D448A458B4681
:10172500E54645457003021890903F4BE07002A3D3
:03173500E070233E
:101738001220D5904B90EEF0A3EFF0904B90E0FC88
:10174800A3E0FD2404F582E43CF5837401F07F07EF
:031758001220A2BA
:10175B00AB47AD44AF43121411903F4BE0FFA3E0F6
:10176B00904B92CFF0A3EFF0E4A3F0A3F0904B9249
:10177B00E0FEA3E0FF4E60458F828E83A3A3E0FEC5
:10178B00A3E0FFC39546EE95455032904B92E0FC9B
:10179B00A3E0FDC3E5469FF546E5459EF545A3EC65
:1017AB00F0A3EDF0904B92E0FEA3E0F5828E83E088
:1017BB00FFA3E0904B92CFF0A3EFF080B0903FBD32
:1017CB00E0FEA3E0FFF5828E83A3A3E545F0A3E53E
:1017DB0046F0EF2404F582E43EF583E547F0EF2471
:1017EB0005F582E43EF583E543F0EF2406F582E44C
:1017FB003EF583E544F0904B94E0FEA3E0FF4E7082
:10180B0011903FBDE0FDA3E0903F4BCDF0A3EDF079
:10181B008010903FBDE0FDA3E08F828E83CDF0A3BF
:10182B00EDF0903FBDE0FEA3E0FFF5828E83E0FD7F
:10183B00A3E0904B94CDF0A3EDF0904B92E0FCA382
:10184B00E0FD8F828E83ECF0A3EDF0F5828C83A309
:10185B00A3C083C082C3A3E09546FF0582D5820255
:10186B0015831582E09545D082D083F0A3EFF090DD
:10187B004B94E0FEA3E0FF903FBDEEF0A3EFF04EE4
:05188B0070031233118F
:011890002235
:04141100AA07A90578
:10141500903F4BE0FDA3E0904BFDCDF0A3EDF0E454
:10142500A3F0A3F0904BFDE0FCA3E0FD4C7003029C
:1014350015A0ED2404F582E43CF583E06B6003021E
:10144500157F904BFDE0A3E02406F582E43CF5838F
:10145500E069600302157FED2405F582E43CF58320
:10146500E06A6007EAF4600302155E904BFDE0FC5C
:10147500A3E0FDF5828C83E0F8A3E0F5828883453F
:1014850083601F8D828C83A3A3E0FEA3E0FF8D8282
:101495008C83E0FCA3E0F5828C83A3A3EE8FF0128E
:1014A50004A8904BFFE07002A3E0704D904BFDE067
:1014B500FEA3E0FFF5828E83E0FDA3E0903F4BCDD8
:1014C500F0A3EDF0903FBDE0FDA3E08F828E83CDCC
:1014D500F0A3EDF0904BFDE0FFA3E0903FBDCFF012
:1014E500A3EFF0903F4BE0FFA3E0904BFDCFF0A3BF
:1014F500EFF0E4A3F0A3F08058904BFDE0FEA3E0ED
:10150500F5828E83E0FEA3E0FF904BFFE0FCA3E0B5
:10151500F5828C83EEF0A3EFF0903FBDE0FEA3E0F3
:10152500FF904BFDE0FCA3E0FDF5828C83EEF0A37C
:10153500EFF0903FBDECF0A3EDF0904BFFE0FEA384
:10154500E0F5828E83E0FFA3E0904BFDCFF0A3EFA3
:10155500F0EAF4700302142922904BFDE0FEA3E0AB
:10156500FFA3EEF0A3EFF0F5828E83E0FFA3E090FA
:101575004BFDCFF0A3EFF0021429904BFDE0FEA345
:10158500E0FFA3EEF0A3EFF0F5828E83E0FFA3E08A
:0B159500904BFDCFF0A3EFF0021429F3
:0115A0002228
:1015A1008E338F348F828E83E5822404F582E43575
:1015B10083F583E024FE601F1470030216BA1470D1
:1015C100030216F02403600302171C7B007A04E473
:0715D100FD7F0212214C22F4
:1015D800903F4BE0FEA3E0FF4E70030216A48F82FB
:1015E8008E83A3A374FFF5F01204A8903F4BE0FE8E
:1015F800A3E0F5828E83A3A3E0FEA3E04E6003027E
:1016080016A41220D58E338F34903F4BE0FEA3E012
:10161800FF2405F582E43EF583E0FDE5342404F576
:1016280082E43533F583EDF0EF2406F582E43EF5E8
:1016380083E0FFE5342405F582E43533F583EFF0E4
:10164800903F4BE0FEA3E02404F582E43EF583E0FE
:10165800FFAD34AC331220A2903F4BE0FEA3E0FF75
:10166800F5828E83E0FCA3E08C35F536903FBDE033
:10167800FDA3E08F828E83CDF0A3EDF0903F4BE089
:10168800FFA3E0903FBDCFF0A3EFF0903F4BE535CF
:10169800F0A3E536F0453560030215F3903F4BE0C3
:1016A8007002A3E0606E7B007A04E4FD7F021221E1
:0116B8004CE5
:1016B90022E5342406FFE43533FAA9077B019000BB
:1016C900011203CCFF9000021203CCFD900003121B
:1016D90004D4FBAAF0E5342406F582E43533F58316
:1016E900E0F54712171D22E5342406FFE43533FAE5
:1016F900A9077B019000011203CCFF90000212039D
:10170900CCFDE5342406FBE435338B82F583E0FB1D
:041719001214112273
:0E2C31008F648D658A668B67E5674566605423
:102C3F001220E6904C92EEF0FCA3EFF0FD904C9238
:102C4F00E0FEA3E0FF2404F582E43EF5837403F075
:102C5F00EF2406FFE43EFE8F82F583E568F0AA06B7
:102C6F00A9077B01900001E56412043E900002E584
:102C7F006512043E900003E5668567F012050C7F30
:042C8F00071220A266
:012C9300221E
:062EB6008F5F8D608B614F
:102EBC001220E6904C7CEEF0FCA3EFF0FD904C7CE5
:102ECC00E0FEA3E0FF2404F582E43EF5837404F0F5
:102EDC00EF2406FFE43EFE8F82F583E561F0AA063F
:102EEC00A9077B01900001E55F12043E900002E50A
:092EFC006012043E7F071220A2BF
:012F050022A9
:02298A008F4379
:10298C00E5437003FEFF229037F4E0C39543F090CB
:10299C001DF3E0F544854345E544C394D050507491
:1029AC00232544F582E4341DF583E0703B1545E5A1
:1029BC00457038C3E544954304F5442423F582E47B
:1029CC00341DAF82FEAB43AD43123867901DF3E06C
:1029DC00B544032543F075F020E544A424F4F582B6
:1029EC00E5F0341DAF82FE22854345054480A912D3
:0529FC003365E4FEFF5D
:012A010022B2
:102E6500EF4E604CC3EF94F4FFEE941DFEEF780532
:102E7500CEC313CE13D8F9F543C394D0503274237F
:102E85002543F582E4341DF583E0FB9037F4E02B10
:102E9500F074232543F582E4341DAF82FEE4FD1270
:102EA5003867901DF3E0FFE543C39F5003E543F00A
:012EB50022FA
:10329000EF541FD39400E49400400FEF7805CEC3A1
:1032A00013CE13D8F904F568800CEF7805CEC3135C
:0B32B000CE13D8F9F568AF681232E7C2
:0132BB0022F0
:10277E0078A6E6FE08E6FFF5828E83A3A3A3E0FC0F
:10278E00A3E0FD78BDECF208EDF2C2AF8F828E832E
:10279E007405F078A6E6FE08E68E832408F582E43A
:1027AE003583F583E0FEA3E018A60608F6D2AFED5A
:0327BE004C703923
:1027C1001220D578BBEEF208EFF22404F582E43E44
:1027D100F5837403F0EF2405F582E43EF58374017B
:1027E100F018E2FC08E2FD7F0E1220A27E907F002D
:0927F10078BD7490F2087400F246
:1027FA00C2AF90D783E004F0D2AF78BDE2FE08E220
:01280A00FFCE
:01280B0022AA
:1033B9007814E2FE08E2FF8E2FF530452F60158F55
:1033C900828E83E0FEA3E0FF18EEF208EFF24E7062
:0833D9000312333BAE2FAF30AD
:0133E10022C9
:1033E2007810E2FE08E2FF8E2FF530452F60158F30
:1033F200828E83E0FEA3E0FF18EEF208EFF24E7039
:083402000312333BAE2FAF3083
:01340A00229F
:10340B007812E2FE08E2FF8E2FF530452F60158F04
:10341B00828E83E0FEA3E0FF18EEF208EFF24E700F
:08342B000312333BAE2FAF305A
:013433002276
:103434007816E2FE08E2FF8E2FF530452F60158FD7
:10344400828E83E0FEA3E0FF18EEF208EFF24E70E6
:083454000312333BAE2FAF3031
:01345C00224D
:102E0B00300A1B782FE569F27825E2FE08E2F5829D
:102E1B008E83E0FFA3E07829CFF208EFF22230098E
:102E2B001B781BE56AF2782CE2FE08E2F5828E83B2
:102E3B00E0FFA3E07819CFF208EFF22230081A78FE
:102E4B0022E56CF2781CE2FE08E2F5828E83E0FF4D
:0A2E5B00A3E07820CFF208EFF22286
:102B5B008F828E83A3A3E024FE6020146033146065
:102B6B0046240370577816E2FD08E28F828E83CDE0
:102B7B00F0A3EDF018EEF208EFF2227812E2FD0866
:102B8B00E28F828E83CDF0A3EDF018EEF208EFF218
:102B9B00227810E2FD08E28F828E83CDF0A3EDF058
:102BAB0018EEF208EFF2227814E2FD08E28F828E23
:0D2BBB0083CDF0A3EDF018EEF208EFF2224A
:043073008E2F8F30DD
:103077008F828E83E0FEA3E0FF4E700D8530828540
:103087002F83ECF0A3EDF0801B8F828E83E0FAA3F1
:10309700E0FB4A6006AE02AF0380EE8F828E83ECC0
:0C30A700F0A3EDF08D828C83E4F0A3F028
:0130B30022FA
:103522008F828E83E0FCA3E0FDFBAA044A60118D2A
:10353200828C83E0FDA3E08F828E83CDF0A3EDF039
:04354200AE02AF0323
:013546002262
:080FF80000014343C7C7C7C74E
:0A389B00E4F56BF569F56AF56C229F
:101F9800C2AFE56B7003022099900FF893F52130DA
:101FA8000A4C7825E2FE08E2FFF5828E83A3A3A3FC
:101FB800E0782BF2E4782FF2D2AF782BE2FD3333BE
:101FC8003354F8FD90281093F5A5740C2DF582E490
:101FD8003428F583E493740193FA740293F5828AA2
:101FE800831207E8E4F5A5C2AF12211980A43009CD
:101FF8004D782CE2FE08E2FFF5828E83A3A3A3E0CE
:10200800782BF2E4781BF2D2AF782BE2FD3333332E
:1020180054F8FD90281093F5A5740C2DF582E4343E
:1020280028F583E493740193FA740293F5828A8302
:102038001207E8E4F5A5C2AF12212A021F9A200868
:1020480003021F9A781CE2FE08E2FFF5828E83A342
:10205800A3A3E0782BF2E47822F2D2AF782BE2FD4A
:1020680033333354F8FD90281093F5A5740C2DF5EF
:1020780082E43428F583E493740193FA740293F5A7
:10208800828A831207E8E4F5A5C2AF12213B021F3A
:0A2098009AE4782BF2F521D2AF2272
:10253700C2AF782BE27818F27824E521F2E56BD365
:10254700940150030226007E00E56B54FE24F8F543
:1025570082EE340FF583E493F521300A4C7825E2B7
:10256700FE08E2FFF5828E83A3A3A3E0782BF2E4B3
:10257700782FF2D2AF782BE2FD33333354F8FD9046
:10258700281093F5A5740C2DF582E43428F583E41F
:1025970093740193FA740293F5828A831207E8E42D
:1025A700F5A5C2AF1221198094300991782CE2FE6B
:1025B70008E2FFF5828E83A3A3A3E0782BF2E478E9
:1025C7001BF2D2AF782BE2FD33333354F8FD90285A
:1025D7001093F5A5740C2DF582E43428F583E49364
:1025E700740193FA740293F5828A831207E8E4F57B
:1025F700A5C2AF12212A0225447818E2782BF27877
:0726070024E2F521D2AF220D
:102AEA00C2AF782BE27823F2782EE521F2E56BD398
:102AFA009403404F7521C77825E2FE08E2FFF5826C
:102B0A008E83A3A3A3E0782BF2E4782FF2D2AF78D6
:102B1A002BE2FD33333354F8FD90281093F5A57456
:102B2A000C2DF582E43428F583E493740193FA7446
:102B3A000293F5828A831207E8E4F5A5C2AF12214F
:102B4A001980AA7823E2782BF2782EE2F521D2AF07
:012B5A002258
:10312800D56903536BFB782FE270197825E2FE0806
:10313800E2FFF5828E83E0FDA3E07829CDF208ED69
:10314800F2122B5BE4782FF27829E2FF08E2782567
:06315800CFF208EFF222A5
:10315E00D56A03536BFD781BE27019782CE2FE08DA
:10316E00E2FFF5828E83E0FDA3E07819CDF208ED43
:10317E00F2122B5BE4781BF27819E2FF08E2782C4E
:06318E00CFF208EFF2226F
:10319400D56C03536BFE7822E27019781CE2FE08AA
:1031A400E2FFF5828E83E0FDA3E07820CDF208ED06
:1031B400F2122B5BE47822F27820E2FF08E2781C1A
:0631C400CFF208EFF22239
:101C2D008F2F8D308A318B32E53245317003021D95
:101C3D0050782BE2FBAD30AF2F1219CE7839E2FE82
:101C4D0008E28E6DF56EE4F56FF5707835E2FE08FD
:101C5D00E22532F532EE3531F531E56E456D603602
:101C6D00856E82856D83A3A3E0FEA3E0FFC395324D
:101C7D00EE95315021C3E5329FF532E5319EF531B8
:101C8D00856D6F856E70856E82856D83E0FEA3E038
:101C9D008E6DF56E80C47833E2FE08E2FFF5828E1C
:101CAD0083A3A3E531F0A3E532F0782BE2FDEF2419
:101CBD0004F582E43EF583EDF07833E2FE08E2FFB1
:101CCD002405F582E43EF583E52FF0EF2406F58239
:101CDD00E43EF583E530F0E570456F70097839EE37
:101CED00F208EFF2800B857082856F83EEF0A3EF23
:101CFD00F07833E2FE08E2FFF5828E83E0FCA3E08C
:101D0D008C6FF5708F828E83E56DF0A3E56EF0F527
:101D1D0082856D83A3A3C083C082C3A3E09532FFE8
:101D2D000582D5820215831582E09531D082D0834C
:101D3D00F0A3EFF018E56FF208E570F2456F700350
:041D4D00123311221A
:1019CE00AA07A9057839E2FC08E28C6DF56EE4F5FC
:1019DE006FF570E56E456D7003021AFEE56E240418
:1019EE00F582E4356DF583E06B6003021AE7E56E70
:1019FE002406F582E4356DF583E0696003021AE78B
:101A0E00E56E2405F582E4356DF583E06A6007EA3C
:101A1E00F46003021AD0856E82856D83E0FCA3E02C
:101A2E00FD4C6019856D83856E82A3A3E0FEA3E055
:101A3E00FF8D828C83A3A3EE8FF01204A8E5704570
:101A4E006F703B856E82856D83E0FFA3E07839CFA2
:101A5E00F208EFF27833E2FF08E2856E82856D833D
:101A6E00CFF0A3EFF018E56DF208E56EF27839E2EB
:101A7E00FE08E28E6DF56EE4F56FF570803C856EB6
:101A8E0082856D83E0FFA3E0857082856F83CFF042
:101A9E00A3EFF07833E2FF08E2856E82856D83CF87
:101AAE00F0A3EFF018E56DF208E56EF28570828511
:101ABE006F83E0FEA3E08E6DF56EEAF470030219FB
:101ACE00E122856D6F856E70856E82856D83E0FE79
:101ADE00A3E08E6DF56E0219E1856D6F856E7085D2
:101AEE006E82856D83E0FEA3E08E6DF56E0219E1C8
:011AFE0022C5
:10290C007836E22FF218E23EF27832E2706F7839C4
:10291C00E2FE08E2FF4E605F8F828E83A3A3E0FE8F
:10292C00A3E0FF7835E2FC08E2FDD3EF9DEE9C506E
:10293C001108E2FC08E2FD7F011221A1783274013A
:10294C00F2227839E2FE08E2F5828E83A3A3C083DB
:10295C00C0827835E2FE08E2FFC3A3E09FFF058248
:10296C00D5820215831582E09ED082D083F0A3EF2E
:0E297C00F0E418F208F222E47835F208F222B4
:041E75008E488F49BB
:101E79008F828E83E5822404F582E43583F583E03D
:101E89006003021F977839E2FE08E2F5828E83A388
:101E9900A3E0FEA3E0FF7835E2FC08E2FDD3EF9D65
:101EA900EE9C4003021F581220D58E488F4978397D
:101EB900E2FE08E2FF2405F582E43EF583E0FDE554
:101EC900492404F582E43548F583EDF0EF2406F55D
:101ED90082E43EF583E0FFE5492405F582E43548CF
:101EE900F583EFF018E2FE08E22404F582E43EF5FA
:101EF90083E0FFAD49AC481220A27839E2FE08E23E
:101F0900FFF5828E83A3A3E0FCA3E0FDC37836E24C
:101F19009DF218E29CF28F828E83E0FEA3E0FF78A7
:101F290033E2FC08E2FD7839E2FA08E2FBF5828A3D
:101F390083ECF0A3EDF07833EAF208EBF27839EEAE
:101F4900F208EFF24E6003021E8E7835F208F2783D
:101F590035E2FE08E2FF4E602E7839E2FC08E2F530
:101F6900828C83A3A3C083C082C3A3E09FFF0582A1
:101F7900D5820215831582E09ED082D083F0A3EF2B
:0E1F8900F0E47835F208F2E47832F21220B378
:011F97002227
:1021A1008D828C83A3A3A3EFF033333354F89028AB
:1021B1000F9314605414700302225124026003022D
:1021C1002297E56970107825ECF208EDF27827EC9A
:1021D100F208EDF280257827E2FE08E2F5828E838F
:1021E100ECF0A3EDF018ECF208EDF2782FE2B40177
:1021F1000A7402F27829ECF208EDF20569436B04E6
:102201008D828C83E4F0A3F022E56A7010782CECC7
:10221100F208EDF27830ECF208EDF280257830E248
:10222100FE08E2F5828E83ECF0A3EDF018ECF208E3
:10223100EDF2781BE2B4010A7402F27819ECF208AB
:10224100EDF2056A436B028D828C83E4F0A3F022E8
:10225100E56C7010781CECF208EDF2781EECF208D7
:10226100EDF28025781EE2FE08E2F5828E83ECF025
:10227100A3EDF018ECF208EDF27822E2B4010A7451
:1022810002F27820ECF208EDF2056C436B018D82CD
:072291008C83E4F0A3F022AE
:10378E00E4901DF3F0FF7FD0901D23E4F0A3DFFC47
:06379E009037F474D0F036
:0137A4002202
:10189100781474C4F208745CF2E4FF75F00AEFA4E2
:1018A1002466F582E5F034C4AD82FC75F00AEFA43C
:1018B100245CF582E5F034C4F583ECF0A3EDF0751A
:1018C100F00AEFA4245EF582E5F034C4F5837404D4
:1018D100F00FBF3FC6E490C6D2F0A3F0A37404F0AA
:1018E100781074C0F2087400F2E4FF75F00EEFA4F2
:1018F100240EF582E5F034C0AD82FC75F00EEFA444
:101901002400F582E5F034C0F583ECF0A3EDF07529
:10191100F00EEFA42402F582E5F034C0F5837403E0
:10192100F00FBF3FC6E490C372F0A3F0A37403F0BD
:10193100781274C3F2087480F2E4FFEF75F016A414
:101941002496F582E434C3AD82FCEF75F016A4242D
:1019510080F582E434C3F583ECF0A3EDF0EF75F08C
:1019610016A42482F582E434C3F5837402F00FBF18
:1019710009C9E490C446F0A3F0A37402F078167488
:10198100C6F20874DCF2E4FF75F046EFA42422F5F8
:1019910082E5F034C7AD82FC75F046EFA424DCF596
:1019A10082E5F034C6F583ECF0A3EDF075F046EF77
:1019B100A424DEF582E5F034C6F5837401F00FBF8F
:0C19C10007C6E490C8C6F0A3F0A304F031
:0119CD0022F7
:102DB000E4FFEF75F007A42415F582E434CEAD826C
:102DC000FCEF75F007A4240EF582E434CEF583EC15
:102DD000F0A3EDF00FBF13DAE490CE93F0A3F078F8
:102DE0003374CEF208740EF2E47839F208F27832D5
:102DF000F27835F208F21220D57837EEF208EFF2C9
:0A2E00002404F582E43EF583E4F0BB
:012E0A0022A5
:102F0600E4904C2EF0904C2EE0FF75F007A424546C
:102F1600F582E4343FAD82FCEF75F007A4244DF54D
:102F260082E4343FF583ECF0A3EDF0904C2EE00400
:052F3600F0E0B40FD033
:102F3B00E4903FB6F0A3F0903FBD743FF0A3744D07
:092F4B00F0E4903F4BF0A3F022EA
:1032E700D20E12298AC20E22D20E122E65C20E22C9
:1032F700D20E12CEBAC20E22023807023817023592
:0A3307004702363902382702383732
:1033110090DB6C7402F0A3E5A5F0A37480F0AF819B
:10332100A807E6A3F0A37414F0E58114F8E6A3F06E
:0A3331007CDB7D687F041220A222DD
:10333B0090DB6C7402F0A3E5A5F0A37480F0AF8171
:10334B00A807E6A3F0A37415F0E58114F8E6A3F043
:0A335B007CDB7D687F041220A222B3
:1033650090DB6C7402F0A3E5A5F0A37480F0AF8147
:10337500A807E6A3F0A37417F0E58114F8E6A3F017
:0A3385007CDB7D687F041220A22289
:1000360090DB6C7402F0A3E5A5F0A37480F0AF81A9
:10004600A807E6A3F0A37416F0E58114F8E6A3F07A
:0D0056007CDB7D687F041220A2E4FEFF2207
:1036CB00E51E2425F582E4351DF583229004407513
:0936DB00F003E55B120716E02282
:0A0AED0090B825E054FEF053A2F388
:100AF700E4F557F558000000000000000000000072
:100B070000000558E55870020557B498E8E557B452
:020B170006E3F3
:100B1900D2A4D2A053A1EE00000000C205D20078F1
:100B29001FE6FF30E602800EEF30E704C2008011B5
:100B390020A40920A006D205C200800520A002C277
:100B49000090A4F77481F01232FF781FE620E32D9C
:100B5900E4904FEEF0A3F07E4F7FEE7B02FA7DEE3C
:100B69007C01123305904FEEE0B4AA0BA3E0B45513
:100B7900067DFF7FFF800E7D017F048008904ED6A1
:100B8900E0FFA3E0FD12330230050BE490BD03F052
:100B990075A50112AC5D12122675A897E490B203EF
:100BA900F0121F9830002E75A50412C4F2904EB7AA
:100BB900E06006E4F5A512EF85904EE5E06006E4F5
:100BC900F5A512C0D6904ECFE030E30312A3AAE4F4
:0E0BD900F5A5123881E4F5A512E492E4F5A525
:100BE70090BE2AE0FF90DB94E06F7003020CC49084
:100BF700CC04E0FF64016008EF64026003020CBCF0
:100C070090BE2AE078BAF290BE29E018F2A3E0FF7E
:100C170008E2B507EBE22401F218E23400F21236DB
:070C2700CBE07003020CBCDE
:100C2E00C2AFE51E242A1236CFE0FFA3E078B5CF7F
:100C3E00F208EFF2E51E24281236CFE0FFA3E008FB
:100C4E00CFF208EFF2D2AF78B5E2FE08E2FFC3783A
:100C5E00BAE29F79B6F318E29E19F378B7E2FE086E
:100C6E00E2FFD378B6E29F18E29E4042E4251EF5DD
:100C7E0082E51D3401F5837408F01236CBE4F012D0
:100C8E0020D5904C2BEEF0A3EFF02404F582E43E39
:100C9E00F5837404F0EF2405F582E43EF583E51C3C
:0E0CAE00F0904C2BE0FCA3E0FD7F061220A28C
:080CBC0090BE2AE090DB94F0E9
:100CC400904E1EE030E00975A50112E6C8E4F5A5D2
:100CD400E490BD0CF0E56B6003020BAAF5A5904E01
:100CE400B5E030E00312EE05E4F5A5904E46E0547D
:030CF4000F60147A
:100CF700E4F5A512D2D3904C2DEFF0E4F5A5EF6003
:040D070003020BAA2E
:100D0B00904E46E054F07003020BAAE56B600302B1
:0F0D1B000BAAE58754FC4401F5870000020BAAE0
:10122600E4F5A8781FE620E352E4904FEEF0A3F031
:10123600904E1BF07E4E7F007BF07A01FDFC123350
:10124600057E377FF57BC27A007D307C031233053D
:10125600904E1CE090DB95F0904FEEE064AA70048F
:10126600A3E06455601575A5017E4E7F007C407D28
:10127600007BF07A0112356CE4F5A590CBED74068F
:10128600F0E4F5A51280F0EF600675A50112AC5DDD
:10129600E4F5A520000B904E217403F0758E0180B5
:1012A60006904E20E0F58E12374612189112389BA2
:1012B600122DB0122F0612378EE4F5A512DD82E448
:1012C600F5A5F5A51238CDE4F5A5781FE630E20DB3
:1012D6001213E58F82F5837410F0121405781FE659
:1012E600543060101213E58F82F5837410F0781F66
:1012F600E6121405781FE630E3441220D58E598F86
:101306005A8F828E83E5822404F582E43583F58341
:101316007402F0EF2406FFE43EFE8F82F583740E1E
:10132600F0A3E4F08F828E83A3A37403F08F828EE2
:1013360083A3A3A3F0AD5AAC597F041220A23000B8
:101346001412393112391D1239271238E1123913A4
:101356001238EB8006781FE654C0F61238B91238F8
:10136600A51238C31238AF12EF71C288C28AE49050
:10137600BD13F090BD03F090BD1B740FF090BD0A35
:10138600743DF0A37409F090BD037401F0E490BDC0
:0B1396000CF075A50112E6B5E4F5A50A
:1013A1007E047F407B29FA7DF67C0212330590048E
:1013B10067E0FEA3E064557003EE64AA7025F55B57
:1013C1001236D7FEA3E04E60139004421236DAFFC4
:1013D1001236D7FCA3E0F5828C83EFF0055BE55B69
:0313E100B40DDD6B
:1013E400221220D58E598F5A8F828E83E58224044F
:1013F400F582E43583F5837402F0EF2406FFE43EBE
:0D14040022A3F0AD5AAC597F041220A222A1
:1037A50090D5F1E02473F582E434D6F583EFF090FB
:0637B500D5F1E004F02252
:03000000021AFFE2
:03003300021E6545
:03000300021D518A
:03000B00021E666C
:03001300021D9239
:03001B00021E744E
:03002300021E3B7F
:03002B00021E733F
:03006300021E7406
:101D5100C0D0C0E030361153A4DF90B203E0547F0D
:101D6100F090B207E020E7F9C0F0C092C083C082D2
:101D7100C085C08475D008759200121013300F41D0
:101D8100D084D085D082D083D092D0F0D0E0D0D092
:101D910032C0D0C0E0C0F0C092C083C082C085C054
:101DA1008475D008759200123847200503300E1152
:101DB100D084D085D082D083D092D0F0D0E0D0D062
:011DC10032EF
:101DC20075D000C0A5C000C001C002C003C004C0DD
:101DD20005C006C00775A500200E2F74E6C0E0748A
:101DE2001DC0E032122537D007D006D005D004D06E
:101DF20003D002D001D000D0A5D084D085D082D02B
:101E020083D092D0F0D0E0D0D0227415C0E0741EFE
:101E1200C0E032122AEAD007D006D005D004D0039F
:101E2200D002D001D000D0A5D084D085D082D0837A
:091E3200D092D0F0D0E0D0D02213
:101E3B00C0D0C0E0C0F0C092C083C082C085C08457
:101E4B0075D00875920012288CD084D085D082D0A2
:0A1E5B0083D092D0F0D0E0D0D03256
:101E650032C000C0E0C0D0D0D0D0E0D00032323295
:1020A200748055A870030221A1C2AF1221A1D2AF40
:1020B20022748055A87003022E0BC2AF122E0BD2CF
:1020C200AF22748055A87003022B5BC2AF122B5B48
:1020D200D2AF22748055A870030233B9C2AF123353
:1020E200B9D2AF22748055A870030233E2C2AF1294
:1020F20033E2D2AF22748055A8700302340BC2AF10
:1021020012340BD2AF22748055A87003023434C249
:10211200AF123434D2AF22748055A8700302312832
:10212200C2AF123128D2AF22748055A87003023197
:102132005EC2AF12315ED2AF22748055A870030224
:102142003194C2AF123194D2AF22748055A8700379
:10215200021C2DC2AF121C2DD2AF22748055A87062
:10216200030219CEC2AF1219CED2AF22748055A883
:10217200700302290CC2AF12290CD2AF227480550F
:10218200A87003023073C2AF123073D2AF227480D0
:0F21920055A87003023522C2AF123522D2AF22F8
:03000E00021B30A2
:03001600021AFFCC
:0939A900740EC0E07400C0E032AD
:101AFF0043A110D2A4C2A490BD147401F0E4F0006D
:101B0F0000000000000000000090BF00E4F090A46F
:101B1F00F4E04480F090BD10E05407781FF6752074
:101B2F000043A110D2A4C2A4D2A4C2A490BF00E4C7
:101B3F00F090BD18740FF090BD007401F090BF00CD
:101B4F007403F075A50075D00078FF79DFE4F618FF
:101B5F00D9FC781EF6D8FD75A4045387DFC2A053B5
:101B6F00A3FE75A70078007F00E4F208DFFC900168
:101B7F00007F007E4DE4F0A3DFFCDEFA90C0007F13
:101B8F00007E40E4F0A3DFFCDEFA757300900000E6
:0E1B9F0078107455F0A3D8FC7581FF021BE886
:1035F800904E00E090B803F0904E01E090B802F0D1
:10360800904E02E090B801F0904E03E090B800F0C0
:01361800228F
:103FC000C2AF90BD03E4F00000438E08F80000008B
:033FD00002000EDE
:103FE000C2AF90BD03E4F00000538EF7F80000006C
:033FF00002000EBE
:1036E4008E858F848C838D82EB600DE493A3759219
:0936F40001F0A3759200DBF32242
:10356C008E858F848C838D82EA7003EB6015EB6003
:10357C0003EA04FAE493A3759201F0A3759200DBBD
:04358C00F3DAF1225B
:0D3867008E838F82EB6005EDF0A3DBFB226A
:103716008E838F82EA7003EB600DEB6003EA04FA96
:08372600EDF0A3DBFBDAF92250
:103619008E858F848C838D82AF031BEF6010E0A3AE
:10362900FF759201E0A37592006F60ECD322C3226B
:10372E008E858F848C838D82EB600CE0A375920165
:08373E00F0A3759200DBF422F8
:10338F008E858F848C838D82EB601EE0FFA3E0FE21
:10339F00A3E0FDA3E0A3759201F0A3EDF0A3EEF07F
:0A33AF00A3EFF0A3759200DBE22209
:103590008E858F848C838D82EA7003EB6014EB60E0
:1035A00003EA04FAE0A3759201F0A3759200DBF43C
:0335B000DAF2222A
:103659008E858F848C838D82EB60121BE493A3FF8C
:0F366900759201E0A37592006F60EDD322C3222A
:1032BC00D310AF01C3C0D0EFF5E9EDF5EDEEF5EAB3
:1032CC00ECF5EE7402140070FC00E5E9FFE5EAFE93
:0B32DC00E5EBFDE5ECFCD0D092AF224A
:10345D00D310AF01C3C0D0EFF5E9EEF5EAEDF5ED10
:10346D00ECF5EE7402140070FCE5E9FFE5EAFEE50B
:08347D00EDE5EED0D092AF2284
:1031CA00D310AF01C3C0D0EDF5E9ECF5EAEFF5EBAA
:1031DA00EEF5ECEBF5EDEAF5EE7404140070FCE59F
:1031EA00E9FFE5EAFEE5EBFDE5ECFCE5EDE5EED011
:0431FA00D092AF229E
:10348500D310AF01C3C0D0EFF5E9EEF5EAEDF5EDE8
:10349500ECF5EE7402140070FCE5E9E5EAE5EDFFF4
:0834A500E5EEFED0D092AF224B
:10323100D310AF01C3C0D0EDF5E9ECF5EAEFF5EB42
:10324100EEF5ECEBF5EDEAF5EE7404140070FCE537
:10325100E9E5EAE5EBE5ECE5EDFFE5EEFED0D09240
:02326100AF229A
:102A02008E858F848C838D82EB22E0FFA3E0FEA370
:102A1200E0FDA3E0FCA375920122122A02601F12BC
:102A22002A0CF0A3DB028016EDF0A3DB02800FEE8E
:102A3200F0A3DB028008EFF0A3759200DBE1759250
:102A42000022122A02602B122A0CEBC394044002C9
:102A5200ECF0A3EBC394034002EDF0A3EBC39402AA
:102A62004002EEF0A3EFF0A3759200EBC39404FBD7
:062A720050D57592002210
:1030B400F582E43583F5837401F08F828E83E58293
:1030C400222424F582E5833401F58322F582E43554
:1030D40083F5832224E6F582E43EF5832278AFE685
:0B30E400FE08E622789CE2FE08E222D3
:1035D600E490DAC6F090DAC7F090DAC8F0784DF2E7
:1035E60008F290DAD3F090B403F090BC22E0547F56
:0235F600F022C1
:10237E00C2AF90BE12E04403F0D2AF90CC08E0544E
:10238E00FCF0E4F51C751DC9751E0F785DF290B852
:10239E001BE04480F090B817E04404F0E490D0BB0A
:1023AE00F090D0BCF078787401F2087400F2E47802
:1023BE0055F2785B7404F2E4FFEF75F009A4247E05
:1023CE00F582E434CDF583E4F0EF75F009A424EC46
:1023DE00F582E434CCF583E4F00FBF10DC788AE2AA
:1023EE00541DF2788BE254A0F208E4F22000097535
:1023FE00A50112C8FCE4F5A5E490CCD9F090D0A3C9
:10240E00F0C22190BC23E054FDF07E147F2A90B6DA
:10241E000AEEF0A3EFF0783FEEF208EFF27E1C7FAB
:10242E005D90D77CEEF0A3EFF090B60EEEF0A3EF3A
:10243E00F0E490D783F090B807F090B805F090D004
:10244E0091F090D090F090D0A5F090D0A4F0C21959
:01245E00225B
:040D2A008F418D4226
:100D2E00E4789EF208E5A5F275F06FEF90C90F1208
:100D3E000716EF2583AF82FE78AFF608EFF68E83A7
:100D4E00E0700FE54264026009E54264046003024C
:100D5E000F63E542640B600D75A501AF4112D658C5
:100D6E00E4F5A5C22375A501AF4112D36DE4F5A537
:100D7E001230E1F5828E83E030E50B75A501AF41AF
:100D8E00129C69E4F5A57B06AD417FFF121411900C
:100D9E00DAC6E0B401031235D6E541D39400401C07
:100DAE001230E1FF8E831230C5E060101230BE1299
:100DBE0030C5E4F090D8BFE0600214F0E54175F064
:100DCE000AA424BFF582E434D0AF82FE7B0AE4FD90
:100DDE001238671230E18E8324651230C7E0540654
:100DEE00604390CD7CE07002A3E06039E490DB8933
:100DFE00F090DB8AF0A3F090DB8DF090DB8CF0129C
:100E0E0020D5789CEEF208EFF224041230DA741931
:100E1E00F0EF24051230DAE541F018E2FC08E2FDAD
:100E2E007F081220A21230E1FF7B6F7A01E4FD12DF
:100E3E0037161230E1FF8E83241C1230D074041248
:100E4E0030BD241F1230D0E4F0A374281230BD241C
:100E5E000A1230D074081230BD24151230B4241387
:100E6E001230B424141230B424171230B4242612C3
:100E7E0030D0747DF0A3E41230BD24281230D0E4BB
:100E8E00F0A374FAF0904E36E014FF18E6FC08E674
:100E9E00FD8C8324221230C7EFF08D828C83E58285
:100EAE0024191230D074FFF0903FD4E0FF8D828C65
:100EBE0083E58224171230C7EFF0785BE2B5410369
:100ECE007404F2E541C394015034C2AF90CC08E0F3
:100EDE0054FEF0E542640B600790CC04E054FCF045
:100EEE00D2AF90D8C2E4F090CBFE1206E50000001F
:100EFE0000E490CBFDF0788BE254EFF2803090CC92
:100F0E0008E054FDF0E542640B600BE020E0079032
:100F1E00CC04E054FCF090D8BFE0701290D8AEF044
:100F2E0090BC22E0547FF0C221E490D903F090CE21
:100F3E009DE0B541037402F090CC04E070081223DA
:100F4E007E789E7401F2789EE260057F01122F5426
:050F5E00789FE2F5A5FB
:010F6300226B
:022298008F4174
:10229A00E4789EF208E5A5F275F0F3EF90394B1257
:1022AA000716AF82AE83789CEEF208EFF2E0700375
:1022BA0002237D1230E8FF24E71230DAE4F0EF124D
:1022CA0030D8E0FF30E70590D091800E1230E81246
:1022DA0030D8E0FF30E60D90D090E0FEEFF4FFEE4C
:1022EA005FF0801C90D0A5E0FF789CE2FC08E22415
:1022FA00E6F582E43CF583E0F4FEEF5E90D0A5F0CB
:10230A00E5414480F54275A501AF4112D658E4F57E
:01231A00A51D
:10231B0075A501AF4112D36DE4F5A51230E8FF7B33
:10232B00F37A00E4FD12371690BF23E04440F0E44B
:10233B007870F2786DF290CC08E054F3F090CC0406
:10234B00E054F3F0701112237EC24E90B433E0547C
:10235B00FCF0789E7401F2789EE26011903FCCE025
:10236B00700B90DBB0E060057F01122F54789FE279
:02237B00F5A5C6
:01237D00223D
:0A38A500E4F5A512EF45E4F5A522B5
:0A38AF0075A50112E6CEE4F5A5228E
:05000600E47862F22223
:0431FE008F438D442A
:103202001220D5904C00EEF0A3EFF02404F582E4F6
:103212003EF583E543F0EF2405F582E43EF583E5D0
:0F32220044F0904C00E0FCA3E0FD7F020220A2EC
:1034D50090BE27E0904B9BF090BE24120633904B94
:1034E500971206CD90BE27E0FF904B9BE0B507E015
:0634F500904B9712063314
:0134FB0022AE
:022F54008F43A9
:102F56007F0390CC04E07003D38001C34002E4FFFA
:102F660090DBB0E05207903FCCE0B50703EF702846
:102F7600903FCCEFF01220D5904BFDEEF0A3EFF092
:102F8600904BFDE0FCA3E0FD2404F582E43CF583D0
:082F96007445F07F051220A232
:012F9E002210
:0839B200062220063900222044
:0A38B90075A50212CDC6E4F5A522A4
:0230EF008F3D13
:1030F10085A53EE4F5A5E53D701275A5017E4E7FDF
:10310100007C407D007BF07A0112356CE53DB40412
:103111001275A5017E377FF57C447D907BC27A00D4
:0631210012356C853EA58D
:013127002285
:1036FD0085A53DE4F5A57E147F2A7C407DC97B1F01
:08370D007A0112356C853DA51F
:013715002291
:0C38740085A54175A50212DE6A8541A5FC
:013880002225
:0A38C30075A50112B020E4F5A5225E
:10369500E5A5F075A5012275F005A4240EF582E4D3
:0C36A50034D9F58322EFF0A3E0F5A52254
:102FE80090D908E012369CE0703B90D908E0FB7558
:102FF800F005A42411F582E434D9F583EEF0A3EFAB
:10300800F0EB75F005A4240FF582E434D9F583ECD0
:10301800F0A3EDF0EB12369C7401F090D908E004AF
:06302800F0E0540FF0225D
:0C38810085A55975A50112C7B78559A58A
:01388D002218
:0F380700904B7612369512D106904B76E0F5A5D0
:01381600228F
:0F381700904B7612369512B50B904B76E0F5A5D7
:01382600227F
:0F382700904B7712369512A535904B761236AA34
:01383600226F
:083639008E718F72AF05AE0423
:1036410090DB97123695AD03AC02AB72AA7112965C
:073651009C90DB961236AAE3
:01365800224F
:1035470090DB991236957888ECF208EDF27884EAE8
:10355700F208EBF27886EEF208EFF212E23F90DB28
:04356700981236AAD6
:01356B00223D
:0F38370090DBAC12369512756790DBACE0F5A50F
:01384600225F
:0A38CD00E4F5A512BD0CE4F5A522F8
:10374600759850758920E587547F4480F587758D77
:08375600E6D28ED299C298223E
:0A38D70075A501129825E4F5A5225D
:1037BB00E4F5A512EA57129AB412726E12D362E4B0
:0337CB00F5A5223F
:1035B30090B001EFF0A3ECF0A3EDF090B005E04480
:1035C30010F0E4904C1CF000904C1CE004F0E0B4CC
:0235D3000AF5F7
:0135D50022D3
:10100000353035305F535050000000000000202282
:03101000000200DB
:0A38E10075A50312D8CCE4F5A5226A
:0A38EB0075A50312AB06E4F5A52253
:0A38F50075A50312A9C375A50422EE
:0938FF0075A50312AFB475A50410
:01390800229C
:0A39090075A503129C3B75A504226E
:0A39130075A50312CE60E4F5A522AD
:052D5400904C5AEFF065
:102D5900E4A3F0904C5BE0FFC39401504775F06F1A
:102D6900EF90D151120716EF2583F583E0FF904CC0
:102D79005AE0FEEFB50625A3E0FF75F06F90D15537
:102D8900120716EF2583F583120633E4FBFAF9F8E7
:102D9900C31205D86006904C5BE0FF22904C5BE0C3
:062DA90004F080AF7FFF83
:012DAF002201
:102F9F00904D74EEF0A3EFF0EB4A603C90A403E089
:102FAF0020E1F9C2AFAF0590A406ECF0A3EFF0AFAC
:102FBF000390A40AEAF0A3EFF0904D74E0FFA3E0B2
:102FCF0090A412CFF0A3EFF090A403E04402F0D24C
:092FDF00AF90A403E020E1F92207
:0A391D0075A50412F6E8E4F5A522F2
:0A39270075A50412F152E4F5A52283
:1034FC00A31207228E827583001203CC6F22EE7505
:10350C00F04BA42427F582E4344A227B017A4F79CC
:06351C00C7120742E42281
:0A39310075A50412E13DE4F5A5229E
:0A393B00E4F5A512E8B075A504221A
:10326300E4FE12350AF583E0B50719EE75F04BA4B9
:10327300242AF582E4344AF583E030E00712350A64
:0C328300AF82FE220EEEB401D9E4FEFF83
:01328F00221C
:1036780090A4B3EDF090A4B2EBF090A4B1EFF09069
:0D368800A4B07480F090A4B0E020E7F92217
:10302E00904C85EEF0FAA3EFF0FBA3ECF0FEA3EDCF
:02303E00F0FFA1
:10304000A37401F0AD03AC02FB7A00123308EF70F9
:103050001C904C85E0FEA3E0FFA3E0FAA3E0FB7D1B
:10306000017C0012330BEF7004904C89F0904C8976
:02307000E0FF7F
:01307200223B
:1037CE00AB07AA06AE04AF05AC02AD037B017A00CF
:0337DE00023305AE
:0A39450075A50312B50575A504224F
:1037E100904C79E5A5F075A50412E7A5904C79E018
:0237F100F5A53C
:0137F30022B3
:1037F400904C7CE5A5F075A50412E6F4904C7CE0B1
:02380400F5A528
:01380600229F
:0C388E0085A55E75A50412F2A6855EA556
:01389A00220B
:0A394F0075A50212FA6575A50422A1
:0A39590075A50212FAAF75A504224D
:0A39630075A50212450575A50422A2
:0A396D0075A5021260AF75A50422D3
:0A39770075A502129FB275A5042287
:0A39810075A50412F2A675A5022236
:0A398B0075A50412E6F475A50222EA
:0A39950075A50412E7A575A502222E
:100F6400904C7E123517904C7DF0904C7DE0FEC382
:100F74009408500D1234FC6008904C7DE004F0801D
:100F8400E9904C7DE01207570FA8000FB2010FBC87
:100F9400020FC6030FD0040FDA050FE4060FEE07A5
:100FA40000000FF7ED6003D38001C3928022ED604F
:100FB40003D38001C3928522ED6003D38001C392E1
:100FC4009722ED6003D38001C392B122ED6003D375
:100FD4008001C392B222ED6003D38001C392B32295
:100FE400ED6003D38001C392B422ED6003D380018A
:030FF400C392B7EE
:010FF70022D7
:102BC800904C39123517904C38F0904C38E0FEC3D1
:102BD8009408500D1234FC6008904C38E004F080E2
:102BE800E9904C38E01207572C0C002C10012C14DB
:102BF800022C18032C1C042C20052C24062C280736
:102C080000002C2EA280801AA2858016A29780121E
:102C1800A2B1800EA2B2800AA2B38006A2B480023A
:082C2800A2B7E433FF227F0292
:012C30002281
:0A399F00E4F5A512DD8275A50422EF
:109C3E0054F8FFE04F90B81BF0E054874410F090BA
:109C4E00B817E054074490FFE490B816F0A3EFF075
:109C5E002290BE2BE00490BA0BF090BA2B7402F057
:109C6E002290BE27E054FC440390BA03F090BA232E
:109C7E007401F02290B60A741CF0A37470F090B6C2
:109C8E000E741CF0A37482F0C21522F090BF2374E0
:109C9E0060F090BE23E04401F022E090CA33FF75DD
:109CAE00F06F120716EF2583F58322E025E0FFA360
:109CBE00E0C413131354014F22E4F51CF51C7EC9A6
:109CCE007F0F8E1D8F1E8E1D8F1E2290BE26E0F2E0
:109CDE00A3E054FC08F290CCE6E0FEA3E054FCFFB7
:109CEE0008EEF2FE08EFF222F090BE23E054FCF0F4
:109CFE002290B61A741CF0A3745EF022F582E4353D
:109D0E0083F583E4F08F828E832290CC08E04402A8
:109D1E00F0751C01751DCA751E7E2290BE27E004CB
:109D2E0090BA03F02290BE27E054FC2254FC25E0AA
:109D3E00FF901C6CE054074FF02290B85FE0640B6C
:109D4E002290B81BE0548722E05402FF90BC23E01F
:109D5E0054FD4F2290BF23E054FEF0229000EAE023
:109D6E00D39410229000EEE054FDF02290BF23E039
:109D7E004401F0E054E7F0224440F090BE1AE05463
:109D8E00FEF0229000EAE004F022D22F90BF23E0F2
:109D9E004418F02290BE27E00490BA0BF02290B83F
:109DAE001BE054F822E090B684F090B68EE022903C
:099DBE00BE08120633EF24022254
:10420000E4F54D90DBAEE0F54CE4F0C222788CE2B0
:104210004401F2A220B34003024A7F90C90EE02479
:10422000FE70030245181470030246E41470030282
:1042300048911460121470030243B4146003024ADC
:104240004412E9A5024A4AD2229000F9E0540D2412
:10425000FB606924F8700302436C240C6003024382
:01426000AFAE
:1042610078A4129CD978A5E26F700318E26E7046AB
:1042710078A2E624FE6003024A4A124AB412DEB76B
:10428100129CFF90B81BE090C910129C3E129D2910
:10429100E4FDFF12CEA190CA33129D56129C7A788A
:1042A100477405F29000F9E04404F07F1A12E8E344
:0842B1009000EA024641C2221E
:1042B900024A4A78A2E624FE601B24026003024AED
:1042C9004A12D1AF129C82129D334401129C64128E
:1042D9009D62024A4A129D4860FB90BF43E020E07C
:1042E900099000EAE0D39402404212EF15124AA65F
:1042F90090CBFE1206E5000000009000FAE0FF12E4
:10430900DF1A12E9FF90CC047401F0C211129D1852
:104319009000F9E04408F07F1012E8E3D222E4901B
:1043290000EAF090CA81E04490F0802C12D1AF12DB
:104339009CFF12DEB790B81BE090CBFD129C3E1299
:104349009D33440390BA03F09000FAE0FFE4FD12B4
:10435900CEA1129C7B129D9178457405F27847F2A3
:10436900024A4A129D6A400E7F1912E8E312E0FBE5
:10437900129CC7024A4A12E5DD129C9A9000FAE0A3
:1043890090C912129CACE04460F0C22275F06FEF44
:1043990090CA33129CB0E090D8D4F09000FA129CE5
:1043A900A8E4F002450DC222024A4AD2229000F145
:1043B900E0546D24FB700302444724F8700302445F
:1043C900B324E070030244BB24C070030244EC240C
:0643D9006C6003024513B5
:1043DF0078A8129CD978A8E2FC08E2FDC3EF9DFFF4
:1043EF00EE9CFED3EF9418EE9400504778ABE26D3D
:1043FF00700318E26C6003024A4A78A2E624FE704A
:10440F002A124A8090CCDAE0FFE4FD12CEA190CCC4
:10441F00DA129CA8129D56129C679000F1E044049A
:10442F00F07F1D12E8E3E49000EAF078457408F29B
:05443F00024A4AC222FE
:10444400024A4A78A2E6602E24FE6003024A4A1217
:104454009D6A400B7F1B12E8E3751C01024A4A1255
:104464004A80E4FDFF12CEA1129C68129D62784539
:064474007408F202450D80
:10447A00129D4860FBE0640460F6E0640560F19018
:10448A00BF43E0F54E20E203024A4A124AB412EE52
:10449A00B4129D334401129C7778477408F2129D36
:0644AA0098E49000EAF026
:1044B000024A4AE4FF12DF1A024A4A12B4DE9000AE
:1044C000F1746DF090CC047402F090CC08E04401DB
:1044D000129C99C222129CC790CA33F090CBFDE087
:1044E00090C910F0129D91D219024A37129D6A406C
:1044F0001A7F1C12E8E312E9FF129D1F90CA81E0A7
:1045000044F0F0E490C90EF0024A4AC222129D9192
:10451000024A4AC222024A4AD2229000FDE0540DC9
:1045200024FB700302464724F870030246DF240C84
:104530006003024A4A129CF778A2E614602D1460C8
:104540004A14604724036003024A4AE54C64016050
:1045500003024A4A129D29C21512BE0690BA23745C
:1045600002F0129D62784574038017E54C64026086
:1045700003024A4A129DA2C21512BE06129C687816
:104580004504F290DBAE14F0024A4A129D4860FBEB
:1045900090BF43E030E04CE54C6402704678A2E600
:1045A000B4020512ED2A800312EF1590BE24120604
:1045B000339000EB1206CD129D729000F87401F05A
:1045C00012C890129C6F78477404F2129DAC129C32
:1045D0004612E204129CFF9000FDE04404F07F08C4
:1045E0000246D99000F6E030E12078A2E66403604C
:1045F00003024A4A9000FDE04410F0C222129CA03F
:10460000E490C90EF07F070246D912EEB478A2E614
:10461000B40217129D2912BE06129C7B78477403C0
:10462000F290DBAEE54CF0024A4A12E335129DA24D
:1046300012BE0690BA2B7401F078477403F290DB37
:10464000AE7401F0024A4A78A2E624FE60242402F5
:104650006003024A4A9000EEE04402F012C8901251
:104660009D33440190BA0BF0129C82129C687845ED
:1046700080299000F8E004F0129D4860FB90BF4252
:10468000E030E01D129D7212C890129CFF12E204ED
:10469000129DAC129C46129C6F78477404F2024A39
:1046A0004A90BF43E020E003024A4A129C9A12EF6C
:1046B0001512E5DD90CC047401F0C211124AA61265
:1046C0009D1890CA81E044F0F0E490CBA2F0C222A1
:1046D0009000FDE04408F07F1012E8E3024A4AC26D
:1046E00022024A4AD222129CF7E04401F078457433
:1046F00002F29000F4E0FF541924F7604F24F060B8
:104700005F24186003024786EF30E612129D7A900C
:1047100000F5E020E603129D86754D01806A78A2BF
:10472000E664027063754D0112D806129C5F90001A
:10473000F4E04440F0903FCEE02401FB903FCDE018
:104740003400FAE4FD7F0F12214C803C903FC8E01A
:1047500060099000F5E04401F0802D9000F4802085
:104760009000F5E020E4217F0C12E8E3C2AF90BE98
:1047700012E04403F0D2AF788CE254FEF29000F5E0
:10478000E04410F08002C2229000F5E0FF5407FEE2
:10479000BE0109EF4402129CF6024A4AEE6403602D
:1047A00003024866129CF77857E2FF90BE27E06F3D
:1047B0006003024A4A129DACF0E0547FF090B81AB0
:1047C000E054FEF0E054FDF0903FF6E06025903FAD
:1047D000C8E0FDD394115008129D4F4418F0803664
:1047E000EDD39479129D4F50054450F080284470C9
:1047F000F08023903FC8E0FDD3941B5008129D4FDA
:104800004420F08011EDD394B7129D4F50054458C9
:10481000F080034478F090B817E054FC4402F0E0D4
:1048200054FBF0903FC8E075F008A4FF90B817E083
:104830005407FDED4FFFE5F0129C5778477409F2DD
:10484000901D11E0FFA3E090B61ACFF0A3EFF01295
:104850009D29E490B805F090BA2304F09000F5E0AB
:104860004404F0024A4A9000F5E0FD5407640760F2
:1048700003024A4A129CF790B85BE06003024A4A7E
:10488000ED54F89000F5F09000F4E04410F0024A86
:104890004AD2229000F6E0FF543D24FB606A24E8EF
:1048A00070030249E9241C6003024A40EF30E6121B
:1048B0009000F7E020E603129D86129D7A754D0167
:1048C000803E78A2E664027037754D0112DFDF1278
:1048D0009CF7E04401F0129C5F9000F6E04440F049
:1048E000904E06E070057B80FA800F903FD2E02466
:1048F00001FB903FD1E03400FAE4FD7F0F12214C20
:1049000078457406F2024A4A784AE2FDC378A2E684
:104910009D5403F54B64017051129D7290BE27E0C7
:10492000C39D1313543F049000F8F0E0FF6405703A
:10493000030249E2EFD3940540147F1312E8E39099
:1049400000F67480129CF6E04401F00249E2129CE9
:104950008290B85BE0640C60F8E0640160F312D709
:104960008990BE27129C620249E29000F8E06072D2
:10497000E58E54707005754F288003E4F54FE4F51B
:104980004EE54EC3954F500500054E80F4E54B644F
:10499000036004E54B704B90BF43E030E04490B8B7
:1049A0005FE0640560F8000090BF43E030E23090C3
:1049B000B82BE054786410702690BE27E07858F247
:1049C0009000EEE04402F012D78912EEB490BE27B8
:1049D000E004129C77129D9878457407F2800312C8
:0249E000EF15D1
:1049E20078457407F2806112B4DE90BE27E054036A
:1049F20078A2F69000F6E04420F090CC08E0440162
:104A0200F090CC047402F0129CC790CBFDE090C9E8
:104A120010129C9990CA33E4F012D1AF129D334424
:104A22000390BA0BF0783FE2FF08E290B60ACFF0AB
:104A3200A3EFF0D22290C912E04490F0800AC22281
:104A42008006788CE254FEF2302232E490B8BBF059
:104A5200E54D600B904E3A129DB34440F0800990B0
:104A62004E39129DB354BFF090BA23E020E0079074
:0D4A7200BA2BE030E00790B87BE054FCF078
:104A7F002212D1AF90BE27E054FC440390BA0BF042
:104A8F0090B60A741CF0A37470F090B60E741CF0FC
:104A9F00A37482F0C215227ECB7FF37C4E7D007B08
:104AAF000A12372E2212D1AF904E36E0FF12ACE42D
:014ABF0022D4
:10E335009000EFE0B4FF239000FCE004F09000F3C0
:10E34500E0FF9000FCE0B5070C9000FBE06402F0F4
:10E35500E49000FCF0E49000EFF090BE27E0541C40
:10E365001313543FFF7401A807088002C333D8FC78
:07E37500FF9000EFE04FF004
:01E37C00227E
:10E2040012EF2D129DBDF553E43EF552E43DF55158
:10E21400E43CF550E553129D3AE55225E0FFE55301
:10E22400129CBFA3F0E55125E0FFE552129CBFA369
:10E23400F0E55025E0541EFFE551129CBFFFA3E01A
:10E2440054E04FF0903FC8E06007901C65E0440440
:01E25400F0D9
:01E2550022A6
:10DEB70090BE17E04401F0E490DB2AF090CC05E037
:10DEC700FEA3E0FFC39438EE94015004EF4E7013A5
:10DED700129DBDFFE43EFEE43DFDE43CFC90BE0820
:10DEE7001206CD90BE0BE0129D3A90BE0A129CB965
:10DEF700901C6DF090BE09129CB9901C6EF090BEFC
:10DF070008E025E0541E129CBCFF901C6FE054E013
:03DF17004FF022A6
:10DF1A0075F06FEF90C90F120716EF2583AF82FED7
:10DF2A00752220E4F525F5298E83E582241D129DAC
:10DF3A000AE582241B129D0AE582241CF582E43537
:10DF4A0083F5837404F08F828E83E5822423F5821D
:10DF5A00E43583F583E4F0A3F08F828E83E582248F
:10DF6A001A129D0AA3A3F08F828E83A3A3A3E0446F
:02DF7A0080F035
:01DF7C002282
:07EF710012C2A212000622E9
:10A910008E488F498F828E83E5822404F582E43548
:10A9200083F583E024FE602B24FD603224F960501F
:10A9300024FD605D24FA605D146034241660030217
:10A94000AA5CE5492405F582E43548F583E0FF1269
:10A95000E97622AF49AE4812B5EC1220B322E549A0
:10A960002405F582E43548F583E0FF12DCAA22E5F0
:10A97000492405F582E43548F583E0FF128BCA22AD
:10A98000E5492405F582E43548F583E0FF12EDD36F
:10A990002212D11822E5492405F582E43548F583D1
:10A9A000E0FF75F06FA42412F582E5F034C9F58359
:10A9B000EF2583F583E030E11975F06FEFA424579C
:10A9C000F582E5F034CAF583EF2583F583E0440191
:10A9D000F022E5492405F582E43548F583E0FF756A
:10A9E000F06FA4246FF582E5F034CAF583EF258378
:10A9F000F583E030E11875F06FEFA42457F582E598
:10AA0000F034CAF583EF2583F583E04402F0E5498D
:10AA10002405F582E43548F583E0FF75F06FA42442
:10AA20006FF582E5F034CAF583EF2583F583E030D6
:10AA3000E21875F06FEFA42457F582E5F034CAF5FB
:10AA400083EF2583F583E04404F0E5492405F5828E
:0DAA5000E43548F583E0FD7F1C12E7E222AB
:10C2A200E4FF90B81BE04480F090B817E04404F03B
:10C2B2007E147F2A90B602EEF0A3EFF090B60AEE5B
:10C2C200F0A3EFF0783FEEF208EFF27E1C7F5D9074
:10C2D200D77CEEF0FCA3EFF0FD90B60EECF0A3EDF0
:10C2E200F090B606ECF0A3EDF090B44A7414F0A30B
:10C2F200742AF090B452EEF0A3EFF07E027FF09039
:10C30200B622EEF0A3EFF090B62AEEF0A3EFF0E43F
:10C312007855F27522207EC97F0F8E1D8F1E8E1DCD
:10C322008F1E785B7404F2E4FF75F06FEFA4242B88
:10C33200F582E5F034C9F5832FF5837404F075F0C6
:10C342006FEFA42429F582E5F034C9F5832FF58334
:10C35200E4F00FBF02D390AA07E030E406788CE243
:10C362004440F2903FFB74FFF090B8417401F090AA
:10C37200BE28E0FCA3E0FDA3E0FEA3E0FF90DB60AB
:03C382001206CDD3
:01C385002295
:10B5EC00EF2406FDE43EFC8D82F583A3E0F5288D67
:10B5FC00828C83E0F52790DB64E0FF600C1238D777
:10B60C0090DB64E0600302B6F830430D78AAE65490
:10B61C00FEF6129DC7C22E801030460512EF3980FF
:10B62C000830380512A0D0C22E303E6212609F3016
:10B63C001807E478A3F612B2B078A2E620E04390A3
:10B64C00D903E0B4090990B677E0547FF0801090EC
:10B65C00B677E0FF90DB1EE0FEEF4E90B677F090F1
:10B66C00D8D6E0B4090312D97712EF78903F48E0AE
:10B67C0030E00512ECD0800A903F48E030E1031234
:10B68C00D882301807E478A3F612B2B0C232303D3B
:10B69C002830152290B60EE0FEA3E0FF90D77CE098
:10B6AC00B50607A3E0B50702D21690B81BE0547F8D
:10B6BC00F0E4FF12C7D0C23022303B06E4FF12C7C1
:10B6CC00D022303C07302F241274BF2230450C7826
:10B6DC00AAE6B40217E4F612E8162230440E90BF24
:0DB6EC0022E054CFF0E478AAF612EC2E22F2
:10A0D00090BF23E054FEF020190302A16090CC044D
:10A0E000E06402707BE51E2468F582E51D3401F50D
:10A0F00083E0D394004026851E82851D83A3E0FF64
:10A1000090B82BE05407B50704E478A3F6E51E24C5
:10A110006AF582E51D3401F583E4F0801290B85FA2
:10A12000E0640B60F8E0640460F3E0640560EE1244
:10A13000B2B0E51E2468F582E51D3401F583E064C4
:10A1400001600302A243E51E2449F582E51D3401A6
:10A15000F583E06404600302A243AF1C124AC022EC
:10A16000783CE224FA60792404600302A24312EFEF
:10A170001512EDECE490B81FF090BE27E00490BA01
:10A1800003F090BA237401F090B81BE054F8F0E0AB
:10A1900054874410F090B817E054074490FF90B8EB
:10A1A00016E4F0A3EFF078477409F212E20490B6D7
:10A1B0001A741CF0A3745EF09000F4E04408F09070
:10A1C0003FC8E0600990BE27E024047857F2788CFD
:10A1D000E24401F2782BE2FBE4FD7F0F12215D22C5
:10A1E0007858E2784AF290BE17E04410F000000080
:10A1F0000090BE00E0FCA3E0FDA3E0FEA3E0FF9022
:10A2000000EB1206CD9000EEE04402F0E49000F87E
:10A21000F012D78912EEB4784AE20490BA03F090B3
:10A22000BA237401F09000F6E04404F090BE23E0FD
:10A2300054FCF07F0A12E8E3782BE2FBE4FD7F0F89
:04A2400012215D2268
:10DE510090CC04E0FF64046017EF6408601290C97D
:10DE61000EE0FF64076009EF64086004EFB4092A5B
:10DE710090DB63E0FF90BE03E0C39FF54BC313FF4C
:10DE81007E0012216E90BE00E0FCA3E0FDA3E0FE47
:09DE9100A3E0FF90DB601206CD56
:10DE9A002290BE00E0FCA3E0FDA3E0FEA3E0FF9019
:0DDEAA00DB601206CD7F017E0012216E228A
:10609F0090BE17E04403F00000000090BE03E054F0
:1060AF000378A2F6E620E06B12DE51786DE2600312
:1060BF0012598778A3E6D39400400116302428C2E2
:1060CF0024C2AF90BE12E04440F07865E2FF08E2D0
:1060DF0090BE06CFF0A3EFF090BE13E04480F0D255
:1060EF00AF7862740CF2227847E2783DF2E4784799
:1060FF00F27845E2783CF2E47845F290D903E0FF7C
:10610F0090D8D6F0E490D903F0BF090790BC22E0F5
:10611F00547FF078A3E6700312420078A2E6FD30B8
:10612F00E00302645990BE17E04403F090CC04E002
:10613F00640160030262BFED704C30112F08E670EE
:10614F002B788CE24402F290BF23E054FEF090BE15
:10615F0003E054FC440190BA0BF012D1AF7D01AFB4
:10616F001C12CEA112BB16C21102644920210302D8
:10617F00644930220302644978A3E660030264494C
:10618F0012D47902644978A2E6640260030264497A
:10619F0030192208E6601C12EF15E51E241AF5824D
:1061AF00E4351DF583E4F078A3F690BF23E054E7C0
:1061BF00F0C22FC21978A3E66003026449783CE26B
:1061CF00641060030262B990B85FE0640B60F8E09E
:1061DF00640460F3E0640560EE90BF43E0F54A208D
:1061EF00E20302628390B82BE054077859F2851EC0
:1061FF0082851D83A3E0FFE2FEEF6E706412522FC3
:10620F00202F0302644990B85FE0702490BF43E0F1
:10621F00F54A30E308E4FF12C7D0026449E54A307B
:10622F00E4061274BF026449E4FF12C7D002644946
:10623F00302924E51E241AF582E4351DF583E4F098
:10624F00E51E241AF582E4351DF583E0FF90B81A98
:10625F00E054FEFEEF4EF090BF23E04418F00264CE
:10626F0049E51E241AF582E4351DF583E4F012D4B6
:10627F00FF026449E51E241AF582E4351DF583E417
:10628F00F012D4FFE51E2449F582E51D3401F58394
:10629F00E020E403026449E51E2458F582E51D342D
:1062AF0001F583E4F0A3F0026449129925026449D1
:1062BF0090CC04E06402600302643F301803026470
:1062CF004930191490BE17E04402F000000000900E
:1062DF00BE03E0540378A2F690DAC7E0640170348D
:1062EF00D3784EE2940018E29400402890DAC8E088
:1062FF00602208E224FFF218E234FFF208E2700293
:10630F0018E27010D22590C92EE0FFA3E0784DCF90
:10631F00F208EFF278A2E66402600302641208E664
:10632F006003026449A222B34003026449A24CB342
:10633F00400302644990C911E0540360030263FDF6
:10634F0030195FC21090B85BE0700A90CA77E0FF17
:10635F0012CF3F800312D1AF90CA77E0FFD39400E2
:10636F00403CEF25E078A3F690BF23E04401F09086
:10637F00CA5AE030E35A90CA7AE0FF7E0090CA5FB3
:10638F00E0FCA3E02FFFEE3CCF24FFCF34FF90CAF9
:10639F0067F0A3EFF090CA5AE054F7F08032D210B2
:1063AF00802E90DAC6E0B4010512E09E801990C9E4
:1063BF003AE0FF90BE0AE0C39FC394044004D23377
:1063CF008002C23312D1AFD21090BF23E054FEF03F
:1063DF0078457410F2E4FDFF12CEA190BE03E05495
:1063EF00FC440390BA0BF012BB16C233804C90CA18
:1063FF0058E030E40690CA6C7401F0788CE254FDDA
:10640F00F28037301034A222B3502F78A2E6702AD0
:10641F0008E67026A24CB3502190B85FE0640B6081
:10642F00F8E0640460F3E0640560EE12B2B0800A35
:10643F0090CC04E0B40803129107785DE260057F09
:0A644F0002124AC0788CE254BFF23A
:016459002220
:02CEA1008F51AF
:10CEA30075F06FEFA424FCF582E5F034C9F5832F08
:10CEB300F583E0FFED601675F06FE551A424FDF5F1
:10CEC30082E5F034C9F5832551F583E0FFEF606116
:10CED300785BE26551605375F06FE551A42499F5D1
:10CEE30082E5F034C9F5832551AD82FC7EAC7F4CDD
:10CEF3007B1012372E90CBF3E090B80BF090CBF46D
:10CF0300E090B80AF090CBF5E090B809F090CBF63A
:10CF1300E090B808F090CBF7E090B80FF090CBF822
:10CF2300E090B80EF0785BE551F290B8537403F0DB
:0BCF330022E490B853F0785B7404F225
:01CF3E0022D0
:10D118009000F4E0FF54486440600AEF54A07005A2
:10D12800E05424602F12EF1590BF23E054FEF078EE
:10D138002BE2FBE4FD7F0F12215D202E699000F4A5
:10D14800E0FF30E20354FBF09000F4E054FEF07F7F
:10D158000B12E8E39000F6E0544464406006A3E054
:10D168005405604212EF1590BF23E054FEF0782B6F
:10D17800E2FBE4FD7F0F12215D202E2A9000F7E0EC
:10D18800FF30E703547FF09000F6E054FBF090BEC8
:10D1980023E054FCF0E04401F0783CE2B40602E4F9
:07D1A800F27F0912E8E32207
:10EDD300EF24FE700D9000FDE04401F090C90E7425
:09EDE30002F0788CE24401F222F6
:10E97600851E82851D83E054466023A3A3E05403CD
:10E98600701C75F06FEFA42412F582E5F034C9F51A
:0FE99600832FF583E04420F0788CE24402F222D4
:106D86008E4D8F4E8D828C83E0854E82854D83F0AD
:106D96008D828C83A3E0854E82854D83A3F08D8200
:106DA6008C83A3A3E0854E82854D83A3A3F08D82B9
:106DB6008C83A3A3A3E0854E82854D83A3A3A3F072
:106DC600ED2404F582E43CF583E05403FFE54E240C
:106DD60004F582E4354DF583EFF0ED2405F582E404
:106DE6003CF583E0FFC4333354C0FFED2404F58241
:106DF600E43CF583E0FE1313543F4FFFE54E2405B4
:106E0600F582E4354DF583EFF0ED2406F582E43C9A
:106E1600F583E0FFC4333354C0FFED2405F582E467
:106E26003CF583E0FE1313543F4FFFE54E2406F571
:106E360082E4354DF583EFF0ED2407F582E43CF569
:106E460083E0FFC4333354C0FFED2406F582E43CEF
:106E5600F583E0FE1313543F4FFFE54E2407F582FA
:106E6600E4354DF583EFF0ED2407F582E43CF58338
:106E7600E0FFC45403FFE54E240BF582E4354DF5DF
:106E860083EFF0ED2408F582E43CF583E0FFE54E60
:106E96002408F582E4354DF583EFF0ED2409F582FB
:106EA600E43CF583E0FFE54E2409F582E4354DF533
:106EB60083EFF0ED240AF582E43CF583E0FFE54E2E
:106EC600240AF582E4354DF583EFF0ED240BF582C7
:106ED600E43CF583E0FFE54E240CF582E4354DF500
:106EE60083EFF0ED240CF582E43CF583E0FFE54EFC
:106EF600240DF582E4354DF583EFF0ED240DF58292
:106F0600E43CF583E0FFE54E240EF582E4354DF5CD
:106F160083EFF0ED240EF582E43CF583E05407FFA1
:106F2600E54E240FF582E4354DF583EFF0ED240EA2
:106F3600F582E43CF583E0FFC31354FCFFED240F18
:106F4600F582E43CF583E0FEC433333354804FFFCF
:106F5600E54E2413F582E4354DF583EFF0ED24106C
:106F6600F582E43CF583E0FFC43333335480FFED10
:106F7600240FF582E43CF583E0FEC3134FFFE54E94
:106F86002412F582E4354DF583EFF0ED2411F582F8
:106F9600E43CF583E0FFC43333335480FFED241023
:106FA600F582E43CF583E0FEC3134FFFE54E241162
:106FB600F582E4354DF583EFF0ED2411F582E43CDE
:106FC600F583E0FFC313540FFFE54E2410F582E46A
:106FD600354DF583EFF0ED2411F582E43CF583E0C1
:106FE600FFC4135407FFE54E2414F582E4354DF52E
:046FF60083EFF02213
:10D9EE0090BE17E04440F00000000090BE00E054EE
:10D9FE000FF0C390BE06E0648094805035A3E024FF
:10DA0E00E2FE90BE06E0340490C90CF0A3CEF09076
:10DA1E00BE00E0FCA3E0FDA3E0FEA3E024FFFFEECA
:10DA2E0034FFFEED34FFFDEC34FFFC90CCE8120623
:10DA3E00CD2290BE06E0FFA3E090C90CCFF0A3EF7D
:10DA4E00F090BE00E0FCA3E0FDA3E0FEA3E0FF909B
:06DA5E00CCE81206CD2207
:08E0FB0090C90FE05446605289
:10E1030090BF23E054BFF090BF337440F090CCE84D
:10E11300E0FCA3E0FDA3E0FEA3E0FF90BE00120637
:10E12300CD90C90CE0FFA3E090BE06CFF0A3EFF0C3
:10E1330090BE12E04470F000000000000000009068
:10E14300BF13E0F55090BF12E0F55090BF23E044B9
:02E1530040F09A
:01E1550022A7
:10E9FF0090BF23E054BFF090BF337440F090BE122D
:10EA0F00E04403F000000000000090BF13E0FF900F
:0BEA1F00BF12E0FF90BF23E04440F076
:01EA2A0022C9
:0FEEB400E490B807F090B81BE054874468F02250
:04E7E2008F538D5470
:10E7E6001220D5904C28EEF0A3EFF02404F582E435
:10E7F6003EF583E553F0EF2405F582E43EF583E527
:0FE8060054F0904C28E0FCA3E0FD7F061220A206
:01E8150022E0
:02E8E3008F5054
:10E8E5001220D5904C1CEEF0A3EFF02404F582E441
:10E8F5003EF583E550F0EF2405F582E43EF583E42B
:0EE90500F0904C1CE0FCA3E0FD7F051220A268
:01E9130022E1
:10BB160090BA2B7402F0E51E2424F582E51D34014B
:10BB2600F583E05402FF90BC23E054FD4FF0AF1CB8
:10BB360012D68B788CE24402F290DAC6E064017089
:10BB4600557E037F4A90B622EEF0A3EFF090B6261C
:10BB56007414F0A37429F090DAD3E0701B783F7464
:10BB660003F208744AF290B62AEEF0A3EFF090B60C
:10BB76000AEEF0A3EFF0803D783F7407F2087447B1
:10BB8600F27E07FF90B62AEEF0A3EFF090B60AEE2B
:10BB9600F0A3EFF0801F783FE2FF08E290B60ACFED
:10BBA600F0A3EFF090D77CE0FFA3E090B60ECFF0C5
:10BBB600A3EFF0D215E51E2447F582E51D3401F505
:10BBC60083E0540390B805F078457410F2904E1D4A
:10BBD600E030E12190DAC6E06401601920191620F0
:10BBE6003313851E82851D83E020E70990B868E03F
:10BBF6004480F0800790B868E0547FF0904E39E0BA
:0CBC060090B684F090B68EE054BFF0229F
:0EEED200904E22E0FF90B8B3E02FF404FF2230
:10946400754E01E51E241AF582E51D3401F583E0ED
:10947400FF20E3030295FD30190FE51E245EF582FB
:10948400E51D3401F583E0F54EE51E2419F582E56A
:109494001D3401F583E0FE904E3CE0C36480F8EE99
:1094A4006480984055EF30E1030295FDE51E246683
:1094B400F582E51D3401F583E0254EF0E51E2466B2
:1094C400F582E51D3401F583E0C3648094B2500352
:1094D4000295FDE51E241AF582E51D3401F583E0AD
:1094E40054E4F0AD1C7F1D12E7E2E51E2466F5820C
:1094F400E51D3401F583741EF022E51E2419F5825E
:10950400E51D3401F583E0FF904E3BE0D36480F821
:10951400EF64809840030295C1E51E241AF582E5A4
:109524001D3401F583E030E0030295FDE51E246659
:10953400F582E51D3401F583E0C3954EF0E51E2464
:1095440066F582E51D3401F583E0D36480944E40D2
:10955400030295FDE51E241AF582E51D3401F58309
:10956400E054F4F0E51E241AF582E51D3401F58378
:10957400E04410F0851E82851D83E030E528E582F5
:109584002456F582E5833401F583E0FEA3E0D39409
:1095940000EE94014010E51E241AF582E51D340105
:1095A400F583E04404F0AD1C7F1D12E7E2E51E24C0
:1095B40066F582E51D3401F58374E2F022E51E248C
:1095C40066F582E51D3401F583E0FFD36480948061
:1095D4004010E51E2466F582E51D3401F583E01490
:1095E400F022C3EF64809480500FE51E2466F58258
:0995F400E51D3401F583E004F0EB
:0195FD00224B
:0CEF090090BA23E054FCF0E0440CF0222D
:0CEF150090BA2BE054FCF0E0440CF02219
:10ED2A0090BA23E054FCF090BA2BE054FCF090BA6D
:0DED3A0023E0440CF090BA2BE0440CF022D2
:104000000011001B007900B700E00153FFFF000022
:10401000000000000000000000000000000000039D
:104020000303020202020101010101010101040472
:104030000404040404040404040404040404040341
:104040000303020202020101010101010101001B3F
:10405000000A0014001EFFFF001D007900B7FFFFDB
:10406000FFFF00E001530036FFFF003C005A005301
:10407000001D016F02280168021C02A703FD000257
:07408000FEFE01FE0102FE3D
:10992500E4F54EC22A90DB9BF078B17601788CE2A3
:109935004402F2E54E6003029AB3A222B340030249
:109945009AB3A24CB34003029AB3E51E2436F582BE
:10995500E4351DF583E06401704A754E01E51E246A
:1099650036F582E4351DF583E4F090B81BE05487A5
:109975004418F090B817E054FC4401F0E490B81690
:10998500F0A3E05407F0E51E2434F582E4351DF517
:10999500837404F0E51E2435F582E4351DF583E472
:0499A500F0029A49E9
:1099A900851E82851D83A3A3A3E0F55030E750549B
:1099B9003F90400E93F54FB401097F0112DC388FB7
:1099C9004E803CE54FB4020F754E017848E2FE081F
:1099D900E2FF1267A28028E54FB40318785EE2FE21
:1099E90008E2FF12A50F8F4EE54E7013754E011256
:1099F900EF21800BE54FB40406754E0312EEE0E546
:109A09004E703D851E82851D83A3A3E054037029F2
:109A1900302905754E018021E51E2446F582E51D94
:109A29003401F583E06012754E01E51E2446F58286
:109A3900E51D3401F583E014F0E54E600312EF21D2
:109A4900E54EB40203E4F54EE54E6045B4030790D4
:109A5900CA81E0549FF0D211851E82851D83A3E03F
:109A6900FF90B81BE054F8FEEF4EF0129F4E784776
:109A79007410F2E51E241FF582E4351DF583E0FE1E
:109A8900A3E024FFFBEE34FFFA7D01E4FF12214C31
:109A990022C21130210EA222B35009A24CB35004A4
:0A9AA90012D47922788CE254FDF209
:019AB3002290
:1092B900E4F54E90DB9BF0C22A78B17601788CE216
:1092C9004402F230202E754E017848E2FE08E2FF92
:1092D900F5828E83E030E00FEF4E600B18E2FE0856
:1092E900E2FF1267A28002C22090DAC8E0B4021538
:1092F900E4F0801190DAC7E0600B90DAC8E060050D
:1093090012C3868F4EA222B34003029396E54E7094
:109319007CA24CB3507790C945E06401702B754E1F
:1093290001F090B81BE054874418F090B817E05446
:10933900FC4401F0E490B816F0A3E05407F090C99A
:09934900437404F0A3E4F0804435
:1093520090C912E0FF543F90400E93F54FEF30E773
:1093620033E54FB40109E4FF12DC388F4E8025E566
:109372004FB4020F754E017848E2FE08E2FF126711
:10938200A28011E54FB4030C785EE2FE08E2FF1200
:04939200A50F8F4E46
:10939600E54E703E202912202B0F90CA5AE020E796
:1093A6000890DAC7E0541E6029754E0112EF21E5D8
:1093B6001E2449F582E51D3401F583E0541460123C
:1093C60020290FE51E245DF582E51D3401F5837421
:1093D60001F0E54EB40203E4F54EE54E605F90C938
:1093E60010E0FF90B81BE054F8FEEF4EF0129F4ECF
:1093F6007847E2641160037410F2302A6090CA580C
:10940600E05414605890CA67E0FEA3E0FF90CA617A
:10941600E0FCA3E0FDC39FEC9E404278B1E6FF7EF0
:1094260000ED2FFFEE3C90CA67F0A3EFF090CA580C
:109436007404F090C911F0A3E04480F022E51E24E4
:1094460049F582E51D3401F583E05414600FE51EED
:0D945600245DF582E51D3401F5837401F0FD
:0194630022E6
:10C3860090DAD1E078B1F690DAC8E0FFB4010BC2DA
:10C3960025E490C929F07D01800FEFB40209E490ED
:10C3A600DAC8F07D018002E4FDED700302C46690F8
:10C3B600B81BE05487FF90DAC9E0FE4F90B81BF037
:10C3C60090CA56E030E02AEE64706009EE64506070
:10C3D60004EEB4200890DB9B7401F08014EE6478C0
:10C3E6006009EE64586004EEB4400690DB9B74026C
:10C3F600F090DACBE0FFA3E090B61ACFF0A3EFF00F
:10C4060090DAC7E0541E601D90DAD2E0601ED22A90
:10C41600E490C943F090C912E020E31090C92AE0E5
:10C426006402F0800790C92AE06402F090DACFE057
:10C43600FEA3E07803C333CE33CED8F9FF90B81706
:10C44600E05407FBEEEF4BFF90B816EEF0A3EFF0CB
:10C4560090B817E054FCFF90DACAE04F90B817F096
:02C46600AF0520
:01C4680022B1
:02DC38008F510A
:10DC3A007F021FE51E242EF582E4351DF583E0FDE3
:10DC4A00A3E090B81ACDF0A3EDF0E51E2430F582DA
:10DC5A00E4351DF583E0FDA3E090B816CDF0A3ED01
:10DC6A00F0E51E2432F582E4351DF583E0FDA3E0DC
:10DC7A0090B61ACDF0A3EDF0851D1D851E1EE51E7A
:10DC8A00242DF582E4351DF583E078B1F6D22AE534
:0FDC9A001E2435F582E4351DF583E090DB9BF009
:01DCA9002258
:1067A2008E518F5290B81BE054874418F090DAC78C
:1067B200E0541E600D851E82851D83A3A3A3E020E5
:1067C200E30FE51E241BF582E4351DF583E0640228
:1067D200F090B817E054FC4403F0E5522404F5822B
:1067E200E43551F583E075F008A4FF90B817E05442
:1067F20007FDE5F0ED4FFF90B816E5F0F0A3EFF0DE
:10680200855282855183A3A3E0FEA3E0FF90B61ACE
:10681200EEF0A3EFF0E51E2432F582E4351DF58398
:10682200EEF0A3EFF0E51E2434F582E4351DF58386
:106832007402F090DB9BE0FFE51E2435F582E4351F
:106842001DF583EFF0D22A855282855183E054F000
:1068520024E0700302692724D0602624F07003022A
:10686200693824E0700302694924706003026ABB3C
:10687200855282855183A3E0FD7F0A12E7E2026A14
:01688200BB5A
:1068830090BE24E0FCA3E0FDA3E0FEA3E0FF7801BB
:106893001205E9904C1C1206CD904C1CE0FCA3E0C1
:1068A300FDA3E0FEA3E024F0FFE43EFEE43DFDE4AF
:1068B3003CFC90CCE41206CD90CCE7E054FEFFF014
:1068C300855282855183A3A3E0FCA3E0F5828C83E8
:1068D300A3EFF090CCE6E0FF855282855183A3A31A
:1068E300E0FCA3E0F5828C83A3A3EFF090CCE5E07A
:1068F300FF855282855183A3A3E0FCA3E0F5828C3C
:1069030083A3A3A3EFF090CCE4E0FF8552828551EB
:1069130083A3A3E0FCA3E02404F582E43CF583EF26
:01692300F083
:10692400026ABBE51E24EEF582E4351DF58374018D
:10693400F0026ABB855282855183A3E0FD7F0D126C
:05694400E7E2026ABB5E
:10694900E51E2449F582E51D3401F583E06030E553
:106959001E2456F582E51D3401F583A3E025E0FFE9
:106969000582D5820215831582E033904C24F0A369
:10697900EFF0E02414F0904C24E03400F08024E59A
:106989001E2421F582E4351DF583E0FEA3E078039A
:10699900C333CE33CED8F92414FFE43E904C24F00F
:1069A900A3EFF090BE24E0FCA3E0FDA3E0FEA3E08A
:1069B900FF78011205E9904C201206CD904C20E099
:1069C900F8A3E0F9A3E0FAA3E0FB904C24E0FEA3CE
:1069D900E0FFE4FCFDEB2FFFEA3EFEED39FDEC386C
:1069E900FC904C201206CD904C23E054FEF0904CC4
:1069F90020E05407F0904C23E0FF855282855183B3
:106A0900A3A3E0FCA3E0F5828C83A3EFF0904C22D2
:106A1900E0FF855282855183A3A3E0FCA3E0F582C0
:106A29008C83A3A3EFF0904C21E0FF85528285511E
:106A390083A3A3E0FCA3E0F5828C83A3A3A3EFF0D7
:106A4900904C20E0FF855282855183A3A3E0FCA3EB
:106A5900E02404F582E43CF583EFF01220E6904C43
:106A690026EEF0FCA3EFF0FD904C26E0FEA3E0FF3C
:106A79002404F582E43EF583740FF0855282855132
:106A890083A3E0FBEF2405F582E43EF583EBF08573
:106A99005282855183A3A3E0FEA3E0FFED2406FB08
:106AA900E43C8B82F583A3A3EEF0A3EFF07F0612FB
:026AB90020A219
:0E6ABB00851E82851D83A3A3A3E054FBF02259
:04A50F008E518F5288
:10A513008F828E83A3E0FF75F06FA42457F582E545
:10A52300F034CAF583EF2583F583E0545E60037F3F
:10A533000022AF52AE511276EF78B1A60785528250
:10A54300855183A3A3E0FF90B817E054FCFEEF4EC0
:10A55300F0855282855183A3A3A3E0FFA3E090B6C5
:10A563001ACFF0A3EFF0E51E2434F582E4351DF590
:10A57300837404F0855282855183A3A3A3E0FEA3D1
:10A58300E0FFE51E2432F582E4351DF583EEF0A3EA
:10A59300EFF090DB9BE0FFE51E2435F582E4351DEB
:10A5A300F583EFF0E5522405F582E43551F583E0B8
:10A5B300FEA3E0FF7860E2FC08E2FDD3EF9DEE9C92
:10A5C300500F8E538F548552828551837403F080CC
:10A5D300548C538D54855282855183A3A3A3E55391
:10A5E3008554F01204A8E5522405F582E43551F5AB
:10A5F30083C083C082C3A3E09DFF0582D582021579
:10A60300831582E09CD082D083F0A3EFF085528241
:10A61300855183A3A37401F0851E82851D83A3A3A3
:10A62300A3E04402F0E554AE537803C333CE33CEF4
:10A63300D8F9FF90B817E05407FDEEEF4DFF90B83F
:10A6430016EEF0A3EFF0D22AE51E241BF582E435C3
:10A653001DF583E06402F0851E82851D83A3A3A3F9
:06A66300E054FEF07F014F
:01A6690022CE
:0CEF210090B81BE05487F078B176012214
:0EEEE00090B81BE054874408F078B176012208
:109F4E00E51E241BF582E4351DF583E0FF90B81A5B
:109F5E00E054FDFEEF4EF0E51E241AF582E4351DA9
:109F6E00F583E0FF90B81AE054FEFEEF4EF090BE7F
:109F7E0017E04402F00000000078A3E6FF25E0FFA2
:109F8E0090BE03E02F440190BA03F090CC04E0B4ED
:109F9E00020E90BA03E05403FFBF0304E024FEF068
:109FAE0030161930140DC216C21490B81BE044803E
:109FBE00F0801090B81BE0547FF0800790B81BE043
:109FCE004480F090B817E04404F090DAC6E05403F1
:109FDE00600512E09E800312D1AFE4FDAF1C12CEDD
:109FEE00A1E51E2424F582E51D3401F583E054021B
:109FFE00FF90BC23E054FD4FF0AF1C12D68B90B8EF
:10A00E007BE054FCF0E0FF90DB9BE0FEEF4E90B85F
:10A01E007BF0E51E2422F582E51D3401F583E0FF79
:10A02E0012ACE47847E264116015E51E2447F58210
:10A03E00E51D3401F583E0540390B807F08005E484
:10A04E0090B807F020280D12EF090000000090BA1A
:10A05E00237401F0C22878B1E6FF78A326F6302AE1
:10A06E0060851E82851D83A3A3A3E04408F0E51E30
:10A07E00242DF582E4351DF583EFF090B81AE0FE3D
:10A08E00A3E0FFE51E242EF582E4351DF583EEF0E8
:10A09E00A3EFF090B816E0FEA3E0FFE51E2430F526
:10A0AE0082E4351DF583EEF0A3EFF090CC04E0B41E
:10A0BE00010FE51E2446F582E51D3401F583740477
:02A0CE00F0227E
:0476EF008E558F56CF
:1076F3007F187E01E4F97860F2087411F2E51E2424
:1077030047F582E51D3401F583E030E01009E51EFD
:107713002418F582E4351DF583E0FC800DE51E2475
:1077230017F582E4351DF583E0FCE5562405F58263
:10773300E43555F583E0FAA3E0FBE96066D3EB9407
:1077430011EA940050057D010277F9D3EB9436EAF0
:10775300940050057D030277F9D3EB9453EA940028
:10776300500EEC30E2057D070277F97D0B0277F9C5
:10777300D3EB946FEA940150047D0F8079D3EB949B
:1077830028EA9402500CEC30E4047D1F80687D2FBE
:107793008064D3EB94A7EA940250047D3F80577D25
:1077A3007F8053D3EB9411EA940050047D0180460B
:1077B300D3EB941BEA9400500CEC30E1047D03807E
:1077C300357D078031D3EB9479EA940050047D072B
:1077D3008024D3EB94B7EA9400500CEC30E3047D9F
:1077E3000F80137D1F800FD3EB94E0EA94005004C5
:1077F3007D1F80027D3FEC5205E970030278A2ED04
:10780300C3944040167F7878607403F20874FDF2E5
:107813007E0590DB9B7402F0027903EDC394204054
:10782300167F7078607402F20874A7F27E0590DB0D
:107833009B7401F0027903EDC3941040167F5878CE
:10784300607402F2087428F27E0390DB9B7402F0EA
:10785300027903EDC3940840167F5078607401F2F7
:1078630008746FF27E0390DB9B7401F0027903EDE1
:10787300C3940440127F407860E4F2087453F2909A
:10788300DB9B7402F08079EDC3940240737F207810
:1078930060E4F2087436F290DB9B7401F08061EDD2
:1078A300C39420400F7F7878607401F2087453F218
:1078B3007E05804CEDC39410400E7F707860E4F237
:1078C3000874E0F27E058038EDC39408400E7F58BB
:1078D3007860E4F20874B7F27E038024EDC3940465
:1078E300400E7F507860E4F2087479F27E038010D2
:1078F300EDC39402400A7F207860E4F208741BF21F
:0A79030090B81BE054874FF0AF0668
:01790D002257
:02ACE4008F518E
:10ACE600E4F552F553FF90DB72E06404700302AEA4
:10ACF6001A904E36E06551704F90B87BE054036071
:10AD0600010F90DB1DE0B50712783BE2B5510C90C0
:10AD16003FFAE0FE903FFCE06E6056EF601975F07A
:10AD260002E551A4242CF582E5F0344EF583E0F5D6
:10AD360052A3E0F553800A904E34E0F552A3E0F5B5
:10AD46005390DB1DEFF08029783BE2B5510C903F24
:10AD5600FAE0FF903FFCE06F601775F002E551A442
:10AD6600242CF582E5F0344EF583E0F552A3E0F5A8
:10AD760053E5534552700302AE1A903FFDE0605B07
:10AD8600AF53EF3395E0F5548F55903FFAE0243DED
:10AD9600F582E4344EF583E0FFFD3395E0FCED25C6
:10ADA60055F555EC3554F554C364809480500575BB
:10ADB6005300804AC3E5559480E5546480948040EE
:10ADC60009855252747FF5538034EF3395E0FEEFD8
:09ADD6002553F553EE3552F552F8
:02ADDF008023CF
:10ADE100743D2551F582E4344EF583E0FF3395E05F
:10ADF100EFFEE424F0F555E43EF554AD55FC7F0833
:03AE01001235B354
:10AE0400903FFAE0903FFCF0AD53AC527F0B12350B
:06AE1400B3783BE551F2AA
:01AE1A002215
:10E09E0090DAD4E014604404704A90CC04E0B401E9
:10E0AE001D78A2E6700C90DAD6E0248090BC22F0A7
:10E0BE00803290DAD5E0248090BC22F0802678A2BF
:10E0CE00E6700C90DAD5E0248090BC22F08015909A
:10E0DE00DAD6E0248090BC22F08009E490BC22F0D5
:0DE0EE0090BC02F012D1AFE490B853F022C4
:10ED9D007862E2640E601390B86E7401F0A3E4F033
:0BEDAD0090BE1AE04401F0740EF22248
:10D1AF007862E2640A60467ECB7FF312E61D90CB75
:10D1BF00F6E090B81FF090BC037480F090CC04E0C0
:10D1CF00B4010990BE1AE04401F0801C90BE1AE031
:10D1DF0054FEF0E04402F090BE067402F0A37430E7
:10D1EF00F090BE1BE04401F07862740AF230331CF9
:10D1FF0090B86E7409F0A37450F090BC1E7401F0D7
:10D20F00A3745AF090BC277472F0801F7851E2FF1C
:10D21F0008E290BC1ECFF0A3EFF0785AE290BC2743
:10D22F00F090B86E7403F0A37410F090B403E05450
:03D23F007FF0225B
:10CF3F008F4B7862E2FF640B700302CFD3EF640A6A
:10CF4F00600D7ECB7FF312E61D90BC037480F090D2
:10CF5F00CBF6E090B81FF0E54B600C90B86E743ACA
:10CF6F00F0A37498F080357850E2FDFB75F010A4B3
:10CF7F002410FEE5F0340390B86EF0A3CEF0EB75FD
:10CF8F00F004A4FFAEF0C374EA9F90BC1FF07402CC
:10CF9F009E90BC1EF0ED240E90BC27F090B403E0E1
:10CFAF00547FF090BE1AE054FEF0E04402F090BEC1
:10CFBF00067402F0A37430F090BE1BE04401F078C9
:0ECFCF0062740BF2E54B600578537401F22298
:10DFDF007862E2640560427E4E7F0012E61D12E910
:10DFEF00FF90BC037401F090B86EE04480F0900095
:10DFFF00F7E054BFF090B403E04480F0786274050A
:10E00F00F290BE1AE054FDF090BE067401F0A374B6
:10E01F0028F090BE1BE04401F09000F7E030E308D9
:10E02F0090BC02E04408F02290BC02E054F7F022CA
:10D8060090B8137433F090B812748BF090B811740A
:10D816009EF09000F0E090BC13F07862E264026043
:10D8260044E490BC0CF0A3749EF0A3748BF0A37434
:10D8360033F090BC037402F012E9FF90B86EE04436
:10D8460080F09000F5E054BFF090B403E04480F01F
:10D8560078627402F290BE0614F0A37428F090BEAB
:10D866001BE04401F09000F5E030E30890BC02E0D4
:0CD876004408F02290BC02E054F7F022BD
:10EDEC007862E26403600990BC037440F07403F22F
:09EDFC00904E36E0FF12ACE42257
:0ABE06007862E26404700302BEE5F6
:10BE100090BE12E04403F090CC04E0707490BF2315
:10BE2000E078ACF2E4F090BF337440F090BE2BE0C9
:10BE300078ADF29000FEE0FF75F06FA4241DF5824E
:10BE4000E5F034C9F583EF2583F583E0FCA3E0FD3D
:10BE5000A3E0FEA3E0FF90BE28E0F8A3E0F9A3E092
:10BE6000FAA3E02FFFEA3EFEE93DFDE83CFC90BE70
:10BE7000001206CD90BE13E04402F090BE2BE0FF0E
:10BE800078ADE2B507A690BF13E0F218E290BF23A9
:01BE9000F0C1
:10BE91009000FEE0FF75F06FA42413F582E5F03405
:10BEA100C9F583EF2583AF82FE12E61D90BC0374B2
:10BEB10004F07851E2FF08E290BC1ECFF0A3EFF04E
:10BEC100785AE290BC27F090B86E7402F0A374D84F
:10BED100F090BE1AE04401F090B403E04480F078A1
:10BEE100627404F2904E36E014FF12ACE490BC028E
:0EBEF100E05401FF9000FBE04F90BC02F022F5
:10D789007862E2FF64076051EF640560077E4E7FAF
:10D799000012E61D90BC037420F07851E2FF08E204
:10D7A90090BC1ECFF0A3EFF0785AE290BC27F0901E
:10D7B900B86E740CF0A374D0F090BE1AE054FEF069
:10D7C90090B403E0547FF0E490B853F0904E03E036
:10D7D90090B81FF078627407F29000EBE0FCA3E0C8
:10D7E900FDA3E0FEA3E0FF90BE001206CD90BE129D
:0DD7F900E04404F09000F8E090BC13F02232
