:020000040000FA
:10281200FF00210200000000FF1E75000000000002
:10282200FFA92E0000000000FFD4C8010100000033
:10283200FFB00E0102000000FFE274010000000080
:10284200FF54D60101000000FF15A10100000000A5
:10285200FF76BD0202000000FF608202030000005A
:10286200FFA3540204000000FF796102030000008C
:10287200FF8C4B0203000000FFAEC6020400000002
:10288200FFF6940204000000FF0021020000000095
:0100190022C4
:01001A0022C3
:01001E0022BF
:01001F0022BE
:0100200022BD
:0100210022BC
:08171D008F438D448A458B4681
:10172500E54645457003021890903F4BE07002A3D3
:03173500E070233E
:101738001220D5904B90EEF0A3EFF0904B90E0FC88
:10174800A3E0FD2404F582E43CF5837401F07F07EF
:031758001220A2BA
:10175B00AB47AD44AF43121411903F4BE0FFA3E0F6
:10176B00904B92CFF0A3EFF0E4A3F0A3F0904B9249
:10177B00E0FEA3E0FF4E60458F828E83A3A3E0FEC5
:10178B00A3E0FFC39546EE95455032904B92E0FC9B
:10179B00A3E0FDC3E5469FF546E5459EF545A3EC65
:1017AB00F0A3EDF0904B92E0FEA3E0F5828E83E088
:1017BB00FFA3E0904B92CFF0A3EFF080B0903FBD32
:1017CB00E0FEA3E0FFF5828E83A3A3E545F0A3E53E
:1017DB0046F0EF2404F582E43EF583E547F0EF2471
:1017EB0005F582E43EF583E543F0EF2406F582E44C
:1017FB003EF583E544F0904B94E0FEA3E0FF4E7082
:10180B0011903FBDE0FDA3E0903F4BCDF0A3EDF079
:10181B008010903FBDE0FDA3E08F828E83CDF0A3BF
:10182B00EDF0903FBDE0FEA3E0FFF5828E83E0FD7F
:10183B00A3E0904B94CDF0A3EDF0904B92E0FCA382
:10184B00E0FD8F828E83ECF0A3EDF0F5828C83A309
:10185B00A3C083C082C3A3E09546FF0582D5820255
:10186B0015831582E09545D082D083F0A3EFF090DD
:10187B004B94E0FEA3E0FF903FBDEEF0A3EFF04EE4
:05188B00700312331789
:011890002235
:04141100AA07A90578
:10141500903F4BE0FDA3E0904BFDCDF0A3EDF0E454
:10142500A3F0A3F0904BFDE0FCA3E0FD4C7003029C
:1014350015A0ED2404F582E43CF583E06B6003021E
:10144500157F904BFDE0A3E02406F582E43CF5838F
:10145500E069600302157FED2405F582E43CF58320
:10146500E06A6007EAF4600302155E904BFDE0FC5C
:10147500A3E0FDF5828C83E0F8A3E0F5828883453F
:1014850083601F8D828C83A3A3E0FEA3E0FF8D8282
:101495008C83E0FCA3E0F5828C83A3A3EE8FF0128E
:1014A50004A8904BFFE07002A3E0704D904BFDE067
:1014B500FEA3E0FFF5828E83E0FDA3E0903F4BCDD8
:1014C500F0A3EDF0903FBDE0FDA3E08F828E83CDCC
:1014D500F0A3EDF0904BFDE0FFA3E0903FBDCFF012
:1014E500A3EFF0903F4BE0FFA3E0904BFDCFF0A3BF
:1014F500EFF0E4A3F0A3F08058904BFDE0FEA3E0ED
:10150500F5828E83E0FEA3E0FF904BFFE0FCA3E0B5
:10151500F5828C83EEF0A3EFF0903FBDE0FEA3E0F3
:10152500FF904BFDE0FCA3E0FDF5828C83EEF0A37C
:10153500EFF0903FBDECF0A3EDF0904BFFE0FEA384
:10154500E0F5828E83E0FFA3E0904BFDCFF0A3EFA3
:10155500F0EAF4700302142922904BFDE0FEA3E0AB
:10156500FFA3EEF0A3EFF0F5828E83E0FFA3E090FA
:101575004BFDCFF0A3EFF0021429904BFDE0FEA345
:10158500E0FFA3EEF0A3EFF0F5828E83E0FFA3E08A
:0B159500904BFDCFF0A3EFF0021429F3
:0115A0002228
:1015A1008E338F348F828E83E5822404F582E43575
:1015B10083F583E024FE601F1470030216BA1470D1
:1015C100030216F02403600302171C7B007A04E473
:0715D100FD7F0212214C22F4
:1015D800903F4BE0FEA3E0FF4E70030216A48F82FB
:1015E8008E83A3A374FFF5F01204A8903F4BE0FE8E
:1015F800A3E0F5828E83A3A3E0FEA3E04E6003027E
:1016080016A41220D58E338F34903F4BE0FEA3E012
:10161800FF2405F582E43EF583E0FDE5342404F576
:1016280082E43533F583EDF0EF2406F582E43EF5E8
:1016380083E0FFE5342405F582E43533F583EFF0E4
:10164800903F4BE0FEA3E02404F582E43EF583E0FE
:10165800FFAD34AC331220A2903F4BE0FEA3E0FF75
:10166800F5828E83E0FCA3E08C35F536903FBDE033
:10167800FDA3E08F828E83CDF0A3EDF0903F4BE089
:10168800FFA3E0903FBDCFF0A3EFF0903F4BE535CF
:10169800F0A3E536F0453560030215F3903F4BE0C3
:1016A8007002A3E0606E7B007A04E4FD7F021221E1
:0116B8004CE5
:1016B90022E5342406FFE43533FAA9077B019000BB
:1016C900011203CCFF9000021203CCFD900003121B
:1016D90004D4FBAAF0E5342406F582E43533F58316
:1016E900E0F54712171D22E5342406FFE43533FAE5
:1016F900A9077B019000011203CCFF90000212039D
:10170900CCFDE5342406FBE435338B82F583E0FB1D
:041719001214112273
:0E2C37008F648D658A668B67E567456660541D
:102C45001220E6904C92EEF0FCA3EFF0FD904C9232
:102C5500E0FEA3E0FF2404F582E43EF5837403F06F
:102C6500EF2406FFE43EFE8F82F583E568F0AA06B1
:102C7500A9077B01900001E56412043E900002E57E
:102C85006512043E900003E5668567F012050C7F2A
:042C9500071220A260
:012C99002218
:062EBC008F5F8D608B6149
:102EC2001220E6904C7CEEF0FCA3EFF0FD904C7CDF
:102ED200E0FEA3E0FF2404F582E43EF5837404F0EF
:102EE200EF2406FFE43EFE8F82F583E561F0AA0639
:102EF200A9077B01900001E55F12043E900002E504
:092F02006012043E7F071220A2B8
:012F0B0022A3
:022990008F4373
:10299200E5437003FEFF229037F4E0C39543F090C5
:1029A2001DF3E0F544854345E544C394D05050748B
:1029B200232544F582E4341DF583E0703B1545E59B
:1029C200457038C3E544954304F5442423F582E475
:1029D200341DAF82FEAB43AD4312386D901DF3E060
:1029E200B544032543F075F020E544A424F4F582B0
:1029F200E5F0341DAF82FE22854345054480A912CD
:052A0200336BE4FEFF50
:012A070022AC
:102E6B00EF4E604CC3EF94F4FFEE941DFEEF78052C
:102E7B00CEC313CE13D8F9F543C394D05032742379
:102E8B002543F582E4341DF583E0FB9037F4E02B0A
:102E9B00F074232543F582E4341DAF82FEE4FD126A
:102EAB00386D901DF3E0FFE543C39F5003E543F0FE
:012EBB0022F4
:10329600EF541FD39400E49400400FEF7805CEC39B
:1032A60013CE13D8F904F568800CEF7805CEC31356
:0B32B600CE13D8F9F568AF681232EDB6
:0132C10022EA
:100F6F0078A6E6FE08E6FFF5828E83A3A3A3E0FC36
:100F7F00A3E0FD78BDECF208EDF2C2AF8F828E8355
:100F8F007405F078A6E6FE08E68E832408F582E461
:100F9F003583F583E0FEA3E018A60608F6D2AFED81
:030FAF004C70394A
:100FB2001220D578BBEEF208EFF22404F582E43E6B
:100FC200F5837403F0EF2405F582E43EF5837401A2
:100FD200F018E2FC08E2FD7F0E1220A27E907F0054
:090FE20078BD7490F2087400F26D
:100FEB00C2AF90D783E004F0D2AF78BDE2FE08E247
:010FFB00FFF6
:010FFC0022D2
:1033BF007814E2FE08E2FF8E2FF530452F60158F4F
:1033CF00828E83E0FEA3E0FF18EEF208EFF24E705C
:0833DF0003123341AE2FAF30A1
:0133E70022C3
:1033E8007810E2FE08E2FF8E2FF530452F60158F2A
:1033F800828E83E0FEA3E0FF18EEF208EFF24E7033
:0834080003123341AE2FAF3077
:013410002299
:103411007812E2FE08E2FF8E2FF530452F60158FFE
:10342100828E83E0FEA3E0FF18EEF208EFF24E7009
:0834310003123341AE2FAF304E
:013439002270
:10343A007816E2FE08E2FF8E2FF530452F60158FD1
:10344A00828E83E0FEA3E0FF18EEF208EFF24E70E0
:08345A0003123341AE2FAF3025
:013462002247
:102E1100300A1B782FE569F27825E2FE08E2F58297
:102E21008E83E0FFA3E07829CFF208EFF222300988
:102E31001B781BE56AF2782CE2FE08E2F5828E83AC
:102E4100E0FFA3E07819CFF208EFF22230081A78F8
:102E510022E56CF2781CE2FE08E2F5828E83E0FF47
:0A2E6100A3E07820CFF208EFF22280
:102B61008F828E83A3A3E024FE602014603314605F
:102B710046240370577816E2FD08E28F828E83CDDA
:102B8100F0A3EDF018EEF208EFF2227812E2FD0860
:102B9100E28F828E83CDF0A3EDF018EEF208EFF212
:102BA100227810E2FD08E28F828E83CDF0A3EDF052
:102BB10018EEF208EFF2227814E2FD08E28F828E1D
:0D2BC10083CDF0A3EDF018EEF208EFF22244
:043079008E2F8F30D7
:10307D008F828E83E0FEA3E0FF4E700D853082853A
:10308D002F83ECF0A3EDF0801B8F828E83E0FAA3EB
:10309D00E0FB4A6006AE02AF0380EE8F828E83ECBA
:0C30AD00F0A3EDF08D828C83E4F0A3F022
:0130B90022F4
:103528008F828E83E0FCA3E0FDFBAA044A60118D24
:10353800828C83E0FDA3E08F828E83CDF0A3EDF033
:04354800AE02AF031D
:01354C00225C
:0839B80000014343C7C7C7C764
:0A38A100E4F56BF569F56AF56C2299
:101F9800C2AFE56B70030220999039B893F52130F0
:101FA8000A4C7825E2FE08E2FFF5828E83A3A3A3FC
:101FB800E0782BF2E4782FF2D2AF782BE2FD3333BE
:101FC8003354F8FD90281693F5A574122DF582E484
:101FD8003428F583E493740193FA740293F5828AA2
:101FE800831207E8E4F5A5C2AF12211980A43009CD
:101FF8004D782CE2FE08E2FFF5828E83A3A3A3E0CE
:10200800782BF2E4781BF2D2AF782BE2FD3333332E
:1020180054F8FD90281693F5A574122DF582E43432
:1020280028F583E493740193FA740293F5828A8302
:102038001207E8E4F5A5C2AF12212A021F9A200868
:1020480003021F9A781CE2FE08E2FFF5828E83A342
:10205800A3A3E0782BF2E47822F2D2AF782BE2FD4A
:1020680033333354F8FD90281693F5A574122DF5E3
:1020780082E43428F583E493740193FA740293F5A7
:10208800828A831207E8E4F5A5C2AF12213B021F3A
:0A2098009AE4782BF2F521D2AF2272
:10253700C2AF782BE27818F27824E521F2E56BD365
:10254700940150030226007E00E56B54FE24B8F583
:1025570082EE3439F583E493F521300A4C7825E28D
:10256700FE08E2FFF5828E83A3A3A3E0782BF2E4B3
:10257700782FF2D2AF782BE2FD33333354F8FD9046
:10258700281693F5A574122DF582E43428F583E413
:1025970093740193FA740293F5828A831207E8E42D
:1025A700F5A5C2AF1221198094300991782CE2FE6B
:1025B70008E2FFF5828E83A3A3A3E0782BF2E478E9
:1025C7001BF2D2AF782BE2FD33333354F8FD90285A
:1025D7001693F5A574122DF582E43428F583E49358
:1025E700740193FA740293F5828A831207E8E4F57B
:1025F700A5C2AF12212A0225447818E2782BF27877
:0726070024E2F521D2AF220D
:102AF000C2AF782BE27823F2782EE521F2E56BD392
:102B00009403404F7521C77825E2FE08E2FFF58265
:102B10008E83A3A3A3E0782BF2E4782FF2D2AF78D0
:102B20002BE2FD33333354F8FD90281693F5A5744A
:102B3000122DF582E43428F583E493740193FA743A
:102B40000293F5828A831207E8E4F5A5C2AF122149
:102B50001980AA7823E2782BF2782EE2F521D2AF01
:012B60002252
:10312E00D56903536BFB782FE270197825E2FE0800
:10313E00E2FFF5828E83E0FDA3E07829CDF208ED63
:10314E00F2122B61E4782FF27829E2FF08E278255B
:06315E00CFF208EFF2229F
:10316400D56A03536BFD781BE27019782CE2FE08D4
:10317400E2FFF5828E83E0FDA3E07819CDF208ED3D
:10318400F2122B61E4781BF27819E2FF08E2782C42
:06319400CFF208EFF22269
:10319A00D56C03536BFE7822E27019781CE2FE08A4
:1031AA00E2FFF5828E83E0FDA3E07820CDF208ED00
:1031BA00F2122B61E47822F27820E2FF08E2781C0E
:0631CA00CFF208EFF22233
:101C2D008F2F8D308A318B32E53245317003021D95
:101C3D0050782BE2FBAD30AF2F1219CE7839E2FE82
:101C4D0008E28E6DF56EE4F56FF5707835E2FE08FD
:101C5D00E22532F532EE3531F531E56E456D603602
:101C6D00856E82856D83A3A3E0FEA3E0FFC395324D
:101C7D00EE95315021C3E5329FF532E5319EF531B8
:101C8D00856D6F856E70856E82856D83E0FEA3E038
:101C9D008E6DF56E80C47833E2FE08E2FFF5828E1C
:101CAD0083A3A3E531F0A3E532F0782BE2FDEF2419
:101CBD0004F582E43EF583EDF07833E2FE08E2FFB1
:101CCD002405F582E43EF583E52FF0EF2406F58239
:101CDD00E43EF583E530F0E570456F70097839EE37
:101CED00F208EFF2800B857082856F83EEF0A3EF23
:101CFD00F07833E2FE08E2FFF5828E83E0FCA3E08C
:101D0D008C6FF5708F828E83E56DF0A3E56EF0F527
:101D1D0082856D83A3A3C083C082C3A3E09532FFE8
:101D2D000582D5820215831582E09531D082D0834C
:101D3D00F0A3EFF018E56FF208E570F2456F700350
:041D4D001233172214
:1019CE00AA07A9057839E2FC08E28C6DF56EE4F5FC
:1019DE006FF570E56E456D7003021AFEE56E240418
:1019EE00F582E4356DF583E06B6003021AE7E56E70
:1019FE002406F582E4356DF583E0696003021AE78B
:101A0E00E56E2405F582E4356DF583E06A6007EA3C
:101A1E00F46003021AD0856E82856D83E0FCA3E02C
:101A2E00FD4C6019856D83856E82A3A3E0FEA3E055
:101A3E00FF8D828C83A3A3EE8FF01204A8E5704570
:101A4E006F703B856E82856D83E0FFA3E07839CFA2
:101A5E00F208EFF27833E2FF08E2856E82856D833D
:101A6E00CFF0A3EFF018E56DF208E56EF27839E2EB
:101A7E00FE08E28E6DF56EE4F56FF570803C856EB6
:101A8E0082856D83E0FFA3E0857082856F83CFF042
:101A9E00A3EFF07833E2FF08E2856E82856D83CF87
:101AAE00F0A3EFF018E56DF208E56EF28570828511
:101ABE006F83E0FEA3E08E6DF56EEAF470030219FB
:101ACE00E122856D6F856E70856E82856D83E0FE79
:101ADE00A3E08E6DF56E0219E1856D6F856E7085D2
:101AEE006E82856D83E0FEA3E08E6DF56E0219E1C8
:011AFE0022C5
:102912007836E22FF218E23EF27832E2706F7839BE
:10292200E2FE08E2FF4E605F8F828E83A3A3E0FE89
:10293200A3E0FF7835E2FC08E2FDD3EF9DEE9C5068
:102942001108E2FC08E2FD7F011221A17832740134
:10295200F2227839E2FE08E2F5828E83A3A3C083D5
:10296200C0827835E2FE08E2FFC3A3E09FFF058242
:10297200D5820215831582E09ED082D083F0A3EF28
:0E298200F0E418F208F222E47835F208F222AE
:041E75008E488F49BB
:101E79008F828E83E5822404F582E43583F583E03D
:101E89006003021F977839E2FE08E2F5828E83A388
:101E9900A3E0FEA3E0FF7835E2FC08E2FDD3EF9D65
:101EA900EE9C4003021F581220D58E488F4978397D
:101EB900E2FE08E2FF2405F582E43EF583E0FDE554
:101EC900492404F582E43548F583EDF0EF2406F55D
:101ED90082E43EF583E0FFE5492405F582E43548CF
:101EE900F583EFF018E2FE08E22404F582E43EF5FA
:101EF90083E0FFAD49AC481220A27839E2FE08E23E
:101F0900FFF5828E83A3A3E0FCA3E0FDC37836E24C
:101F19009DF218E29CF28F828E83E0FEA3E0FF78A7
:101F290033E2FC08E2FD7839E2FA08E2FBF5828A3D
:101F390083ECF0A3EDF07833EAF208EBF27839EEAE
:101F4900F208EFF24E6003021E8E7835F208F2783D
:101F590035E2FE08E2FF4E602E7839E2FC08E2F530
:101F6900828C83A3A3C083C082C3A3E09FFF0582A1
:101F7900D5820215831582E09ED082D083F0A3EF2B
:0E1F8900F0E47835F208F2E47832F21220B378
:011F97002227
:1021A1008D828C83A3A3A3EFF033333354F89028AB
:1021B1001593146054147003022251240260030227
:1021C1002297E56970107825ECF208EDF27827EC9A
:1021D100F208EDF280257827E2FE08E2F5828E838F
:1021E100ECF0A3EDF018ECF208EDF2782FE2B40177
:1021F1000A7402F27829ECF208EDF20569436B04E6
:102201008D828C83E4F0A3F022E56A7010782CECC7
:10221100F208EDF27830ECF208EDF280257830E248
:10222100FE08E2F5828E83ECF0A3EDF018ECF208E3
:10223100EDF2781BE2B4010A7402F27819ECF208AB
:10224100EDF2056A436B028D828C83E4F0A3F022E8
:10225100E56C7010781CECF208EDF2781EECF208D7
:10226100EDF28025781EE2FE08E2F5828E83ECF025
:10227100A3EDF018ECF208EDF27822E2B4010A7451
:1022810002F27820ECF208EDF2056C436B018D82CD
:072291008C83E4F0A3F022AE
:10379400E4901DF3F0FF7FD0901D23E4F0A3DFFC41
:0637A4009037F474D0F030
:0137AA0022FC
:10189100781474C4F208745CF2E4FF75F00AEFA4E2
:1018A1002466F582E5F034C4AD82FC75F00AEFA43C
:1018B100245CF582E5F034C4F583ECF0A3EDF0751A
:1018C100F00AEFA4245EF582E5F034C4F5837404D4
:1018D100F00FBF3FC6E490C6D2F0A3F0A37404F0AA
:1018E100781074C0F2087400F2E4FF75F00EEFA4F2
:1018F100240EF582E5F034C0AD82FC75F00EEFA444
:101901002400F582E5F034C0F583ECF0A3EDF07529
:10191100F00EEFA42402F582E5F034C0F5837403E0
:10192100F00FBF3FC6E490C372F0A3F0A37403F0BD
:10193100781274C3F2087480F2E4FFEF75F016A414
:101941002496F582E434C3AD82FCEF75F016A4242D
:1019510080F582E434C3F583ECF0A3EDF0EF75F08C
:1019610016A42482F582E434C3F5837402F00FBF18
:1019710009C9E490C446F0A3F0A37402F078167488
:10198100C6F20874DCF2E4FF75F046EFA42422F5F8
:1019910082E5F034C7AD82FC75F046EFA424DCF596
:1019A10082E5F034C6F583ECF0A3EDF075F046EF77
:1019B100A424DEF582E5F034C6F5837401F00FBF8F
:0C19C10007C6E490C8C6F0A3F0A304F031
:0119CD0022F7
:102DB600E4FFEF75F007A42415F582E434CEAD8266
:102DC600FCEF75F007A4240EF582E434CEF583EC0F
:102DD600F0A3EDF00FBF13DAE490CE93F0A3F078F2
:102DE6003374CEF208740EF2E47839F208F27832CF
:102DF600F27835F208F21220D57837EEF208EFF2C3
:0A2E06002404F582E43EF583E4F0B5
:012E1000229F
:102F0C00E4904C2EF0904C2EE0FF75F007A4245466
:102F1C00F582E4343FAD82FCEF75F007A4244DF547
:102F2C0082E4343FF583ECF0A3EDF0904C2EE004FA
:052F3C00F0E0B40FD02D
:102F4100E4903FB6F0A3F0903FBD743FF0A3744D01
:092F5100F0E4903F4BF0A3F022E4
:1032ED00D20E122990C20E22D20E122E6BC20E22B7
:1032FD00D20E12CEF0C20E2202380D02381D02354A
:0A330D004D02363F02382D02383D14
:1033170090DB6C7402F0A3E5A5F0A37480F0AF8195
:10332700A807E6A3F0A37414F0E58114F8E6A3F068
:0A3337007CDB7D687F041220A222D7
:1033410090DB6C7402F0A3E5A5F0A37480F0AF816B
:10335100A807E6A3F0A37415F0E58114F8E6A3F03D
:0A3361007CDB7D687F041220A222AD
:10336B0090DB6C7402F0A3E5A5F0A37480F0AF8141
:10337B00A807E6A3F0A37417F0E58114F8E6A3F011
:0A338B007CDB7D687F041220A22283
:1000360090DB6C7402F0A3E5A5F0A37480F0AF81A9
:10004600A807E6A3F0A37416F0E58114F8E6A3F07A
:0D0056007CDB7D687F041220A2E4FEFF2207
:1036D100E51E2425F582E4351DF58322900440750D
:0936E100F003E55B120716E0227C
:100AED00E58E20E30690B8337401F090B825E054FC
:050AFD00FEF053A2F31E
:100B0200E4F557F558000000000000000000000066
:100B120000000558E55870020557B498E8E557B447
:020B220006E3E8
:100B2400D2A4D2A053A1EE00000000C205D20078E6
:100B34001FE6FF30E602800EEF30E704C2008011AA
:100B440020A40920A006D205C200800520A002C26C
:100B54000090A4F77481F0123305781FE620E32D8A
:100B6400E4904FEEF0A3F07E4F7FEE7B02FA7DEE31
:100B74007C0112330B904FEEE0B4AA0BA3E0B45502
:100B8400067DFF7FFF800E7D017F048008904ED696
:100B9400E0FFA3E0FD12330830050BE490BD03F041
:100BA40075A50112AC8B12122675A897E490B203B6
:100BB400F0121F9830002E75A50412C487904EB70A
:100BC400E06006E4F5A512EF99904EE5E06006E4D6
:100BD400F5A512C0F4904ECFE030E303129F4EE42B
:0E0BE400F5A5123887E4F5A512E4B0E4F5A5F6
:100BF20090BE2AE0FF90DB94E06F7003020CCF906E
:100C0200CC04E0FF64016008EF64026003020CC7D9
:100C120090BE2AE078BAF290BE29E018F2A3E0FF73
:100C220008E2B507EBE22401F218E23400F21236D0
:070C3200D1E07003020CC7C2
:100C3900C2AFE51E242A1236D5E0FFA3E078B5CF6E
:100C4900F208EFF2E51E24281236D5E0FFA3E008EA
:100C5900CFF208EFF2D2AF78B5E2FE08E2FFC3782F
:100C6900BAE29F79B6F318E29E19F378B7E2FE0863
:100C7900E2FFD378B6E29F18E29E4042E4251EF5D2
:100C890082E51D3401F5837408F01236D1E4F012BF
:100C990020D5904C2BEEF0A3EFF02404F582E43E2E
:100CA900F5837404F0EF2405F582E43EF583E51C31
:0E0CB900F0904C2BE0FCA3E0FD7F061220A281
:080CC70090BE2AE090DB94F0DE
:100CCF00904E1EE030E00975A50112E700E4F5A58E
:100CDF00E490BD0CF0E56B6003020BB5F5A5904EEB
:100CEF00B5E030E00312EE19E4F5A5904E46E0545E
:030CFF000F60146F
:100D0200E4F5A512D2F1904C2DEFF0E4F5A5EF60D9
:040D120003020BB518
:100D1600904E46E054F07003020BB5E56B6003029B
:0F0D26000BB5E58754FC4401F5870000020BB5BF
:10122600E4F5A8781FE620E352E4904FEEF0A3F031
:10123600904E1BF07E4E7F007BF07A01FDFC123350
:101246000B7E377FF57BC27A007D307C0312330B31
:10125600904E1CE090DB95F0904FEEE064AA70048F
:10126600A3E06455601575A5017E4E7F007C407D28
:10127600007BF07A01123572E4F5A590CBED740689
:10128600F0E4F5A51280F0EF600675A50112AC8BAF
:10129600E4F5A520000B904E217403F0758E0180B5
:1012A60006904E20E0F58E12374C1218911238A196
:1012B600122DB6122F0C123794E4F5A512DDA0E418
:1012C600F5A5F5A51238D3E4F5A5781FE630E20DAD
:1012D6001213E58F82F5837410F0121405781FE659
:1012E600543060101213E58F82F5837410F0781F66
:1012F600E6121405781FE630E3441220D58E598F86
:101306005A8F828E83E5822404F582E43583F58341
:101316007402F0EF2406FFE43EFE8F82F583740E1E
:10132600F0A3E4F08F828E83A3A37403F08F828EE2
:1013360083A3A3A3F0AD5AAC597F041220A23000B8
:101346001412393712392312392D1238E712391986
:101356001238F18006781FE654C0F61238BF1238EC
:10136600AB1238C91238B512EF85C288C28AE4902A
:10137600BD13F090BD03F090BD1B740FF090BD0A35
:10138600743DF0A37409F090BD037401F0E490BDC0
:0B1396000CF075A50112E6EDE4F5A5D2
:1013A1007E047F407B29FA7DF67C0212330B900488
:1013B10067E0FEA3E064557003EE64AA7025F55B57
:1013C1001236DDFEA3E04E60139004421236E0FFB8
:1013D1001236DDFCA3E0F5828C83EFF0055BE55B63
:0313E100B40DDD6B
:1013E400221220D58E598F5A8F828E83E58224044F
:1013F400F582E43583F5837402F0EF2406FFE43EBE
:0D14040022A3F0AD5AAC597F041220A222A1
:1037AB0090D5F1E02473F582E434D6F583EFF090F5
:0637BB00D5F1E004F0224C
:03000000021AFFE2
:03003300021E6545
:03000300021D518A
:03000B00021E666C
:03001300021D9239
:03001B00021E744E
:03002300021E3B7F
:03002B00021E733F
:03006300021E7406
:101D5100C0D0C0E030361153A4DF90B203E0547F0D
:101D6100F090B207E020E7F9C0F0C092C083C082D2
:101D7100C085C08475D008759200121013300F41D0
:101D8100D084D085D082D083D092D0F0D0E0D0D092
:101D910032C0D0C0E0C0F0C092C083C082C085C054
:101DA1008475D00875920012384D200503300E114C
:101DB100D084D085D082D083D092D0F0D0E0D0D062
:011DC10032EF
:101DC20075D000C0A5C000C001C002C003C004C0DD
:101DD20005C006C00775A500200E2F74E6C0E0748A
:101DE2001DC0E032122537D007D006D005D004D06E
:101DF20003D002D001D000D0A5D084D085D082D02B
:101E020083D092D0F0D0E0D0D0227415C0E0741EFE
:101E1200C0E032122AF0D007D006D005D004D00399
:101E2200D002D001D000D0A5D084D085D082D0837A
:091E3200D092D0F0D0E0D0D02213
:101E3B00C0D0C0E0C0F0C092C083C082C085C08457
:101E4B0075D008759200122892D084D085D082D09C
:0A1E5B0083D092D0F0D0E0D0D03256
:101E650032C000C0E0C0D0D0D0D0E0D00032323295
:1020A200748055A870030221A1C2AF1221A1D2AF40
:1020B20022748055A87003022E11C2AF122E11D2C3
:1020C200AF22748055A87003022B61C2AF122B613C
:1020D200D2AF22748055A870030233BFC2AF12334D
:1020E200BFD2AF22748055A870030233E8C2AF1288
:1020F20033E8D2AF22748055A87003023411C2AF04
:10210200123411D2AF22748055A8700302343AC23D
:10211200AF12343AD2AF22748055A8700302312E26
:10212200C2AF12312ED2AF22748055A87003023191
:1021320064C2AF123164D2AF22748055A870030218
:10214200319AC2AF12319AD2AF22748055A870036D
:10215200021C2DC2AF121C2DD2AF22748055A87062
:10216200030219CEC2AF1219CED2AF22748055A883
:102172007003022912C2AF122912D2AF2274805503
:10218200A87003023079C2AF123079D2AF227480C4
:0F21920055A87003023528C2AF123528D2AF22EC
:03000E00021B30A2
:03001600021AFFCC
:0939AF00740EC0E07400C0E032A7
:101AFF0043A110D2A4C2A490BD147401F0E4F0006D
:101B0F0000000000000000000090BF00E4F090A46F
:101B1F00F4E04480F090BD10E05407781FF6752074
:101B2F000043A110D2A4C2A4D2A4C2A490BF00E4C7
:101B3F00F090BD18740FF090BD007401F090BF00CD
:101B4F007403F075A50075D00078FF79DFE4F618FF
:101B5F00D9FC781EF6D8FD75A4045387DFC2A053B5
:101B6F00A3FE75A70078007F00E4F208DFFC900168
:101B7F00007F007E4DE4F0A3DFFCDEFA90C0007F13
:101B8F00007E40E4F0A3DFFCDEFA757300900000E6
:0E1B9F0078107455F0A3D8FC7581FF021BE886
:1035FE00904E00E090B803F0904E01E090B802F0CB
:10360E00904E02E090B801F0904E03E090B800F0BA
:01361E002289
:103FC000C2AF90BD03E4F00000438E08F80000008B
:033FD00002000EDE
:103FE000C2AF90BD03E4F00000538EF7F80000006C
:033FF00002000EBE
:1036EA008E858F848C838D82EB600DE493A3759213
:0936FA0001F0A3759200DBF3223C
:103572008E858F848C838D82EA7003EB6015EB60FD
:1035820003EA04FAE493A3759201F0A3759200DBB7
:04359200F3DAF12255
:0D386D008E838F82EB6005EDF0A3DBFB2264
:10371C008E838F82EA7003EB600DEB6003EA04FA90
:08372C00EDF0A3DBFBDAF9224A
:10361F008E858F848C838D82AF031BEF6010E0A3A8
:10362F00FF759201E0A37592006F60ECD322C32265
:103734008E858F848C838D82EB600CE0A37592015F
:08374400F0A3759200DBF422F2
:103395008E858F848C838D82EB601EE0FFA3E0FE1B
:1033A500A3E0FDA3E0A3759201F0A3EDF0A3EEF079
:0A33B500A3EFF0A3759200DBE22203
:103596008E858F848C838D82EA7003EB6014EB60DA
:1035A60003EA04FAE0A3759201F0A3759200DBF436
:0335B600DAF22224
:10365F008E858F848C838D82EB60121BE493A3FF86
:0F366F00759201E0A37592006F60EDD322C32224
:1032C200D310AF01C3C0D0EFF5E9EDF5EDEEF5EAAD
:1032D200ECF5EE7402140070FC00E5E9FFE5EAFE8D
:0B32E200E5EBFDE5ECFCD0D092AF2244
:10346300D310AF01C3C0D0EFF5E9EEF5EAEDF5ED0A
:10347300ECF5EE7402140070FCE5E9FFE5EAFEE505
:08348300EDE5EED0D092AF227E
:1031D000D310AF01C3C0D0EDF5E9ECF5EAEFF5EBA4
:1031E000EEF5ECEBF5EDEAF5EE7404140070FCE599
:1031F000E9FFE5EAFEE5EBFDE5ECFCE5EDE5EED00B
:04320000D092AF2297
:10348B00D310AF01C3C0D0EFF5E9EEF5EAEDF5EDE2
:10349B00ECF5EE7402140070FCE5E9E5EAE5EDFFEE
:0834AB00E5EEFED0D092AF2245
:10323700D310AF01C3C0D0EDF5E9ECF5EAEFF5EB3C
:10324700EEF5ECEBF5EDEAF5EE7404140070FCE531
:10325700E9E5EAE5EBE5ECE5EDFFE5EEFED0D0923A
:02326700AF2294
:102A08008E858F848C838D82EB22E0FFA3E0FEA36A
:102A1800E0FDA3E0FCA375920122122A08601F12B0
:102A28002A12F0A3DB028016EDF0A3DB02800FEE82
:102A3800F0A3DB028008EFF0A3759200DBE175924A
:102A48000022122A08602B122A12EBC394044002B7
:102A5800ECF0A3EBC394034002EDF0A3EBC39402A4
:102A68004002EEF0A3EFF0A3759200EBC39404FBD1
:062A780050D5759200220A
:1030BA00F582E43583F5837401F08F828E83E5828D
:1030CA00222424F582E5833401F58322F582E4354E
:1030DA0083F5832224E6F582E43EF5832278AFE67F
:0B30EA00FE08E622789CE2FE08E222CD
:1035DC00E490DAC6F090DAC7F090DAC8F0784DF2E1
:1035EC0008F290DAD3F090B403F090BC22E0547F50
:0235FC00F022BB
:10237E00C2AF90BE12E04403F0D2AF90CC08E0544E
:10238E00FCF0E4F51C751DC9751E0F785DF290B852
:10239E001BE04480F090B817E04404F0E490D0BB0A
:1023AE00F090D0BCF078787401F2087400F2E47802
:1023BE0055F2785B7404F2E4FFEF75F009A4247E05
:1023CE00F582E434CDF583E4F0EF75F009A424EC46
:1023DE00F582E434CCF583E4F00FBF10DC788AE2AA
:1023EE00541DF2788BE254A0F208E4F22000097535
:1023FE00A50112C932E4F5A5E490CCD9F090D0A392
:10240E00F0C22190BC23E054FDF07E147F2A90B6DA
:10241E000AEEF0A3EFF0783FEEF208EFF27E1C7FAB
:10242E005D90D77CEEF0A3EFF090B60EEEF0A3EF3A
:10243E00F0E490D783F090B807F090B805F090D004
:10244E0091F090D090F090D0A5F090D0A4F0C21959
:01245E00225B
:040D35008F418D421B
:100D3900E4789EF208E5A5F275F06FEF90C90F12FD
:100D49000716EF2583AF82FE78AFF608EFF68E839C
:100D5900E0700FE54264026009E542640460030241
:100D69000F6EE542640B600D75A501AF4112D68E79
:100D7900E4F5A5C22375A501AF4112D3A3E4F5A5F6
:100D89001230E7F5828E83E030E50B75A501AF419E
:100D9900129C97E4F5A57B06AD417FFF12141190D3
:100DA900DAC6E0B401031235DCE541D39400401CF6
:100DB9001230E7FF8E831230CBE060101230C4127C
:100DC90030CBE4F090D8BFE0600214F0E54175F053
:100DD9000AA424BFF582E434D0AF82FE7B0AE4FD85
:100DE90012386D1230E78E8324651230CDE0540637
:100DF900604390CD7CE07002A3E06039E490DB8928
:100E0900F090DB8AF0A3F090DB8DF090DB8CF01290
:100E190020D5789CEEF208EFF224041230E0741920
:100E2900F0EF24051230E0E541F018E2FC08E2FD9C
:100E39007F081220A21230E7FF7B6F7A01E4FD12CE
:100E4900371C1230E7FF8E83241C1230D67404122B
:100E590030C3241F1230D6E4F0A374281230C324FF
:100E69000A1230D674081230C324151230BA24136A
:100E79001230BA24141230BA24171230BA242612A6
:100E890030D6747DF0A3E41230C324281230D6E49E
:100E9900F0A374FAF0904E36E014FF18E6FC08E669
:100EA900FD8C8324221230CDEFF08D828C83E58274
:100EB90024191230D674FFF0903FD4E0FF8D828C54
:100EC90083E58224171230CDEFF0785BE2B5410358
:100ED9007404F2E541C394015034C2AF90CC08E0E8
:100EE90054FEF0E542640B600790CC04E054FCF03A
:100EF900D2AF90D8C2E4F090CBFE1206E500000014
:100F090000E490CBFDF0788BE254EFF2803090CC86
:100F190008E054FDF0E542640B600BE020E0079027
:100F2900CC04E054FCF090D8BFE0701290D8AEF039
:100F390090BC22E0547FF0C221E490D903F090CE16
:100F49009DE0B541037402F090CC04E070081223CF
:100F59007E789E7401F2789EE260057F01122F5A15
:050F6900789FE2F5A5F0
:010F6E002260
:022298008F4174
:10229A00E4789EF208E5A5F275F0F3EF90394B1257
:1022AA000716AF82AE83789CEEF208EFF2E0700375
:1022BA0002237D1230EEFF24E71230E0E4F0EF1241
:1022CA0030DEE0FF30E70590D091800E1230EE123A
:1022DA0030DEE0FF30E60D90D090E0FEEFF4FFEE46
:1022EA005FF0801C90D0A5E0FF789CE2FC08E22415
:1022FA00E6F582E43CF583E0F4FEEF5E90D0A5F0CB
:10230A00E5414480F54275A501AF4112D68EE4F548
:01231A00A51D
:10231B0075A501AF4112D3A3E4F5A51230EEFF7BF7
:10232B00F37A00E4FD12371C90BF23E04440F0E445
:10233B007870F2786DF290CC08E054F3F090CC0406
:10234B00E054F3F0701112237EC24E90B433E0547C
:10235B00FCF0789E7401F2789EE26011903FCCE025
:10236B00700B90DBB0E060057F01122F5A789FE273
:02237B00F5A5C6
:01237D00223D
:0A38AB00E4F5A512EF59E4F5A5229B
:0A38B50075A50112E706E4F5A5224F
:05000600E47862F22223
:043204008F438D4423
:103208001220D5904C00EEF0A3EFF02404F582E4F0
:103218003EF583E543F0EF2405F582E43EF583E5CA
:0F32280044F0904C00E0FCA3E0FD7F020220A2E6
:1034DB0090BE27E0904B9BF090BE24120633904B8E
:1034EB00971206CD90BE27E0FF904B9BE0B507E00F
:0634FB00904B971206330E
:0135010022A7
:022F5A008F43A3
:102F5C007F0390CC04E07003D38001C34002E4FFF4
:102F6C0090DBB0E05207903FCCE0B50703EF702840
:102F7C00903FCCEFF01220D5904BFDEEF0A3EFF08C
:102F8C00904BFDE0FCA3E0FD2404F582E43CF583CA
:082F9C007445F07F051220A22C
:012FA400220A
:0839C000062420063900242032
:0A38BF0075A50212CDC6E4F5A5229E
:0230F5008F3D0D
:1030F70085A53EE4F5A5E53D701275A5017E4E7FD9
:10310700007C407D007BF07A01123572E53DB40406
:103117001275A5017E377FF57C447D907BC27A00CE
:06312700123572853EA581
:01312D00227F
:1037030085A53DE4F5A57E147F2A7C407DC97B1FFA
:083713007A01123572853DA513
:01371B00228B
:0C387A0085A54175A50212DE6A8541A5F6
:01388600221F
:0A38C90075A50112B04EE4F5A5222A
:10369B00E5A5F075A5012275F005A4240EF582E4CD
:0C36AB0034D9F58322EFF0A3E0F5A5224E
:102FEE0090D908E01236A2E0703B90D908E0FB754C
:102FFE00F005A42411F582E434D9F583EEF0A3EFA5
:10300E00F0EB75F005A4240FF582E434D9F583ECCA
:10301E00F0A3EDF0EB1236A27401F090D908E004A3
:06302E00F0E0540FF02257
:0C38870085A55975A50112C7ED8559A54E
:013893002212
:0F380D00904B7612369B12D13C904B76E0F5A58E
:01381C002289
:0F381D00904B7612369B12B537904B76E0F5A59F
:01382C002279
:0F382D00904B7712369B12A563904B761236B0F4
:01383C002269
:08363F008E718F72AF05AE041D
:1036470090DB9712369BAD03AC02AB72AA71129650
:07365700CA90DB961236B0A9
:01365E002249
:10354D0090DB9912369B7888ECF208EDF27884EADC
:10355D00F208EBF27886EEF208EFF212E27790DBEA
:04356D00981236B0CA
:013571002237
:0F383D0090DBAC12369B12758C90DBACE0F5A5DE
:01384C002259
:0A38D300E4F5A512BD2AE4F5A522D4
:10374C00759850758920E587547F4480F587758D71
:08375C00E6D28ED299C2982238
:0A38DD0075A501129853E4F5A52229
:1037C100E4F5A512EA75129AB412726E12D380E46E
:0337D100F5A52239
:1035B90090B001EFF0A3ECF0A3EDF090B005E0447A
:1035C90010F0E4904C1CF000904C1CE004F0E0B4C6
:0235D9000AF5F1
:0135DB0022CD
:10100000353035305F535050000000000000202480
:03101000000200DB
:0A38E70075A50312D956E4F5A522D9
:0A38F10075A50312AB88E4F5A522CB
:0A38FB0075A50312AA4575A5042265
:0939050075A50312B03675A50486
:01390E002296
:0A390F0075A503129CB875A50422EB
:0A39190075A50312CEEAE4F5A5221D
:052D5A00904C5AEFF05F
:102D5F00E4A3F0904C5BE0FFC39401504775F06F14
:102D6F00EF90D151120716EF2583F583E0FF904CBA
:102D7F005AE0FEEFB50625A3E0FF75F06F90D15531
:102D8F00120716EF2583F583120633E4FBFAF9F8E1
:102D9F00C31205D86006904C5BE0FF22904C5BE0BD
:062DAF0004F080AF7FFF7D
:012DB50022FB
:102FA500904D74EEF0A3EFF0EB4A603C90A403E083
:102FB50020E1F9C2AFAF0590A406ECF0A3EFF0AFA6
:102FC5000390A40AEAF0A3EFF0904D74E0FFA3E0AC
:102FD50090A412CFF0A3EFF090A403E04402F0D246
:092FE500AF90A403E020E1F92201
:0A39230075A50412F67DE4F5A52257
:0A392D0075A50412F0E7E4F5A522E9
:10350200A31207228E827583001203CC6F22EE75FE
:10351200F04BA42427F582E4344A227B017A4F79C6
:06352200C7120742E4227B
:0A39370075A50412E0D2E4F5A52204
:0A394100E4F5A512E8CE75A50422F6
:10326900E4FE123510F583E0B50719EE75F04BA4AD
:10327900242AF582E4344AF583E030E00712351058
:0C328900AF82FE220EEEB401D9E4FEFF7D
:013295002216
:10367E0090A4B3EDF090A4B2EBF090A4B1EFF09063
:0D368E00A4B07480F090A4B0E020E7F92211
:10303400904C85EEF0FAA3EFF0FBA3ECF0FEA3EDC9
:02304400F0FF9B
:10304600A37401F0AD03AC02FB7A0012330EEF70ED
:103056001C904C85E0FEA3E0FFA3E0FAA3E0FB7D15
:10306600017C00123311EF7004904C89F0904C896A
:02307600E0FF79
:013078002235
:1037D400AB07AA06AE04AF05AC02AD037B017A00C9
:0337E40002330BA2
:0A394B0075A50312B58F75A50422BF
:1037E700904C79E5A5F075A50412E73A904C79E07D
:0237F700F5A536
:0137F90022AD
:1037FA00904C7CE5A5F075A50412E689904C7CE016
:02380A00F5A522
:01380C002299
:0C38940085A55E75A50412F23B855EA5BB
:0138A0002205
:0A39550075A50212FA6575A504229B
:0A395F0075A50212FAAF75A5042247
:0A39690075A50212450575A504229C
:0A39730075A5021260AF75A50422CD
:0A397D0075A502129FB275A5042281
:0A39870075A50412F23B75A502229B
:0A39910075A50412E68975A502224F
:0A399B0075A50412E73A75A5022293
:10277E00904C7E12351D904C7DF0904C7DE0FEC34A
:10278E009408500D1235026008904C7DE004F080E4
:10279E00E9904C7DE012075727C20027CC0127D6BF
:1027AE000227E00327EA0427F40527FE0628080778
:1027BE0000002811ED6003D38001C3928022ED60EA
:1027CE0003D38001C3928522ED6003D38001C392AF
:1027DE009722ED6003D38001C392B122ED6003D343
:1027EE008001C392B222ED6003D38001C392B32263
:1027FE00ED6003D38001C392B422ED6003D3800158
:03280E00C392B7BB
:0128110022A4
:102BCE00904C3912351D904C38F0904C38E0FEC3C5
:102BDE009408500D1235026008904C38E004F080D5
:102BEE00E9904C38E01207572C12002C16012C1AC3
:102BFE00022C1E032C22042C26052C2A062C2E0712
:102C0E0000002C34A280801AA2858016A297801212
:102C1E00A2B1800EA2B2800AA2B38006A2B4800234
:082C2E00A2B7E433FF227F028C
:012C3600227B
:0A39A500E4F5A512DDA075A50422CB
:109C3E0054F8FFE04F90B81BF0E054874410F090BA
:109C4E00B817E054074490FFE490B816F0A3EFF075
:109C5E002290BE2BE00490BA0BF090BA2B7402F057
:109C6E002290BE27E054FC440390BA03F090BA232E
:109C7E007401F02290B60A741CF0A37470F090B6C2
:109C8E000E741CF0A37482F0C21522F090BF2374E0
:109C9E0060F090BE23E04401F022E090CA33FF75DD
:109CAE00F06F120716EF2583F58322E025E0FFA360
:109CBE00E0C413131354014F22E4F51CF51C7EC9A6
:109CCE007F0F8E1D8F1E8E1D8F1E2290BE26E0F2E0
:109CDE00A3E054FC08F290CCE6E0FEA3E054FCFFB7
:109CEE0008EEF2FE08EFF222F090BE23E054FCF0F4
:109CFE002290B61A741CF0A3745EF022F582E4353D
:109D0E0083F583E4F08F828E832290CC08E04402A8
:109D1E00F0751C01751DCA751E7E2290BE27E004CB
:109D2E0090BA03F02290BE27E054FC2254FC25E0AA
:109D3E00FF901C6CE054074FF02290B85FE0640B6C
:109D4E002290B81BE0548722E05402FF90BC23E01F
:109D5E0054FD4F2290BF23E054FEF0229000EAE023
:109D6E00D39410229000EEE054FDF02290BF23E039
:109D7E004401F0E054E7F0224440F090BE1AE05463
:109D8E00FEF0229000EAE004F022D22F90BF23E0F2
:109D9E004418F02290BE27E00490BA0BF02290B83F
:109DAE001BE054F822E090B684F090B68EE022903C
:099DBE00BE08120633EF24022254
:10420000E4F54D90DBAEE0F54CE4F0C222788CE2B0
:104210004401F2A220B34003024A7F90C90EE02479
:10422000FE70030245181470030246E41470030282
:1042300048911460121470030243B4146003024ADC
:104240004412E9C3024A4AD2229000F9E0540D24F4
:10425000FB606924F8700302436C240C6003024382
:01426000AFAE
:1042610078A4129CD978A5E26F700318E26E7046AB
:1042710078A2E624FE6003024A4A124AB412DED54D
:10428100129CFF90B81BE090C910129C3E129D2910
:10429100E4FDFF12CEBF90CA33129D56129C7A786C
:1042A100477405F29000F9E04404F07F1A12E90125
:0842B1009000EA024641C2221E
:1042B900024A4A78A2E624FE601B24026003024AED
:1042C9004A12D1CD129C82129D334401129C641270
:1042D9009D62024A4A129D4860FB90BF43E020E07C
:1042E900099000EAE0D39402404212EF29124AA64B
:1042F90090CBFE1206E5000000009000FAE0FF12E4
:10430900DF3812EA1D90CC047401F0C211129D1815
:104319009000F9E04408F07F1012E901D222E490FC
:1043290000EAF090CA81E04490F0802C12D1CD12BD
:104339009CFF12DED590B81BE090CBFD129C3E127B
:104349009D33440390BA03F09000FAE0FFE4FD12B4
:10435900CEBF129C7B129D9178457405F27847F285
:10436900024A4A129D6A400E7F1912E90112E119A7
:10437900129CC7024A4A12E5FB129C9A9000FAE085
:1043890090C912129CACE04460F0C22275F06FEF44
:1043990090CA33129CB0E090D8D4F09000FA129CE5
:1043A900A8E4F002450DC222024A4AD2229000F145
:1043B900E0546D24FB700302444724F8700302445F
:1043C900B324E070030244BB24C070030244EC240C
:0643D9006C6003024513B5
:1043DF0078A8129CD978A8E2FC08E2FDC3EF9DFFF4
:1043EF00EE9CFED3EF9418EE9400504778ABE26D3D
:1043FF00700318E26C6003024A4A78A2E624FE704A
:10440F002A124A8090CCDAE0FFE4FD12CEBF90CCA6
:10441F00DA129CA8129D56129C679000F1E044049A
:10442F00F07F1D12E901E49000EAF078457408F27C
:05443F00024A4AC222FE
:10444400024A4A78A2E6602E24FE6003024A4A1217
:104454009D6A400B7F1B12E901751C01024A4A1236
:104464004A80E4FDFF12CEBF129C68129D6278451B
:064474007408F202450D80
:10447A00129D4860FBE0640460F6E0640560F19018
:10448A00BF43E0F54E20E203024A4A124AB412EE52
:10449A00C8129D334401129C7778477408F2129D22
:0644AA0098E49000EAF026
:1044B000024A4AE4FF12DF38024A4A12B4FC900072
:1044C000F1746DF090CC047402F090CC08E04401DB
:1044D000129C99C222129CC790CA33F090CBFDE087
:1044E00090C910F0129D91D219024A37129D6A406C
:1044F0001A7F1C12E90112EA1D129D1F90CA81E069
:1045000044F0F0E490C90EF0024A4AC222129D9192
:10451000024A4AC222024A4AD2229000FDE0540DC9
:1045200024FB700302464724F870030246DF240C84
:104530006003024A4A129CF778A2E614602D1460C8
:104540004A14604724036003024A4AE54C64016050
:1045500003024A4A129D29C21512BE2490BA23743E
:1045600002F0129D62784574038017E54C64026086
:1045700003024A4A129DA2C21512BE24129C6878F8
:104580004504F290DBAE14F0024A4A129D4860FBEB
:1045900090BF43E030E04CE54C6402704678A2E600
:1045A000B4020512ED3E800312EF2990BE241206DC
:1045B000339000EB1206CD129D729000F87401F05A
:1045C00012C8AE129C6F78477404F2129DAC129C14
:1045D0004612E222129CFF9000FDE04404F07F08A6
:1045E0000246D99000F6E030E12078A2E66403604C
:1045F00003024A4A9000FDE04410F0C222129CA03F
:10460000E490C90EF07F070246D912EEC878A2E600
:10461000B40217129D2912BE24129C7B78477403A2
:10462000F290DBAEE54CF0024A4A12E353129DA22F
:1046300012BE2490BA2B7401F078477403F290DB19
:10464000AE7401F0024A4A78A2E624FE60242402F5
:104650006003024A4A9000EEE04402F012C8AE1233
:104660009D33440190BA0BF0129C82129C687845ED
:1046700080299000F8E004F0129D4860FB90BF4252
:10468000E030E01D129D7212C8AE129CFF12E222B1
:10469000129DAC129C46129C6F78477404F2024A39
:1046A0004A90BF43E020E003024A4A129C9A12EF6C
:1046B0002912E5FB90CC047401F0C211124AA61233
:1046C0009D1890CA81E044F0F0E490CBA2F0C222A1
:1046D0009000FDE04408F07F1012E901024A4AC24E
:1046E00022024A4AD222129CF7E04401F078457433
:1046F00002F29000F4E0FF541924F7604F24F060B8
:104700005F24186003024786EF30E612129D7A900C
:1047100000F5E020E603129D86754D01806A78A2BF
:10472000E664027063754D0112D824129C5F9000FC
:10473000F4E04440F0903FCEE02401FB903FCDE018
:104740003400FAE4FD7F0F12214C803C903FC8E01A
:1047500060099000F5E04401F0802D9000F4802085
:104760009000F5E020E4217F0C12E901C2AF90BE79
:1047700012E04403F0D2AF788CE254FEF29000F5E0
:10478000E04410F08002C2229000F5E0FF5407FEE2
:10479000BE0109EF4402129CF6024A4AEE6403602D
:1047A00003024866129CF77857E2FF90BE27E06F3D
:1047B0006003024A4A129DACF0E0547FF090B81AB0
:1047C000E054FEF0E054FDF0903FF6E06025903FAD
:1047D000C8E0FDD394115008129D4F4418F0803664
:1047E000EDD39479129D4F50054450F080284470C9
:1047F000F08023903FC8E0FDD3941B5008129D4FDA
:104800004420F08011EDD394B7129D4F50054458C9
:10481000F080034478F090B817E054FC4402F0E0D4
:1048200054FBF0903FC8E075F008A4FF90B817E083
:104830005407FDED4FFFE5F0129C5778477409F2DD
:10484000901D11E0FFA3E090B61ACFF0A3EFF01295
:104850009D29E490B805F090BA2304F09000F5E0AB
:104860004404F0024A4A9000F5E0FD5407640760F2
:1048700003024A4A129CF790B85BE06003024A4A7E
:10488000ED54F89000F5F09000F4E04410F0024A86
:104890004AD2229000F6E0FF543D24FB606A24E8EF
:1048A00070030249E9241C6003024A40EF30E6121B
:1048B0009000F7E020E603129D86129D7A754D0167
:1048C000803E78A2E664027037754D0112DFFD125A
:1048D0009CF7E04401F0129C5F9000F6E04440F049
:1048E000904E06E070057B80FA800F903FD2E02466
:1048F00001FB903FD1E03400FAE4FD7F0F12214C20
:1049000078457406F2024A4A784AE2FDC378A2E684
:104910009D5403F54B64017051129D7290BE27E0C7
:10492000C39D1313543F049000F8F0E0FF6405703A
:10493000030249E2EFD3940540147F1312E901907A
:1049400000F67480129CF6E04401F00249E2129CE9
:104950008290B85BE0640C60F8E0640160F312D709
:10496000A790BE27129C620249E29000F8E06072B4
:10497000E58E54707005754F288003E4F54FE4F51B
:104980004EE54EC3954F500500054E80F4E54B644F
:10499000036004E54B704B90BF43E030E04490B8B7
:1049A0005FE0640560F8000090BF43E030E23090C3
:1049B000B82BE054786410702690BE27E07858F247
:1049C0009000EEE04402F012D7A712EEC890BE2786
:1049D000E004129C77129D9878457407F2800312C8
:0249E000EF29BD
:1049E20078457407F2806112B4FC90BE27E054034C
:1049F20078A2F69000F6E04420F090CC08E0440162
:104A0200F090CC047402F0129CC790CBFDE090C9E8
:104A120010129C9990CA33E4F012D1CD129D334406
:104A22000390BA0BF0783FE2FF08E290B60ACFF0AB
:104A3200A3EFF0D22290C912E04490F0800AC22281
:104A42008006788CE254FEF2302232E490B8BBF059
:104A5200E54D600B904E3A129DB34440F0800990B0
:104A62004E39129DB354BFF090BA23E020E0079074
:0D4A7200BA2BE030E00790B87BE054FCF078
:104A7F002212D1CD90BE27E054FC440390BA0BF024
:104A8F0090B60A741CF0A37470F090B60E741CF0FC
:104A9F00A37482F0C215227ECB7FF37C4E7D007B08
:104AAF000A1237342212D1CD904E36E0FF12AD02EA
:014ABF0022D4
:10E353009000EFE0B4FF239000FCE004F09000F3A2
:10E36300E0FF9000FCE0B5070C9000FBE06402F0D6
:10E37300E49000FCF0E49000EFF090BE27E0541C22
:10E383001313543FFF7401A807088002C333D8FC5A
:07E39300FF9000EFE04FF0E6
:01E39A002260
:10E2220012EF41129DBDF553E43EF552E43DF55126
:10E23200E43CF550E553129D3AE55225E0FFE553E3
:10E24200129CBFA3F0E55125E0FFE552129CBFA34B
:10E25200F0E55025E0541EFFE551129CBFFFA3E0FC
:10E2620054E04FF0903FC8E06007901C65E0440422
:01E27200F0BB
:01E273002288
:10DED50090BE17E04401F0E490DB2AF090CC05E019
:10DEE500FEA3E0FFC39438EE94015004EF4E701387
:10DEF500129DBDFFE43EFEE43DFDE43CFC90BE0802
:10DF05001206CD90BE0BE0129D3A90BE0A129CB946
:10DF1500901C6DF090BE09129CB9901C6EF090BEDD
:10DF250008E025E0541E129CBCFF901C6FE054E0F5
:03DF35004FF02288
:10DF380075F06FEF90C90F120716EF2583AF82FEB9
:10DF4800752220E4F525F5298E83E582241D129D8E
:10DF58000AE582241B129D0AE582241CF582E43519
:10DF680083F5837404F08F828E83E5822423F582FF
:10DF7800E43583F583E4F0A3F08F828E83E5822471
:10DF88001A129D0AA3A3F08F828E83A3A3A3E04451
:02DF980080F017
:01DF9A002264
:07EF850012C2C012000622B7
:10A92E008E488F498F828E83E5822404F582E4352A
:10A93E0083F583E024FE602B24FD603224F9605001
:10A94E0024FD605D24FA605D1460342416600302F9
:10A95E00AA7AE5492405F582E43548F583E0FF122D
:10A96E00E99422AF49AE4812B60A1220B322E54945
:10A97E002405F582E43548F583E0FF12DCC822E5B4
:10A98E00492405F582E43548F583E0FF128BCA228F
:10A99E00E5492405F582E43548F583E0FF12EDE73D
:10A9AE002212D13622E5492405F582E43548F58395
:10A9BE00E0FF75F06FA42412F582E5F034C9F5833B
:10A9CE00EF2583F583E030E11975F06FEFA424577E
:10A9DE00F582E5F034CAF583EF2583F583E0440173
:10A9EE00F022E5492405F582E43548F583E0FF754C
:10A9FE00F06FA4246FF582E5F034CAF583EF25835A
:10AA0E00F583E030E11875F06FEFA42457F582E579
:10AA1E00F034CAF583EF2583F583E04402F0E5496F
:10AA2E002405F582E43548F583E0FF75F06FA42424
:10AA3E006FF582E5F034CAF583EF2583F583E030B8
:10AA4E00E21875F06FEFA42457F582E5F034CAF5DD
:10AA5E0083EF2583F583E04404F0E5492405F58270
:0DAA6E00E43548F583E0FD7F1C12E800226E
:10C2C000E4FF90B81BE04480F090B817E04404F01D
:10C2D0007E147F2A90B602EEF0A3EFF090B60AEE3D
:10C2E000F0A3EFF0783FEEF208EFF27E1C7F5D9056
:10C2F000D77CEEF0FCA3EFF0FD90B60EECF0A3EDD2
:10C30000F090B606ECF0A3EDF090B44A7414F0A3EC
:10C31000742AF090B452EEF0A3EFF07E027FF0901A
:10C32000B622EEF0A3EFF090B62AEEF0A3EFF0E421
:10C330007855F27522207EC97F0F8E1D8F1E8E1DAF
:10C340008F1E785B7404F2E4FF75F06FEFA4242B6A
:10C35000F582E5F034C9F5832FF5837404F075F0A8
:10C360006FEFA42429F582E5F034C9F5832FF58316
:10C37000E4F00FBF02D390AA07E030E406788CE225
:10C380004440F2903FFB74FFF090B8417401F0908C
:10C39000BE28E0FCA3E0FDA3E0FEA3E0FF90DB608D
:03C3A0001206CDB5
:01C3A3002277
:10B60A00EF2406FDE43EFC8D82F583A3E0F5288D48
:10B61A00828C83E0F52790DB64E0FF600C1238DD52
:10B62A0090DB64E0600302B71630430D78AAE65453
:10B63A00FEF6129DC7C22E801030460512EF4D80CD
:10B64A000830380512A253C22E303E6212609F3073
:10B65A001807E478A3F612B2CE78A2E620E0439067
:10B66A00D903E0B4090990B677E0547FF0801090CE
:10B67A00B677E0FF90DB1EE0FEEF4E90B677F090D3
:10B68A00D8D6E0B4090312D99512EF8C903F48E05E
:10B69A0030E00512ECE4800A903F48E030E1031202
:10B6AA00D8A0301807E478A3F612B2CEC232303DE1
:10B6BA002830152290B60EE0FEA3E0FF90D77CE07A
:10B6CA00B50607A3E0B50702D21690B81BE0547F6F
:10B6DA00F0E4FF12C7EEC23022303B06E4FF12C785
:10B6EA00EE22303C07302F241274BF2230450C78EA
:10B6FA00AAE6B40217E4F612E8342230440E90BFE8
:0DB70A0022E054CFF0E478AAF612EC2322DE
:10A2530090BF23E054FEF020190302A2E390CC0444
:10A26300E06402707BE51E2468F582E51D3401F588
:10A2730083E0D394004026851E82851D83A3E0FFDF
:10A2830090B82BE05407B50704E478A3F6E51E2441
:10A293006AF582E51D3401F583E4F0801290B85F1E
:10A2A300E0640B60F8E0640460F3E0640560EE12C0
:10A2B300B2CEE51E2468F582E51D3401F583E06422
:10A2C30001600302A3C6E51E2449F582E51D34019E
:10A2D300F583E06404600302A3C6AF1C124AC022E4
:10A2E300783CE224FA60792404600302A3C612EFE7
:10A2F3002912EE00E490B81FF090BE27E00490BA54
:10A3030003F090BA237401F090B81BE054F8F0E026
:10A3130054874410F090B817E054074490FF90B866
:10A3230016E4F0A3EFF078477409F212E22290B634
:10A333001A741CF0A3745EF09000F4E04408F090EB
:10A343003FC8E0600990BE27E024047857F2788C78
:10A35300E24401F2782BE2FBE4FD7F0F12215D2240
:10A363007858E2784AF290BE17E04410F0000000FB
:10A373000090BE00E0FCA3E0FDA3E0FEA3E0FF909D
:10A3830000EB1206CD9000EEE04402F0E49000F8FA
:10A39300F012D7A712EEC8784AE20490BA03F090FD
:10A3A300BA237401F09000F6E04404F090BE23E079
:10A3B30054FCF07F0A12E901782BE2FBE4FD7F0FE6
:04A3C30012215D22E4
:10DE6F0090CC04E0FF64046017EF6408601290C95F
:10DE7F000EE0FF64076009EF64086004EFB4092A3D
:10DE8F0090DB63E0FF90BE03E0C39FF54BC313FF2E
:10DE9F007E0012216E90BE00E0FCA3E0FDA3E0FE29
:09DEAF00A3E0FF90DB601206CD38
:10DEB8002290BE00E0FCA3E0FDA3E0FEA3E0FF90FB
:0DDEC800DB601206CD7F017E0012216E226C
:10609F0090BE17E04403F00000000090BE03E054F0
:1060AF000378A2F6E620E06B12DE6F786DE26003F4
:1060BF0012598778A3E6D39400400116302428C2E2
:1060CF0024C2AF90BE12E04440F07865E2FF08E2D0
:1060DF0090BE06CFF0A3EFF090BE13E04480F0D255
:1060EF00AF7862740CF2227847E2783DF2E4784799
:1060FF00F27845E2783CF2E47845F290D903E0FF7C
:10610F0090D8D6F0E490D903F0BF090790BC22E0F5
:10611F00547FF078A3E6700312420078A2E6FD30B8
:10612F00E00302645990BE17E04403F090CC04E002
:10613F00640160030262BFED704C30112F08E670EE
:10614F002B788CE24402F290BF23E054FEF090BE15
:10615F0003E054FC440190BA0BF012D1CD7D01AF96
:10616F001C12CEBF12BB34C211026449202103029C
:10617F00644930220302644978A3E660030264494C
:10618F0012D49702644978A2E6640260030264495C
:10619F0030192208E6601C12EF29E51E241AF58239
:1061AF00E4351DF583E4F078A3F690BF23E054E7C0
:1061BF00F0C22FC21978A3E66003026449783CE26B
:1061CF00641060030262B990B85FE0640B60F8E09E
:1061DF00640460F3E0640560EE90BF43E0F54A208D
:1061EF00E20302628390B82BE054077859F2851EC0
:1061FF0082851D83A3E0FFE2FEEF6E706412522FC3
:10620F00202F0302644990B85FE0702490BF43E0F1
:10621F00F54A30E308E4FF12C7EE026449E54A305D
:10622F00E4061274BF026449E4FF12C7EE02644928
:10623F00302924E51E241AF582E4351DF583E4F098
:10624F00E51E241AF582E4351DF583E0FF90B81A98
:10625F00E054FEFEEF4EF090BF23E04418F00264CE
:10626F0049E51E241AF582E4351DF583E4F012D5B5
:10627F001D026449E51E241AF582E4351DF583E4F9
:10628F00F012D51DE51E2449F582E51D3401F58375
:10629F00E020E403026449E51E2458F582E51D342D
:1062AF0001F583E4F0A3F0026449129925026449D1
:1062BF0090CC04E06402600302643F301803026470
:1062CF004930191490BE17E04402F000000000900E
:1062DF00BE03E0540378A2F690DAC7E0640170348D
:1062EF00D3784EE2940018E29400402890DAC8E088
:1062FF00602208E224FFF218E234FFF208E2700293
:10630F0018E27010D22590C92EE0FFA3E0784DCF90
:10631F00F208EFF278A2E66402600302641208E664
:10632F006003026449A222B34003026449A24CB342
:10633F00400302644990C911E0540360030263FDF6
:10634F0030195FC21090B85BE0700A90CA77E0FF17
:10635F0012CF5D800312D1CD90CA77E0FFD39400A6
:10636F00403CEF25E078A3F690BF23E04401F09086
:10637F00CA5AE030E35A90CA7AE0FF7E0090CA5FB3
:10638F00E0FCA3E02FFFEE3CCF24FFCF34FF90CAF9
:10639F0067F0A3EFF090CA5AE054F7F08032D210B2
:1063AF00802E90DAC6E0B4010512E0BC801990C9C6
:1063BF003AE0FF90BE0AE0C39FC394044004D23377
:1063CF008002C23312D1CDD21090BF23E054FEF021
:1063DF0078457410F2E4FDFF12CEBF90BE03E05477
:1063EF00FC440390BA0BF012BB34C233804C90CAFA
:1063FF0058E030E40690CA6C7401F0788CE254FDDA
:10640F00F28037301034A222B3502F78A2E6702AD0
:10641F0008E67026A24CB3502190B85FE0640B6081
:10642F00F8E0640460F3E0640560EE12B2CE800A17
:10643F0090CC04E0B40803129107785DE260057F09
:0A644F0002124AC0788CE254BFF23A
:016459002220
:02CEBF008F5191
:10CEC10075F06FEFA424FCF582E5F034C9F5832FEA
:10CED100F583E0FFED601675F06FE551A424FDF5D3
:10CEE10082E5F034C9F5832551F583E0FFEF6061F8
:10CEF100785BE26551605375F06FE551A42499F5B3
:10CF010082E5F034C9F5832551AD82FC7EAC7F4CBE
:10CF11007B1012373490CBF3E090B80BF090CBF448
:10CF2100E090B80AF090CBF5E090B809F090CBF61C
:10CF3100E090B808F090CBF7E090B80FF090CBF804
:10CF4100E090B80EF0785BE551F290B8537403F0BD
:0BCF510022E490B853F0785B7404F207
:01CF5C0022B2
:10D136009000F4E0FF54486440600AEF54A0700584
:10D14600E05424602F12EF2990BF23E054FEF078BC
:10D156002BE2FBE4FD7F0F12215D202E699000F487
:10D16600E0FF30E20354FBF09000F4E054FEF07F61
:10D176000B12E9019000F6E0544464406006A3E017
:10D186005405604212EF2990BF23E054FEF0782B3D
:10D19600E2FBE4FD7F0F12215D202E2A9000F7E0CE
:10D1A600FF30E703547FF09000F6E054FBF090BEAA
:10D1B60023E054FCF0E04401F0783CE2B40602E4DB
:07D1C600F27F0912E90122CA
:10EDE700EF24FE700D9000FDE04401F090C90E7411
:09EDF70002F0788CE24401F222E2
:10E99400851E82851D83E054466023A3A3E05403AF
:10E9A400701C75F06FEFA42412F582E5F034C9F5FC
:0FE9B400832FF583E04420F0788CE24402F222B6
:106D86008E4D8F4E8D828C83E0854E82854D83F0AD
:106D96008D828C83A3E0854E82854D83A3F08D8200
:106DA6008C83A3A3E0854E82854D83A3A3F08D82B9
:106DB6008C83A3A3A3E0854E82854D83A3A3A3F072
:106DC600ED2404F582E43CF583E05403FFE54E240C
:106DD60004F582E4354DF583EFF0ED2405F582E404
:106DE6003CF583E0FFC4333354C0FFED2404F58241
:106DF600E43CF583E0FE1313543F4FFFE54E2405B4
:106E0600F582E4354DF583EFF0ED2406F582E43C9A
:106E1600F583E0FFC4333354C0FFED2405F582E467
:106E26003CF583E0FE1313543F4FFFE54E2406F571
:106E360082E4354DF583EFF0ED2407F582E43CF569
:106E460083E0FFC4333354C0FFED2406F582E43CEF
:106E5600F583E0FE1313543F4FFFE54E2407F582FA
:106E6600E4354DF583EFF0ED2407F582E43CF58338
:106E7600E0FFC45403FFE54E240BF582E4354DF5DF
:106E860083EFF0ED2408F582E43CF583E0FFE54E60
:106E96002408F582E4354DF583EFF0ED2409F582FB
:106EA600E43CF583E0FFE54E2409F582E4354DF533
:106EB60083EFF0ED240AF582E43CF583E0FFE54E2E
:106EC600240AF582E4354DF583EFF0ED240BF582C7
:106ED600E43CF583E0FFE54E240CF582E4354DF500
:106EE60083EFF0ED240CF582E43CF583E0FFE54EFC
:106EF600240DF582E4354DF583EFF0ED240DF58292
:106F0600E43CF583E0FFE54E240EF582E4354DF5CD
:106F160083EFF0ED240EF582E43CF583E05407FFA1
:106F2600E54E240FF582E4354DF583EFF0ED240EA2
:106F3600F582E43CF583E0FFC31354FCFFED240F18
:106F4600F582E43CF583E0FEC433333354804FFFCF
:106F5600E54E2413F582E4354DF583EFF0ED24106C
:106F6600F582E43CF583E0FFC43333335480FFED10
:106F7600240FF582E43CF583E0FEC3134FFFE54E94
:106F86002412F582E4354DF583EFF0ED2411F582F8
:106F9600E43CF583E0FFC43333335480FFED241023
:106FA600F582E43CF583E0FEC3134FFFE54E241162
:106FB600F582E4354DF583EFF0ED2411F582E43CDE
:106FC600F583E0FFC313540FFFE54E2410F582E46A
:106FD600354DF583EFF0ED2411F582E43CF583E0C1
:106FE600FFC4135407FFE54E2414F582E4354DF52E
:046FF60083EFF02213
:10DA0C0090BE17E04440F00000000090BE00E054CF
:10DA1C000FF0C390BE06E0648094805035A3E024E0
:10DA2C00E2FE90BE06E0340490C90CF0A3CEF09058
:10DA3C00BE00E0FCA3E0FDA3E0FEA3E024FFFFEEAC
:10DA4C0034FFFEED34FFFDEC34FFFC90CCE8120605
:10DA5C00CD2290BE06E0FFA3E090C90CCFF0A3EF5F
:10DA6C00F090BE00E0FCA3E0FDA3E0FEA3E0FF907D
:06DA7C00CCE81206CD22E9
:08E1190090C90FE0544660526A
:10E1210090BF23E054BFF090BF337440F090CCE82F
:10E13100E0FCA3E0FDA3E0FEA3E0FF90BE00120619
:10E14100CD90C90CE0FFA3E090BE06CFF0A3EFF0A5
:10E1510090BE12E04470F00000000000000000904A
:10E16100BF13E0F55090BF12E0F55090BF23E0449B
:02E1710040F07C
:01E173002289
:10EA1D0090BF23E054BFF090BF337440F090BE120E
:10EA2D00E04403F000000000000090BF13E0FF90F1
:0BEA3D00BF12E0FF90BF23E04440F058
:01EA480022AB
:0FEEC800E490B807F090B81BE054874468F0223C
:04E800008F538D5451
:10E804001220D5904C28EEF0A3EFF02404F582E416
:10E814003EF583E553F0EF2405F582E43EF583E508
:0FE8240054F0904C28E0FCA3E0FD7F061220A2E8
:01E8330022C2
:02E901008F5035
:10E903001220D5904C1CEEF0A3EFF02404F582E422
:10E913003EF583E550F0EF2405F582E43EF583E40C
:0EE92300F0904C1CE0FCA3E0FD7F051220A24A
:01E9310022C3
:10BB340090BA2B7402F0E51E2424F582E51D34012D
:10BB4400F583E05402FF90BC23E054FD4FF0AF1C9A
:10BB540012D6A9788CE24402F290DAC6E06401704D
:10BB6400557E037F4A90B622EEF0A3EFF090B626FE
:10BB74007414F0A37429F090DAD3E0701B783F7446
:10BB840003F208744AF290B62AEEF0A3EFF090B6EE
:10BB94000AEEF0A3EFF0803D783F7407F208744793
:10BBA400F27E07FF90B62AEEF0A3EFF090B60AEE0D
:10BBB400F0A3EFF0801F783FE2FF08E290B60ACFCF
:10BBC400F0A3EFF090D77CE0FFA3E090B60ECFF0A7
:10BBD400A3EFF0D215E51E2447F582E51D3401F5E7
:10BBE40083E0540390B805F078457410F2904E1D2C
:10BBF400E030E12190DAC6E06401601920191620D2
:10BC04003313851E82851D83E020E70990B868E020
:10BC14004480F0800790B868E0547FF0904E39E09B
:0CBC240090B684F090B68EE054BFF02281
:0EEEE600904E22E0FF90B8B3E02FF404FF221C
:10946400754E01E51E241AF582E51D3401F583E0ED
:10947400FF20E3030295FD30190FE51E245EF582FB
:10948400E51D3401F583E0F54EE51E2419F582E56A
:109494001D3401F583E0FE904E3CE0C36480F8EE99
:1094A4006480984055EF30E1030295FDE51E246683
:1094B400F582E51D3401F583E0254EF0E51E2466B2
:1094C400F582E51D3401F583E0C3648094B2500352
:1094D4000295FDE51E241AF582E51D3401F583E0AD
:1094E40054E4F0AD1C7F1D12E800E51E2466F582ED
:1094F400E51D3401F583741EF022E51E2419F5825E
:10950400E51D3401F583E0FF904E3BE0D36480F821
:10951400EF64809840030295C1E51E241AF582E5A4
:109524001D3401F583E030E0030295FDE51E246659
:10953400F582E51D3401F583E0C3954EF0E51E2464
:1095440066F582E51D3401F583E0D36480944E40D2
:10955400030295FDE51E241AF582E51D3401F58309
:10956400E054F4F0E51E241AF582E51D3401F58378
:10957400E04410F0851E82851D83E030E528E582F5
:109584002456F582E5833401F583E0FEA3E0D39409
:1095940000EE94014010E51E241AF582E51D340105
:1095A400F583E04404F0AD1C7F1D12E800E51E24A1
:1095B40066F582E51D3401F58374E2F022E51E248C
:1095C40066F582E51D3401F583E0FFD36480948061
:1095D4004010E51E2466F582E51D3401F583E01490
:1095E400F022C3EF64809480500FE51E2466F58258
:0995F400E51D3401F583E004F0EB
:0195FD00224B
:0CEF1D0090BA23E054FCF0E0440CF02219
:0CEF290090BA2BE054FCF0E0440CF02205
:10ED3E0090BA23E054FCF090BA2BE054FCF090BA59
:0DED4E0023E0440CF090BA2BE0440CF022BE
:104000000011001B007900B700E00153FFFF000022
:10401000000000000000000000000000000000039D
:104020000303020202020101010101010101040472
:104030000404040404040404040404040404040341
:104040000303020202020101010101010101001B3F
:10405000000A0014001EFFFF001D007900B7FFFFDB
:10406000FFFF00E001530036FFFF003C005A005301
:10407000001D016F02280168021C02A703FD000257
:07408000FEFE01FE0102FE3D
:10992500E4F54EC22A90DB9BF078B17601788CE2A3
:109935004402F2E54E6003029AB3A222B340030249
:109945009AB3A24CB34003029AB3E51E2436F582BE
:10995500E4351DF583E06401704A754E01E51E246A
:1099650036F582E4351DF583E4F090B81BE05487A5
:109975004418F090B817E054FC4401F0E490B81690
:10998500F0A3E05407F0E51E2434F582E4351DF517
:10999500837404F0E51E2435F582E4351DF583E472
:0499A500F0029A49E9
:1099A900851E82851D83A3A3A3E0F55030E750549B
:1099B9003F90400E93F54FB401097F0112DC568F99
:1099C9004E803CE54FB4020F754E017848E2FE081F
:1099D900E2FF1267A28028E54FB40318785EE2FE21
:1099E90008E2FF12A52D8F4EE54E7013754E011238
:1099F900EF35800BE54FB40406754E0312EEF4E51E
:109A09004E703D851E82851D83A3A3E054037029F2
:109A1900302905754E018021E51E2446F582E51D94
:109A29003401F583E06012754E01E51E2446F58286
:109A3900E51D3401F583E014F0E54E600312EF35BE
:109A4900E54EB40203E4F54EE54E6045B4030790D4
:109A5900CA81E0549FF0D211851E82851D83A3E03F
:109A6900FF90B81BE054F8FEEF4EF012A0D17847F2
:109A79007410F2E51E241FF582E4351DF583E0FE1E
:109A8900A3E024FFFBEE34FFFA7D01E4FF12214C31
:109A990022C21130210EA222B35009A24CB35004A4
:0A9AA90012D49722788CE254FDF2EB
:019AB3002290
:1092B900E4F54E90DB9BF0C22A78B17601788CE216
:1092C9004402F230202E754E017848E2FE08E2FF92
:1092D900F5828E83E030E00FEF4E600B18E2FE0856
:1092E900E2FF1267A28002C22090DAC8E0B4021538
:1092F900E4F0801190DAC7E0600B90DAC8E060050D
:1093090012C3A48F4EA222B34003029396E54E7076
:109319007CA24CB3507790C945E06401702B754E1F
:1093290001F090B81BE054874418F090B817E05446
:10933900FC4401F0E490B816F0A3E05407F090C99A
:09934900437404F0A3E4F0804435
:1093520090C912E0FF543F90400E93F54FEF30E773
:1093620033E54FB40109E4FF12DC568F4E8025E548
:109372004FB4020F754E017848E2FE08E2FF126711
:10938200A28011E54FB4030C785EE2FE08E2FF1200
:04939200A52D8F4E28
:10939600E54E703E202912202B0F90CA5AE020E796
:1093A6000890DAC7E0541E6029754E0112EF35E5C4
:1093B6001E2449F582E51D3401F583E0541460123C
:1093C60020290FE51E245DF582E51D3401F5837421
:1093D60001F0E54EB40203E4F54EE54E605F90C938
:1093E60010E0FF90B81BE054F8FEEF4EF012A0D14B
:1093F6007847E2641160037410F2302A6090CA580C
:10940600E05414605890CA67E0FEA3E0FF90CA617A
:10941600E0FCA3E0FDC39FEC9E404278B1E6FF7EF0
:1094260000ED2FFFEE3C90CA67F0A3EFF090CA580C
:109436007404F090C911F0A3E04480F022E51E24E4
:1094460049F582E51D3401F583E05414600FE51EED
:0D945600245DF582E51D3401F5837401F0FD
:0194630022E6
:10C3A40090DAD1E078B1F690DAC8E0FFB4010BC2BC
:10C3B40025E490C929F07D01800FEFB40209E490CF
:10C3C400DAC8F07D018002E4FDED700302C48490BC
:10C3D400B81BE05487FF90DAC9E0FE4F90B81BF019
:10C3E40090CA56E030E02AEE64706009EE64506052
:10C3F40004EEB4200890DB9B7401F08014EE6478A2
:10C404006009EE64586004EEB4400690DB9B74024D
:10C41400F090DACBE0FFA3E090B61ACFF0A3EFF0F0
:10C4240090DAC7E0541E601D90DAD2E0601ED22A72
:10C43400E490C943F090C912E020E31090C92AE0C7
:10C444006402F0800790C92AE06402F090DACFE039
:10C45400FEA3E07803C333CE33CED8F9FF90B817E8
:10C46400E05407FBEEEF4BFF90B816EEF0A3EFF0AD
:10C4740090B817E054FCFF90DACAE04F90B817F078
:02C48400AF0502
:01C486002293
:02DC56008F51EC
:10DC58007F021FE51E242EF582E4351DF583E0FDC5
:10DC6800A3E090B81ACDF0A3EDF0E51E2430F582BC
:10DC7800E4351DF583E0FDA3E090B816CDF0A3EDE3
:10DC8800F0E51E2432F582E4351DF583E0FDA3E0BE
:10DC980090B61ACDF0A3EDF0851D1D851E1EE51E5C
:10DCA800242DF582E4351DF583E078B1F6D22AE516
:0FDCB8001E2435F582E4351DF583E090DB9BF0EB
:01DCC700223A
:1067A2008E518F5290B81BE054874418F090DAC78C
:1067B200E0541E600D851E82851D83A3A3A3E020E5
:1067C200E30FE51E241BF582E4351DF583E0640228
:1067D200F090B817E054FC4403F0E5522404F5822B
:1067E200E43551F583E075F008A4FF90B817E05442
:1067F20007FDE5F0ED4FFF90B816E5F0F0A3EFF0DE
:10680200855282855183A3A3E0FEA3E0FF90B61ACE
:10681200EEF0A3EFF0E51E2432F582E4351DF58398
:10682200EEF0A3EFF0E51E2434F582E4351DF58386
:106832007402F090DB9BE0FFE51E2435F582E4351F
:106842001DF583EFF0D22A855282855183E054F000
:1068520024E0700302692724D0602624F07003022A
:10686200693824E0700302694924706003026ABB3C
:10687200855282855183A3E0FD7F0A12E800026AF5
:01688200BB5A
:1068830090BE24E0FCA3E0FDA3E0FEA3E0FF7801BB
:106893001205E9904C1C1206CD904C1CE0FCA3E0C1
:1068A300FDA3E0FEA3E024F0FFE43EFEE43DFDE4AF
:1068B3003CFC90CCE41206CD90CCE7E054FEFFF014
:1068C300855282855183A3A3E0FCA3E0F5828C83E8
:1068D300A3EFF090CCE6E0FF855282855183A3A31A
:1068E300E0FCA3E0F5828C83A3A3EFF090CCE5E07A
:1068F300FF855282855183A3A3E0FCA3E0F5828C3C
:1069030083A3A3A3EFF090CCE4E0FF8552828551EB
:1069130083A3A3E0FCA3E02404F582E43CF583EF26
:01692300F083
:10692400026ABBE51E24EEF582E4351DF58374018D
:10693400F0026ABB855282855183A3E0FD7F0D126C
:05694400E800026ABB3F
:10694900E51E2449F582E51D3401F583E06030E553
:106959001E2456F582E51D3401F583A3E025E0FFE9
:106969000582D5820215831582E033904C24F0A369
:10697900EFF0E02414F0904C24E03400F08024E59A
:106989001E2421F582E4351DF583E0FEA3E078039A
:10699900C333CE33CED8F92414FFE43E904C24F00F
:1069A900A3EFF090BE24E0FCA3E0FDA3E0FEA3E08A
:1069B900FF78011205E9904C201206CD904C20E099
:1069C900F8A3E0F9A3E0FAA3E0FB904C24E0FEA3CE
:1069D900E0FFE4FCFDEB2FFFEA3EFEED39FDEC386C
:1069E900FC904C201206CD904C23E054FEF0904CC4
:1069F90020E05407F0904C23E0FF855282855183B3
:106A0900A3A3E0FCA3E0F5828C83A3EFF0904C22D2
:106A1900E0FF855282855183A3A3E0FCA3E0F582C0
:106A29008C83A3A3EFF0904C21E0FF85528285511E
:106A390083A3A3E0FCA3E0F5828C83A3A3A3EFF0D7
:106A4900904C20E0FF855282855183A3A3E0FCA3EB
:106A5900E02404F582E43CF583EFF01220E6904C43
:106A690026EEF0FCA3EFF0FD904C26E0FEA3E0FF3C
:106A79002404F582E43EF583740FF0855282855132
:106A890083A3E0FBEF2405F582E43EF583EBF08573
:106A99005282855183A3A3E0FEA3E0FFED2406FB08
:106AA900E43C8B82F583A3A3EEF0A3EFF07F0612FB
:026AB90020A219
:0E6ABB00851E82851D83A3A3A3E054FBF02259
:04A52D008E518F526A
:10A531008F828E83A3E0FF75F06FA42457F582E527
:10A54100F034CAF583EF2583F583E0545E60037F21
:10A551000022AF52AE511276EF78B1A60785528232
:10A56100855183A3A3E0FF90B817E054FCFEEF4EA2
:10A57100F0855282855183A3A3A3E0FFA3E090B6A7
:10A581001ACFF0A3EFF0E51E2434F582E4351DF572
:10A59100837404F0855282855183A3A3A3E0FEA3B3
:10A5A100E0FFE51E2432F582E4351DF583EEF0A3CC
:10A5B100EFF090DB9BE0FFE51E2435F582E4351DCD
:10A5C100F583EFF0E5522405F582E43551F583E09A
:10A5D100FEA3E0FF7860E2FC08E2FDD3EF9DEE9C74
:10A5E100500F8E538F548552828551837403F080AE
:10A5F100548C538D54855282855183A3A3A3E55373
:10A601008554F01204A8E5522405F582E43551F58C
:10A6110083C083C082C3A3E09DFF0582D58202155A
:10A62100831582E09CD082D083F0A3EFF085528223
:10A63100855183A3A37401F0851E82851D83A3A385
:10A64100A3E04402F0E554AE537803C333CE33CED6
:10A65100D8F9FF90B817E05407FDEEEF4DFF90B821
:10A6610016EEF0A3EFF0D22AE51E241BF582E435A5
:10A671001DF583E06402F0851E82851D83A3A3A3DB
:06A68100E054FEF07F0131
:01A6870022B0
:0CEF350090B81BE05487F078B176012200
:0EEEF40090B81BE054874408F078B1760122F4
:10A0D100E51E241BF582E4351DF583E0FF90B81AD7
:10A0E100E054FDFEEF4EF0E51E241AF582E4351D25
:10A0F100F583E0FF90B81AE054FEFEEF4EF090BEFB
:10A1010017E04402F00000000078A3E6FF25E0FF1D
:10A1110090BE03E02F440190BA03F090CC04E0B468
:10A12100020E90BA03E05403FFBF0304E024FEF0E3
:10A1310030161930140DC216C21490B81BE04480B9
:10A14100F0801090B81BE0547FF0800790B81BE0BE
:10A151004480F090B817E04404F090DAC6E054036C
:10A16100600512E0BC800312D1CDE4FDAF1C12CE1C
:10A17100BFE51E2424F582E51D3401F583E0540278
:10A18100FF90BC23E054FD4FF0AF1C12D6A990B84C
:10A191007BE054FCF0E0FF90DB9BE0FEEF4E90B8DB
:10A1A1007BF0E51E2422F582E51D3401F583E0FFF5
:10A1B10012AD027847E264116015E51E2447F5826D
:10A1C100E51D3401F583E0540390B807F08005E400
:10A1D10090B807F020280D12EF1D0000000090BA82
:10A1E100237401F0C22878B1E6FF78A326F6302A5D
:10A1F10060851E82851D83A3A3A3E04408F0E51EAC
:10A20100242DF582E4351DF583EFF090B81AE0FEB8
:10A21100A3E0FFE51E242EF582E4351DF583EEF063
:10A22100A3EFF090B816E0FEA3E0FFE51E2430F5A1
:10A2310082E4351DF583EEF0A3EFF090CC04E0B499
:10A24100010FE51E2446F582E51D3401F5837404F2
:02A25100F022F9
:0476EF008E558F56CF
:1076F3007F187E01E4F97860F2087411F2E51E2424
:1077030047F582E51D3401F583E030E01009E51EFD
:107713002418F582E4351DF583E0FC800DE51E2475
:1077230017F582E4351DF583E0FCE5562405F58263
:10773300E43555F583E0FAA3E0FBE96066D3EB9407
:1077430011EA940050057D010277F9D3EB9436EAF0
:10775300940050057D030277F9D3EB9453EA940028
:10776300500EEC30E2057D070277F97D0B0277F9C5
:10777300D3EB946FEA940150047D0F8079D3EB949B
:1077830028EA9402500CEC30E4047D1F80687D2FBE
:107793008064D3EB94A7EA940250047D3F80577D25
:1077A3007F8053D3EB9411EA940050047D0180460B
:1077B300D3EB941BEA9400500CEC30E1047D03807E
:1077C300357D078031D3EB9479EA940050047D072B
:1077D3008024D3EB94B7EA9400500CEC30E3047D9F
:1077E3000F80137D1F800FD3EB94E0EA94005004C5
:1077F3007D1F80027D3FEC5205E970030278A2ED04
:10780300C3944040167F7878607403F20874FDF2E5
:107813007E0590DB9B7402F0027903EDC394204054
:10782300167F7078607402F20874A7F27E0590DB0D
:107833009B7401F0027903EDC3941040167F5878CE
:10784300607402F2087428F27E0390DB9B7402F0EA
:10785300027903EDC3940840167F5078607401F2F7
:1078630008746FF27E0390DB9B7401F0027903EDE1
:10787300C3940440127F407860E4F2087453F2909A
:10788300DB9B7402F08079EDC3940240737F207810
:1078930060E4F2087436F290DB9B7401F08061EDD2
:1078A300C39420400F7F7878607401F2087453F218
:1078B3007E05804CEDC39410400E7F707860E4F237
:1078C3000874E0F27E058038EDC39408400E7F58BB
:1078D3007860E4F20874B7F27E038024EDC3940465
:1078E300400E7F507860E4F2087479F27E038010D2
:1078F300EDC39402400A7F207860E4F208741BF21F
:0A79030090B81BE054874FF0AF0668
:01790D002257
:02AD02008F516F
:10AD0400E4F552F553FF90DB72E06404700302AE85
:10AD140038904E36E06551704F90B87BE054036034
:10AD2400010F90DB1DE0B50712783BE2B5510C90A2
:10AD34003FFAE0FE903FFCE06E6056EF601975F05C
:10AD440002E551A4242CF582E5F0344EF583E0F5B8
:10AD540052A3E0F553800A904E34E0F552A3E0F597
:10AD64005390DB1DEFF08029783BE2B5510C903F06
:10AD7400FAE0FF903FFCE06F601775F002E551A424
:10AD8400242CF582E5F0344EF583E0F552A3E0F58A
:10AD940053E5534552700302AE38903FFDE0605BCB
:10ADA400AF53EF3395E0F5548F55903FFAE0243DCF
:10ADB400F582E4344EF583E0FFFD3395E0FCED25A8
:10ADC40055F555EC3554F554C3648094805005759D
:10ADD4005300804AC3E5559480E5546480948040D0
:10ADE40009855252747FF5538034EF3395E0FEEFBA
:09ADF4002553F553EE3552F552DA
:02ADFD008023B1
:10ADFF00743D2551F582E4344EF583E0FF3395E041
:10AE0F00EFFEE424F0F555E43EF554AD55FC7F0814
:03AE1F001235B930
:10AE2200903FFAE0903FFCF0AD53AC527F0B1235ED
:06AE3200B9783BE551F286
:01AE380022F7
:10E0BC0090DAD4E014604404704A90CC04E0B401CB
:10E0CC001D78A2E6700C90DAD6E0248090BC22F089
:10E0DC00803290DAD5E0248090BC22F0802678A2A1
:10E0EC00E6700C90DAD5E0248090BC22F08015907C
:10E0FC00DAD6E0248090BC22F08009E490BC22F0B7
:0DE10C0090BC02F012D1CDE490B853F02287
:10EDB1007862E2640E601390B86E7401F0A3E4F01F
:0BEDC10090BE1AE04401F0740EF22234
:10D1CD007862E2640A60467ECB7FF312E63B90CB39
:10D1DD00F6E090B81FF090BC037480F090CC04E0A2
:10D1ED00B4010990BE1AE04401F0801C90BE1AE013
:10D1FD0054FEF0E04402F090BE067402F0A37430C9
:10D20D00F090BE1BE04401F07862740AF230331CDA
:10D21D0090B86E7409F0A37450F090BC1E7401F0B8
:10D22D00A3745AF090BC277472F0801F7851E2FFFE
:10D23D0008E290BC1ECFF0A3EFF0785AE290BC2725
:10D24D00F090B86E7403F0A37410F090B403E05432
:03D25D007FF0223D
:10CF5D008F4B7862E2FF640B700302CFF1EF640A2E
:10CF6D00600D7ECB7FF312E63B90BC037480F09096
:10CF7D00CBF6E090B81FF0E54B600C90B86E743AAC
:10CF8D00F0A37498F080357850E2FDFB75F010A495
:10CF9D002410FEE5F0340390B86EF0A3CEF0EB75DF
:10CFAD00F004A4FFAEF0C374EA9F90BC1FF07402AE
:10CFBD009E90BC1EF0ED240E90BC27F090B403E0C3
:10CFCD00547FF090BE1AE054FEF0E04402F090BEA3
:10CFDD00067402F0A37430F090BE1BE04401F078AB
:0ECFED0062740BF2E54B600578537401F2227A
:10DFFD007862E2640560427E4E7F0012E63B12EAD3
:10E00D001D90BC037401F090B86EE04480F0900058
:10E01D00F7E054BFF090B403E04480F078627405EB
:10E02D00F290BE1AE054FDF090BE067401F0A37498
:10E03D0028F090BE1BE04401F09000F7E030E308BB
:10E04D0090BC02E04408F02290BC02E054F7F022AC
:10D8240090B8137433F090B812748BF090B81174EC
:10D834009EF09000F0E090BC13F07862E264026025
:10D8440044E490BC0CF0A3749EF0A3748BF0A37416
:10D8540033F090BC037402F012EA1D90B86EE044F9
:10D8640080F09000F5E054BFF090B403E04480F001
:10D8740078627402F290BE0614F0A37428F090BE8D
:10D884001BE04401F09000F5E030E30890BC02E0B6
:0CD894004408F02290BC02E054F7F0229F
:10EE00007862E26403600990BC037440F07403F21A
:09EE1000904E36E0FF12AD022223
:0ABE24007862E26404700302BF03B9
:10BE2E0090BE12E04403F090CC04E0707490BF23F7
:10BE3E00E078ACF2E4F090BF337440F090BE2BE0AB
:10BE4E0078ADF29000FEE0FF75F06FA4241DF58230
:10BE5E00E5F034C9F583EF2583F583E0FCA3E0FD1F
:10BE6E00A3E0FEA3E0FF90BE28E0F8A3E0F9A3E074
:10BE7E00FAA3E02FFFEA3EFEE93DFDE83CFC90BE52
:10BE8E00001206CD90BE13E04402F090BE2BE0FFF0
:10BE9E0078ADE2B507A690BF13E0F218E290BF238B
:01BEAE00F0A3
:10BEAF009000FEE0FF75F06FA42413F582E5F034E7
:10BEBF00C9F583EF2583AF82FE12E63B90BC037476
:10BECF0004F07851E2FF08E290BC1ECFF0A3EFF030
:10BEDF00785AE290BC27F090B86E7402F0A374D831
:10BEEF00F090BE1AE04401F090B403E04480F07883
:10BEFF00627404F2904E36E014FF12AD0290BC0251
:0EBF0F00E05401FF9000FBE04F90BC02F022D6
:10D7A7007862E2FF64076051EF640560077E4E7F91
:10D7B7000012E63B90BC037420F07851E2FF08E2C8
:10D7C70090BC1ECFF0A3EFF0785AE290BC27F09000
:10D7D700B86E740CF0A374D0F090BE1AE054FEF04B
:10D7E70090B403E0547FF0E490B853F0904E03E018
:10D7F70090B81FF078627407F29000EBE0FCA3E0AA
:10D80700FDA3E0FEA3E0FF90BE001206CD90BE127E
