:020000040000FA
:20000000021827022007E47862F22202211C02185C0000022048021827222202212A22226F
:200020002222FF0220F1FFFFFFFFFF022129FFFFFFFFFF02211B9067AF7402F0A3E5A5F0C1
:20004000A37480F0AF81A807E6A3F0A37416F0E58114F8E6A3F07C677DAB7F04122358E4BA
:20006000FEFF2202212A0202A8E86480F8E933E83360110460F0ED33EC337009E8FCE9FD26
:20008000EAFEEBFF220460DED3EB9FEA9EE99DE8C2E78CF0C2F795F0400CE8CCF8E9CDF9CD
:2000A000EACEFAEBCFFB12027385D0F05804700320D5B3E80470075002B2D50202B292D53D
:2000C000EC0460F7E4CCC0E0C398F8603B94186008400DD0E0FB02028AE4FBFAC9FC8028BB
:2000E000E830E406E4C9FBE4CAFCE830E305E4C9CACBFCE854076010F8C3E913F9EA13FA14
:20010000EB13FBEC13FCD8F130F52FC3E49CFCEF9BFFEE9AFEED99FDD0E0FBEF4E4D4C700C
:200120001222DB030202AFEC2CFCEF33FFEE33FEED33FDED30E7EB02028AEF2BFFEE3AFECD
:20014000ED39FDD0E0FB50130BBB00030202B2ED13FDEE13FEEF13FFEC13FC02028A020265
:20016000B2EC5D046005E8590470030202A8120273580460F6EC4860F2EC7004FDFEFF227C
:20018000C860DB2481C85009C398600250060202AF9850CAF582E9294B4A7005AB8202025A
:2001A0009E75F0007C1A7880C3EF9BEE9AED99400DC3EF9BFFEE9AFEED99FDE842F0DC2398
:2001C000ACF0D0E0FFD0E0FED0E0FDAB8220E7101BEB60BAEC2CFCEF33FFEE33FEED33FDA4
:2001E00002028AE803F830E705C0F075F000EF2FFFEE33FEED33FD40B830E7C280AA75F0A4
:2002000020800E75F010800575F0087D007E007F003392D530D503120681EC334010EF3383
:20022000FFEE33FEED33FDEC33FCD5F0ED22E5F0247EA2D513CC92E7CDCEFF22EDD2E7CD1F
:2002400033EC3392D524814006E4FFFEFDFC22FCE4CFCECDCC24E0501174FF80EDC3CC1301
:20026000CCCD13CDCE13CECF13CF0470F030D5DE020681E9D2E7C933E833F892D5EDD2E717
:20028000CD33EC33FC5002B2D522EC30E7100FBF000C0EBE00080DBD00040BEB6014A2D5D8
:2002A000EB13FCED92E7FD2274FFFCFDFEFF22E480F8A2D574FF13FC7D80E480EFE709F6A9
:2002C00008DFFA8046E709F208DFFA803E88828C83E709F0A3DFFA8032E309F608DFFA808C
:2002E00078E309F208DFFA807088828C83E309F0A3DFFA806489828A83E0A3F608DFFA8090
:200300005889828A83E0A3F208DFFA804C80D280FA80C680D4806980F28033801080A680A1
:20032000EA809A80A880DA80E280CA803389828A83ECFAE493A3C8C582C8CCC583CCF0A376
:20034000C8C582C8CCC583CCDFE9DEE7800D89828A83E493A3F608DFF9ECFAA9F0EDFB223B
:2003600089828A83ECFAE0A3C8C582C8CCC583CCF0A3C8C582C8CCC583CCDFEADEE880DB11
:2003800089828A83E493A3F208DFF980CC88F0EF60010E4E60C388F0ED2402B4040050B97A
:2003A000F582EB2402B4040050AF232345822390030D73BB010689828A83E0225002E72284
:2003C000BBFE02E32289828A83E49322BB010CE58229F582E5833AF583E0225006E92582DB
:2003E000F8E622BBFE06E92582F8E222E58229F582E5833AF583E49322BB010FF8E58229A5
:20040000F582E5833AF583E028F0225009C58229F8E58226F622BBFE09C58229F8E2258218
:20042000F222F8EA2583F583E9932822BB010689828A83F0225002F722BBFE01F322F8BB07
:20044000010DE58229F582E5833AF583E8F0225006E92582C8F622BBFE05E92582C8F22283
:20046000EF8DF0A4A8F0CF8CF0A428CE8DF0A42EFE22C5F0F8A3E028F0C5F0F8E58215828D
:2004800070021583E038F022A3F8E0C5F025F0F0E582158270021583E0C838F0E822BB0155
:2004A00010E58229F582E5833AF583E0F5F0A3E0225009E92582F886F008E622BBFE0AE98E
:2004C0002582F8E2F5F008E222E5832AF583E993F5F0A3E99322BB010A89828A83F0E5F05B
:2004E000A3F0225006F709A7F01922BBFE06F3E5F009F31922F8BB0111E58229F582E5832D
:200500003AF583E8F0E5F0A3F0225009E92582C8F608A6F022BBFE09E92582C8F2E5F00877
:20052000F222EF2BFFEE3AFEED39FDEC38FC22C3EF9BFFEE9AFEED99FDEC98FC22E88FF0A5
:20054000A4CC8BF0A42CFCE98EF0A42CFC8AF0EDA42CFCEA8EF0A4CDA8F08BF0A42DCC38BD
:2005600025F0FDE98FF0A42CCD35F0FCEB8EF0A4FEA9F0EB8FF0A4CFC5F02ECD39FEE43CBB
:20058000FCEAA42DCE35F0FDE43CFC2275F008758200EF2FFFEE33FECD33CDCC33CCC582F7
:2005A00033C5829BED9AEC99E58298400CF582EE9BFEED9AFDEC99FC0FD5F0D6E4CEFBE491
:2005C000CDFAE4CCF9A88222B800C1B90059BA002DEC8BF084CFCECDFCE5F0CBF97818EF84
:2005E0002FFFEE33FEED33FDEC33FCEB33FB10D703994004EB99FB0FD8E5E4F9FA227818C2
:20060000EF2FFFEE33FEED33FDEC33FCC933C910D7059BE99A4007EC9BFCE99AF90FD8E08A
:20062000E4C9FAE4CCFB2275F010EF2FFFEE33FEED33FDCC33CCC833C810D7079BEC9AE8F3
:2006400099400AED9BFDEC9AFCE899F80FD5F0DAE4CDFBE4CCFAE4C8F922EF5BFFEE5AFEDD
:20066000ED59FDEC58FC22EF4BFFEE4AFEED49FDEC48FC22EF6BFFEE6AFEED69FDEC68FC8F
:2006800022C3E49FFFE49EFEE49DFDE49CFC22EB9FF5F0EA9E42F0E99D42F0E89C45F0229B
:2006A000E8600FECC313FCED13FDEE13FEEF13FFD8F122E8600FEFC333FFEE33FEED33FDC6
:2006C000EC33FCD8F122BB010DE58229F582E5833AF58302074F5007E92582F8020889BBA5
:2006E000FE07E92582F802075B22E0FCA3E0FDA3E0FEA3E0FF22E493FC740193FD740293E5
:20070000FE740393FF22E0F8A3E0F9A3E0FAA3E0FB22E2FB08E2F908E2FA08E2CBF822BB11
:20072000010DE58229F582E5833AF5830207065007E92582F802086CBBFE07E92582F802DC
:200740000712E58229F582E5833AF583020879ECF0A3EDF0A3EEF0A3EFF022ECF208EDF296
:2007600008EEF208EFF222A8828583F0D083D08212077E12077E12077E12077EE473E49395
:20078000A3C583C5F0C583C8C582C8F0A3C583C5F0C583C8C582C822A42582F582E5F035FD
:2007A00083F58322E0FBA3E0FAA3E0F922F8E0FBA3A3E0F925F0F0E582158270021583E047
:2007C000FA38F022EBF0A3EAF0A3E9F022E493FB740193FA740293F922D083D082F8E49333
:2007E0007012740193700DA3A393F8740193F5828883E4737402936860EFA3A3A380DFD068
:2008000083D082F8E4937012740193700DA3A393F8740193F5828883E473740293B5F00627
:200820007403936860E9A3A3A3A380D8D083D082E4937012740193700DA3A393F87401931D
:20084000F5828883E4737402936C70127403936D700C7404936E70067405936F60DDA3A3E8
:20086000A3A3A3A380CA8A838982E473E6FB08E6F908E6FA08E6CBF822E493F8740193F940
:20088000740293FA740393FB22ECF608EDF608EEF608EFF622E58E20E30690B8337401F00A
:2008A00090B825E054FEF053A2F3E4F55CF55D00000000000000000000000000055DE55D96
:2008C0007002055CB498E8E55CB406E35387F790B83AE054DFF0D2A4D2A0D2A053A1EE00A1
:2008E000000000C205D200781FE6FF30E602800EEF30E704C200801120A40920A006D20576
:20090000C200800520A002C20090A4F77481F01233B8781FE620E33CE4906FEEF0A3F07E71
:200920006F7FEE7B02FA7DEE7C041233BE906FEEE0B4AA0BA3E0B455067DFF7FFF80047DB3
:20094000047F041233BB30002175A50412D657E4F5A58016781FE6B4AA05E4FDFF80089076
:200960006CD2E0FFA3E0FD1233BB781FE664AA6003020A4F758E1290BF007403F0E490BD95
:2009800003F090B203F090B007E04401F0E4F5A57E037F4A7C407DD07B2D7A011235FFE4B5
:2009A000F5A57E587F317B5FFA7DA07C011233BEE478B5F278B5E2FFC3943B502D75F0021F
:2009C000EF90034A120798E0F55DA3E0F55EE4F5A5EF90408793F55CAD5EAC5DFF12EE498E
:2009E000E4F5A578B5E204F280CAE4F5A5FDFC7F1D12EE497D007C227F1D12EE49E4F5A550
:200A00007E037F4A7C587D317B5F1237EDE478B5F278B5E2FFC3941850251232DAFEA3E066
:200A20004E6015E2FF9003631232C6FE1232DAFCA3E0F5828C83EEF078B5E204F280D2E4D8
:200A400090BF00F075A50412E6B7E4F5A5800E30050BE490BD03F075A50112B25C1214AE0B
:200A600030030B43A380C2871232E61232E675A897E490B203F012224E30002E75A5051257
:200A8000B3C3906CB5E06006E4F5A512FACA906CE4E06006E4F5A512A93D906CAFE030E35B
:200AA0000312A33FE4F5A5123980E4F5A512EFA7E4F5A590BE2AE0FF9067ECE06F70030254
:200AC0000B9090510AE0FF64016008EF64026003020B8890BE2AE078BBF290BE29E018F2B9
:200AE000A3E0FF08E2B507EBE22401F218E23400F21232CEE07003020B88C2AFE51E242A0E
:200B00001232D2E0FFA3E078B6CFF208EFF2E51E24281232D2E0FFA3E008CFF208EFF2D23A
:200B2000AF78B6E2FE08E2FFC378BBE29F79B7F318E29E19F378B8E2FE08E2FFD378B7E2F4
:200B40009F18E29E4042E4251EF582E51D3401F5837408F01232CEE4F012238B905890EE17
:200B6000F0A3EFF02404F582E43EF5837404F0EF2405F582E43EF583E51CF0905890E0FCF4
:200B8000A3E0FD7F0612235890BE2AE09067ECF0906B2EE030E00975A50112ECBBE4F5A524
:200BA000E490BD0CF0E56E6003020A76F5A512F902E4F5A5906B56E0540F6014E4F5A51213
:200BC000DB80905892EFF0E4F5A5EF6003020A76906B56E054F07003020A76E56E600302ED
:200BE0000A76E58754FC4401F5870000020A76E4F52E3056527877E6704A760190AA5FE018
:200C0000F52D7883F224FE601C0470327A00791278127C007D007B017AAA79607E007F047F
:200C200012038D80227A00791278127C007D007B017AAA79647E007F0412038D8009E478E3
:200C400077F68003752E01205703020D997877E664016003020D997883E224FE7003020C19
:200C6000E8046003020D827878E625E0247AF8E6FE08E6FF788BA60E08A60F18E6FE08E6F4
:200C8000FF8E832404F582E43583F5837421F0EF2406FBE43EFA8B82F583E510F0A3E511D9
:200CA000F0AF15AE14AD13AC128B828A83A3A3A312074F90674BE06401F025E0248BF58233
:200CC000E43420F583E0FEA3E08E10F51130000B902089E0FEA3E08E10F51190AA9AE5101D
:200CE000F0A3E511F0020D827878E625E0247AF8E6FE08E6FF788BA60E08A60F78A9E6FE2F
:200D000008E6FF8E832407F582E43583F583E0FD788BE6FA08E68A832405F582E43583F533
:200D200083EDF08F828E83E5822408F582E43583F583E0FEA3E078A9A60E08F618E6FE08DB
:200D4000E6F5828E83A3A3A3E0FEA3E090AA7BF0EE90AA7AF0788BE6FA08E6FB8A832404A3
:200D6000F582E43583F5837422F0AF15AE14AD13AC12EB2406FBE43A8B82F583A3A3A312B0
:200D8000074FE47877F6788BE6FC08E6FD7F041224577878E6045407F6E52E604A78777607
:200DA0000190AA5FE0F52D7883F224FE601C0470327A00791278127C007D007B017AAA79C5
:200DC000607E007F0412038D801D7A00791278127C007D007B017AAA79647E007F04120358
:200DE0008D8004E47877F63055347878E625E0247AF8E6FE08E6FF788BA60E08A60F18E6AC
:200E0000FC08E6FD8C832404F582E43583F5837440F07F041224577878E6045407F63052C8
:200E20000690AA0B7402F0E52B5478FFE52A541B4F6017E52A30E106781F76208004781F74
:200E40007610E490BD03F012000E305A2D300504121B222230002312238B90576CEEF0A380
:200E6000EFF090576CE0FCA3E0FD2404F582E43CF58374C5F07F0E122358228E338F348F35
:200E8000828E83E5822404F582E43583F583E024FE601F147003020F94147003020FCA2472
:200EA000036003020FF67B007A04E4FD7F02122402229062D5E0FEA3E0FF4E7003020F7E99
:200EC0008F828E83A3A374FFF5F01204729062D5E0FEA3E0F5828E83A3A3E0FEA3E04E60C5
:200EE00003020F7E12238B8E338F349062D5E0FEA3E0FF2405F582E43EF583E0FDE53424A1
:200F000004F582E43533F583EDF0EF2406F582E43EF583E0FFE5342405F582E43533F5832F
:200F2000EFF09062D5E0FEA3E02404F582E43EF583E0FFAD34AC331223589062D5E0FEA3FD
:200F4000E0FFF5828E83E0FCA3E08C35F536906347E0FDA3E08F828E83CDF0A3EDF09062F4
:200F6000D5E0FFA3E0906347CFF0A3EFF09062D5E535F0A3E536F045356003020ECD906294
:200F8000D5E07002A3E0606E7B007A04E4FD7F0212240222E5342406FFE43533FAA9077B71
:200FA000019000011203CCFF9000021203CCFD90000312049EFBAAF0E5342406F582E435A0
:200FC00033F583E0F5471219AE22E5342406FFE43533FAA9077B019000011203CCFF90009A
:200FE000021203CCFDE5342406FBE435338B82F583E0FB12169722740EC0E07400C0E032DE
:20100000353035365F5350500000000000002100000101752D01906732E5A5F090BF33744F
:20102000FFF090BF12E0F52BA3E0F52A205B03021107789DE6FE08E6F5828E83E0FB30E1CB
:201040004690BE27E030E03190BA0BE0FF90BE27E0C39F601390BE00120767FFFFFFFF90FC
:20106000BE13E04420F0801190BE001207670000000190BE13E04420F0789DE6FE08E6F59A
:20108000828E83EB54FDF078A0E664011846701190BA23F07431F090B469741CF0E4F6084E
:2010A000F6904953E0FF30E12554F5FFBF611F90BE27E030E01190BE00120767FFFFFFFF32
:2010C00090BE13E04420F0904953E04480F07879E625E02436F582E43467F583E0FEA3E0B6
:2010E000FF788BEEF6FC08EFF6FD2406FFE43C8F82F583E52AF0A3E52BF07F02122457782A
:2011000079E6045407F622306004122D292230360953A4FEC212C236C21F7879E625E024CA
:2011200036F582E43467F583E0FEA3E0FF788BEEF608EFF62406FFE43E8F82F583E52AF004
:20114000A3E52BF0305602D23220500302121CD22E90BE27E07858F290BC1B7401F078530F
:20116000E2700302121CE4F290B85FE0640460F8E0640560F390BF43E020E20302121C90FA
:201180004E16E0FF90B82BE054076F600302121C90BF23E054BFF090BF337440F090BE276C
:2011A000E07858F2E2FF90BA0BE0C39F04FF3395E0FEFDFC90BE0012074F90BE13E0442018
:2011C000F090B82BE05478F52ED2186470602FE52E64786029E52E64506023E52E6458609F
:2011E0001D90BE17E04402F00000000090BE03E0440190BA03F090BA237401F0D228E52EC5
:20120000600D64086009D22F90BF23E04410F090BF13E0F52E90BF23E04440F030542D30E9
:20122000182AE51E241AF582E4351DF5837401F0E51E241AF582E4351DF583E0FF90B81AFA
:20124000E054FEFEEF4EF0305502D230E52D6013788BE6FC08E6FD7F021224577879E6046A
:201260005407F6228F438D44E4789EF208E5A5F275F06F904E151230A878B4F608EFF68E9A
:2012800083E0700FE54464026009E544640460030214ADE544640B6013E5446404600D753F
:2012A000A501AF4312DBEEE4F5A5C223E5446404600B75A501AF4312D998E4F5A512309775
:2012C000F5828E83E030E50B75A501AF4312A19BE4F5A57B06AD437FFF1216979066EFE03A
:2012E000B40103123669E543D39400401C123097FF8E83123084E0601012307D123084E432
:20130000F0906431E0600214F0E54375F00AA42458F582E4345CAF82FE7B0AE4FD1239668A
:201320001230978E832465123086E054066049905282E07002A3E0603FE49067E1F0906714
:20134000E2F0A3F09067E5F09067E4F012238B789CEEF208EFF22404F582E43EF58374192E
:20136000F0EF2405F582E43EF583E543F018E2FC08E2FD7F08122358123097FFF5828E83EB
:20138000E4F07B6F7A01FD1237D5123097FF8E83241C12308F740412307C241F12308FE4D1
:2013A000F0A3742812307C240A12308F740812307C24151230732413123073241412307340
:2013C0002417123073242612308F747DF0A3E412307C242812308FE4F0A374FAF0906B46A9
:2013E000E014FF18E6FC08E6FD8C832422123086EFF08D828C83E582241912308F74FFF023
:201400009065F4E0FF8D828C83E5822417123086EFF0785BE2B543037404F2E543C3940103
:201420005034C2AF90510EE054FEF0E544640B600790510AE054FCF0D2AF906434E4F0908F
:20144000510412076700000000E4905103F0788BE254EFF2803090510EE054FDF0E5446498
:201460000B600BE020E00790510AE054FCF0906431E07012906420F090BC22E0547FF0C2A6
:2014800021E4906475F0905A36E0B543037402F090510AE07008122639789E7401F2789E46
:2014A000E260057F01122FDF789FE2F5A522E4F5A8781FE620E346E4906FEEF0A3F0906BFA
:2014C0002BF020030D7E6B7F007BF07A04FDFC1233BE906B2CE09067EDF0906FEEE064AABE
:2014E0007004A3E06455601575A5017E6B7F007C407D007BF07A041235FFE4F5A5906B3B28
:20150000E0B401035387F79050F37406F0E4F5A5128415EF600675A50112B25CE4F5A520CE
:20152000000B906B317403F0758E018006906B30E0F58E123805121C751239A6122DE912D8
:201540002F91123835E4F5A512E831E4F5A5F5A51239D8E4F5A5781FE630E20D12166B8F2C
:2015600082F5837410F012168B781FE65430601012166B8F82F5837410F0781FE612168B19
:20158000781FE630E34412238B8E5F8F608F828E83E5822404F582E43583F5837402F0EF4A
:2015A0002406FFE43EFE8F82F583740EF0A3E4F08F828E83A3A37403F08F828E83A3A3A396
:2015C000F0AD60AC5F7F04122358300014123A3C123A28123A321239EC123A1E1239F680D3
:2015E00006781FE654C0F61239C41239B01239CE1239BA12FAB6C288C28AE490BD13F0901A
:20160000BD03F090BD1B740FF090BD0A743DF0A37409F090BD037401F0E490BD0CF075A53B
:201620000112ECB4E4F5A57E047F4E7B29FA7D047C061233BE900475E0FEA3E064557003F0
:20164000EE64AA7025F5611232C1FEA3E04E60139004501232C4FF1232C1FCA3E0F5828CEA
:2016600083EFF00561E561B40DDD2212238B8E5F8F608F828E83E5822404F582E43583F547
:20168000837402F0EF2406FFE43E22A3F0AD60AC5F7F0412235822AA07A9059062D5E0FD25
:2016A000A3E09057FBCDF0A3EDF0E4A3F0A3F09057FBE0FCA3E0FD4C7003021826ED24042C
:2016C000F582E43CF583E06B60030218059057FBE0A3E02406F582E43CF583E06960030202
:2016E0001805ED2405F582E43CF583E06A6007EAF460030217E49057FBE0FCA3E0FDF58204
:201700008C83E0F8A3E0F58288834583601F8D828C83A3A3E0FEA3E0FF8D828C83E0FCA335
:20172000E0F5828C83A3A3EE8FF01204729057FDE07002A3E0704D9057FBE0FEA3E0FFF55B
:20174000828E83E0FDA3E09062D5CDF0A3EDF0906347E0FDA3E08F828E83CDF0A3EDF09009
:2017600057FBE0FFA3E0906347CFF0A3EFF09062D5E0FFA3E09057FBCFF0A3EFF0E4A3F077
:20178000A3F080589057FBE0FEA3E0F5828E83E0FEA3E0FF9057FDE0FCA3E0F5828C83EEFC
:2017A000F0A3EFF0906347E0FEA3E0FF9057FBE0FCA3E0FDF5828C83EEF0A3EFF0906347BF
:2017C000ECF0A3EDF09057FDE0FEA3E0F5828E83E0FFA3E09057FBCFF0A3EFF0EAF470030A
:2017E0000216AF229057FBE0FEA3E0FFA3EEF0A3EFF0F5828E83E0FFA3E09057FBCFF0A38D
:20180000EFF00216AF9057FBE0FEA3E0FFA3EEF0A3EFF0F5828E83E0FFA3E09057FBCFF052
:20182000A3EFF00216AF2243A110D2A4C2A490BD147401F0E4F000000000000000000000D3
:2018400090BF00E4F07411F58E90A4F4E04480F090BD10E05407781FF675200043A110D221
:20186000A4C2A4D2A4C2A490BF00E4F090BD18740FF090BD007401F090BF007403F075A505
:201880000075D00078FF79DFE4F618D9FC781EF6D8FD75A40C5387DF43A11153A3DFC2A002
:2018A000D2A00000308542C2A0000020853BD2A00000308534C2A0000020852DC20353A333
:2018C000FE53A1EF53AFF920801220A40F20B10C30B209D2037480781FF6800D74AA781F47
:2018E000F643AF40C2B6021963C2A053A3FE75A70078007F00E4F208DFFC9001007F007E1A
:201900006AE4F0A3DFFCDEFA90C0007F007E40E4F0A3DFFCDEFA75760090000078107455B0
:20192000F0A3D8FC7581FF02196322E493A3F8E493A34003F68001F208DFF4802FE493A32F
:20194000F85407240CC8C333C4540F4420C8834004F456800146F6DFE480110102040810B2
:20196000204080902E9E12196C020895E47E019360B8A3FF543F30E509541FFEE493A360A9
:20198000010ECF54C025E060A240B2E493A3FAE493A3F8E493A3C8C582C8CAC583CAF0A3D6
:2019A000C8C582C8CAC583CADFE9DEE780BE8F438D448A458B46E54645457003021B219070
:2019C00062D5E07002A3E0702312238B90578EEEF0A3EFF090578EE0FCA3E0FD2404F58263
:2019E000E43CF5837401F07F07122358AB47AD44AF431216979062D5E0FFA3E0905790CFD4
:201A0000F0A3EFF0E4A3F0A3F0905790E0FEA3E0FF4E60458F828E83A3A3E0FEA3E0FFC3F5
:201A20009546EE95455032905790E0FCA3E0FDC3E5469FF546E5459EF545A3ECF0A3EDF0E5
:201A4000905790E0FEA3E0F5828E83E0FFA3E0905790CFF0A3EFF080B0906347E0FEA3E041
:201A6000FFF5828E83A3A3E545F0A3E546F0EF2404F582E43EF583E547F0EF2405F582E40A
:201A80003EF583E543F0EF2406F582E43EF583E544F0905792E0FEA3E0FF4E701190634753
:201AA000E0FDA3E09062D5CDF0A3EDF08010906347E0FDA3E08F828E83CDF0A3EDF0906346
:201AC00047E0FEA3E0FFF5828E83E0FDA3E0905792CDF0A3EDF0905790E0FCA3E0FD8F82DD
:201AE0008E83ECF0A3EDF0F5828C83A3A3C083C082C3A3E09546FF0582D5820215831582F9
:201B0000E09545D082D083F0A3EFF0905792E0FEA3E0FF906347EEF0A3EFF04E700312337B
:201B2000CA22906B2EE064026003021BE190A622E0FEA3E0FFC390A627E09FFF90A626E057
:201B40009E903325F0A3EFF0903329E0FEA3E0FF903325E0FCA3E0FD6F7002EC6E6075E409
:201B6000905EA4F0D3EF9DEE9C401490332AE09DFE903329E09C90576EF0A3CEF0802290FE
:201B80003325E0FEA3E0FFC3E49FFF74049EFE90332AE02FFF903329E03E90576EF0A3EF58
:201BA000F090576EE0FEA3E0FFC3EE64809480500DE42FFFEE340490576EF0A3EFF0905794
:201BC0006EE0FFA3E090A62ECFF0A3EFF090A6327480F022905EA47401F0788BE254DFF221
:201BE0002290A622E0FEA3E0FFC390A627E09FFF90A626E09E903325F0A3EFF0903329E06D
:201C0000FEA3E0FF903325E0FCA3E0FD6F7002EC6E6055E490332BF0C3EF9DFFEE9CFE90E8
:201C2000576EF0A3EFF0C3EE6480948050249067FBE0601090576FE02400F090576EE0345B
:201C400002F0800E90576FE02400F090576EE03404F090576EE0FFA3E090A62ECFF0A3EFF1
:201C6000F090A6327480F02290332B7401F0788BE254DFF22278147443F2087488F2E4FF79
:201C800075F00AEFA42492F582E5F03443AD82FC75F00AEFA42488F582E5F03443F583ECC9
:201CA000F0A3EDF075F00AEFA4248AF582E5F03443F5837404F00FBF3FC6E49045FEF0A344
:201CC000F0A37404F07810743FF208742CF2E4FF75F00EEFA4243AF582E5F0343FAD82FC11
:201CE00075F00EEFA4242CF582E5F0343FF583ECF0A3EDF075F00EEFA4242EF582E5F03423
:201D00003FF5837403F00FBF3FC6E490429EF0A3F0A37403F078127442F20874ACF2E4FFC2
:201D2000EF75F016A424C2F582E43442AD82FCEF75F016A424ACF582E43442F583ECF0A30D
:201D4000EDF0EF75F016A424AEF582E43442F5837402F00FBF09C9E4904372F0A3F0A374B4
:201D600002F078167446F2087408F2E4FF75F046EFA4244EF582E5F03446AD82FC75F04692
:201D8000EFA42408F582E5F03446F583ECF0A3EDF075F046EFA4240AF582E5F03446F58340
:201DA0007401F00FBF07C6E49047F2F0A3F0A304F022AA07A9057839E2FC08E28C70F57100
:201DC000E4F572F573E57145707003021EE2E5712404F582E43570F583E06B6003021ECB41
:201DE000E5712406F582E43570F583E0696003021ECBE5712405F582E43570F583E06A60B3
:201E000007EAF46003021EB4857182857083E0FCA3E0FD4C6019857083857182A3A3E0FE81
:201E2000A3E0FF8D828C83A3A3EE8FF0120472E5734572703B857182857083E0FFA3E07843
:201E400039CFF208EFF27833E2FF08E2857182857083CFF0A3EFF018E570F208E571F278D1
:201E600039E2FE08E28E70F571E4F572F573803C857182857083E0FFA3E085738285728346
:201E8000CFF0A3EFF07833E2FF08E2857182857083CFF0A3EFF018E570F208E571F28573B3
:201EA00082857283E0FEA3E08E70F571EAF47003021DC5228570728571738571828570834A
:201EC000E0FEA3E08E70F571021DC5857072857173857182857083E0FEA3E08E70F57102D2
:201EE0001DC5228F2F8D308A318B32E53245317003022006782BE2FBAD30AF2F121DB2782F
:201F000039E2FE08E28E70F571E4F572F5737835E2FE08E22532F532EE3531F531E571459D
:201F2000706036857182857083A3A3E0FEA3E0FFC39532EE95315021C3E5329FF532E531A0
:201F40009EF531857072857173857182857083E0FEA3E08E70F57180C47833E2FE08E2FF80
:201F6000F5828E83A3A3E531F0A3E532F0782BE2FDEF2404F582E43EF583EDF07833E2FED1
:201F800008E2FF2405F582E43EF583E52FF0EF2406F582E43EF583E530F0E5734572700963
:201FA0007839EEF208EFF2800B857382857283EEF0A3EFF07833E2FE08E2FFF5828E83E0EC
:201FC000FCA3E08C72F5738F828E83E570F0A3E571F0F582857083A3A3C083C082C3A3E0CC
:201FE0009532FF0582D5820215831582E09531D082D083F0A3EFF018E572F208E573F24557
:202000007270031233CA22C0D0C0E030361153A4DF90B203E0547FF090B207E020E7F9C05C
:20202000F0C092C083C082C085C08475D008759200121013300F41D084D085D082D083D029
:2020400092D0F0D0E0D0D032C0D0C0E0C0F0C092C083C082C085C08475D0087592001238CE
:2020600062200503300E11D084D085D082D083D092D0F0D0E0D0D03275D000C0A5C000C06B
:2020800001C002C003C004C005C006C00775A500200E2F749CC0E07420C0E03212271AD0F4
:2020A00007D006D005D004D003D002D001D000D0A5D084D085D082D083D092D0F0D0E0D0EF
:2020C000D02274CBC0E07420C0E032122B7FD007D006D005D004D003D002D001D000D0A5FC
:2020E000D084D085D082D083D092D0F0D0E0D0D022C0D0C0E0C0F0C092C083C082C085C042
:202100008475D008759200122993D084D085D082D083D092D0F0D0E0D0D03232C000C0E095
:20212000C0D0D0D0D0E0D0003232328E4A8F4B8F828E83E5822404F582E43583F583E0602B
:202140000302224D7839E2FE08E2F5828E83A3A3E0FEA3E0FF7835E2FC08E2FDD3EF9DEEA3
:202160009C400302220E12238B8E4A8F4B7839E2FE08E2FF2405F582E43EF583E0FDE54B1B
:202180002404F582E4354AF583EDF0EF2406F582E43EF583E0FFE54B2405F582E4354AF5B7
:2021A00083EFF018E2FE08E22404F582E43EF583E0FFAD4BAC4A1223587839E2FE08E2FFCE
:2021C000F5828E83A3A3E0FCA3E0FDC37836E29DF218E29CF28F828E83E0FEA3E0FF78333E
:2021E000E2FC08E2FD7839E2FA08E2FBF5828A83ECF0A3EDF07833EAF208EBF27839EEF2CB
:2022000008EFF24E60030221447835F208F27835E2FE08E2FF4E602E7839E2FC08E2F582E2
:202220008C83A3A3C083C082C3A3E09FFF0582D5820215831582E09ED082D083F0A3EFF03C
:20224000E47835F208F2E47832F212236922C2AFE56E700302234F903ABE93F521300A4C5F
:202260007825E2FE08E2FFF5828E83A3A3A3E0782BF2E4782FF2D2AF782BE2FD33333354A5
:20228000F8FD90291793F5A574132DF582E43429F583E493740193FA740293F5828A831250
:2022A000086AE4F5A5C2AF1223CF80A430094D782CE2FE08E2FFF5828E83A3A3A3E0782BAE
:2022C000F2E4781BF2D2AF782BE2FD33333354F8FD90291793F5A574132DF582E43429F560
:2022E00083E493740193FA740293F5828A8312086AE4F5A5C2AF1223E0022250200803022C
:202300002250781CE2FE08E2FFF5828E83A3A3A3E0782BF2E47822F2D2AF782BE2FD33332F
:202320003354F8FD90291793F5A574132DF582E43429F583E493740193FA740293F5828ABD
:202340008312086AE4F5A5C2AF1223F1022250E4782BF2F521D2AF22748055A87003022431
:2023600057C2AF122457D2AF22748055A87003022E44C2AF122E44D2AF22748055A8700391
:20238000022BF0C2AF122BF0D2AF22748055A87003023472C2AF123472D2AF22748055A816
:2023A000700302349BC2AF12349BD2AF22748055A870030234C4C2AF1234C4D2AF22748074
:2023C00055A870030234EDC2AF1234EDD2AF22748055A87003023186C2AF123186D2AF2229
:2023E000748055A870030231BCC2AF1231BCD2AF22748055A870030231F2C2AF1231F2D276
:20240000AF22748055A87003021EE3C2AF121EE3D2AF22748055A87003021DB2C2AF121D88
:20242000B2D2AF22748055A87003022A13C2AF122A13D2AF22748055A87003023145C2AFF4
:20244000123145D2AF22748055A870030235B5C2AF1235B5D2AF228D828C83A3A3A3EFF00B
:2024600033333354F8902916931460541470030225072402600302254DE56C70107825EC41
:20248000F208EDF27827ECF208EDF280257827E2FE08E2F5828E83ECF0A3EDF018ECF2080F
:2024A000EDF2782FE2B4010A7402F27829ECF208EDF2056C436E048D828C83E4F0A3F0225A
:2024C000E56D7010782CECF208EDF27830ECF208EDF280257830E2FE08E2F5828E83ECF0D9
:2024E000A3EDF018ECF208EDF2781BE2B4010A7402F27819ECF208EDF2056D436E028D8259
:202500008C83E4F0A3F022E56F7010781CECF208EDF2781EECF208EDF28025781EE2FE0878
:20252000E2F5828E83ECF0A3EDF018ECF208EDF27822E2B4010A7402F27820ECF208EDF2F8
:20254000056F436E018D828C83E4F0A3F0228F43E4789EF208E5A5F275F09A9049C0123092
:20256000A8789CF208EFF28E83E070030226381230B3FF24811230A0E4F0EF12309EE0FF03
:2025800030E705905C2A800E1230B312309EE0FF30E60D905C29E0FEEFF4FFEE5FF0801DF5
:2025A000905C3EE0FF789CE2FC08E22480F582EC3401F583E0F4FEEF5E905C3EF0E54344DD
:2025C00080F54475A501AF4312DBEEE4F5A575A501AF4312D998E4F5A51230B3FF7B9A7A4B
:2025E00001E4FD1237D590BF23E04440F0E47870F2786DF290510EE054F3F090510AE0545B
:20260000F3FFF0788BE254BFF2EF7011122639C24E90B433E054FCF0789E7401F2789EE2F1
:2026200060119065ECE0700B906806E060057F01122FDF789FE2F5A522C2AF90BE12E04460
:2026400003F0D2AF90510EE054FCF0E4F51C751D4E751E15785DF290B81BE04480F090B874
:2026600017E04404F0E4905C54F0905C55F078787401F2087400F2E47855F2785B7404F241
:20268000E4FFEF75F009A42484F582E43452F583E4F0EF75F009A424F2F582E43451F58312
:2026A000E4F00FBF10DC788AE2541DF2788BE254A0F208E4F220000975A50112CE28E4F577
:2026C000A5E49051DFF0905C3CF0C22190BC23E054FDF07E147F2A90B60AEEF0A3EFF078D3
:2026E0003FEEF208EFF27E1C7F5D906352EEF0A3EFF090B60EEEF0A3EFF0E4906359F09053
:20270000B807F090B805F0905C2AF0905C29F0905C3EF0905C3DF0C21922C2AF782BE27824
:2027200018F27824E521F2E56ED3940150030227E37E00E56E54FE24BEF582EE343AF58391
:20274000E493F521300A4C7825E2FE08E2FFF5828E83A3A3A3E0782BF2E4782FF2D2AF78A4
:202760002BE2FD33333354F8FD90291793F5A574132DF582E43429F583E493740193FA749F
:202780000293F5828A8312086AE4F5A5C2AF1223CF8094300991782CE2FE08E2FFF5828E59
:2027A00083A3A3A3E0782BF2E4781BF2D2AF782BE2FD33333354F8FD90291793F5A5741366
:2027C0002DF582E43429F583E493740193FA740293F5828A8312086AE4F5A5C2AF1223E00E
:2027E0000227277818E2782BF27824E2F521D2AF22905919123337905918F0905918E0FEFD
:20280000C39408500D12331C6008905918E004F080E9905918E01207D9283500283F012835
:202820004902285303285D04286705287106287B0700002884ED6003D38001C3928022ED35
:202840006003D38001C3928522ED6003D38001C3929722ED6003D38001C392B122ED6003F7
:20286000D38001C392B222ED6003D38001C392B322ED6003D38001C392B422ED6003D3809B
:2028800001C392B72278A9E6FE08E6FFF5828E83A3A3A3E0FCA3E0FD78BEECF208EDF2C28D
:2028A000AF8F828E837405F078A9E6FE08E68E832408F582E43583F583E0FEA3E018A606FE
:2028C00008F6D2AFED4C703912238B78BCEEF208EFF22404F582E43EF5837403F0EF240522
:2028E000F582E43EF5837401F018E2FC08E2FD7F0E1223587E907F0078BE7490F208740036
:20290000F2C2AF906359E004F0D2AF78BEE2FE08E2FF22FF00210200000000FF212B000025
:20292000000000FFB2F90000000000FFDA280101000000FF904E0102000000FFEF1B010000
:20294000000000FF57D10101000000FF0E7B0100000000FF71550202000000FF562602037C
:20296000000000FFAFEC0204000000FF96CA0203000000FF7E790203000000FF8BE80203E1
:20298000000000FFE1E30205000000FF0021020000000030983930051A905EA2E02422F550
:2029A00082E43421F583E599F0905EA2E004F0E0F0801A905EA2E024A5F582E4345EF5830A
:2029C000E599F0905EA2E004F0E0547FF0C298309940C299905EA3E0FF905EA1E0FE6F6018
:2029E0002B30050F74222EF582E43422F583E0F599800D74252EF582E4345FF583E0F599E5
:202A0000905EA1E004F0E4905EA4F022905EA47401F0227836E22FF218E23EF27832E270DB
:202A20006F7839E2FE08E2FF4E605F8F828E83A3A3E0FEA3E0FF7835E2FC08E2FDD3EF9D07
:202A4000EE9C501108E2FC08E2FD7F0112245778327401F2227839E2FE08E2F5828E83A3D8
:202A6000A3C083C0827835E2FE08E2FFC3A3E09FFF0582D5820215831582E09ED082D083A2
:202A8000F0A3EFF0E418F208F222E47835F208F2228F43E5437003FEFF22903322E0C39572
:202AA00043F0902121E0F544854345E544C39490505074912544F582E43420F583E0703B1B
:202AC0001545E5457038C3E544954304F5442491F582E43420AF82FEAB43AD431239669017
:202AE0002121E0B544032543F075F020E544A42422F582E5F03421AF82FE22854345054480
:202B000080A912341EE4FEFF228E858F848C838D82EB22E0FFA3E0FEA3E0FDA3E0FCA3755D
:202B2000920122122B09601F122B13F0A3DB028016EDF0A3DB02800FEEF0A3DB028008EF04
:202B4000F0A3759200DBE175920022122B09602B122B13EBC394044002ECF0A3EBC3940389
:202B60004002EDF0A3EBC394024002EEF0A3EFF0A3759200EBC39404FB50D575920022C2B2
:202B8000AF782BE27823F2782EE521F2E56ED39403404F7521C77825E2FE08E2FFF5828EC2
:202BA00083A3A3A3E0782BF2E4782FF2D2AF782BE2FD33333354F8FD90291793F5A574134E
:202BC0002DF582E43429F583E493740193FA740293F5828A8312086AE4F5A5C2AF1223CF1B
:202BE00080AA7823E2782BF2782EE2F521D2AF228F828E83A3A3E024FE6020146033146053
:202C000046240370577816E2FD08E28F828E83CDF0A3EDF018EEF208EFF2227812E2FD0856
:202C2000E28F828E83CDF0A3EDF018EEF208EFF2227810E2FD08E28F828E83CDF0A3EDF0A0
:202C400018EEF208EFF2227814E2FD08E28F828E83CDF0A3EDF018EEF208EFF2229058A42E
:202C60001233379058A3F09058A3E0FEC39408500D12331C60089058A3E004F080E99058BF
:202C8000A3E01207D92CA1002CA5012CA9022CAD032CB1042CB5052CB9062CBD0700002C9F
:202CA000C3A280801AA2858016A2978012A2B1800EA2B2800AA2B38006A2B48002A2B7E45E
:202CC00033FF227F02228F678D688A698B6AE56A4569605412239C90595EEEF0FCA3EFF005
:202CE000FD90595EE0FEA3E0FF2404F582E43EF5837403F0EF2406FFE43EFE8F82F583E5EA
:202D00006BF0AA06A9077B01900001E56712043E900002E56812043E900003E569856AF058
:202D20001204F57F071223582253B5F7C26053A4FEC236C21F90BFA7E0543FF0905572E0D4
:202D40004430FD90556BE0FB7F0B12376AE490BFA3F090BFA204F0A37410F0E490B203F0BF
:202D6000788AE24401F212238B90576CEEF0A3EFF090576CE0FCA3E0FD2404F582E43CF562
:202D8000837431F07F0E1223582242FFD4FD0243FFD73A0244FFD3440245FFD5A70246FF13
:202DA000D9E00247FFD7D50250FFE18F0051FFE9D90063FFEBAF0167FFD94F0268FFCAA035
:202DC0000169FFD1C60271FFB84D0153FF98F00054FFE5B30173FFDE880274FFCFD1027551
:202DE000FFEA480076FFEA5E00E4FFEF75F007A4244EF582E43462AD82FCEF75F007A42452
:202E000047F582E43462F583ECF0A3EDF00FBF13DAE49062CCF0A3F078337462F208744790
:202E2000F2E47839F208F27832F27835F208F212238B7837EEF208EFF22404F582E43EF5FC
:202E400083E4F022300A1B782FE56CF27825E2FE08E2F5828E83E0FFA3E07829CFF208EF10
:202E6000F22230091B781BE56DF2782CE2FE08E2F5828E83E0FFA3E07819CFF208EFF2225E
:202E800030081A7822E56FF2781CE2FE08E2F5828E83E0FFA3E07820CFF208EFF2224167AC
:202EA000FB004167FA0041680900415E9E00415C6E0041540700415361004155730041554B
:202EC0006E004155720041556B0041540900415362004153660041535F0041554B00415484
:202EE000080041540A00415365004200CA000000EF4E604CC3EF9422FFEE9421FEEF7805C9
:202F0000CEC313CE13D8F9F543C39490503274912543F582E43420F583E0FB903322E02B5B
:202F2000F074912543F582E43420AF82FEE4FD123966902121E0FFE543C39F5003E543F01E
:202F4000228F658D668B6712239C905917EEF0FCA3EFF0FD905917E0FEA3E0FF2404F5824D
:202F6000E43EF5837404F0EF2406FFE43EFE8F82F583E567F0AA06A9077B01900001E5659B
:202F800012043E900002E56612043E7F0712235822E4905893F0905893E0FF75F007A4249A
:202FA000DEF582E43462AD82FCEF75F007A424D7F582E43462F583ECF0A3EDF0905893E0FD
:202FC00004F0E0B40FD0E4906340F0A3F09063477462F0A374D7F0E49062D5F0A3F0228F33
:202FE000457F0390510AE07003D38001C34002E4FF906806E052079065ECE0B50703EF707A
:20300000289065ECEFF012238B9057FBEEF0A3EFF09057FBE0FCA3E0FD2404F582E43CF5D4
:20302000837445F07F0512235822905937EEF0A3EFF0EB4A603C90A403E020E1F9C2AFAFAF
:203040000590A406ECF0A3EFF0AF0390A40AEAF0A3EFF0905937E0FFA3E090A412CFF0A35D
:20306000EFF090A403E04402F0D2AF90A403E020E1F922F582E43583F5837401F08F828EE1
:2030800083E582222424F582E5833401F58322F582E43583F5832278B4E6FE08E6222480BD
:2030A000F582EE3401F58322EF120798EF2583AF82FE22789CE2FE08E22290647AE01237BD
:2030C0008EE0703B90647AE0FB75F005A42483F582E43464F583EEF0A3EFF0EB75F005A415
:2030E0002481F582E43464F583ECF0A3EDF0EB12378E7401F090647AE004F0E0540FF022A6
:20310000905907EEF0FAA3EFF0FBA3ECF0FEA3EDF0FFA37401F0AD03AC02FB7A001233C18D
:20312000EF701C905907E0FEA3E0FFA3E0FAA3E0FB7D017C001233C4EF700490590BF090EF
:20314000590BE0FF228E2F8F308F828E83E0FEA3E0FF4E700D853082852F83ECF0A3EDF077
:20316000801B8F828E83E0FAA3E0FB4A6006AE02AF0380EE8F828E83ECF0A3EDF08D828CA1
:2031800083E4F0A3F022D56C03536EFB782FE270197825E2FE08E2FFF5828E83E0FDA3E0C3
:2031A0007829CDF208EDF2122BF0E4782FF27829E2FF08E27825CFF208EFF222D56D0353B1
:2031C0006EFD781BE27019782CE2FE08E2FFF5828E83E0FDA3E07819CDF208EDF2122BF0CD
:2031E000E4781BF27819E2FF08E2782CCFF208EFF222D56F03536EFE7822E27019781CE219
:20320000FE08E2FFF5828E83E0FDA3E07820CDF208EDF2122BF0E47822F27820E2FF08E2A1
:20322000781CCFF208EFF222D310AF01C3C0D0EDF5E9ECF5EAEFF5EBEEF5ECEBF5EDEAF568
:20324000EE7404140070FCE5E9FFE5EAFEE5EBFDE5ECFCE5EDE5EED0D092AF228F458D4605
:2032600012238B9057FEEEF0A3EFF02404F582E43EF583E545F0EF2405F582E43EF583E5E8
:2032800046F09057FEE0FCA3E0FD7F02022358D310AF01C3C0D0EDF5E9ECF5EAEFF5EBEE80
:2032A000F5ECEBF5EDEAF5EE7404140070FCE5E9E5EAE5EBE5ECE5EDFFE5EEFED0D092AFDA
:2032C0002290044EE56175F003120798E022E51E2425F582E4351DF5832275F003EF90030C
:2032E00061120798E022D287C287D287C28722E4FE12332AF583E0B50719EE75F021A4249A
:203300004EF582E43456F583E030E00712332AAF82FE220EEEB401D9E4FEFF22A31207A45E
:203320008E827583001203CC6F22EE75F021A4244BF582E43456227B017A6E79261207C4A5
:20334000E422E5A5F075A50522EF541FD39400E49400400FEF7805CEC313CE13D8F904F561
:2033600069800CEF7805CEC313CE13D8F9F569AF691233A022D310AF01C3C0D0EFF5E9ED79
:20338000F5EDEEF5EAECF5EE7402140070FC00E5E9FFE5EAFEE5EBFDE5ECFCD0D092AF2282
:2033A000D20E122A91C20E22D20E122EF0C20E22D20E12D44FC20E220238C60238D602351E
:2033C000DA0236EE0238E60238F69067AF7402F0A3E5A5F0A37480F0AF81A807E6A3F0A3F2
:2033E0007414F0E58114F8E6A3F07C677DAB7F04122358229067AF7402F0A3E5A5F0A374ED
:2034000080F0AF81A807E6A3F0A37415F0E58114F8E6A3F07C677DAB7F04122358229067A9
:20342000AF7402F0A3E5A5F0A37480F0AF81A807E6A3F0A37417F0E58114F8E6A3F07C678F
:203440007DAB7F04122358228E858F848C838D82EB601EE0FFA3E0FEA3E0FDA3E0A3759258
:2034600001F0A3EDF0A3EEF0A3EFF0A3759200DBE2227814E2FE08E2FF8E2FF530452F6044
:20348000158F828E83E0FEA3E0FF18EEF208EFF24E70031233F4AE2FAF30227810E2FE086C
:2034A000E2FF8E2FF530452F60158F828E83E0FEA3E0FF18EEF208EFF24E70031233F4AE55
:2034C0002FAF30227812E2FE08E2FF8E2FF530452F60158F828E83E0FEA3E0FF18EEF2081C
:2034E000EFF24E70031233F4AE2FAF30227816E2FE08E2FF8E2FF530452F60158F828E83CF
:20350000E0FEA3E0FF18EEF208EFF24E70031233F4AE2FAF3022D310AF01C3C0D0EFF5E9DF
:20352000EEF5EAEDF5EDECF5EE7402140070FCE5E9FFE5EAFEE5EDE5EED0D092AF22D31005
:20354000AF01C3C0D0EFF5E9EEF5EAEDF5EDECF5EE7402140070FCE5E9E5EAE5EDFFE5EEF9
:20356000FED0D092AF2225000102030405060708090A260B0C0D0E0F1011121314151617EB
:2035800018191A1B1C1D1E1F20212223242790BE27E0905799F090BE241206EA90579512B7
:2035A000074F90BE27E0FF905799E0B507E09057951206EA228F828E83E0FCA3E0FDFBAAA2
:2035C000044A60118D828C83E0FDA3E08F828E83CDF0A3EDF0AE02AF03229067F112378713
:2035E0007888ECF208EDF27884EAF208EBF27886EEF208EFF212E80F9067F012379C228EFD
:20360000858F848C838D82EA7003EB6015EB6003EA04FAE493A3759201F0A3759200DBF377
:20362000DAF1228E858F848C838D82EA7003EB6014EB6003EA04FAE0A3759201F0A3759242
:2036400000DBF4DAF22290B001EFF0A3ECF0A3EDF090B005E04410F0E490581AF000905867
:203660001AE004F0E0B40AF522E49066EFF09066F0F09066F1F0784DF208F29066FCF0901E
:20368000B403F090BC22E0547FF0228E858F848C838D82EA7003EB6013EB6003EA04FAE03B
:2036A000A3759201F0759200DBF5DAF322906B00E090B803F0906B01E090B802F0906B0280
:2036C000E090B801F0906B03E090B800F0228E858F848C838D82AF031BEF6010E0A3FF7532
:2036E0009201E0A37592006F60ECD322C3228E748F75AF05AE049067EF123787AD03AC0298
:20370000AB75AA74129A969067EE12379C228E858F848C838D82EB60121BE493A3FF759261
:2037200001E0A37592006F60EDD322C32285A53DE4F5A5EF701275A5017E6B7F007C407D56
:20374000007BF07A041235FF853DA522E4FE90F02B123906B5070B90F02F1239066003AFFA
:2037600006220EEEB401E77FFF2290A4B3EDF090A4B2EBF090A4B1EFF090A4B07480F09048
:20378000A4B0E020E7F922E5A5F075A5012275F005A42480F582E43464F58322EFF0A3E07B
:2037A000F5A5228E858F848C838D82EB600DE493A3759201F0A3759200DBF32285A53DE4BA
:2037C000F5A57E147F2A7C407DD07B2D7A011235FF853DA5228E838F82EA7003EB600DEB57
:2037E0006003EA04FAEDF0A3DBFBDAF9228E858F848C838D82EB600CE0A3759201F0A37505
:203800009200DBF422759850758920E587547F4480F587758DE6D28ED299C29822000000FC
:2038200002000400100022001F002A003F0054007F00FF0200E4902121F0FF7F90902091FF
:20384000E4F0A3DFFC9033227490F022905EA3E02425F582E4345FF583EFF0905EA3E004A7
:20386000F022906733E5A5F090BF17E0F52A90BF16E0F52B120BEF220265A59505000102F1
:2038800003040503665A0A050066778899AA75A50512DF4612AB1212A0B912C3E5E4F5A5DA
:2038A00022AB07AA06AE04AF05AC02AD037B017A000233BE90B000EFF0A3EDF0A3EBF0902A
:2038C000B0067410F02290577612378712D6EC905776E0F5A52290577612378712BA6190B8
:2038E0005776E0F5A52290577712378712AA6A90577612379C22906802123787127D9D9021
:203900006802E0F5A52275F063EE120798EE25E02583F583E02290590512334212BD04904D
:203920005905E0F5A52290592812334212D1A5905928E0F5A5229058FE12334212C10990E7
:2039400058FEE0F5A522E4FE75A504129E2DAE0775A505AF0622034A05660782099E0BBA40
:203960000DD60FF2120E8E838F82EB6005EDF0A3DBFB2285A54375A50212B1A28543A522DC
:2039800085A55F75A50112CDBB855FA52285A56375A50512DE1A8563A52290B002EFF09028
:2039A000B0067404F022E4F56EF56CF56DF56F22E4F5A512FA8AE4F5A52275A50112ECC1A9
:2039C000E4F5A52275A50212A371E4F5A52275A50112B623E4F5A522E4F5A512C601E4F58F
:2039E000A52275A501129C1FE4F5A52275A50312DE1BE4F5A52275A50312DC89E4F5A5227C
:203A000075A50312B64D75A5052275A50312AC7C75A5052275A50312D64A75A5052275A5F1
:203A20000312E017E4F5A52275A50312F81AE4F5A52275A50412E8DDE4F5A52275A5051233
:203A4000C790E4F5A522E4F5A512F4A975A50522E4F5A512C20375A5052275A50412D55412
:203A600075A5052275A50412EBD475A5052275A50412EC6875A5052275A5041243CC75A5B7
:203A8000052275A50412B24375A5052275A50412AD6F75A5052275A50512DE1A75A50422A3
:203AA00075A50512C10975A5042275A50512D1A575A50422E4F5A512E83175A505220001F9
:203AC0004343C7C7C7C70600210639000021E4FF000FBF11FB228032807280B280F212B4D0
:203AE0004675A50422126A4375A50422001208001000FFFFFFFFFFFFFFFFFFFFFFFFFFFF25
:203FC000C2AF90BD03E4F00000438E08D285C28500000002000EFFFFFFFFFFFFFFFFFFFFCF
:203FE000C2AF90BD03E4F00000538EF7D285C28500000002000EFFFFFFFFFFFFFFFFFFFFB0
:204000000011001B007900B700E00153FFFF0000000000000000000000000000000000030F
:20402000030302020202010101010101010104040404040404040404040404040404040323
:204040000303020202020101010101010101001B000A0014001EFFFF001D007900B7FFFFAA
:20406000FFFF00E001530036FFFF003C005A0053001D016F02280168021C02A703FD000208
:20408000FEFE01FE0102FE0B1441420102030405060708090A0C0D0E0F1011131516171A85
:2040A0001E1F2021232425262728292A2B2C2D2E2F3031323334353637383D3E3F4445470F
:2040C0004E4F03020504070609080B0A0D0C0F0E04360012111111114000289A07010A30F8
:2040E000365540000F08B0F03F000FFF1716F766F5445644E124C07258C03E8000043FF450
:20410000000210035F107F00550040006BA000402444F7660C900B3368860DCF0C0000093E
:20412000F54456440C03F06A42109AA124440000000000000000B0F0B0F0B0F0B0F0B0F02E
:2041400021018F80000000A10B01D612C544554400220026009C880000004ECDCC304440F0
:204160003000381021242842525E9D4B86009B0531CB0F63103011131B112A246411200F6A
:204180001E468720A0506208010D108001726D0258000280460360023001000C01E1078C03
:2041A0000C1300000B270203020205000404B599016996000000000000000000000000004A
:2041C0000000000000000000000000000000000000000000000000000000000000000000DF
:2041E000000000000000000000000000000000000000000000000000000000AA55010100BE
:204200000201000301000400000500010600010700010800010900010A0100E4F54F906840
:2042200004E0F54EE4F0C222788CE24401F2A220B34003024C71904E14E01207D9454101C0
:2042400047100248E8034A880442650543D706425907425F0C00004C3612F4D7024C3C12E6
:20426000D4CD024C3CD2229065D8E0540D24FB606724F8700302438B240C60030243D278AA
:20428000A4129BE278A5E26F700318E26E704478A5E624FE6003024C3C124CB312E90012BE
:2042A0009BFF90B81BE0904E16129B51129B76E4FDFF12D75A904F39129C7A129B9B7405E8
:2042C000F29065D8E04404F07F1A12F3E89065C8024847C222024C3C78A5E624FE601B2401
:2042E000026003024C3C12D9CB129B3A129C544401129B85129C21024C3C129C3A60FB908D
:20430000BF43E020E0099065C8E0D39402404212FA5A124CA59051041207670000000090CC
:2043200065D9E0FF12EB4512F53190510A7401F0C211129C0A9065D8E04408F07F1012F38E
:20434000E8D222E49065C8F0904F87E04490F0802F12D9CB129BFF12E90090B81BE09051B6
:2043600003129B51129C54440390BA03F09065D9E0FFE4FD12D75A90BA237401F0129CA5C0
:2043800078457405F27847F2024C3C9065C8E0D39420400E7F1912F3E812EBA0129BD002A7
:2043A0004C3C12F06E129B289065D9E0904E18129BB5E04460F0C22275F06FEF904F3912E5
:2043C0009BB9E0906446F09065D9129BB1E4F0024536C222024C3CD2229065D0E0546D2416
:2043E000FB700302446A24F870030244D824E070030244E024C07003024511246C600302B1
:20440000453C78A8129BE278A8E2FC08E2FDC3EF9DFFEE9CFED3EF9418EE9400504778AB07
:20442000E26D700318E26C6003024C3C78A5E624FE702A124C729051E0E0FFE4FD12D75A14
:204440009051E0129BB1129C7A129B889065D0E04404F07F1D12F3E8E49065C8F0784574B8
:2044600008F2024C3CC222024C3C78A5E6603224FE6003024C3C9065C8E0D39410400B7FC8
:204480001B12F3E8751C01024C3C124C72E4FDFF12D75A129B89129C2178457408F202458E
:2044A00036129C3A60FBE0640460F6E0640560F190BF43E0F55020E203024C3C124CB312E2
:2044C000FA07129C544401129B987408F2129C5BE49065C8F0024C3CE4FF12EB45024C3C0E
:2044E00012BEDC9065D0746DF090510A7402F090510EE04401129B27C222129BD0904F39C8
:20450000F0905103E0904E16F0129CA5D219024C299065C8E0D39420401A7F1C12F3E81236
:20452000F531129C11904F87E044F0F0E4904E14F0024C3CC222129CA5024C3CC222024CE9
:204540003CD2229065DAE054316401600302463278A5E614604114606214605F24036003CA
:20456000024C3CE54E64016003024C3C129B3A129B7612DE3E129C1B78457401F29068040B
:2045800004F0E490B81FF090B853F0C22F90BF23E054EFF0024C3C129B2EE54E640260038A
:2045A000024C3C129B3A129CAC12DE3E129B89784514F290680404F0024C3C129C29E54E85
:2045C00064047003024C3C129C3A60FB90BF43E030E034E54E6402702E78A5E6B402051276
:2045E000FA5A800312FA4E9068047404F0D22F90BF23E04410F078457401F290BE27E024F2
:20460000027857F2024C3C12FA0778A5E6B4020C129B7612DE3E129B9C024829124C981260
:20462000DE3E90BA2B7401F07847F2906804F0024C3C9065DAE0F9543164117052129CB695
:204640006003024C3C90BC1BE04440F0E4783EF2129C41FF240EFDE43EFCAB0590B60AF0FB
:20466000A3EBF0EF24FEFFE43E90B60E129B72E490B805F090BA237402F0E944209065DA07
:20468000F0AF05AE047BF0E4FD123966024C3C9065DAE0547164317052F550783EE204F29F
:2046A000E264026003024C3C129C3A60FB90BF43E030E01B90B85FE0640460F8E0640560F5
:2046C000F3000000000090BF43E030E1058000755001E550600FE4FF12E6039065DAE05494
:2046E000CFF0024C3C129C5B024C3C9065DAE0FF547164716003024C3CEF20E3047F0180B3
:2047000002E4FF12E6039065DAE05487F0024C3CD2229065DDE0540D24FB700302484D2461
:20472000F870030248E3240C6003024C3C129C2978A5E61460271460441460412403600358
:20474000024C3CE54E64016003024C3C129B76C21512C6FB129C1B784574038017E54E6452
:20476000026003024C3C129CACC21512C6FB129B89784504F290680414F0024C3C129C3AEB
:2047800060FB90BF43E030E04AE54E6402704478A5E6B4020512F840800312FA5A90BE2442
:2047A0001206EA9065C912074F129C869065D77401F012D0A6129B907404F2129CC0129B22
:2047C0005912ED06129BFF9065DDE04404F07F080248DD9065D5E030E11A78A5E664036098
:2047E00003024C3C129CC7129B2EE4904E14F07F070248DD904953E030E01A78A5E66403C9
:204800006003024C3C129CC7129B2EE4904E14F07F070248DD12FA0778A5E6B40215129B5A
:204820007612C6FB129B9C7403F2906804E54EF0024C3C124C9812C6FB90BA2B7401F078B9
:20484000477403F29068047401F0024C3C78A5E624FE602424026003024C3C9065CCE0441C
:2048600002F012D0A6129C54440190BA0BF0129B3A129B89784580279065D7E004F0129C63
:204880003A60FB90BF42E030E01B129C8612D0A6129BFF12ED06129CC0129B59129B907455
:2048A00004F2024C3C90BF43E020E003024C3C129B2812FA5A12F06E90510A7401F0C211AB
:2048C000124CA5129C0A904F87E044F0F0E49050A8F0C2229065DDE04408F07F1012F3E809
:2048E000024C3CC222024C3CD222129B2E78457402F29065D3E0FF541924F7604F24F0607A
:204900005F24186003024986EF30E612129C8E9065D4E020E603129C9A754F01806A78A5AF
:20492000E664027063754F0112E1D2129B809065D3E04440F09065EEE02401FB9065EDE0E0
:204940003400FAE4FD7F0F122402803C9065E8E060099065D4E04401F0802D9065D38020AD
:204960009065D4E020E4217F0C12F3E8C2AF90BE12E04403F0D2AF788CE254FEF29065D495
:20498000E04410F08002C2229065D4E0FF5407FEBE010AEF4402F0129C29024C3CEE6403E8
:2049A0006003024A5D129C29129CB66003024C3C129CC0F0E0547FF090B81AE054FEF0E05E
:2049C00054FDF0906617E060259065E8E0FDD394115008129C734418F08036EDD394791298
:2049E0009C7350054450F080284470F080239065E8E0FDD3941B5008129C734420F0801146
:204A0000EDD394B7129C7350054458F080034478F090B817E054FC4402F0E054FBF0906581
:204A2000E8E075F008A4FF90B817E05407FDED4FFFE5F0129B6A78477409F290207FE0FFA4
:204A4000A3E090B61ACF129B72E490B805F090BA2304F09065D4E04404F0024C3C9065D4CF
:204A6000E0FD540764076003024C3C129C2990B85BE06003024C3CED54F89065D4F0906578
:204A8000D3E04410F0024C3CD2229065D5E0FF543D24FB606624E87003024BDB241C600338
:204AA000024C32EF30E6129065D6E020E603129C9A129C8E754F01803A78A5E6640270339C
:204AC000754F0112E9CC129B2E129B809065D5E04440F0906B06E070057B80FA800F906555
:204AE000F2E02401FB9065F1E03400FAE4FD7F0F12240278457406F2024C3C784AE2FDC312
:204B000078A5E69D5403F54D6401704E129C8690BE27E0C39D1313543F049065D7F0E0FFF8
:204B200064057003024BD3EFD3940540117F1312F3E89065D57480F0129B2E024BD3129BF8
:204B40003A90B85BE0640C60F8E0640160F312E15590BE27129B83024BD39065D7E06073AC
:204B6000E58E547070057551288003E4F551E4F550E550C39551500500055080F4E54D6433
:204B8000036004E54D704C90BF43E030E04590B85FE0640560F8000090BF43E030E231906C
:204BA000B82BE054786410702790BE27E07858F29065CCE04402F012E15512FA07129B76EF
:204BC00090BA237401F0129C5B78457407F2800312FA5A78457407F2024C3C12BEDC90BE39
:204BE00027E0540378A5F69065D5E04420F090510EE04401F090510A7402F0129BD0905193
:204C000003E0904E16129B27904F39E4F012D9CB129C54440390BA0BF0783FE2FF08E290A7
:204C2000B60ACFF0A3EFF0D222904E18E04490F0800AC2228006788CE254FEF2302232E45F
:204C400090B8BBF0E54F600B906B4A129CD14440F08009906B49129CD154BFF090BA23E0EE
:204C600020E00790BA2BE030E00790B87BE054FCF02212D9CB90BE27E054FC440390BA0BC5
:204C8000F090B60A741CF0A37470F090B60E741CF0A37482F0C2152212EE8D90BE27E004A1
:204CA00090BA0BF0227E507FF97C6B7D007B0A1237ED2212D9CB906B46E0FF12B6BF228FF8
:204CC00051E478A8F278AAF2784C7406F2E4906762F078ABF20804F278A9E51CF2E2FB75A3
:204CE000F06FA42415F582E5F0344EF583EB2583AF82F5528F53F583E5822449F582E5831A
:204D00003401F583E0541F18F2700302542290BE17E04402F00000000090BE00E0FCA3E076
:204D2000FDA3E0FEA3E0FF78011206A078A6EEF208EFF278AAE204F278A8E2146023147044
:204D400003024E8924FE70030250C624F470030252C82408600302542278ABE204F20254CB
:204D600022E553245AF582E5523401F583E0FEA3E0FF78A6E2FC08E2FDC3EF9DFFEE9CCF16
:204D800024FFCF34FFFEE5532454F582E5523401F583EEF0A3EFF0E553246BF582E55234DC
:204DA00001F583E0FFE553245AF582E5523401F583E0FCA3E0C39FFFEC9400CF24FFCF3455
:204DC000FFFEE553245AF582E5523401F583EEF0A3EFF0E5532449F582E5523401F58374F1
:204DE00002F0AD03782BE2FB7F05122413E553246BF582E5523401F583E0FF7846E2F9FD2D
:204E0000EF2DFFE433FEE5532454F582E5523401F583E0FCA3E0D39FEC9E5003025422E54C
:204E200053245AF582E5523401F583E0FEA3E0FF78A6E2FC08E2FDC3EF9DFFEE9CFEE9FD47
:204E4000C3EF9DFFEE9400CF24FECF34FFFE78A4F2FA08EFF2FB78A9E2FD7F05122402E504
:204E6000532449F582E5523401F5837408F0E478ACF218E204F2E553244AF582E552340138
:204E8000F583E04401F0025422E5532454F582E5523401F58374FFF5F012047278A7E2F52C
:204EA00054E553245AF582E5523401F583E0FEA3E0FFC39554F554784CE2FDE554C39D50AC
:204EC00009E55494004003E554F2784CE2FD785CE2FCC39D5006784FECF28004784FEDF2B4
:204EE00078A7E26F700318E26E6003025059E553246BF582E5523401F583E0FF7E00E553A2
:204F00002450F582E5523401F583E0FCA3E02FFFEE3CCF24FFCF34FFFEE5532458F582E509
:204F2000523401F583EEF0A3EFF090510AE064027072E5532468F582E5523401F583E060A0
:204F40005DE553246AF582E5523401F583E06011E5532468F582E5523401F5837402F0807D
:204F60001CE5532469F582E5523401F583E0FFE5532468F582E5523401F583EFF0E55324BC
:204F800068F582E5523401F583E0FF12F27FE553244BF582E5523401F583E04408F0E47872
:204FA00062F2802E78A9E2FF75F06FA42418F582E5F0344EF583EF2583F583E04460F090E0
:204FC0006762EFF0E5532446F582E5523401F583E4F0E553244BF582E5523401F583E04432
:204FE00080F0855382855283A3A37404F078A9E2FF75F06FA42418F582E5F0344EF583EFF4
:205000002583F583E04480F0E5532449F582E5523401F5837404F0D219E553246BF582E566
:20502000523401F583E0FFE5532454F582E5523401F583E4F0A3EFF0E553244BF582E552DC
:205040003401F583E04420F0E553245DF582E5523401F583E4F0025422E5532454F582E503
:20506000523401F583E0FEA3E04E6003025422E5532456F582E5523401F583E0FEA3E0FF3A
:20508000E553245AF582E5523401F583EE8FF0120472E5532455F582E5523401F58374800A
:2050A000F0E553244BF582E5523401F583E04480F078A9E2FF128E40EF700302542278AB8B
:2050C000E204F2025422E553245AF582E5523401F583E0FEA3E0FF78A7E2B5071818E2B58B
:2050E0000613E553244BF582E5523401F583E030E503025422E553244BF582E5523401F5A6
:2051000083E030E533E5532456F582E5523401F583E0FEA3E0FFE553245AF582E5523401DE
:20512000F583EE8FF0120472E553244BF582E5523401F583E054DFF0E5532454F582E5529F
:205140003401F58374FFF5F0120472E5532458F582E5523401F583E0FEA3E04E6013E55359
:205160002458F582E5523401F58374FFF5F0120472AF53AE5212F163E5532458F582E552AE
:205180003401F583E0FEA3E04E6003025216855382855283A3A37402F078A9E2FF75F06FB0
:2051A000A42418F582E5F0344EF583EF2583F583E0547FF0E5532452F582E5523401F5830E
:2051C000E0FCA3E04C6042E553245DF582E5523401F583E07033E5532449F582E552340163
:2051E000F5837410F0E5532452F582E5523401F583E0FCA3E0FDE5532458F582E5523401C7
:20520000F583ECF0A3EDF08045128E40EF603F78ABE204F2803878A9E2D394004030E553C2
:20522000244BF582E5523401F583E030E720E5532454F582E5523401F583E0FEA3E04E6073
:205240000D855382855283A3A3A3E04420F0E5532454F582E5523401F583E0FEA3E04E7046
:2052600022E5532456F582E5523401F583E0FEA3E0FFE5532454F582E5523401F583EEF0B6
:20528000A3EFF0E553245AF582E5523401F583E0FEA3E0FF78A7E26F700318E26E6003026B
:2052A0005422E5532456F582E5523401F583E0FEA3E0FFE553245AF582E5523401F583EE0C
:2052C0008FF0120472025422E5532454F582E5523401F58374FFF5F0120472855382855233
:2052E00083A3A37402F078A9E2FF75F06FA42418F582E5F0344EF583EF2583F583E0547FC1
:20530000F0E5532458F582E5523401F583E0FEA3E04E6013E5532458F582E5523401F5835D
:2053200074FFF5F0120472AF53AE5212F163E5532458F582E5523401F583E0FEA3E04E70F7
:205340000F78A9E2FF128E40EF600578ABE204F2E553245AF582E5523401F583E0FEA3E09B
:20536000FF78A7E26F700318E26E6003025422E553246BF582E5523401F583E0FF7E00E5A4
:20538000532450F582E5523401F583E0FCA3E02FFFEE3CCF24FFCF34FFFEE5532458F58217
:2053A000E5523401F583EEF0A3EFF0855382855283A3A37404F078A9E2FF75F06FA4241891
:2053C000F582E5F0344EF583EF2583F583E04480F0E5532449F582E5523401F5837404F07C
:2053E000E553246BF582E5523401F583E0FFE5532454F582E5523401F583E4F0A3EFF0E566
:20540000532456F582E5523401F583E0FEA3E0FFE553245AF582E5523401F583EE8FF01274
:20542000047278ABE26006788CE254F7F22278A87401F290B82BE0547878A6F2C22FC22BB2
:20544000C229E408F2E054077859F278A6E21207D954E10855471054AC1854AC2054B8283E
:2054600054C23054CB38553340553E4854985054985854D46054D4685482705482780000C0
:20548000554978A6740426F6D22978A87405F2187401F2D22F02554978A60606D22978A8D1
:2054A0007403F2187401F2D22F025549D22978A77401F2D22F02554978A77401F2D22F02B8
:2054C000554978A77401F2D22F807E78A77401F2D22F807578A6060678A77401F2D22F80FC
:2054E00068D22B904E14E0B4061690510AE0B4020FE4904E14F07F1612F3E8E49065D0F034
:20550000904E14E0B404159065D5E030E30EE4904E14F09065D5F07F1612F3E89066F0E059
:20552000B40126904E34E0FFA3E0784DCFF208EFF2801678A77401F2D229D22F800B78A7EB
:205540007401F2D22F8002D22F90B82BE030E70F851E82851D83A3A3A3E04410F0801B8570
:205560001E82851D83A3A3A3E054EFF0E51E2446F582E51D3401F583E4F0851E82851D83B9
:20558000A3A3A3E0FF20E30302579B90B82AE020E00302579B851E82851D83A3A3A3EF548A
:2055A000F7F0E51E2434F582E4351DF583E020E2030256C3785EE2FE08E2F5828E83E06418
:2055C0000360030256C318E2FE08E2F5828E837404F012238B78A4EEF2FC08EFF2FD18E2E0
:2055E000FE08E2FF2404F582E43EF5837405F0785EE2FA08E22407F582E43AF583E0FBEF84
:205600002405F582E43EF583EBF07F0312235875F06FE51CA42418F582E5F0344EF5832546
:205620001CF583E054FDF0E51E2448F582E51D3401F583E0FF30E057E51E2448F582E51DF2
:205640003401F583EF54FEF0E51E2460F582E51D3401F583E030E110E51E2448F582E51DD6
:205660003401F583E04402F0E51E2460F582E51D3401F583E030E210E51E2448F582E51DD0
:205680003401F583E04404F0AD1C7F1C12F2E9785EE2FE08E22408F582E43EF583E0FEA396
:2056A000E0FF18EEF208EFF24E601875F06FE51CA42418F582E5F0344EF583251CF583E0D0
:2056C0004401F0E51E2434F582E4351DF583E06402600302579B7849E2700218E2700302F4
:2056E000579B12238B78A4EEF208EFF22404F582E43EF5837406F0EF2405F582E43EF58347
:20570000E51CF018E2FC08E2FD7F031223587848E2FE08E2F5828E83E030E25E12238B7812
:20572000A4EEF208EFF22404F582E43EF5837403F0EF2405F582E43EF583E51CF07848E2A0
:20574000FE08E22405F582E43EF583E0FF78A4E2FC08E2FD2406FBE43CFA8B82F583EFF0C4
:205760007848E2FE08E22406F582E43EF583E08B828A83A3F07F06122358C2207848E2FE43
:2057800008E2FFF5828E83E054F0FDBD70069067647406F08F828E837408F09066F0E054D7
:2057A0001E600302582C20290302582C90B82AE05402F54EE51E2446F582E51D3401F58392
:2057C0007404F0E51E241DF582E4351DF583E0654E7031E51E241EF582E4351DF583E0FF7B
:2057E00090B82FE05403B5071B9066EFE0703DC22F12FA5AE51E241AF582E4351DF5837481
:2058000001F0802878A8E2D394014020906762E0601AC2297401F2C22F12FA5AE51E241A88
:20582000F582E4351DF583E4F078A6F6E51E2449F582E51D3401F583E0FF541E70030259A6
:20584000AAEF5414602A90510AE0B4010B851E82851D83A3A37404F075F06FE51CA4241885
:20586000F582E5F0344EF583251CF583E04480F020290302591EE51E2452F582E51D3401A9
:20588000F583E0FEA3E0FF78A8E2FD7C00EF2DF54FEC3EF54EE51E2458F582E51D3401F5C6
:2058A00083E0FEA3E0C3954FEE954E505790510AE0B4011DE54F24FFFFE54E34FFFEE51E8B
:2058C0002458F582E51D3401F583EEF0A3EFF08013E51E2458F582E51D3401F583E54EF06B
:2058E000A3E54FF0E51E2449F582E51D3401F583E05428700FE51E2449F582E51D3401F55D
:20590000837404F090B82FE05403FFBF0310E51E244BF582E51D3401F583E04440F0E51E2E
:20592000244BF582E51D3401F583E030E62030291D851E82851D83A3A3A3E04420F0E51EDC
:20594000244BF582E51D3401F583E054BFF090510AE064017054E51E244BF582E51D3401BB
:20596000F583E0FF30E723783CE2B4101DE51E244BF582E51D3401F583EF547FF0851E82B0
:20598000851D83A3A3A3E054DFF020291D851E82851D83A3A3A3E0542F700FE51E245DF502
:2059A00082E51D3401F5837401F090510AE0B4011178A8E2D394014003025B0112A02602DB
:2059C0005B01129CE1E51E244BF582E51D3401F583E0FF30E723783CE2B4101DE51E244B42
:2059E000F582E51D3401F583EF547FF0851E82851D83A3A3A3E054DFF09066F0E0541E70F1
:205A000003025B0178A7E27003025B0190B82FE05403FFBF030918E264187003025B01781C
:205A2000A6E2FF131313541FF54E9066F2EFF090B82FE054039066F3F090B82EE0541FFEDB
:205A4000A3E054F87803CEC313CE13D8F9FF9066F8EEF0A3EFF0E54EC39404405F74FC2597
:205A60004EF54E906700E0FF7028E54E25E0244EF582E43440F583E493FC740193FDD3905B
:205A800066F9E09D9066F8E09C4031ECF0A3EDF0802AEFB42026E54E25E02466F582E4340F
:205AA00040F583E493FE740193FFD39066F9E09F9066F8E09E4005EEF0A3EFF0A229E4337E
:205AC0009066FBF09066F17402F09066FCE070167E037F4A9066F6EEF0A3EFF09066F4EED2
:205AE000F0A3EFF080147E077F479066F6EEF0A3EFF09066F4EEF0A3EFF09066FCE0640188
:205B0000F09065D8E030E01AA3E0B51C15904E14E0B40502E4F0E49065D8F07F1412F3E8D3
:205B20008023904E14E0B4021C9065DEE0B51C159065DDE030E30EE4904E14F09065DDF02A
:205B40007F1412F3E812FA7290BE09E0FFE51E242AF582E4351DF583EFF090BE0AE0FFE5A0
:205B60001E242BF582E4351DF583EFF012FA25E51E2419F582E51D3401F583EFF0851E8219
:205B8000851D83E030E603129E8C22E478AAF208F208F208F208F278A8F208F278A9E2FF9B
:205BA000C3940240030262BE75F09AEFA424C0F582E5F03449F583EF2583F583E020E70377
:205BC0000262B6E2FB75F09AA424C0F582E5F03449F583EB2583AF8278A6F208EFF278AC25
:205BE000E204F290BE17E04402F00000000090BE00E0FCA3E0FDA3E0FEA3E0FF7801120614
:205C0000A078A4EEF208EFF208E2FE08E2F5828E83A3E008F26402707C789DE6FE08E68E61
:205C2000832488F582E5833401F583E06005AF031270B278A6E2FE08E2FF2425F582E43EB5
:205C4000F583E0FCA3E0FD78A4E2FA08E2FBC3ED9BFDEC9AFC7869E2F9FBC3ED9BFDEC944A
:205C600000CD24FFCD34FFFC78ADF208EDF2EF247FF582EE3401F583E02402FFE92FFF7802
:205C8000AAF2D3ED9F7480F86C98500978A87408F2E4786EF278A8E224F87003025D2A2438
:205CA000F87003025D3A24D06032243E60030262AB789DE6FE08E68E832488F582E58334CF
:205CC00001F583E0700778A9E2FF1270B278A9E2FF12B1A678ABE204F20262AB90510AE07E
:205CE0006408702A78A6E2FE08E22446F582E43EF583E0FF54076016EF20E41218E2FE0886
:205D0000E22489F582EE3401F583E020E00B905326E0540370030262AB78A9E2FF78A4E235
:205D2000FC08E2FD12762F0262AB78A6E2FE08E2F5828E83A37410F0D24E78A6E2FE08E22B
:205D4000FF2487F582EE3401F583E0F4600DEF2487F582EE3401F583E014F078A6E2FE08B0
:205D6000E22425F582E43EF583E0FEA3E0FF78A5E26F700318E26E600302624E78A6E2FE2B
:205D800008E2FF2487F582EE3401F58374FFF0EF2489F582EE3401F583E06401707918E224
:205DA000FE08E2FF2423F582E43EF583E0FCA3E02401FDE43CFCEF243EF582E43EF583E0C5
:205DC000FEA3E0D39DEE9C403A18E2FE08E2FF243EF582E43EF583C083C082E0FCA3E0FD99
:205DE000EF2423F582E43EF583E0FEA3E02401FFE43EFEC3ED9FFFEC9ED082D083F0A3EFB8
:205E0000F0802978A6E2FE08E2243EF582E43EF583E4F0A3F0801578A6E2FE08E2243EF553
:205E200082E43EF58374FFF5F012047278A6E2FE08E2FF2429F582E43EF583E020E203023A
:205E40006008EF241DF582E43EF583E0FCA3E0FDEF2433F582E43EF583E0FEA3E06D7002A6
:205E6000EE6C600302600818E2FE08E2FF2436F582E43EF583E0FCA3E0FDEF243CF582E4A9
:205E80003EF583ECF0A3EDF018E2FE08E2FF2429F582E43EF583E054FBF08F828E83E0444C
:205EA00010F018E2FE08E2FF2489F582EE3401F583E0B4041490510AE0B4080DEF2489F571
:205EC00082EE3401F5837401F078A6E2FE08E2FF242DF582E43EF583E0FCA3E0FDEF242167
:205EE000F582E43EF583E0FEA3E06D7002EE6C602218E2FE08E22421F582E43EF583ECF061
:205F0000A3EDF018E2FE08E22435F582E43EF5837401F078A6E2FE08E2FF242FF582E43E7D
:205F2000F583E0FCA3E0FDEF2423F582E43EF583E0FEA3E06D7002EE6C602218E2FE08E248
:205F40002423F582E43EF583ECF0A3EDF018E2FE08E22435F582E43EF5837401F078A6E2DC
:205F6000FE08E2FF2431F582E43EF583E0FCA3E0FDEF243AF582E43EF583E0FEA3E06D70DC
:205F800002EE6C605218E2FE08E2243AF582E43EF583ECF0A3EDF018E2FE08E2FF2436F516
:205FA00082E43EF583E0FCA3E0FDEF243CF582E43EF583ECF0A3EDF018E2FE08E2FF243E6A
:205FC000F582E43EF583ECF0A3EDF0EF2435F582E43EF5837401F078A6E2FC08E2FD242B64
:205FE000F582E43CF583A3E025E0FF0582D5820215831582E033FEED242BF582E43CF583A0
:20600000EEF0A3EFF002617190510AE0FF64046008EF6408600302610C78A6E2FC08E2FDA2
:206020002421F582E43CF583A3E025E0FF0582D5820215831582E033FEED2425F582E43C98
:20604000F583EE8FF0120472304D3E786BE2FF78A9E2FE6F600302617175F09AEEA424C038
:20606000F582E5F03449F583EE2583AF82FE78A6F208EFF28E8374C0F0C24D90510AE064AE
:2060800004600302617102617178A6E6702BA24CB35026A222B3502178A6E2FE08E2FFF577
:2060A000828E83E0FD5490649070030261718F828E83ED44C0F002617178A6E2FE08E2246E
:2060C00021F582E43EF583A3E025E0FF0582D5820215831582E033FE7869E2FDC3EF9DFFD9
:2060E000EE9400CF24FFF54EEF34FFF54D78A9E2FDAB4EAA4D7F16122402D24E78A6E2FEAA
:2061000008E2F5828E83A37440F0806578A6E2FE08E22421F582E43EF583A3E025E0FF0517
:2061200082D5820215831582E033FE7869E2FDC3EF9DFDEE9400CD24FFF54EED34FFF54D21
:2061400078A6E2FC08E22425F582E43CF583EE8FF012047278A9E2FDAB4EAA4D7F16122451
:2061600002D24E78A6E2FE08E2F5828E83A37440F078A6E2FE08E2243EF582E43EF583E00B
:20618000FEA3E04E60030262AB12238B8E4D8F4E8F828E83E5822404F582E43583F5837496
:2061A00002F078A9E24480FFE54E2405F582E4354DF583EFF0E54E2406FBE43EFA8B82F521
:2061C000837405F0E4789FF608F690BA23E0548CF090BA2BE0548CF090BA23E0440CF09085
:2061E000BA2BE0440CF090B433E054FEF078A6E2FE08E2F5828E83E054BFF0E5822440F5EE
:2062000082E43583F583E0701AC24C8B828A83A3F018E2FE08E22417F582E43EF583743EE3
:20622000F08020E54E2406FFE4354D8F82F583A3E4F078A6E2FE08E22417F582E43EF583D8
:206240007408F0AD4EAC4D7F04122358805D78A6E2FC08E2FD2487F582EC3401F583E07003
:206260004A18E2FE08E2FF241DF582E43EF583E475F001120472EF2421F582E43EF583A3E7
:20628000E025E0FF0582D5820215831582E033FEED2425F582E43CF583EE8FF01204727848
:2062A000ABE204F278A9E2FF12B1A678ABE26006788BE254BFF278A9E204F2025B9C227512
:2062C0003301E4F5347E577F737C1C7D7012AC291298EB1298491207069057831206EA1225
:2062E000052F78021206A0EE547F905789F0A3EF1298EA3400F583EF240512985C905790B0
:20630000F09065A41298769065DFE0640160030263E190578F04F0E4905771F0905771E044
:20632000FFC3940140030263C9EF75F008A42403F582E43466F583E024FE600C24FE6061B0
:2063400024037076E40263B6E4905770F0905772F0905772E0FFC39403503CE0FE90577169
:20636000E0FD75F008A42407F582E43466129857FCED12992B1298575CFE747F2FF582E477
:206380003457F583E05CB50606905770E004F0905772E004F080BA905770E06403701B80C2
:2063A00015905771E012992BAD82FC7E577F787B061236CEE43390578FF090578FE06009F0
:2063C000905771E004F002631C90578FE0B40111A31297D2FEA3E024FF1297F4E4F0026659
:2063E0002912986EFF4E6051E533604DA3EEF0A3EFF02403FFE43EFE7C577D787B061236BF
:20640000CEE433F533702612986EFFF5828E83A3A3E0B40218787DE2FC08E224051297AA0D
:20642000700B7534018F828E83A3A304F012986EF5828E8312987680A8E53364016009E528
:20644000346401600302661C9065A4801112986EFF4E600FA3EEF0A3EFF0F5828E83129889
:206460007680EA7F01122A91EE12987B4E70030265EA12986EFFF5828E83E4F0A3F09065CF
:20648000A4E07002A3E070059065A4800D12986EFFA3E0FCA3E0F5828C83EEF0A3EFF012D7
:2064A00097CFFEA3E0FF7C577D787B081237ED12238B905791EEF0A3EFF0906602E0704451
:2064C0001297CFFEA3E02409FFE43EFE7C577D7F7B031237ED90578AE0FF905790E0FD123E
:2064E00097D3FAA3E0240CF582E43AF583EFF0905789E0FFED1297D312989912983D740241
:20650000F00265A9906602E064017022126630FCA3E0240C12989E1298EA3400F583EF24BA
:206520000412985CFF1297CF1298990265A0906602E064027073126630FCA3E0240C12986E
:206540009EF0787DE2FE08E2FF2406FDE43EF583ED240412985CFD1297CFFAA3E0240DF5FB
:2065600082E43AF583EDF090578BE0FCA3E0FDF5828C83A3A3E4F0905788E06026EF2405CB
:206580001297F4E0700F8D828C83A3A30412983D742FF0801412986EF5828E83A3A374022D
:2065A000F0800012983E7422F01297CFFCA3E0FD90578CE02403FF90578BE03400FE7B068B
:2065C0001237ED905791E0FEA3E01297F17402F0905790E0FDEF24051297F4EDF09057914E
:2065E000E0FCA3E0FD7F0412235890578BE07002A3E070351298507F8612241312238B78C3
:206600007DEEF208EFF21297F2740DF0EF24051297F41298657F05122358800D1297CFFE50
:20662000A3E024FF1297F4E4F09066A37405F022905790E025E024BFF582E43465F583E094
:20664000FEA3E02408FFE43EFE7C577D7F7B031237ED90578AE0FF905790E0FD25E024BF5F
:20666000F582E43465F583E0FAA3E0240BF582E43AF583EFF0905789E0FFED25E024BFF51D
:2066800082E43465F583E02290BE17E04403F00000000090BE03E0540378A5F6E620E06B19
:2066A00012E966786DE26003125B8B78A6E6D39400400116302428C224C2AF90BE12E0443E
:2066C00040F07865E2FF08E290BE06CFF0A3EFF090BE13E04480F0D2AF7862740CF22278F1
:2066E00047E2783DF2E47847F27845E2783CF2E47845F2906475E0FF906448F0E49064759C
:20670000F0BF090790BC22E0547FF078A6E6700312421B78A5E6FD30E003026A4290BE179D
:20672000E04403F090510AE0640160030268A8ED704C30112F08E6702B788CE24402F2904D
:20674000BF23E054FEF090BE03E054FC440190BA0BF012D9CB7D01AF1C12D75A12C40BC245
:2067600011026A32202103026A32302203026A3278A6E66003026A3212DEC6026A3278A51F
:20678000E664026003026A3230192208E6601C12FA5AE51E241AF582E4351DF583E4F078BF
:2067A000A6F690BF23E054E7F0C22FC21978A6E66003026A32783CE2641060030268A290E6
:2067C000B85FE0640B60F8E0640460F3E0640560EE90BF43E0F54C20E20302686C90B82BC8
:2067E000E054077859F2851E82851D83A3E0FFE2FEEF6E706412542E202F03026A3290B8F2
:206800005FE0702490BF43E0F54C30E308E4FF12CF07026A32E54C30E406127B1E026A32DA
:20682000E4FF12CF07026A32302924E51E241AF582E4351DF583E4F0E51E241AF582E43567
:206840001DF583E0FF90B81AE054FEFEEF4EF090BF23E04418F0026A32E51E241AF582E42D
:20686000351DF583E4F012DF4C026A32E51E241AF582E4351DF583E4F012DF4CE51E2449B8
:20688000F582E51D3401F583E020E403026A32E51E2458F582E51D3401F583E4F0A3F0023F
:2068A0006A3212A026026A3290510AE064026003026A28301803026A3230191490BE17E013
:2068C0004402F00000000090BE03E0540378A5F69066F0E064017034D3784EE2940018E20F
:2068E000940040289066F1E0602208E224FFF218E234FFF208E2700218E27010D225904E8A
:2069000034E0FFA3E0784DCFF208EFF278A5E6640260030269FB08E66003026A32A222B3DA
:206920004003026A32A24CB34003026A32904E17E0540360030269E630195FC21090B85BF7
:20694000E0700A904F7DE0FF12D7F8800312D9CB904F7DE0FFD39400403CEF25E078A6F662
:2069600090BF23E04401F0904F60E030E35A904F80E0FF7E00904F65E0FCA3E02FFFEE3C4D
:20698000CF24FFCF34FF904F6DF0A3EFF0904F60E054F7F08032D210802E9066EFE0B4012F
:2069A0000512EA8B8019904E40E0FF90BE0AE0C39FC394044004D2338002C23312D9CBD278
:2069C0001090BF23E054FEF078457410F2E4FDFF12D75A90BE03E054FC440390BA0BF0129E
:2069E000C40BC233804C904F5EE030E406904F727401F0788CE254FDF28037301034A22202
:206A0000B3502F78A5E6702A08E67026A24CB3502190B85FE0640B60F8E0640460F3E064E4
:206A20000560EE12BDC0800A90510AE0B40803129966785DE260057F02124CBF788CE2545B
:206A4000BFF22290B6B1E04407F07D527C00E4FF12FAAB7D227C907F1E12EE49E4FDFC1FDF
:206A600012EE497C2212EE49E49058F5F012D5DBC3940940F87D227C107F1E12EE49E49056
:206A800058F5F012D5DBC3940A40F890BA23740CF090BA2BF0E49058F5F090B86E7402F04F
:206AA000A37458F012D5C190B85FE0B40AF990B85FE070FA12D5DEB403E07DFF7C7F7F1C32
:206AC00012EE497D3F7CD80F12EE4912FAAE7D7F7F1D12EE499003C47F0C12D5729003C6D6
:206AE00012EE439003C812EE439003CA12EE43E4FDFC7F0812EE499003C212D5AF7DAE7CD6
:206B0000197F1E12EE497DA17C00E4FF12EE499003CC7F2112D5B19003CE12EE439003D012
:206B200012EE437D007C0C7F2C12EE4990B0017411F090B005E04404F090B005E020E2F9E6
:206B400090B02AE0FFA3E09058F0CFF0A3EFF09058F0E0FEA3E07803CEC313CE13D8F9FF47
:206B6000EE4401FE9058F0F0FCA3EFF0FD7F1112EE4912D57A90B8E274D9F0A3741AF0904F
:206B8000B87AE04440F090B68CE0548F4440F090B83BE04480F090B83AE044E0F090B87A17
:206BA000E0547FF090BC227480F090B86EF012D5C190B85FE0B40BF912D57A12FAAE12FA2C
:206BC000AE9003C4A3E09058F3F07F0112D59412D5E6FAA3E0FBD39FEA9E400A7CC512D6B5
:206BE0000B74C5F0802512D5D1EB9FEA9E501C7F2A12D59412D5D19058EFE09F9058EEE09E
:206C00009E50087CC712D60B74C7F09058F4E0FE9058F3E07C002400FFEC3EFE12F976124E
:206C2000D59F12D5E6FCA3E0FDD39FEC9E40099058F3E024FEF0801012D5D1ED9FEC9E50D7
:206C4000169058F3E02402F09058F3E0FFD394014005EF942840B49058EEE0FEA3E0FF7D94
:206C6000077C001233759058EA12074F9058ECE0FEA3E0FF7D0A7C001235169058EEEEF055
:206C8000A3EFF0E49058F2F09058F2E0FFC3940E5030EF12D5F3E4FD12D58212FAAE90B811
:206CA000E512D5FF009058EEE0FEA3E0FFD390B8E7E09F90B8E6E09E40089058F2E004F0B0
:206CC00080C69058F2E0FF900413E0FEC3EF9E9058F2F09003E6E090B68CF090B8E5E0549A
:206CE000FEF090040AE090B8E2F0E4A3F090BA2BE0440CF090B83BE0547FF090B83AE05426
:206D00001FF09058F2E012D5F39003707F1112D572900370E0C454079067CFF09067D1F074
:206D20009067D4F0900370E0FFA3E090676ECFF0A3EFF09003607F0812D5B990034A12D5AF
:206D4000AF90036612EE4390036812EE4390036A12EE4390036C12EE43E4FDFC7F1C12EE10
:206D60004990037C7F1E12D5B9900382E0FCA3E0FD7F2112EE49900384E0FCA3E0FD7F230F
:206D800012EE49E4FDFC7F1D02EE498E538F5490B81BE054874418F09066F0E0541E600D25
:206DA000851E82851D83A3A3A3E020E30FE51E241BF582E4351DF583E06402F090B817E0D2
:206DC00054FC4403F0E5542404F582E43553F583E075F008A4FF90B817E05407FDE5F0ED27
