:020000040000FA
:200000000220C1021B4B02010E2222021C6A22222222FF021B96FFFFFFFFFF021C78FFFFEF
:20002000FFFFFF021C3FFFFFFFFFFF021C77FFFFFFFFFF021C69E4F564F562F563F56522EC
:200040000220F78E838F82EB6005EDF0A3DBFB2275A5000220C185A53B75A502128E1885E2
:200060003BA522021C787B017A5D797290321612085DE4903215F0903215E0FEC3940C5048
:2000800011A312085412329A6008903215E004F080E5903215E012086600C10000C501002A
:2000A000C90200CD0300D10400D50500D90600DD0700E10800E50900E90A00ED0B00000071
:2000C000F3A2B6802AA2908026A2808022A2B1801EA2B2801AA2B38016A2B48012A2878034
:2000E0000EA291800AA2A28006A2A48002A2B5E433FF227F022275A50112BB0C75A5012240
:20010000C2AFE4F5A512C00012018D00002275A501020C4AE4F5A5020040C2AFE4F5A51228
:2001200041DD120188000022C2AFE4F5A5124233120188000022C2AFE4F5A512413E12011E
:2001400088000022C2AFE4F5A5124208120188000022C2AFE4F5A51240D812018800002217
:20016000C2AFE4F5A5124236120188000022E4F5A5900011120854AE02AF017C107D007BD8
:20018000121231E412018D22900011EFF0900010E0F5A5220203D6E86480F8E933E8336072
:2001A000110460F0ED33EC337009E8FCE9FDEAFEEBFF220460DED3EB9FEA9EE99DE8C2E726
:2001C0008CF0C2F795F0400CE8CCF8E9CDF9EACEFAEBCFFB1203A185D0F05804700320D598
:2001E000B3E80470075002B2D50203E092D5EC0460F7E4CCC0E0C398F8603B9418600840EB
:200200000DD0E0FB0203B8E4FBFAC9FC8028E830E406E4C9FBE4CAFCE830E305E4C9CACB8D
:20022000FCE854076010F8C3E913F9EA13FAEB13FBEC13FCD8F130F52FC3E49CFCEF9BFF8F
:20024000EE9AFEED99FDD0E0FBEF4E4D4C701222DB030203DDEC2CFCEF33FFEE33FEED333C
:20026000FDED30E7EB0203B8EF2BFFEE3AFEED39FDD0E0FB50130BBB00030203E0ED13FDBA
:20028000EE13FEEF13FFEC13FC0203B80203E0EC5D046005E8590470030203D61203A1586E
:2002A0000460F6EC4860F2EC7004FDFEFF22C860DB2481C85009C398600250060203DD988C
:2002C00050CAF582E9294B4A7005AB820203CC75F0007C1A7880C3EF9BEE9AED99400DC315
:2002E000EF9BFFEE9AFEED99FDE842F0DC23ACF0D0E0FFD0E0FED0E0FDAB8220E7101BEB63
:2003000060BAEC2CFCEF33FFEE33FEED33FD0203B8E803F830E705C0F075F000EF2FFFEE76
:2003200033FEED33FD40B830E7C280AA75F020800E75F010800575F0087D007E007F00334D
:2003400092D530D5031207AEEC334010EF33FFEE33FEED33FDEC33FCD5F0ED22E5F0247E35
:20036000A2D513CC92E7CDCEFF22EDD2E7CD33EC3392D524814006E4FFFEFDFC22FCE4CF30
:20038000CECDCC24E0501174FF80EDC3CC13CCCD13CDCE13CECF13CF0470F030D5DE0207E6
:2003A000AEE9D2E7C933E833F892D5EDD2E7CD33EC33FC5002B2D522EC30E7100FBF000CCE
:2003C0000EBE00080DBD00040BEB6014A2D5EB13FCED92E7FD2274FFFCFDFEFF22E480F834
:2003E000A2D574FF13FC7D80E480EFE709F608DFFA8046E709F208DFFA803E88828C83E7A6
:2004000009F0A3DFFA8032E309F608DFFA8078E309F208DFFA807088828C83E309F0A3DFD4
:20042000FA806489828A83E0A3F608DFFA805889828A83E0A3F208DFFA804C80D280FA800E
:20044000C680D4806980F28033801080A680EA809A80A880DA80E280CA803389828A83EC55
:20046000FAE493A3C8C582C8CCC583CCF0A3C8C582C8CCC583CCDFE9DEE7800D89828A8335
:20048000E493A3F608DFF9ECFAA9F0EDFB2289828A83ECFAE0A3C8C582C8CCC583CCF0A318
:2004A000C8C582C8CCC583CCDFEADEE880DB89828A83E493A3F208DFF980CC88F0EF600183
:2004C0000E4E60C388F0ED2402B4040050B9F582EB2402B4040050AF232345822390043B13
:2004E00073BB010689828A83E0225002E722BBFE02E32289828A83E49322BB010CE5822989
:20050000F582E5833AF583E0225006E92582F8E622BBFE06E92582F8E222E58229F582E52B
:20052000833AF583E49322BB010FF8E58229F582E5833AF583E028F0225009C58229F8E549
:200540008226F622BBFE09C58229F8E22582F222F8EA2583F583E9932822BB010689828AF5
:2005600083F0225002F722BBFE01F322F8BB010DE58229F582E5833AF583E8F0225006E991
:200580002582C8F622BBFE05E92582C8F222EF8DF0A4A8F0CF8CF0A428CE8DF0A42EFE22AE
:2005A000C5F0F8A3E028F0C5F0F8E582158270021583E038F022A3F8E0C5F025F0F0E58278
:2005C000158270021583E0C838F0E822BB010A89828A83E0F5F0A3E022500687F009E71982
:2005E00022BBFE07E3F5F009E3192289828A83E493F5F074019322BB0110E58229F582E5D4
:20060000833AF583E0F5F0A3E0225009E92582F886F008E622BBFE0AE92582F8E2F5F008BA
:20062000E222E5832AF583E993F5F0A3E99322F8BB0111E58229F582E5833AF583E8F0E567
:20064000F0A3F0225009E92582C8F608A6F022BBFE09E92582C8F2E5F008F222EF2BFFEE8A
:200660003AFEED39FDEC38FC22C3EF9BFFEE9AFEED99FDEC98FC22E88FF0A4CC8BF0A42CC4
:20068000FCE98EF0A42CFC8AF0EDA42CFCEA8EF0A4CDA8F08BF0A42DCC3825F0FDE98FF0BD
:2006A000A42CCD35F0FCEB8EF0A4FEA9F0EB8FF0A4CFC5F02ECD39FEE43CFCEAA42DCE353A
:2006C000F0FDE43CFC2275F008758200EF2FFFEE33FECD33CDCC33CCC58233C5829BED9AD4
:2006E000EC99E58298400CF582EE9BFEED9AFDEC99FC0FD5F0D6E4CEFBE4CDFAE4CCF9A8D4
:200700008222B800C1B90059BA002DEC8BF084CFCECDFCE5F0CBF97818EF2FFFEE33FEED20
:2007200033FDEC33FCEB33FB10D703994004EB99FB0FD8E5E4F9FA227818EF2FFFEE33FE7E
:20074000ED33FDEC33FCC933C910D7059BE99A4007EC9BFCE99AF90FD8E0E4C9FAE4CCFB33
:200760002275F010EF2FFFEE33FEED33FDCC33CCC833C810D7079BEC9AE899400AED9BFD9C
:20078000EC9AFCE899F80FD5F0DAE4CDFBE4CCFAE4C8F922EF5BFFEE5AFEED59FDEC58FC81
:2007A00022EF4BFFEE4AFEED49FDEC48FC22C3E49FFFE49EFEE49DFDE49CFC22EB9FF5F0D3
:2007C000EA9E42F0E99D42F0E89C45F022E8600FECC313FCED13FDEE13FEEF13FFD8F122CF
:2007E000E8600FEFC333FFEE33FEED33FDEC33FCD8F122E0FCA3E0FDA3E0FEA3E0FF22E01B
:20080000F8A3E0F9A3E0FAA3E0FB22ECF0A3EDF0A3EEF0A3EFF022A8828583F0D083D082FF
:2008200012082E12082E12082E12082EE473E493A3C583C5F0C583C8C582C8F0A3C583C56B
:20084000F0C583C8C582C822A42582F582E5F03583F58322E0FBA3E0FAA3E0F922EBF0A30A
:20086000EAF0A3E9F022D083D082F8E4937012740193700DA3A393F8740193F5828883E4A6
:20088000737402936860EFA3A3A380DFD083D082F8E4937012740193700DA3A393F874017C
:2008A00093F5828883E473740293B5F0067403936860E9A3A3A3A380D88A838982E4737595
:2008C0002A0190BF3374FFF090BF12E0F529A3E0F528204B030209A0786BE6FE08E6F582C4
:2008E0008E83E0FB30E14690BE27E030E03190BA0BE0FF90BE27E0C39F601390BE00120859
:2009000017FFFFFFFF90BE13E04420F0801190BE001208170000000190BE13E04420F07811
:200920006BE6FE08E6F5828E83EB54FDF0786EE664011846701190BA23F07431F090B46917
:200940007422F0E4F608F6901EA3E0FF30E12554F5FFBF611F90BE27E030E01190BE001276
:200960000817FFFFFFFF90BE13E04420F0901EA3E04480F07882E625E024C8F582E4344B37
:20098000F583E0FEA3E0FF7894EEF608EFF62406FFE43E8F82F583E528F0A3E529F080367A
:2009A00030260953A4FEC212C226C21F7882E625E024C8F582E4344BF583E0FEA3E0FF784B
:2009C00094EEF608EFF62406FFE43E8F82F583E528F0A3E529F0204D03020C32901FD0E031
:2009E00020E203020ADEE52964207002F52A90B439E0540F600AE0540F64016003020ABCE8
:200A0000E4F52B901FD5E0FCA3E0FD2419F582E43CF583E0606890B363E030E76FE0547F3F
:200A2000F0752B0190B439E030E61590B43BE04480F0ED241AF582E43CF5837401F0801853
:200A400090B43BE0547FF0901FD5E0FEA3E0241AF582E43EF583E4F0901FD6E0241BFF9039
:200A60001FD5E03400FE7C097DF37B0612322D7E0A7FF87C097DF37B0612322D800E90B3D2
:200A800063E030E707E0547FF0752B01E52B600A901FD0E04408F0020C32901FD5E0FEA357
:200AA000E0240BF582E43EF583E4F0A304F090BA23E0548CF0E0440CF0020C32901FD5E0CA
:200AC000FEA3E0240BF582E43EF583E4F0A304F090BA23E0548CF0E0440CF0020C329020BD
:200AE000E7E0FF54BF64036003020C3290B439E0540F6015E0540F6406600EE0540F64021A
:200B00006007E0540FFEBE0107EF44049020E7F09020E7E020E603020C32E4F52B901D8CAC
:200B2000E030E01090B363E030E70CE0547FF0752B018003752B01E52B7003020BCE902096
:200B4000FD7401F090B439E0540F6007E0540F640670679020F2E0600214F07E0A7FF87C25
:200B6000097DF37B0612322D90B439E030E60990B43BE04480F0800790B43BE0547FF09042
:200B800020E7E04410F09020FB7403F090B86EE4F0A37450F090B44E7409F0A374F3F090AE
:200BA000BF22E04430F0E490BA2BF07412F090B4697422F0789F7602802B9020E7E0440821
:200BC000F090BA23E0548CF0E0440CF08017E49020FDF09020E7E04408F090BA23E0548CF0
:200BE000F0E0440CF09020FDE0604790B439E0540F902639F090B439E05440902641F090AA
:200C0000B438E090263AF07E267F3B7C097DF37B0612322D7E267F427C097DF990263AE0B3
:200C200024FAFB12322D90B8B3E0240BF404902735F0E52A60137894E6FC08E6FD7F02125E
:200C40001FCA7882E6045407F6227B007A5DE4FDFFFE12321575A40C75A50112B77675A532
:200C600001758E0190A710E054EFF0E58E20E30690B8337401F090B825E054FEF053A1FE38
:200C800000000000D20020A04E78F27C317D017BFF7A3479637E007F081204BB90320274CD
:200CA00001F075A5047E317FFA7B087DF87CFF1231E475A5017E317FF27C317DFA7B08126F
:200CC0003113E433903202F0700D1231CBA374F8F0A3E4F012012820A002C20090A4F774A6
:200CE00081F012129D7D207C407F8612B2987D307C407F8612B298123347905FCDE07002A4
:200D0000A3E0700A905FCD7440F0A37405F0905FCDE05407FEA3E05407FFEE4440FEEF44F5
:200D200030FF904B9FEEF0FCA3EFF0FD7F8612B29812334743A42000000000000090B00776
:200D4000E04420F000000000000053A4DF75A897E490B203F0121EC030002B75A50512AC94
:200D600060905D32E0700675A50112BB09905D43E0600675A501127CFE905D2AE030E00386
:200D8000128B0B75A501905D26E030E00975A502129DC075A501E490BD0CF07873E2547F11
:200DA000F2E56470B0F55475F009E55490212C120848E55425E02583F583E0FD30E20990C3
:200DC0004BA7E04401F08014ED30E009904BA7E04402F080070554E554B402CBE554B40251
:200DE00005E4904BA7F07875E2700218E26003020EC390352DE064016003020EC3904BA738
:200E0000E06003020EC3903206F0A3F090352DF09032067402F0A374CCF0FF7E02122E715E
:200E2000AA06A9077B0190320312085D7C5D7D007B247A011230CF1231DEE92424FFEA34AA
:200E400001FE7C5E7D247BA87A011230CF1231CBA37440F0A3E4F0120128904BA87401F07A
:200E6000D2AF7E00903207E05403FF600FC374049FFFE49E9032068FF01205A01231D19008
:200E80003206E0FFA3E0900018CFF0A3EFF09000167440F0A3E4F01231DE7B0190001212BD
:200EA000085D90001174FFF012011A904BA87401F0D2AF1231DEAE02AF011232057873E29C
:200EC0004480F275A50112B49A75A501905D29E020E01475A50112A057903208EFF075A5D5
:200EE00001EF6003020D55E5646003020D55E58754FC4401F5870000020D55748055A870E9
:200F000003021FCAC2AF121FCAD2AF22748055A87003022A6FC2AF122A6FD2AF22748055CD
:200F2000A87003022944C2AF122944D2AF22748055A87003022F46C2AF122F46D2AF2274AA
:200F40008055A87003022F6FC2AF122F6FD2AF22748055A87003022F98C2AF122F98D2AF45
:200F600022748055A87003022FC1C2AF122FC1D2AF22748055A87003022D0EC2AF122D0E84
:200F8000D2AF22748055A87003022D44C2AF122D44D2AF22748055A87003022D7AC2AF12B0
:200FA0002D7AD2AF22748055A87003021C79C2AF121C79D2AF22748055A87003021A1AC2D5
:200FC000AF121A1AD2AF22748055A87003022775C2AF122775D2AF22748055A87003022C23
:200FE0004DC2AF122C4DD2AF22748055A87003023062C2AF123062D2AF2200000000000055
:2010000035353035203130325F424C444B3301030100E4F52B3046587880E6705076019023
:20102000AA5FE0F52A7872F224FE60220470387A00791278127C007D007B017AAA79607EFD
:20104000007F041204BB904BD8E513F080227A00791278127C007D007B017AAA79647E007C
:201060007F041204BB8009E47880F68003752B012047030211C27880E6640160030211C2E3
:201080007872E224FE70030211110460030211AB7881E625E02483F8E6FE08E6FF7894A6A0
:2010A0000E08A60F18E6FE08E6FF8E832404F582E43583F5837421F0EF2406FBE43EFA8B78
:2010C00082F583E510F0A3E511F0AF15AE14AD13AC128B828A83A3A3A312080B904BDEE0E3
:2010E0006401F025E024FAF582E4340CF583E0FEA3E08E10F51130000B900CF8E0FEA3E030
:201100008E10F51190AA9AE510F0A3E511F00211AB7881E625E02483F8E6FE08E6FF7894CB
:20112000A60E08A60F7878E6FE08E6FF8E832407F582E43583F583E0FD7894E6FA08E68A75
:20114000832405F582E43583F583EDF08F828E83E5822408F582E43583F583E0FEA3E07862
:2011600078A60E08F618E6FE08E6F5828E83A3A3A3E0FEA3E090AA7BF0EE90AA7AF0789446
:20118000E6FA08E6FB8A832404F582E43583F5837422F0AF15AE14AD13AC12EB2406FBE448
:2011A0003A8B82F583A3A3A312080BE47880F67894E6FC08E6FD7F04121FCA7881E6045402
:2011C00007F6E52B604A7880760190AA5FE0F52A7872F224FE601C0470327A0079127812A2
:2011E0007C007D007B017AAA79607E007F041204BB801D7A00791278127C007D007B017A90
:20120000AA79647E007F041204BB8004E47880F63045347881E625E02483F8E6FE08E6FF22
:201220007894A60E08A60F18E6FC08E6FD8C832404F582E43583F5837440F07F04121FCA68
:201240007881E6045407F630420690AA0B7402F0E5295478FFE528541B4F6017E52830E1FE
:2012600006781F76208004781F7610E490BD03F0120040304A26300023120F2E903147EEEC
:20128000F0A3EFF0903147E0FCA3E0FD2404F582E43CF58374B5F07F0C120EFB22E49035B7
:2012A00058F0A3F090352EF0F5A875A5047E327F097B02FA7D227C41123087903209E0B482
:2012C000AA19A3E0B455147B247A017D007C4012144D7D247C4112308780107C487D007B72
:2012E000247A0112144DE4FD1232157E5F7FCC7B017A007D307C4E12308775A501781FE6AC
:2013000020E30975A501124E2075A50190423E7406F075A50112AD7475A501200008905D13
:20132000277403F08000758E011232451218DD120036122A14122B6B12333675A50112B370
:20134000E212B04775A50175A5011233F775A501781FE630E20D1214218F82F5837410F035
:20136000121441781FE6543060101214218F82F5837410F0781FE6121441781FE630E34499
:20138000120F2E8E558F568F828E83E5822404F582E43583F5837402F0EF2406FFE43EFE5C
:2013A0008F82F583740EF0A3E4F08F828E83A3A37403F08F828E83A3A3A3F0AD56AC557F6E
:2013C00004120EFB30000E12343D12341F1234331234298006781FE654C0F61233E3120099
:2013E000F61233ED12341575A50112AE8D75A501C288C28AE490BD13F090BD03F090BD1B75
:20140000740FF090BD0AE4F0A3741FF090BD037401F0E490BD0CF075A502129DB975A50187
:2014200022120F2E8E558F568F828E83E5822404F582E43583F5837402F0EF2406FFE43E97
:2014400022A3F0AD56AC557F04120EFB227E5D7F001230877E5E7F247BA87A0122AA07A957
:20146000059034B1E0FDA3E090315ECDF0A3EDF0E4A3F0A3F090315EE0FCA3E0FD4C7003F2
:201480000215ECED2404F582E43CF583E06B60030215CB90315EE0A3E02406F582E43CF55D
:2014A00083E06960030215CBED2405F582E43CF583E06A6007EAF460030215AA90315EE044
:2014C000FCA3E0FDF5828C83E0F8A3E0F58288834583601F8D828C83A3A3E0FEA3E0FF8D95
:2014E000828C83E0FCA3E0F5828C83A3A3EE8FF01205A0903160E07002A3E0704D90315E3A
:20150000E0FEA3E0FFF5828E83E0FDA3E09034B1CDF0A3EDF0903523E0FDA3E08F828E8367
:20152000CDF0A3EDF090315EE0FFA3E0903523CFF0A3EFF09034B1E0FFA3E090315ECFF00F
:20154000A3EFF0E4A3F0A3F0805890315EE0FEA3E0F5828E83E0FEA3E0FF903160E0FCA31F
:20156000E0F5828C83EEF0A3EFF0903523E0FEA3E0FF90315EE0FCA3E0FDF5828C83EEF07E
:20158000A3EFF0903523ECF0A3EDF0903160E0FEA3E0F5828E83E0FFA3E090315ECFF0A398
:2015A000EFF0EAF470030214752290315EE0FEA3E0FFA3EEF0A3EFF0F5828E83E0FFA3E0E2
:2015C00090315ECFF0A3EFF002147590315EE0FEA3E0FFA3EEF0A3EFF0F5828E83E0FFA394
:2015E000E090315ECFF0A3EFF0021475228E308F318F828E83E5822404F582E43583F58344
:20160000E024FE601F14700302170614700302173C240360030217687B007A04E4FD7F0261
:20162000120FA5229034B1E0FEA3E0FF4E70030216F08F828E83A3A374FFF5F01205A0901D
:2016400034B1E0FEA3E0F5828E83A3A3E0FEA3E04E60030216F0120F2E8E308F319034B11A
:20166000E0FEA3E0FF2405F582E43EF583E0FDE5312404F582E43530F583EDF0EF2406F592
:2016800082E43EF583E0FFE5312405F582E43530F583EFF09034B1E0FEA3E02404F582E4A0
:2016A0003EF583E0FFAD31AC30120EFB9034B1E0FEA3E0FFF5828E83E0FCA3E08C32F5331E
:2016C000903523E0FDA3E08F828E83CDF0A3EDF09034B1E0FFA3E0903523CFF0A3EFF090D3
:2016E00034B1E532F0A3E533F04532600302163F9034B1E07002A3E0606E7B007A04E4FD30
:201700007F02120FA522E5312406FFE43530FAA9077B019000011204FAFF9000021204FA70
:20172000FD9000031205F7FBAAF0E5312406F582E43530F583E0F53D12176922E5312406F8
:20174000FFE43530FAA9077B019000011204FAFF9000021204FAFDE5312406FBE435308BCD
:2017600082F583E0FB12145D228F398D3A8A3B8B3CE53C453B70030218DC9034B1E0700203
:20178000A3E07023120F2E903158EEF0A3EFF0903158E0FCA3E0FD2404F582E43CF583744B
:2017A00001F07F07120EFBAB3DAD3AAF3912145D9034B1E0FFA3E090315ACFF0A3EFF0E446
:2017C000A3F0A3F090315AE0FEA3E0FF4E60458F828E83A3A3E0FEA3E0FFC3953CEE953B5B
:2017E000503290315AE0FCA3E0FDC3E53C9FF53CE53B9EF53BA3ECF0A3EDF090315AE0FE56
:20180000A3E0F5828E83E0FFA3E090315ACFF0A3EFF080B0903523E0FEA3E0FFF5828E83FF
:20182000A3A3E53BF0A3E53CF0EF2404F582E43EF583E53DF0EF2405F582E43EF583E5391D
:20184000F0EF2406F582E43EF583E53AF090315CE0FEA3E0FF4E7011903523E0FDA3E0903B
:2018600034B1CDF0A3EDF08010903523E0FDA3E08F828E83CDF0A3EDF0903523E0FEA3E0C6
:20188000FFF5828E83E0FDA3E090315CCDF0A3EDF090315AE0FCA3E0FD8F828E83ECF0A3EF
:2018A000EDF0F5828C83A3A3C083C082C3A3E0953CFF0582D5820215831582E0953BD082D3
:2018C000D083F0A3EFF090315CE0FEA3E0FF903523EEF0A3EFF04E7003122EC82278217486
:2018E0002CF2087497F2E4FF75F00AEFA424A1F582E5F0342CAD82FC75F00AEFA42497F592
:2019000082E5F0342CF583ECF0A3EDF075F00AEFA42499F582E5F0342CF5837404F00FBF23
:201920003FC6E4902F0DF0A3F0A37404F0781D7428F208743BF2E4FF75F00EEFA42449F54D
:2019400082E5F03428AD82FC75F00EEFA4243BF582E5F03428F583ECF0A3EDF075F00EEF66
:20196000A4243DF582E5F03428F5837403F00FBF3FC6E4902BADF0A3F0A37403F0781F7424
:201980002BF20874BBF2E4FFEF75F016A424D1F582E4342BAD82FCEF75F016A424BBF582D2
:2019A000E4342BF583ECF0A3EDF0EF75F016A424BDF582E4342BF5837402F00FBF09C9E405
:2019C000902C81F0A3F0A37402F07823742FF2087417F2E4FF75F046EFA4245DF582E5F09B
:2019E000342FAD82FC75F046EFA42417F582E5F0342FF583ECF0A3EDF075F046EFA42419E2
:201A0000F582E5F0342FF5837401F00FBF07C6E4903101F0A3F0A304F022AA07A9057846A0
:201A2000E2FC08E28C66F567E4F568F569E56745667003021B4AE5672404F582E43566F5C1
:201A400083E06B6003021B33E5672406F582E43566F583E0696003021B33E5672405F58239
:201A6000E43566F583E06A6007EAF46003021B1C856782856683E0FCA3E0FD4C601985665C
:201A800083856782A3A3E0FEA3E0FF8D828C83A3A3EE8FF01205A0E5694568703B85678213
:201AA000856683E0FFA3E07846CFF208EFF27840E2FF08E2856782856683CFF0A3EFF01836
:201AC000E566F208E567F27846E2FE08E28E66F567E4F568F569803C856782856683E0FF95
:201AE000A3E0856982856883CFF0A3EFF07840E2FF08E2856782856683CFF0A3EFF018E5A5
:201B000066F208E567F2856982856883E0FEA3E08E66F567EAF47003021A2D228566688502
:201B20006769856782856683E0FEA3E08E66F567021A2D856668856769856782856683E09B
:201B4000FEA3E08E66F567021A2D22C0D0C0E030261B0000000000000000000053A4DF9042
:201B6000B203E0547FF090B207E020E7F9C0F0C092C083C082C085C08475D008759200126E
:201B800008BF300F41D084D085D082D083D092D0F0D0E0D0D032C0D0C0E0C0F0C092C08397
:201BA000C082C085C08475D008759200123323200503300E11D084D085D082D083D092D0A7
:201BC000F0D0E0D0D03275D000C0A5C000C001C002C003C004C005C006C00775A501200E84
:201BE0002F74EAC0E0741BC0E03212228ED007D006D005D004D003D002D001D000D0A5D0B4
:201C000084D085D082D083D092D0F0D0E0D0D0227419C0E0741CC0E0321227F3D007D0064A
:201C2000D005D004D003D002D001D000D0A5D084D085D082D083D092D0F0D0E0D0D022C09E
:201C4000D0C0E0C0F0C092C083C082C085C08475D0087592001226F5D084D085D082D08335
:201C6000D092D0F0D0E0D0D03232C000C0E0C0D0D0D0D0E0D0003232328F2C8D2D8A2E8B30
:201C80002FE52F452E7003021D9C7838E2FBAD2DAF2C121A1A7846E2FE08E28E66F567E41C
:201CA000F568F5697842E2FE08E2252FF52FEE352EF52EE56745666036856782856683A3ED
:201CC000A3E0FEA3E0FFC3952FEE952E5021C3E52F9FF52FE52E9EF52E85666885676985BD
:201CE0006782856683E0FEA3E08E66F56780C47840E2FE08E2FFF5828E83A3A3E52EF0A3A3
:201D0000E52FF07838E2FDEF2404F582E43EF583EDF07840E2FE08E2FF2405F582E43EF5F3
:201D200083E52CF0EF2406F582E43EF583E52DF0E569456870097846EEF208EFF2800B85E8
:201D40006982856883EEF0A3EFF07840E2FE08E2FFF5828E83E0FCA3E08C68F5698F828E6F
:201D600083E566F0A3E567F0F582856683A3A3C083C082C3A3E0952FFF0582D58202158395
:201D80001582E0952ED082D083F0A3EFF018E568F208E569F245687003122EC8228E428FAA
:201DA000438F828E83E5822404F582E43583F583E06003021EBF7846E2FE08E2F5828E8372
:201DC000A3A3E0FEA3E0FF7842E2FC08E2FDD3EF9DEE9C4003021E80120F2E8E428F4378A9
:201DE00046E2FE08E2FF2405F582E43EF583E0FDE5432404F582E43542F583EDF0EF24062D
:201E0000F582E43EF583E0FFE5432405F582E43542F583EFF018E2FE08E22404F582E43EB5
:201E2000F583E0FFAD43AC42120EFB7846E2FE08E2FFF5828E83A3A3E0FCA3E0FDC3784323
:201E4000E29DF218E29CF28F828E83E0FEA3E0FF7840E2FC08E2FD7846E2FA08E2FBF58294
:201E60008A83ECF0A3EDF07840EAF208EBF27846EEF208EFF24E6003021DB67842F208F2CD
:201E80007842E2FE08E2FF4E602E7846E2FC08E2F5828C83A3A3C083C082C3A3E09FFF0523
:201EA00082D5820215831582E09ED082D083F0A3EFF0E47842F208F2E4783FF2120F0C221D
:201EC000C2AFE5647003021FC190345B93F521300A4C7832E2FE08E2FFF5828E83A3A3A3C1
:201EE000E07838F2E4783CF2D2AF7838E2FD33333354F8FD90286893F5A574642DF582E437
:201F00003428F583E493740193FA740293F5828A831208BD75A501C2AF120F7280A4300994
:201F20004D7839E2FE08E2FFF5828E83A3A3A3E07838F2E47828F2D2AF7838E2FD333333C8
:201F400054F8FD90286893F5A574642DF582E43428F583E493740193FA740293F5828A83B1
:201F60001208BD75A501C2AF120F83021EC2200803021EC27829E2FE08E2FFF5828E83A3D6
:201F8000A3A3E07838F2E4782FF2D2AF7838E2FD33333354F8FD90286893F5A574642DF5C3
:201FA00082E43428F583E493740193FA740293F5828A831208BD75A501C2AF120F94021EA9
:201FC000C2E47838F2F521D2AF228D828C83A3A3A3EFF033333354F89028679314605414A7
:201FE000700302207A240260030220C0E56270107832ECF208EDF27834ECF208EDF280251B
:202000007834E2FE08E2F5828E83ECF0A3EDF018ECF208EDF2783CE2B4010A7402F278361E
:20202000ECF208EDF205624364048D828C83E4F0A3F022E56370107839ECF208EDF2783D2F
:20204000ECF208EDF28025783DE2FE08E2F5828E83ECF0A3EDF018ECF208EDF27828E2B4A0
:20206000010A7402F27826ECF208EDF205634364028D828C83E4F0A3F022E5657010782967
:20208000ECF208EDF2782BECF208EDF28025782BE2FE08E2F5828E83ECF0A3EDF018ECF227
:2020A00008EDF2782FE2B4010A7402F2782DECF208EDF205654364018D828C83E4F0A3F088
:2020C0002290BD147401F0E4F00000000000000000000090BD10E05407781FF675200090FA
:2020E000BD18740FF090BD007401F090BF007403F075A50075D00078FF79DFE4F618D9FC3B
:20210000781EF6D8FD75A40C75A70078007F00E4F208DFFC9001007F007E5DE4F0A3DFFC30
:20212000DEFA751E0090000078107455F0A3D8FC7581FF022171020006E493A3F8E493A32F
:202140004003F68001F208DFF48029E493A3F85407240CC8C333C4540F4420C8834004F4E6
:2021600056800146F6DFE4800B01020408102040809032E7E47E019360BCA3FF543F30E5FA
:2021800009541FFEE493A360010ECF54C025E060A840B8E493A3FAE493A3F8E493A3C8C587
:2021A00082C8CAC583CAF0A3C8C582C8CAC583CADFE9DEE780BE00050009000D03040607B9
:2021C0000716061706040002000300020001000A0602030200020200000000000000111572
:2021E000070906060A0626000006070006000A020602140002000702040202160000080021
:2022000000000900000200010000070000002D07F800000200020001000400040001000170
:20222000000300020204000100010300010001000700410204000004000100010A0000002E
:20224000010001000100010000000000000000F10200000100000100010000000301000080
:2022600000000000000600020202000202030008000008060F00F4F4010702190000000714
:20228000070E05020220001C120200010300C2AF7838E27825F27831E521F2E564D39401E8
:2022A00050030223577E00E56454FE245BF582EE3434F583E493F521300A4C7832E2FE08CD
:2022C000E2FFF5828E83A3A3A3E07838F2E4783CF2D2AF7838E2FD33333354F8FD9028688E
:2022E00093F5A574642DF582E43428F583E493740193FA740293F5828A831208BD75A50185
:20230000C2AF120F7280943009917839E2FE08E2FFF5828E83A3A3A3E07838F2E47828F2F8
:20232000D2AF7838E2FD33333354F8FD90286893F5A574642DF582E43428F583E49374013E
:2023400093FA740293F5828A831208BD75A501C2AF120F8302229B7825E27838F27831E2F1
:20236000F521D2AF22755B01755C5D755D72E4FEAB5BAA5CA95D12329A60040EBE0CF1EE74
:2023800012086623AB0023B50123BF0223C90323D30423DD0523E70623F10723FB082405CA
:2023A00009240F0A24190B00002422ED6003D38001C392B622ED6003D38001C3929022EDE0
:2023C0006003D38001C3928022ED6003D38001C392B122ED6003D38001C392B222ED600366
:2023E000D38001C392B322ED6003D38001C392B422ED6003D38001C3928722ED6003D3804B
:2024000001C3929122ED6003D38001C392A222ED6003D38001C392A422ED6003D38001C3D0
:2024200092B5228F3B8D3CE4787FF208E5A5F275F009EF902103120848EF25E02583AF820F
:20244000FE787DF208EFF28E83E06075787DE2FE08E2F5828E83E4F0E58224EFF582E58374
:202460003401F583E4F0E53B4480F53D75A502129BDB75A50175A502AF3B1297EF75A5014D
:20248000787DE2FE08E2FF7B097A02E4FD12321590BF23E04440F0E47862F2785FF2904233
:2024A00061E054F3F090425DE054F3FFF07874E254BFF2EF7006C22E787F04F27880E2F57B
:2024C000A5227878E6FE08E6FFF5828E83A3A3A3E0FCA3E0FD7890ECF208EDF2C2AF8F8258
:2024E0008E837405F07878E6FE08E68E832408F582E43583F583E0FEA3E018A60608F6D2E3
:20250000AFED4C7039120F2E788EEEF208EFF22404F582E43EF5837403F0EF2405F582E4F9
:202520003EF5837401F018E2FC08E2FD7F0C120EFB7E907F0078907490F2087400F2C2AF93
:2025400090009FE004F0D2AF7890E2FE08E2FF22904C28E0FCA3E0FAECFFEAFE122DB712CC
:202560002DC0EC540FFEED540FC4F8540FC868FBEEC454F048FAEC54F0FEED54F0FFEE12F1
:202580002DDDEFC4540F48122DB0122DC0EC5433FEED54337802C333CE33CED8F9FBAA0645
:2025A000EC54CCFEED54CC7802CEC313CE13D8F9122DB0122DC0EC5455FEED545525E0FB1D
:2025C000EE33FAEC54AAFEED54AAFFEEC313FEEF13122DB074FF904C28F0A3F02290320F6E
:2025E000EEF0A3EFF0A3EDF0903213E5A5F075A504E4903212F0903212E0FFC39492506298
:2026000075F01CEF90500312084874019364037004E49364287043903212E075F01C905057
:2026200008120848E4936425703075F01CEF905009120848E493B42A21903212E075F01C2A
:20264000905021120848AD82AC8390320FE0FEA3E0FFA3E0FB1231E48008903212E004F0B3
:202660008094903213E0F5A5229032C8EEF0A3EFF0A312085DE49032CDF0A3F09032C8E071
:20268000FEA3E0FF9032CDE0FCA3E0FDC39FEC9E50629032CA1208548D828C831204FAFD0C
:2026A000FF904C28A3E0122DC9E493FA740193FB904C28E0122DDDA3E0C4540F48FFEA6ECF
:2026C000FEEB6F122DB6EDC4540FFF122DC0ED122DC9EC122DDDEDC4540F48FFE4936EFE60
:2026E0007401936F122DB69032CDE475F0011205A002267C2230983A30051B904826E0FFE9
:20270000E42FF582E43410F583E599F0904826E004F0E0F0801A904826E02429F582E4342B
:2027200048F583E599F0904826E004F0E0547FF0C29830993FC299904827E0FF904825E07E
:20274000FE6F602A30050EE42EF582E43411F583E0F599800D74A92EF582E43448F583E0A0
:20276000F599904825E004F0E4904828F0229048287401F0227843E22FF218E23EF2783FDE
:20278000E2706F7846E2FE08E2FF4E605F8F828E83A3A3E0FEA3E0FF7842E2FC08E2FDD3CA
:2027A000EF9DEE9C501108E2FC08E2FD7F01121FCA783F7401F2227846E2FE08E2F5828E8D
:2027C00083A3A3C083C0827842E2FE08E2FFC3A3E09FFF0582D5820215831582E09ED08265
:2027E000D083F0A3EFF0E418F208F222E47842F208F222C2AF7838E27830F2783BE521F216
:20280000E564D39403404F7521C77832E2FE08E2FFF5828E83A3A3A3E07838F2E4783CF229
:20282000D2AF7838E2FD33333354F8FD90286893F5A574642DF582E43428F583E493740139
:2028400093FA740293F5828A831208BD75A501C2AF120F7280AA7830E27838F2783BE2F588
:2028600021D2AF22FF00110201000000FF1D9D0001000000FFB2DC0001000000FF9AFA01A5
:2028800002000000FF7C7E0102000000FFB5110101000000FF78360102000000FF15ED01C1
:2028A00001000000FF9A8B0202000000FF69920203000000FF6C900203000000FF9E9702BA
:2028C00004000000FFD3380205000000FF001102010000008F3BE53B7003FEFF22900D8037
:2028E000E0F53C853B3DE53CC3948050507400253CF582E4340DF583E0703B153DE53D70DA
:2029000038C3E53C953B04F53C2400F582E4340DAF82FEAB3BAD3B120043900D80E0B53C96
:2029200003253BF075F020E53CA42481F582E5F0340DAF82FE22853B3D053C80A9122C8E44
:20294000E4FEFF228F828E83A3A3E024FE6020146033146046240370577823E2FD08E28F48
:20296000828E83CDF0A3EDF018EEF208EFF222781FE2FD08E28F828E83CDF0A3EDF018EEBF
:20298000F208EFF222781DE2FD08E28F828E83CDF0A3EDF018EEF208EFF2227821E2FD08FA
:2029A000E28F828E83CDF0A3EDF018EEF208EFF2228F5B8D5C8A5D8B5EE55E455D60541285
:2029C0000F3F903285EEF0FCA3EFF0FD903285E0FEA3E0FF2404F582E43EF5837403F0EFD3
:2029E0002406FFE43EFE8F82F583E55FF0AA06A9077B01900001E55B12056C900002E55CCE
:202A000012056C900003E55D855EF012062F7F07120EFB22E4FFEF75F007A4243FF582E4E1
:202A2000344AAD82FCEF75F007A42438F582E4344AF583ECF0A3EDF00FBF13DAE4904ABDAF
:202A4000F0A3F07840744AF2087438F2E47846F208F2783FF27842F208F2120F2E7844EE0F
:202A6000F208EFF22404F582E43EF583E4F022300A1B783CE562F27832E2FE08E2F5828E91
:202A800083E0FFA3E07836CFF208EFF22230091B7828E563F27839E2FE08E2F5828E83E0C6
:202AA000FFA3E07826CFF208EFF22230081A782FE565F27829E2FE08E2F5828E83E0FFA380
:202AC000E0782DCFF208EFF2229AD2F38D216800FFFFFF55E405D2AF9FA98FE54A7DFE43B0
:202AE0005353490001FFFF16962447C62361BAD94B4D1E43535349B39B7234BEECD4A8F4FE
:202B000043418843535349424C45444B3342444144445200000000000000008F5C8D5D8BE1
:202B20005E120F3F903285EEF0FCA3EFF0FD903285E0FEA3E0FF2404F582E43EF5837404DF
:202B4000F0EF2406FFE43EFE8F82F583E55EF0AA06A9077B01900001E55C12056C900002CE
:202B6000E55D12056C7F07120EFB22E490320BF090320BE0FF75F007A424BAF582E43434CF
:202B8000AD82FCEF75F007A424B3F582E43434F583ECF0A3EDF090320BE004F0E0B40FD089
:202BA000E490351CF0A3F09035237434F0A374B3F0E49034B1F0A3F022EF4E6046C3EF946C
:202BC00081FFEE940DFEEF7805CEC313CE13D8F9F53DC39480502C7400253DF582E4340D2F
:202BE000AF82FE7400253DF582E4340DF583E0FBE4FD120043900D80E0FFE53DC39F5003D8
:202C0000E53DF0229032AEEEF0A3EFF0EB4A603C90A403E020E1F9C2AFAF0590A406ECF093
:202C2000A3EFF0AF0390A40AEAF0A3EFF09032AEE0FFA3E090A412CFF0A3EFF090A403E056
:202C40004402F0D2AF90A403E020E1F9228E2C8F2D8F828E83E0FEA3E0FF4E700D852D8293
:202C6000852C83ECF0A3EDF0801B8F828E83E0FAA3E0FB4A6006AE02AF0380EE8F828E830D
:202C8000ECF0A3EDF08D828C83E4F0A3F02220002A904BFD7402F0A3E5A5F0A37480F0AF56
:202CA00081A807E6A3F0A37417F0E58114F8E6A3F07C4B7DF97F04120EFB22904BFD740316
:202CC000F0A314F07C4B7DF97F0C120EFB229AD2F38D2168001C3FFB4D0198F10F534642CC
:202CE0005FD9390388EA9E156B56ADEE07036CB5D4FE57546C18780E1793470A376064AF88
:202D0000FE9A0FF343F0799B75F4FC745C26D562035364FB783CE270197832E2FE08E2FFF9
:202D2000F5828E83E0FDA3E07836CDF208EDF2122944E4783CF27836E2FF08E27832CFF26A
:202D400008EFF222D563035364FD7828E270197839E2FE08E2FFF5828E83E0FDA3E078266E
:202D6000CDF208EDF2122944E47828F27826E2FF08E27839CFF208EFF222D565035364FEE0
:202D8000782FE270197829E2FE08E2FFF5828E83E0FDA3E0782DCDF208EDF2122944E478A9
:202DA0002FF2782DE2FF08E27829CFF208EFF222FFEE4AFEEF4BFF904C28EEF0A3EFF02221
:202DC000904C28E0FCA3E0FD226F540F25E0FFE433FE74332FF58274313EF58322C4F854AC
:202DE000F0C868FE22D310AF01C3C0D0EDF5E9ECF5EAEFF5EBEEF5ECEBF5EDEAF5EE740467
:202E0000140070FCE5E9E5EAE5EBE5ECE5EDFFE5EEFED0D092AF22904BFD7402F0A3E5A5E4
:202E2000F0A37480F0AF81A807E6A3F0A37416F0E58114F8E6A3F07C4B7DF97F04120EFBE0
:202E4000E4FEFF22E4FE12328DF583E0B50719EE75F04AA42499F582E43447F583E030E053
:202E60000712328DAF82FE220EEEB401D9E4FEFF22EF541FD39400E49400400FEF7805CED2
:202E8000C313CE13D8F904F55F800CEF7805CEC313CE13D8F9F55FAF5F1231FD22D310AFAE
:202EA00001C3C0D0EFF5E9EDF5EDEEF5EAECF5EE7402140070FC00E5E9FFE5EAFEE5EBFD29
:202EC000E5ECFCD0D092AF22904BFD7402F0A3E5A5F0A37480F0AF81A807E6A3F0A37414BD
:202EE000F0E58114F8E6A3F07C4B7DF97F04120EFB22904BFD7402F0A3E5A5F0A37480F018
:202F0000AF81A807E6A3F0A37415F0E58114F8E6A3F07C4B7DF97F04120EFB228E858F842F
:202F20008C838D82EB601EE0FFA3E0FEA3E0FDA3E0A3759201F0A3EDF0A3EEF0A3EFF0A3E6
:202F4000759200DBE2227821E2FE08E2FF8E2CF52D452C60158F828E83E0FEA3E0FF18EEDF
:202F6000F208EFF24E7003122EF2AE2CAF2D22781DE2FE08E2FF8E2CF52D452C60158F827A
:202F80008E83E0FEA3E0FF18EEF208EFF24E7003122EF2AE2CAF2D22781FE2FE08E2FF8E26
:202FA0002CF52D452C60158F828E83E0FEA3E0FF18EEF208EFF24E7003122EF2AE2CAF2DD1
:202FC000227823E2FE08E2FF8E2CF52D452C60158F828E83E0FEA3E0FF18EEF208EFF24EF8
:202FE0007003122EF2AE2CAF2D22D310AF01C3C0D0EFF5E9EEF5EAEDF5EDECF5EE740214AC
:203000000070FCE5E9FFE5EAFEE5EDE5EED0D092AF22D310AF01C3C0D0EFF5E9EEF5EAED95
:20302000F5EDECF5EE7402140070FCE5E9E5EAE5EDFFE5EEFED0D092AF22901FCAEFF0123D
:203040000F2E904C26EEF0A3EFF0904C26E0FCA3E0FD2404F582E43CF5837461F07F0502F1
:203060000EFB8F828E83E0FCA3E0FDFBAA044A60118D828C83E0FDA3E08F828E83CDF0A365
:20308000EDF0AE02AF03228E858F848C838D82EA7003EB6015EB6003EA04FAE493A3759277
:2030A00001F0A3759200DBF3DAF122A446A444A44AA448A44EA44CA452A450A456A454A4AC
:2030C0005AA458A45EA45CA462A460A466A4648E858F848C838D82EA7003EB6014EB60032E
:2030E000EA04FAE0A3759201F0A3759200DBF4DAF222905D00E090B803F0905D01E090B8E8
:2031000002F0905D02E090B801F0905D03E090B800F0228E858F848C838D82AF031BEF602B
:2031200010E0A3FF759201E0A37592006F60ECD322C32200001081210231834204528563EE
:2031400006738784089489A50AB58BC60CD68DE70EF78F8E858F848C838D82EB60121BE487
:2031600093A3FF759201E0A37592006F60EDD322C322E4FE903DA2123378B5070B903DA7A9
:203180001233786003AF06220EEEB401E77FFF2201010002010003010004000005000106E7
:2031A00000010700010801000901000A01009032C7E5A5F08FA59032C5E0FEA3E0FF122692
:2031C000691225509032C7E0F5A52290001174FFF0900010E5A5F09000157403F0229032CC
:2031E000030208548E858F848C838D82EB600DE493A3759201F0A3759200DBF322D20E1234
:2032000028D4C20E22D20E122BB9C20E22D20E12948EC20E228E838F82EA7003EB600DEB30
:203220006003EA04FAEDF0A3DBFBDAF9228E858F848C838D82EB600CE0A3759201F0A375CA
:203240009200DBF422759850758920E587547F4480F587758DE6D28ED299C29822000000C2
:2032600002000400100022001F002A003F0054007F00FF0200B653B652B651B650B657B6D9
:2032800056B655B654B65BB65AB659B658EE75F04AA42497F582E43447228E827583001277
:2032A00004FA6F2244B54E51F1F2122CE90DCBAF2ADF564E424C45444B3300904827E02411
:2032C000A9F582E43448F583EFF0904827E004F0229032B5E5A5F08FA57ED87F021230875D
:2032E0009032B5E0F5A522424C28FFFF414BA1FF414C34FF4142380041400700009032AF67
:20330000E5A5F075A5031275F19032AFE0F5A5229032AFE5A5F075A5031298989032AFE0F6
:20332000F5A52290BF17E0F52890BF16E0F52920E70312101222E4900D80F0FF7F80900D1F
:2033400000E4F0A3DFFC22E4903209F000903209E004F0E0B419F52275A50512A89312A0D9
:203360005E12CACA75A501227D0275A50412CC43AD0775A505AF052275F065EE120848EE9D
:2033800025E02583F583E022903291123473129336903291E0F5A522904C3312347312B3A3
:2033A0001F904C33E0F5A52290320912347312B298903209E0F5A522034A03EE04920536ED
:2033C00005DA067E072207C675A50112A4DC9031E3EFF075A50222424C45444B33424441CA
:2033E00044445275A5021276BB75A5012275A502129CE575A5012275A50112988375A50108
:203400002275A50212691D75A5012275A50112A44775A5022275A502129DCB75A5012275FB
:20342000A50312870975A5012275A50412C9B075A5012275A5031291DF75A5012275A50524
:2034400012C2FF75A5012275A50112BA4E75A5052275A50412D3B675A5052200014343C79E
:1A346000C7C7C74241434B444F4F520603010639000301E5A5F075A50122B4
:204000000000015A4000102A0010321500000000082000000820007F003477047704770400
:20402000000050080000000002AA4820A0008881729254F2001C003F0020BE20DC215FF973
:204040000064550000540000D849DF2877043794040041C840220C670C92000027542404C2
:204060002245F04F6000002A0404887C281404000030FF0000000000000008201804082029
:2040800000000000000000001C000820000000001F07300000008438000008208F80000093
:2040A0008A4900000715000001B2002C000000000000000000000000000000000000000032
:2040C0000000028491B291929172915291329112001E000000000000000080800F0F00006C
:2040E00000000000000000000000000000000000000000000000000020E080000D73004080
:2041000003020504070609080B0A0D0C0F0E00A10B01D612C544554400220026009C880085
:2041200080005251CC3044403000381021242842525E9D4B86009B0531CB0F631030111325
:204140001B112A246411200F1E468720A0506208010D10A001726D025800028046036002B7
:2041600030012201AA55E4F546F547F548F549F54AF544F54575F009E545A42403F582E5A5
:20418000F03421F583E54525E02583F583E020E70302480675F009E545A42403F582E5F02A
:2041A0003421F583E54525E02583AF82F54D8F4E054890BE17E04402F00000000090BE00F5
:2041C000E0FCA3E0FDA3E0FEA3E0FF78011207CD8E4B8F4C854E82854D83A3E0F5446402A1
:2041E000706F786BE6FE08E68E8324F6F582E5833401F583E06005AF451255A1E54E2425B7
:20420000F582E4354DF583E0FEA3E0C3954CFFEE954BFE785BE2FDFBC3EF9BFFEE9400CF2F
:2042200024FFF54AEF34FFF549E54E24EDF582E54D3401F583E02402FFED2FF546FFD3E50F
:204240004A9F7480F86549985007754408E47860F2904BA8E0700302440490425DE0B40496
:204260002012BA9090BE08E0FCA3E0FDA3E0FEA3E0FF78011207CD9031E3EEF0A3EFF0802A
:204280004290BE177402F00000000090BE00E0FCA3E0FDA3E0FEA3E0FF78011207CD903144
:2042A000E3EEF0A3EFF0E54E24F6F582E54D3401F583E0700E9031E4E004F070069031E327
:2042C000E004F0E54E2425F582E4354DF583E0FEA3E0FFC39031E4E09FFF9031E3E09E9041
:2042E00031E7F0A3EFF09031E7E054F0A360030243C6E54E241DF582E4354DF583E475F045
:20430000011205A090425DE064087067E54E24F7F582E54D3401F583E064017056E54E248D
:20432000F6F582E54D3401F583E06047E54E2421F582E4354DF583A3E025E0FD0582D5827A
:204340000215831582E033FCE54E2423F582E4354DF583E0FEA3E02401FFE43EFE12058E04
:20436000E54E2425F582E4354DF583EE8FF01205A0802DE54E2421F582E4354DF583A3E04B
:2043800025E0FF0582D5820215831582E033FEE54E2425F582E4354DF583EE8FF01205A004
:2043A000E54E2425F582E4354DF583E0FEA3E0FFC39031E4E09FFF9031E3E09E9031E7F02C
:2043C000A3EFF00242E6E54E2425F582E4354DF583E0FEA3E0FF9031E3E0FCA3E0FDC3EF4E
:2043E0009DFFEE9CFE785BE2FDC3EF9DFFEE9400FEA3F0FAA3EFF0FBAD457F16120FA5E4DE
:20440000904BA8F0E54424F8607A24F8700302449024D0602B243E60030247FC786BE6FE55
:2044200008E68E8324F6F582E5833401F583E07005AF451255A1AF4512944C05470247FC0F
:2044400090425DE064087025E54E2446F582E4354DF583E0FF54076014EF20E410E54E2452
:20446000F7F582E54D3401F583E020E00B904670E0540370030247FCAD4CAC4BAF45125A7F
:20448000F90247FC854E82854D83A37410F0D22EE54E24F5F582E54D3401F583E0F4600F38
:2044A000E54E24F5F582E54D3401F583E014F0E54E2425F582E4354DF583E0FEA3E0654C93
:2044C0007003EE654B600302479BE54E24F5F582E54D3401F58374FFF0AF4EAE4D12A30CC6
:2044E000E54E2429F582E4354DF583E020E2030246A5E54E241DF582E4354DF583E0FEA3CB
:20450000E0FFE54E2433F582E4354DF583E0FCA3E06F7002EC6E60030246A5E54E2436F571
:2045200082E4354DF583E0FEA3E0FFE54E243CF582E4354DF583EEF0A3EFF0E54E2429F5FE
:2045400082E4354DF583E054FBF0854E82854D83E04410F0E58224F7F582E5833401F58300
:20456000E0B4041690425DE0B4080FE54E24F7F582E54D3401F5837401F0E54E242DF582AF
:20458000E4354DF583E0FEA3E0FFE54E2421F582E4354DF583E0FCA3E06F7002EC6E601EF8
:2045A000E54E2421F582E4354DF583EEF0A3EFF0E54E2435F582E4354DF5837401F0E54E55
:2045C000242FF582E4354DF583E0FEA3E0FFE54E2423F582E4354DF583E0FCA3E06F7002C4
:2045E000EC6E601EE54E2423F582E4354DF583EEF0A3EFF0E54E2435F582E4354DF583745F
:2046000001F0E54E2431F582E4354DF583E0FEA3E0FFE54E243AF582E4354DF583E0FCA307
:20462000E06F7002EC6E604EE54E243AF582E4354DF583EEF0A3EFF0E54E2436F582E4354E
:204640004DF583E0FEA3E0FFE54E243CF582E4354DF583EEF0A3EFF0E54E243EF582E435C8
:204660004DF583EEF0A3EFF0E54E2435F582E4354DF5837401F0E54E242BF582E4354DF57B
:2046800083A3E025E0FF0582D5820215831582E033FEE54E242BF582E4354DF583EEF0A398
:2046A000EFF002477EE54E2421F582E4354DF583A3E025E0FF0582D5820215831582E033DE
:2046C000FEE54E2425F582E4354DF583EE8FF01205A0302D2F785DE26545600302477E755B
:2046E000F009E545A42403F582E5F03421F583E54525E02583AF82F54D8F4EF58374C0F0F0
:20470000C22D807A7875E6701FA22CB3501A854E82854D83E0FF549064906062854E828566
:204720004D83EF44C0F08056E54E2421F582E4354DF583A3E025E0FF0582D582021583150F
:2047400082E033FE785BE2FDC3EF9DFFEE9400CF24FFF550EF34FFF54FE4FF1255A1054770
:20476000904B9CE054FEF0AB50AA4FAD457F16120FA5D22E854E82854D83A37440F0E54E3B
:20478000243EF582E4354DF583E0FEA3E04E706CAD45AF4EAE4D12A10C8061E54E24F5F50C
:2047A00082E54D3401F583E07052E54E241DF582E4354DF583E475F0011205A0E54E2421B4
:2047C000F582E4354DF583A3E025E0FF0582D5820215831582E033FEE54E2425F582E435D1
:2047E0004DF583EE8FF01205A00547904B9CE054FEF0700312B98BAF4512944CE5476006AA
:204800007874E254BFF20545E545C39402500302417522D22C78487410F2901FD0E024F91B
:20482000700302495F24F8700302499C24EC600724206003024E1F7873E664026003024973
:204840004C90BE27E00490BA0BF090B44E7409F0A374F3F0901FD5E0FEA3E02406F582E40B
:204860003EF583E0448090B455F0789F760290BF22E04430F0905D88E05407FF904C34E072
:204880006F6060E4FDFC7F0712AF41905D88E05407C454F0FE904B26E0548FFCA3E0FDECA2
:2048A0004EFEEDFF904B26EEF0FCA3EFF0FDAD077F0B12AF41905D88E0540725E024CFF589
:2048C00082E4345FF583E0FCA3E0FD7F3612AF41905D88E05407904C34F07D017C007F0724
:2048E00012AF4190B4337403F090B86EE04480F090BE1AE04401F090BA2B7402F0785274F8
:2049000022F290B442740AF0A374F2F0901FD5E0FEA3E02407F582E43EF583E0FFA3E09083
:20492000B43ACFF0A3EFF0E490BA23F07451F090B4697422F07853F2901FD0E04404F0309B
:20494000270A7860E2FF7004EF4401F2784AE2FF64106008EF64116003024E1FD221229079
:204960001FD4E004F07006901FD3E004F0901FD5E0FEA3E0240BF582E43EF58374FFF5F027
:204980001205A045F06011901FD174FFF5F01205A045F06003024E1F12AB64227838E2FB54
:2049A000E4FD7FA2120FB6901FD5E0FEA3E0240DF582E43EF583E0F54690BE24E0FCA3E00B
:2049C000FDA3E0FEA3E0FF78011207CD8E448F457F2812B64F75F009E546A42403F582E554
:2049E000F03421F583E54625E02583F5837480F0904B9CE054FDF04401F075F009E546A4BC
:204A00002420F582E5F03421F583E54625E02583F58374FFF0A3F075F009E546A42422F57B
:204A200082E5F03421F583E54625E02583F58374FFF0A3F075F009E546A42445F582E5F01A
:204A40003421F583E54625E02583F583E4F0901FD5E0FCA3E0FD241AF582E43CF583E0FF59
:204A600075F009E546A4240BF582E5F03421F583E54625E02583F583EFF075F009E546A445
:204A80002405F582E5F03421F583E54625E02583AF82FEED241BFDE43CFC7B0612322D9006
:204AA0001FD5E0FEA3E0FF2424F582E43EF583E0FCA3E0FD75F009E546A42424F582E5F01C
:204AC0003421F583E54625E02583F583ECF0A3EDF0EF2426F582E43EF583E0FEA3E0FF753E
:204AE000F009E546A42426F582E5F03421F583E54625E02583F583EEF0A3EFF0901FD5E077
:204B0000FEA3E0FF2428F582E43EF583E0FCA3E0FD75F009E546A4243DF582E5F03421F528
:204B200083E54625E02583F583ECF0A3EDF0EF2430F582E43EF583E0FF75F009E546A424B2
:204B400044F582E5F03421F583E54625E02583F583EFF0901FD5E0FEA3E0242EF582E43EF9
:204B6000F583E0F547A3E0F548E5452402CFE43544CF2548CF3547FEEF4401FF75F009E55A
:204B800046A42428F582E5F03421F583E54625E02583F583EEF0A3EFF075F009E546A424B5
:204BA0003DF582E5F03421F583E54625E02583F583E0FEA3E07803C333CE33CED8F9FF7569
:204BC000F009E546A42424F582E5F03421F583E54625E02583F583E0FCA3E0FD122FEA8E47
:204BE000498F4A75F009E546A4243DF582E5F03421F583E54625E02583F583E0FEA3E078B3
:204C000003C333CE33CED8F9FF75F009E546A42424F582E5F03421F583E54625E02583F591
:204C200083E0FCA3E0FD123012EF4E6008054AE54A7002054975F009E546A42441F582E560
:204C4000F03421F583E54625E02583F583E4F0A37407F075F009E546A42443F582E5F03441
:204C600021F583E54625E02583F583E4F075F009E546A4243FF582E5F03421F583E546256E
:204C8000E02583F583E549F0A3E54AF075F009E546A42447F582E5F03422F583E54625E042
:204CA0002583F583E4F075F009E546A424A1F582E5F03421F583E54625E02583F583E4F0C1
:204CC00075F009E546A424A0F582E5F03421F583E54625E02583F583E4F075F009E546A459
:204CE000249FF582E5F03421F583E54625E02583F583E4F090425D7404F0904261E04408BE
:204D0000F0785FE204F2C22C75F009E546A42404F582E5F03421F583E54625E02583F58338
:204D20007402F07875E254FEF2E47860F2902628E0FEA3E0FF75F009E546A424FFF582E552
:204D4000F03422F583E54625E02583F583EEF0A3EFF09020D9E0FCA3E0FD75F009E546A4C3
:204D60002401F582E5F03423F583E54625E02583F583ECF0A3EDF075F009E546A42403F5EE
:204D800082E5F03423F583E54625E02583F583EEF0A3EFF09020D9E0FEA3E0FF75F009E501
:204DA00046A42405F582E5F03423F583E54625E02583F583EEF0A3EFF0902628E0FCA3E0D8
:204DC000FD75F009E546A42407F582E5F03423F583E54625E02583F583ECF0A3EDF075F042
:204DE00009E546A42409F582E5F03423F583E54625E02583F583EEF0A3EFF07874E2444091
:204E0000F208E2F275F009E546A424FCF582E5F03422F583E54625E02583F5837403F02274
:204E200090321A7408F0A3E4F0FF7E08122E718E578F58E4F55990406CE493FE740193FFC7
:204E4000E55925E024CFF582E4345F12A5E3E559B406E3906004E0FEA3E07C002400FFECD9
:204E60003E90321AF0A3EFF090321AE0FEA3E0FF2402F58274603EF583E06423707674037F
:204E80002FF58274603EF583E06445706790321AA3E02404F58274603EF583E0644E7054A4
:204EA00074052FF58274603EF583E0644470457C607D007BFFAF58AE5712322DE55824FF5C
:204EC000FFE43557FE7C607DFF7BFF12322DE55824FEFFE5573401FE7C617DFE7B0212323C
:204EE0002DE42558FFE5573402FEE4FB7DFF120043024FABAA57A9587B01756106E4FDFCD2
:204F000012B7E4E5582404F582E43557F583E0FEE5582405F582E4355712A5A9FE90321ABB
:204F2000F0A3EFF07B017A3279162402FDE43EFC75610412B7E4903216E06423706DA3E0E1
:204F400064457067A3E0644E7061A3E06444705B90321CF0A3F0F55990321AE0FEA3E0FFEA
:204F6000A3E0FCA3E0FDC39FEC9E503FE55964086011ED2558FFEC3557FAA9077B017561BF
:204F8000FF801790321DE090321C12A5FBFAA9077B01E0FCA3E0FD75610812B7E490321C41
:204FA000E475F0FF1205A0055980AD903211E4F0A37406F012A5D2255812A58BFFF4700305
:204FC000025219EF70030252196406704812A5B412A5876406703E780B7C327D017BFF7A0F
:204FE0000F79FAFE7F061204BB7E5D7F007C327D0B7B06123113401D7E5D7F00903212E009
:205000002558FD903211E03557CD2402CD3400FC7B0612322D12A5D2FF255812A58B640446
:205020007056EF240312A5C22402FDEF2401FFE43E12A5878DF084903213F0E4F5599032CB
:2050400013E0FFE559C39F502F12A5DA2406FFE412A586FEED2405FDE412A59FFE90321247
:20506000E02402FD12A5BB12A5C525E024CDF582E4345F12A5E380C612A5D2255812A58B33
:20508000FF64076008EF6408600302514012A5B412A58775F00384903214F0903214E0706C
:2050A0000302514014F075F00312A5706486701A12A5ED12A57CFE903212E0240412A59457
:2050C000905FCDF0A3EFF002509BE975F003A4FF12A5DA2402FBE43CCB2FFFEB35F012A52F
:2050E00087F9903214B4851912A5F4ED2404FDE43CCD2FFFED35F012A587905FDFF00250D0
:205100009B12A5F412A5EDFD12A5BBCD2FFFED35F012A587FC90321412A5F4903211E0FAC1
:20512000A3E02404FBE43ACB2FFFEB35F012A5877E002400FDEE3CFCAF0112B29802509BA6
:2051400012A5D2255812A58B640970607F02FE122E718E5A8F5B12A5B412A58775F0068430
:20516000903215F0903215E0603B14F075F00612A570FE12A5ED12A594F55A8F5B90321286
:20518000E090321112A5FBCF2404FDE43FFCE975F006A42DFDE5F03CFC7B04AF5BAE5A12C5
:2051A000322D025164AF5BAE5A12320512A5D2255812A58B640A703412A5DA2402FFE41278
:2051C000A586FEED2403FDE412A59F905FDDF0A3EFF012A5DA2404FFE412A586FEED240530
:2051E000FDE412A59F905FDBF0A3EFF012A5D2FF240112A5C2FDEF2402FFE43ECF2DCF34E4
:2052000000FE903211F0A3EFF0C390321BE09F90321AE09E4003024FB4AF58AE5702320545
:2052200090321312B93490320FF090320FE0FEC3940A501BEE75F003A42490F582E43431F0
:20524000F583E4936F600890320FE004F080DB90320FE0FE75F003A42492F582E43431F562
:2052600083E493903212F0EE75F003A42491F582E43431F583E493903211F0E4903210F0A9
:20528000903210E0FEC3940C50169032131208548E8212B93F6F6008903210E004F080E05B
:2052A000903210E0FC12086652D000530F0153470253850353BF0453F90554370654710700
:2052C00054AF0854ED09552B0A55660B000055A0903211E0702053AFBFA3E0FE700890B8EF
:2052E00020E054BFF022EE640160030255A090B820E04440F02243AF4090481CE0B5040B34
:20530000905D2CE020E10453B0BF2243B04022903211E0701A53A2FEA3E0FD700590B822C7
:205320008036ED640160030255A090B822803943A20112B92AB5070B905D2CE020E10453F5
:2053400090FE2243900122903211E0702053A3FEA3E0FD700890B823E054FEF022ED640177
:2053600060030255A090B823E04401F02243A30112B92AB5070B905D2CE020E1045380FEBF
:205380002243800122903211E0701C53AFFDA3E0FD700690B8200254C0ED64016003025547
:2053A000A090B8200254D043AF0212B92AB5070B905D2CE020E10453B0FD2243B002229048
:2053C0003211E0701C53AFFBA3E0FD700690B8200254FEED640160030255A090B820025504
:2053E0000E43AF0412B92AB5070B905D2CE020E10453B0FB2243B00422903211E070205320
:20540000AFF7A3E0FD700890B820E054F7F022ED640160030255A090B820E04408F02243B4
:20542000AF0812B92AB5070B905D2CE020E10453B0F72243B00822903211E0701C53AFEF92
:20544000A3E0FD700690B82002553CED640160030255A090B82002554943AF1012B92AB5FB
:20546000070B905D2CE020E10453B0EF2243B01022903211E0702053A37FA3E0FD700890A3
:20548000B823E0547FF022ED640160030255A090B823E04480F02243A38012B92AB5070B7D
:2054A000905D2CE020E10453807F2243808022903211E0702053A2FDA3E0FD700890B8227E
:2054C000E054FDF022ED640160030255A090B822E04402F02243A20212B92AB5070B905DAB
:2054E0002CE020E1045390FD2243900222903211E0702053A1FBA3E0FD700890B821E054DB
:20550000FBF022ED640160030255A090B821E04404F02243A10412B92AB5070B905D2CE092
:2055200020E10453A0FB2243A00422903211E0701D53A1EFA3E0FD700890B821E054EFF0B6
:2055400022ED6401705A90B821E04410F02243A11012B92AB5070B905D2CE020E10453A0BD
:20556000EF2243A01022903211E0701D53AFDFA3E0FD700890B820E054DFF022ED6401709D
:205580001F90B820E04420F02243AF2012B92AB5070B905D2CE020E10453B0DF2243B0204B
:2055A000229031EB7401F075F009EFA42403F582E5F03421F583EF25E02583AF829031E900
:2055C000F0A3EFF090425DE0640860030258029031E9E0FEA3E0FF24F6F582EE3401F583E9
:2055E000E07003025802EF24F7F582EE3401F583E0F91470030256D324F170030256FF2452
:20560000F070030256FF241E60030257E59031E9E0FEA3E0FF241DF582E43EF583E0FCA312
:20562000E0FDEF2433F582E43EF583E0FEA3E0FFD39DEE9C401F9031E9E0FCA3E0241DF53E
:2056400082E43CF583E0FCA3E0FDC3EF9DF552EE9CF55180309031E9E0FEA3E0FF241DF57E
:2056600082E43EF583E0FCA3E0FDC3E49DFDE49CFCEF2433F582E43EF583E0FEA3E02DF51B
:2056800052EE3CF5519031E9E0FEA3E02423F582E43EF583E0FEA3E02401FFE43EFED3E588
:2056A000529FE5519E502C9031E9E0FEA3E0FF24F7F582EE3401F5837404F0EF241DF58263
:2056C000E43EF583E475F0011205A0E49031EBF002581D9031E9E0FEA3E0FF2423F582E48C
:2056E0003EF583E0FCA3E02401FDE43CFCEF241DF582E43EF583EC8DF01205A002581D90EF
:2057000031E9E0FEA3E0FF2446F582E43EF583E0540F60030257B1EF2443F582E43EF5837D
:20572000E030E4030257B17854E2FE08E2FF4E60088F828E83E020E2789031E9E0FEA3E096
:20574000FF2429F582E43EF583E030E22C9031E9E0FCA3E0FD24F7F582EC3401F583740227
:20576000F0E49031EBF0ED241DF582E43CF583E475F0011205A002581D9031E9E0FCA3E0FB
:20578000FD24F7F582EC3401F5837401F0ED2423F582E43CF583E0FCA3E02401FDE43CFC9C
:2057A000EF241DF582E43EF583EC8DF01205A0806CE9B410139031E9E0FEA3E024F7F5823F
:2057C000EE3401F5837420F09031E9E0FEA3E0241DF582E43EF583E475F0011205A0E490D8
:2057E00031EBF080389031E9E0FEA3E0241DF582E43EF583E475F0011205A0E49031EBF007
:20580000801B9031E9E0FEA3E0241DF582E43EF583E475F0011205A0E49031EBF09031EB63
:20582000E060479031E9E0FCA3E0FD2421F582E43CF583A3E025E0FF0582D5820215831573
:2058400082E033FEED2423F582E43CF583E0FCA3E0FD12058E9031E9E0FCA3E02425F582A8
:20586000E43CF583EE8FF01205A0228F46E47887F2786BE6FE08E6FFF5828E83E054A0642C
:20588000A06003025A52E58224F4F582E5833401F583E0606E120F2E9031E3EEF0FCA3EF3F
:2058A000F0FD9031E3E0FEA3E0FF2404F582E43EF5837403F0786AE64480FBEF2405F58241
:2058C000E43EF583EBF0786BE6FE08E68E8324F4F582E5833401F583E0FFED2406FBE43CD8
:2058E0008B82F583EFF0A37401F07F06120EFB786BE6FE08E68E8324F4F582E5833401F5B5
:2059000083E4F0E5466402600302599A12B13890B85FE0640F60F80000000090BF42E03059
:20592000E50A12A68E7887EFF20259B9786BE6FE08E6FF8E832440F582E43583F583740115
:20594000F08F828E83E5822446F582E43583F583E04408F0901DA7E020E10778877401F21B
:20596000802F786BE6FE08E68E832497F582E43583F583E030E4151275B67F01128D83780C
:205980006D7600087601789F7601800578877401F2901DA7E054FDF0801FE546B4011A78A6
:2059A000877401F2786BE6FE08E68E832446F582E43583F583E04408F078A1E660057887BF
:2059C0007401F2786BE6FA08E6FB8A8324F9F582E5833401F583E0700478A1760190BE24A8
:2059E000E0FCA3E0FDA3E0FEA3E0FF78011207CD7885EEF208EFF2EB2425F582E43AF583E2
:205A0000E0FEA3E0FF18E2FC08E2FDC3EF9DFFEE9CFED3EF9403EE9400503C087401F2900D
:205A2000BA23E0548CF090BA2BE0548CF090BA23E0440CF090BA2BE0440CF0786BE6FE08C3
:205A4000E68E832446F582E43583F583E04408F0800578877401F27887E264016003025A4E
:205A6000F5786DF608F6786BE6FC08E6FDF5828C83E054DFF090BA23E0548CF090BA2BE0AD
:205A8000548CF090BA23E0440CF090BA2BE0440CF00000000090B433E054FEF090BF23E029
:205AA0004440F090BF22E054B7F08D828C83A37402F018E6FE08E6FF8E8324F0F582E58312
:205AC0003401F583E0601D8F828E83E58224F0F582E5833401F583E4F0786AE64480FD7FB7
:205AE0003C12B5E9904B9CE054FEF0700312B98BE478A1F622129561228C518D5275F009EF
:205B0000EFA42403F582E5F03421F583EF25E02583AF82FE9031F0F0FCA3EFF0FD8C832498
:205B200025F582E43583F583E0FEA3E0C39552FFEE9551FE9031ECF0A3EFF08D828C83E5B7
:205B4000822421F582E43583F583A3E025E0FD0582D5820215831582E033FC122FEA903164
:205B6000E9EFF09031F0E0FEA3E02421F582E43EF583A3E025E0FD0582D582021583158261
:205B8000E033FC9031ECE0FEA3E0FF1230129031EAEEF0A3EFF09031E9E0FF70149031F0CC
:205BA000E0FCA3E024F7F582EC3401F5837410F022EFD394005003025D779031E9E0FD14AB
:205BC0006003025CA3D39031EBE094029031EAE0940050149031F0E0FEA3E024F7F582EE57
:205BE0003401F5837410F0229031F0E0FEA3E0FF2425F582E43EF583C083C082E0FAA3E015
:205C0000FBEF2421F582E43EF583A3E025E0FF0582D5820215831582E033FE7C0012058E7C
:205C2000C3EB9FFFEA9ED082D083F0A3EFF09031F0E0FEA3E0241DF582E43EF583C083C012
:205C400082E0FEA3E0FF9031E9E0FDC3EF9DFFEE9CD082D083F0A3EFF09031F0E0FEA3E0DA
:205C60002425F582E43EF583E0FEA3E0C39552FFEE9551FE785BE2FDC3EF9DFFEE9CFE90D6
:205C800031EEF0FAA3EFF0FBE4FD7F16120FA59031F0E0FEA3E024F7F582EE3401F583748F
:205CA00020F022D39031EBE094029031EAE0940050069031E9E014F09031F0E0FEA3E0FFA9
:205CC0002425F582E43EF583C083C082E0FAA3E0FBEF2421F582E43EF583A3E025E0FF05BC
:205CE00082D5820215831582E033FE9031E9E0FD7C0012058EC3EB9FFFEA9ED082D083F078
:205D0000A3EFF09031F0E0FEA3E0241DF582E43EF583C083C082E0FEA3E0FF9031E9E0FD31
:205D2000C3EF9DFFEE9CD082D083F0A3EFF09031F0E0FEA3E02425F582E43EF583E0FEA387
:205D4000E0C39552FFEE9551FE785BE2FDC3EF9DFFEE9CFE9031EEF0FAA3EFF0FBE4FD7FEA
:205D600016120FA59031F0E0FEA3E024F7F582EE3401F5837420F0228F4475450175F00966
:205D8000EFA42403F582E5F03421F583EF25E02583AF82FE7885F208EFF28E83A3E0644055
:205DA0006003025FF39020DBE030E00512ACA580169020E7E0FF30E10E5430FFBF1005E4E3
:205DC000F545800312AB647885E2FE08E2FF24FAF582EE3401F583E0D394035003025E8969
:205DE000EF2421F582E43EF583A3E025E0FF0582D5820215831582E033FE785BE2FDC3EF53
:205E00009DFFEE9400CF24FFF547EF34FFF546AB47FAAD447F16120FA57885E2FC08E2FDDF
:205E20002421F582E43CF583A3E025E0FF0582D5820215831582E033FEED2425F582E43C9A
:205E4000F583EE8FF01205A07885E2FE08E2FF241DF582E43EF583E475F0011205A0D22E8D
:205E60008F828E83A37440F0E4F54512A30C7885E2FE08E2FF243EF582E43EF583E0FCA322
:205E8000E04C7005AD4412A10CE5457003025FF3904B9CE04401F054FE700912BA30904B92
:205EA000A97401F07885E2FE08E2FFF5828E83A37408F07874E24440F208E2F2AD44786A84
:205EC000EDF6F6786BEEF608EFF618A60608F67885E2FE08E2FF24F5F582EE3401F583740E
:205EE00005F0EF2408F582EE3402F583E4F0EF2429F582E43EF583E030E06718E2FE08E225
:205F0000FF241DF582E43EF583E0FCA3E0FDEF2438F582E43EF583E0FEA3E0C39DF547EE8D
:205F20009CF5464547600BD3E5479400E54694F040307EB47F587C1F7DD77B01122F1C9080
:205F40001FDBE0541F90B45FF090B454E04480F07885E2FE08E22429F582E43EF583E054DC
:205F6000FCF07885E2FE08E2FF24FAF582EE3401F583E0FDC374039DFDEF24F9F582EE34E9
:205F800001F583EDF0905D89E05407FF904BA1E06F6060E4FDFC7F0712AF41905D89E05461
:205FA00007C454F0FE904B26E0548FFCA3E0FDEC4EFEEDFF904B26EEF0FCA3EFF0FDAD0762
:205FC0007F0B12AF41905D89E0540725E024CFF582E4345FF583E0FCA3E0FD7F3612AF4113
:205FE000905D89E05407904BA1F07D017C007F0712AF412290423CE06003026247901FD065
:20600000E0540364036003026095904C3574041282BFFF2417128255E0FCA3E0FDEF240B0F
:20602000128255ECF0A3ED1282BFFF24071282557422F0EF24081282557405F0EF2421126C
:206040008255E0B4010C1282C02408128255E04440F01282C0FF2419128255E07018EF2417
:206060001A128255E0B4010E901FD5A3E02408128255E04480F07E0A7FF2901FD6E0243117
:20608000FD901FD5E03400FC7B2212322D90423C740902623A901EA3E020E003026175909C
:2060A0004C357401F090251BE014601114601614601B2403701DE4901EA4F08016901EA4EA
:2060C0007401F0800E901EA47406F08006901EA47402F0901EA37401F0902524E0901EAB0B
:2060E000F0E4901EADF0901EA4E0540F901EADF090251CE0B40107901EADE04440F07E0AFD
:206100007FF212624812838C702390251DE0B40107901EADE04480F07E0A7FF87C257D1E06
:206120007B0612322D901EAC740CF0801C901FC9E0FB600B7E0A7FF87C257D2612322D9005
:206140001FC9E02406901EACF07E0B7FF11262487E0B7FF77C1D7DB0902516E0FB12322D72
:2061600012838C60081282DE7FA0120FA590423C740702623A9020DBE030E06E904C3574AA
:2061800005F09020DC7402F09020DB14F0902101E09020E3F0E49020E5F09020DCE0540F3C
:2061A0009020E5F0902100E0B401079020E5E04440F07C207DDD12625290262AE0FB600B42
:2061C0007E0A7FF87C1E7DC612322D90262AE024069020E4F01283789020FE1282EC7FA4A6
:2061E000120FA590423C740A80509020E7E030E056904C357402F0901D86E09020E8F090FE
:206200001D89E0FFA3E09020F5CFF0A3EFF09020E8E06401701F9020F0740CF0A37403F00A
:20622000901D8BE0B401079020F1E04440F07C207DE912625290423C7408F0904BA2740161
:20624000F07875E24401F2227C1E7DA57B0612322D227E0A7FF27B0612322D22E4FDFC7FED
:206260000712B2989003A0E0FEA3E064557003EE64AA600F7E037F4A7C417D0E7B587A00B1
:20628000123087905D49E0FE540F90A4E9F0EEC4540F90A4EFF090A4E3E0541F904C0BF048
:2062A00090A4EDE054FBF090A4EAE054EFF012A7A3E412BAA8904B06CFF0A3EFF07F0B12FB
:2062C000BAA9904B26CFF0A3EFF07F0C12BAA9904B2ACFF0A3EFF07F1212BAA9904B0CCF17
:2062E000F0A3EFF07F1412BAA9904B0ECFF0A3EFF07F1612BAA9904B10CFF0A3EFF07F172E
:2063000012BAA9904B18CFF0A3EFF07F1812BAA9904B1ECFF0A3EFF07F1912BAA9904B2284
:20632000CFF0A3EFF07F1B12BAA9904B28CFF0A3EFF07F1C12BAA9904B2CCFF0A3EFF07FF2
:206340001D12BAA9904B2ECFF0A3EFF07F1E12BAA9904B30CFF0A3EFF07F1F12BAA9904B15
:2063600032CFF0A3EFF07F2012BAA9904B08CFF0A3EFF07F3012BAA9904B0ACFF0A3EFF028
:206380007F3512BAA9904B16CFF0A3EFF07F3612BAA9904B1CCFF0A3EFF07F3E12BAA9907E
:2063A0004B34CFF0A3EFF07F5412BAA9904B1ACFF0A3EFF07F5512BAA9904B20CFF0A3EF0A
:2063C000F07F6112BAA9904B12CFF0A3EFF07F6712BAA9904B24CFF0A3EFF07F6212BAA959
:2063E000904B14CFF0A3EFF07D087C007F6012B298E4FE12BADE0EBE0AF9E4FDFC7F601208
:20640000B29890B6777440F090B908120817104428003000097D017C007F0712B298904BE3
:206420000EE0FFA3E0903561CFF0A3EFF090BC22E0547FF0905D28E0B4011043A20143A1F0
:206440001043870890B83AE04420F090B005E04408F0E490B004F090B807F090B805F0129D
:20646000BAA8904B06CFF0A3EFF0E020E708904C0F7401F08005E4904C0FF090BE12E04491
:2064800003F090BE1AE054FDF0904B32E0FFA3E090355BCFF0A3EFF0904B0AE0FFA3E090D9
:2064A000355DCFF0A3EFF0904B28E0FFA3E090355FCFF0A3EFF090B20BE04414F0228F49D0
:2064C0008D4A8A4B8B4C90B430E020E5F990B4BBE54DF090B4BAE54EF07EB47FB47B05AD13
:2064E00050AC4F12322D90425DE0B4040990B4B8E0547FF0800790B4B8E04480F07EB57FA8
:20650000FCE549254CFDE4354BFC7B0412322D7EB57F00AB49AD4CAC4B12322D90B430E038
:206520004404F090B430E020E5F990B430E020E6030266F690B439E0540364037059785664
:20654000E204F2E2B41002E4F27856E275F01FA4245EF582E5F03444AF82FE7CB57D00AB3F
:206560004912322D7856E2FF75F009A42442F582E43443F583E549F0EF75F009A4243EF57A
:2065800082E43443F5837401F0786AE64480FD7F0712B5E90266E7786BE6FE08E68E832449
:2065A00047F582E43583F583E030E70E786AE64480FD7F3A12B5E90266E7E54970030266BA
:2065C000E7120F3F9031E5EEF0A3EFF09031E5E0FEA3E0FF2405F582E43EF583E4F0786A78
:2065E000E64480FDEF2406FFE43EFE8F82F583EDF0A3E54AF0784CE2FD08E28F828E83A342
:20660000A3CDF0A3EDF08F828E83E5822404F582E43583F583E4F0A3E549F09000F2E0FD6A
:206620008F828E83E5822406F582E43583F583EDF0ED04540FFF9000F2F09000F1E0B5075D
:206640000FD2169000F77401F090B81BE0547FF09031E5E0FCA3E0FD2404F582E43CF58318
:206660007403F07F04120EFB784CE2FE08E27C002549FFEC3EFED3EF9429EE9409404D18C7
:20668000E2FE08E2FFFD742A9DF5517CB57D00FB12322D7E087F6A7C007AB579007400256D
:2066A00051F9EC34B5FCAD01C3E5499551FB12322DC3E5499551FFE49400FE746A2FF97408
:2066C000083EAF01784CF208EFF2801B784CE2FE08E2FF7CB57D00AB4912322D784DE2251E
:2066E00049F218E23400F2789E76017D04AF50AE4F12B9C8801A202914E54AB403127E092C
:206700007F4F7CB57D00AB4912322D80037F01227F00227E217F037887EEF208EFF22423A2
:20672000F582E43EF583E0FEA3E04E604418E2FC08E2FD2421F582E43CF583A3E025E0FF3D
:206740000582D5820215831582E033FE788BF208EFF2ED2423F582E43CF583E0FCA3E02475
:2067600001FDE43CFC122E9D7889EEF208EFF280227887E2FE08E22421F582E43EF583A3F4
:20678000E025E0798AF30582D5820215831582E03319F3904B9DE07002A3E060257889E23B
:2067A000FE08E2FF08EEF208EFF2904B9EE02401FD904B9DE03400FC122E9D7889EEF20858
:2067C000EFF2904C3AE070237889E2FF08E208CFF208EFF2798BE3C4F854F0C868FF09E3CF
:2067E000C4540F487889CFF208EFF27889E2FE08E2FFC39470EE94174047E49031E3F07DD9
:20680000D07C07122FEA9031E3EFF0D3941940037419F09031E3E0FF2402FE7887E2FC08AB
:20682000E2FD24EBF582EC3401F583EEF0E47863F2EF04FFED24EDF582EC3401F583EFF0EC
:20684000227889E2FE08E2FFD394A0EE940F40257887E2FC08E2FD24EBF582EC3401F5836C
:206860007404F0E47863F2ED24EDF582EC3401F5837403F022C3EF94D0EE94074025788765
:20688000E2FE08E2FF24EBF582EE3401F5837403F0E47863F2EF24EDF582EE3401F5837470
:2068A00002F0227889E2FE08E2FFC394E8EE940340257887E2FC08E2FD24EBF582EC340166
:2068C000F5837402F0E47863F2ED24EDF582EC3401F5837401F022C3EF9430EE9402402535
:2068E0007887E2FE08E2FF24EBF582EE3401F5837401F0E47863F2EF24EDF582EE3401F50A
:20690000837401F0227887E2FE08E2FF24EBF582EE3401F583E4F0EF24EDF582EE3401F521
:2069200083E4F008E2FE08E2FF7D0A7C00122E9D78051207CD7863EFF222901EB2E070025C
:20694000A3E06003026B4E90BE24E0FCA3E0FDA3E0FEA3E0FF78011207CD7885EEF208EF92
:20696000F2901EB4E0FEA3E0FF7C097DF37B2212322D7F2212B64FE4902120F0A3F074FFFD
:20698000A3F0A3F0E4902145F090B439E05440FFC41313540390210BF07E217F05901EB4A5
:2069A000E0FCA3E0FD7B0612322D901EB4E0FCA3E0FD2417F582E43CF583E0FEED2416F587
:2069C00082E43CF583E07C002400FFEC3E902124F0A3EFF0901EB4E0FCA3E02419F582E454
:2069E0003CF583E0FEED2418F582E43CF583E07C002400FFEC3E902126F0A3EFF0901EB479
:206A0000E0FCA3E0241BF582E43CF583E0FEED241AF582E43CF583E07C002400FFEC3E9078
:206A2000213DF0A3EFF0902125E025E0FF902124E033FE7886E22FFF18E23E902128F0A334
:206A4000EFF07E217F0C901EB5E0241CFD901EB4E03400FC7B0512322D7E217F11901EB5B8
:206A6000E02410FD901EB4E03400FC7B0312322D7E217F14901EB5E0240CFD901EB4E0348C
:206A800000FC7B0412322D901EB4E0FEA3E02421F582E43EF583E0FE541F902118F0EE54A5
:206AA000E0FFC4135407902144F0902141E4F0A37406F0E4A3F07D01FF129C37789F7601A6
:206AC00090BF22E04408F0901EB4E0FEA3E02413F582E43EF583E025E0FDE433FC7F717EBB
:206AE00002122E9D90B86EEEF0A3EFF0901EB4E0FEA3E02413F582E43EF583E025E0FEE4CF
:206B000033901EB0F0A3CEF090BE27E00490BA0BF090BA2B7402F090B44E7409F0A3744FB5
:206B2000F0E490B43AF0A3F090B43BE054FC4401F0E054FBF0E490BA23F07431F090B469FA
:206B40007422F0901EA3E04440F012671322901EB3E024FFF0901EB2E034FFF022786AE2BF
:206B6000249F7003026C47147003026CC3147003026D2F24FE7003026C2324056003026D2C
:206B80007C901FCBE064016003026C17901EA3E0FF30E003026D7C902525E06006128325CA
:206BA0007428F0EF4401901EA3F090251BE0FF6003B40117901EB4E07002A3E0700D7F02C1
:206BC0001228D4901EB4EEF0A3EFF090251BE064017065902525E020E12F7EB37F547C256C
:206BE0007D1E7B0612322D90251DE090B364B40106E04440F08004E054BFF090B366E0446C
:206C000040F090B363E04420F07B007A08E4FD7FA3120FA5026D2C901EA3E06003026D7C8A
:206C200002B421902833E0B401119020DBE0FF30E003026D7C4401F0026D2C9020DBE060E9
:206C400003026D7C02B974901FCAE06401702F9020E7E0FF30E003026D7C901D8CE06006C7
:206C60001283257447F0EF44019020E7F09020EF7425F09020F27401F0A3F0026D2CE49023
:206C8000B36612832AF090423CE0B408031282A212AA81901FCCE07002A3E07003026D7C5E
:206CA000901FCCE0FEA3E0FFF5828E83E0FCA3E08C30F531122BB9901FCCE530F0A3E53101
:206CC000F080D0901FD0E06003026D7C901FD5E0FCA3E0FD24191283ABE0600990B3667404
:206CE000FFF0A3802F7EB37F48ED241BFDE43CFC7B0612322D1282C0241A128255E090B386
:206D000064B40106E04410F08004E054EFF090B366E04410F090B3637403F01282C0240641
:206D20001282557425F0901FD07403F002BAD4128361901FD0F090423CE0B40902E4F01273
:206D400082C0FF4E6003122BB91283317FA2120FB612830E120FA5120F2E8E308F311282C3
:206D6000F5128291A3A3A37401F08F828E8312823404F0AD31AC307F04120EFB22D22C78DD
:206D8000487410F29020E7E054BF24FD7003026EE624F87003026F1724FC7003026F17246B
:206DA000F87003026F3324E07003026F8924B6600724806003026F967873E6640260030268
:206DC0006F9690BE27E00490BA0BF090B44E7409F0A374F3F09020EFE0448090B455F078D3
:206DE0009F760290BF22E04430F0905D88E05407FF904C34E06F6060E4FDFC7F0712AF4194
:206E0000905D88E05407C454F0FE904B26E0548FFCA3E0FDEC4EFEEDFF904B26EEF0FCA3DA
:206E2000EFF0FDAD077F0B12AF41905D88E0540725E024CFF582E4345FF583E0FCA3E0FDCC
:206E40007F3612AF41905D88E05407904C34F07D017C007F0712AF4190B4337403F0901DBE
:206E600089E0FFA3E09020F7CFF0A3EFF090B86EE04480F090BE1AE04401F090BA2B74028D
:206E8000F078527421F29020E8E0B401329020E7E04440F09020F0E0FFA3E090B43ACFF028
:206EA000A3EFF090B442740AF0A374F2F0E490BA23F07451F090B4697422F0785314F290D9
:206EC00020E7E04402F030270A7861E2FF7004EF4401F2784AE2FF64106008EF641160039A
:206EE000026F96D221229020FAE004F070069020F9E004F09020F574FFF5F01205A045F01C
:206F000060119020F774FFF5F01205A045F06003026F9612AB64229020FDE06012E47861AC
:206F2000F212B361E49020FDF07F2412B64F2212AB64229020FBE014F0E0705A7F2612B6F3
:206F40004F12AB649020F4E070229020F3E025E0F545E433F544C3E5459401E5449400401A
:206F6000057401F080069020F3E545F090BE27E0FF7E009020F3E0FD7C00123012EF0490BF
:206F800020F2F0E49020F4F0227F2512B64F7875E254FEF2C22C2290BE17E04402F00000FC
:206FA000000090BE00E0FCA3E0FDA3E0FEA3E0FF78011207CD7885EEF208EFF2E4901EA3CA
:206FC000F07F2112B64F90B85FE0640F60F80000000090BF42E030E50790B43BE04404F094
:206FE00090213DE0FEA3E07803C333CE33CED8F9FF902124E0FCA3E0FD122FEA8E468F472C
:2070000090213DE0FEA3E07803C333CE33CED8F9FF902124E0FCA3E0FD123012EF4E6008E7
:207020000547E54770020546AE46AF4790213FEEF0A3EFF0A3EEF0A3EFF0A37401F0904BFB
:207040009CE054FDF04401F0902125E025E0FF902124E033FE7886E22FFF18E23ECF24FF66
:20706000CF34FFFE9022F0E0FDC3EF9DFFEE9400902128F0A3EFF0E49022F9F0902247F00E
:207080009021A1F09021A0F090219FF090425D7408F0904261E04404F0785FE204F2E4783C
:2070A0006AF6F67E217F03786BEEF608EFF618A60608F6902628E0FEA3E0FF9022FFEEF016
:2070C000A3EFF09020D9E0FCA3E0FD902301ECF0A3EDF0A3EEF0A3EFF0A3ECF0A3EDF090A7
:2070E0002628E0A3E0902307EEF0A3EFF09020D9E0FFA3E0902309CFF0A3EFF09022FC74BB
:2071000003F090BF42E030E562D2291289AC786BE6FC08E6FD8C832445F582E43583F5839F
:20712000E06404F090B43BE020E40790B439E030E439789F760190BF22E04448F08D828C0D
:2071400083E04420F07F01128D831275B6786D76000876011295617875E254FEF218E24466
:2071600040F208E2F212A996C22C22786BE6FE08E6F5828E83A37402F0D22E90BF23E044C4
:2071800040F0E4789FF690BF22E05487F090B433E054FEF07875E254FEF218E24440F2088E
:2071A000E2F212A996C22C22E47888F2087480F2E408F2788704F27887E2FFC3940250304A
:2071C00075F009EFA42403F582E5F03421F583EF25E02583F583E0FF7889E2FEEFD39E40FA
:2071E000087887E208F208EFF27887E204F280C77888E2FF70030273A175F009A42403F50D
:2072000082E5F03421F583EF25E02583AF82FE7885F208EFF28E83E0F95490649060030280
:20722000731518E2FA08E2FB242BF582E43AF583E0FEA3E04E600302730090BE24E0FCA319
:20724000E0FDA3E0FEA3E0FF78011207CD8E448F457885E2FC08E2FD2421F582E43CF58333
:20726000A3E025E0FF0582D5820215831582E033FEE5452FFFE5443EFEED2425F582E43CDD
:20728000F583EEF0A3EFF018E2FE08E2F5828E83E954EFF0E04440F0EB2435F582E43AF56E
:2072A00083E06051120F2E8E468F478F828E83E5822404F582E43583F5837402F07888E23D
:2072C0004480FFE5472405F582E43546F583EFF0E5472406FFE43EFE8F82F583743EF0A326
:2072E000A3A37403F08F828E83A3E4F0AD47AC467F04120EFB7888E2FFE4FD129C37801588
:207300007885E2FE08E2242BF582E43EF58374FFF5F01205A07885E2FE08E2F5828E83E008
:2073200054C064C0707B7888E2FF786AF6F675F009A42403F582E5F03421F583EF25E02510
:2073400083AF82FE786BF608EFF618A60608F67888E2FFE4FD129C37E4FF12B1841295611A
:207360001275B67F01128D831295617885E2FE08E2F5828E83E054BFF0E04420F090BF234E
:20738000E054BFF0789F760190BF22E04448F0E054CFF0901DA7E04402F0786D7600087679
:2073A00001904BA9E0600812A602E4904BA9F0228F498D4A789EE660030275B1E549640301
:2073C00070577856E204F2E2B41002E4F27856E275F01FA4245EF582E5F03444AF82FE7CF9
:2073E000097D4FAB4A12322D7856E2FF75F009A42442F582E43443F583E54AF0EF75F00965
:20740000A4243EF582E43443F5837401F0786AE64480FD7F0712B5E922786BE6FE08E68E93
:20742000832447F582E43583F583E030E70C786AE64480FD7F3A12B5E922E54A70030275A3
:20744000B5120F3F9031E5EEF0A3EFF09031E5E0FEA3E0FF2405F582E43EF583E4F0786A1B
:20746000E64480FDEF2406FFE43EFE8F82F583EDF0A3E549F0784CE2FD08E28F828E83A3B4
:20748000A3CDF0A3EDF08F828E83E5822404F582E43583F583E4F0A3E54AF09000F2E0FDDB
:2074A0008F828E83E5822406F582E43583F583EDF0ED04540FFF9000F2F09000F1E0B507CF
