:020000040000FA
:10278A00FF001E0200000000FF1E7500000000008E
:10279A00FFA5380000000000FFD33301010000004C
:1027AA00FFAD820102000000FFDF630100000000AC
:1027BA00FF54580101000000FF15A10100000000AC
:1027CA00FF6FF00202000000FF5E9D02030000009E
:1027DA00FF98040204000000FF6F5F02030000007C
:1027EA00FF8F690203000000FFA1AE02040000008F
:1027FA00FFE8190204000000FF001E0200000000AA
:0100160022C7
:0100170022C6
:0100180022C5
:0100190022C4
:01001A0022C3
:01001E0022BF
:08171D008F438D448A458B4681
:10172500E54645457003021890903ECAE07002A355
:03173500E070233E
:10173800121FCB90482BEEF0A3EFF090482BE0FC63
:10174800A3E0FD2404F582E43CF5837401F07F07EF
:03175800121F98C5
:10175B00AB47AD44AF43121411903ECAE0FFA3E078
:10176B0090482DCFF0A3EFF0E4A3F0A3F090482D19
:10177B00E0FEA3E0FF4E60458F828E83A3A3E0FEC5
:10178B00A3E0FFC39546EE9545503290482DE0FC03
:10179B00A3E0FDC3E5469FF546E5459EF545A3EC65
:1017AB00F0A3EDF090482DE0FEA3E0F5828E83E0F0
:1017BB00FFA3E090482DCFF0A3EFF080B0903F3C1B
:1017CB00E0FEA3E0FFF5828E83A3A3E545F0A3E53E
:1017DB0046F0EF2404F582E43EF583E547F0EF2471
:1017EB0005F582E43EF583E543F0EF2406F582E44C
:1017FB003EF583E544F090482FE0FEA3E0FF4E70EA
:10180B0011903F3CE0FDA3E0903ECACDF0A3EDF07C
:10181B008010903F3CE0FDA3E08F828E83CDF0A340
:10182B00EDF0903F3CE0FEA3E0FFF5828E83E0FD00
:10183B00A3E090482FCDF0A3EDF090482DE0FCA352
:10184B00E0FD8F828E83ECF0A3EDF0F5828C83A309
:10185B00A3C083C082C3A3E09546FF0582D5820255
:10186B0015831582E09545D082D083F0A3EFF090DD
:10187B00482FE0FEA3E0FF903F3CEEF0A3EFF04ECD
:05188B00700312327130
:011890002235
:04141100AA07A90578
:10141500903ECAE0FDA3E0904898CDF0A3EDF0E43E
:10142500A3F0A3F0904898E0FCA3E0FD4C70030204
:1014350015A0ED2404F582E43CF583E06B6003021E
:10144500157F904898E0A3E02406F582E43CF583F7
:10145500E069600302157FED2405F582E43CF58320
:10146500E06A6007EAF4600302155E904898E0FCC4
:10147500A3E0FDF5828C83E0F8A3E0F5828883453F
:1014850083601F8D828C83A3A3E0FEA3E0FF8D8282
:101495008C83E0FCA3E0F5828C83A3A3EE8FF0128E
:1014A500047590489AE07002A3E0704D904898E06A
:1014B500FEA3E0FFF5828E83E0FDA3E0903ECACD5A
:1014C500F0A3EDF0903F3CE0FDA3E08F828E83CD4D
:1014D500F0A3EDF0904898E0FFA3E0903F3CCFF0FB
:1014E500A3EFF0903ECAE0FFA3E0904898CFF0A3A9
:1014F500EFF0E4A3F0A3F08058904898E0FEA3E055
:10150500F5828E83E0FEA3E0FF90489AE0FCA3E01D
:10151500F5828C83EEF0A3EFF0903F3CE0FEA3E074
:10152500FF904898E0FCA3E0FDF5828C83EEF0A3E4
:10153500EFF0903F3CECF0A3EDF090489AE0FEA36D
:10154500E0F5828E83E0FFA3E0904898CFF0A3EF0B
:10155500F0EAF4700302142922904898E0FEA3E013
:10156500FFA3EEF0A3EFF0F5828E83E0FFA3E090FA
:101575004898CFF0A3EFF0021429904898E0FEA315
:10158500E0FFA3EEF0A3EFF0F5828E83E0FFA3E08A
:0B159500904898CFF0A3EFF00214295B
:0115A0002228
:1015A1008E338F348F828E83E5822404F582E43575
:1015B10083F583E024FE601F1470030216BA1470D1
:1015C100030216F02403600302171C7B007A04E473
:0715D100FD7F0212204222FF
:1015D800903ECAE0FEA3E0FF4E70030216A48F827D
:1015E8008E83A3A374FFF5F0120475903ECAE0FE43
:1015F800A3E0F5828E83A3A3E0FEA3E04E6003027E
:1016080016A4121FCB8E338F34903ECAE0FEA3E09F
:10161800FF2405F582E43EF583E0FDE5342404F576
:1016280082E43533F583EDF0EF2406F582E43EF5E8
:1016380083E0FFE5342405F582E43533F583EFF0E4
:10164800903ECAE0FEA3E02404F582E43EF583E080
:10165800FFAD34AC33121F98903ECAE0FEA3E0FF02
:10166800F5828E83E0FCA3E08C35F536903F3CE0B4
:10167800FDA3E08F828E83CDF0A3EDF0903ECAE00B
:10168800FFA3E0903F3CCFF0A3EFF0903ECAE535D2
:10169800F0A3E536F0453560030215F3903ECAE045
:1016A8007002A3E0606E7B007A04E4FD7F021220E2
:0116B80042EF
:1016B90022E5342406FFE43533FAA9077B019000BB
:1016C900011203CCFF9000021203CCFD900003121B
:1016D90004A1FBAAF0E5342406F582E43533F58349
:1016E900E0F54712171D22E5342406FFE43533FAE5
:1016F900A9077B019000011203CCFF90000212039D
:10170900CCFDE5342406FBE435338B82F583E0FB1D
:041719001214112273
:0E2BA8008F6E8D6F8A708B71E5714570605471
:102BB600121FDC9048FBEEF0FCA3EFF0FD9048FB03
:102BC600E0FEA3E0FF2404F582E43EF5837403F0FF
:102BD600EF2406FFE43EFE8F82F583E572F0AA0637
:102BE600A9077B01900001E56E12040B900002E537
:102BF6006F12040B900003E5708571F01204D97F03
:042C060007121F98FA
:012C0A0022A7
:062DCC008F698D6A8B6B1C
:102DD200121FDC9048FAEEF0FCA3EFF0FD9048FAE7
:102DE200E0FEA3E0FF2404F582E43EF5837404F0E0
:102DF200EF2406FFE43EFE8F82F583E56BF0AA0620
:102E0200A9077B01900001E56912040B900002E51D
:092E12006A12040B7F07121F98DD
:012E1B002294
:0229F0008F4313
:1029F2009037D5E0C39543F0901DD4E0F54485436C
:102A020045E544C394D0505074042544F582E4341F
:102A12001DF583E0703B1545E5457038C3E54495E7
:102A22004304F5442404F582E4341DAF82FEAB4333
:102A3200AD431237B4901DD4E0B544032543F0757D
:102A4200F020E544A424D5F582E5F0341DAF82FEE2
:0E2A520022854345054480A91232C5E4FEFFEB
:012A60002253
:102D7B00EF4E604CC3EF94D5FFEE941DFEEF78053C
:102D8B00CEC313CE13D8F9F543C394D05032740489
:102D9B002543F582E4341DF583E0FB9037D5E02B1A
:102DAB00F074042543F582E4341DAF82FEE4FD127A
:102DBB0037B4901DD4E0FFE543C39F5003E543F0C8
:012DCB0022E5
:10321A00EF541FD39400E49400400FEF7805CEC317
:10322A0013CE13D8F904F572800CEF7805CEC313C8
:0B323A00CE13D8F9F572AF7212003607
:013245002266
:1027040078AFE6FE08E6FFF5828E83A3A3A3E0FC80
:10271400A3E0FD78B7ECF208EDF2C2AF8F828E83AE
:10272400E5822408F582E43583F583E0FEA3E078AE
:0B273400AFA60608F6D2AFED4C7039DE
:10273F00121FCB78B5EEF208EFF22404F582E43ED7
:10274F00F5837403F0EF2405F582E43EF5837401FD
:10275F00F018E2FC08E2FD7F0E121F987E907F00BA
:09276F0078B77490F2087400F2CE
:10277800C2AF903F4EE004F0D2AF78B7E2FE08E275
:01278800FF51
:01278900222D
:103319007814E2FE08E2FF8E2FF530452F60158FF5
:10332900828E83E0FEA3E0FF18EEF208EFF24E7002
:083339000312329BAE2FAF30EE
:013341002269
:103342007810E2FE08E2FF8E2FF530452F60158FD0
:10335200828E83E0FEA3E0FF18EEF208EFF24E70D9
:083362000312329BAE2FAF30C5
:01336A002240
:10336B007812E2FE08E2FF8E2FF530452F60158FA5
:10337B00828E83E0FEA3E0FF18EEF208EFF24E70B0
:08338B000312329BAE2FAF309C
:013393002217
:103394007816E2FE08E2FF8E2FF530452F60158F78
:1033A400828E83E0FEA3E0FF18EEF208EFF24E7087
:0833B4000312329BAE2FAF3073
:0133BC0022EE
:102D2100300A1B782FE51BF27825E2FE08E2F582D6
:102D31008E83E0FFA3E07829CFF208EFF222300979
:102D41001B781BE51CF2782CE2FE08E2F5828E83EB
:102D5100E0FFA3E07819CFF208EFF22230081A78E9
:102D610022E51EF2781CE2FE08E2F5828E83E0FF86
:0A2D7100A3E07820CFF208EFF22271
:102AD2008F828E83A3A3E024FE60201460331460EF
:102AE20046240370577816E2FD08E28F828E83CD6A
:102AF200F0A3EDF018EEF208EFF2227812E2FD08F0
:102B0200E28F828E83CDF0A3EDF018EEF208EFF2A1
:102B1200227810E2FD08E28F828E83CDF0A3EDF0E1
:102B220018EEF208EFF2227814E2FD08E28F828EAC
:0D2B320083CDF0A3EDF018EEF208EFF222D3
:042FD0008E2F8F3081
:102FD4008F828E83E0FEA3E0FF4E700D85308285E4
:102FE4002F83ECF0A3EDF0801B8F828E83E0FAA395
:102FF400E0FB4A6006AE02AF0380EE8F828E83EC64
:0C300400F0A3EDF08D828C83E4F0A3F0CB
:01301000229D
:103482008F828E83E0FCA3E0FDFBAA044A60118DCB
:10349200828C83E0FDA3E08F828E83CDF0A3EDF0DA
:0434A200AE02AF03C4
:0134A6002203
:0838EE0000014343C7C7C7C72F
:0A0FF500E4F51DF51BF51CF51E22A6
:100EEB00C2AFE51D7003020FEC9038EE93F5213085
:100EFB000A4C7825E2FE08E2FFF5828E83A3A3A3BA
:100F0B00E0782BF2E4782FF2D2AF782BE2FD33337B
:100F1B003354F8FD90278E93F5A5748A2DF582E452
:100F2B003427F583E493740193FA740293F5828A60
:100F3B0083120766E4F5A5C2AF12200F80A4300917
:100F4B004D782CE2FE08E2FFF5828E83A3A3A3E08B
:100F5B00782BF2E4781BF2D2AF782BE2FD333333EC
:100F6B0054F8FD90278E93F5A5748A2DF582E43401
:100F7B0027F583E493740193FA740293F5828A83C1
:100F8B00120766E4F5A5C2AF122020020EED200871
:100F9B0003020EED781CE2FE08E2FFF5828E83A3BE
:100FAB00A3A3E0782BF2E47822F2D2AF782BE2FD08
:100FBB0033333354F8FD90278E93F5A5748A2DF5B2
:100FCB0082E43427F583E493740193FA740293F566
:100FDB00828A83120766E4F5A5C2AF122031020E96
:0A0FEB00EDE4782BF2F521D2AF22DD
:10242900C2AF782BE27818F27824E521F2E51DD3C2
:10243900940150030224F27E00E51D54FE24EEF5BA
:1024490082EE3438F583E493F521300A4C7825E29D
:10245900FE08E2FFF5828E83A3A3A3E0782BF2E4C2
:10246900782FF2D2AF782BE2FD33333354F8FD9055
:10247900278E93F5A5748A2DF582E43427F583E434
:1024890093740193FA740293F5828A83120766E4BE
:10249900F5A5C2AF12200F8094300991782CE2FE85
:1024A90008E2FFF5828E83A3A3A3E0782BF2E478F8
:1024B9001BF2D2AF782BE2FD33333354F8FD90276A
:1024C9008E93F5A5748A2DF582E43427F583E49378
:1024D900740193FA740293F5828A83120766E4F50C
:1024E900A5C2AF1220200224367818E2782BF278A0
:0724F90024E2F521D2AF221D
:102A6100C2AF782BE27823F2782EE521F2E51DD36F
:102A71009403404F7521C77825E2FE08E2FFF582F5
:102A81008E83A3A3A3E0782BF2E4782FF2D2AF7860
:102A91002BE2FD33333354F8FD90278E93F5A57463
:102AA1008A2DF582E43427F583E493740193FA7453
:102AB1000293F5828A83120766E4F5A5C2AF12205C
:102AC1000F80AA7823E2782BF2782EE2F521D2AF9B
:012AD10022E2
:10308500D51B03531DFB782FE270197825E2FE0846
:10309500E2FFF5828E83E0FDA3E07829CDF208ED0D
:1030A500F2122AD2E4782FF27829E2FF08E2782595
:0630B500CFF208EFF22249
:1030BB00D51C03531DFD781BE27019782CE2FE081A
:1030CB00E2FFF5828E83E0FDA3E07819CDF208EDE7
:1030DB00F2122AD2E4781BF27819E2FF08E2782C7C
:0630EB00CFF208EFF22213
:1030F100D51E03531DFE7822E27019781CE2FE08EA
:10310100E2FFF5828E83E0FDA3E07820CDF208EDA9
:10311100F2122AD2E47822F27820E2FF08E2781C47
:06312100CFF208EFF222DC
:101C2D008F2F8D308A318B32E53245317003021D95
:101C3D0050782BE2FBAD30AF2F1219CE7839E2FE82
:101C4D0008E28E73F574E4F575F5767835E2FE08E5
:101C5D00E22532F532EE3531F531E57445736036F6
:101C6D00857482857383A3A3E0FEA3E0FFC3953241
:101C7D00EE95315021C3E5329FF532E5319EF531B8
:101C8D00857375857476857482857383E0FEA3E014
:101C9D008E73F57480C47833E2FE08E2FFF5828E10
:101CAD0083A3A3E531F0A3E532F0782BE2FDEF2419
:101CBD0004F582E43EF583EDF07833E2FE08E2FFB1
:101CCD002405F582E43EF583E52FF0EF2406F58239
:101CDD00E43EF583E530F0E576457570097839EE2B
:101CED00F208EFF2800B857682857583EEF0A3EF17
:101CFD00F07833E2FE08E2FFF5828E83E0FCA3E08C
:101D0D008C75F5768F828E83E573F0A3E574F0F50F
:101D1D0082857383A3A3C083C082C3A3E09532FFE2
:101D2D000582D5820215831582E09531D082D0834C
:101D3D00F0A3EFF018E575F208E576F2457570033E
:041D4D0012327122BB
:1019CE00AA07A9057839E2FC08E28C73F574E4F5F0
:1019DE0075F576E57445737003021AFEE5742404FA
:1019EE00F582E43573F583E06B6003021AE7E57464
:1019FE002406F582E43573F583E0696003021AE785
:101A0E00E5742405F582E43573F583E06A6007EA30
:101A1E00F46003021AD0857482857383E0FCA3E020
:101A2E00FD4C6019857383857482A3A3E0FEA3E049
:101A3E00FF8D828C83A3A3EE8FF0120475E576459D
:101A4E0075703B857482857383E0FFA3E07839CF90
:101A5E00F208EFF27833E2FF08E285748285738331
:101A6E00CFF0A3EFF018E573F208E574F27839E2DF
:101A7E00FE08E28E73F574E4F575F576803C857498
:101A8E0082857383E0FFA3E0857682857583CFF030
:101A9E00A3EFF07833E2FF08E2857482857383CF7B
:101AAE00F0A3EFF018E573F208E574F285768285FF
:101ABE007583E0FEA3E08E73F574EAF470030219E9
:101ACE00E122857375857476857482857383E0FE55
:101ADE00A3E08E73F5740219E185737585747685AE
:101AEE007482857383E0FEA3E08E73F5740219E1B0
:011AFE0022C5
:10288A007836E22FF218E23EF27832E2706F783947
:10289A00E2FE08E2FF4E605F8F828E83A3A3E0FE12
:1028AA00A3E0FF7835E2FC08E2FDD3EF9DEE9C50F1
:1028BA001108E2FC08E2FD7F0112209778327401C8
:1028CA00F2227839E2FE08E2F5828E83A3A3C0835E
:1028DA00C0827835E2FE08E2FFC3A3E09FFF0582CB
:1028EA00D5820215831582E09ED082D083F0A3EFB1
:0E28FA00F0E418F208F222E47835F208F22237
:041E75008E488F49BB
:101E79008F828E83E5822404F582E43583F583E03D
:101E89006003021F977839E2FE08E2F5828E83A388
:101E9900A3E0FEA3E0FF7835E2FC08E2FDD3EF9D65
:101EA900EE9C4003021F58121FCB8E488F49783988
:101EB900E2FE08E2FF2405F582E43EF583E0FDE554
:101EC900492404F582E43548F583EDF0EF2406F55D
:101ED90082E43EF583E0FFE5492405F582E43548CF
:101EE900F583EFF018E2FE08E22404F582E43EF5FA
:101EF90083E0FFAD49AC48121F987839E2FE08E249
:101F0900FFF5828E83A3A3E0FCA3E0FDC37836E24C
:101F19009DF218E29CF28F828E83E0FEA3E0FF78A7
:101F290033E2FC08E2FD7839E2FA08E2FBF5828A3D
:101F390083ECF0A3EDF07833EAF208EBF27839EEAE
:101F4900F208EFF24E6003021E8E7835F208F2783D
:101F590035E2FE08E2FF4E602E7839E2FC08E2F530
:101F6900828C83A3A3C083C082C3A3E09FFF0582A1
:101F7900D5820215831582E09ED082D083F0A3EF2B
:0E1F8900F0E47835F208F2E47832F2121FA983
:011F97002227
:102097008D828C83A3A3A3EFF033333354F89027B7
:1020A7008D931460541470030221472402600302C5
:1020B700218DE51B70107825ECF208EDF27827ECFE
:1020C700F208EDF280257827E2FE08E2F5828E839A
:1020D700ECF0A3EDF018ECF208EDF2782FE2B40182
:1020E7000A7402F27829ECF208EDF2051B431D048D
:1020F7008D828C83E4F0A3F022E51C7010782CEC21
:10210700F208EDF27830ECF208EDF280257830E253
:10211700FE08E2F5828E83ECF0A3EDF018ECF208EE
:10212700EDF2781BE2B4010A7402F27819ECF208B6
:10213700EDF2051C431D028D828C83E4F0A3F0228F
:10214700E51E7010781CECF208EDF2781EECF20830
:10215700EDF28025781EE2FE08E2F5828E83ECF030
:10216700A3EDF018ECF208EDF27822E2B4010A745C
:1021770002F27820ECF208EDF2051E431D018D8274
:072187008C83E4F0A3F022B9
:1036EE00E4901DD4F0FF7FD0901D04E4F0A3DFFC26
:0636FE009037D574D0F0F6
:0137040022A2
:10189100781474C4F208745CF2E4FF75F00AEFA4E2
:1018A1002466F582E5F034C4AD82FC75F00AEFA43C
:1018B100245CF582E5F034C4F583ECF0A3EDF0751A
:1018C100F00AEFA4245EF582E5F034C4F5837404D4
:1018D100F00FBF3FC6E490C6D2F0A3F0A37404F0AA
:1018E100781074C0F2087400F2E4FF75F00EEFA4F2
:1018F100240EF582E5F034C0AD82FC75F00EEFA444
:101901002400F582E5F034C0F583ECF0A3EDF07529
:10191100F00EEFA42402F582E5F034C0F5837403E0
:10192100F00FBF3FC6E490C372F0A3F0A37403F0BD
:10193100781274C3F2087480F2E4FFEF75F016A414
:101941002496F582E434C3AD82FCEF75F016A4242D
:1019510080F582E434C3F583ECF0A3EDF0EF75F08C
:1019610016A42482F582E434C3F5837402F00FBF18
:1019710009C9E490C446F0A3F0A37402F078167488
:10198100C6F20874DCF2E4FF75F046EFA42422F5F8
:1019910082E5F034C7AD82FC75F046EFA424DCF596
:1019A10082E5F034C6F583ECF0A3EDF075F046EF77
:1019B100A424DEF582E5F034C6F5837401F00FBF8F
:0C19C10007C6E490C8C6F0A3F0A304F031
:0119CD0022F7
:102CC600E4FFEF75F007A42415F582E434CEAD8257
:102CD600FCEF75F007A4240EF582E434CEF583EC00
:102CE600F0A3EDF00FBF13DAE490CE93F0A3F078E3
:102CF6003374CEF208740EF2E47839F208F27832C0
:102D0600F27835F208F2121FCB7837EEF208EFF2BE
:0A2D16002404F582E43EF583E4F0A6
:012D20002290
:102E1C00E49048B8F09048B8E0FF75F007A424D3CC
:102E2C00F582E4343EAD82FCEF75F007A424CCF5BA
:102E3C0082E4343EF583ECF0A3EDF09048B8E00466
:052E4C00F0E0B40FD01E
:102E5100E4903F35F0A3F0903F3C743EF0A374CC76
:092E6100F0E4903ECAF0A3F02257
:10003600D20E1229F0C20E22D20E122D7BC20E2231
:10004600D20E12CD57C20E22023754023764023442
:0D005600A7023599023774023784022B3F50
:1032710090D9247402F0A3E5A5F0A37480F0AF8186
:10328100A807E6A3F0A37414F0E58114F8E6A3F00F
:0A3291007CD97D207F04121F9822D3
:10329B0090D9247402F0A3E5A5F0A37480F0AF815C
:1032AB00A807E6A3F0A37415F0E58114F8E6A3F0E4
:0A32BB007CD97D207F04121F9822A9
:1032C50090D9247402F0A3E5A5F0A37480F0AF8132
:1032D500A807E6A3F0A37417F0E58114F8E6A3F0B8
:0A32E5007CD97D207F04121F98227F
:1031C00090D9247402F0A3E5A5F0A37480F0AF8138
:1031D000A807E6A3F0A37416F0E58114F8E6A3F0BF
:0D31E0007CD97D207F04121F98E4FEFF22A1
:10362B00E5792425F582E43578F5832290044075FD
:09363B00F003E55E120694E022A2
:0A0A6B0090B825E054FEF053A2F30A
:100A7500E4F55AF55B0000000000000000000000EE
:100A85000000055BE55B7002055AB498E8E55AB4C9
:020A950006E376
:100A9700D2A4D2A053A1EE00000000C205D2007874
:100AA7001FE6FF30E602800EEF30E704C200801138
:100AB70020A40920A006D205C200800520A002C2FA
:100AC7000090A4F77481F012004E781FE620E32D02
:100AD700E4904FE8F0A3F07E4F7FE87B02FA7DE8D1
:100AE7007C01120054904FE8E0B4AA0BA3E0B45580
:100AF700067DFF7FFF800E7D017F048008904ED624
:100B0700E0FFA3E0FD12005130050BE490BD03F0B8
:100B170075A50112AB8712122675A897E490B20348
:100B2700F0120EEB300037E4F5A5127FC812CB990F
:100B370075A50412B896904EB7E06006E4F5A512C5
:100B4700ECCA904EE5E06006E4F5A512BEF5904EBE
:100B5700CFE030E30312A278E4F5A51237CEE4F52F
:070B6700A512E19FE4F5A5D2
:100B6E0090BE2AE0FF90D947E06F7003020C4B90C5
:100B7E00CC04E0FF64016008EF64026003020C43E2
:100B8E0090BE2AE078B4F290BE29E018F2A3E0FFFE
:100B9E0008E2B507EBE22401F218E23400F2123655
:070BAE002BE07003020C4371
:100BB500C2AFE579242A12362FE0FFA3E078AFCF44
:100BC500F208EFF2E579242812362FE0FFA3E008BA
:100BD500CFF208EFF2D2AF78AFE2FE08E2FFC378BA
:100BE500B4E29F79B0F318E29E19F378B1E2FE08FA
:100BF500E2FFD378B0E29F18E29E4042E42579F502
:100C050082E5783401F5837408F012362BE4F0128E
:100C15001FCB9048B5EEF0A3EFF02404F582E43E37
:100C2500F5837404F0EF2405F582E43EF583E5775A
:0E0C3500F09048B5E0FCA3E0FD7F06121F988A
:080C430090BE2AE090D947F0B1
:100C4B00904E1EE030E00975A50112E541E4F5A5D3
:100C5B00E490BD0CF0E51D6003020B28F5A5904E4A
:100C6B00B5E030E00312EB27E4F5A5904E46E054D7
:030C7B000F6014F3
:100C7E00E4F5A512D86B9048B7EFF0E4F5A5EF6058
:040C8E0003020B282A
:100C9200904E46E054F07003020B28E51D600302FB
:0F0CA2000B28E58754FC4401F5870000020B285E
:10122600E4F5A8781FE620E352E4904FE8F0A3F037
:10123600904E1BF07E4E7F007BEA7A01FDFC120089
:10124600547E377FD67B607A007D507C0312005433
:10125600904E1CE090D948F0904FE8E064AA7004E4
:10126600A3E06455601575A5017E4E7F007C407D28
:10127600007BEA7A011234CCE4F5A590CBED740636
:10128600F0E4F5A512838BEF600675A50112AB8716
:10129600E4F5A520000B904E217403F0758E0180B5
:1012A60006904E20E0F58E1236A6121891120FF512
:1012B600122CC6122E1C1236EEE4F5A512DA8FE4B5
:1012C600F5A5F5A512381DE4F5A5781FE630E20D63
:1012D6001213E58F82F5837410F0121405781FE659
:1012E600543060101213E58F82F5837410F0781F66
:1012F600E6121405781FE630E344121FCB8E5C8F8E
:101306005D8F828E83E5822404F582E43583F5833E
:101316007402F0EF2406FFE43EFE8F82F583740E1E
:10132600F0A3E4F08F828E83A3A37403F08F828EE2
:1013360083A3A3A3F0AD5DAC5C7F04121F983000BD
:101346001412387712386312386D12383112385940
:1013560012383B8006781FE654C0F6123809123759
:10136600F51238131237FF12ECB6C288C28AE4901F
:10137600BD13F090BD03F090BD1B740FF090BD0A35
:10138600743DF0A37409F090BD037401F0E490BDC0
:0B1396000CF075A50112E52EE4F5A592
:1013A1007E047F407B29FA7DF67C02120054900472
:1013B10067E0FEA3E064557003EE64AA7025F55E54
:1013C100123637FEA3E04E601390044212363AFF04
:1013D100123637FCA3E0F5828C83EFF0055EE55E03
:0313E100B40DDD6B
:1013E40022121FCB8E5C8F5D8F828E83E582240454
:1013F400F582E43583F5837402F0EF2406FFE43EBE
:0D14040022A3F0AD5DAC5C7F04121F9822A6
:1037050090D3FFE02481F582E434D4F583EFF09083
:06371500D3FFE004F022E6
:03000000021AFFE2
:03003300021E6545
:03000300021D518A
:03000B00021E666C
:03001300021D9239
:03001B00021E744E
:03002300021E3B7F
:03002B00021E733F
:03006300021E7406
:101D5100C0D0C0E030361153A4DF90B203E0547F0D
:101D6100F090B207E020E7F9C0F0C092C083C082D2
:101D7100C085C08475D008759200121013300F41D0
:101D8100D084D085D082D083D092D0F0D0E0D0D092
:101D910032C0D0C0E0C0F0C092C083C082C085C054
:101DA1008475D008759200123794200503300E1106
:101DB100D084D085D082D083D092D0F0D0E0D0D062
:011DC10032EF
:101DC20075D000C0A5C000C001C002C003C004C0DD
:101DD20005C006C00775A500200E2F74E6C0E0748A
:101DE2001DC0E032122429D007D006D005D004D07D
:101DF20003D002D001D000D0A5D084D085D082D02B
:101E020083D092D0F0D0E0D0D0227415C0E0741EFE
:101E1200C0E032122A61D007D006D005D004D00328
:101E2200D002D001D000D0A5D084D085D082D0837A
:091E3200D092D0F0D0E0D0D02213
:101E3B00C0D0C0E0C0F0C092C083C082C085C08457
:101E4B0075D00875920012280AD084D085D082D024
:0A1E5B0083D092D0F0D0E0D0D03256
:101E650032C000C0E0C0D0D0D0D0E0D00032323295
:101F9800748055A87003022097C2AF122097D2AF61
:101FA80022748055A87003022D21C2AF122D21D2B0
:101FB800AF22748055A87003022AD2C2AF122AD267
:101FC800D2AF22748055A87003023319C2AF1233FE
:101FD80019D2AF22748055A87003023342C2AF12DF
:101FE8003342D2AF22748055A8700302336BC2AF5C
:101FF80012336BD2AF22748055A87003023394C297
:10200800AF123394D2AF22748055A8700302308582
:10201800C2AF123085D2AF22748055A87003023047
:10202800BBC2AF1230BBD2AF22748055A870030276
:1020380030F1C2AF1230F1D2AF22748055A87003CC
:10204800021C2DC2AF121C2DD2AF22748055A8706D
:10205800030219CEC2AF1219CED2AF22748055A88E
:10206800700302288AC2AF12288AD2AF2274805520
:10207800A87003022FD0C2AF122FD0D2AF22748023
:0F20880055A87003023482C2AF123482D2AF2245
:03000E00021B30A2
:0938E500740EC0E07400C0E03272
:101AFF0043A110D2A4C2A490BD147401F0E4F0006D
:101B0F0000000000000000000090BF00E4F090A46F
:101B1F00F4E04480F090BD10E05407781FF6752074
:101B2F000043A110D2A4C2A4D2A4C2A490BF00E4C7
:101B3F00F090BD18740FF090BD007401F090BF00CD
:101B4F007403F075A50075D00078FF79DFE4F618FF
:101B5F00D9FC781EF6D8FD75A4045387DFC2A053B5
:101B6F00A3FE75A70078007F00E4F208DFFC900168
:101B7F00007F007E4DE4F0A3DFFCDEFA90C0007F13
:101B8F00007E40E4F0A3DFFCDEFA757C00900000DD
:0E1B9F0078107455F0A3D8FC7581FF021BE886
:10355800904E00E090B803F0904E01E090B802F071
:10356800904E02E090B801F0904E03E090B800F061
:013578002230
:103FC000C2AF90BD03E4F00000438E08F80000008B
:033FD00002000EDE
:103FE000C2AF90BD03E4F00000538EF7F80000006C
:033FF00002000EBE
:103644008E858F848C838D82EB600DE493A37592B9
:0936540001F0A3759200DBF322E2
:1034CC008E858F848C838D82EA7003EB6015EB60A4
:1034DC0003EA04FAE493A3759201F0A3759200DB5E
:0434EC00F3DAF122FC
:0D37B4008E838F82EB6005EDF0A3DBFB221E
:103676008E838F82EA7003EB600DEB6003EA04FA37
:08368600EDF0A3DBFBDAF922F1
:103579008E858F848C838D82AF031BEF6010E0A34F
:10358900FF759201E0A37592006F60ECD322C3220C
:10368E008E858F848C838D82EB600CE0A375920106
:08369E00F0A3759200DBF42299
:1032EF008E858F848C838D82EB601EE0FFA3E0FEC2
:1032FF00A3E0FDA3E0A3759201F0A3EDF0A3EEF020
:0A330F00A3EFF0A3759200DBE222A9
:1034F0008E858F848C838D82EA7003EB6014EB6081
:1035000003EA04FAE0A3759201F0A3759200DBF4DC
:03351000DAF222CA
:1035B9008E858F848C838D82EB60121BE493A3FF2D
:0F35C900759201E0A37592006F60EDD322C322CB
:10324600D310AF01C3C0D0EFF5E9EDF5EDEEF5EA29
:10325600ECF5EE7402140070FC00E5E9FFE5EAFE09
:0B326600E5EBFDE5ECFCD0D092AF22C0
:1033BD00D310AF01C3C0D0EFF5E9EEF5EAEDF5EDB1
:1033CD00ECF5EE7402140070FCE5E9FFE5EAFEE5AC
:0833DD00EDE5EED0D092AF2225
:10312700D310AF01C3C0D0EDF5E9ECF5EAEFF5EB4D
:10313700EEF5ECEBF5EDEAF5EE7404140070FCE542
:10314700E9FFE5EAFEE5EBFDE5ECFCE5EDE5EED0B4
:04315700D092AF2241
:1033E500D310AF01C3C0D0EFF5E9EEF5EAEDF5ED89
:1033F500ECF5EE7402140070FCE5E9E5EAE5EDFF95
:08340500E5EEFED0D092AF22EB
:10318E00D310AF01C3C0D0EDF5E9ECF5EAEFF5EBE6
:10319E00EEF5ECEBF5EDEAF5EE7404140070FCE5DB
:1031AE00E9E5EAE5EBE5ECE5EDFFE5EEFED0D092E4
:0231BE00AF223E
:102908008E858F848C838D82EB22E0FFA3E0FEA36B
:10291800E0FDA3E0FCA375920122122908601F12B2
:102928002912F0A3DB028016EDF0A3DB02800FEE84
:10293800F0A3DB028008EFF0A3759200DBE175924B
:102948000022122908602B122912EBC394044002BA
:10295800ECF0A3EBC394034002EDF0A3EBC39402A5
:102968004002EEF0A3EFF0A3759200EBC39404FBD2
:0629780050D5759200220B
:10301100F582E43583F5837401F08F828E83E58236
:10302100222424F582E5833401F58322F582E435F7
:1030310083F5832224E7F582E43EF5832278B7E61F
:0B304100FE08E6227896E2FE08E2227C
:10353600E490D87EF090D87FF090D880F0784DF265
:1035460008F290D88BF090B403F090BC22E0547F40
:02355600F02261
:10227400C2AF90BE12E04403F0D2AF90CC08E05459
:10228400FCF0E4F5777578C975790F785DF290B84C
:102294001BE04480F090B817E04404F0E490D0BB15
:1022A400F090D0BCF078787401F2087400F2E4780D
:1022B40055F2785B7404F2E4FFEF75F009A4247E10
:1022C400F582E434CDF583E4F0EF75F009A424EC51
:1022D400F582E434CCF583E4F00FBF10DC788AE2B5
:1022E40054A7F208E25480F220000975A50112C730
:1022F40099E4F5A5E490CCD9F090D0A3F0C2219054
:10230400BC23E054FDF07E147F2A90B60AEEF0A3BD
:10231400EFF0783FEEF208EFF27E1C7F5D903F47CE
:10232400EEF0A3EFF090B60EEEF0A3EFF0E4903FE2
:102334004EF090B807F090B805F090D091F090D09E
:0C23440090F090D0A5F090D0A4F0C21949
:01235000226A
:040CB1008F418D42A0
:100CB500E47898F208E5A5F275F06FEF90C90F1288
:100CC5000694EF2583AF82FE78B7F608EFF68E839C
:100CD500E0700FE54264026009E5426404600302C6
:100CE5000EEAE542640B600D75A501AF4112D4F91A
:100CF500E4F5A5C22375A501AF4112D20EE4F5A511
:100D050012303EF5828E83E030E50B75A501AF41CB
:100D1500129B97E4F5A57B06AD417FFF1214119058
:100D2500D87EE0B40103123536E541D39400401C6A
:100D350012303EFF8E83123022E0601012301B12FB
:100D45003022E4F090D659E0600214F0E54175F0E8
:100D55000AA424BFF582E434D0AF82FE7B0AE4FD09
:100D65001237B412303E8E832465123024E05406C7
:100D7500604390CD7CE07002A3E06039E4904DFBC8
:100D8500F0904DFCF0A3F0904DFFF0904DFEF01269
:100D95001FCB7896EEF208EFF2240412303774195F
:100DA500F0EF2405123037E541F018E2FC08E2FDCA
:100DB5007F08121F9812303EFF7B6F7A01E4FD1207
:100DC500367612303EFF8E83241C12302D740412A9
:100DD500301A241F12302DE4F0A3742812301A247F
:100DE5000A12302D740812301A24151230112413EA
:100DF5001230112414123011241712301124261226
:100E0500302D747DF0A3E412301A242812302DE41D
:100E1500F0A374FAF0904E36E014FF18E6FC08E6ED
:100E2500FD8C832422123024EFF08D828C83E582A1
:100E3500241912302D74FFF090D762E0FF8D828C5B
:100E450083E5822417123024EFF0785BE2B5410385
:100E55007404F2E541C394015034C2AF90CC08E06C
:100E650054FEF0E542640B600790CC04E054FCF0BE
:100E7500D2AF90D65CE4F090CBFE12066300000082
:100E850000E490CBFDF0788AE254EFF2803090CC0C
:100E950008E054FDF0E542640B600BE020E00790AC
:100EA500CC04E054FCF090D659E0701290D648F08E
:100EB50090BC22E0547FF0C221E490D69DF090CE04
:100EC5009DE0B541037402F090CC04E07008122255
:100ED5007478987401F27898E260057F01122E6AA1
:050EE5007899E2F5A57B
:010EEA0022E5
:02218E008F417F
:10219000E47898F208E5A5F275F0F3EF9038CA12EA
:1021A0000694AF82AE837896EEF208EFF2E0700309
:1021B000022273123045FF24E8123037E4F0EF12A8
:1021C0003035E0FF30E70590D091800E1230451297
:1021D0003035E0FF30E60D90D090E0FEEFF4FFEEFA
:1021E0005FF0801C90D0A5E0FF7896E2FC08E22426
:1021F000E7F582E43CF583E0F4FEEF5E90D0A5F0D5
:10220000E5414480F54275A501AF4112D4F9E4F5EA
:01221000A528
:1022110075A501AF4112D20EE4F5A5123045FF7B41
:10222100F37A00E4FD12367690BF23E04440F0E4F7
:102231007870F2786DF290CC08E054F3F090CC0411
:10224100E054F3F07011122274C24E90B433E05492
:10225100FCF078987401F27898E2601190D75AE016
:10226100700B90D962E060057F01122E6A7899E2C5
:02227100F5A5D1
:012273002248
:0A37F500E4F5A512EC7FE4F5A5222F
:0A37FF0075A50112E547E4F5A522C7
:05000600E47862F22223
:04315B008F438D44CD
:10315F00121FCB90489BEEF0A3EFF02404F582E40E
:10316F003EF583E543F0EF2405F582E43EF583E574
:0F317F0044F090489BE0FCA3E0FD7F02021F9804
:1034350090BE27E0904836F090BE241205B1904822
:103445003212064B90BE27E0FF904836E0B507E004
:063455009048321205B19F
:01345B00224E
:022E6A008F4394
:102E6C007F0390CC04E07003D38001C34002E4FFE5
:102E7C0090D962E0520790D75AE0B50703EF70285B
:102E8C0090D75AEFF0121FCB904898EEF0A3EFF0CA
:102E9C00904898E0FCA3E0FD2404F582E43CF58323
:082EAC007445F07F05121F9828
:012EB40022FB
:0838F600061020063900102025
:0A38090075A50212CAFAE4F5A52223
:02304C008F3DB6
:10304E0085A53EE4F5A5E53D701275A5017E4E7F82
:10305E00007C407D007BEA7A011234CCE53DB4045D
:10306E001275A5017E377FD67C447D8A7B607A00FF
:06307E001234CC853EA5D2
:013084002229
:10365D0085A53DE4F5A57E147F2A7C407DC97B1FA1
:08366D007A011234CC853DA561
:013675002232
:0C37C10085A54175A50212DAB58541A569
:0137CD0022D9
:0A38130075A50112AF4AE4F5A522E5
:1035F500E5A5F075A5012275F005A424A8F582E4DA
:0C36050034D6F58322EFF0A3E0F5A522F7
:102F450090D6A2E01235FCE0703B90D6A2E0FB756E
:102F5500F005A424ABF582E434D6F583EEF0A3EFB7
:102F6500F0EB75F005A424A9F582E434D6F583ECDD
:102F7500F0A3EDF0EB1235FC7401F090D6A2E0045D
:062F8500F0E0540FF02201
:0C37CE0085A55C75A50112C654855CA59C
:0137DA0022CC
:0F3754009048111235F512CFF4904811E0F5A509
:013763002243
:0F3764009048111235F512B435904811E0F5A5D3
:013773002233
:0F3774009048121235F512A45F90481112360AD0
:013783002223
:083599008E7A8F7BAF05AE04B2
:1035A10090D94A1235F5AD03AC02AB7BAA7A1295DC
:0735B100E790D94912360A28
:0135B80022F0
:1034A70090D94C1235F57888ECF208EDF27884EA79
:1034B700F208EBF27886EEF208EFF212E0B890D954
:0434C7004B12360A64
:0134CB0022DE
:0F37840090D95E1235F51274E990D95EE0F5A583
:013793002213
:0A381D00E4F5A512BA42E4F5A52275
:1036A600759850758920E587547F4480F587758D18
:0836B600E6D28ED299C29822DF
:0A38270075A501129770E4F5A522C3
:0D37DB00E4F5A512E7971299B0E4F5A522D8
:1035130090B001EFF0A3ECF0A3EDF090B005E04420
:1035230010F0E49048A7F0009048A7E004F0E0B45E
:023533000AF597
:013535002273
:10100000353035305F535050000000000000201094
:03101000000100DC
:0A38310075A50312CB5BE4F5A52298
:0A383B0075A503129E4EE4F5A522C8
:0A38450075A503129FA075A50422CB
:0A384F0075A50312936A75A5042203
:0A38590075A50312C19EE4F5A52237
:052C6A009048E4EFF0CA
:102C6F00E4A3F09048E5E0FFC39401504775F06F7F
:102C7F00EF90D150120694EF2583F583E0FF904833
:102C8F00E4E0FEEFB50625A3E0FF75F06F90D15499
:102C9F00120694EF2583F5831205B1E4FBFAF9F8D8
:102CAF00C312055660069048E5E0FF229048E5E024
:062CBF0004F080AF7FFF6E
:012CC50022EC
:102EB5009049DDEEF0A3EFF0EB4A603C90A403E00F
:102EC50020E1F9C2AFAF0590A406ECF0A3EFF0AF97
:102ED5000390A40AEAF0A3EFF09049DDE0FFA3E038
:102EE50090A412CFF0A3EFF090A403E04402F0D237
:092EF500AF90A403E020E1F922F2
:0A38630075A50412E802E4F5A522A1
:0A386D0075A50412E29EE4F5A52201
:10345C00A31206A08E827583001203CC6F22EE7528
:10346C00F04AA42424F582E4344C227B017A4F796F
:06347C00C71206C0E422A5
:0A38770075A50412D360E4F5A52244
:0A388100E4F5A512E5BD75A50422CB
:1031ED00E4FE12346AF583E0B50719EE75F04AA4D2
:1031FD002427F582E4344CF583E030E00712346A7D
:0C320D00AF82FE220EEEB401D9E4FEFFF9
:013219002292
:1035D80090A4B3EDF090A4B2EBF090A4B1EFF0900A
:0D35E800A4B07480F090A4B0E020E7F922B8
:102F8B009048FCEEF0FAA3EFF0FBA3ECF0FEA3ED00
:022F9B00F0FF45
:102F9D00A37401F0AD03AC02FB7A00120057EF7081
:102FAD001C9048FCE0FEA3E0FFA3E0FAA3E0FB7D4C
:102FBD00017C0012005AEF7004904900F090490016
:022FCD00E0FF23
:012FCF0022DF
:10371B00AB07AA06AE04AF05AC02AD037B017A0082
:03372B0002005445
:0A388B0075A50412B9A875A5042262
:10372E009048F7E5A5F075A50412D6AA9048F7E0E3
:02373E00F5A5EF
:013740002266
:103741009048F3E5A5F075A50412E1B19048F3E0C6
:02375100F5A5DC
:013753002253
:0C37E80085A56875A50412E3EF8568A5AF
:0137F40022B2
:0A38950075A50212F76C75A5042258
:0A389F0075A50212F7B675A5042204
:0A38A90075A50212450575A504225D
:0A38B30075A5021260B275A504228B
:0A38BD0075A502129AFA75A50422FF
:0A38C70075A50412E3EF75A50222B7
:0A38D10075A50412E1B175A50222ED
:0A38DB0075A50412D6AA75A50222F5
:102670009048FC1234779048FBF09048FBE0FEC392
:102680009408500D12345C60089048FBE004F08020
:10269000E99048FBE01206D526B40026BE0126C804
:1026A0000226D20326DC0426E60526F00626FA07D3
:1026B00000002703ED6003D38001C3928022ED6008
:1026C00003D38001C3928522ED6003D38001C392BE
:1026D0009722ED6003D38001C392B122ED6003D352
:1026E0008001C392B222ED6003D38001C392B32272
:1026F000ED6003D38001C392B422ED6003D3800167
:03270000C392B7CA
:0127030022B3
:102B3F009048E71234779048E6F09048E6E0FEC3FD
:102B4F009408500D12345C60089048E6E004F08061
:102B5F00E99048E6E01206D52B83002B87012B8BDB
:102B6F00022B8F032B93042B97052B9B062B9F0771
:102B7F0000002BA5A280801AA2858016A297801232
:102B8F00A2B1800EA2B2800AA2B38006A2B48002C4
:082B9F00A2B7E433FF227F021C
:012BA700220B
:1095170054F8FFE04F90B81BF0E054874410F090E8
:10952700B817E054074490FFE490B816F0A3EFF0A3
:109537002290BE2BE00490BA0BF090BA2B7402F085
:109547002290BE27E054FC440390BA03F090BA235C
:109557007401F02290B60A741CF0A37470F090B6F0
:109567000E741CF0A37482F0C21522F090BF23740E
:1095770060F090BE23E04401F022E090CA33FF750B
:10958700F06F120694EF2583F58322E025E0FFA311
:10959700E0C413131354014F22E4F577F5777EC91E
:1095A7007F0F8E788F798E788F792290BE26E0F2A2
:1095B700A3E054FC08F290CCE6E0FEA3E054FCFFE5
:1095C70008EEF2FE08EFF222F090BE23E054FCF022
:1095D7002290B61A741CF0A3745EF022F582E4356B
:1095E70083F583E4F08F828E832290CC08E04402D7
:1095F700F07577017578CA75797E2290BE27E004E9
:1096070090BA03F02290BE27E054FC2254FC25E0D8
:10961700FF901C6CE054074FF02290B85FE0640B9A
:109627002290B81BE0548722E05402FF90BC23E04D
:1096370054FD4F2290BF23E054FEF0229000E4E057
:10964700D39410229000E8E054FDF02290BF23E06D
:109657004401F0E054E7F0224440F090BE1AE05491
:10966700FEF0229000E4E004F022D22F90BF23E026
:109677004418F02290BE27E00490BA0BF02290B86D
:109687001BE054F822E090B684F090B68EE022906A
:09969700BE081205B1EF24022205
:10420000E4F54D90D960E0F54CE4F0C222788BE201
:104210004401F2A220B34003024A7F90C90EE02479
:10422000FE70030245181470030246E41470030282
:1042300048911460121470030243B4146003024ADC
:104240004412E6E5024A4AD2229000F3E0540D24DB
:10425000FB606924F8700302436C240C6003024382
:01426000AFAE
:10426100789E1295B2789FE26F700318E26E7046E5
:1042710078ABE624FE6003024A4A124AB412DBC458
:104281001295D890B81BE090C9101295171296029A
:10429100E4FDFF12CD8090CA3312962F1295537808
:1042A100477405F29000F3E04404F07F1A12E6230C
:0842B1009000E4024641C22224
:1042B900024A4A78ABE624FE601B24026003024AE4
:1042C9004A12CFF112955B12960C440112953D12D8
:1042D900963B024A4A12962160FB90BF43E020E0D8
:1042E900099000E4E0D39402404212EC4F124AA62E
:1042F90090CBFE120663000000009000F4E0FF126C
:10430900DC2712E73F90CC047401F0C2111295F139
:104319009000F3E04408F07F1012E623D222E490E3
:1043290000E4F090CA81E04490F0802C12CFF112A1
:1043390095D812DBC490B81BE090CBFD12951712EB
:10434900960C440390BA03F09000F4E0FFE4FD12E8
:10435900CD8012955412966A78457405F27847F221
:10436900024A4A129643400E7F1912E62312DE08CA
:104379001295A0024A4A12E2EA1295739000F4E0FB
:1043890090C912129585E04460F0C22275F06FEF72
:1043990090CA33129589E090D66EF09000F4129588
:1043A90081E4F002450DC222024A4AD2229000EB72
:1043B900E0546D24FB700302444724F8700302445F
:1043C900B324E070030244BB24C070030244EC240C
:0643D9006C6003024513B5
:1043DF0078A21295B278A2E2FC08E2FDC3EF9DFF2E
:1043EF00EE9CFED3EF9418EE9400504778A5E26D43
:1043FF00700318E26C6003024A4A78ABE624FE7041
:10440F002A124A8090CCDAE0FFE4FD12CD8090CCE6
:10441F00DA12958112962F1295409000EBE044042A
:10442F00F07F1D12E623E49000E4F078457408F263
:05443F00024A4AC222FE
:10444400024A4A78ABE6602E24FE6003024A4A120E
:104454009643400B7F1B12E623757701024A4A12EA
:104464004A80E4FDFF12CD8012954112963B7845B7
:064474007408F202450D80
:10447A0012962160FBE0640460F6E0640560F19046
:10448A00BF43E0F54E20E203024A4A124AB412EB55
:10449A00EE12960C440112955078477408F212965F
:0644AA0071E49000E4F053
:1044B000024A4AE4FF12DC27024A4A12B10690007F
:1044C000EB746DF090CC047402F090CC08E04401E1
:1044D000129572C2221295A090CA33F090CBFDE0E3
:1044E00090C910F012966AD219024A3712964340C8
:1044F0001A7F1C12E62312E73F1295F890CA81E05A
:1045000044F0F0E490C90EF0024A4AC22212966AC0
:10451000024A4AC222024A4AD2229000F7E0540DCF
:1045200024FB700302464724F870030246DF240C84
:104530006003024A4A1295D078ABE614602D1460ED
:104540004A14604724036003024A4AE54C64016050
:1045500003024A4A129602C21512BB3C90BA237457
:1045600002F012963B784574038017E54C640260B4
:1045700003024A4A12967BC21512BB3C129541783F
:104580004504F290D96014F0024A4A12962160FB69
:1045900090BF43E030E04CE54C6402704678ABE6F7
:1045A000B4020512EA4C800312EC4F90BE241205AF
:1045B000B19000E512064B12964B9000F27401F098
:1045C00012C77B12954878477404F21296851295AB
:1045D0001F12DF111295D89000F7E04404F07F0815
:1045E0000246D99000F0E030E12078ABE664036049
:1045F00003024A4A9000F7E04410F0C22212957973
:10460000E490C90EF07F070246D912EBEE78ABE6D4
:10461000B4021712960212BB3C12955478477403E9
:10462000F290D960E54CF0024A4A12E04212967BC1
:1046300012BB3C90BA2B7401F078477403F290D906
:10464000607401F0024A4A78ABE624FE602424023A
:104650006003024A4A9000E8E04402F012C77B126D
:10466000960C440190BA0BF012955B129541784577
:1046700080299000F2E004F012962160FB90BF4286
:10468000E030E01D12964B12C77B1295D812DF1155
:1046900012968512951F12954878477404F2024AC3
:1046A0004A90BF43E020E003024A4A12957312EC9D
:1046B0004F12E2EA90CC047401F0C211124AA61221
:1046C00095F190CA81E044F0F0E490CBA2F0C222D0
:1046D0009000F7E04408F07F1012E623024A4AC235
:1046E00022024A4AD2221295D0E04401F078457461
:1046F00002F29000EEE0FF541924F7604F24F060BE
:104700005F24186003024786EF30E612129653903A
:1047100000EFE020E60312965F754D01806A78ABEA
:10472000E664027063754D0112D52B129538900026
:10473000EEE04440F090D75CE02401FB90D75BE0D2
:104740003400FAE4FD7F0F122042803C90D756E0FF
:1047500060099000EFE04401F0802D9000EE802091
:104760009000EFE020E4217F0C12E623C2AF90BE60
:1047700012E04403F0D2AF788BE254FEF29000EFE7
:10478000E04410F08002C2229000EFE0FF5407FEE8
:10479000BE0109EF44021295CF024A4AEE6403605B
:1047A000030248661295D07857E2FF90BE27E06F6B
:1047B0006003024A4A129685F0E0547FF090B81ADE
:1047C000E054FEF0E054FDF090D784E0602590D7EF
:1047D00056E0FDD3941150081296284418F0803604
:1047E000EDD3947912962850054450F080284470F7
:1047F000F0802390D756E0FDD3941B5008129628E2
:104800004420F08011EDD394B712962850054458F7
:10481000F080034478F090B817E054FC4402F0E0D4
:1048200054FBF090D756E075F008A4FF90B817E05D
:104830005407FDED4FFFE5F012953078477409F20B
:10484000901CF2E0FFA3E090B61ACFF0A3EFF012B5
:104850009602E490B805F090BA2304F09000EFE0DF
:104860004404F0024A4A9000EFE0FD5407640760F8
:1048700003024A4A1295D090B85BE06003024A4AAC
:10488000ED54F89000EFF09000EEE04410F0024A92
:104890004AD2229000F0E0FF543D24FB606A24E8F5
:1048A00070030249E9241C6003024A40EF30E6121B
:1048B0009000F1E020E60312965F129653754D01C9
:1048C000803E78ABE664027037754D0112DCEC1265
:1048D00095D0E04401F01295389000F0E04440F0AB
:1048E000904E06E070057B80FA800F90D760E02440
:1048F00001FB90D75FE03400FAE4FD7F0F12204205
:1049000078457406F2024A4A784AE2FDC378ABE67B
:104910009D5403F54B6401705112964B90BE27E0F5
:10492000C39D1313543F049000F2F0E0FF64057040
:10493000030249E2EFD3940540147F1312E623905B
:1049400000F074801295CFE04401F00249E2129524
:104950005B90B85BE0640C60F8E0640160F312D433
:10496000AE90BE2712953B0249E29000F2E06072E1
:10497000E58E54707005754F288003E4F54FE4F51B
:104980004EE54EC3954F500500054E80F4E54B644F
:10499000036004E54B704B90BF43E030E04490B8B7
:1049A0005FE0640560F8000090BF43E030E23090C3
:1049B000B82BE054786410702690BE27E07858F247
:1049C0009000E8E04402F012D4AE12EBEE90BE2765
:1049D000E00412955012967178457407F280031224
:0249E000EC4F9A
:1049E20078457407F2806112B10690BE27E0540345
:1049F20078ABF69000F0E04420F090CC08E044015F
:104A0200F090CC047402F01295A090CBFDE090C916
:104A12001012957290CA33E4F012CFF112960C4440
:104A22000390BA0BF0783FE2FF08E290B60ACFF0AB
:104A3200A3EFF0D22290C912E04490F0800AC22281
:104A42008006788BE254FEF2302232E490B8BBF05A
:104A5200E54D600B904E3A12968C4440F0800990DE
:104A62004E3912968C54BFF090BA23E020E00790A2
:0D4A7200BA2BE030E00790B87BE054FCF078
:104A7F002212CFF190BE27E054FC440390BA0BF002
:104A8F0090B60A741CF0A37470F090B60E741CF0FC
:104A9F00A37482F0C215227ECB7FF37C4E7D007B08
:104AAF000A12368E2212CFF1904E36E0FF12A90C69
:014ABF0022D4
:10E042009000E9E0B4FF239000F6E004F09000EDC8
:10E05200E0FF9000F6E0B5070C9000F5E06402F0F6
:10E06200E49000F6F0E49000E9F090BE27E0541C42
:10E072001313543FFF7401A807088002C333D8FC6E
:07E08200FF9000E9E04FF000
:01E089002274
:10DF110012EC67129696F553E43EF552E43DF55145
:10DF2100E43CF550E553129613E55225E0FFE55325
:10DF3100129598A3F0E55125E0FFE552129598A3BB
:10DF4100F0E55025E0541EFFE551129598FFA3E03E
:10DF510054E04FF090D756E06007901C65E0440410
:01DF6100F0CF
:01DF6200229C
:10DBC40090BE17E04401F0E490D8E2F090CC05E078
:10DBD400FEA3E0FFC39438EE94015004EF4E70139B
:10DBE400129696FFE43EFEE43DFDE43CFC90BE0844
:10DBF40012064B90BE0BE012961390BE0A12959239
:10DC0400901C6DF090BE09129592901C6EF090BE1F
:10DC140008E025E0541E129595FF901C6FE054E037
:03DC24004FF0229C
:10DC270075F06FEF90C90F120694EF2583AF82FE50
:10DC3700752220E4F525F5298E83E582241D1295AA
:10DC4700E3E582241B1295E3E582241CF582E43583
:10DC570083F5837404F08F828E83E5822423F58213
:10DC6700E43583F583E4F0A3F08F828E83E5822485
:10DC77001A1295E3A3A3F08F828E83A3A3A3E04494
:02DC870080F02B
:01DC89002278
:07ECB60012C0C1120006228A
:10A538008E488F498F828E83E5822404F582E43524
:10A5480083F583E024FE602B24FD603224F96050FB
:10A5580024FD605D24FA605D1460342416600302F3
:10A56800A684E5492405F582E43548F583E0FF1221
:10A57800E6B622AF49AE4812B214121FA922E54925
:10A588002405F582E43548F583E0FF12D8DD22E59D
:10A59800492405F582E43548F583E0FF12C44922D1
:10A5A800E5492405F582E43548F583E0FF12EAF52C
:10A5B8002212CF5A22E5492405F582E43548F5836D
:10A5C800E0FF75F06FA42412F582E5F034C9F58335
:10A5D800EF2583F583E030E11975F06FEFA4245778
:10A5E800F582E5F034CAF583EF2583F583E044016D
:10A5F800F022E5492405F582E43548F583E0FF7546
:10A60800F06FA4246FF582E5F034CAF583EF258353
:10A61800F583E030E11875F06FEFA42457F582E573
:10A62800F034CAF583EF2583F583E04402F0E54969
:10A638002405F582E43548F583E0FF75F06FA4241E
:10A648006FF582E5F034CAF583EF2583F583E030B2
:10A65800E21875F06FEFA42457F582E5F034CAF5D7
:10A6680083EF2583F583E04404F0E5492405F5826A
:0DA67800E43548F583E0FD7F1C12E4EF227D
:10C0C100E4FF90B81BE04480F090B817E04404F01E
:10C0D1007E147F2A90B602EEF0A3EFF090B60AEE3E
:10C0E100F0A3EFF0783FEEF208EFF27E1C7F5D9057
:10C0F1003F47EEF0FCA3EFF0FD90B60EECF0A3EDA0
:10C10100F090B606ECF0A3EDF090B44A7414F0A3ED
:10C11100742AF090B452EEF0A3EFF07E027FF0901B
:10C12100B622EEF0A3EFF090B62AEEF0A3EFF0E422
:10C131007855F27522207EC97F0F8E788F798E789F
:10C141008F79785B7404F2E4FF75F06FEFA4242B10
:10C15100F582E5F034C9F5832FF5837404F075F0A9
:10C161006FEFA42429F582E5F034C9F5832FF58317
:10C17100E4F00FBF02D390AA07E030E406788BE227
:10C181004440F29000FB74FFF090B8417401F090CC
:10C19100BE28E0FCA3E0FDA3E0FEA3E0FF90D918D8
:03C1A10012064B38
:01C1A4002278
:10B21400EF2406FDE43EFC8D82F583A3E0F5288D42
:10B22400828C83E0F52790D91CE0FF600C1238274C
:10B2340090D91CE0600302B32030430D78B2E65489
:10B24400FEF6129829C22E801030460512EC738047
:10B2540008303805129E34C22E303E621260AB3084
:10B264001807E478ACF612AED878ABE620E0439049
:10B27400D69DE0B4090990B677E0547FF080109031
:10B28400B677E0FF90D8D6E0FEEF4E90B677F09018
:10B29400D670E0B4090312D62212ECBD903EC7E08A
:10B2A40030E00512EA10800A903EC7E030E1031254
:10B2B400D5A7301807E478ACF612AED8C232303DC8
:10B2C4002830152290B60EE0FEA3E0FF903F47E041
:10B2D400B50607A3E0B50702D21690B81BE0547F69
:10B2E400F0E4FF12C6BBC23022303B06E4FF12C6B4
:10B2F400BB22303C07302F2412756D2230450C7868
:10B30400B2E6B40217E4F612E5232230440E90BFED
:0DB3140022E054CFF0E478B2F612E96E2288
:109E340090BF23E054FEF0201903029EC490CC048A
:109E4400E06402707BE5792468F582E5783401F5F5
:109E540083E0D394004026857982857883A3E0FF4C
:109E640090B82BE05407B50704E478ACF6E5792400
:109E74006AF582E5783401F583E4F0801290B85FE6
:109E8400E0640B60F8E0640460F3E0640560EE12E3
:109E9400AED8E5792468F582E5783401F583E06489
:109EA400016003029FA7E5792449F582E57834012E
:109EB400F583E064046003029FA7AF77124AC022CF
:109EC400783CE224FA607924046003029FA712EC30
:109ED4004F12EB0EE490B81FF090BE27E00490BA46
:109EE40003F090BA237401F090B81BE054F8F0E04A
:109EF40054874410F090B817E054074490FF90B88A
:109F040016E4F0A3EFF078477409F212DF1190B66B
:109F14001A741CF0A3745EF09000EEE04408F09014
:109F2400D756E0600990BE27E024047857F2788B76
:109F3400E24401F2782BE2FBE4FD7F0F122053226E
:109F44007858E2784AF290BE17E04410F00000001E
:109F54000090BE00E0FCA3E0FDA3E0FEA3E0FF90C0
:109F640000E512064B9000E8E04402F0E49000F2B1
:109F7400F012D4AE12EBEE784AE20490BA03F090F9
:109F8400BA237401F09000F0E04404F090BE23E0A2
:109F940054FCF07F0A12E623782BE2FBE4FD7F0FEA
:049FA4001220532212
:10DB5E0090CC04E0FF64046017EF6408601290C973
:10DB6E000EE0FF64076009EF64086004EFB4092A51
:10DB7E0090D91BE0FF90BE03E0C39FF54BC313FF8C
:10DB8E007E0012206490BE00E0FCA3E0FDA3E0FE48
:09DB9E00A3E0FF90D91812064B18
:10DBA7002290BE00E0FCA3E0FDA3E0FEA3E0FF900F
:0DDBB700D91812064B7F017E001220642257
:1060AB0090BE17E04403F00000000090BE03E054E4
:1060BB000378ABF6E620E06B12DB5E786DE26003F3
:1060CB0012599378ACE6D39400400116302428C2C1
:1060DB0024C2AF90BE12E04440F07865E2FF08E2C4
:1060EB0090BE06CFF0A3EFF090BE13E04480F0D249
:1060FB00AF7862740CF2227847E2783DF2E478478D
:10610B00F27845E2783CF2E47845F290D69DE0FFD8
:10611B0090D670F0E490D69DF0BF090790BC22E0BA
:10612B00547FF078ACE6700312420078ABE6FD309A
:10613B00E00302646590BE17E04403F090CC04E0EA
:10614B00640160030262CBED704C30112F08E670D6
:10615B002B788BE24402F290BF23E054FEF090BE0A
:10616B0003E054FC440190BA0BF012CFF17D01AF68
:10617B007712CD8012B84CC2110264552021030254
:10618B00645530220302645578ACE6600302645513
:10619B0012D19E02645578ABE6640260030264552B
:1061AB0030192208E6601C12EC4FE579241AF582AF
:1061BB00E43578F583E4F078ACF690BF23E054E750
:1061CB00F0C22FC21978ACE66003026455783CE24A
:1061DB00641060030262C590B85FE0640B60F8E086
:1061EB00640460F3E0640560EE90BF43E0F54A2081
:1061FB00E20302628F90B82BE054077859F285794D
:10620B0082857883A3E0FFE2FEEF6E706412522F5B
:10621B00202F0302645590B85FE0702490BF43E0D9
:10622B00F54A30E308E4FF12C6BB026455E54A3079
:10623B00E40612756D026455E4FF12C6BB02645589
:10624B00302924E579241AF582E43578F583E4F0D6
:10625B00E579241AF582E43578F583E0FF90B81AD6
:10626B00E054FEFEEF4EF090BF23E04418F00264C2
:10627B0055E579241AF582E43578F583E4F012D2EA
:10628B0024026455E579241AF582E43578F583E424
:10629B00F012D224E5792449F582E5783401F583AF
:1062AB00E020E403026455E5792458F582E578345F
:1062BB0001F583E4F0A3F00264551291E1026455F9
:1062CB0090CC04E06402600302644B301803026458
:1062DB005530191490BE17E04402F00000000090F6
:1062EB00BE03E0540378ABF690D87FE064017034C2
:1062FB00D3784EE2940018E29400402890D880E0C6
:10630B00602208E224FFF218E234FFF208E2700286
:10631B0018E27010D22590C92EE0FFA3E0784DCF84
:10632B00F208EFF278ABE66402600302641E08E643
:10633B006003026455A222B34003026455A24CB31E
:10634B00400302645590C911E054036003026409D1
:10635B0030195FC21090B85BE0700A90CA77E0FF0B
:10636B0012CE1E800312CFF190CA77E0FFD39400B8
:10637B00403CEF25E078ACF690BF23E04401F09071
:10638B00CA5AE030E35A90CA7AE0FF7E0090CA5FA7
:10639B00E0FCA3E02FFFEE3CCF24FFCF34FF90CAED
:1063AB0067F0A3EFF090CA5AE054F7F08032D210A6
:1063BB00802E90D87EE0B4010512DDAB801990C918
:1063CB003AE0FF90BE0AE0C39FC394044004D2336B
:1063DB008002C23312CFF1D21090BF23E054FEF0F3
:1063EB0078457410F2E4FDFF12CD8090BE03E054AB
:1063FB00FC440390BA0BF012B84CC233804C90CAD9
:10640B0058E030E40690CA6C7401F0788BE254FDCE
:10641B00F28037301034A222B3502F78ABE6702ABB
:10642B0008E67026A24CB3502190B85FE0640B6075
:10643B00F8E0640460F3E0640560EE12AED8800A05
:10644B0090CC04E0B4080312902F785DE260057FD6
:0A645B0002124AC0788BE254BFF22F
:016465002214
:02CD80008F51D1
:10CD820075F06FEFA424FCF582E5F034C9F5832F2A
:10CD9200F583E0FFED601675F06FE551A424FDF513
:10CDA20082E5F034C9F5832551F583E0FFEF606138
:10CDB200785BE26551605375F06FE551A42499F5F3
:10CDC20082E5F034C9F5832551AD82FC7EAC7F4CFF
:10CDD2007B1012368E90CBF3E090B80BF090CBF430
:10CDE200E090B80AF090CBF5E090B809F090CBF65D
:10CDF200E090B808F090CBF7E090B80FF090CBF845
:10CE0200E090B80EF0785BE551F290B8537403F0FD
:0BCE120022E490B853F0785B7404F247
:01CE1D0022F2
:10CF5A009000EEE0FF54486440600AEF54A0700568
:10CF6A00E05424602F12EC4F90BF23E054FEF07877
:10CF7A002BE2FBE4FD7F0F122053202E699000EE76
:10CF8A00E0FF30E20354FBF09000EEE054FEF07F45
:10CF9A000B12E6239000F0E0544464406006A3E0DC
:10CFAA005405604212EC4F90BF23E054FEF0782BF8
:10CFBA00E2FBE4FD7F0F122053202E2A9000F1E0BD
:10CFCA00FF30E703547FF09000F0E054FBF090BE8E
:10CFDA0023E054FCF0E04401F0783CE2B40602E4B9
:07CFEA00F27F0912E6232289
:10EAF500EF24FE700D9000F7E04401F090C90E740C
:09EB050002F0788BE24401F222D7
:10E6B600857982857883E054466023A3A3E05403DA
:10E6C600701C75F06FEFA42412F582E5F034C9F5DD
:0FE6D600832FF583E04420F0788BE24402F22298
:107085008E4D8F4E8D828C83E0854E82854D83F0AB
:107095008D828C83A3E0854E82854D83A3F08D82FE
:1070A5008C83A3A3E0854E82854D83A3A3F08D82B7
:1070B5008C83A3A3A3E0854E82854D83A3A3A3F070
:1070C500ED2404F582E43CF583E05403FFE54E240A
:1070D50004F582E4354DF583EFF0ED2405F582E402
:1070E5003CF583E0FFC4333354C0FFED2404F5823F
:1070F500E43CF583E0FE1313543F4FFFE54E2405B2
:10710500F582E4354DF583EFF0ED2406F582E43C98
:10711500F583E0FFC4333354C0FFED2405F582E465
:107125003CF583E0FE1313543F4FFFE54E2406F56F
:1071350082E4354DF583EFF0ED2407F582E43CF567
:1071450083E0FFC4333354C0FFED2406F582E43CED
:10715500F583E0FE1313543F4FFFE54E2407F582F8
:10716500E4354DF583EFF0ED2407F582E43CF58336
:10717500E0FFC45403FFE54E240BF582E4354DF5DD
:1071850083EFF0ED2408F582E43CF583E0FFE54E5E
:107195002408F582E4354DF583EFF0ED2409F582F9
:1071A500E43CF583E0FFE54E2409F582E4354DF531
:1071B50083EFF0ED240AF582E43CF583E0FFE54E2C
:1071C500240AF582E4354DF583EFF0ED240BF582C5
:1071D500E43CF583E0FFE54E240CF582E4354DF5FE
:1071E50083EFF0ED240CF582E43CF583E0FFE54EFA
:1071F500240DF582E4354DF583EFF0ED240DF58290
:10720500E43CF583E0FFE54E240EF582E4354DF5CB
:1072150083EFF0ED240EF582E43CF583E05407FF9F
:10722500E54E240FF582E4354DF583EFF0ED240EA0
:10723500F582E43CF583E0FFC31354FCFFED240F16
:10724500F582E43CF583E0FEC433333354804FFFCD
:10725500E54E2413F582E4354DF583EFF0ED24106A
:10726500F582E43CF583E0FFC43333335480FFED0E
:10727500240FF582E43CF583E0FEC3134FFFE54E92
:107285002412F582E4354DF583EFF0ED2411F582F6
:10729500E43CF583E0FFC43333335480FFED241021
:1072A500F582E43CF583E0FEC3134FFFE54E241160
:1072B500F582E4354DF583EFF0ED2411F582E43CDC
:1072C500F583E0FFC313540FFFE54E2410F582E468
:1072D500354DF583EFF0ED2411F582E43CF583E0BF
:1072E500FFC4135407FFE54E2414F582E4354DF52C
:0472F50083EFF02211
:10D6990090BE17E04440F00000000090BE00E05446
:10D6A9000FF0C390BE06E0648094805035A3E02457
:10D6B900E2FE90BE06E0340490C90CF0A3CEF090CF
:10D6C900BE00E0FCA3E0FDA3E0FEA3E024FFFFEE23
:10D6D90034FFFEED34FFFDEC34FFFC90CCE812067C
:10D6E9004B2290BE06E0FFA3E090C90CCFF0A3EF58
:10D6F900F090BE00E0FCA3E0FDA3E0FEA3E0FF90F4
:06D70900CCE812064B22E1
:08DE080090C90FE0544660527E
:10DE100090BF23E054BFF090BF337440F090CCE843
:10DE2000E0FCA3E0FDA3E0FEA3E0FF90BE0012062D
:10DE30004B90C90CE0FFA3E090BE06CFF0A3EFF03B
:10DE400090BE12E04470F00000000000000000905E
:10DE5000BF13E0F55090BF12E0F55090BF23E044AF
:02DE600040F090
:01DE6200229D
:10E73F0090BF23E054BFF090BF337440F090BE12EF
:10E74F00E04403F000000000000090BF13E0FF90D2
:0BE75F00BF12E0FF90BF23E04440F039
:01E76A00228C
:0FEBEE00E490B807F090B81BE054874468F02219
:04E4EF008F538D5466
:10E4F300121FCB9048B3EEF0A3EFF02404F582E4AF
:10E503003EF583E553F0EF2405F582E43EF583E51C
:0FE5130054F09048B3E0FCA3E0FD7F06121F9880
:01E5220022D6
:02E623008F5016
:10E62500121FCB9048A7EEF0A3EFF02404F582E487
:10E635003EF583E550F0EF2405F582E43EF583E4ED
:0EE64500F09048A7E0FCA3E0FD7F05121F98AF
:01E6530022A4
:10B84C0090BA2B7402F0E5792424F582E578340162
:10B85C00F583E05402FF90BC23E054FD4FF0AF772A
:10B86C0012D3B0788BE24402F290D87EE06401707F
:10B87C00557E037F4A90B622EEF0A3EFF090B626E9
:10B88C007414F0A37429F090D88BE0701B783F747B
:10B89C0003F208744AF290B62AEEF0A3EFF090B6D9
:10B8AC000AEEF0A3EFF0803D783F7407F20874477E
:10B8BC00F27E07FF90B62AEEF0A3EFF090B60AEEF8
:10B8CC00F0A3EFF0801F783FE2FF08E290B60ACFBA
:10B8DC00F0A3EFF0903F47E0FFA3E090B60ECFF05F
:10B8EC00A3EFF0D215E5792447F582E5783401F51C
:10B8FC0083E0540390B805F078457410F2904E1D17
:10B90C00E030E12190D87EE0640160192019162006
:10B91C003313857982857883E020E70990B868E055
:10B92C004480F0800790B868E0547FF0904E39E086
:0CB93C0090B684F090B68EE054BFF0226C
:0EEC0C00904E22E0FF90B8B3E02FF404FF22F8
:10937D00754E01E579241AF582E5783401F583E01F
:10938D00FF20E30302951630190FE579245EF5826F
:10939D00E5783401F583E0F54EE5792419F582E59C
:1093AD00783401F583E0FE904E3CE0C36480F8EE26
:1093BD006480984055EF30E103029516E5792466F7
:1093CD00F582E5783401F583E0254EF0E5792466E4
:1093DD00F582E5783401F583E0C3648094B25003DF
:1093ED00029516E579241AF582E5783401F583E0C6
:1093FD0054E4F0AD777F1D12E4EFE5792466F58234
:10940D00E5783401F583741EF022E5792419F5828F
:10941D00E5783401F583E0FF904E3BE0D36480F8AE
:10942D00EF64809840030294DAE579241AF582E519
:10943D00783401F583E030E003029516E579246672
:10944D00F582E5783401F583E0C3954EF0E5792496
:10945D0066F582E5783401F583E0D36480944E405F
:10946D0003029516E579241AF582E5783401F58322
:10947D00E054F4F0E579241AF582E5783401F583AA
:10948D00E04410F0857982857883E030E528E58227
:10949D002456F582E5833401F583E0FEA3E0D394F1
:1094AD0000EE94014010E579241AF582E578340137
:1094BD00F583E04404F0AD777F1D12E4EFE57924E8
:1094CD0066F582E5783401F58374E2F022E57924BE
:1094DD0066F582E5783401F583E0FFD364809480EE
:1094ED004010E5792466F582E5783401F583E014C2
:1094FD00F022C3EF64809480500FE5792466F582E5
:09950D00E5783401F583E004F077
:019516002232
:0CEC430090BA23E054FCF0E0440CF022F6
:0CEC4F0090BA2BE054FCF0E0440CF022E2
:10EA4C0090BA23E054FCF090BA2BE054FCF090BA4E
:0DEA5C0023E0440CF090BA2BE0440CF022B3
:104000000011001B007900B700E00153FFFF000022
:10401000000000000000000000000000000000039D
:104020000303020202020101010101010101040472
:104030000404040404040404040404040404040341
:104040000303020202020101010101010101001B3F
:10405000000A0014001EFFFF001D007900B7FFFFDB
:10406000FFFF00E001530036FFFF003C005A005301
:10407000001D016F02280168021C02A703FD000257
:07408000FEFE01FE0102FE3D
:1091E100E4F54EC22A90D94EF078B97601788BE237
:1091F1004402F2E54E600302937CA222B3400302D3
:10920100937CA24CB3400302937CE5792436F5822A
:10921100E43578F583E06401704A754E01E57924FF
:1092210036F582E43578F583E4F090B81BE0548795
:109231004418F090B817E054FC4401F0E490B816DB
:10924100F0A3E05407F0E5792434F582E43578F5AC
:10925100837404F0E5792435F582E43578F583E407
:04926100F002931272
:10926500857982857883A3A3A3E0F55030E75D5423
:109275003F90400E93F54FB401097F0112D7F98F46
:109285004E8049301C0A754E0112EC5BC21C803CB5
:10929500E54FB4020F754E017848E2FE08E2FF1271
:1092A50067AE8028E54FB40318785EE2FE08E2FF5A
:1092B50012A3DD8F4EE54E7013754E0112EC5B80E7
:1092C5000BE54FB40406754E0312EC1AE54E703DDE
:1092D500857982857883A3A3E05403702930290515
:1092E500754E018021E5792446F582E5783401F54E
:1092F50083E06012754E01E5792446F582E5783400
:0D93050001F583E014F0E54E600312EC5B0F
:10931200E54EB40203E4F54EE54E6045B403079012
:10932200CA81E0549FF0D211857982857883A3E0C7
:10933200FF90B81BE054F8FEEF4EF0129B337847D3
:109342007410F2E579241FF582E43578F583E0FEA6
:10935200A3E024FFFBEE34FFFA7D01E4FF1220427A
:1093620022C21130210EA222B35009A24CB35004E2
:0A93720012D19E22788BE254FDF226
:01937C0022CE
:108CBA00E4F54E90D94EF0C22A78B97601788BE263
:108CCA004402F230202E754E017848E2FE08E2FF97
:108CDA00F5828E83E030E00FEF4E600B18E2FE085B
:108CEA00E2FF1267AE8002C22090D880E0B402157B
:108CFA00E4F0801190D87FE0600B90D880E06005A6
:108D0A0012C1A58F4EA222B34003028DAAE54E607E
:108D1A0003028DAAA24CB34003028DAA90C945E072
:108D2A006401702B754E01F090B81BE0548744180B
:108D3A00F090B817E054FC4401F0E490B816F0A3A0
:0F8D4A00E05407F090C9437404F0A3E4F08051A3
:108D590090C912E0FF543F90400E93F54FEF30E772
:108D690040E54FB40109E4FF12D7F98F4E8032E58F
:108D79004FB4020F754E017848E2FE08E2FF126710
:108D8900AE801E301C0A754E0112EC5BC21C8011AC
:108D9900E54FB4030C785EE2FE08E2FF12A3DD8F13
:018DA9004E7B
:108DAA00E54E703E202912202B0F90CA5AE020E788
:108DBA000890D87FE0541E6029754E0112EC5BE5DD
:108DCA00792449F582E5783401F583E05414601278
:108DDA0020290FE579245DF582E5783401F583745D
:108DEA0001F0E54EB40203E4F54EE54E605F90C92A
:108DFA0010E0FF90B81BE054F8FEEF4EF0129B33E0
:108E0A007847E2641160037410F2302A6090CA58FD
:108E1A00E05414605890CA67E0FEA3E0FF90CA616C
:108E2A00E0FCA3E0FDC39FEC9E404278B9E6FF7EDA
:108E3A0000ED2FFFEE3C90CA67F0A3EFF090CA58FE
:108E4A007404F090C911F0A3E04480F022E579247B
:108E5A0049F582E5783401F583E05414600FE57929
:0D8E6A00245DF582E5783401F5837401F094
:018E770022D8
:10C1A50090D889E078B9F690D880E0FFB4010BC249
:10C1B50025E490C929F07D01800FEFB40209E490D0
:10C1C500D880F07D018002E4FDED700302C2859008
:10C1D500B81BE05487FF90D881E0FE4F90B81BF064
:10C1E50090CA56E030E02AEE64706009EE64506053
:10C1F50004EEB4200890D94E7401F08014EE6478F2
:10C205006009EE64586004EEB4400690D94E74029D
:10C21500F090D883E0FFA3E090B61ACFF0A3EFF03B
:10C2250090D87FE0541E601D90D88AE0601ED22A07
:10C23500E490C943F090C912E020E31090C92AE0C8
:10C245006402F0800790C92AE06402F090D887E084
:10C25500FEA3E07803C333CE33CED8F9FF90B817E9
:10C26500E05407FBEEEF4BFF90B816EEF0A3EFF0AE
:10C2750090B817E054FCFF90D882E04F90B817F0C3
:02C28500AF0503
:01C287002294
:02D7F9008F514E
:10D7FB007F021FE579242EF582E43578F583E0FD71
:10D80B00A3E090B81ACDF0A3EDF0E5792430F582C2
:10D81B00E43578F583E0FDA3E090B816CDF0A3EDE9
:10D82B00F0E5792432F582E43578F583E0FDA3E069
:10D83B0090B61ACDF0A3EDF0857878857979E579F6
:10D84B00242DF582E43578F583E078B9F6D22AE514
:0FD85B00792435F582E43578F583E090D94EF0E5
:01D86A00229B
:1067AE008E518F5290B81BE054874418F090D87FCA
:1067BE00E0541E600D857982857883A3A3A3E02023
:1067CE00E30FE579241BF582E43578F583E0640266
:1067DE00F090B817E054FC4403F0E5522404F5821F
:1067EE00E43551F583E075F008A4FF90B817E05436
:1067FE0007FDE5F0ED4FFF90B816E5F0F0A3EFF0D2
:10680E00855282855183A3A3E0FEA3E0FF90B61AC2
:10681E00EEF0A3EFF0E5792432F582E43578F583D6
:10682E00EEF0A3EFF0E5792434F582E43578F583C4
:10683E007402F090D94EE0FFE5792435F582E43507
:10684E0078F583EFF0D22A855282855183E054F099
:10685E0024E0700302693324D0602624F070030212
:10686E00694424E0700302695524706003026AC70C
:10687E00855282855183A3E0FD7F0A12E4EF026AFE
:01688E00C742
:10688F0090BE24E0FCA3E0FDA3E0FEA3E0FF7801AF
:10689F001205679048A712064B9048A7E0FCA3E0AB
:1068AF00FDA3E0FEA3E024F0FFE43EFEE43DFDE4A3
:1068BF003CFC90CCE412064B90CCE7E054FEFFF08A
:1068CF00855282855183A3A3E0FCA3E0F5828C83DC
:1068DF00A3EFF090CCE6E0FF855282855183A3A30E
:1068EF00E0FCA3E0F5828C83A3A3EFF090CCE5E06E
:1068FF00FF855282855183A3A3E0FCA3E0F5828C30
:10690F0083A3A3A3EFF090CCE4E0FF8552828551DF
:10691F0083A3A3E0FCA3E02404F582E43CF583EF1A
:01692F00F077
:10693000026AC7E57924EEF582E43578F5837401BF
:10694000F0026AC7855282855183A3E0FD7F0D1254
:05695000E4EF026AC73C
:10695500E5792449F582E5783401F583E06030E591
:10696500792456F582E5783401F583A3E025E0FF27
:106975000582D5820215831582E0339048AFF0A3D6
:10698500EFF0E02414F09048AFE03400F08024E507
:10699500792421F582E43578F583E0FEA3E07803D8
:1069A500C333CE33CED8F92414FFE43E9048AFF07C
:1069B500A3EFF090BE24E0FCA3E0FDA3E0FEA3E07E
:1069C500FF78011205679048AB12064B9048ABE083
:1069D500F8A3E0F9A3E0FAA3E0FB9048AFE0FEA33B
:1069E500E0FFE4FCFDEB2FFFEA3EFEED39FDEC3860
:1069F500FC9048AB12064B9048AEE054FEF0904830
:106A0500ABE05407F09048AEE0FF85528285518394
:106A1500A3A3E0FCA3E0F5828C83A3EFF09048AD3F
:106A2500E0FF855282855183A3A3E0FCA3E0F582B4
:106A35008C83A3A3EFF09048ACE0FF85528285518B
:106A450083A3A3E0FCA3E0F5828C83A3A3A3EFF0CB
:106A55009048ABE0FF855282855183A3A3E0FCA358
:106A6500E02404F582E43CF583EFF0121FED904835
:106A7500B1EEF0FCA3EFF0FD9048B1E0FEA3E0FF1E
:106A85002404F582E43EF583740FF0855282855126
:106A950083A3E0FBEF2405F582E43EF583EBF08567
:106AA5005282855183A3A3E0FEA3E0FFED2406FBFC
:106AB500E43C8B82F583A3A3EEF0A3EFF07F0612EF
:026AC5001F9818
:0E6AC700857982857883A3A3A3E054FBF02297
:04A3DD008E518F52BC
:10A3E1008F828E83A3E0FF75F06FA42457F582E579
:10A3F100F034CAF583EF2583F583E0545E60037F73
:10A401000022AF52AE5112779D78B9A607855282CC
:10A41100855183A3A3E0FF90B817E054FCFEEF4EF3
:10A42100F0855282855183A3A3A3E0FFA3E090B6F8
:10A431001ACFF0A3EFF0E5792434F582E43578F50D
:10A44100837404F0855282855183A3A3A3E0FEA304
:10A45100E0FFE5792432F582E43578F583EEF0A367
:10A46100EFF090D94EE0FFE5792435F582E43578B7
:10A47100F583EFF0E5522405F582E43551F583E0EB
:10A48100FEA3E0FF7860E2FC08E2FDD3EF9DEE9CC5
:10A49100500F8E538F548552828551837404F080FE
:10A4A100548C538D54855282855183A3A3A3E553C4
:10A4B1008554F0120475E5522405F582E43551F511
:10A4C10083C083C082C3A3E09DFF0582D5820215AC
:10A4D100831582E09CD082D083F0A3EFF085528275
:10A4E100855183A3A37401F0857982857883A3A321
:10A4F100A3E04402F0E554AE537803C333CE33CE28
:10A50100D8F9FF90B817E05407FDEEEF4DFF90B872
:10A5110016EEF0A3EFF0D22AE579241BF582E4359B
:10A5210078F583E06402F0857982857883A3A3A31B
:06A53100E054FEF07F0182
:01A537002201
:0CEC5B0090B81BE05487F078B9760122D5
:0EEC1A0090B81BE054874408F078B9760122C8
:109B3300E579241BF582E43578F583E0FF90B81AC4
:109B4300E054FDFEEF4EF0E579241AF582E4357812
:109B5300F583E0FF90B81AE054FEFEEF4EF090BE9E
:109B630017E04402F00000000078ACE6FF25E0FFB8
:109B730090BE03E02F440190BA03F090CC04E0B40C
:109B8300020E90BA03E05403FFBF0304E024FEF087
:109B930030161930140DC216C21490B81BE044805D
:109BA300F0801090B81BE0547FF0800790B81BE062
:109BB3004480F090B817E04404F090D87EE054035A
:109BC300600512DDAB800312CFF1E4FDAF7712CD58
:109BD30080E5792424F582E5783401F583E05402A5
:109BE300FF90BC23E054FD4FF0AF7712D3B090B891
:109BF3007BE054FCF0E0FF90D94EE0FEEF4E90B8CE
:109C03007BF0E5792422F582E5783401F583E0FFE2
:109C130012A90C7847E264116015E5792447F582AF
:109C2300E5783401F583E0540390B807F08005E448
:109C330090B807F020280D12EC430000000090BA02
:109C4300237401F0C22878B9E6FF78AC26F6302AEF
:109C530060857982857883A3A3A3E04408F0E5793E
:109C6300242DF582E43578F583EFF090B81AE0FE01
:109C7300A3E0FFE579242EF582E43578F583EEF051
:109C8300A3EFF090B816E0FEA3E0FFE5792430F5EA
:109C930082E43578F583EEF0A3EFF090CC04E0B4E2
:109CA300010FE5792446F582E5783401F5837404E0
:029CB300F0229D
:04779D008E558F5620
:1077A1007F187E01E4F97860F2087411F2E579241A
:1077B10047F582E5783401F583E030E01009E57999
:1077C1002418F582E43578F583E0FC800DE5792411
:1077D10017F582E43578F583E0FCE5562405F5825A
:1077E100E43555F583E0FAA3E0FBE96066D3EB9459
:1077F10011EA940050057D010278A7D3EB9436EA93
:10780100940050057D030278A7D3EB9453EA9400CA
:10781100500EEC30E2057D070278A77D0B0278A7B8
:10782100D3EB946FEA940150047D0F8079D3EB94EC
:1078310028EA9402500CEC30E4047D1F80687D2F0F
:107841008064D3EB94A7EA940250047D3F80577D76
:107851007F8053D3EB9411EA940050047D0180465C
:10786100D3EB941BEA9400500CEC30E1047D0380CF
:10787100357D078031D3EB9479EA940050047D077C
:107881008024D3EB94B7EA9400500CEC30E3047DF0
:107891000F80137D1F800FD3EB94E0EA9400500416
:1078A1007D1F80027D3FEC5205E97003027950EDA6
:1078B100C3944040167F7878607403F20874FDF237
:1078C1007E0590D94E7402F00279B1EDC394204047
:1078D100167F7078607402F20874A7F27E0590D961
:1078E1004E7401F00279B1EDC3941040167F5878BF
:1078F100607402F2087428F27E0390D94E7402F08B
:107901000279B1EDC3940840167F5078607401F29A
:1079110008746FF27E0390D94E7401F00279B1EDD3
:10792100C3940440127F407860E4F2087453F290EB
:10793100D94E7402F08079EDC3940240737F2078B0
:1079410060E4F2087436F290D94E7401F08061ED72
:10795100C39420400F7F7878607401F2087453F269
:107961007E05804CEDC39410400E7F707860E4F288
:107971000874E0F27E058038EDC39408400E7F580C
:107981007860E4F20874B7F27E038024EDC39404B6
:10799100400E7F507860E4F2087479F27E03801023
:1079A100EDC39402400A7F207860E4F208741BF270
:0A79B10090B81BE054874FF0AF06BA
:0179BB0022A9
:02A90C008F5169
:10A90E00E4F552F553FF90D92AE06404700302AACD
:10A91E0042904E36E06551704F90B87BE054036024
:10A92E00010F90D8D5E0B50712783BE2B5510C90E7
:10A93E0000FAE0FE9000FCE06E6056EF601975F0D4
:10A94E0002E551A4242CF582E5F0344EF583E0F5B2
:10A95E0052A3E0F553800A904E34E0F552A3E0F591
:10A96E005390D8D5EFF08029783BE2B5510C90008A
:10A97E00FAE0FF9000FCE06F601775F002E551A45D
:10A98E00242CF582E5F0344EF583E0F552A3E0F584
:10A99E0053E5534552700302AA429000FDE0605BFE
:10A9AE00AF53EF3395E0F5548F559000FAE0243D08
:10A9BE00F582E4344EF583E0FFFD3395E0FCED25A2
:10A9CE0055F555EC3554F554C36480948050057597
:10A9DE005300804AC3E5559480E5546480948040CA
:10A9EE0009855252747FF5538034EF3395E0FEEFB4
:09A9FE002553F553EE3552F552D4
:02AA07008023AA
:10AA0900743D2551F582E4344EF583E0FF3395E03A
:10AA1900EFFEE424F0F555E43EF554AD55FC7F080E
:03AA2900123513D0
:10AA2C009000FAE09000FCF0AD53AC527F0B123565
:06AA3C0013783BE551F226
:01AA420022F1
:10DDAB0090D88CE014604404704A90CC04E0B40129
:10DDBB001D78ABE6700C90D88EE0248090BC22F0DE
:10DDCB00803290D88DE0248090BC22F0802678ABF6
:10DDDB00E6700C90D88DE0248090BC22F0801590DA
:10DDEB00D88EE0248090BC22F08009E490BC22F015
:0DDDFB0090BC02F012CFF1E490B853F0227A
:10EABF007862E2640E601390B86E7401F0A3E4F014
:0BEACF0090BE1AE04401F0740EF22229
:10CFF1007862E2640A60467ECB7FF312E32A90CB2B
:10D00100F6E090B81FF090BC037480F090CC04E07F
:10D01100B4010990BE1AE04401F0801C90BE1AE0F0
:10D0210054FEF0E04402F090BE067402F0A37430A6
:10D03100F090BE1BE04401F07862740AF230331CB8
:10D0410090B86E7409F0A37450F090BC1E7401F096
:10D05100A3745AF090BC277472F0801F7851E2FFDC
:10D0610008E290BC1ECFF0A3EFF0785AE290BC2703
:10D07100F090B86E7403F0A37410F090B403E05410
:03D081007FF0221B
:10CE1E008F4B7862E2FF640B700302CEB2EF640AAE
:10CE2E00600D7ECB7FF312E32A90BC037480F090EA
:10CE3E00CBF6E090B81FF0E54B600C90B86E743AEC
:10CE4E00F0A37498F080357850E2FDFB75F010A4D5
:10CE5E002410FEE5F0340390B86EF0A3CEF0EB751F
:10CE6E00F004A4FFAEF0C374EA9F90BC1FF07402EE
:10CE7E009E90BC1EF0ED240E90BC27F090B403E003
:10CE8E00547FF090BE1AE054FEF0E04402F090BEE3
:10CE9E00067402F0A37430F090BE1BE04401F078EB
:0ECEAE0062740BF2E54B600578537401F222BA
:10DCEC007862E2640560427E4E7F0012E32A12E7FE
:10DCFC003F90BC037401F090B86EE04480F090004B
:10DD0C00F1E054BFF090B403E04480F07862740505
:10DD1C00F290BE1AE054FDF090BE067401F0A374AC
:10DD2C0028F090BE1BE04401F09000F1E030E308D5
:10DD3C0090BC02E04408F02290BC02E054F7F022C0
:10D52B0090B8137433F090B812748BF090B81174E8
:10D53B009EF09000EAE090BC13F07862E264026027
:10D54B0044E490BC0CF0A3749EF0A3748BF0A37412
:10D55B0033F090BC037402F012E73F90B86EE044D6
:10D56B0080F09000EFE054BFF090B403E04480F003
:10D57B0078627402F290BE0614F0A37428F090BE89
:10D58B001BE04401F09000EFE030E30890BC02E0B8
:0CD59B004408F02290BC02E054F7F0229B
:10EB0E007862E26403600990BC037440F07403F20F
:09EB1E00904E36E0FF12A90C2212
:0ABB3C007862E26404700302BC1B8F
:10BB460090BE12E04403F090CC04E0707490BF23E2
:10BB5600E078A6F2E4F090BF337440F090BE2BE09C
:10BB660078A7F29000F8E0FF75F06FA4241DF58227
:10BB7600E5F034C9F583EF2583F583E0FCA3E0FD0A
:10BB8600A3E0FEA3E0FF90BE28E0F8A3E0F9A3E05F
:10BB9600FAA3E02FFFEA3EFEE93DFDE83CFC90BE3D
:10BBA6000012064B90BE13E04402F090BE2BE0FF5D
:10BBB60078A7E2B507A690BF13E0F218E290BF237C
:01BBC600F08E
:10BBC7009000F8E0FF75F06FA42413F582E5F034D8
:10BBD700C9F583EF2583AF82FE12E32A90BC037475
:10BBE70004F07851E2FF08E290BC1ECFF0A3EFF01B
:10BBF700785AE290BC27F090B86E7402F0A374D81C
:10BC0700F090BE1AE04401F090B403E04480F0786D
:10BC1700627404F2904E36E014FF12A90C90BC0235
:0EBC2700E05401FF9000F5E04F90BC02F022C7
:10D4AE007862E2FF64076051EF640560077E4E7F8D
:10D4BE000012E32A90BC037420F07851E2FF08E2D8
:10D4CE0090BC1ECFF0A3EFF0785AE290BC27F090FC
:10D4DE00B86E740CF0A374D0F090BE1AE054FEF047
:10D4EE0090B403E0547FF0E490B853F0904E03E014
:10D4FE0090B81FF078627407F29000E5E0FCA3E0AC
:10D50E00FDA3E0FEA3E0FF90BE0012064B90BE12FC
:0DD51E00E04404F09000F2E090BC13F02215
:10C77B007862E2FF6406700302C811EF6404603B49
