:020000040000FA
:20000000020DDD02186EE47871F22202199F020E2122220218CB02CD3422220219B8222219
:20002000FFFFFF021974FFFFFFFFFF0219ACFFFFFFFFFF02199E90CF5D7402F0A3E5A5F07F
:20004000A37480F0AF81A807E6A3F0A37416F0E58114F8E6A3F07CCF7D597F04121FC7E439
:20006000FEFF220219B8E709F608DFFA8046E709F208DFFA803E88828C83E709F0A3DFFA0B
:200080008032E309F608DFFA8078E309F208DFFA807088828C83E309F0A3DFFA80648982E4
:2000A0008A83E0A3F608DFFA805889828A83E0A3F208DFFA804C80D280FA80C680D4806978
:2000C00080F28033801080A680EA809A80A880DA80E280CA803389828A83ECFAE493A3C800
:2000E000C582C8CCC583CCF0A3C8C582C8CCC583CCDFE9DEE7800D89828A83E493A3F6087D
:20010000DFF9ECFAA9F0EDFB2289828A83ECFAE0A3C8C582C8CCC583CCF0A3C8C582C8CC10
:20012000C583CCDFEADEE880DB89828A83E493A3F208DFF980CC88F0EF60010E4E60C388A2
:20014000F0ED2402B4040050B9F582EB2402B4040050AF23234582239000B673BB01068968
:20016000828A83E0225002E722BBFE02E32289828A83E49322BB010CE58229F582E5833AB1
:20018000F583E0225006E92582F8E622BBFE06E92582F8E222E58229F582E5833AF583E4AF
:2001A0009322BB010689828A83F0225002F722BBFE01F322F8BB010DE58229F582E5833AFA
:2001C000F583E8F0225006E92582C8F622BBFE05E92582C8F222EF8DF0A4A8F0CF8CF0A426
:2001E00028CE8DF0A42EFE22BC000BBE0029EF8DF084FFADF022E4CCF875F008EF2FFFEE1E
:2002000033FEEC33FCEE9DEC984005FCEE9DFE0FD5F0E9E4CEFD22EDF8F5F0EE8420D21CE1
:20022000FEADF075F008EF2FFFED33FD4007985006D5F0F222C398FD0FD5F0EA22C5F0F889
:20024000A3E028F0C5F0F8E582158270021583E038F022A3F8E0C5F025F0F0E58215827081
:20026000021583E0C838F0E822BB0110E58229F582E5833AF583E0F5F0A3E0225009E9254C
:2002800082F886F008E622BBFE0AE92582F8E2F5F008E222E5832AF583E993F5F0A3E993B6
:2002A00022F8BB0111E58229F582E5833AF583E8F0E5F0A3F0225009E92582C8F608A6F08F
:2002C00022BBFE09E92582C8F2E5F008F222EF2BFFEE3AFEED39FDEC38FC22C3EF9BFFEE21
:2002E0009AFEED99FDEC98FC22E88FF0A4CC8BF0A42CFCE98EF0A42CFC8AF0EDA42CFCEAD3
:200300008EF0A4CDA8F08BF0A42DCC3825F0FDE98FF0A42CCD35F0FCEB8EF0A4FEA9F0EB3F
:200320008FF0A4CFC5F02ECD39FEE43CFCEAA42DCE35F0FDE43CFC22EF5BFFEE5AFEED590A
:20034000FDEC58FC22EF4BFFEE4AFEED49FDEC48FC22CFF4CFCEF4CECDF4CDCCF4CC22C329
:20036000E49FFFE49EFEE49DFDE49CFC22EB9FF5F0EA9E42F0E99D42F0E89C45F022E8605B
:200380000FECC313FCED13FDEE13FEEF13FFD8F122E86010ECA2E713FCED13FDEE13FEEFE1
:2003A00013FFD8F022E8600FEFC333FFEE33FEED33FDEC33FCD8F122E0FCA3E0FDA3E0FEE7
:2003C000A3E0FF22E2FC08E2FD08E2FE08E2FF22E493FC740193FD740293FE740393FF2217
:2003E000E0F8A3E0F9A3E0FAA3E0FB22E2FB08E2F908E2FA08E2CBF822ECF0A3EDF0A3EE2C
:20040000F0A3EFF022ECF208EDF208EEF208EFF222A8828583F0D083D0821204281204284D
:20042000120428120428E473E493A3C583C5F0C583C8C582C8F0A3C583C5F0C583C8C582CC
:20044000C822A42582F582E5F03583F58322E0FBA3E0FAA3E0F922F8E0FBA3A3E0F925F0CC
:20046000F0E582158270021583E0FA38F022EBF0A3EAF0A3E9F022E493FB740193FA740280
:2004800093F922D083D082F8E4937012740193700DA3A393F8740193F5828883E47374026B
:2004A000936860EFA3A3A380DFD083D082F8E4937012740193700DA3A393F8740193F5823F
:2004C0008883E473740293B5F0067403936860E9A3A3A3A380D8D083D082E4937012740154
:2004E00093700DA3A393F8740193F5828883E4737402936C70127403936D700C7404936ED7
:2005000070067405936F60DDA3A3A3A3A3A380CA8A838982E4738F458D46E478BAF275F00E
:20052000CAEF123AEBAF82FE78B8F208EFF28E83E07009E5466402600302087FE546640B10
:20054000602C90C6CBE0FEA3E0FFF5828E83A3E0B545148F828E83E030E10C90C6CBA3E0B2
:20056000F5828E837404F0AF45122689C223AF4512323878B8E2FE08E2FF2445F582EE3486
:2005800001F583E4F08F828E83E0FF30E30F18E2FC08E2F5828C83EF54F7F0801378B8E2B6
:2005A000FE08E2F5828E83E030E505AF45121AF97B06AD457FFF1212747B06AD457F3E12ED
:2005C00020717B06AD457F3F1220719000EEE0B4010312384AAF45123BD5E54664047003F0
:2005E000020736E545C39402400302069274742545F582E43490F583E4F0123AE3F583E018
:20060000700D909073F0C2AF909091E054FEF078BA7401F230260E909091E020E0077D8103
:200620007F0A123463E546640B600B203C08202605E490908DF0D2AFE54575F014A424A6C1
:20064000F582E434CBF583E4F0743A2545F582E43492F583E4F0785DE254FEF2303C1BE508
:200660004564014480FD7F10123463123AE3F583E054287003020736800F909087120411C5
:2006800000000000E4909086F078AAE254EFF2020736E4F547F54878B57402F27858E2FFC5
:2006A00078B5E2FED39F502875F0CAEE90894B120442EE2583F583E0FF544660020547EF46
:2006C00054C6600578B5E2F54878B5E204F280CC7858E548F2E5477037C2AF909091E054E6
:2006E000FDF078BA7401F2303C04C226E4F23026097D827F0A123463800C909091E020E099
:2007000005E490908DF0D2AF785DE254FBF2800EE547C39402500790CB38E054FEF090CB60
:20072000A2E0701290CB91F090BC22E0547FF0C221E490CBFBF090908DE06003020875C28A
:20074000AF90BE12E04403F0D2AFE4909091F07857F27856F27E897F4B8E188F198E1A8F96
:200760001B78517406F27865F27855F2C21A90CB7F7402F0E47867F27866F290B81BE04473
:2007800080F090B817E04404F0E4909D79F0909D7AF0787C7401F2087400F2E4785BF27877
:2007A000627406F2E478B5F278B5E2FFC394105025EF75F009A424FEF582E43492F583E4DE
:2007C000F0EF75F009A4246CF582E43492F583E4F0E204F280D278AAE25466F208E2548093
:2007E000F290AA7A7404F0A37400F0200003122EFCE4909251F0909D61F0121FFA78B6EE79
:20080000F208EFF218E2FC08E2FD2404F582E43CF5837406F07F05121FC7C22190BC23E0D1
:2008200054FDF07E137FF090B60AEEF0A3EFF07846EEF208EFF27E1F7FA790C59DEEF0A30A
:20084000EFF090B60EEEF0A3EFF0E490CB7EF090CB1AF0785DF290B807F090B805F078BA7E
:2008600004F2E4909D4FF0909D68F0909D62F0C21990CB38F078BAE260057F01123C452222
:2008800075A50712EF6275A50612E344781FE6B4AA05758E028041758E0130003BE490C230
:2008A00060F0A3F090A4F5E030E0177F0812382790C260EEF0A3EFF0EE548090C260F0A314
:2008C000E4F090C260E07002A3E0700C781FE620E30690CE097401F0E4F5A5123AF5781F99
:2008E000E664AA706790BD03F075A50590B203F090B00604F0A3E04401F07E047F007C50DA
:200900007D007B007A011237BD12C20C7E047F007B327A007D007C061236C7E4F5601236C7
:20092000D6FEA3E04E60139004161236D9FF1236D6FCA3E0F5828C83EFF00560E560B40A6B
:20094000DDE490BF00F075A50512D50530050BE490BD03F075A50212C33212290F75A5069B
:2009600012DFDE30002B909EB3E030E22475A50790BE2AE01490CEA3F0909FAEE00490CEB9
:20098000A5F0909FAFE0041236E312EA5AE41236E3E4F5A51220D7300503020A4275A50445
:2009A000128920200003020A42909EB1E030E00675A50412B14375A50712ED91909EB3E0A0
:2009C00030E20312EA5A75A501909F74E0700E909EAEE020E307909EB2E030E1109084676E
:2009E000E06007909EAEE030E30312FC2D75A506909FD5E030E40312AAAC909EAEE030E54F
:200A00000312ACFF12CE30909FD6E030E70312B740909EB3E030E20312DF5D909FFDE0309E
:200A2000E60312C1B5909EB4E030E60312BABA909EB4E030E50312C07A12CF3275A5061279
:200A4000D680E5D630E505E490BD0CF075A506126A47E4F5A57885E2707590CD3EE0600A34
:200A6000E4F090A81404F000806590A818E090C25EF0E020E05990AA0BE020E45290CD4359
:200A8000E0B4011CE4F01236F0E4F0EF2408F582E43EF583E0FFA3E090C6C5CFF0A3EFF0DB
:200AA0001236F0E0B4012890CD437401F08F828E83A3A3A3E0FFA3E090AA32CFF0A3EFF022
:200AC00090AA1CE4F0A3743CF090AA0B7410F030050302099475A50612D2F4E4F5A5909E75
:200AE0001EE030E00975A50112FC1EE4F5A5E5126003020994909E46E0540F601475A501DB
:200B000012DA3490C25FEFF0E4F5A5EF6003020994909E46E054F07003020994E5126003B2
:200B200002099490CB25E06003020994E58754FC4401F58700000209948E4C8F4D8F828E43
:200B400083E5822404F582E43583F583E0147003020C63046003020DDC783EE2FE08E2F559
:200B6000828E83A3A3E0FEA3E0FF7838E2FC08E2FDD3EF9DEE9C4003020C23121FFA8E4C65
:200B80008F4D783EE2FE08E2FF2405F582E43EF583E0FDE54D2404F582E4354CF583EDF058
:200BA000EF2406F582E43EF583E0FFE54D2405F582E4354CF583EFF018E2FE08E22404F59F
:200BC00082E43EF583E0FFAD4DAC4C121FC7783EE2FE08E2FFF5828E83A3A3E0FCA3E0FD87
:200BE000C37839E29DF218E29CF28F828E83E0FEA3E0FF7835E2FC08E2FD783EE2FA08E218
:200C0000FBF5828A83ECF0A3EDF07835EAF208EBF2783EEEF208EFF24E6003020B59783845
:200C2000F208F27838E2FE08E2FF4E602E783EE2FC08E2F5828C83A3A3C083C082C3A3E05E
:200C40009FFF0582D5820215831582E09ED082D083F0A3EFF0E47838F208F2E47834F2123E
:200C60001FD822E54D2405F582E4354CF583E0F54F25E02430F874FFF208F27442254FF8B6
:200C800074FFF2E4F54EE54FC454F024F0F582E434C9F58375F004E54E120442E06401600F
:200CA00003020DBBE54FC454F024F1F582E434C9F58375F004E54E120442E0FEA3E0FFE50D
:200CC0004F25E0243CF8E2FC08E2FDD3EF9DEE9C504F121FFA8E4C8F4D8F828E83E582248D
:200CE00004F582E43583F583E54FF08F828E83E5822405F582E43583F583E54EF0AD4DAC3B
:200D00004C7F02121FC7E54FC454F024F0F582E434C9F58375F004E54E120442E4F0020D17
:200D2000BBE54FC454F024F1F582E434C9F58375F004E54E120442C083C082E54F25E02401
:200D40003CF8E2FE08E2FFC3A3E09FFF0582D5820215831582E09ED082D083F0A3EFF0E529
:200D60004FC454F024F1F582E434C9F58375F004E54E120442E0FEA3E0FFE54F25E0243056
:200D8000F8E2FC08E2FDC3EF9DEE9C502E7442254FF8E54EF2E54FC454F024F1F582E43418
:200DA000C9F58375F004E54E120442E0F8A3E0FFE54F25E02430C8F208EFF2054EE54EC32B
:200DC00094045003020C86E54F25E0243CF8E4F208F27437254FF8E4F2121FD82243A11027
:200DE000D2A4C2A490BD147401F0E4F00000000000000000000090BF00E4F090A4B0740002
:200E0000F090A4B174C8F090A4B27401F090A4B37480F090BD10E05407781FF6752000D22F
:200E20000643A110D2A4C2A4D2A4C2A490BF00E4F090BF007403F075A50075D00078FF79D8
:200E4000DFE4F618D9FC781EF6D8FD75A40C5387DF43A30453A3F7C282D282000030835437
:200E6000C282000020834DD2820000308346C282000020833FC20153A3FD53A2DF53A17FCE
:200E800030810F30950C20A709D2017480781FF6802253A1EE000000000000000030A40C39
:200EA00020A009D2017480781FF6800874AA781FF6020F2E53A3FE75A70078007F00E4F2C6
:200EC00008DFFC9001007F007E9DE4F0A3DFFCDEFA90C0007F007E10E4F0A3DFFCDEFA75DE
:200EE0001C0090000078107455F0A3D8FC7581FF020F2E020880E493A3F8E493A34003F66B
:200F00008001F208DFF48029E493A3F85407240CC8C333C4540F4420C8834004F45680019A
:200F200046F6DFE4800B010204081020408090283FE47E019360BCA3FF543F30E509541F59
:200F4000FEE493A360010ECF54C025E060A840B8E493A3FAE493A3F8E493A3C8C582C8CA41
:200F6000C583CAF0A3C8C582C8CAC583CADFE9DEE780BE8F668D678A688B6912200B90C3EF
:200F800017EEF0A3EFF0E5694568602B90C317E0FEA3E0FF2404F582E43EF5837403F0EFFB
:200FA0002406FFE43EFAA9077B01900003E5688569F01202A1801290C317E0FEA3E02404C8
:200FC000F582E43EF5837404F090C317E0FCA3E0FD2406FFE43CFE8F82F583E56AF0AA0613
:200FE000A9077B01900001E5661201B4900002E5671201B47F07121FC722784B7401F22291
:20100000353530365F53504B30320000000021300001000001E4F52D304E527889E2704A8B
:2010200004F290AA5FE0F52C788BF224FE601C0470327A00799078907C007DFE7B017AAAC5
:2010400079607E007F0412013680227A00799078907C007DFE7B017AAA79647E007F0412B9
:2010600001368009E47889F28003752D01204F030211C27889E2640160030211C2788BE207
:2010800024FE700302110D0460030211AB788AE225E024E2F582E434CEF583E0FFA3E078D8
:2010A00096CFF208EFF218E2FE08E2FF2404F582E43EF5837421F0788CE2FC08E2FDEF2475
:2010C00006FBE43EFA8B82F583ECF0A3EDF07890E2FC08E2FD08E2FE08E2FF8B828A83A3B7
:2010E000A3A31203F97895E26401F225E024D3F582E4341FF583E0FEA3E0FF788CEEF208E8
:20110000EFF290AA9AEEF0A3EFF00211AB788AE225E024E2F582E434CEF583E0FEA3E0FFD8
:201120007896EEF208EFF27869E2FC08E2FD2407F582E43CF583E0FBEF2405F582E43EF577
:2011400083EBF0ED2408F582E43CF583E0FEA3E0FF18EEF208EFF24E7008187491F2087477
:20116000C2F27869E2FE08E2F5828E83A3A3A3E0FEA3E090AA7BF0EE90AA7AF07896E2FA1D
:2011800008E2FB2404F582E43AF5837422F07890E2FC08E2FD08E2FE08E2FFEB2406FBE41D
:2011A0003A8B82F583A3A3A31203F9E47889F27896E2FC08E2FD7F041221E1788AE20454FC
:2011C00007F2E52D604B78897401F290AA5FE0F52C788BF224FE601C0470327A0079907823
:2011E000907C007DFE7B017AAA79607E007F04120136801D7A00799078907C007DFE7B010A
:201200007AAA79647E007F041201368004E47889F2304D36788AE225E024E2F582E434CE29
:20122000F583E0FFA3E07896CFF208EFF218E2FC08E2FD2404F582E43CF5837440F07F04E1
:201240001221E1788AE2045407F2E52B5478FFE529541B4F6017E52930E106781F76208055
:2012600004781F7610E490BD03F012000E305A031225A322AA07A90590C7BBE0FDA3E0901F
:20128000C23DCDF0A3EDF0E4A3F0A3F090C23DE0FCA3E0FD4C7003021403ED2404F582E4D5
:2012A0003CF583E06B60030213E290C23DE0A3E02406F582E43CF583E06960030213E2ED1A
:2012C0002405F582E43CF583E06A6007EAF460030213C190C23DE0FCA3E0FDF5828C83E0BD
:2012E000F8A3E0F58288834583601F8D828C83A3A3E0FEA3E0FF8D828C83E0FCA3E0F582F2
:201300008C83A3A3EE8FF012023D90C23FE07002A3E0704D90C23DE0FEA3E0FFF5828E8320
:20132000E0FDA3E090C7BBCDF0A3EDF090C89DE0FDA3E08F828E83CDF0A3EDF090C23DE0DB
:20134000FFA3E090C89DCFF0A3EFF090C7BBE0FFA3E090C23DCFF0A3EFF0E4A3F0A3F08007
:201360005890C23DE0FEA3E0F5828E83E0FEA3E0FF90C23FE0FCA3E0F5828C83EEF0A3EF57
:20138000F090C89DE0FEA3E0FF90C23DE0FCA3E0FDF5828C83EEF0A3EFF090C89DECF0A3C3
:2013A000EDF090C23FE0FEA3E0F5828E83E0FFA3E090C23DCFF0A3EFF0EAF4700302128CB3
:2013C0002290C23DE0FEA3E0FFA3EEF0A3EFF0F5828E83E0FFA3E090C23DCFF0A3EFF0023D
:2013E000128C90C23DE0FEA3E0FFA3EEF0A3EFF0F5828E83E0FFA3E090C23DCFF0A3EFF0A3
:2014000002128C228E368F378F828E83E5822404F582E43583F583E024FE601F147003023A
:20142000151D1470030215532403600302157F7B007A04E4FD7F021220602290C7BBE0FE6A
:20144000A3E0FF4E70030215078F828E83A3A374FFF5F012023D90C7BBE0FEA3E0F5828EA2
:2014600083A3A3E0FEA3E04E6003021507121FFA8E368F3790C7BBE0FEA3E0FF2405F582AC
:20148000E43EF583E0FDE5372404F582E43536F583EDF0EF2406F582E43EF583E0FFE53751
:2014A0002405F582E43536F583EFF090C7BBE0FEA3E02404F582E43EF583E0FFAD37AC3695
:2014C000121FC790C7BBE0FEA3E0FFF5828E83E0FCA3E08C38F53990C89DE0FDA3E08F8263
:2014E0008E83CDF0A3EDF090C7BBE0FFA3E090C89DCFF0A3EFF090C7BBE538F0A3E539F024
:201500004538600302145690C7BBE07002A3E0606E7B007A04E4FD7F0212206022E537247B
:2015200006FFE43536FAA9077B01900001120175FF900002120175FD900003120269FBAA4D
:20154000F0E5372406F582E43536F583E0F54B1216FA22E5372406FFE43536FAA9077B01F9
:20156000900001120175FF900002120175FDE5372406FBE435368B82F583E0FB1212742292
:2015800090BF3374FFF090BF12E0F52AA3E0F529303E0753A4FEC23EC21F788FE225E02408
:2015A000CEF582E434CEF583E0FEA3E0FF7896EEF208EFF22406FFE43E8F82F583E529F07F
:2015C000304E02D23A2048030216B6D23690BE27E0785EF290BC1B7401F07859E27003022D
:2015E00016B6E4F290B85FE0640460F8E0640560F390BF43E020E2030216B690926AE0FEB7
:20160000A3E0F5828E83A3E0FF90B82BE054076F60030216B690BF23E054BFF090BF3374A4
:2016200040F090BE27E0785EF2E2FF90BA0BE0C39F04FF3395E0FEFDFC90BE001203F99057
:20164000BE13E04420F090B82BE05478F52CD2186470602FE52C64786029E52C645060233A
:20166000E52C6458601D90BE17E04402F00000000090BE03E0440190BA03F090BA23740110
:20168000F0D230E52C600D64086009D23790BF23E04410F090BF13E0F52C90BF23E044402D
:2016A000F0303A127897E22406FF18E234008F82F583E054BFF0304C2D30182AE519241AB3
:2016C000F582E43518F5837401F0E51B241AF582E4351AF583E0FF90B81AE054FEFEEF4E77
:2016E000F0304D02D2387896E2FC08E2FD7F021221E1788FE2045407F2228F478D488A492F
:201700008B4AE54A4549700302186D90C7BBE07002A3E07023121FFA90C232EEF0A3EFF0B4
:2017200090C232E0FCA3E0FD2404F582E43CF5837401F07F07121FC7AB4BAD48AF471212AA
:201740007490C7BBE0FFA3E090C234CFF0A3EFF0E4A3F0A3F090C234E0FEA3E0FF4E6045F7
:201760008F828E83A3A3E0FEA3E0FFC3954AEE9549503290C234E0FCA3E0FDC3E54A9FF549
:201780004AE5499EF549A3ECF0A3EDF090C234E0FEA3E0F5828E83E0FFA3E090C234CFF0E0
:2017A000A3EFF080B090C89DE0FEA3E0FFF5828E83A3A3E549F0A3E54AF0EF2404F582E402
:2017C0003EF583E54BF0EF2405F582E43EF583E547F0EF2406F582E43EF583E548F090C255
:2017E00036E0FEA3E0FF4E701190C89DE0FDA3E090C7BBCDF0A3EDF0801090C89DE0FDA3DB
:20180000E08F828E83CDF0A3EDF090C89DE0FEA3E0FFF5828E83E0FDA3E090C236CDF0A364
:20182000EDF090C234E0FCA3E0FD8F828E83ECF0A3EDF0F5828C83A3A3C083C082C3A3E0D4
:20184000954AFF0582D5820215831582E09549D082D083F0A3EFF090C236E0FEA3E0FF904E
:20186000C89DEEF0A3EFF04E700312351222C0D0C0E0303E2D20021353A4DF90B203E05418
:201880007FF090B207E020E7F9000030071490BF83E054FDF090CF4EE0F58E90BF83E0446C
:2018A00001F0C0F0C092C083C082C085C08475D008759200121580300F41D084D085D082B1
:2018C000D083D092D0F0D0E0D0D032C0D0C0E0C0F0C092C083C082C085C08475D00875927D
:2018E000001234E7200503300E11D084D085D082D083D092D0F0D0E0D0D03275D000C0A5A8
:20190000C000C001C002C003C004C005C006C00775A500200E2F741FC0E07419C0E0321290
:201920002768D007D006D005D004D003D002D001D000D0A5D084D085D082D083D092D0F097
:20194000D0E0D0D022744EC0E07419C0E032122E8BD007D006D005D004D003D002D001D0ED
:2019600000D0A5D084D085D082D083D092D0F0D0E0D0D022C0D0C0E0C0F0C092C083C08259
:20198000C085C08475D008759200122AE3D084D085D082D083D092D0F0D0E0D0D03232C067
:2019A00000C0E0C0D0D0D0D0E0D00032C0D010C6028002B2A0D0D03232E490CB30F090CBAB
:2019C0002EF09090F3E0640670227863E2FE08E2FF24C2F582EE34011229E5A3A3E0547FBD
:2019E000F07E907FF27B30E4FD023CC5E490CB25F0203F03021AF59090CFE078B5F2C23F33
:201A0000E47861F2C21BC21A78657406F27855F2E4F5259090C7E0FD7017909D4FE054FE5F
:201A2000F09090CBE0B40214909D4FE054FDF0800B909D4FE0FFEDF4FEEF5EF07E907FC233
:201A40007B30E4FD123CC590923CE0FF64026004EFB40106784CE2547FF27E927F3C7B1570
:201A6000E4FD123CC5121FFA90C231EEF0FCA3EFF0122A0E7409F07F10121FC7E4FF123CF9
:201A80004578B5E2FF908B0A1229B7E0FEEF122A1A1229BAEEF0E2FFC39402503275F0CAFB
:201AA000EF908B091229BAE06025C394044010E2FF75F0CA908B0C1229BA7404F080107872
:201AC000B5E2FF75F0CA908B0C1229BA7402F0E4908936F0784CE254FEF2785DE254F7F2BE
:201AE00078B5E2FF75F0CA908B0D1229BAE4F078ABE254DFF2120FFA228F497867E2D39451
:201B0000004003E214F2909D4FE0FF908AA61229C6E0F4FEEF5E909D4FF075F0CAE5499006
:201B20008A93120442E5492583AF82FE7B16E4FD123CC5C2AF75F0CAE54990894D1229CB6C
:201B4000E4F01229C3E04480F07888E2D3940140071229C3E04420F0D2AF7867E2706E78C4
:201B600066E254FDF2785DE254FDF278ABE254F7F278517406F27855F2E490CB32F0E5491B
:201B8000C394025033122A181229CBE0602A301927C21990BA2BE0440CF090B700E04480DA
:201BA000F0E490C231F00090C231E004F0E0B40EF590B700E0547FF075F0CAE549908B0A84
:201BC0001229CBE4F0122A181229CBE4F0E549D39401402890CB91E0FF30E62054BFF012E9
:201BE0001FFA90C232EEF0A3EFF090C232E0FCA3E0122A0E7409F07F06121FC7784CE254D7
:201C0000FDF2E549C39402500F743A2549F582E43492F583E054FDF09090CFE06549601428
:201C2000909242E030E0069092447406F0909242E054FEF0020FFA8E2F8F307839E2253085
:201C4000F218E2352FF274FFF534F535E4F53174422531F8E2B4FF0EE53125E0243CF8E474
:201C6000F208F2021CE7E53125E0243DF8E22530F218E2352FF274372531F8E27069E531BC
:201C800025E0243CF8E2FE08E2FFE53125E02431F9D3E39F19E39E5020E53125E02440F8DF
:201CA000E2FC08E2FD7F011221E174372531F87401F2E4F534F535802EE53125E0243CF813
:201CC000E2FE08E2FFE53125E02431F8C3E29FF53318E29EF532C3E5339535E532953450D3
:201CE000068532348533350531E531C394015003021C4F7832E534F208E535F208E2706F10
:201D0000783EE2FE08E2FF4E605F8F828E83A3A3E0FEA3E0FF7838E2FC08E2FDD3EF9DEEAD
:201D20009C501108E2FC08E2FD7F011221E178347401F222783EE2FE08E2F5828E83A3A3C2
:201D4000C083C0827838E2FE08E2FFC3A3E09FFF0582D5820215831582E09ED082D083F07F
:201D6000A3EFF0E418F208F222E47838F208F222AA07A905783EE2FC08E28C14F515E4F5D5
:201D800016F517E51545147003021EA0E5152404F582E43514F583E06B6003021E89E5150C
:201DA0002406F582E43514F583E0696003021E89E5152405F582E43514F583E06A6007EAAE
:201DC000F46003021E72851582851483E0FCA3E0FD4C6019851483851582A3A3E0FEA3E0E2
:201DE000FF8D828C83A3A3EE8FF012023DE5174516703B851582851483E0FFA3E0783ECFA1
:201E0000F208EFF27835E2FF08E2851582851483CFF0A3EFF018E514F208E515F2783EE267
:201E2000FE08E28E14F515E4F516F517803C851582851483E0FFA3E0851782851683CFF0C2
:201E4000A3EFF07835E2FF08E2851582851483CFF0A3EFF018E514F208E515F28517828575
:201E60001683E0FEA3E08E14F515EAF47003021D8322851416851517851582851483E0FE31
:201E8000A3E08E14F515021D83851416851517851582851483E0FEA3E08E14F515021D832A
:201EA000228F2F8D308A318B327829E2FB121D70E53245317003021FC6783EE2FE08E28EFB
:201EC00014F515E4F516F5177838E2FE08E22532F532EE3531F531E5154514603685158272
:201EE000851483A3A3E0FEA3E0FFD39532EE95315021C3E5329FF532E5319EF53185141638
:201F0000851517851582851483E0FEA3E08E14F51580C47835E2FE08E2FFF5828E83A3A343
:201F2000E531F0A3E532F07829E2FDEF2404F582E43EF583EDF07835E2FE08E2FF2405F5D8
:201F400082E43EF583E52FF0EF2406F582E43EF583E530F0E51745167009783EEEF208EFD5
:201F6000F2800B851782851683EEF0A3EFF07835E2FE08E2FFF5828E83E0FCA3E08C16F554
:201F8000178F828E83E514F0A3E515F045146026851582851483A3A3C083C082C3A3E095D5
:201FA00032FF0582D5820215831582E09531D082D083F0A3EFF07835E516F208E517F2454F
:201FC00016700312351222748055A870030221E1C2AF1221E1D2AF22748055A87003022FD8
:201FE0006BC2AF122F6BD2AF22748055A8700302301BC2AF12301BD2AF22748055A8700330
:202000000235E4C2AF1235E4D2AF22748055A8700302360DC2AF12360DD2AF22748055A863
:202020007003023636C2AF123636D2AF22748055A870030232FAC2AF1232FAD2AF22748055
:2020400055A87003023330C2AF123330D2AF22748055A87003023366C2AF123366D2AF2264
:20206000748055A87003021EA1C2AF121EA1D2AF22748055A87003021D70C2AF121D70D281
:20208000AF22748055A87003021C37C2AF121C37D2AF22748055A870030224BAC2AF122452
:2020A000BAD2AF22748055A87003022BD9C2AF122BD9D2AF22748055A8700302327CC2AFAA
:2020C00012327CD2AF22748055A87003023798C2AF123798D2AF22C2AFE51270030221D89D
:2020E000903D9293F521300A4C7823E2FE08E2FFF5828E83A3A3A3E07829F2E4782DF2D2BD
:20210000AF7829E2FD33333354F8FD902A5793F5A574532DF582E4342AF583E493740193CC
:20212000FA740293F5828A83120514E4F5A5C2AF12202D80A430094D782AE2FE08E2FFF595
:20214000828E83A3A3A3E07829F2E47819F2D2AF7829E2FD33333354F8FD902A5793F5A508
:2021600074532DF582E4342AF583E493740193FA740293F5828A83120514E4F5A5C2AF1208
:20218000203E0220D92008030220D9781AE2FE08E2FFF5828E83A3A3A3E07829F2E4782005
:2021A000F2D2AF7829E2FD33333354F8FD902A5793F5A574532DF582E4342AF583E49374FC
:2021C0000193FA740293F5828A83120514E4F5A5C2AF12204F0220D9E47829F2F521D2AF40
:2021E000228D828C83A3A3A3EFF033333354F8902A569314605414700302229124026003C2
:202200000222D7E51070107823ECF208EDF27825ECF208EDF280257825E2FE08E2F5828E7B
:2022200083ECF0A3EDF018ECF208EDF2782DE2B4010A7402F27827ECF208EDF20510431266
:20224000048D828C83E4F0A3F022E5117010782AECF208EDF2782EECF208EDF28025782E40
:20226000E2FE08E2F5828E83ECF0A3EDF018ECF208EDF27819E2B4010A7402F27817ECF2CC
:2022800008EDF205114312028D828C83E4F0A3F022E5137010781AECF208EDF2781CECF202
:2022A00008EDF28025781CE2FE08E2F5828E83ECF0A3EDF018ECF208EDF27820E2B4010A3A
:2022C0007402F2781EECF208EDF205134312018D828C83E4F0A3F022E4F561E56175F0073A
:2022E000A4245DF582E434C9AF82FEE56175F007A42456F582E434C9F583EEF0A3EFF0052D
:2023000061E561B415D5E490C9E9F0A3F0783574C9F2087456F2E4783EF208F27834F27893
:2023200038F208F2121FFA783AEEF208EFF22404F582E43EF583E4F0F561E4F562E561C42B
:2023400054F024F0F582E434C9F58375F004E562120442E4F00562E562B404E1E56125E0E7
:202360002430F874FFF208F274422561F874FFF2E56125E0243CF8E4F208F2121FFAE56135
:2023800025E02440F8EEF208EFF2E56125E02440F8E2FE08E22404F582E43EF5837401F004
:2023A000E56125E02440F8E2FE08E22405F582E43EF583E561F074FF7832F208F20561E5E8
:2023C00061C39401500302233A2278147426F2087477F2E4FF75F00AEFA42481F582E5F09D
:2023E0003426AD82FC75F00AEFA42477F582E5F03426F583ECF0A3EDF075F00AEFA42479A2
:20240000F582E5F03426F5837401F00FBF5FC6E4902A2DF0A3F0A304F07810741FF20874D8
:20242000D7F2E4FF75F00EEFA424E5F582E5F0341FAD82FC75F00EEFA424D7F582E5F03496
:202440001FF583ECF0A3EDF075F00EEFA424D9F582E5F0341FF5837402F00FBF5FC6E490A2
:202460002509F0A3F0A37402F078127425F2087417F2E4FF75F016EFA4242DF582E5F03446
:2024800025AD82FC75F016EFA42417F582E5F03425F583ECF0A3EDF075F016EFA42419F5EA
:2024A00082E5F03425F5837403F00FBF0FC6E4902661F0A3F0A37403F0228F598D5A8A5B8C
:2024C0008B5CE55C455B70030225A2E55925E0243CF8E2FE08E2255CF55CEE355BF55BE50E
:2024E0005A25E025E0FFE559C43354E02F7E0024F0FFEE34C9FE8F82F5837401F0A3E55B96
:20250000F0A3E55CF074422559F8E2FDB4FF12E55AF2E55925E02430F8E55BF208E55CF2FA
:2025200022E55925E02431F9D3E3955C19E3955B4017E55925E02430F8E55BF208E55CF202
:2025400074422559F8E55AF222ED655A7054E559C43354E07E0024F0FFEE34C9FEE4FD8F39
:20256000828E83E0601BA3E0FAA3E0C3955CEA955B500E8D5A8F828E83A3E0F55BA3E0F52D
:202580005C74042FFFE43EFE0DBD04D3E55925E02430F8E55BF208E55CF274422559F8E56B
:2025A0005AF222909E1EE020E10990CFB5E0700302264790A622E0FEA3E0FFC390A627E0E9
:2025C0009FFF90A626E09E909390F0A3EFF0909394E0FEA3E0FF909390E0FCA3E0FD6F7059
:2025E00002EC6E6055E4909396F0C3EF9DFFEE9CFE90C207F0A3EFF0C3EE6480948050247F
:2026000090CFB5E0601090C208E02400F090C207E03402F0800E90C208E02400F090C20774
:20262000E03402F090C207E0FFA3E090A62ECFF0A3EFF090A6327480F0229093967401F0A8
:2026400078AAE254DFF2229093967401F078AAE254DFF2907F8AE030E72E121FFA90C205A8
:20266000EEF0A3EFF02404F582E43EF58374DCF0EF2405F582E43EF583E4F090C205E0FC51
:20268000A3E0FD7F0F121FC722E4FED223F5491229EE122A21700302275E1229B3E054FC5F
:2026A000F0C2AF7848E2FD08E278BDCDF208EDF2786AE2700218E2701078BBE2FD08E27831
:2026C00069CDF208EDF27549010E78BBE2FC08E2F5828C83E4F0E5822407122A3CE01229A4
:2026E000FB18E2FA08E2FBF5828A83A3A3A3ECF0A3EDF07848EAF208EBF22408F582E43AFB
:20270000F583122A2170C208E2FC08E2FD4C60131229EEE0FAA3E0FBED2408122A11EAF065
:20272000A3EBF01229EEE4F0A3F0D2AFE549601DC2AF7869E2FC08E2F5828C83A3A3A3E0F6
:20274000FDA3E090AA7ACDF0A3EDF0D2AF90897F1229B6E030E2071229B3E054F7F090C5A7
:20276000B6E0C39EF0AF0622C2AF7829E27816F27822E521F2E512D3940150030228317E0A
:2027800000E51254FE2492F582EE343DF583E493F521300A4C7823E2FE08E2FFF5828E83ED
:2027A000A3A3A3E07829F2E4782DF2D2AF7829E2FD33333354F8FD902A5793F5A574532D2D
:2027C000F582E4342AF583E493740193FA740293F5828A83120514E4F5A5C2AF12202D80C9
:2027E00094300991782AE2FE08E2FFF5828E83A3A3A3E07829F2E47819F2D2AF7829E2FDC4
:2028000033333354F8FD902A5793F5A574532DF582E4342AF583E493740193FA740293F5FC
:20282000828A83120514E4F5A5C2AF12203E0227757816E27829F27822E2F521D2AF224168
:20284000CFB50041C5910041C4080042CE5B000041CE0D0060502A5F4000437A473C4B16AF
:202860004FB05582598C5ECE62486622699C6C6E70A873F277FC7BBE80A085228A348EE63E
:202880009278944295C499CE9C889F2AA2D4A636A8F0ABAAAE7CB14EB468B73AB9DCBCDE07
:2028A000BFE0C2E2C584C86E60282A37CC92CE8CD03ED1C0D342D4C4D6BED888DA0ADB5C5A
:2028C000DD0EDE30DF9AE0BCE1F6E360E4CAE604E786E8A86032CD442603530069006D0046
:2028E00070006C006500200048004900440020004400650076006900630065002000000012
:202900000000000000000000000041CDFD0100E4F5A875A50212A4E975A5011288DEEF608D
:202920000675A50212C33290C6BFE064026007909E1DE054EFF0E4F5A5781FE620E3083018
:2029400001057F011236CD90CFA3E060057F011236CD1238CD1223CA123CDF1222D812316E
:202960000E1239D175A50512BFB1120016E4F5A575A50612C423E4F5A5300014123D391271
:202980003D25123D2F123D1B123D57123D4D800990CFA3E06003123D39123CFD123CE912C1
:2029A0003D11123CF312FEC9C288C28A200103123D752290894EEF75F0CA120442EF25839B
:2029C000F5832290894E75F0CAE549120442E5492583F58322EF25E0241CF582E434CB2221
:2029E000F582E43583F583E4F08F828E8322EF25E02481F582E434CBF5832225E024B9F5D0
:202A000082E43439F583E493FC740193FD22FD2404F582E43CF58322E54975F0CA908B09FA
:202A200022E0FCA3E0FD78BBECF208EDF24C22F583ECF0A3EDF0EF75F00AA422F582E4352A
:202A400083F58322F08F828E83E58222F582E43EF58322FF001F0200000000FF0B39000028
:202A6000000000FFBA3E0000000000FFE35F0101000000FFBC720100000000FFE6B2010155
:202A8000000000FF6A730101000000FF14040100000000FFAF5C0205000000FF4D8302025C
:202AA000000000FF85D10202000000FF9A310205000000FF577D0202000000FF9CC20202B4
:202AC000000000FF59490205000000FFFE8E0203000000FF52C00204000000FF001F020087
:202AE00000000030983730051A90C002E02424F582E43466F583E599F090C002E004F0E02D
:202B0000F0801890C002E02405F582E434C0F583E599F090C002E004F0E0F0C29830994044
:202B2000C29990C003E0FF90C001E0FE6F602B30050F74242EF582E43467F583E0F5998079
:202B40000D74052EF582E434C1F583E0F59990C001E004F0E490C004F02290C0047401F063
:202B60002290C302EEF0A3EFF0A3ECF0A3EDF090CAA8E0FF123725E0705EAD03EF75F00777
:202B8000A424AEF582E434CAF583EAF0A3EDF090C30212374024AAF582E434CAF583ECF03B
:202BA000A3EDF090C30412374024ACF582E434CAF583ECF0A3EDF0907FB7E090CAA86008A8
:202BC0001237247402F080061237247401F090CAA8E004F0E0540FF022EFC454F024F0F59F
:202BE00082E434C9F58375F004ED120442E4F074422FF8E26D705674FFF557F558F9EFC4CE
:202C000054F024F0F582E434C9AB82FAE4FD8B828A83E0601AA3E0F8A3E0F5828883C395B0
:202C200058E58395575008A90585835785825874042BFBE43AFA0DBD04D4EF25E02430F88C
:202C4000E557F208E558F274422FF8E9F22275F0CAEF90894B120442EF2583AF82FE7851CC
:202C60007406F27865F27855F2C21A90CB7F7402F0E47857F27856F27C897D4B8C188D19C2
:202C80008C1A8D1B752220F526122A45241D1229E0E582241B1229E0E582241C122A3C74E3
:202CA00004122A442423122A3CE4F0A3122A44241A1229E0A3A3F08F828E83A3A3A3E0441C
:202CC00080F02290CF9AEFF0A3EDF0A3EBF0909EB4E030E661122D4DE0705BEF122D527428
:202CE00001F07F037E001234909099EDE0FD122D3FEEF0A3EFF090CF9AE0FFED122D3F12E7
:202D00002D6EEFF090CF9BE0FF9099EDE0FE122D3F122D6EA3EFF090CF9CE0FF122D3E1256
:202D20002D6EA3A3EFF0EE122D77E4F07403122D9FB43202E4F022E5A5F075A50622EE7509
:202D4000F005A4241DF582E43498F583229099EDE0FF75F005A4241AF582E43498F58322D6
:202D6000F0EE25E024FBF582E434CEF58322E0FCA3E0F5828C832275F005A4241BF582E4AB
:202D80003498F5832275F005A42498F582E43499F5832225E024FCF582E434CEF58322A382
:202DA000F09099EDE004F0E0228F47907E44E0C39547F0906623E0F548854749E548C394D1
:202DC000C1505074622548F582E43465F583E0703B1549E5497038C3E548954704F54824F3
:202DE00062F582E43465AF82FEAB47AD47123CC5906623E0B548032547F075F020E548A4AA
:202E00002424F582E5F03466AF82FE22854749054880A9123566E4FEFF22C2AF7869E2FEC6
:202E200008E2FFF5828E83A3A3A3E0FCA3E0FD78D2ECF208EDF2EF2408F582E43EF583E0C1
:202E4000FFA3E07869CFF208EFF290C5B6E004F0D2AFED4C702D121FFA78D0EEF208EFF2F3
:202E600018E2FC08E2FD2404F582E43CF5837404F07F0F121FC77EA07F0078D274A0F2085B
:202E80007400F278D2E2FE08E2FF22C2AF7829E27821F2782CE521F2E512D39403404F7517
:202EA00021C77823E2FE08E2FFF5828E83A3A3A3E07829F2E4782DF2D2AF7829E2FD333300
:202EC0003354F8FD902A5793F5A574532DF582E4342AF583E493740193FA740293F5828A90
:202EE00083120514E4F5A5C2AF12202D80AA7821E27829F2782CE2F521D2AF227869749179
:202F0000F20874C2F278487492F2087430F2E4FFEF75F00AA424C2F582E43491F583E4F002
:202F2000EF1229FBEF75F00AA424C5F582E43491122A2F24CCF582E43491AD82FCEF75F067
:202F40000AA424CAF582E43491122A2F24C9F582E43491F583EFF00FBF0CB57848E2FE08AF
:202F6000E22408122A4CE4F0A3F022300A1B782DE510F27823E2FE08E2F5828E83E0FFA3E2
:202F8000E07827CFF208EFF22230091B7819E511F2782AE2FE08E2F5828E83E0FFA3E0784B
:202FA00017CFF208EFF22230081A7820E513F2781AE2FE08E2F5828E83E0FFA3E0781ECFAF
:202FC000F208EFF22290CEF9E0122D62E0704BEF6048ED602C90CEF2E060069084667401EC
:202FE000F0E4FE122D61E0B4010AEE122D93E4122D60E4F00EEEB404EA90CEF9E090CEF87E
:20300000F090CEF9E0FE122D93EF122D607401F090CEF9E004F0E05403F0228F828E83A38D
:20302000A3E01460321460191470417812E2FD08E28F828E83CDF0A3EDF018EEF208EFF282
:20304000227810E2FD08E28F828E83CDF0A3EDF018EEF208EFF2227814E2FD08E28F828EA7
:2030600083CDF0A3EDF018EEF208EFF222EF4E604CC3EF9424FFEE9466FEEF7805CEC31345
:20308000CE13D8F9F547C394C1503274622547F582E43465F583E0FB907E44E02BF07462FC
:2030A0002547F582E43465AF82FEE4FD123CC5906623E0FFE547C39F5003E547F0228F6681
:2030C0008D678B6812200B90C30BEEF0FCA3EFF0FD90C30BE0FEA3E0FF2404F582E43EF5A1
:2030E000837404F0EF2406FFE43EFE8F82F583E568F0AA06A9077B01900001E5661201B468
:20310000900002E5671201B47F07121FC722E490C262F090C262E0FF75F007A424C4F582E0
:20312000E434C7AD82FCEF75F007A424BDF582E434C7F583ECF0A3EDF090C262E004F0E013
:20314000B41FD0E490C896F0A3F090C89D74C7F0A374BDF0E490C7BBF0A3F0229099D2E01D
:20316000122D85E0703FAF059099D2E0FD75F005A4249BF582E43499F583ECF0A3EFF0AFF6
:2031800001ED75F005A42499F582E43499F583EAF0A3EFF0ED122D857401F09099D2E00485
:2031A000F0E05407F02290C30CEEF0A3EFF0EB4A603C90A403E020E1F9C2AFAF0590A406D2
:2031C000ECF0A3EFF0AF0390A40AEAF0A3EFF090C30CE0FFA3E090A412CFF0A3EFF090A4C9
:2031E00003E04402F0D2AF90A403E020E1F92290C304EEF0A3EFF0122D4DE0702B9099ED2E
:20320000E0FE122D527401F090C304E0FAA3E0FB122D3EEAF0A3EBF0EF122D77ECF0ED12D6
:203220002D9FB43212E4F022ED4C600B90C304E0FEA3E0FF1236B7221229B3E054FBF01239
:2032400029D5F583E0FCA3E0FD4C60261229D5F583E0FAA3E0F5828A83E4F0ED2407122A39
:2032600011E0FCA3E0FD1229D5F583ECF0A3EDF080CD1229D5F583E4F0A3F0228E2F8F3023
:203280008F828E83E0FEA3E0FF4E700D853082852F83ECF0A3EDF0801B8F828E83E0FAA3DD
:2032A000E0FB4A6006AE02AF0380EE8F828E83ECF0A3EDF08D828C83E4F0A3F0228E838FEE
:2032C00082E0FFA3E0FEA3E0FDA3E090BC0CF0A375920190B811759200EDF0A3759201F03E
:2032E000A3759200EEF0A3759201F0A3759200EFF0A3759201F075920022D510035312FB16
:20330000782DE270197823E2FE08E2FFF5828E83E0FDA3E07827CDF208EDF212301BE47853
:203320002DF27827E2FF08E27823CFF208EFF222D511035312FD7819E27019782AE2FE08CC
:20334000E2FFF5828E83E0FDA3E07817CDF208EDF212301BE47819F27817E2FF08E2782AAF
:20336000CFF208EFF222D513035312FE7820E27019781AE2FE08E2FFF5828E83E0FDA3E0ED
:20338000781ECDF208EDF212301BE47820F2781EE2FF08E2781ACFF208EFF222D310AF01D4
:2033A000C3C0D0EDF5E9ECF5EAEFF5EBEEF5ECEBF5EDEAF5EE7404140070FCE5E9FFE5EA58
:2033C000FEE5EBFDE5ECFCE5EDE5EED0D092AF22D310AF01C3C0D0EDF5E9ECF5EAEFF5EB62
:2033E000EEF5ECEBF5EDEAF5EE7404140070FCE5E9E5EAE5EBE5ECE5EDFFE5EEFED0D0925A
:20340000AF2290907CE090B80BF090907DE090B80AF090907EE090B809F090907FE090B8D7
:2034200008F0909080E090B80FF0909081E090B80EF02290CF97123733AF05789CECF208C4
:20344000EFF2AF037898EAF208EFF290CF97E0FFA3E0789ACFF208EFF212FEF590CF99E013
:20346000F5A5228F498D4A121FFA90C239EEF0A3EFF02404122A4CE549F0EF2405122A4C5D
:20348000E54AF090C239E0FCA3E0FD7F02021FC7EF541FD39400E49400400FEF7805CEC330
:2034A00013CE13D8F904F568800CEF7805CEC313CE13D8F9F568AF681236AF22D310AF0178
:2034C000C3C0D0EFF5E9EDF5EDEEF5EAECF5EE7402140070FC00E5E9FFE5EAFEE5EBFDE51F
:2034E000ECFCD0D092AF2290BF17E0F52990BF16E0F52A90BF1AE0F52B7885E27010E52A42
:203500007004E5296004123AD022121015221210152290CF5D7402F0A3E5A5F0A37480F00F
:20352000AF81A807E6A3F0A37414F0E58114F8E6A3F07CCF7D597F04121FC72290CF5D743F
:2035400002F0A3E5A5F0A37480F0AF81A807E6A3F0A37415F0E58114F8E6A3F07CCF7D5955
:203560007F04121FC72290CF5D7402F0A3E5A5F0A37480F0AF81A807E6A3F0A37417F0E58D
:203580008114F8E6A3F07CCF7D597F04121FC7228E858F848C838D82EB601EE0FFA3E0FE5A
:2035A000A3E0FDA3E0A3759201F0A3EDF0A3EEF0A3EFF0A3759200DBE222E490C232F012F7
:2035C00029D58011EF4E601690C232E004F0EF2407F582E43EF583E0FEA3E0FF80E690C20E
:2035E00032E0FF227814E2FE08E2FF8E2FF530452F60158F828E83E0FEA3E0FF18EEF208F6
:20360000EFF24E700312353CAE2FAF30227810E2FE08E2FF8E2FF530452F60158F828E8369
:20362000E0FEA3E0FF18EEF208EFF24E700312353CAE2FAF30227812E2FE08E2FF8E2FF522
:2036400030452F60158F828E83E0FEA3E0FF18EEF208EFF24E700312353CAE2FAF3022D3F9
:2036600010AF01C3C0D0EFF5E9EEF5EAEDF5EDECF5EE7402140070FCE5E9FFE5EAFEE5ED9D
:20368000E5EED0D092AF22D310AF01C3C0D0EFF5E9EEF5EAEDF5EDECF5EE7402140070FC40
:2036A000E5E9E5EAE5EDFFE5EEFED0D092AF22D20E122DA9C20E22D20E12306DC20E22D2BB
:2036C0000E12E82AC20E220234330238AD023A4B02315C023B9590041475F003E560120423
:2036E00042E02290CE81F090CEA7F090CE87F02290C6C5E0FEA3E0FFF5828E832290BE2B2D
:20370000E090C23DF090BE281203B890C2391203F990BE2BE0FF90C23DE0B507E090C23980
:203720001203B822E075F007A424A9F582E434CAF58322EEF0A3EFF0A3E5A5F075A502222F
:20374000E0FCA3E0FDEF75F007A42290B001EFF0A3ECF0A3EDF090B005E04410F0E490C22E
:2037600043F0003007010090C243E004F0E0B40AF12290C22CE5A5F075A502C00790C22A6D
:20378000E0FFA3E090C232CFF0A3EFF0D00712AEF990C22CE0F5A5228F828E83E0FCA3E0D7
:2037A000FDFBAA044A60118D828C83E0FDA3E08F828E83CDF0A3EDF0AE02AF03228E858FA5
:2037C000848C838D82EA7003EB6015EB6003EA04FAE493A3759201F0A3759200DBF3DAF1FF
:2037E000228E858F848C838D82EA7003EB6014EB6003EA04FAE0A3759201F0A3759200DB71
:20380000F4DAF22290A4B0E054C070F890A4B1EFF0AF05A3ECF0A3EFF090A4B07480F090B5
:20382000A4B0E020E7F92290A4B0E054C070F890A4B1EFF090A4B07440F090A4B0E020E6DC
:20384000F990A4B6E0FEA3E0FF22E49000EEF09000EFF09000F0F07852F208F29000FBF0A1
:2038600090B403F090BC22E0547FF022AE0790C26CE5A5F0909EA3E0FFC39402500875A576
:2038800007AD0612EC3290C26CE0F5A5228E858F848C838D82AF031BEF6010E0A3FF7592EB
:2038A00001E0A37592006F60ECD322C32290CF94123733AE04AF05AC02AD0390CF94E0FAE8
:2038C000A3E0FB12E34290CF96E0F5A522759850758920E587547F4480F587300705758D6A
:2038E000B28003758DE6D28ED299C298228E858F848C838D82EB60121BE493A3FF75920187
:20390000E0A37592006F60EDD322C3228E858F848C838D82EB600DE493A3759201F0A375C1
:203920009200DBF32285A54175A5027E9E7F007C407D007B007A021237BD8541A52285A5F6
:203940004175A5057E137FF07C607D007B007A011237BD8541A52285A54175A5057E137F8B
:20396000F07C507D007B007A011237BD8541A5228FA5909A5EE0FEA3E0FF909A5CE0FAA366
:20398000E0FB1237BD75A504228E838F82EA7003EB600DEB6003EA04FAEDF0A3DBFBDAF9D0
:2039A000228E858F848C838D82EB600CE0A3759201F0A3759200DBF4220400055406A80722
:2039C000FC09500AA40BF80D4C0EA00FF41148129CE4906623F0FF7FC1906562E4F0A3DFF7
:2039E000FC907E4474C1F022909EB4E030E60F9099C67401F0E4A3F0A3EFF0A3EDF02290CC
:203A0000C23AE5A5F0E4F5A512FA9990C23AE0F5A52290C20FE5A5F075A50212F88590C20D
:203A20000FE0F5A52290C303E5A5F075A50412C2A690C303E0F5A52290C292E5A5F075A509
:203A40000512CEA090C292E0F5A52290CFAFE5A5F075A50112B9CD90CFAFE0F5A52290CF1D
:203A6000B0E5A5F075A50112E30390CFB0E0F5A52290C263E5A5F075A50712EE6990C263F0
:203A8000E0F5A52290C262E5A5F075A5041274E690C262E0F5A52290C302E5A5F075A50396
:203AA00012B52890C302E0F5A52290C23DE5A5F0E4F5A512EF9790C23DE0F5A52290C26426
:203AC000E5A5F075A50612D11690C264E0F5A52290C205E5A5F075A50512C45F90C205E0A5
:203AE000F5A522E5456401FF75F0CA90894B120442EF25832290C26212373912FF5590C2EA
:203B000062E0F5A52290C23D12373912D29D90C23DE0F5A52290C30C123DA912F56990C3D0
:203B20000CE0F5A52290C302123DA912EF6390C302E0F5A52290C302123DA912F6EB90C3A8
:203B400002E0F5A52290C257123DB012C31990C257E0F5A52290C257123DB012B97690C2B1
:203B600057E0F5A52290C257123DB012C97E90C257E0F5A52290C303122D3712A84190C3F2
:203B800003E0F5A52290C2EB122D3712958490C2EBE0F5A52290CFB1122D3712C55090CFC3
:203BA000B1E0F5A52290C2EB122D3712BC6690C2EBE0F5A52290C2FF122D3712E27490C277
:203BC000FFE0F5A52290C20F122D3712554E90C20FE0F5A52290C22C122D3712BDD490C2D8
:203BE0002CE0F5A52290C242122D3712D81990C242E0F5A52290C242122D3712DAD190C2A7
:203C000042E0F5A52290C242122D3712E0D890C242E0F5A52290C242122D3712C67990C215
:203C200042E0F5A52290C242122D3712C7A190C242E0F5A52290C242122D3712BF3390C292
:203C400042E0F5A52290C233122D3712DE4C90C233E0F5A52290C2EB122D3712D8CC90C273
:203C6000EBE0F5A52290C2FB122D3712898A90C2FBE0F5A52290C2EB122D371271F490C270
:203C8000EBE0F5A52290C304122D3712D4C890C304E0F5A52290C2EB122D3712D3E090C265
:203CA000EBE0F5A52290C2EB122D3712402D90C2EBE0F5A52290C264122D3712D02590C2ED
:203CC00064E0F5A5228E838F82EB6005EDF0A3DBFB2285A54575A50412BCC8E4F5A522E453
:203CE000F512F510F511F5132275A50112FBE0E4F5A52275A50112FC2AE4F5A522E4F5A56F
:203D000012D73BE4F5A52275A505126F44E4F5A52275A50112CAA4E4F5A52275A50212EA08
:203D2000E6E4F5A52275A50212FE35E4F5A52275A50512D6FAE4F5A52275A50312E2D4E492
:203D4000F5A52275A50412A65175A5052275A50512D7A5E4F5A52275A50212FCD3E4F5A577
:203D60002275A50112AAAEE4F5A52275A504128276E4F5A52275A50412BDF9E4F5A5227539
:203D8000A50612E3AD75A50522740EC0E07400C0E03200014343C7C7C7C7053021053900F6
:203DA0003021E4FD7F0F023463E5A5F075A50322E5A5F075A50422001208001000FFFFFF10
:203DC000FFFFFFFFFFFFFFFFFFFFFFFFFFFFFFFFFFFFFFFFFFFFFFFFFFFFFFFFFFFFFFFF03
:203DE000FFFFFFFFFFFFFFFFFFFFFFFFFFFFFFFFFFFFFFFFFFFFFFFFFFFFFFFFFFFFFFFFE3
:203E0000FFFFFFFFFFFFFFFFFFFFFFFFFFFFFFFFFFFFFFFFFFFFFFFFFFFFFFFFFFFFFFFFC2
:203E2000FFFFFFFFFFFFFFFFFFFFFFFFFFFFFFFFFFFFFFFFFFFFFFFFFFFFFFFFFFFFFFFFA2
:203E4000FFFFFFFFFFFFFFFFFFFFFFFFFFFFFFFFFFFFFFFFFFFFFFFFFFFFFFFFFFFFFFFF82
:203E6000FFFFFFFFFFFFFFFFFFFFFFFFFFFFFFFFFFFFFFFFFFFFFFFFFFFFFFFFFFFFFFFF62
:203E8000FFFFFFFFFFFFFFFFFFFFFFFFFFFFFFFFFFFFFFFFFFFFFFFFFFFFFFFFFFFFFFFF42
:203EA000FFFFFFFFFFFFFFFFFFFFFFFFFFFFFFFFFFFFFFFFFFFFFFFFFFFFFFFFFFFFFFFF22
:203EC000FFFFFFFFFFFFFFFFFFFFFFFFFFFFFFFFFFFFFFFFFFFFFFFFFFFFFFFFFFFFFFFF02
:203EE000FFFFFFFFFFFFFFFFFFFFFFFFFFFFFFFFFFFFFFFFFFFFFFFFFFFFFFFFFFFFFFFFE2
:203F0000FFFFFFFFFFFFFFFFFFFFFFFFFFFFFFFFFFFFFFFFFFFFFFFFFFFFFFFFFFFFFFFFC1
:203F2000FFFFFFFFFFFFFFFFFFFFFFFFFFFFFFFFFFFFFFFFFFFFFFFFFFFFFFFFFFFFFFFFA1
:203F4000FFFFFFFFFFFFFFFFFFFFFFFFFFFFFFFFFFFFFFFFFFFFFFFFFFFFFFFFFFFFFFFF81
:203F6000FFFFFFFFFFFFFFFFFFFFFFFFFFFFFFFFFFFFFFFFFFFFFFFFFFFFFFFFFFFFFFFF61
:203F8000FFFFFFFFFFFFFFFFFFFFFFFFFFFFFFFFFFFFFFFFFFFFFFFFFFFFFFFFFFFFFFFF41
:203FA000FFFFFFFFFFFFFFFFFFFFFFFFFFFFFFFFFFFFFFFFFFFFFFFFFFFFFFFFFFFFFFFF21
:203FC000C2AF90BD03E4F0000043D680D285C28500000002000EFFFFFFFFFFFFFFFFFFFF0F
:203FE000C2AF90BD03E4F0000053D67FD285C28500000002000EFFFFFFFFFFFFFFFFFFFFE0
:204000000011001B007900B700E00153FFFF0000000000000000000000000000000000030F
:20402000030302020202010101010101010104040404040404040404040404040404040323
:204040000303020202020101010101010101001B000A0014001EFFFF001D007900B7FFFFAA
:20406000FFFF00E001530036FFFF003C005A0053001D016F02280168021C02A703FD000208
:20408000FEFE01FE0102FE001E3C5A7896B4D2020001037883E290C5B3F030000D7F08122B
:2040A0002DA912CBEBEEF0A3EFF012CBEBE0FEA3E08E3FF5407B10E4FDAF40123CC5787F72
:2040C000E2FF12FCC97880EFF2787FE21313543FFE7888F212CC15EE2583AD827886F2081D
:2040E000EDF2E47881F2788212CB8FF0A3EFF07883E212048341860141D8024235034375AF
:2041000004457A05465706469507475C08480A09481B0B48350C48540D48960E489D0F4884
:20412000C31048D01249D1134A4C144AFE154BBE164BE1174C23184C6F194CC81A4CDB1B21
:204140004CFC1C4D221D4DB81E4DD41F4DE92041D8224DFE234E482C41D82F4F43304FC32F
:20416000314F6F324FB1334FC3344FC3354FC9364FF93B50103C50283D50495750618050CB
:20418000D9810000511C90CA9BE030E00412CBC3F290CD77E07002A3E0602390CD77E0FEFF
:2041A000A3E0FFF5828E83E0FCA3E08C41F54212306D90CD77E541F0A3E542F080D3E49078
:2041C000CA0EF090CDA9E030E20302511C90CD82E0FEA3E0FF02306DE4F54312CC1E8E41E8
:2041E000F54245417003754301E543600302511C90CA9BE030E12F78817401F27883E2B4D6
:204200002F057544FE800375440EE544047884F212CB907401F02540FFE4353FFEAC41AD28
:2042200042AB441239A112CC1E12CBBAE4F090CA0EE004F02290CA9BE030E20612CBC3749B
:204240000BF212CB977401F0787FE2F4702012CB90A374FFF012CB90A3A3740FF012CBD4E1
:204260007B06E4FD123CC5E540240A024DB27882E2703C1251A212CBCBFFF5828E83E04495
:2042800040F0787FE2540370417888E2FDC394025006743A2D12CCB57888E2C39402500383
:2042A00012CC4DEF244412CBACE04401F080207882E2FFB4090812CB977401F08011EF64E1
:2042C0000A6007787FE25403600512CB97E4F012CB8DA3F012CB90A3A3E4F07882E2B40973
:2042E0000D12CBD490C6BCE0FCA3E0FD800B12CBD47887E2240412CC0E7B061239A112CB17
:20430000CCFF24E812CBBCE0FDE540240A12CB9BEDF08F828E83E054826003024651787FDD
:20432000E2540360030246517882E2FF640C7003024651EF6409700302465112CB90A3E495
:20434000F0E26404702312CBCCFF244412CBACE030E10EEF244412CBACE4F012CB90740261
:20436000F07888E2FF7D0480067888E2FFE4FD120516024651E490C217F090C216F0909E1A
:204380001BE0605BE490C215F090C215E0FFC394045037EF12CC15EF2583F583E060237838
:2043A00088E2FF90C215E0FE6F601775F0CAEE90894F120442EE258312CBFA7B0612388DC7
:2043C000500890C215E004F080BF90C215E06404600DA37401F07888E212CC85740AF090A4
:2043E000CA9AE0640160030244F490C21604F0E490C215F090C215E0FFC3940140030244B9
:20440000F4EF12CC76FFB4021112CCE02415F582EC3401F5837401F0800EEFB4030A12CB18
:20442000CC241512CBACE4F090C215E0FF75F008A4242AF582E434CAF583E024F060172415
:20444000F070030244C3241860030244E5E490C216F0EF0244DEE490C212F090C214F090B9
:20446000C214E0FFC394035048E0FE12CCE02400F582EC340112CBDEE0FD90C215E0FC75ED
:20448000F008A4242EF582E434CA12CBDEE0FEED5EFDEC12CCC1F583E5822F12CBE3E05E5D
:2044A000B5050690C212E004F090C214E004F080AE90C212E06403702C90C216F090C21596
:2044C000E0801B90C215E012CCC112CBFA7B0612388DE43390C216F0700B90C215E012CC3D
:2044E0007690C217F090C216E0600990C215E004F00243F490C216E0B4010E12CBB47416A2
:20450000F090C6C4740A024FEF90C217E0FF64026004EFB40313787FE2540390C6C460045A
:20452000742980027409024FEF90CA9BE020E30302511C12511D12CCE77887E22400FD18F6
:20454000E23401FC7B031239A1787FE25403700790C21304F0800890909BE090C213F090D6
:20456000C213E0FF12CB97EFF07888E2FD90CA05E0FAA3E0FB7F60022060787FE2FFF47001
:2045800022788104F278847404F212CB90E4F0A374FFF012CB90A3A3740FF012CB90A3A384
:2045A00002505D90CA9BE030E42D90C6C9E06016EF54037022E014F0E0701C7B06FAFD7FA2
:2045C0008B122060801112CBC37404F212CBB4E012CB90A3A3A3F07882E27075787FE2547E
:2045E0000370357888E2FFE4FD12051630005B121FFA90C21812CCCD90C218E0FEA3E0FF8F
:20460000240412CBBC742CF07880E2FBEF240512CBBCEBF07F0A802F1219B99090C2E0709A
:20462000299090F3E07023121FFA90C21A12CCCD7888E2FFED240512CC57EFF0ED24041257
:20464000CC57740EF07F06121FC7787FE2FF12FC43120FFA02511990CA9BE030E50612CBCB
:20466000C37403F220000302511C7882E2600302511C12CBCCFF246412CBACE0FD20E40331
:2046800002511CEF246012CBACE0600302511C12CCA1024F5A90CA9BE020E60302473B78F9
:2046A000817401F22540FFE4353FFE12CB751239A1E4F5417882E2704312CBCCFF24EA12A9
:2046C000CBBCE0FCA3E0254112CC57E0FDE540240712CB9BE582254112CBE3EDF0EF24EA4D
:2046E00012CBBCE0FEA3E0254112CBBCE07004054180090541E541C394F840BDE541C39469
:20470000F85014E540240712CB9BE582254112CBE3E4F0054180E512CBCC24EA12CBBCE039
:20472000FEA3E0FF4E600F12306D12CBCC24EA12CBBCE4F0A3F0788474FFF27882E2B404E1
:20474000087888E2FF7D0480107888E2FF12CC85E06414600302511CFD02051690CA9BE002
:2047600020E70302511C12CBC3740412CBCBFF24E812CBBCE06022EF246512CBACE0C394C2
:2047800003400B12CB90A3A3A37402F0801312CB90A3A3A37401F0800812CB90A3A3A3E4FF
:2047A000F012CBA3E0B4020DEF12CBAA7403F014125170805012CBCC246412CBACE0F9308F
:2047C000E54330004012CCA1246412CBACE94440F0EF246412CBACE054CFF0121FFA90C2E4
:2047E0001C12CCCD90C21CE0FEA3E0FF240412CBBC7426F07880E2FBEF240512CBBCEBF078
:204800007F0A121FC7785D024AF590CA9CE020E00302511C12CBC37403F22290CA9CE02098
:20482000E20302511C12CBC3740B12CBD312CC097B0802500D90CA9CE020E30302511C122F
:20484000CBC3740812CBD37887E224F812CC0E7B0502500D90CA9CE020E40302511C12CBAD
:20486000C3741512CBCBFF240312CBACE012CB90A3A3A3F0EF240412CBACE0FFE5402404A3
:2048800012CB9BEFF012CCF1E22405FD18E23401FC7B04023590AF40AE3F023CD212CBC3ED
:2048A0007404F212CB90A37401F090C6C4E012CB90A3A3F090C6C7E025E025E012CB90A365
:2048C000024CF890CA9CE020E70302511C024CD290CA9DE020E1030249CE12CBC374081201
:2048E000CC3112CB751239A17888E2C394024018E540240712CB9BE4F0909091E020E015A8
:2049000078AAE254EFF2800DE540240712CB9B7401F012CC4D12CBCC12CBAAE0B403151885
:2049200012CBA5E4F0EF24E512CBBC12CCA8F012FA5F803F12CBA3E0B40108EF12CBAAE479
:20494000F08030909D62E030E01212CC937411F012FA5F909D62E054FEF08017909D62E01E
:2049600030E11012CC93740CF012FA5F909D62E054FDF090C6BEE06050121FFA8E418F42AB
:204980008F828E83E582240412CBE37401F090C6BEE0FFE5422405F582E43541F583EFF0D6
:2049A000E5422406FFE43EFE8F82F583A3A37401F08F828E83A3A3A37429F0AD42AC417F60
:2049C00006121FC7E490C6BEF0E4909D68F0020FFA787FE2FFF4702B788104F278847405B2
:2049E000F212CB907401F0A374FFF012CB90A3A3740FF012CB90A3A3A37401F0E5402404BF
:204A0000024DB2EF54037006788104F2800B90CA28E0600578817401F27881E26401600395
:204A200002511C787FE2FF12FC127880EFF278847405F212CB907401F0A3EFF0788212CBA4
:204A40008FA3A3A3F0E5402404024DB290CA9DE020E30302511C12CBC3740612CBCBF5821B
:204A60008E83E030E52F12CB90A3A3A37402F012CCA1245612CBACE0FDE540240412CB9B21
:204A8000EDF0EF245512CBACE0FFE540240512CB9BEFF0802912CB90A3A3A3E4F0E54024A8
:204AA0000412CB9B74FFF0A3F012F8F712CBA3E0B4050BEF12CBAAE4F074021251707888CC
:204AC000E2FFC39402400302511C12CCE0F5828C83E054286024303C1A203C0302511CEF83
:204AE0006401FF12CC15EF2583F583E05428700302511C78AAE254EFF22212CC4D2290CA10
:204B00009DE020E40302511C90CA33E07033788104F212CB90F0788812CC5E12CC327B0679
:204B20001239A1E5402407FFE4353FFE7B10E4FD123CC578847417F290CA03E4F0A304F024
:204B400022E490CA03F0A3F07888F27888E2FFC394045043EF75F017A42434F582E434CAEE
:204B6000F583E0602B12CC3C2401CF3400FE12CC5E7B061239A112CC3C2407CF3400FE7BA8
:204B800010E4FD123CC590CA03E475F00112023D7888E204F280B490CA03E0FCA3E0FD4C08
:204BA00078817002F2227401F290CA04E012CB90F07F167E001234BCEF047884F22290CA02
:204BC0009DE020E50302511C12CB671239A17888E2FFC39402400302511C743A2F12CCB555
:204BE0002212CBFD12F5168F41E54164046024EF75F017A4243BF582E434CAAD82FC7887C9
:204C0000E2244912CC027B101239A190C6C4740B024FEF90CA9DE020E60302511C12CB6782
:204C200002500D90CA9DE020E70302511C78817401F2741712CB6E12517E7887E22449124E
:204C4000CC0E7B101239A112CBCC244812CBBCE014FFE540241612CB9BEFF090CA27E070DB
:204C60000302511CE540241612CB9B7403F02290CA9EE020E00302511C90C6C7E0FE90C6C7
:204C8000C4E0FDEDFF90C21EEEF0A3EFF078817401F27882E22403788412CBD390C21E1226
:204CA000044EAC02AD017882E2FB1239A190C21E12044E7882E27E0029F9EE3AFCAD017BE6
:204CC00003AF40AE3F02500D90CA9EE020E10302511C12CBC3F27882024DCF90CA9EE020A9
:204CE000E20302511C12CB83F0A3E4F012CBCC241412CBBCE012CB90A3A3F02290CA9EE0A2
:204D000020E30302511C12CBC3740512CBCBFF24FD12CBBCE012CB90A3A3A3F0EF24FE026B
:204D20004E3C90CA9EE020E40302511C12CBC37405F2787FE25403706A12CBCCFF24171291
:204D4000CBBCE0FD540333333354F8FCEF241812CBBCE0FF540664064CF541ED543025E058
:204D600025E0FE18E2FC08E2FD241712CC57E0540C4EFEEF5418131313541F64034EFFEDAF
:204D8000241812CC57E05460C31364304FF54212CB90A3A3A3E541F0E540240412CB9BE508
:204DA00042F0229090C5E012CB90A3A3A3F0E540240412CB9BE4F02290CA9EE020E50302F7
:204DC000511C12CBC304F212CB90A3E4F0788012CB8FF02290CA9EE020E60302511C1251C3
:204DE0003C12CBCC240D02503A90CA9EE020E70302511C12513C12CBCC240C02503A12CBDF
:204E0000C3740DF2909DACE0700D12CCF112CC097B081239A180157B0712515B24F412CB37
:204E2000BCE0FFE540240512CB9BEFF0909DACE012CB90A3A3A3F012CBCC24F712CBBCE0F6
:204E4000FFE540240402504312CBCC24C212CBACE090C22130E4097490F0A374C2F08007A5
:204E60007490F0A374F2F012CBC37411F21251A2F212CB90A3F012CBD412CB751239A11236
:204E8000CC6EFF240912CBBCE0FD12CB97EDF0EF240912CBBCE07039E540240A12CB9BE4F8
:204EA000F0E540240B12CB9BE4F0E540240D12CB9BE4F0E540240C12CB9BE4F0E540240FC7
:204EC00012CB9BE4F0E540240E12CB9BE4F0024F2D12CC6EFF240612CBBCE0FDE540240A27
:204EE00012CB9BEDF0EF242412CBBCE0FFE540240B12CB9BEFF0E540240D12CB9BE4F0124F
:204F0000CC6EFF242612CBBCE0FDE540240C12CB9BEDF0E540240F12CB9BE4F0EF242612FF
:204F2000CBBCE0FFE540240E12CB9BEFF012CC6E240812CBBCE0FFE540241012CB9BEFF0BD
:204F400002511912CB83A3F012CBCCFF246412CBACE0FD20E40302511CEF246412CBACEDF9
:204F60004420F0EF24E512CBBC12CCA8024FF512CBC3740912CB7012518BFF240612CBBC66
:204F8000E0FDE540240612CB9BEDF0EF240512CBBCE0FFE540240712CB9BEFF09092FCE05B
:204FA000FEA3E0240412CBBCE0FFE540240802504312511D12CCE79092FDE0244912CCD586
:204FC00002500D12CB6702500D12CBC3740712CC3112CB751239A120000302511C7882E2F9
:204FE000700302511C12CBB47405F090C6C404F090C6C77401F002FA5F12CBC3740A12CBEF
:205000007012517E9092FDE0244D12CCD50239A112CBC3740712CB7012518B247C12CBACC1
:20502000E0FFE5402406801B12CBC3740E12CB701239A17B0812515B24F412CBBCE0FFE596
:2050400040240612CB9BEFF02290CA92E020E70302511C78817401F20412CB8AF0A3E4F0F6
:205060002278837410F278847404F290C6C7E012CB90F0787FE2A3F0788212CB8FA3A3F0D5
:2050800090C6C4E012CB90A3A3A3F020001090CA9CE020E70302511C78817401F222909EA1
:2050A0001EE030E11E12CBEBE0FFA3E090C22ACFF0A3EFF07884E2FB7A007D807C007F840D
:2050C000123772121FD890CF5D7404F0A37402F07CCF7D597F0F021FC712CBC304F2909092
:2050E000C2E060119090CFE09090F112519612CB90EFF0800512CB90E4F09090F3E0B40506
:20510000129090FFE090912112519612CB90A3EFF0800612CB90A3E4F012F8F7227881745A
:2051200001F27884740AF2AE3FAF407887E22404FD18E23400FC7B061239A1227881740107
:20514000F278847407F2AE3FAF407887E22404FD18E23400FC7B061239A122E5402406FF0B
:20516000E4353FFEE4FD123CC57886E2FE08E22290C6C7F090C6C4740BF012FA5F2212398D
:20518000A1E5402406FFE4353FFE221239A19092FCE0FEA3E02225E025E0FFE02FFF12FCF6
:2051A000C922787FE2FF12F6BC7880EF22E4F55190CFB2E0F550E4F0C222C23978ABE24403
:2051C00001F2A220B34003025FAE301A189090D0E0FF64017003025FAE9090C8E0FEEF6EDA
:2051E0007003025FAE908949E0147003025609147003025834147003025A37147003025CEF
:205200009424FE700302541F046003025F73D22290CDA7E0540D24FB70030252F224F87018
:20522000030253BC240C600302541A78BF12C6E630261A90908DE06401701212C75C7008D1
:2052400090CB7B7402025463C222025F79784CE24440F2303C25909073E0FF909252E0FE1A
:205260006F600AD23D909076EEF0025F79743A2FF582E43492F583E04410F078BFE2FE083F
:20528000E2FF78C2E26F700318E26E70607850E224FE6003025F7912602912F3EB12C71D6D
:2052A000909073E0FC75F0CA90894C120442EC2583F583E0FE12C7D9FDEE4D12C67112C69E
:2052C000B7AF04E4FD12C9B6909073E0908A6E12C64712C77812C6DC7405F290CDA7E04440
:2052E00004F07F1A12FBE190CD8B02597DC222025F797850E224FE601B24026003025F790B
:2053000012ED5C12C65412C74B440112C6C690BF23025B8E12C74460FB90BF43E020E009AF
:2053200090CD8BE0D39402405412FB0C12601B9090871204110000000090CDA8E0FF122C12
:205340004E12FCF290908D7401F0C211909091E04402F090CDA7E04408F07F1012FBE1D2E4
:2053600022E490CD8BF012C640E04490F07858E2FEEFD39E403B90CDA8E0F2803412ED5C22
:2053800012C71D12F3EB12C7D9FF909086E04F90B81B12C67112C74B440390BA03F090CDF0
:2053A000A8E0FFE4FD12C9B690BA237401F012C7E0784A7405F2784DF2025F7990CD8BE0E3
:2053C000D3942040167F1912FBE112F11B12C698F5188F19F51A8F1B025F7912F8B712C6FB
:2053E0008A12C640E04460F0C22275F0CAEF908A6E12C64BE0FF90CB8FE0FCA3E02412F597
:2054000082E43CF583EFF090CDA8E0FF75F0CA908A6E12C64BE4F00255FEC222025F79D21C
:205420002290CD93E0546D24FB70030254DE24F87003025F7924E0700302554B24C070031A
:205440000255D2246C600302560478C312C6E630262090908DE06402701812C75C700E90A7
:20546000CB7B04F0D213E24440F2025F79C222025F79784CE24440F278C3E2FE08E2FF08F5
:20548000E2FC08E2FDC39FFBEC9EFAD3EB9418EA94005045ED6F7002EC6E6003025F79780C
:2054A00050E224FE702B125FAF126010909252E0FF75F0CA908A6E12C64B12C77812C6C93C
:2054C00090CD93E04404F07F1D12FBE1E490CD8BF0784A7408F2025F79C222025F797850EE
:2054E000E2603124FE6003025F7990CD8BE0D39410400F7F1B12FBE1E47857F27856F2025D
:205500005F79125FAF12601012C6CA12C72E7408F20255FE12C74460FBE0640460F6E0644B
:205520000560F190BF43E0F55220E203025F7912602912FE5912C74B440112C6D97408F2F1
:2055400012C752E490CD8BF0025F7912DD2D90CD93746DF0909091E030E003125FD59090A3
:205560008D7402F0909091E04401F07858E2B40204E054FDF0784CE254F7F212C68AC222BC
:2055800012C698FE90926AF0A3EFF012C7B18E832423F582E5833401F583E4F0909086E0D7
:2055A000FF90926AE0FCA3E0F5828C83A3EFF012C7E0D21990907312C643E04490F09092E1
:2055C00061E0FE75F0CAEF90894B12C64BEEF0025F7990CD8BE0D3942040217F1C12FBE1F6
:2055E00012FCF2E47857F27856F290925212C643E044F0F0E4908949F0025F79C22212C7E6
:20560000E0025F79C222025F79785DE2FF600790CDA9E030E41412C70CFCA3E024FFF582E9
:20562000E43CF583E0D394004029C22290BE237401F090926AE0FCA3E02448F582EC340179
:20564000F583E064086003025F79EF54FE785DF2025F79D22290CDA9E0543164016003023E
:20566000574B7850E214603F14606014605D24036003025F79E55064016003025F7912C673
:205680005412C6B712EF0F12C7287401F290CFB204F0E490B81FF090B853F0C23790BF2379
:2056A000E054EFF0025F7912C690E55064026003025F7912C65412C7E712EF0F12C6CA78A7
:2056C0004A14F290CFB204F0025F7912C784E55064047003025F7912C74460FB90BF43E06A
:2056E00030E035E5506402702F7850E2B4020512FB0C800312FC9F90CFB27404F0D237906B
:20570000BF23E04410F0784A7401F290BE27E0240290CB39F0025F797844E2B41002D23912
:2057200012FE597850E2B4020C12C6B712EF0F12C6DD02595F125FF712EF0F90BA2B740124
:20574000F0784DF290CFB2F0025F7990CDA9E0F954316411705612C7BC6003025F7990BC0A
:205760001BE04440F0E490CB24F012C70CFEA3E0FF240EFDE43EFCAB0590B60AF0A3EBF047
:20578000EF24FEFFE43E90B60E12C6B3E490B805F090BA237402F0E9442090CDA9F0AF050D
:2057A000AE047BF0E4FD123CC5025F7990CDA9E0547164317059F55290CB24E004F0E06417
:2057C000026003025F7912C74460FB90BF43E030E01B90B85FE0640460F8E0640560F30092
:2057E0000000000090BF43E030E1058000755201E55260157F0112F29090CDA9E054CFF020
:20580000784CE254FBF2025F7912C752025F7990CDA9E0FF547164716003025F79EF20E314
:20582000047F018002E4FF12F29090CDA9E05487F0025F79785DE2FD601DC22212C69012D1
:20584000C78C2448F582EE3401F583E064086003025F79ED025F76D22290CDACE0540D24C8
:20586000FB700302598324F87003025A32240C6003025F7912C7847850E2146025146042FC
:2058800014603F24036003025F79E55064016003025F7912C6B7C21512E25912C7287403EF
:2058A0008017E55064026003025F7912C7E7C21512E25912C6CA784A04F290CFB214F00224
:2058C0005F7912C74460FB90BF43E030E047E550640270417850E2B4020512F9AF800312AF
:2058E000FB0C90BE241203B890CD8C1203F912C79490CDA67401F012E94912C6D17404F23F
:2059000012C66B12F57212C71D90CDACE04404F07F08025A2C90CDA0E020E10790CD9AE0E9
:2059200030E1207850E264036003025F7990CDACE04410F0C22212C690E4908949F07F07B3
:20594000025A2C12FE597850E2B4021D7844E2B41002D23912C6B712E25912C6DD7403F270
:2059600090CFB2E550F0025F79125FF712E25990BA2B7401F0784D7403F290CFB27401F0E4
:20598000025F797850E224FE602424026003025F7990CD8FE04402F012E94912C74B4401CB
:2059A00090BA0BF012C65412C6CA784A802490CDA6E004F012C74460FB90BF42E030E01886
:2059C00012C79412E94912C71D12F57212C66B12C6D17404F2025F7990BF43E020E0030200
:2059E0005F7912C68A12FB0C12F8B790908D7401F0C21112601B909091E04402F030E00248
:205A0000D22690CDAD12C643E044F0F075F0CAEF908A6E12C64BE4F0C222302606784CE2E2
:205A20004410F290CDACE04408F07F1012FBE1025F79C222025F797866E26003025B67D22D
:205A40002212C690784A7402F290CD9AE0FF541924F77003025B1D24F07003025B312418F6
:205A60006003025B63909091E030E015EF20E51190CD9AE0442012600412C79CE4F0025BF1
:205A80007C90CD9AE030E62E12C7A590CD9BE0FF20E60312C7C790CD9CE475F001120253C7
:205AA000FE90CA10E0B50608A3E0B5F00312E884755101025B7C7850E264026003025B7C46
:205AC00090CA11E025E0FF90CA10E033FE90CD9EE475F001120253FCC3E5F09FEC9E40094A
:205AE00090CD9A126035025B7C7844E2FF64106004EFB41102D23975510112F19912C6C1FD
:205B000090CD9AE04440F090CD9CE07002A3E0606B90CD9C74FFF5F012023D805F90CA0BBB
:205B2000E0600990CD9BE04401F0805090CD9A802C90CD9BE020E4447F0C12FBE190CD9A0C
:205B4000E030E50512F11B800BC2AF90BE12E04403F0D2AF78ABE254FEF290CD9BE04410C4
:205B6000F08019C222801590CD9AE020E604C222800A90CD9BE020E50312E88490CD9BE09E
:205B8000FF5407FEBE010EEF4402F090BE23E054FEF0025F79EE64036003025C6990BE235E
:205BA000E054FCF012C7BC6003025F7912C7D9F0E0547FF090B81AE054FEF0E054FDF09079
:205BC000CAA3E0602D90CA0BE0FDD39411500B90B81BE054874418F08043EDD3947990B894
:205BE0001BE0500754874450F0803254874470F0802B90CA0BE0FDD3941B500B90B81BE0B6
:205C000054874420F08016EDD394B790B81BE0500754874458F0800554874478F090B81748
:205C2000E054FC4402F0E054FBF090CA0BE075F008A4FF90B817E05407FDED4FFFE5F012D1
:205C4000C682784D7409F2901FCDE0FFA3E090B61ACF12C6B3E490B805F090BA2304F0901E
:205C6000CD9BE04404F0025F7990CD9BE0FD540764076003025F7912C78490B85BE06003AF
:205C8000025F79ED54F890CD9BF090CD9AE04410F0025F797866E26003025F5CD22290CDE3
:205CA000A0E0543D24FB7003025DBE24E87003025EB4241C6003025F58909091E030E02470
:205CC00090CDA1E0FF5403701BEF440112600412C79CE4F07844E264106003025F7912FBB6
:205CE0000C025F7990CDA1E030E114E4908949F090CDA0F0A3E054FCF012F11B025F79904D
:205D0000CDA0E030E648A3E0FF20E60312C7C712C7A590CDA212C7D2909E06E0700D90CD97
:205D2000A2E07003A3E0F4701F801A90CA15E02401FF90CA14E03400FE90CDA2E0B5060839
:205D4000A3E0B5070312E884755101025DB67850E26402706190CA15E025E0FF90CA14E025
:205D600033FE90CDA412C7D2FCC3E5F09FEC9E400990CDA0126035025F797844E2FF6410B1
:205D80006004EFB41102D23975510112F4B612C69012C6C190CDA0E04440F090CDA2E070BA
:205DA00002A3E0600A90CDA274FFF5F012023D90CDA1E054DFF0784A7406F2025F79784E7D
:205DC000E2FD7850E2C39D5403F54F6401704E12C79490BE27E0C39D1313543F0490CDA63A
:205DE000F0E0FF64057003025EACEFD3940540117F1312FBE190CDA07480F012C690025E17
:205E0000AC12C65490B85BE0640C60F8E0640160F312F09C90BE2712C6C4025EAC90CDA609
:205E2000E07003025EAC300710E58E547070057553648013755332800EE58E5470700575A8
:205E400053288003E4F553E4F552E552C39553500500055280F4E54F64036004E54F704CFC
:205E600090BF43E030E04590B85FE0640560F8000090BF43E030E23190B82BE054786410CB
:205E8000702790BE27E0785EF290CD8FE04402F012F09C12FE5912C6B790BA237401F012D2
:205EA000C752784A7407F2800312FB0C784A7407F2025F7912DD2D90BE27E054037850F273
:205EC00090CDA0E04420F0909091E0FF30E102D226EF30E008125FD5E490CDA1F090909126
:205EE000E04401F090908D7402F0302611784CE24410F27B007A017D027F14122060784CC9
:205F0000E254F7F212C69890926AF0A3EFF012C78CFF12C7B1909086E08F828E83A3F012B9
:205F2000C68A12C78C2423F582EE3401F583E4F012ED5C12C74B440390BA0BF07846E2FFD5
:205F400008E290B60ACFF0A3EFF0D22290907312C643E04490F08021C222801D90CDA0E081
:205F600020E604C222801290CDA1E020E40B12E884800678ABE254FEF2302232E490B8BBFC
:205F8000F0E551600B909E3E12C7F14440F08009909E3D12C7F154BFF090BA23E020E007B1
:205FA00090BA2BE030E00790B87BE054FCF02212ED5C90BE27E054FC440390BA0BF090B69E
:205FC0000A741FF0A374BAF090B60E741FF0A374CCF0C21522909073E06401F0D23CE0FD1D
:205FE000243AF582E43492F583E04401F07B007A017F141220602212F7A090BE27E00490C6
:20600000BA0BF022F012FCF290926AE0FEA3E022909252E0FFE4FD12C9B6227E907F7C7C3E
:206020009E7D007B0A1239A12212ED5C909E3AE0FF12F7E822E04440F012E884C2222278AD
:20604000C37401F2E408F290B82BE0547878C1F2C237C233C231E408F2E05407785FF2E249
:20606000FF700B78C1E264106004D2348002C234C22BC22CC22D3028179090D3E0B507105D
:206080009090CFE0FF7856E2B5070578C47401F278C1E2120483615300615C0861D210604E
:2060A000F61860F620610228611330612B3861BE4061C94860E05060E05861436061436860
:2060C00060CA7060CA78000061D47860E22404F2D23178C37405F2187401F2D2370261D413
:2060E0007860E22402F2D23178C37403F2187401F2D2370261D4D23178C27401F2D23702B9
:2061000061D478C27401F2D237D21D909248E4F00261D478C27401F2D23778C4E26002D240
:206120002BD21D909248E4F00261D478C27401F2D23778C4E26002D22BD21D909248E4F07C
:206140000261D47860E22402F278C27401F2D2370261D478C4E2607CD22D8078D233908946
:2061600049E0B4061F90908DE0B40218E4908949F07F1612FBE1E490CD93F0909091E03084
:20618000E102D226908949E0B4041590CDA0E030E30EE4908949F090CDA0F07F1612FBE171
:2061A0009000EFE0B4010E90896AE0FFA3E07852CFF208EFF278C4E2601AD22C801678C2FE
:2061C0007401F2D231D237800B78C27401F2D2378002D237302B089090D4E0700204F0905F
:2061E000B82BE030E70F851982851883A3A3A3E04410F0801B851982851883A3A3A3E05471
:20620000EFF0E5192445F582E5183401F583E4F0303403026A44851982851883A3A3A3E023
:20622000FF20E30302651678C4E26003026516851982851883A3E0FE785FE26E600302652C
:206240001690B82AE020E003026516851982851883A3A3A3EF54F7F0E5192465F582E51808
:206260003401F583E0C39403401DE51924E8F582E43518F583E0600FE519249CFFE5183473
:2062800001FE7D0412FE02E5192434F582E43518F583E020E2030263FD7856E2F925E024DD
:2062A00081F582E434CBF583E0FEA3E0F5828E83E0640460030263F6E925E02481F582E4AE
:2062C00034CBF583E0FEA3E0F5828E837408F0121FFA78BFEEF2FC08EFF2FD18E2FE08E2EC
:2062E000FF2404F582E43EF5837405F07856E225E02481F582E434CBF583E0FAA3E0240749
:20630000F582E43AF583E0FBEF2405F582E43EF583EBF07F03121FC77856E2FD75F0CAA497
:20632000244EF582E5F03489F583ED2583F583E054FDF0E5192447F582E5183401F583E0D2
:20634000FF30E055E5192447F582E5183401F583EF54FEF0E519245FF582E5183401F5837C
:20636000E030E110E5192447F582E5183401F583E04402F0E519245FF582E5183401F583DA
:20638000E030E210E5192447F582E5183401F583E04404F07F1C12FB797856E2FF25E02460
:2063A00081F582E434CBF583E0FCA3E02408F582E43CF583E0FCA3E0FDEF25E02481F58284
:2063C000E434CBF583ECF0A3EDF0E2FF25E02481F582E434CBF583E0FCA3E04C601875F021
:2063E000CAEFA4244EF582E5F03489F583EF2583F583E04401F0909246E054EFF0E519248C
:2064000034F582E43518F583E0640260030265167856E225E0241CF582E434CBF583E0FE5D
:20642000A3E04E7003026516121FFA78BFEEF2FC08EFF2FD18E2FE08E2FF2404F582E43ED5
:20644000F5837406F07856E2FBEF2405F582E43EF583EBF07F03121FC77856E225E0241C3C
:20646000F582E434CBF583E0FEA3E0F5828E83E030E26F121FFA78BFEEF208EFF218E2FEDD
:2064800008E2FF2404F582E43EF5837403F07856E2FDEF2405F582E43EF583EDF025E02497
:2064A0001CF582E434CBF583E0FEA3E0FF2405F582E43EF583E0FD78C0E22406FB18E2340A
:2064C00000FA8B82F583EDF0EF2406F582E43EF583E08B828A83A3F0E2FC08E2FD7F06124D
:2064E0001FC7C2207856E225E0241CF582E434CBF583E0FEA3E0FFF5828E83E054F0FDBD47
:20650000700690CB3A7406F08F828E837408F0909246E054EFF090908DE0B4010C90923C51
:20652000E0B40105909241E4F09000EFE0541E600302665020310302664290B82AE05402F8
:20654000F550908949E0B40211E5192445F582E5183401F5837401F0800FE5192445F58293
:20656000E5183401F5837404F0E5192448F582E5183401F583E0541E601B7856E2FF75F09D
:20658000CAA4244EF582E5F03489F583EF2583F583E04460F0E519241DF582E43518F583B8
:2065A000E06550703BE519241EF582E43518F583E0FF90B82FE054036F6007909E1DE0208D
:2065C000E71E9000EEE06003026650C23712FB0CE519241AF582E43518F5837401F080707A
:2065E00078C3E2D39401402290CB32E0601CC2317401F2C23712FB0CE519241AF582E43593
:2066000018F583E4F07860F28046301A07909246E04408F090908DE06401703490923CE0DD
:206620006402702C9090D0E064017024909246E04480F0851982851883A3A3A3E04420F036
:20664000800E78C4E2600990B82AE030E002D22EE5192448F582E5183401F583E0FF541EE5
:2066600070030267D0EF54146026851982851883A3A37404F07856E2FF75F0CAA4244EF5BA
:2066800082E5F03489F583EF2583F583E04480F0203103026744302603026744E519245151
:2066A000F582E5183401F583E0FEA3E0FF78C3E2FD7C00EF2DF551EC3EF550E5192457F584
:2066C00082E5183401F583E0FEA3E0C39551EE9550505790908DE0B4011DE55124FFFFE56E
:2066E0005034FFFEE5192457F582E5183401F583EEF0A3EFF08013E5192457F582E518346B
:2067000001F583E550F0A3E551F0E5192448F582E5183401F583E06408600FE5192448F56D
:2067200082E5183401F5837404F090B82FE05403FFBF0310E519244AF582E5183401F583B9
:20674000E04440F0E519244AF582E5183401F583E030E62030311D851982851883A3A3A39B
:20676000E04420F0E519244AF582E5183401F583E054BFF090908DE064017054E519244A53
:20678000F582E5183401F583E0FF30E7237844E2B4101DE519244AF582E5183401F583EFC4
:2067A000547FF0851982851883A3A3A3E054DFF020311D851982851883A3A3A3E0542F7080
:2067C0000FE519245CF582E5183401F5837401F078C3E2D39401404B301A0D9090D0E0B4BB
:2067E000010690CB2EE0700330393812FB0CE519241AF582E43518F583E4F07860E204FF0F
:2068000078C3E2FEC3EF9E7860F278C37401F2C237301A0FE5192445F582E5183401F583C7
:20682000E004F0303914C239908949E064027003026B4990BA2B7402F022201D1490BE0B94
:20684000E0FFE519242CF582E43518F583EFF0803D90908DE064017035E51924C2F582E578
:20686000183401F583E030E525E519242CF582E43518F583E0FF90BE2BE0C39FD39450403A
:206880000D851982851883A3A3A3E04420F090908DE06401703820312490923CE0601E9033
:2068A0009242E020E6179090CFE0C39402500EE5192445F582E5183401F583E4F078C3E208
:2068C000D394014003026A44128595026A44129B4AE519244AF582E5183401F583E0FF30EE
:2068E000E7237844E2B4101DE519244AF582E5183401F583EF547FF0851982851883A3A34A
:20690000A3E054DFF09000EFE0541E7003026A2178C2E27003026A2190B82FE05403FFBF78
