:020000040000FA
:10298C00FF00210200000000FF1F350000000000C6
:10299C00FFAFE50000000000FFD569010100000059
:1029AC00FFB5EC0102000000FFF12E010000000059
:1029BC00FF55290101000000FF1661010000000015
:1029CC00FF7FE90202000000FF5E08020300000026
:1029DC00FF70410204000000FF861E02030000008D
:1029EC00FF88720203000000FF96B502030000008E
:1029FC00FFCA470205000000FF0021020000000092
:0100190022C4
:01001A0022C3
:01001E0022BF
:01001F0022BE
:0100200022BD
:0100210022BC
:0817DD008F438D448A458B46C1
:1017E500E54645457003021950904D69E07002A326
:0317F500E070237E
:1017F8001222A7904AF1EEF0A3EFF0904AF1E0FC34
:10180800A3E0FD2404F582E43CF5837401F07F072E
:0318180012227425
:10181B00AB47AD44AF43120E0D904D69E0FFA3E013
:10182B00904AF3CFF0A3EFF0E4A3F0A3F0904AF3C8
:10183B00E0FEA3E0FF4E60458F828E83A3A3E0FE04
:10184B00A3E0FFC39546EE95455032904AF3E0FC7A
:10185B00A3E0FDC3E5469FF546E5459EF545A3ECA4
:10186B00F0A3EDF0904AF3E0FEA3E0F5828E83E067
:10187B00FFA3E0904AF3CFF0A3EFF080B0904DDBE5
:10188B00E0FEA3E0FFF5828E83A3A3E545F0A3E57D
:10189B0046F0EF2404F582E43EF583E547F0EF24B0
:1018AB0005F582E43EF583E543F0EF2406F582E48B
:1018BB003EF583E544F0904AF5E0FEA3E0FF4E7061
:1018CB0011904DDBE0FDA3E0904D69CDF0A3EDF061
:1018DB008010904DDBE0FDA3E08F828E83CDF0A3D3
:1018EB00EDF0904DDBE0FEA3E0FFF5828E83E0FD93
:1018FB00A3E0904AF5CDF0A3EDF0904AF3E0FCA302
:10190B00E0FD8F828E83ECF0A3EDF0F5828C83A348
:10191B00A3C083C082C3A3E09546FF0582D5820294
:10192B0015831582E09545D082D083F0A3EFF0901C
:10193B004AF5E0FEA3E0FF904DDBEEF0A3EFF04E97
:05194B0070031233FFE0
:011950002274
:040E0D00AA07A90582
:100E1100904D69E0FDA3E0904B5ECDF0A3EDF0E4D1
:100E2100A3F0A3F0904B5EE0FCA3E0FD4C70030245
:100E31000F9CED2404F582E43CF583E06B60030232
:100E41000F7B904B5EE0A3E02406F582E43CF58342
:100E5100E0696003020F7BED2405F582E43CF58334
:100E6100E06A6007EAF46003020F5A904B5EE0FC0F
:100E7100A3E0FDF5828C83E0F8A3E0F58288834549
:100E810083601F8D828C83A3A3E0FEA3E0FF8D828C
:100E91008C83E0FCA3E0F5828C83A3A3EE8FF01298
:100EA10004A8904B60E07002A3E0704D904B5EE0AF
:100EB100FEA3E0FFF5828E83E0FDA3E0904D69CDB6
:100EC100F0A3EDF0904DDBE0FDA3E08F828E83CDAA
:100ED100F0A3EDF0904B5EE0FFA3E0904DDBCFF08F
:100EE100A3EFF0904D69E0FFA3E0904B5ECFF0A33C
:100EF100EFF0E4A3F0A3F08058904B5EE0FEA3E096
:100F0100F5828E83E0FEA3E0FF904B60E0FCA3E05E
:100F1100F5828C83EEF0A3EFF0904DDBE0FEA3E0D1
:100F2100FF904B5EE0FCA3E0FDF5828C83EEF0A325
:100F3100EFF0904DDBECF0A3EDF0904B60E0FEA301
:100F4100E0F5828E83E0FFA3E0904B5ECFF0A3EF4C
:100F5100F0EAF47003020E2522904B5EE0FEA3E05E
:100F6100FFA3EEF0A3EFF0F5828E83E0FFA3E09004
:100F71004B5ECFF0A3EFF0020E25904B5EE0FEA397
:100F8100E0FFA3EEF0A3EFF0F5828E83E0FFA3E094
:0B0F9100904B5ECFF0A3EFF0020E25A6
:010F9C002232
:101661008E338F348F828E83E5822404F582E435B4
:1016710083F583E024FE601F14700302177A14704F
:10168100030217B0240360030217DC7B007A04E431
:07169100FD7F0212231E225F
:10169800904D69E0FEA3E0FF4E70030217648F824D
:1016A8008E83A3A374FFF5F01204A8904D69E0FEA1
:1016B800A3E0F5828E83A3A3E0FEA3E04E600302BD
:1016C80017641222A78E338F34904D69E0FEA3E091
:1016D800FF2405F582E43EF583E0FDE5342404F5B6
:1016E80082E43533F583EDF0EF2406F582E43EF528
:1016F80083E0FFE5342405F582E43533F583EFF024
:10170800904D69E0FEA3E02404F582E43EF583E011
:10171800FFAD34AC33122274904D69E0FEA3E0FFB4
:10172800F5828E83E0FCA3E08C35F536904DDBE046
:10173800FDA3E08F828E83CDF0A3EDF0904D69E09C
:10174800FFA3E0904DDBCFF0A3EFF0904D69E535B6
:10175800F0A3E536F0453560030216B3904D69E015
:101768007002A3E0606E7B007A04E4FD7F0212231E
:011778001E52
:1017790022E5342406FFE43533FAA9077B019000FA
:10178900011203CCFF9000021203CCFD900003125A
:1017990004D4FBAAF0E5342406F582E43533F58355
:1017A900E0F5471217DD22E5342406FFE43533FA64
:1017B900A9077B019000011203CCFF9000021203DC
:1017C900CCFDE5342406FBE435338B82F583E0FB5D
:0417D900120E0D22BD
:0E0F9D008F658D668A678B68E56845676054CE
:100FAB001222B8904C53EEF0FCA3EFF0FD904C5393
:100FBB00E0FEA3E0FF2404F582E43EF5837403F026
:100FCB00EF2406FFE43EFE8F82F583E569F0AA0667
:100FDB00A9077B01900001E56512043E900002E534
:100FEB006612043E900003E5678568F012050C7FDE
:040FFB000712227443
:010FFF0022CF
:062F77008F618D628B6387
:102F7D001222B8904C0BEEF0FCA3EFF0FD904C0B31
:102F8D00E0FEA3E0FF2404F582E43EF5837404F033
:102F9D00EF2406FFE43EFE8F82F583E563F0AA067B
:102FAD00A9077B01900001E56112043E900002E546
:092FBD006212043E7F0712227427
:012FC60022E8
:022B0A008F43F7
:102B0C00E5437003FEFF229037F4E0C39543F09049
:102B1C001DF3E0F544854345E544C394D05050740F
:102B2C00232544F582E4341DF583E0703B1545E51F
:102B3C00457038C3E544954304F5442423F582E4F9
:102B4C00341DAF82FEAB43AD43123964901DF3E0EC
:102B5C00B544032543F075F020E544A424F4F58234
:102B6C00E5F0341DAF82FE22854345054480A91251
:052B7C003453E4FEFFEC
:012B81002231
:102F2600EF4E604CC3EF94F4FFEE941DFEEF780570
:102F3600CEC313CE13D8F9F543C394D050327423BD
:102F46002543F582E4341DF583E0FB9037F4E02B4E
:102F5600F074232543F582E4341DAF82FEE4FD12AE
:102F66003964901DF3E0FFE543C39F5003E543F04A
:012F76002238
:10337E00EF541FD39400E49400400FEF7805CEC3B2
:10338E0013CE13D8F904F569800CEF7805CEC3136C
:0B339E00CE13D8F9F569AF691233D5E2
:0133A9002201
:1028FE0078A7E6FE08E6FFF5828E83A3A3A3E0FC8D
:10290E00A3E0FD78BDECF208EDF2C2AF8F828E83AC
:10291E007405F078A7E6FE08E68E832408F582E4B7
:10292E003583F583E0FEA3E018A60608F6D2AFEDD8
:03293E004C7039A1
:102941001222A778BBEEF208EFF22404F582E43EEE
:10295100F5837403F0EF2405F582E43EF5837401F9
:10296100F018E2FC08E2FD7F0E1222747E907F00D7
:0929710078BD7490F2087400F2C4
:10297A00C2AF90D8DBE004F0D2AF78BDE2FE08E245
:01298A00FF4D
:01298B002229
:1034A7007814E2FE08E2FF8E2FF530452F60158F66
:1034B700828E83E0FEA3E0FF18EEF208EFF24E7073
:0834C70003123429AE2FAF30CF
:0134CF0022DA
:1034D0007810E2FE08E2FF8E2FF530452F60158F41
:1034E000828E83E0FEA3E0FF18EEF208EFF24E704A
:0834F00003123429AE2FAF30A6
:0134F80022B1
:1034F9007812E2FE08E2FF8E2FF530452F60158F16
:10350900828E83E0FEA3E0FF18EEF208EFF24E7020
:0835190003123429AE2FAF307C
:013521002287
:103522007816E2FE08E2FF8E2FF530452F60158FE8
:10353200828E83E0FEA3E0FF18EEF208EFF24E70F7
:0835420003123429AE2FAF3053
:01354A00225E
:102ECC00300A1B782FE56AF27825E2FE08E2F582DB
:102EDC008E83E0FFA3E07829CFF208EFF2223009CD
:102EEC001B781BE56BF2782CE2FE08E2F5828E83F0
:102EFC00E0FFA3E07819CFF208EFF22230081A783D
:102F0C0022E56DF2781CE2FE08E2F5828E83E0FF8A
:0A2F1C00A3E07820CFF208EFF222C4
:102CDB008F828E83A3A3E024FE60201460331460E4
:102CEB0046240370577816E2FD08E28F828E83CD5F
:102CFB00F0A3EDF018EEF208EFF2227812E2FD08E5
:102D0B00E28F828E83CDF0A3EDF018EEF208EFF296
:102D1B00227810E2FD08E28F828E83CDF0A3EDF0D6
:102D2B0018EEF208EFF2227814E2FD08E28F828EA1
:0D2D3B0083CDF0A3EDF018EEF208EFF222C8
:043134008E2F8F301B
:103138008F828E83E0FEA3E0FF4E700D853082857E
:103148002F83ECF0A3EDF0801B8F828E83E0FAA32F
:10315800E0FB4A6006AE02AF0380EE8F828E83ECFE
:0C316800F0A3EDF08D828C83E4F0A3F066
:013174002238
:1035EA008F828E83E0FCA3E0FDFBAA044A60118D62
:1035FA00828C83E0FDA3E08F828E83CDF0A3EDF071
:04360A00AE02AF035A
:01360E002299
:083AB90000014343C7C7C7C762
:0A399800E4F56CF56AF56BF56D229D
:10216A00C2AFE56C700302226B903AB993F5213045
:10217A000A4C7825E2FE08E2FFF5828E83A3A3A328
:10218A00E0782BF2E4782FF2D2AF782BE2FD3333EA
:10219A003354F8FD90299093F5A5748C2DF582E4BB
:1021AA003429F583E493740193FA740293F5828ACD
:1021BA00831208B6E4F5A5C2AF1222EB80A4300957
:1021CA004D782CE2FE08E2FFF5828E83A3A3A3E0FA
:1021DA00782BF2E4781BF2D2AF782BE2FD3333335B
:1021EA0054F8FD90299093F5A5748C2DF582E4346A
:1021FA0029F583E493740193FA740293F5828A832E
:10220A001208B6E4F5A5C2AF1222FC02216C20081E
:10221A000302216C781CE2FE08E2FFF5828E83A39A
:10222A00A3A3E0782BF2E47822F2D2AF782BE2FD76
:10223A0033333354F8FD90299093F5A5748C2DF51A
:10224A0082E43429F583E493740193FA740293F5D2
:10225A00828A831208B6E4F5A5C2AF12230D0221C1
:0A226A006CE4782BF2F521D2AF22CC
:10262300C2AF782BE27818F27824E521F2E56CD377
:10263300940150030226EC7E00E56C54FE24B9F5A8
:1026430082EE343AF583E493F521300A4C7825E29F
:10265300FE08E2FFF5828E83A3A3A3E0782BF2E4C6
:10266300782FF2D2AF782BE2FD33333354F8FD9059
:10267300299093F5A5748C2DF582E43429F583E430
:1026830093740193FA740293F5828A831208B6E471
:10269300F5A5C2AF1222EB8094300991782CE2FEAB
:1026A30008E2FFF5828E83A3A3A3E0782BF2E478FC
:1026B3001BF2D2AF782BE2FD33333354F8FD90296C
:1026C3009093F5A5748C2DF582E43429F583E49376
:1026D300740193FA740293F5828A831208B6E4F5BF
:1026E300A5C2AF1222FC0226307818E2782BF278CA
:0726F30024E2F521D2AF2221
:102C6A00C2AF782BE27823F2782EE521F2E56CD315
:102C7A009403404F7521C77825E2FE08E2FFF582EA
:102C8A008E83A3A3A3E0782BF2E4782FF2D2AF7855
:102C9A002BE2FD33333354F8FD90299093F5A57454
:102CAA008C2DF582E43429F583E493740193FA7444
:102CBA000293F5828A831208B6E4F5A5C2AF1222FE
:102CCA00EB80AA7823E2782BF2782EE2F521D2AFB4
:012CDA0022D7
:1031E900D56A03536CFB782FE270197825E2FE0843
:1031F900E2FFF5828E83E0FDA3E07829CDF208EDA8
:10320900F2122CDBE4782FF27829E2FF08E2782524
:06321900CFF208EFF222E3
:10321F00D56B03536CFD781BE27019782CE2FE0816
:10322F00E2FFF5828E83E0FDA3E07819CDF208ED81
:10323F00F2122CDBE4781BF27819E2FF08E2782C0B
:06324F00CFF208EFF222AD
:10325500D56D03536CFE7822E27019781CE2FE08E6
:10326500E2FFF5828E83E0FDA3E07820CDF208ED44
:10327500F2122CDBE47822F27820E2FF08E2781CD7
:06328500CFF208EFF22277
:101CED008F2F8D308A318B32E53245317003021ED4
:101CFD0010782BE2FBAD30AF2F121A8E7839E2FE41
:101D0D0008E28E6EF56FE4F570F5717835E2FE0838
:101D1D00E22532F532EE3531F531E56F456E60363F
:101D2D00856F82856E83A3A3E0FEA3E0FFC395328A
:101D3D00EE95315021C3E5329FF532E5319EF531F7
:101D4D00856E70856F71856F82856E83E0FEA3E071
:101D5D008E6EF56F80C47833E2FE08E2FFF5828E59
:101D6D0083A3A3E531F0A3E532F0782BE2FDEF2458
:101D7D0004F582E43EF583EDF07833E2FE08E2FFF0
:101D8D002405F582E43EF583E52FF0EF2406F58278
:101D9D00E43EF583E530F0E571457070097839EE74
:101DAD00F208EFF2800B857182857083EEF0A3EF60
:101DBD00F07833E2FE08E2FFF5828E83E0FCA3E0CB
:101DCD008C70F5718F828E83E56EF0A3E56FF0F563
:101DDD0082856E83A3A3C083C082C3A3E09532FF27
:101DED000582D5820215831582E09531D082D0838C
:101DFD00F0A3EFF018E570F208E571F2457070038D
:041E0D001233FF226B
:101A8E00AA07A9057839E2FC08E28C6EF56FE4F539
:101A9E0070F571E56F456E7003021BBEE56F240491
:101AAE00F582E4356EF583E06B6003021BA7E56FEC
:101ABE002406F582E4356EF583E0696003021BA708
:101ACE00E56F2405F582E4356EF583E06A6007EA7A
:101ADE00F46003021B90856F82856E83E0FCA3E0A9
:101AEE00FD4C6019856E83856F82A3A3E0FEA3E093
:101AFE00FF8D828C83A3A3EE8FF01204A8E57145AF
:101B0E0070703B856F82856E83E0FFA3E07839CFDE
:101B1E00F208EFF27833E2FF08E2856F82856E837A
:101B2E00CFF0A3EFF018E56EF208E56FF27839E228
:101B3E00FE08E28E6EF56FE4F570F571803C856FF0
:101B4E0082856E83E0FFA3E0857182857083CFF07E
:101B5E00A3EFF07833E2FF08E2856F82856E83CFC4
:101B6E00F0A3EFF018E56EF208E56FF2857182854D
:101B7E007083E0FEA3E08E6EF56FEAF47003021A36
:101B8E00A122856E70856F71856F82856E83E0FEF2
:101B9E00A3E08E6EF56F021AA1856E70856F71854A
:101BAE006F82856E83E0FEA3E08E6EF56F021AA142
:011BBE002204
:102A8C007836E22FF218E23EF27832E2706F783943
:102A9C00E2FE08E2FF4E605F8F828E83A3A3E0FE0E
:102AAC00A3E0FF7835E2FC08E2FDD3EF9DEE9C50ED
:102ABC001108E2FC08E2FD7F0112237378327401E5
:102ACC00F2227839E2FE08E2F5828E83A3A3C0835A
:102ADC00C0827835E2FE08E2FFC3A3E09FFF0582C7
:102AEC00D5820215831582E09ED082D083F0A3EFAD
:0E2AFC00F0E418F208F222E47835F208F22233
:041F35008E4A8F4BF6
:101F39008F828E83E5822404F582E43583F583E07C
:101F490060030220577839E2FE08E2F5828E83A306
:101F5900A3E0FEA3E0FF7835E2FC08E2FDD3EF9DA4
:101F6900EE9C40030220181222A78E4A8F4B783923
:101F7900E2FE08E2FF2405F582E43EF583E0FDE593
:101F89004B2404F582E4354AF583EDF0EF2406F598
:101F990082E43EF583E0FFE54B2405F582E4354A0A
:101FA900F583EFF018E2FE08E22404F582E43EF539
:101FB90083E0FFAD4BAC4A1222747839E2FE08E2A5
:101FC900FFF5828E83A3A3E0FCA3E0FDC37836E28C
:101FD9009DF218E29CF28F828E83E0FEA3E0FF78E7
:101FE90033E2FC08E2FD7839E2FA08E2FBF5828A7D
:101FF90083ECF0A3EDF07833EAF208EBF27839EEEE
:10200900F208EFF24E6003021F4E7835F208F278BB
:1020190035E2FE08E2FF4E602E7839E2FC08E2F56F
:10202900828C83A3A3C083C082C3A3E09FFF0582E0
:10203900D5820215831582E09ED082D083F0A3EF6A
:0E204900F0E47835F208F2E47832F2122285E3
:012057002266
:102373008D828C83A3A3A3EFF033333354F89029D6
:102383008F93146054147003022423240260030205
:102393002469E56A70107825ECF208EDF27827ECF1
:1023A300F208EDF280257827E2FE08E2F5828E83BB
:1023B300ECF0A3EDF018ECF208EDF2782FE2B401A3
:1023C3000A7402F27829ECF208EDF2056A436C0410
:1023D3008D828C83E4F0A3F022E56B7010782CECF3
:1023E300F208EDF27830ECF208EDF280257830E275
:1023F300FE08E2F5828E83ECF0A3EDF018ECF20810
:10240300EDF2781BE2B4010A7402F27819ECF208D7
:10241300EDF2056B436C028D828C83E4F0A3F02212
:10242300E56D7010781CECF208EDF2781EECF20802
:10243300EDF28025781EE2FE08E2F5828E83ECF051
:10244300A3EDF018ECF208EDF27822E2B4010A747D
:1024530002F27820ECF208EDF2056D436C018D82F7
:072463008C83E4F0A3F022DA
:10387300E4901DF3F0FF7FD0901D23E4F0A3DFFC61
:063883009037F474D0F050
:01388900221C
:10195100781474C4F208745CF2E4FF75F00AEFA421
:101961002466F582E5F034C4AD82FC75F00AEFA47B
:10197100245CF582E5F034C4F583ECF0A3EDF07559
:10198100F00AEFA4245EF582E5F034C4F583740413
:10199100F00FBF3FC6E490C6D2F0A3F0A37404F0E9
:1019A100781074C0F2087400F2E4FF75F00EEFA431
:1019B100240EF582E5F034C0AD82FC75F00EEFA483
:1019C1002400F582E5F034C0F583ECF0A3EDF07569
:1019D100F00EEFA42402F582E5F034C0F583740320
:1019E100F00FBF3FC6E490C372F0A3F0A37403F0FD
:1019F100781274C3F2087480F2E4FFEF75F016A454
:101A01002496F582E434C3AD82FCEF75F016A4246C
:101A110080F582E434C3F583ECF0A3EDF0EF75F0CB
:101A210016A42482F582E434C3F5837402F00FBF57
:101A310009C9E490C446F0A3F0A37402F0781674C7
:101A4100C6F20874DCF2E4FF75F046EFA42422F537
:101A510082E5F034C7AD82FC75F046EFA424DCF5D5
:101A610082E5F034C6F583ECF0A3EDF075F046EFB6
:101A7100A424DEF582E5F034C6F5837401F00FBFCE
:0C1A810007C6E490C8C6F0A3F0A304F070
:011A8D002236
:102E7100E4FFEF75F007A42415F582E434CEAD82AA
:102E8100FCEF75F007A4240EF582E434CEF583EC53
:102E9100F0A3EDF00FBF13DAE490CE93F0A3F07836
:102EA1003374CEF208740EF2E47839F208F2783213
:102EB100F27835F208F21222A77837EEF208EFF233
:0A2EC1002404F582E43EF583E4F0FA
:012ECB0022E4
:102FC700E4904B92F0904B92E0FF75F007A42472C7
:102FD700F582E4344DAD82FCEF75F007A4246BF560
:102FE70082E4344DF583ECF0A3EDF0904B92E004CE
:052FF700F0E0B40FD072
:102FFC00E4904DD4F0A3F0904DDB744DF0A3746BC2
:09300C00F0E4904D69F0A3F022FC
:1033D500D20E122B0AC20E22D20E122F26C20E2296
:1033E500D20E12CF91C20E220238C60238D602364C
:0A33F5000F0237010238E60238F635
:1033FF0090DCD47402F0A3E5A5F0A37480F0AF8144
:10340F00A807E6A3F0A37414F0E58114F8E6A3F07F
:0A341F007CDC7DD07F0412227422B1
:1034290090DCD47402F0A3E5A5F0A37480F0AF8119
:10343900A807E6A3F0A37415F0E58114F8E6A3F054
:0A3449007CDC7DD07F041222742287
:1034530090DCD47402F0A3E5A5F0A37480F0AF81EF
:10346300A807E6A3F0A37417F0E58114F8E6A3F028
:0A3473007CDC7DD07F04122274225D
:1000360090DCD47402F0A3E5A5F0A37480F0AF8140
:10004600A807E6A3F0A37416F0E58114F8E6A3F07A
:0D0056007CDC7DD07F04122274E4FEFF22CA
:1037B100E51E2425F582E4351DF58322900422754A
:0937C100F003E55D1207E4E022CB
:100BBB00E58E20E30690B8337401F090B825E0542D
:050BCB00FEF053A2F34F
:100BD000E4F559F55A000000000000000000000094
:100BE0000000055AE55A70020559B498E8E559B471
:020BF00006E31A
:100BF2005387F790B83AE054DFF0D2A4D2A053A1C1
:100C0200EE00000000C205D200781FE6FF30E602C7
:100C1200800EEF30E704C200801120A40920A00654
:100C2200D205C200800520A002C20090A4F7748100
:100C3200F01233ED781FE620E32DE4904FEEF0A39F
:100C4200F07E4F7FEE7B02FA7DEE7C011233F39051
:100C52004FEEE0B4AA0BA3E0B455067DFF7FFF8000
:100C62000E7D017F048008904ED6E0FFA3E0FD12C6
:100C720033F030050BE490BD03F075A50112AD0A07
:100C820012146C75A897E490B203F012216A300036
:100C92002E75A50512A16A904EB7E06006E4F5A58F
:100CA20012FC10904EE5E06006E4F5A512CA17901A
:100CB2004ECFE030E30312A5DEE4F5A512397EE45F
:080CC200F5A512F174E4F5A59B
:100CCA0090BE2AE0FF904DFEE06F7003020DA790E0
:100CDA00CC04E0FF64016008EF64026003020D9F28
:100CEA0090BE2AE078BAF290BE29E018F2A3E0FF9B
:100CFA0008E2B507EBE22401F218E23400F21237F7
:070D0A00B1E07003020D9F30
:100D1100C2AFE51E242A1237B5E0FFA3E078B5CFB4
:100D2100F208EFF2E51E24281237B5E0FFA3E00830
:100D3100CFF208EFF2D2AF78B5E2FE08E2FFC37856
:100D4100BAE29F79B6F318E29E19F378B7E2FE088A
:100D5100E2FFD378B6E29F18E29E4042E4251EF5F9
:100D610082E51D3401F5837408F01237B1E4F01205
:100D710022A7904B8FEEF0A3EFF02404F582E43E1E
:100D8100F5837404F0EF2405F582E43EF583E51C58
:0E0D9100F0904B8FE0FCA3E0FD7F0612227471
:080D9F0090BE2AE0904DFEF029
:100DA700904E1EE030E00975A50112E7ACE4F5A509
:100DB700E490BD0CF0E56C6003020C8DF5A5904E38
:100DC700B5E030E00312FAAFE4F5A5904E46E054E3
:030DD7000F601496
:100DDA00E4F5A512DD32904B91EFF0E4F5A5EF6052
:040DEA0003020C8D67
:100DEE00904E46E054F07003020C8DE56C600302E9
:0F0DFE000C8DE58754FC4401F5870000020C8D35
:10146C00E4F5A8781FE620E352E4904FEEF0A3F0E9
:10147C00904E1BF07E4E7F007BF07A01FDFC123308
:10148C00F37ED37FF47B207A017DE07C021233F370
:10149C00904E1CE0904DFFF0904FEEE064AA70046B
:1014AC00A3E06455601575A5017E4E7F007C407DE0
:1014BC00007BF07A01123634E4F5A5904E2BE0B4A3
:1014CC0001035387F790CBED7406F0E4F5A5128772
:1014DC00DEEF600675A50112AD0AE4F5A520000B40
:1014EC00904E217403F0758E018006904E20E0F52D
:1014FC008E12382B121951123998122E71122FC7C5
:10150C00123873E4F5A512E9E0E4F5A5F5A5123956
:10151C00CAE4F5A5781FE630E20D1216358F82F578
:10152C00837410F0121655781FE6543060101216A2
:10153C00358F82F5837410F0781FE6121655781FDC
:10154C00E630E3441222A78E5B8F5C8F828E83E59C
:10155C00822404F582E43583F5837402F0EF2406CB
:10156C00FFE43EFE8F82F583740EF0A3E4F08F82CD
:10157C008E83A3A37403F08F828E83A3A3A3F0ADF9
:10158C005CAC5B7F04122274300014123A2E123AB7
:10159C001A123A241239DE123A101239E8800678FF
:1015AC001FE654C0F61239B61239A21239C01239DC
:1015BC00AC12FBFCC288C28AE490BD13F090BD0350
:1015CC00F090BD1B740FF090BD0A743DF0A374092C
:1015DC00F090BD037401F0E490BD0CF075A5011200
:0515EC00E799E4F5A5FC
:1015F1007E047F227B08FA7DD87C021233F39004AB
:1016010028E0FEA3E064557003EE64AA7025F55D41
:101611001237BDFEA3E04E60139004241237C0FFC1
:101621001237BDFCA3E0F5828C83EFF0055DE55D2B
:03163100B402DD23
:10163400221222A78E5B8F5C8F828E83E582240424
:10164400F582E43583F5837402F0EF2406FFE43E6B
:0D16540022A3F0AD5CAC5B7F041222742277
:10388A0090D517E02499F582E434D5F583EFF090CA
:06389A00D517E004F02246
:03000000021BBF21
:03003300021F2584
:03000300021E11C9
:03000B00021F26AB
:03001300021E5278
:03001B00021F348D
:03002300021EFBBF
:03002B00021F337E
:03006300021F3445
:101E1100C0D0C0E030361153A4DF90B203E0547F4C
:101E2100F090B207E020E7F9C0F0C092C083C08211
:101E3100C085C08475D008759200121259300F41C7
:101E4100D084D085D082D083D092D0F0D0E0D0D0D1
:101E510032C0D0C0E0C0F0C092C083C082C085C093
:101E61008475D008759200123936200503300E11A1
:101E7100D084D085D082D083D092D0F0D0E0D0D0A1
:011E8100322E
:101E820075D000C0A5C000C001C002C003C004C01C
:101E920005C006C00775A500200E2F74A6C0E07409
:101EA2001EC0E032122623D007D006D005D004D0BF
:101EB20003D002D001D000D0A5D084D085D082D06A
:101EC20083D092D0F0D0E0D0D02274D5C0E0741E7E
:101ED200C0E032122C6AD007D006D005D004D0035D
:101EE200D002D001D000D0A5D084D085D082D083BA
:091EF200D092D0F0D0E0D0D02253
:101EFB00C0D0C0E0C0F0C092C083C082C085C08497
:101F0B0075D008759200122A0CD084D085D082D05F
:0A1F1B0083D092D0F0D0E0D0D03295
:101F250032C000C0E0C0D0D0D0D0E0D000323232D4
:10227400748055A87003022373C2AF122373D2AFC4
:1022840022748055A87003022ECCC2AF122ECCD279
:10229400AF22748055A87003022CDBC2AF122CDB72
:1022A400D2AF22748055A870030234A7C2AF12348F
:1022B400A7D2AF22748055A870030234D0C2AF12E3
:1022C40034D0D2AF22748055A870030234F9C2AF5F
:1022D4001234F9D2AF22748055A87003023522C299
:1022E400AF123522D2AF22748055A870030231E9AF
:1022F400C2AF1231E9D2AF22748055A87003023202
:102304001FC2AF12321FD2AF22748055A8700302CD
:102314003255C2AF123255D2AF22748055A8700321
:10232400021CEDC2AF121CEDD2AF22748055A8700E
:1023340003021A8EC2AF121A8ED2AF22748055A82D
:102344007003022A8CC2AF122A8CD2AF2274805539
:10235400A87003023134C2AF123134D2AF22748078
:0F23640055A870030235EAC2AF1235EAD2AF2294
:03000E00021BF0E2
:03001600021BBF0B
:093AB000740EC0E07400C0E032A5
:101BBF0043A110D2A4C2A490BD147401F0E4F000AC
:101BCF0000000000000000000090BF00E4F090A4AF
:101BDF00F4E04480F090BD10E05407781FF67520B4
:101BEF000043A110D2A4C2A4D2A4C2A490BF00E407
:101BFF00F090BD18740FF090BD007401F090BF000D
:101C0F007403F075A50075D00078FF79DFE4F6183E
:101C1F00D9FC781EF6D8FD75A4045387DFC2A053F4
:101C2F00A3FE75A70078007F00E4F208DFFC9001A7
:101C3F00007F007E4DE4F0A3DFFCDEFA90C0007F52
:101C4F00007E40E4F0A3DFFCDEFA75740090000024
:0E1C5F0078107455F0A3D8FC7581FF021CA804
:1036C000904E00E090B803F0904E01E090B802F008
:1036D000904E02E090B801F0904E03E090B800F0F8
:0136E00022C7
:103FC000C2AF90BD03E4F00000438E08F80000008B
:033FD00002000EDE
:103FE000C2AF90BD03E4F00000538EF7F80000006C
:033FF00002000EBE
:1037CA008E858F848C838D82EB600DE493A3759232
:0937DA0001F0A3759200DBF3225B
:103634008E858F848C838D82EA7003EB6015EB603A
:1036440003EA04FAE493A3759201F0A3759200DBF4
:04365400F3DAF12292
:0D3964008E838F82EB6005EDF0A3DBFB226C
:1037E3008E838F82EA7003EB600DEB6003EA04FAC9
:0837F300EDF0A3DBFBDAF92283
:1036E1008E858F848C838D82AF031BEF6010E0A3E6
:1036F100FF759201E0A37592006F60ECD322C322A3
:1037FB008E858F848C838D82EB600CE0A375920198
:08380B00F0A3759200DBF4222A
:10347D008E858F848C838D82EB601EE0FFA3E0FE32
:10348D00A3E0FDA3E0A3759201F0A3EDF0A3EEF090
:0A349D00A3EFF0A3759200DBE2221A
:103658008E858F848C838D82EA7003EB6014EB6017
:1036680003EA04FAE0A3759201F0A3759200DBF473
:03367800DAF22261
:103721008E858F848C838D82EB60121BE493A3FFC3
:0F373100759201E0A37592006F60EDD322C32261
:1033AA00D310AF01C3C0D0EFF5E9EDF5EDEEF5EAC4
:1033BA00ECF5EE7402140070FC00E5E9FFE5EAFEA4
:0B33CA00E5EBFDE5ECFCD0D092AF225B
:10354B00D310AF01C3C0D0EFF5E9EEF5EAEDF5ED21
:10355B00ECF5EE7402140070FCE5E9FFE5EAFEE51C
:08356B00EDE5EED0D092AF2295
:10328B00D310AF01C3C0D0EDF5E9ECF5EAEFF5EBE8
:10329B00EEF5ECEBF5EDEAF5EE7404140070FCE5DD
:1032AB00E9FFE5EAFEE5EBFDE5ECFCE5EDE5EED04F
:0432BB00D092AF22DC
:10357300D310AF01C3C0D0EFF5E9EEF5EAEDF5EDF9
:10358300ECF5EE7402140070FCE5E9E5EAE5EDFF05
:08359300E5EEFED0D092AF225C
:1032F200D310AF01C3C0D0EDF5E9ECF5EAEFF5EB81
:10330200EEF5ECEBF5EDEAF5EE7404140070FCE575
:10331200E9E5EAE5EBE5ECE5EDFFE5EEFED0D0927E
:02332200AF22D8
:102B82008E858F848C838D82EB22E0FFA3E0FEA3EF
:102B9200E0FDA3E0FCA375920122122B82601F12BA
:102BA2002B8CF0A3DB028016EDF0A3DB02800FEE8C
:102BB200F0A3DB028008EFF0A3759200DBE17592CF
:102BC2000022122B82602B122B8CEBC39404400246
:102BD200ECF0A3EBC394034002EDF0A3EBC3940229
:102BE2004002EEF0A3EFF0A3759200EBC39404FB56
:062BF20050D5759200228F
:10317500F582E43583F5837401F08F828E83E582D1
:10318500222424F582E5833401F58322F582E43592
:1031950083F5832224E6F582E43EF5832278B1E6C1
:0B31A500FE08E622789CE2FE08E22211
:10369E00E490DC2EF090DC2FF090DC30F0784DF2E0
:1036AE0008F290DC3BF090B403F090BC22E0547F23
:0236BE00F022F8
:10246A00C2AF90BE12E04403F0D2AF90CC08E05461
:10247A00FCF0E4F51C751DC9751E0F785DF290B865
:10248A001BE04480F090B817E04404F0E490D0BB1D
:10249A00F090D0BCF078787401F2087400F2E47815
:1024AA0055F2785B7404F2E4FFEF75F009A4247E18
:1024BA00F582E434CDF583E4F0EF75F009A424EC59
:1024CA00F582E434CCF583E4F00FBF10DC788AE2BD
:1024DA00541DF2788BE254A0F208E4F22000097548
:1024EA00A50112C966E4F5A5E490CCD9F090D0A371
:1024FA00F0C22190BC23E054FDF07E147F2A90B6EE
:10250A000AEEF0A3EFF0783FEEF208EFF27E1C7FBE
:10251A005D90D8D4EEF0A3EFF090B60EEEF0A3EFF4
:10252A00F0E490D8DBF090B807F090B805F090D0BE
:10253A0091F090D090F090D0A5F090D0A4F0C2196C
:01254A00226E
:041013008F438D4436
:10101700E4789EF208E5A5F275F06FEF90C90F121C
:1010270007E4EF2583AF82FE78B1F608EFF68E83EB
:10103700E0700FE54464026009E54464046003025C
:101047001258E544640B6013E5446404600D75A50C
:1010570001AF4312D72FE4F5A5C223E5446404602A
:101067000B75A501AF4312D444E4F5A51231A2F5DF
:10107700828E83E030E50B75A501AF43129D16E420
:10108700F5A57B06AD437FFF120E0D90DC2EE0B475
:10109700010312369EE543D39400401C1231A2FF90
:1010A7008E83123186E0601012317F123186E4F0B0
:1010B70090D9B3E0600214F0E54375F00AA424BFA9
:1010C700F582E434D0AF82FE7B0AE4FD1239641264
:1010D70031A28E832465123188E05406604390CD97
:1010E7007CE07002A3E06039E49046AEF09046AF32
:1010F700F0A3F09046B2F09046B1F01222A7789C88
:10110700EEF208EFF2240412319B7419F0EF240574
:1011170012319BE543F018E2FC08E2FD7F0812223A
:10112700741231A2FF7B6F7A01E4FD1237E31231AB
:10113700A2FF8E83241C123191740412317E241F66
:10114700123191E4F0A3742812317E240A123191EE
:10115700740812317E241512317524131231752447
:101167001412317524171231752426123191747DAA
:10117700F0A3E412317E2428123191E4F0A374FA2B
:10118700F0904E36E014FF18E6FC08E6FD8C832449
:1011970022123188EFF08D828C83E5822419123177
:1011A7009174FFF090DB7EE0FF8D828C83E58224D3
:1011B70017123188EFF0785BE2B543037404F2E568
:1011C70043C394015034C2AF90CC08E054FEF0E51D
:1011D70044640B600790CC04E054FCF0D2AF90D984
:1011E700B6E4F090CBFE1207B300000000E490CB0A
:1011F700FDF0788BE254EFF2803090CC08E054FD9C
:10120700F0E544640B600BE020E00790CC04E05469
:10121700FCF090D9B3E0701290D9A2F090BC22E014
:10122700547FF0C221E490D9F7F090CE9DE0B5430A
:10123700037402F090CC04E0700812246A789E745C
:1012470001F2789EE260057F01123015789FE2F582
:01125700A5F1
:011258002273
:022058008F43B4
:10205A00E4789EF208E5A5F2904E2BE0B4011C90BC
:10206A004FCCE0FFB45006D2B3C2B48008EFB451EB
:10207A0004C2B3D2B490B8397415F075F0F3E543DD
:10208A009044821207E4AF82AE83789CEEF208EFA6
:10209A00F2E070030221691231A9FF24E712319B91
:1020AA00E4F0EF123199E0FF30E70590D091800E0D
:1020BA001231A9123199E0FF30E60D90D090E0FE7E
:1020CA00EFF4FFEE5FF0801C90D0A5E0FF789CE271
:1020DA00FC08E224E6F582E43CF583E0F4FEEF5ED8
:0420EA0090D0A5F0FD
:1020EE00E5434480F54475A501AF4312D72FE4F5BF
:0120FE00A53C
:1020FF0075A501AF4312D444E4F5A51231A9FF7BB6
:10210F00F37A00E4FD1237E390BF23E04440F0E49C
:10211F007870F2786DF290CC08E054F3F090CC0424
:10212F00E054F3FFF0788BE254BFF2EF70111224FA
:10213F006AC24E90B433E054FCF0789E7401F2788A
:10214F009EE2601190DB76E0700B90DD10E0600591
:0A215F007F01123015789FE2F5A50C
:012169002253
:0A39A200E4F5A512FBD0E4F5A52220
:0A39AC0075A50112E7B2E4F5A522AB
:05000600E47862F22223
:0432BF008F458D4664
:1032C3001222A7904B61EEF0A3EFF02404F582E401
:1032D3003EF583E545F0EF2405F582E43EF583E50D
:0F32E30046F0904B61E0FCA3E0FD7F02022274F5
:1035C30090BE27E0904AFCF090BE24120701904A77
:1035D300F812079B90BE27E0FF904AFCE0B507E096
:0635E300904AF8120701F6
:0135E90022BF
:023015008F45E5
:103017007F0390CC04E07003D38001C34002E4FF38
:1030270090DD10E0520790DB76E0B50703EF7028DC
:1030370090DB76EFF01222A7904B5EEEF0A3EFF055
:10304700904B5EE0FCA3E0FD2404F582E43CF583AD
:083057007445F07F051222749C
:01305F00224E
:083AC1000657200639005720CA
:0A39B60075A50212D1BDE4F5A522AB
:0231B0008F3D51
:1031B20085A53EE4F5A5E53D701275A5017E4E7F1D
:1031C200007C407D007BF07A01123634E53DB40488
:1031D2001275A5017ED37FF47C447D907B207A0119
:0631E200123634853EA503
:0131E80022C4
:1038130085A53DE4F5A57E147F2A7C407DC97BE028
:07382300FA123634853DA5C1
:01382A00227B
:0C39710085A54375A50212E2738543A5ED
:01397D002227
:0A39C00075A50112B0CDE4F5A522B3
:10377B00E5A5F075A5012275F005A42402F582E4F8
:0C378B0034DAF58322EFF0A3E0F5A5226C
:1030A90090D9FCE0123782E0703B90D9FCE0FB75C7
:1030B900F005A42405F582E434DAF583EEF0A3EFF4
:1030C900F0EB75F005A42403F582E434DAF583EC1A
:1030D900F0A3EDF0EB1237827401F090D9FCE00413
:0630E900F0E0540FF0229C
:0C397E0085A55B75A50112C03D855BA509
:01398A00221A
:0F38C600904AD712377B12D1DD904AD7E0F5A593
:0138D50022D0
:0F38D600904AD712377B12B5B6904AD7E0F5A5C6
:0138E50022C0
:0F38E600904AD812377B12A5E2904AD71237903A
:0138F50022B0
:083701008E728F73AF05AE0458
:1037090090DCF612377BAD03AC02AB73AA72129749
:073719004990DCF512379026
:013720002286
:10360F0090DCF812377B7888ECF208EDF27884EAD8
:10361F00F208EBF27886EEF208EFF212E32390DC79
:04362F00F7123790C7
:013633002274
:0F38F60090DD0C12377B1275DF90DD0CE0F5A52D
:01390500229F
:0A39CA00E4F5A512C64DE4F5A522B0
:10382B00759850758920E587547F4480F587758D91
:08383B00E6D28ED299C2982258
:0A39D40075A5011298D2E4F5A522B2
:1038A000E4F5A512F6D612A8E31275AA12DDC1E45A
:0338B000F5A52259
:10367B0090B001EFF0A3ECF0A3EDF090B005E044B7
:10368B0010F0E4904B7DF000904B7DE004F0E0B443
:02369B000AF52E
:01369D00220A
:10100000353035305F53505000000000000020574D
:03101000000305D5
:0A39DE0075A50312DF5CE4F5A522D5
:0A39E80075A50312D4F7E4F5A5223B
:0A39F20075A503129FA775A5052215
:0939FC0075A50312A5E275A505ED
:013A0500229E
:093A060075A50312BEF675A505B5
:013A0F002294
:0E39560075F06DEE1207E4EE2583F583E02296
:0A3A100075A50312E25EE4F5A5229D
:10374000E4FE90D14B123956B5070B90D14F123988
:0D375000566003AF06220EEEB401E77FFFC6
:01375D002249
:10306000904C2CEEF0A3EFF0EB4A603C90A403E010
:1030700020E1F9C2AFAF0590A406ECF0A3EFF0AFEA
:103080000390A40AEAF0A3EFF0904C2CE0FFA3E039
:1030900090A412CFF0A3EFF090A403E04402F0D28A
:0930A000AF90A403E020E1F92245
:0A3A1A0075A50312F871E4F5A5226A
:0A3A240075A504128682E4F5A522C0
:10335100A31207F08E827583001203CC6F22EEC494
:103361003354E024B1F582E43449227B017A4F7968
:0D337100C7120810E422E5A5F075A505229D
:0A3A2E0075A50512B7FAE4F5A5220C
:0A3A3800E4F5A512F4FE75A50522C1
:0A3A4200E4F5A512C14775A50522A1
:10332400E4FE12335FF583E0B50719EEC43354E0CD
:1033340024B4F582E43449F583E030E00712335FC6
:0C334400AF82FE220EEEB401D9E4FEFFC1
:01335000225A
:0F390600904C1112337712AB2D904C11E0F5A5B8
:01391500228F
:10375E0090A4B3EDF090A4B2EBF090A4B1EFF09082
:0D376E00A4B07480F090A4B0E020E7F92230
:1030EF00904BFCEEF0FAA3EFF0FBA3ECF0FEA3ED98
:0230FF00F0FFE0
:10310100A37401F0AD03AC02FB7A001233F6EF7049
:103111001C904BFCE0FEA3E0FFA3E0FAA3E0FB7DE3
:10312100017C001233F9EF7004904C00F0904C00D8
:02313100E0FFBD
:013133002279
:1038B300AB07AA06AE04AF05AC02AD037B017A00E9
:0338C3000233F3DA
:0A3A4C0075A50312B1E875A5052267
:0F391600904BF012337712BB67904BF0E0F5A5A2
:01392500227F
:0F392600904BF312337712AE90904BF3E0F5A570
:01393500226F
:0C398B0085A55F75A50512C6EA855FA53D
:01399700220D
:0A3A560075A50212FE6E75A505228B
:0A3A600075A50212FEB875A5052237
:0A3A6A0075A50212538E75A5052202
:0A3A740075A5021261AC75A50522CC
:0A3A7E0075A50212A0D275A505225D
:0A3A880075A50512C6EA75A5022215
:0A3A920075A50512AE9075A502227D
:0A3A9C0075A50512BB6775A502228F
:10286A00904C0D12336C904C0CF0904C0CE0FEC363
:10287A009408500D1233516008904C0CE004F0801B
:10288A00E9904C0CE012082528AE0028B80128C2AD
:10289A000228CC0328D60428E00528EA0628F407EB
:1028AA00000028FDED6003D38001C3928022ED6011
:1028BA0003D38001C3928522ED6003D38001C392C2
:1028CA009722ED6003D38001C392B122ED6003D356
:1028DA008001C392B222ED6003D38001C392B32276
:1028EA00ED6003D38001C392B422ED6003D380016B
:0328FA00C392B7CF
:0128FD0022B8
:102D4800904BA312336C904BA2F0904BA2E0FEC3C1
:102D58009408500D1233516008904BA2E004F080A3
:102D6800E9904BA2E01208252D8C002D90012D949E
:102D7800022D98032D9C042DA0052DA4062DA8072F
:102D880000002DAEA280801AA2858016A29780121C
:102D9800A2B1800EA2B2800AA2B38006A2B48002B9
:082DA800A2B7E433FF227F0211
:012DB0002200
:0A3AA600E4F5A512E9E075A505227C
:109C390090B60A741CF0A37470F090B60E741CF000
:109C4900A37482F0C2152254F8FFE04F90B81BF0BC
:109C5900E054874410F090B817E054074490FFE4AB
:109C690090B816F0A3EFF022F0A3EFF090BE27E032
:109C79000490BA03F02290BE2BE00490BA0BF09046
:109C8900BA2B7402F022F090BF237460F090BE23C7
:109C9900E04401F02290BE27E054FC440390BA034B
:109CA900F090BA237401F0784722E5822405F58201
:109CB900E43583F58322E090CA33FF75F06F12070C
:109CC900E4EF2583F58322F090BE23E054FCF022D3
:109CD900E025E0FFA3E0C413131354014F22E4F578
:109CE9001CF51C7EC97F0F8E1D8F1E8E1D8F1E2297
:109CF90090BE26E0F2A3E054FC08F290CCE6E0FE28
:109D0900A3E054FCFF08EEF2FE08EFF22290B61A27
:109D1900741CF0A3745EF02290CC08E04402F07544
:109D29001C01751DCA751E7E2290BA237402F0901B
:109D3900BF23E054FEF022E4F08F828E83E5822275
:109D490090B85FE0640B2278A9E625E02449F58202
:109D5900E434DBF583E0FEA3E02290BE27E054FC67
:109D690022D22F90BF23E04418F02254FC25E0FFB3
:109D7900901C6CE054074FF02290B81BE0548722E6
:109D8900E05402FF90BC23E054FD4F2290DB56E0E3
:109D990054FDF02290BF23E04401F0E054E7F022A3
:109DA9004440F090BE1AE054FEF02290DB52E004E9
:109DB900F02290BE27E00490BA0BF0227857E2FF18
:109DC90090BE27E06F2290B81BE054F82290DB6721
:109DD900E04410F0C22222E090B684F090B68EE002
:079DE9002290BE08020701F1
:1041C700E4F54F90DD0EE0F54EE4F0C222788CE284
:1041D7004401F2A220B34003024C1D90C90EE01225
:1041E700082544E40146B302488B034A2E044208DB
:1041F70005437A0642020700004BE212F625024BFE
:10420700E8D22290DB62E0540D24FB606724F8704B
:0B4217000302432E240C6003024375D9
:1042220078A4129CF978A5E26F700318E26E7044CC
:1042320078A3E624FE6003024BE8124C5F12EAAF59
:10424200129D1690B81BE090C910129C50129C75DA
:10425200E4FDFF12D7D290CA33129D89129CA97431
:1042620005F290DB62E04404F07F1A12F56390DB02
:06427200520247EAC222DD
:10427800024BE878A3E624FE601B24026003024B8D
:10428800E812DB7D129C39129D634401129C841252
:104298009D38024BE8129D4960FB90BF43E020E047
:1042A8000990DB52E0D39402404212FBA0124C5119
:1042B80090CBFE1207B30000000090DB63E0FF1212
:1042C800EDBB12F67F90CC047401F0C211129D214F
:1042D80090DB62E04408F07F1012F563D222E4908C
:1042E800DB52F090CA81E04490F0802F12DB7D12FF
:1042F8009D1612EAAF90B81BE090CBFD129C5012AD
:104308009D63440390BA03F090DB63E0FFE4FD1281
:10431800D7D290BA237401F0129DB478457405F28F
:104328007847F2024BE890DB52E0D39420400E7FAE
:104338001912F56312EE16129CE7024BE812F1FA15
:10434800129C9090DB63E090C912129CC3E0446019
:10435800F0C22275F06FEF90CA33129CC7E090D973
:10436800C8F090DB63129CBFE4F00244D9C2220279
:104378004BE8D22290DB5AE0546D24FB70030244D0
:104388000D24F8700302447B24E070030244832464
:0D439800C070030244B4246C60030244DFD3
:1043A50078A8129CF978A8E2FC08E2FDC3EF9DFF0E
:1043B500EE9CFED3EF9418EE9400504778ABE26D77
:1043C500700318E26C6003024BE878A3E624FE70E4
:1043D5002A124C1E90CCDAE0FFE4FD12D7D290CC25
:1043E500DA129CBF129D89129C8790DB5AE0440427
:1043F500F07F1D12F563E490DB52F078457408F206
:05440500024BE8C22299
:10440A00024BE878A3E6603224FE6003024BE89090
:10441A00DB52E0D39410400B7F1B12F563751C012D
:10442A00024BE8124C1EE4FDFF12D7D2129C8812EE
:0A443A009D3878457408F20244D959
:10444400129D4960FBE0640460F6E0640560F1904D
:10445400BF43E0F55020E203024BE8124C5F12FB2D
:104464004D129D634401129CA67408F2129D6AE4E5
:0444740090DB52F097
:10447800024BE8E4FF12EDBB024BE812BE1F90DBD3
:104488005A746DF090CC047402F090CC08E04401AA
:10449800129C8FC222129CE790CA33F090CBFDE0A9
:1044A80090C910F0129DB4D219024BD590DB52E09E
:1044B800D39420401A7F1C12F56312F67F129D28B0
:1044C80090CA81E044F0F0E490C90EF0024BE8C2D3
:1044D80022129DB4024BE8C222024BE8D22290DBA2
:1044E80064E05431640160030245D578A3E61460A2
:1044F8004114606214605F24036003024BE8E54ED8
:1045080064016003024BE8129C39129C7512DF6546
:10451800129D3278457401F290DD0E04F0E490B8F3
:104528001FF090B853F0C22F90BF23E054EFF00271
:104538004BE8129C96E54E64026003024BE8129C1D
:1045480039129DBB12DF65129C88784514F290DD04
:104558000E04F0024BE8129CD1E54E64047003028D
:104568004BE8129D4960FB90BF43E030E034E54ED4
:104578006402702E78A3E6B4020512FBA080031231
:10458800FB9490DD0E7404F0D22F90BF23E044100A
:10459800F078457401F290BE27E024027857F202C1
:1045A8004BE812FB4D78A3E6B4020C129C7512DF9F
:1045B80065129CAA0247CC124C4412DF6590BA2BB4
:1045C8007401F07847F290DD0EF0024BE890DB645E
:1045D800E0F9543164117052129DC56003024BE832
:1045E80090BC1BE04440F0E4783EF2129D50FF245A
:1045F8000EFDE43EFCAB0590B60AF0A3EBF0EF2409
:10460800FEFFE43E90B60E129C71E490B805F0905F
:10461800BA237402F0E9442090DB64F0AF05AE04DD
:104628007BF0E4FD123964024BE890DB64E05471DE
:044638006431705227
:10463C00F550783EE204F2E264026003024BE812A9
:10464C009D4960FB90BF43E030E01B90B85FE06495
:10465C000460F8E0640560F3000000000090BF43C4
:10466C00E030E1058000755001E550600FE4FF1269
:0F467C00E74090DB64E054CFF0024BE8129D6AF8
:10468B00024BE890DB64E0FF547164716003024BF2
:10469B00E8EF20E3047F018002E4FF12E74090DBA8
:1046AB0064E05487F0024BE8D22290DB67E0540DB4
:1046BB0024FB70030247F024F87003024886240C95
:1046CB006003024BE8129CD178A3E61460271460B8
:1046DB004414604124036003024BE8E54E6401601F
:1046EB0003024BE8129C75C21512C747129D327814
:1046FB004574038017E54E64026003024BE8129D7C
:10470B00BBC21512C747129C88784504F290DD0E88
:10471B0014F0024BE8129D4960FB90BF43E030E080
:10472B004AE54E6402704478A3E6B4020512F9D14F
:10473B00800312FBA090BE2412070190DB531207DB
:10474B009B129D9590DB617401F012D0FC129C9E24
:10475B007404F2129DCF129C5812EF23129D1690E7
:10476B00DB67E04404F07F0802488090DB5FE030B9
:10477B00E11A78A3E664036003024BE8129DD6129C
:10478B009C96E490C90EF07F07024880904445E068
:10479B0030E01A78A3E664036003024BE8129DD65F
:1047AB00129C96E490C90EF07F0702488012FB4DD5
:1047BB0078A3E6B40215129C7512C747129CAA7413
:1047CB0003F290DD0EE54EF0024BE8124C4412C79B
:1047DB004790BA2B7401F078477403F290DD0E7496
:1047EB0001F0024BE878A3E624FE60242402600368
:1047FB00024BE890DB56E04402F012D0FC129D63B2
:10480B00440190BA0BF0129C39129C887845802792
:10481B0090DB61E004F0129D4960FB90BF42E030F9
:10482B00E01B129D9512D0FC129D1612EF23129DC8
:10483B00CF129C58129C9E7404F2024BE890BF431B
:10484B00E020E003024BE8129C9012FBA012F1FA5D
:10485B0090CC047401F0C211124C51129D2190CADC
:10486B0081E044F0F0E490CBA2F0C22290DB67E051
:10487B004408F07F1012F563024BE8C222024BE8AA
:10488B00D222129CD1E04401F078457402F290DB05
:10489B005DE0FF541924F7604F24F0605F2418602B
:1048AB000302492DEF30E612129D9D90DB5EE02056
:1048BB00E603129DA9754F01806A78A3E664027026
:1048CB0063754F0112E3FC129C7F90DB5DE044406B
:1048DB00F090DB78E02401FB90DB77E03400FAE426
:1048EB00FD7F0F12231E803C90DB72E0600990DB92
:1048FB005EE04401F0802D90DB5D802090DB5EE07C
:10490B0020E4217F0C12F563C2AF90BE12E044038A
:10491B00F0D2AF788CE254FEF290DB5EE04410F004
:10492B008002C22290DB5EE0FF5407FEBE0109EF5E
:10493B004402129CD0024BE8EE64036003024A036C
:10494B00129CD1129DC56003024BE8129DCFF0E083
:10495B00547FF090B81AE054FEF0E054FDF090DB79
:10496B00A1E0602590DB72E0FDD394115008129DFD
:10497B00824418F08036EDD39479129D8250054411
:10498B0050F080284470F0802390DB72E0FDD394CC
:10499B001B5008129D824420F08011EDD394B71266
:1049AB009D8250054458F080034478F090B817E08E
:1049BB0054FC4402F0E054FBF090DB72E075F0081D
:1049CB00A4FF90B817E05407FDED4FFFE5F0129CE4
:1049DB006978477409F2901D11E0FFA3E090B61AB5
:1049EB00CF129C71E490B805F090BA2304F090DBE1
:1049FB005EE04404F0024BE890DB5EE0FD5407649C
:104A0B00076003024BE8129CD190B85BE060030295
:104A1B004BE8ED54F890DB5EF090DB5DE04410F07A
:104A2B00024BE8D22290DB5FE0FF543D24FB606A2F
:104A3B0024E87003024B87241C6003024BDEEF302B
:104A4B00E61290DB60E020E603129DA9129D9D7596
:104A5B004F01803E78A3E664027037754F0112EC6C
:104A6B0042129CD1E04401F0129C7F90DB5FE0444A
:104A7B0040F0904E06E070057B80FA800F90DB7C57
:104A8B00E02401FB90DB7BE03400FAE4FD7F0F12A6
:104A9B00231E78457406F2024BE8784AE2FDC37890
:104AAB00A3E69D5403F54D64017051129D9590BE84
:104ABB0027E0C39D1313543F0490DB61F0E0FF64C8
:104ACB00057003024B80EFD3940540147F1312F54E
:104ADB006390DB5F7480129CD0E04401F0024B804A
:104AEB00129C3990B85BE0640C60F8E0640160F3F1
:104AFB0012E37F90BE27129C82024B8090DB61E019
:024B0B006073D5
:104B0D00E58E547070057551288003E4F551E4F578
:104B1D0050E550C39551500500055080F4E54D64A6
:104B2D00036004E54D704C90BF43E030E04590B814
:104B3D005FE0640560F8000090BF43E030E2319023
:104B4D00B82BE054786410702790BE27E07858F2A7
:104B5D0090DB56E04402F012E37F12FB4D129C7580
:104B6D0090BA237401F0129D6A78457407F28003A0
:034B7D0012FBA088
:104B800078457407F2806112BE1F90BE27E054037F
:104B900078A3F690DB5FE04420F090CC08E044017D
:104BA000F090CC047402F0129CE790CBFDE090C929
:104BB00010129C8F90CA33E4F012DB7D129D634487
:104BC0000390BA0BF0783FE2FF08E290B60ACFF00C
:104BD000A3EFF0D22290C912E04490F0800AC222E2
:104BE0008006788CE254FEF2302232E490B8BBF0BA
:104BF000E54F600B904E3A129DE04440F0800990E2
:104C00004E39129DE054BFF090BA23E020E00790A7
:0D4C1000BA2BE030E00790B87BE054FCF0D8
:104C1D002212DB7D90BE27E054FC440390BA0BF0CA
:104C2D0090B60A741CF0A37470F090B60E741CF05C
:104C3D00A37482F0C2152212F05990BE27E00490A1
:104C4D00BA0BF0227ECB7FF37C4E7D007B0A1237B0
:0E4C5D00FB2212DB7D904E36E0FF12B4F422F3
:10F0590090DB58E0B4FF2390DB66E004F090DB5CC2
:10F06900E0FF90DB66E0B5070C90DB65E06402F039
:10F07900E490DB66F0E490DB58F090BE27E0541C86
:10F089001313543FFF7401A807088002C333D8FC47
:07F09900FF90DB58E04FF08F
:01F0A000224D
:10EF230012FBB8129DEAEF2402F555E43EF554E4D2
:10EF33003DF553E43CF552E555129D74E55425E047
:10EF4300FFE555129CDFA3F0E55325E0FFE55412DE
:10EF53009CDFA3F0E55225E0541EFFE553129CDF2E
:10EF6300FFA3E054E04FF090DB72E06007901C6574
:04EF7300E04404F082
:01EF77002277
:10EAAF0090BE17E04401F0E490DC92F090CC05E0CA
:10EABF00FEA3E0FFC39438EE94015004EF4E70169E
:10EACF00129DEAEF2402FFE43EFEE43DFDE43CFC30
:10EADF0090BE0812079B90BE0BE0129D7490BE0A69
:10EAEF00129CD9901C6DF090BE09129CD9901C6E8F
:10EAFF00F090BE08E025E0541E129CDCFF901C6FC6
:06EB0F00E054E04FF0228B
:02E740008F52F6
:10E74200129D5024FFF582E43EF5837401F01222FB
:10E75200B88E538F54129D422404129CB7740FF04A
:10E762008F828E83129CB3E552F012FBB8129DEA9F
:10E77200E5542406FBE435538B82F58312079B1282
:10E78200FB6BE5542406FDE43553FCF583ED2404CC
:10E79200129CB7EFF078A9E6FF8D828C83129CB3AE
:10E7A200EFF0AD54AC537F0512227478A9E66401F0
:01E7B200F670
:01E7B3002243
:10EDBB0075F06FEF90C90F1207E4EF2583AF82FE5A
:10EDCB00752220E4F525F5298E83E582241D129CFE
:10EDDB00B7129D40241B129CB7129D40241C129C01
:10EDEB00B77404129D412423129CB7E4F0A3129D27
:10EDFB0041241A129CB7E4F08F828E83A3A3F08F69
:0AEE0B00828E83A3A3A3E04480F0ED
:01EE150022DA
:07FBFC0012CAFE12000622EE
:10AFE5008E4A8F4B8F828E83E5822404F582E43569
:10AFF50083F583E024FE602B24FD603224F9605044
:10B0050024FD605D24FA605D14603424166003023B
:10B01500B131E54B2405F582E4354AF583E0FF12AD
:10B02500F5F622AF4BAE4A12BF2D12228522E54B13
:10B035002405F582E4354AF583E0FF12E90822E5A7
:10B045004B2405F582E4354AF583E0FF1295472246
:10B05500E54B2405F582E4354AF583E0FF12F6ABAE
:10B065002212DAE622E54B2405F582E4354AF5831A
:10B07500E0FF75F06FA42412F582E5F034C9F5837D
:10B08500EF2583F583E030E11975F06FEFA42457C0
:10B09500F582E5F034CAF583EF2583F583E04401B5
:10B0A500F022E54B2405F582E4354AF583E0FF758A
:10B0B500F06FA4246FF582E5F034CAF583EF25839C
:10B0C500F583E030E11875F06FEFA42457F582E5BC
:10B0D500F034CAF583EF2583F583E04402F0E54BB0
:10B0E5002405F582E4354AF583E0FF75F06FA42465
:10B0F5006FF582E5F034CAF583EF2583F583E030FB
:10B10500E21875F06FEFA42457F582E5F034CAF51F
:10B1150083EF2583F583E04404F0E54B2405F582B0
:0DB12500E4354AF583E0FD7F1C12F4302272
:10CAFE00E4FF90B81BE04480F090B817E04404F0D7
:10CB0E007E147F2A90B602EEF0A3EFF090B60AEEF6
:10CB1E00F0A3EFF0783FEEF208EFF27E1C7F5D900F
:10CB2E00D8D4EEF0FCA3EFF0FD90B60EECF0A3ED32
:10CB3E00F090B606ECF0A3EDF090B44A7414F0A3A6
:10CB4E00742AF090B452EEF0A3EFF07E027FF090D4
:10CB5E00B622EEF0A3EFF090B62AEEF0A3EFF0E4DB
:10CB6E007855F27522207EC97F0F8E1D8F1E8E1D69
:10CB7E008F1E785B7404F2E4FF75F06FEFA4242B24
:10CB8E00F582E5F034C9F5832FF5837404F075F062
:10CB9E006FEFA42429F582E5F034C9F5832FF583D0
:10CBAE00E4F00FBF02D390AA07E030E406788CE2DF
:10CBBE004440F290DCED74FFF090B8417401F090B7
:10CBCE00BE28E0FCA3E0FDA3E0FEA3E0FF90DCC8DE
:03CBDE0012079BA0
:01CBE1002231
:10BF2D00EF2406FDE43EFC8D82F583A3E0F5288D1C
:10BF3D00828C83E0F52790DCCCE0FF600C1239D4C5
:10BF4D0090DCCCE0600302C03930430D78ACE65490
:10BF5D00FEF612A457C22E801030460512FBC48087
:10BF6D000830380512AA5BC22E303E6212661330BD
:10BF7D001807E478A4F612BBF178A3E620E043900D
:10BF8D00D9F7E0B4090990B677E0547FF0801090AE
:10BF9D00B677E0FF90DC86E0FEEF4E90B677F0903E
:10BFAD00D9CAE0B4090312E4F312FC039046ABE0E6
:10BFBD0030E00512F995800A9046ABE030E10312AE
:10BFCD00E478301807E478A4F612BBF1C232303DA4
:10BFDD002830152290B60EE0FEA3E0FF90D8D4E0F5
:10BFED00B50607A3E0B50702D21690B81BE0547F43
:10BFFD00F0E4FF12CF5DC23022303B06E4FF12CFDA
:10C00D005D22303C07302F24127D2E2230450C78D6
:10C01D00ACE6B40217E4F612F4642230440E90BF7D
:0DC02D0022E054CFF0E478ACF612F8F422D3
:10AA5B0090BF23E054FEF020190302AAEB90CC0424
:10AA6B00E06402707BE51E2468F582E51D3401F578
:10AA7B0083E0D394004026851E82851D83A3E0FFCF
:10AA8B0090B82BE05407B50704E478A4F6E51E2430
:10AA9B006AF582E51D3401F583E4F0801290B85F0E
:10AAAB00E0640B60F8E0640460F3E0640560EE12B0
:10AABB00BBF1E51E2468F582E51D3401F583E064E6
:10AACB0001600302ABCEE51E2449F582E51D34017E
:10AADB00F583E06404600302ABCEAF1C124C6B2217
:10AAEB00783CE224FA60792404600302ABCE12FBBB
:10AAFB00A012FA96E490B81FF090BE27E00490BA2B
:10AB0B0003F090BA237401F090B81BE054F8F0E016
:10AB1B0054874410F090B817E054074490FF90B856
:10AB2B0016E4F0A3EFF078477409F212EF2390B616
:10AB3B001A741CF0A3745EF090DB5DE04408F09097
:10AB4B00DB72E0600990BE27E024047857F2788C22
:10AB5B00E24401F2782BE2FBE4FD7F0F12232F225C
:10AB6B007858E2784AF290BE17E04410F0000000EB
:10AB7B000090BE00E0FCA3E0FDA3E0FEA3E0FF908D
:10AB8B00DB5312079B90DB56E04402F0E490DB6151
:10AB9B00F012E37F12FB4D784AE20490BA03F09077
:10ABAB00BA237401F090DB5FE04404F090BE23E025
:10ABBB0054FCF07F0A12F563782BE2FBE4FD7F0F68
:04ABCB0012232F2200
:10EB150090CC04E0FF64046017EF6408601290C9AC
:10EB25000EE0FF64076009EF64086004EFB4092A8A
:10EB350090DCCBE0FF90BE03E0C39FF54DC313FF10
:10EB45007E0012234090BE00E0FCA3E0FDA3E0FEA2
:09EB5500A3E0FF90DCC812079B4D
:10EB5E002290BE00E0FCA3E0FDA3E0FEA3E0FF9048
:0DEB6E00DCC812079B7F017E0012234022AD
:1066130090BE17E04403F00000000090BE03E05476
:106623000378A3F6E620E06B12EB15786DE26003C6
:10663300125B3278A4E6D39400400116302428C2BA
:1066430024C2AF90BE12E04440F07865E2FF08E256
:1066530090BE06CFF0A3EFF090BE13E04480F0D2DB
:10666300AF7862740CF2227847E2783DF2E478471F
:10667300F27845E2783CF2E47845F290D9F7E0FF0E
:1066830090D9CAF0E490D9F7F0BF090790BC22E093
:10669300547FF078A4E670031241C778A3E6FD3077
:1066A300E0030269CD90BE17E04403F090CC04E010
:1066B30064016003026833ED704C30112F08E670FB
:1066C3002B788CE24402F290BF23E054FEF090BE9C
:1066D30003E054FC440190BA0BF012DB7D7D01AF63
:1066E3001C12D7D212C457C2110269BD2021030262
:1066F30069BD3022030269BD78A4E660030269BD67
:1067030012DFED0269BD78A3E6640260030269BD8E
:1067130030192208E6601C12FBA0E51E241AF5823C
:10672300E4351DF583E4F078A4F690BF23E054E745
:10673300F0C22FC21978A4E660030269BD783CE277
:106743006410600302682D90B85FE0640B60F8E0AA
:10675300640460F3E0640560EE90BF43E0F54C2011
:10676300E2030267F790B82BE054077859F2851ECD
:1067730082851D83A3E0FFE2FEEF6E70641253DA9D
:10678300202F030269BD90B85FE0702490BF43E0FF
:10679300F54C30E308E4FF12CF5D0269BDE54C30F0
:1067A300E406127D2E0269BDE4FF12CF5D0269BDCE
:1067B300302924E51E241AF582E4351DF583E4F01F
:1067C300E51E241AF582E4351DF583E0FF90B81A1F
:1067D300E054FEFEEF4EF090BF23E04418F0026950
:1067E300BDE51E241AF582E4351DF583E4F012E0BD
:1067F300730269BDE51E241AF582E4351DF583E4B1
:10680300F012E073E51E2449F582E51D3401F5839A
:10681300E020E4030269BDE51E2458F582E51D343A
:1068230001F583E4F0A3F00269BD12A2C80269BDB9
:1068330090CC04E0640260030269B3301803026978
:10684300BD30191490BE17E04402F0000000009020
:10685300BE03E0540378A3F690DC2FE064017034A8
:10686300D3784EE2940018E29400402890DC30E0A4
:10687300602208E224FFF218E234FFF208E2700219
:1068830018E27010D22590C92EE0FFA3E0784DCF17
:10689300F208EFF278A3E66402600302698608E671
:1068A30060030269BDA222B340030269BDA24CB3D7
:1068B30040030269BD90C911E0540360030269718A
:1068C30030195FC21090B85BE0700A90CA77E0FF9E
:1068D30012D870800312DB7D90CA77E0FFD3940057
:1068E300403CEF25E078A4F690BF23E04401F0900C
:1068F300CA5AE030E35A90CA7AE0FF7E0090CA5F3A
:10690300E0FCA3E02FFFEE3CCF24FFCF34FF90CA7F
:1069130067F0A3EFF090CA5AE054F7F08032D21038
:10692300802E90DC2EE0B4010512ED01801990C990
:106933003AE0FF90BE0AE0C39FC394044004D233FD
:106943008002C23312DB7DD21090BF23E054FEF0ED
:1069530078457410F2E4FDFF12D7D290BE03E054E1
:10696300FC440390BA0BF012C457C233804C90CA54
:1069730058E030E40690CA6C7401F0788CE254FD60
:10698300F28037301034A222B3502F78A3E6702A56
:1069930008E67026A24CB3502190B85FE0640B6008
:1069A300F8E0640460F3E0640560EE12BBF1800A72
:1069B30090CC04E0B40803129A80785DE260057F0E
:0A69C30002124C6B788CE254BFF214
:0169CD0022A7
:02D7D2008F5373
:10D7D40075F06FEFA424FCF582E5F034C9F5832FCE
:10D7E400F583E0FFED601675F06FE553A424FDF5B5
:10D7F40082E5F034C9F5832553F583E0FFEF6061DA
:10D80400785BE26553605375F06FE553A42499F592
:10D8140082E5F034C9F5832553AD82FC7EAC7F4CA0
:10D824007B101237FB90CBF3E090B80BF090CBF465
:10D83400E090B80AF090CBF5E090B809F090CBF600
:10D84400E090B808F090CBF7E090B80FF090CBF8E8
:10D85400E090B80EF0785BE553F290B8537403F09F
:0BD8640022E490B853F0785B7404F2EB
:01D86F002296
:10DAE60090DB5DE0FF54486440600AEF54A0700587
:10DAF600E05424602F12FBA090BF23E054FEF07880
:10DB06002BE2FBE4FD7F0F12232F202E6990DB5DB5
:10DB1600E0FF30E20354FBF090DB5DE054FEF07F63
:10DB26000B12F56390DB5FE0544464406006A3E0AB
:10DB36005405604212FBA090BF23E054FEF0782B00
:10DB4600E2FBE4FD7F0F12232F202E2A90DB60E0FC
:10DB5600FF30E703547FF090DB5FE054FBF090BEAC
:10DB660023E054FCF0E04401F0783CE2B40602E421
:07DB7600F27F0912F56322A2
:10F6AB00EF24FE601204701C90DB64E04401F090C8
:10F6BB00C90E7401F0800D90DB67E04401F090C936
:0BF6CB000E7402F0788CE24401F22281
:10F5F600851E82851D83E054466023A3A3E0540341
:10F60600701C75F06FEFA42412F582E5F034C9F58D
:0FF61600832FF583E04420F0788CE24402F22247
:107846008E4F8F508D828C83E0855082854F83F0DA
:107856008D828C83A3E0855082854F83A3F08D8231
:107866008C83A3A3E0855082854F83A3A3F08D82EA
:107876008C83A3A3A3E0855082854F83A3A3A3F0A3
:10788600ED2404F582E43CF583E05403FFE550243F
:1078960004F582E4354FF583EFF0ED2405F582E437
:1078A6003CF583E0FFC4333354C0FFED2404F58276
:1078B600E43CF583E0FE1313543F4FFFE5502405E7
:1078C600F582E4354FF583EFF0ED2406F582E43CCE
:1078D600F583E0FFC4333354C0FFED2405F582E49D
:1078E6003CF583E0FE1313543F4FFFE5502406F5A5
:1078F60082E4354FF583EFF0ED2407F582E43CF59D
:1079060083E0FFC4333354C0FFED2406F582E43C24
:10791600F583E0FE1313543F4FFFE5502407F5822D
:10792600E4354FF583EFF0ED2407F582E43CF5836B
:10793600E0FFC45403FFE550240BF582E4354FF510
:1079460083EFF0ED2408F582E43CF583E0FFE55093
:107956002408F582E4354FF583EFF0ED2409F5822E
:10796600E43CF583E0FFE5502409F582E4354FF564
:1079760083EFF0ED240AF582E43CF583E0FFE55061
:10798600240AF582E4354FF583EFF0ED240BF582FA
:10799600E43CF583E0FFE550240CF582E4354FF531
:1079A60083EFF0ED240CF582E43CF583E0FFE5502F
:1079B600240DF582E4354FF583EFF0ED240DF582C5
:1079C600E43CF583E0FFE550240EF582E4354FF5FF
:1079D60083EFF0ED240EF582E43CF583E05407FFD7
:1079E600E550240FF582E4354FF583EFF0ED240ED4
:1079F600F582E43CF583E0FFC31354FCFFED240F4E
:107A0600F582E43CF583E0FEC433333354804FFF04
:107A1600E5502413F582E4354FF583EFF0ED24109D
:107A2600F582E43CF583E0FFC43333335480FFED45
:107A3600240FF582E43CF583E0FEC3134FFFE550C7
:107A46002412F582E4354FF583EFF0ED2411F5822B
:107A5600E43CF583E0FFC43333335480FFED241058
:107A6600F582E43CF583E0FEC3134FFFE550241195
:107A7600F582E4354FF583EFF0ED2411F582E43C11
:107A8600F583E0FFC313540FFFE5502410F582E49D
:107A9600354FF583EFF0ED2411F582E43CF583E0F4
:107AA600FFC4135407FFE5502414F582E4354FF55F
:047AB60083EFF02248
:10E56A0090BE17E04440F00000000090BE00E05466
:10E57A000FF0C390BE06E0648094805035A3E02477
:10E58A00E2FE90BE06E0340490C90CF0A3CEF090EF
:10E59A00BE00E0FCA3E0FDA3E0FEA3E024FFFFEE43
:10E5AA0034FFFEED34FFFDEC34FFFC90CCE812079B
:10E5BA009B2290BE06E0FFA3E090C90CCFF0A3EF28
:10E5CA00F090BE00E0FCA3E0FDA3E0FEA3E0FF9014
:06E5DA00CCE812079B22B1
:08EE160090C90FE05446605260
:10EE1E0090BF23E054BFF090BF337440F090CCE825
:10EE2E00E0FCA3E0FDA3E0FEA3E0FF90BE0012070E
:10EE3E009B90C90CE0FFA3E090BE06CFF0A3EFF0CD
:10EE4E0090BE12E04470F000000000000000009040
:10EE5E00BF13E0F55290BF12E0F55290BF23E0448D
:02EE6E0040F072
:01EE7000227F
:10F67F0090BF23E054BFF090BF337440F090BE12A0
:10F68F00E04403F000000000000090BF13E0FF9083
:0BF69F00BF12E0FF90BF23E04440F0EA
:01F6AA00223D
:0FFB4D00E490B807F090B81BE054874468F022AA
:04F430008F558D5611
:10F434001222A7904B89EEF0A3EFF02404F582E4A6
:10F444003EF583E555F0EF2405F582E43EF583E5CA
:0FF4540056F0904B89E0FCA3E0FD7F0612227476
:01F463002286
:02F563008F52C5
:10F565001222A7904B7DEEF0A3EFF02404F582E480
:10F575003EF583E552F0EF2405F582E43EF583E49C
:0EF58500F0904B7DE0FCA3E0FD7F05122274A8
:01F593002255
:10C4570090BA2B7402F0E51E2424F582E51D340101
:10C46700F583E05402FF90BC23E054FD4FF0AF1C6E
:10C4770012E281788CE24402F290DC2EE0640170D3
:10C48700557E037F4A90B622EEF0A3EFF090B626D2
:10C497007414F0A37429F090DC3BE0701B783F74B0
:10C4A70003F208744AF290B62AEEF0A3EFF090B6C2
:10C4B7000AEEF0A3EFF0803D783F7407F208744767
:10C4C700F27E07FF90B62AEEF0A3EFF090B60AEEE1
:10C4D700F0A3EFF0801F783FE2FF08E290B60ACFA3
:10C4E700F0A3EFF090D8D4E0FFA3E090B60ECFF022
:10C4F700A3EFF0D215E51E2447F582E51D3401F5BB
:10C5070083E0540390B805F078457410F2904E1DFF
:10C51700E030E12190DC2EE064016019201916203B
:10C527003313851E82851D83E020E70990B868E0F4
:10C537004480F0800790B868E0547FF0904E39E06F
:0CC5470090B684F090B68EE054BFF02255
:0EFB6B00904E22E0FF90B8B3E02FF404FF228A
:109F9B00755001E51E241AF582E51D3401F583E0A9
:109FAB00FF20E30302A13430190FE51E245EF58276
:109FBB00E51D3401F583E0F550E51E2419F582E526
:109FCB001D3401F583E0FE904E3CE0C36480F8EE57
:109FDB006480984055EF30E10302A134E51E2466FE
:109FEB00F582E51D3401F583E02550F0E51E24666E
:109FFB00F582E51D3401F583E0C3648094B2500310
:10A00B0002A134E51E241AF582E51D3401F583E027
:10A01B0054E4F0AD1C7F1D12F430E51E2466F5826E
:10A02B00E51D3401F583741EF022E51E2419F5821B
:10A03B00E51D3401F583E0FF904E3BE0D36480F8DF
:10A04B00EF648098400302A0F8E51E241AF582E520
:10A05B001D3401F583E030E00302A134E51E2466D4
:10A06B00F582E51D3401F583E0C39550F0E51E2420
:10A07B0066F582E51D3401F583E0D36480944E4090
:10A08B000302A134E51E241AF582E51D3401F58384
:10A09B00E054F4F0E51E241AF582E51D3401F58336
:10A0AB00E04410F0851E82851D83E030E528E582B3
:10A0BB002456F582E5833401F583E0FEA3E0D394C7
:10A0CB0000EE94014010E51E241AF582E51D3401C3
:10A0DB00F583E04404F0AD1C7F1D12F430E51E2423
:10A0EB0066F582E51D3401F58374E2F022E51E244A
:10A0FB0066F582E51D3401F583E0FFD3648094801F
:10A10B004010E51E2466F582E51D3401F583E0144D
:10A11B00F022C3EF64809480500FE51E2466F58215
:09A12B00E51D3401F583E004F0A8
:01A134002208
:0CFB940090BA23E054FCF0E0440CF02296
:0CFBA00090BA2BE054FCF0E0440CF02282
:10F9D10090BA23E054FCF090BA2BE054FCF090BABA
:0DF9E10023E0440CF090BA2BE0440CF0221F
:104000000011001B007900B700E00153FFFF000022
:10401000000000000000000000000000000000039D
:104020000303020202020101010101010101040472
:104030000404040404040404040404040404040341
:104040000303020202020101010101010101001B3F
:10405000000A0014001EFFFF001D007900B7FFFFDB
:10406000FFFF00E001530036FFFF003C005A005301
:10407000001D016F02280168021C02A703FD000257
:07408000FEFE01FE0102FE3D
:10A2C800E4F550C22A90DCFAF078B37601788CE293
:10A2D8004402F2E550600302A456A222B3400302EE
:10A2E800A456A24CB3400302A456E51E2436F582B8
:10A2F800E4351DF583E06401704A755001E51E24BC
:10A3080036F582E4351DF583E4F090B81BE05487F8
:10A318004418F090B817E054FC4401F0E490B816E3
:10A32800F0A3E05407F0E51E2434F582E4351DF56A
:10A33800837404F0E51E2435F582E4351DF583E4C5
:04A34800F002A3EC90
:10A34C00851E82851D83A3A3A3E0F55230E75054EC
:10A35C003F90400E93F551B401097F0112E7B48F81
:10A36C0050803CE551B4020F7550017848E2FE086C
:10A37C00E2FF126D168028E551B40318785EE2FEF8
:10A38C0008E2FF12AD358F50E55070137550011275
:10A39C00FBAC800BE551B4040675500312FB79E558
:10A3AC0050703D851E82851D83A3A3E05403702944
:10A3BC003029057550018021E51E2446F582E51DE6
:10A3CC003401F583E06012755001E51E2446F582D8
:10A3DC00E51D3401F583E014F0E550600312FBAC8D
:10A3EC00E550B40203E4F550E5506045B403079022
:10A3FC00CA81E0549FF0D211851E82851D83A3E093
:10A40C00FF90B81BE054F8FEEF4EF012A7617847AE
:10A41C007410F2E51E241FF582E4351DF583E0FE71
:10A42C00A3E024FFFBEE34FFFA7D01E4FF12231EB0
:10A43C0022C21130210EA222B35009A24CB35004F7
:0AA44C0012DFED22788CE254FDF2DD
:01A4560022E3
:109DF000E4F55090DCFAF0C22A78B37601788CE270
:109E00004402F230202E7550017848E2FE08E2FF4D
:109E1000F5828E83E030E00FEF4E600B18E2FE0813
:109E2000E2FF126D168002C22090DC30E0B4021511
:109E3000E4F0801190DC2FE0600B90DC30E06005F6
:109E400012CBE28F50A222B34003029ECDE55070A8
:109E50007CA24CB3507790C945E06401702B7550DB
:109E600001F090B81BE054874418F090B817E05404
:109E7000FC4401F0E490B816F0A3E05407F090C958
:099E8000437404F0A3E4F08044F3
:109E890090C912E0FF543F90400E93F551EF30E72F
:109E990033E551B40109E4FF12E7B48F508025E599
:109EA90051B4020F7550017848E2FE08E2FF126DC5
:109EB900168011E551B4030C785EE2FE08E2FF1248
:049EC900AD358F50D4
:109ECD00E550703E202912202B0F90CA5AE020E752
:109EDD000890DC2FE0541E602975500112FBACE593
:109EED001E2449F582E51D3401F583E054146012FA
:109EFD0020290FE51E245DF582E51D3401F58374DF
:109F0D0001F0E550B40203E4F550E550605F90C9EF
:109F1D0010E0FF90B81BE054F8FEEF4EF012A76171
:109F2D007847E2641160037410F2302A6090CA58C9
:109F3D00E05414605890CA67E0FEA3E0FF90CA6138
:109F4D00E0FCA3E0FDC39FEC9E404278B3E6FF7EAC
:109F5D0000ED2FFFEE3C90CA67F0A3EFF090CA58CA
:109F6D007404F090C911F0A3E04480F022E51E24A2
:109F7D0049F582E51D3401F583E05414600FE51EAB
:0D9F8D00245DF582E51D3401F5837401F0BB
:019F9A0022A4
:10CBE20090DC39E078B3F690DC30E0FFB4010BC2A0
:10CBF20025E490C929F07D01800FEFB40209E49089
:10CC0200DC30F07D018002E4FDED700302CCC290C5
:10CC1200B81BE05487FF90DC31E0FE4F90B81BF068
:10CC220090CA56E030E02AEE64706009EE6450600B
:10CC320004EEB4200890DCFA7401F08014EE6478FB
:10CC42006009EE64586004EEB4400690DCFA7402A7
:10CC5200F090DC33E0FFA3E090B61ACFF0A3EFF040
:10CC620090DC2FE0541E601D90DC3AE0601ED22A58
:10CC7200E490C943F090C912E020E31090C92AE081
:10CC82006402F0800790C92AE06402F090DC37E089
:10CC9200FEA3E07803C333CE33CED8F9FF90B817A2
:10CCA200E05407FBEEEF4BFF90B816EEF0A3EFF067
:10CCB20090B817E054FCFF90DC32E04F90B817F0C8
:02CCC200AF05BC
:01CCC400224D
:02E7B4008F5381
:10E7B6007F021FE51E242EF582E4351DF583E0FD5C
:10E7C600A3E090B81ACDF0A3EDF0E51E2430F58253
:10E7D600E4351DF583E0FDA3E090B816CDF0A3ED7A
:10E7E600F0E51E2432F582E4351DF583E0FDA3E055
:10E7F60090B61ACDF0A3EDF0851D1D851E1EE51EF3
:10E80600242DF582E4351DF583E078B3F6D22AE5AA
:0FE816001E2435F582E4351DF583E090DCFAF021
:01E8250022D0
:106D16008E538F5490B81BE054874418F090DC2FA4
:106D2600E0541E600D851E82851D83A3A3A3E0206B
:106D3600E30FE51E241BF582E4351DF583E06402AE
:106D4600F090B817E054FC4403F0E5542404F582AF
:106D5600E43553F583E075F008A4FF90B817E054C6
:106D660007FDE5F0ED4FFF90B816E5F0F0A3EFF064
:106D7600855482855383A3A3E0FEA3E0FF90B61A51
:106D8600EEF0A3EFF0E51E2432F582E4351DF5831F
:106D9600EEF0A3EFF0E51E2434F582E4351DF5830D
:106DA6007402F090DCFAE0FFE51E2435F582E43546
:106DB6001DF583EFF0D22A855482855383E054F083
:106DC60024E07003026E9B24D0602624F070030238
:106DD6006EAC24E07003026EBD2470600302702F57
:106DE600855482855383A3E0FD7F0A12F430027036
:016DF6002F6D
:106DF70090BE24E0FCA3E0FDA3E0FEA3E0FF780142
:106E07001206B7904B7D12079B904B7DE0FCA3E0E9
:106E1700FDA3E0FEA3E024F0FFE43EFEE43DFDE435
:106E27003CFC90CCE412079B90CCE7E054FEFFF0CB
:106E3700855482855383A3A3E0FCA3E0F5828C836A
:106E4700A3EFF090CCE6E0FF855482855383A3A39C
:106E5700E0FCA3E0F5828C83A3A3EFF090CCE5E000
:106E6700FF855482855383A3A3E0FCA3E0F5828CBE
:106E770083A3A3A3EFF090CCE4E0FF85548285536E
:106E870083A3A3E0FCA3E02404F582E43CF583EFAD
:016E9700F00A
:106E980002702FE51E24EEF582E4351DF58374019A
:106EA800F002702F855482855383A3E0FD7F0D1275
:056EB800F43002702F10
:106EBD00E51E2449F582E51D3401F583E06030E5DA
:106ECD001E2456F582E51D3401F583A3E025E0FF70
:106EDD000582D5820215831582E033904B85F0A390
:106EED00EFF0E02414F0904B85E03400F08024E5C1
:106EFD001E241FF582E4351DF583E0FEA3E0780323
:106F0D00C333CE33CED8F92414FFE43E904B85F035
:106F1D00A3EFF090BE24E0FCA3E0FDA3E0FEA3E010
:106F2D00FF78011206B7904B8112079B904B81E0C1
:106F3D00F8A3E0F9A3E0FAA3E0FB904B85E0FEA3F4
:106F4D00E0FFE4FCFDEB2FFFEA3EFEED39FDEC38F2
:106F5D00FC904B8112079B904B84E054FEF0904BBC
:106F6D0081E05407F0904B84E0FF85548285538374
:106F7D00A3A3E0FCA3E0F5828C83A3EFF0904B83F9
:106F8D00E0FF855482855383A3A3E0FCA3E0F58243
:106F9D008C83A3A3EFF0904B82E0FF855482855341
:106FAD0083A3A3E0FCA3E0F5828C83A3A3A3EFF05E
:106FBD00904B81E0FF855482855383A3A3E0FCA30E
:106FCD00E02404F582E43CF583EFF01222B8904BF7
:106FDD0087EEF0FCA3EFF0FD904B87E0FEA3E0FF02
:106FED002404F582E43EF583740FF08554828553B5
:106FFD0083A3E0FBEF2405F582E43EF583EBF085FA
:10700D005482855383A3A3E0FEA3E0FFED2406FB8A
:10701D00E43C8B82F583A3A3EEF0A3EFF07F061281
:02702D002274CB
:0E702F00851E82851D83A3A3A3E054FBF022DF
:04AD35008E538F5456
:10AD39008F828E83A3E0FF75F06FA42457F582E517
:10AD4900F034CAF583EF2583F583E0545E60037F11
:10AD59000022AF54AE53127F9178B3A6078554826F
:10AD6900855383A3A3E0FF90B817E054FCFEEF4E90
:10AD7900F0855482855383A3A3A3E0FFA3E090B693
:10AD89001ACFF0A3EFF0E51E2434F582E4351DF562
:10AD9900837404F0855482855383A3A3A3E0FEA39F
:10ADA900E0FFE51E2432F582E4351DF583EEF0A3BC
:10ADB900EFF090DCFAE0FFE51E2435F582E4351D5D
:10ADC900F583EFF0E5542405F582E43553F583E086
:10ADD900FEA3E0FF7860E2FC08E2FDD3EF9DEE9C64
:10ADE900500F8E558F568554828553837403F08096
:10ADF900548C558D56855482855383A3A3A3E55559
:10AE09008556F01204A8E5542405F582E43553F576
:10AE190083C083C082C3A3E09DFF0582D58202154A
:10AE2900831582E09CD082D083F0A3EFF085548211
:10AE3900855383A3A37401F0851E82851D83A3A373
:10AE4900A3E04402F0E556AE557803C333CE33CEC2
:10AE5900D8F9FF90B817E05407FDEEEF4DFF90B811
:10AE690016EEF0A3EFF0D22AE51E241BF582E43595
:10AE79001DF583E06402F0851E82851D83A3A3A3CB
:06AE8900E054FEF07F0121
:01AE8F0022A0
:0CFBAC0090B81BE05487F078B37601227B
:0EFB790090B81BE054874408F078B376012260
:10A76100E51E241BF582E4351DF583E0FF90B81A40
:10A77100E054FDFEEF4EF0E51E241AF582E4351D8E
:10A78100F583E0FF90B81AE054FEFEEF4EF090BE64
:10A7910017E04402F00000000078A4E6FF25E0FF86
:10A7A10090BE03E02F440190BA03F090CC04E0B4D2
:10A7B100020E90BA03E05403FFBF0304E024FEF04D
:10A7C10030161930140DC216C21490B81BE0448023
:10A7D100F0801090B81BE0547FF0800790B81BE028
:10A7E1004480F090B817E04404F090DC2EE054036C
:10A7F100600512ED01800312DB7DE4FDAF1C12D771
:10A80100D2E51E2424F582E51D3401F583E05402CE
:10A81100FF90BC23E054FD4FF0AF1C12E28190B8D1
:10A821007BE054FCF0E0FF90DCFAE0FEEF4E90B8E4
:10A831007BF0E51E2422F582E51D3401F583E0FF5E
:10A8410012B4F47847E264116015E51E2447F582DD
:10A85100E51D3401F583E0540390B807F08005E469
:10A8610090B807F020280D12FB940000000090BA68
:10A87100237401F0C22878B3E6FF78A426F6302AC3
:10A8810060851E82851D83A3A3A3E04408F0E51E15
:10A89100242DF582E4351DF583EFF090B81AE0FE22
:10A8A100A3E0FFE51E242EF582E4351DF583EEF0CD
:10A8B100A3EFF090B816E0FEA3E0FFE51E2430F50B
:10A8C10082E4351DF583EEF0A3EFF090CC04E0B403
:10A8D100010FE51E2446F582E51D3401F58374045C
:02A8E100F02263
:047F91008E578F5820
:107F95007F187E01E4F97860F2087411F2E51E2479
:107FA50047F582E51D3401F583E030E01009E51E53
:107FB5002418F582E4351DF583E0FC800DE51E24CB
:107FC50017F582E4351DF583E0FCE5582405F582B7
:107FD500E43557F583E0FAA3E0FBE96066D3EB945B
:107FE50011EA940050057D0102809BD3EB9436EA9B
:107FF500940050057D0302809BD3EB9453EA9400D3
:10800500500EEC30E2057D0702809B7D0B02809BC4
:10801500D3EB946FEA940150047D0F8079D3EB94F0
:1080250028EA9402500CEC30E4047D1F80687D2F13
:108035008064D3EB94A7EA940250047D3F80577D7A
:108045007F8053D3EB9411EA940050047D01804660
:10805500D3EB941BEA9400500CEC30E1047D0380D3
:10806500357D078031D3EB9479EA940050047D0780
:108075008024D3EB94B7EA9400500CEC30E3047DF4
:108085000F80137D1F800FD3EB94E0EA940050041A
:108095007D1F80027D3FEC5205E97003028144EDAE
:1080A500C3944040167F7878607403F20874FDF23B
:1080B5007E0590DCFA7402F00281A5EDC3942040A0
:1080C500167F7078607402F20874A7F27E0590DC62
:1080D500FA7401F00281A5EDC3941040167F58781B
:1080E500607402F2087428F27E0390DCFA7402F0E0
:1080F5000281A5EDC3940840167F5078607401F2A3
:1081050008746FF27E0390DCFA7401F00281A5ED2C
:10811500C3940440127F407860E4F2087453F290EF
:10812500DCFA7402F08079EDC3940240737F207805
:1081350060E4F2087436F290DCFA7401F08061EDC7
:10814500C39420400F7F7878607401F2087453F26D
:108155007E05804CEDC39410400E7F707860E4F28C
:108165000874E0F27E058038EDC39408400E7F5810
:108175007860E4F20874B7F27E038024EDC39404BA
:10818500400E7F507860E4F2087479F27E03801027
:10819500EDC39402400A7F207860E4F208741BF274
:0A81A50090B81BE054874FF0AF06BE
:0181AF0022AD
:02B4F4008F5374
:10B4F600E4F554F555FF90DCE3E06404700302B60E
:10B506002A904E36E06553704F90B87BE054036046
:10B51600010F90DC85E0B50712783BE2B5530C903D
:10B52600DCECE0FE90DCEEE06E6056EF601975F044
:10B5360002E553A4242CF582E5F0344EF583E0F5BC
:10B5460054A3E0F555800A904E34E0F554A3E0F597
:10B556005590DC85EFF08029783BE2B5530C90DC02
:10B56600ECE0FF90DCEEE06F601775F002E553A4A7
:10B57600242CF582E5F0344EF583E0F554A3E0F58E
:10B5860055E5554554700302B62A90DCEFE0605B42
:10B59600AF55EF3395E0F5568F5790DCECE0243D40
:10B5A600F582E4344EF583E0FFFD3395E0FCED25AE
:10B5B60057F557EC3556F556C3648094805005759B
:10B5C6005500804AC3E5579480E5566480948040D0
:10B5D60009855454747FF5558034EF3395E0FEEFBA
:09B5E6002555F555EE3554F554D8
:02B5EF008023B7
:10B5F100743D2553F582E4344EF583E0FF3395E045
:10B60100EFFEE424F0F557E43EF556AD57FC7F0814
:03B6110012367B73
:10B6140090DCECE090DCEEF0AD55AC547F0B1236D0
:06B624007B783BE553F2C8
:01B62A0022FD
:10ED010090DC3CE014604404704A90CC04E0B4010F
:10ED11001D78A3E6700C90DC3EE0248090BC22F0CC
:10ED2100803290DC3DE0248090BC22F0802678A3E4
:10ED3100E6700C90DC3DE0248090BC22F0801590C0
:10ED4100DC3EE0248090BC22F08009E490BC22F0FB
:0DED510090BC02F012DB7DE490B853F0227C
:10FA60007862E2640E601390B86E7401F0A3E4F063
:0BFA700090BE1AE04401F0740EF22278
:10DB7D007862E2640A60467ECB7FF312F23A90CB74
:10DB8D00F6E090B81FF090BC037480F090CC04E0E8
:10DB9D00B4010990BE1AE04401F0801C90BE1AE059
:10DBAD0054FEF0E04402F090BE067402F0A374300F
:10DBBD00F090BE1BE04401F07862740AF230331C21
:10DBCD0090B86E7409F0A37450F090BC1E7401F0FF
:10DBDD00A3745AF090BC277472F0801F7851E2FF45
:10DBED0008E290BC1ECFF0A3EFF0785AE290BC276C
:10DBFD00F090B86E7403F0A37410F090B403E05479
:03DC0D007FF02283
:10D870008F4D7862E2FF640B700302D904EF640AF3
:10D88000600D7ECB7FF312F23A90BC037480F0906F
:10D89000CBF6E090B81FF0E54D600C90B86E743A8E
