:020000040000FA
:1028FB00FF00210200000000FF1ED00000000000BE
:10290B00FFB0730000000000FFD52601010000009E
:10291B00FFB4550102000000FFEECC0100000000E7
:10292B00FF55340101000000FF15FC010000000001
:10293B00FF7E970202000000FF5E0402030000000E
:10294B00FFB00B0204000000FF85E802030000004B
:10295B00FF8ED90203000000FF92930203000000D8
:10296B00FFF6970204000000FF00210200000000A8
:0100190022C4
:01001A0022C3
:01001E0022BF
:01001F0022BE
:0100200022BD
:0100210022BC
:081778008F438D448A458B4626
:10178000E546454570030218EB904D47E07002A313
:03179000E07023E3
:10179300122130904AD2EEF0A3EFF0904AD2E0FC4F
:1017A300A3E0FD2404F582E43CF5837401F07F0794
:0317B3001220FD04
:1017B600AB47AD44AF4312146C904D47E0FFA3E036
:1017C600904AD4CFF0A3EFF0E4A3F0A3F0904AD46C
:1017D600E0FEA3E0FF4E60458F828E83A3A3E0FE6A
:1017E600A3E0FFC39546EE95455032904AD4E0FCFF
:1017F600A3E0FDC3E5469FF546E5459EF545A3EC0A
:10180600F0A3EDF0904AD4E0FEA3E0F5828E83E0EB
:10181600FFA3E0904AD4CFF0A3EFF080B0904DB98B
:10182600E0FEA3E0FFF5828E83A3A3E545F0A3E5E2
:1018360046F0EF2404F582E43EF583E547F0EF2415
:1018460005F582E43EF583E543F0EF2406F582E4F0
:101856003EF583E544F0904AD6E0FEA3E0FF4E70E5
:1018660011904DB9E0FDA3E0904D47CDF0A3EDF00A
:101876008010904DB9E0FDA3E08F828E83CDF0A35A
:10188600EDF0904DB9E0FEA3E0FFF5828E83E0FD1A
:10189600A3E0904AD6CDF0A3EDF0904AD4E0FCA3A5
:1018A600E0FD8F828E83ECF0A3EDF0F5828C83A3AE
:1018B600A3C083C082C3A3E09546FF0582D58202FA
:1018C60015831582E09545D082D083F0A3EFF09082
:1018D6004AD6E0FEA3E0FF904DB9EEF0A3EFF04E3E
:0518E60070031233A4A1
:0118EB0022DA
:04146C00AA07A9051D
:10147000904D47E0FDA3E0904B3FCDF0A3EDF0E4AD
:10148000A3F0A3F0904B3FE0FCA3E0FD4C700302FF
:1014900015FBED2404F582E43CF583E06B60030268
:1014A00015DA904B3FE0A3E02406F582E43CF58397
:1014B000E06960030215DAED2405F582E43CF5836A
:1014C000E06A6007EAF460030215B9904B3FE0FC64
:1014D000A3E0FDF5828C83E0F8A3E0F582888345E4
:1014E00083601F8D828C83A3A3E0FEA3E0FF8D8227
:1014F0008C83E0FCA3E0F5828C83A3A3EE8FF01233
:1015000004A8904B41E07002A3E0704D904B3FE087
:10151000FEA3E0FFF5828E83E0FDA3E0904D47CD72
:10152000F0A3EDF0904DB9E0FDA3E08F828E83CD66
:10153000F0A3EDF0904B3FE0FFA3E0904DB9CFF06A
:10154000A3EFF0904D47E0FFA3E0904B3FCFF0A317
:10155000EFF0E4A3F0A3F08058904B3FE0FEA3E04F
:10156000F5828E83E0FEA3E0FF904B41E0FCA3E018
:10157000F5828C83EEF0A3EFF0904DB9E0FEA3E08E
:10158000FF904B3FE0FCA3E0FDF5828C83EEF0A3DF
:10159000EFF0904DB9ECF0A3EDF0904B41E0FEA3DD
:1015A000E0F5828E83E0FFA3E0904B3FCFF0A3EF06
:1015B000F0EAF4700302148422904B3FE0FEA3E0B3
:1015C000FFA3EEF0A3EFF0F5828E83E0FFA3E0909F
:1015D0004B3FCFF0A3EFF0021484904B3FE0FEA30B
:1015E000E0FFA3EEF0A3EFF0F5828E83E0FFA3E02F
:0B15F000904B3FCFF0A3EFF0021484FB
:0115FB0022CD
:1015FC008E338F348F828E83E5822404F582E4351A
:10160C0083F583E024FE601F147003021715147019
:10161C000302174B240360030217777B007A04E460
:07162C00FD7F021221A7223D
:10163300904D47E0FEA3E0FF4E70030216FF8F823A
:101643008E83A3A374FFF5F01204A8904D47E0FE28
:10165300A3E0F5828E83A3A3E0FEA3E04E60030222
:1016630016FF1221308E338F34904D47E0FEA3E0F6
:10167300FF2405F582E43EF583E0FDE5342404F51B
:1016830082E43533F583EDF0EF2406F582E43EF58D
:1016930083E0FFE5342405F582E43533F583EFF089
:1016A300904D47E0FEA3E02404F582E43EF583E099
:1016B300FFAD34AC331220FD904D47E0FEA3E0FFB5
:1016C300F5828E83E0FCA3E08C35F536904DB9E0CE
:1016D300FDA3E08F828E83CDF0A3EDF0904D47E024
:1016E300FFA3E0904DB9CFF0A3EFF0904D47E53560
:1016F300F0A3E536F04535600302164E904D47E002
:101703007002A3E0606E7B007A04E4FD7F02122185
:01171300A72E
:1017140022E5342406FFE43533FAA9077B0190005F
:10172400011203CCFF9000021203CCFD90000312BF
:1017340004D4FBAAF0E5342406F582E43533F583BA
:10174400E0F54712177822E5342406FFE43533FA2E
:10175400A9077B019000011203CCFF900002120341
:10176400CCFDE5342406FBE435338B82F583E0FBC2
:0417740012146C22BD
:0E2D20008F6A8D6B8A6C8B6DE56D456C60540F
:102D2E00122141904C41EEF0FCA3EFF0FD904C418E
:102D3E00E0FEA3E0FF2404F582E43EF5837403F085
:102D4E00EF2406FFE43EFE8F82F583E56EF0AA06C1
:102D5E00A9077B01900001E56A12043E900002E58E
:102D6E006B12043E900003E56C856DF012050C7F2E
:042D7E00071220FD1B
:012D8200222E
:062F49008F618D628B63B5
:102F4F00122141904C03EEF0FCA3EFF0FD904C03E7
:102F5F00E0FEA3E0FF2404F582E43EF5837404F061
:102F6F00EF2406FFE43EFE8F82F583E563F0AA06A9
:102F7F00A9077B01900001E56112043E900002E574
:092F8F006212043E7F071220FDCE
:012F98002216
:022A79008F4389
:102A7B00E5437003FEFF229037F4E0C39543F090DB
:102A8B001DF3E0F544854345E544C394D0505074A1
:102A9B00232544F582E4341DF583E0703B1545E5B1
:102AAB00457038C3E544954304F5442423F582E48B
:102ABB00341DAF82FEAB43AD43123925901DF3E0BD
:102ACB00B544032543F075F020E544A424F4F582C6
:102ADB00E5F0341DAF82FE22854345054480A912E3
:052AEB0033F8E4FEFFDA
:012AF00022C3
:102EF800EF4E604CC3EF94F4FFEE941DFEEF78059F
:102F0800CEC313CE13D8F9F543C394D050327423EB
:102F18002543F582E4341DF583E0FB9037F4E02B7C
:102F2800F074232543F582E4341DAF82FEE4FD12DC
:102F38003925901DF3E0FFE543C39F5003E543F0B7
:012F48002266
:10332300EF541FD39400E49400400FEF7805CEC30D
:1033330013CE13D8F904F56E800CEF7805CEC313C2
:0B334300CE13D8F9F56EAF6E12337A8E
:01334E00225C
:10286D0078ACE6FE08E6FFF5828E83A3A3A3E0FC19
:10287D00A3E0FD78BDECF208EDF2C2AF8F828E833E
:10288D007405F078ACE6FE08E68E832408F582E444
:10289D003583F583E0FEA3E018A60608F6D2AFED6A
:0328AD004C703933
:1028B00012213078BBEEF208EFF22404F582E43EF8
:1028C000F5837403F0EF2405F582E43EF58374018B
:1028D000F018E2FC08E2FD7F0E1220FD7E907F00E2
:0928E00078BD7490F2087400F256
:1028E900C2AF90D8DCE004F0D2AF78BDE2FE08E2D6
:0128F900FFDF
:0128FA0022BB
:10344C007814E2FE08E2FF8E2FF530452F60158FC1
:10345C00828E83E0FEA3E0FF18EEF208EFF24E70CE
:08346C00031233CEAE2FAF3086
:013474002235
:103475007810E2FE08E2FF8E2FF530452F60158F9C
:10348500828E83E0FEA3E0FF18EEF208EFF24E70A5
:08349500031233CEAE2FAF305D
:01349D00220C
:10349E007812E2FE08E2FF8E2FF530452F60158F71
:1034AE00828E83E0FEA3E0FF18EEF208EFF24E707C
:0834BE00031233CEAE2FAF3034
:0134C60022E3
:1034C7007816E2FE08E2FF8E2FF530452F60158F44
:1034D700828E83E0FEA3E0FF18EEF208EFF24E7053
:0834E700031233CEAE2FAF300B
:0134EF0022BA
:102E9E00300A1B782FE56FF27825E2FE08E2F58204
:102EAE008E83E0FFA3E07829CFF208EFF2223009FB
:102EBE001B781BE570F2782CE2FE08E2F5828E8319
:102ECE00E0FFA3E07819CFF208EFF22230081A786B
:102EDE0022E572F2781CE2FE08E2F5828E83E0FFB4
:0A2EEE00A3E07820CFF208EFF222F3
:102C4A008F828E83A3A3E024FE6020146033146075
:102C5A0046240370577816E2FD08E28F828E83CDF0
:102C6A00F0A3EDF018EEF208EFF2227812E2FD0876
:102C7A00E28F828E83CDF0A3EDF018EEF208EFF228
:102C8A00227810E2FD08E28F828E83CDF0A3EDF068
:102C9A0018EEF208EFF2227814E2FD08E28F828E33
:0D2CAA0083CDF0A3EDF018EEF208EFF2225A
:043106008E2F8F3049
:10310A008F828E83E0FEA3E0FF4E700D85308285AC
:10311A002F83ECF0A3EDF0801B8F828E83E0FAA35D
:10312A00E0FB4A6006AE02AF0380EE8F828E83EC2C
:0C313A00F0A3EDF08D828C83E4F0A3F094
:013146002266
:1035B5008F828E83E0FCA3E0FDFBAA044A60118D97
:1035C500828C83E0FDA3E08F828E83CDF0A3EDF0A6
:0435D500AE02AF0390
:0135D90022CF
:080FF80000014343C7C7C7C74E
:0A395900E4F571F56FF570F57222C8
:101FF300C2AFE57170030220F4900FF893F521301E
:102003000A4C7825E2FE08E2FFF5828E83A3A3A3A0
:10201300E0782BF2E4782FF2D2AF782BE2FD333362
:102023003354F8FD9028FF93F5A574FB2DF582E456
:102033003428F583E493740193FA740293F5828A46
:10204300831208B6E4F5A5C2AF12217480A4300947
:102053004D782CE2FE08E2FFF5828E83A3A3A3E072
:10206300782BF2E4781BF2D2AF782BE2FD333333D3
:1020730054F8FD9028FF93F5A574FB2DF582E43405
:1020830028F583E493740193FA740293F5828A83A7
:102093001208B6E4F5A5C2AF122185021FF5200888
:1020A30003021FF5781CE2FE08E2FFF5828E83A38C
:1020B300A3A3E0782BF2E47822F2D2AF782BE2FDEF
:1020C30033333354F8FD9028FF93F5A574FB2DF5B6
:1020D30082E43428F583E493740193FA740293F54C
:1020E300828A831208B6E4F5A5C2AF122196021FB5
:0A20F300F5E4782BF2F521D2AF22BC
:10259200C2AF782BE27818F27824E521F2E571D304
:1025A2009401500302265B7E00E57154FE24F8F587
:1025B20082EE340FF583E493F521300A4C7825E25C
:1025C200FE08E2FFF5828E83A3A3A3E0782BF2E458
:1025D200782FF2D2AF782BE2FD33333354F8FD90EB
:1025E20028FF93F5A574FB2DF582E43428F583E4E6
:1025F20093740193FA740293F5828A831208B6E403
:10260200F5A5C2AF1221748094300991782CE2FEB4
:1026120008E2FFF5828E83A3A3A3E0782BF2E4788D
:102622001BF2D2AF782BE2FD33333354F8FD9028FE
:10263200FF93F5A574FB2DF582E43428F583E4932A
:10264200740193FA740293F5828A831208B6E4F550
:10265200A5C2AF12218502259F7818E2782BF27865
:0726620024E2F521D2AF22B2
:102BD900C2AF782BE27823F2782EE521F2E571D3A2
:102BE9009403404F7521C77825E2FE08E2FFF5827C
:102BF9008E83A3A3A3E0782BF2E4782FF2D2AF78E7
:102C09002BE2FD33333354F8FD9028FF93F5A57477
:102C1900FB2DF582E43428F583E493740193FA7467
:102C29000293F5828A831208B6E4F5A5C2AF122190
:102C39007480AA7823E2782BF2782EE2F521D2AFBC
:012C49002268
:1031BB00D56F035371FB782FE270197825E2FE0867
:1031CB00E2FFF5828E83E0FDA3E07829CDF208EDD6
:1031DB00F2122C4AE4782FF27829E2FF08E27825E4
:0631EB00CFF208EFF22212
:1031F100D570035371FD781BE27019782CE2FE083B
:10320100E2FFF5828E83E0FDA3E07819CDF208EDAF
:10321100F2122C4AE4781BF27819E2FF08E2782CCA
:06322100CFF208EFF222DB
:10322700D572035371FE7822E27019781CE2FE080A
:10323700E2FFF5828E83E0FDA3E07820CDF208ED72
:10324700F2122C4AE47822F27820E2FF08E2781C96
:06325700CFF208EFF222A5
:101C88008F2F8D308A318B32E53245317003021D3A
:101C9800AB782BE2FBAD30AF2F121A297839E2FE70
:101CA80008E28E73F574E4F575F5767835E2FE088A
:101CB800E22532F532EE3531F531E574457360369B
:101CC800857482857383A3A3E0FEA3E0FFC39532E6
:101CD800EE95315021C3E5329FF532E5319EF5315D
:101CE800857375857476857482857383E0FEA3E0B9
:101CF8008E73F57480C47833E2FE08E2FFF5828EB5
:101D080083A3A3E531F0A3E532F0782BE2FDEF24BD
:101D180004F582E43EF583EDF07833E2FE08E2FF55
:101D28002405F582E43EF583E52FF0EF2406F582DD
:101D3800E43EF583E530F0E576457570097839EECF
:101D4800F208EFF2800B857682857583EEF0A3EFBB
:101D5800F07833E2FE08E2FFF5828E83E0FCA3E030
:101D68008C75F5768F828E83E573F0A3E574F0F5B4
:101D780082857383A3A3C083C082C3A3E09532FF87
:101D88000582D5820215831582E09531D082D083F1
:101D9800F0A3EFF018E575F208E576F245757003E3
:041DA8001233A4222C
:101A2900AA07A9057839E2FC08E28C73F574E4F594
:101A390075F576E57445737003021B59E574240442
:101A4900F582E43573F583E06B6003021B42E574AC
:101A59002406F582E43573F583E0696003021B42CD
:101A6900E5742405F582E43573F583E06A6007EAD5
:101A7900F46003021B2B857482857383E0FCA3E069
:101A8900FD4C6019857383857482A3A3E0FEA3E0EE
:101A9900FF8D828C83A3A3EE8FF01204A8E576450F
:101AA90075703B857482857383E0FFA3E07839CF35
:101AB900F208EFF27833E2FF08E2857482857383D6
:101AC900CFF0A3EFF018E573F208E574F27839E284
:101AD900FE08E28E73F574E4F575F576803C85743D
:101AE90082857383E0FFA3E0857682857583CFF0D5
:101AF900A3EFF07833E2FF08E2857482857383CF20
:101B0900F0A3EFF018E573F208E574F285768285A3
:101B19007583E0FEA3E08E73F574EAF47003021A8C
:101B29003C22857375857476857482857383E0FE9E
:101B3900A3E08E73F574021A3C85737585747685F6
:101B49007482857383E0FEA3E08E73F574021A3CF8
:011B59002269
:1029FB007836E22FF218E23EF27832E2706F7839D5
:102A0B00E2FE08E2FF4E605F8F828E83A3A3E0FE9F
:102A1B00A3E0FF7835E2FC08E2FDD3EF9DEE9C507E
:102A2B001108E2FC08E2FD7F011221FC78327401EF
:102A3B00F2227839E2FE08E2F5828E83A3A3C083EB
:102A4B00C0827835E2FE08E2FFC3A3E09FFF058258
:102A5B00D5820215831582E09ED082D083F0A3EF3E
:0E2A6B00F0E418F208F222E47835F208F222C4
:041ED0008E4A8F4B5C
:101ED4008F828E83E5822404F582E43583F583E0E2
:101EE4006003021FF27839E2FE08E2F5828E83A3D2
:101EF400A3E0FEA3E0FF7835E2FC08E2FDD3EF9D0A
:101F0400EE9C4003021FB31221308E4A8F4B783966
:101F1400E2FE08E2FF2405F582E43EF583E0FDE5F8
:101F24004B2404F582E4354AF583EDF0EF2406F5FD
:101F340082E43EF583E0FFE54B2405F582E4354A6F
:101F4400F583EFF018E2FE08E22404F582E43EF59E
:101F540083E0FFAD4BAC4A1220FD7839E2FE08E283
:101F6400FFF5828E83A3A3E0FCA3E0FDC37836E2F1
:101F74009DF218E29CF28F828E83E0FEA3E0FF784C
:101F840033E2FC08E2FD7839E2FA08E2FBF5828AE2
:101F940083ECF0A3EDF07833EAF208EBF27839EE53
:101FA400F208EFF24E6003021EE97835F208F27887
:101FB40035E2FE08E2FF4E602E7839E2FC08E2F5D5
:101FC400828C83A3A3C083C082C3A3E09FFF058246
:101FD400D5820215831582E09ED082D083F0A3EFD0
:0E1FE400F0E47835F208F2E47832F212210EC1
:011FF20022CC
:1021FC008D828C83A3A3A3EFF033333354F8902850
:10220C00FE931460541470030222AC240260030287
:10221C0022F2E56F70107825ECF208EDF27827ECDD
:10222C00F208EDF280257827E2FE08E2F5828E8333
:10223C00ECF0A3EDF018ECF208EDF2782FE2B4011B
:10224C000A7402F27829ECF208EDF2056F4371047E
:10225C008D828C83E4F0A3F022E5707010782CEC66
:10226C00F208EDF27830ECF208EDF280257830E2ED
:10227C00FE08E2F5828E83ECF0A3EDF018ECF20888
:10228C00EDF2781BE2B4010A7402F27819ECF20850
:10229C00EDF205704371028D828C83E4F0A3F02281
:1022AC00E5727010781CECF208EDF2781EECF20876
:1022BC00EDF28025781EE2FE08E2F5828E83ECF0CA
:1022CC00A3EDF018ECF208EDF27822E2B4010A74F6
:1022DC0002F27820ECF208EDF205724371018D8266
:0722EC008C83E4F0A3F02253
:10383E00E4901DF3F0FF7FD0901D23E4F0A3DFFC96
:06384E009037F474D0F085
:013854002251
:1018EC00781474C4F208745CF2E4FF75F00AEFA487
:1018FC002466F582E5F034C4AD82FC75F00AEFA4E1
:10190C00245CF582E5F034C4F583ECF0A3EDF075BE
:10191C00F00AEFA4245EF582E5F034C4F583740478
:10192C00F00FBF3FC6E490C6D2F0A3F0A37404F04E
:10193C00781074C0F2087400F2E4FF75F00EEFA496
:10194C00240EF582E5F034C0AD82FC75F00EEFA4E8
:10195C002400F582E5F034C0F583ECF0A3EDF075CE
:10196C00F00EEFA42402F582E5F034C0F583740385
:10197C00F00FBF3FC6E490C372F0A3F0A37403F062
:10198C00781274C3F2087480F2E4FFEF75F016A4B9
:10199C002496F582E434C3AD82FCEF75F016A424D2
:1019AC0080F582E434C3F583ECF0A3EDF0EF75F031
:1019BC0016A42482F582E434C3F5837402F00FBFBD
:1019CC0009C9E490C446F0A3F0A37402F07816742D
:1019DC00C6F20874DCF2E4FF75F046EFA42422F59D
:1019EC0082E5F034C7AD82FC75F046EFA424DCF53B
:1019FC0082E5F034C6F583ECF0A3EDF075F046EF1C
:101A0C00A424DEF582E5F034C6F5837401F00FBF33
:0C1A1C0007C6E490C8C6F0A3F0A304F0D5
:011A2800229B
:102E4300E4FFEF75F007A42415F582E434CEAD82D8
:102E5300FCEF75F007A4240EF582E434CEF583EC81
:102E6300F0A3EDF00FBF13DAE490CE93F0A3F07864
:102E73003374CEF208740EF2E47839F208F2783241
:102E8300F27835F208F21221307837EEF208EFF2D9
:0A2E93002404F582E43EF583E4F028
:012E9D002212
:102F9900E4904B70F0904B70E0FF75F007A424505B
:102FA900F582E4344DAD82FCEF75F007A42449F5B0
:102FB90082E4344DF583ECF0A3EDF0904B70E0041E
:052FC900F0E0B40FD0A0
:102FCE00E4904DB2F0A3F0904DB9744DF0A3744956
:092FDE00F0E4904D47F0A3F0224D
:10337A00D20E122A79C20E22D20E122EF8C20E22B2
:10338A00D20E12CF4EC20E220238B70238C7023509
:0A339A00DA0236CC0238D70238E719
:1033A400904DFA7402F0A3E5A5F0A37480F0AF8108
:1033B400A807E6A3F0A37414F0E58114F8E6A3F0DB
:0A33C4007C4D7DF67F041220FD22EF
:1033CE00904DFA7402F0A3E5A5F0A37480F0AF81DE
:1033DE00A807E6A3F0A37415F0E58114F8E6A3F0B0
:0A33EE007C4D7DF67F041220FD22C5
:1033F800904DFA7402F0A3E5A5F0A37480F0AF81B4
:10340800A807E6A3F0A37417F0E58114F8E6A3F083
:0A3418007C4D7DF67F041220FD229A
:10003600904DFA7402F0A3E5A5F0A37480F0AF81A9
:10004600A807E6A3F0A37416F0E58114F8E6A3F07A
:0D0056007C4D7DF67F041220FDE4FEFF22AC
:10377C00E51E2425F582E4351DF58322900422757F
:09378C00F003E55D1207E4E02200
:100BBB00E58E20E30690B8337401F090B825E0542D
:050BCB00FEF053A2F34F
:100BD000E4F559F55A000000000000000000000094
:100BE0000000055AE55A70020559B498E8E559B471
:020BF00006E31A
:100BF200904E2BE0B401035387F7D2A4D2A053A1A5
:100C0200EE00000000C205D200781FE6FF30E602C7
:100C1200800EEF30E704C200801120A40920A00654
:100C2200D205C200800520A002C20090A4F7748100
:100C3200F0123392781FE620E32DE4904FEEF0A3FA
:100C4200F07E4F7FEE7B02FA7DEE7C0112339890AC
:100C52004FEEE0B4AA0BA3E0B455067DFF7FFF8000
:100C62000E7D017F048008904ED6E0FFA3E0FD12C6
:100C7200339530050BE490BD03F075A50112ACE984
:100C8200120E0D75A897E490B203F0121FF3300014
:100C92002E75A50412CEAD904EB7E06006E4F5A520
:100CA20012FA27904EE5E06006E4F5A512C9959088
:100CB2004ECFE030E30312A7E4E4F5A512393FE496
:080CC200F5A512EF12E4F5A5FF
:100CCA0090BE2AE0FF90DCEBE06F7003020DA79064
:100CDA00CC04E0FF64016008EF64026003020D9F28
:100CEA0090BE2AE078BAF290BE29E018F2A3E0FF9B
:100CFA0008E2B507EBE22401F218E23400F21237F7
:070D0A007CE07003020D9F65
:100D1100C2AFE51E242A123780E0FFA3E078B5CFE9
:100D2100F208EFF2E51E2428123780E0FFA3E00865
:100D3100CFF208EFF2D2AF78B5E2FE08E2FFC37856
:100D4100BAE29F79B6F318E29E19F378B7E2FE088A
:100D5100E2FFD378B6E29F18E29E4042E4251EF5F9
:100D610082E51D3401F5837408F012377CE4F0123A
:100D71002130904B6DEEF0A3EFF02404F582E43EB8
:100D8100F5837404F0EF2405F582E43EF583E51C58
:0E0D9100F0904B6DE0FCA3E0FD7F061220FD0C
:080D9F0090BE2AE090DCEBF0AD
:100DA700904E1EE030E00975A50112E769E4F5A54C
:100DB700E490BD0CF0E5716003020C8DF5A5904E33
:100DC700B5E030E00312F8AEE4F5A5904E46E054E6
:030DD7000F601496
:100DDA00E4F5A512DB53904B6FEFF0E4F5A5EF6055
:040DEA0003020C8D67
:100DEE00904E46E054F07003020C8DE571600302E4
:0F0DFE000C8DE58754FC4401F5870000020C8D35
:100E0D00E4F5A8781FE620E352E4904FEEF0A3F04E
:100E1D00904E1BF07E4E7F007BF07A01FDFC12336D
:100E2D00987ED37FF57B207A017DE07C021233988A
:100E3D00904E1CE090DCECF0904FEEE064AA700454
:100E4D00A3E06455601575A5017E4E7F007C407D45
:100E5D00007BF07A011235FFE4F5A590CBED740619
:100E6D00F0E4F5A5128B1BEF600675A50112ACE938
:100E7D00E4F5A520000B904E217403F0758E0180D2
:100E8D0006904E20E0F58E1237F61218EC123959F5
:100E9D00122E43122F9912383EE4F5A512E787E47E
:100EAD00F5A5F5A512398BE4F5A5781FE630E20D11
:100EBD00120FCC8F82F5837410F0120FEC781FE6B1
:100ECD0054306010120FCC8F82F5837410F0781FA0
:100EDD00E6120FEC781FE630E3441221308E5B8F63
:100EED005C8F828E83E5822404F582E43583F5835D
:100EFD007402F0EF2406FFE43EFE8F82F583740E3C
:100F0D00F0A3E4F08F828E83A3A37403F08F828EFF
:100F1D0083A3A3A3F0AD5CAC5B7F041220FD300076
:100F2D00141239EF1239DB1239E512399F1239D10A
:100F3D001239A98006781FE654C0F6123977123996
:100F4D006312398112396D12FA13C288C28AE49084
:100F5D00BD13F090BD03F090BD1B740FF090BD0A52
:100F6D00743DF0A37409F090BD037401F0E490BDDD
:0B0F7D000CF075A50112E756E4F5A585
:100F88007E047F227B08FA7DD87C02123398900475
:100F980028E0FEA3E064557003EE64AA7025F55DB1
:100FA800123788FEA3E04E601390042412378BFF9B
:100FB800123788FCA3E0F5828C83EFF0055DE55DD0
:030FC800B402DD93
:100FCB00221221308E5B8F5C8F828E83E58224040C
:100FDB00F582E43583F5837402F0EF2406FFE43EDB
:0D0FEB0022A3F0AD5CAC5B7F041220FD2260
:1038550090D518E0249AF582E434D5F583EFF090FD
:06386500D518E004F0227A
:03000000021B5A86
:03003300021EC0EA
:03000300021DAC2F
:03000B00021EC111
:03001300021DEDDE
:03001B00021ECFF3
:03002300021E9624
:03002B00021ECEE4
:03006300021ECFAB
:101DAC00C0D0C0E030361153A4DF90B203E0547FB2
:101DBC00F090B207E020E7F9C0F0C092C083C08277
:101DCC00C085C08475D008759200121259300F412D
:101DDC00D084D085D082D083D092D0F0D0E0D0D037
:101DEC0032C0D0C0E0C0F0C092C083C082C085C0F9
:101DFC008475D0087592001238F7200503300E1147
:101E0C00D084D085D082D083D092D0F0D0E0D0D006
:011E1C003293
:101E1D0075D000C0A5C000C001C002C003C004C081
:101E2D0005C006C00775A500200E2F7441C0E074D3
:101E3D001EC0E032122592D007D006D005D004D0B6
:101E4D0003D002D001D000D0A5D084D085D082D0CF
:101E5D0083D092D0F0D0E0D0D0227470C0E0741E48
:101E6D00C0E032122BD9D007D006D005D004D00354
:101E7D00D002D001D000D0A5D084D085D082D0831F
:091E8D00D092D0F0D0E0D0D022B8
:101E9600C0D0C0E0C0F0C092C083C082C085C084FC
:101EA60075D00875920012297BD084D085D082D057
:0A1EB60083D092D0F0D0E0D0D032FB
:101EC00032C000C0E0C0D0D0D0D0E0D0003232323A
:1020FD00748055A870030221FCC2AF1221FCD2AF2F
:10210D0022748055A87003022E9EC2AF122E9ED24D
:10211D00AF22748055A87003022C4AC2AF122C4A0C
:10212D00D2AF22748055A8700302344CC2AF123462
:10213D004CD2AF22748055A87003023475C2AF1211
:10214D003475D2AF22748055A8700302349EC2AF8D
:10215D0012349ED2AF22748055A870030234C7C2C8
:10216D00AF1234C7D2AF22748055A870030231BBB1
:10217D00C2AF1231BBD2AF22748055A870030231A9
:10218D00F1C2AF1231F1D2AF22748055A8700302A3
:10219D003227C2AF123227D2AF22748055A87003F6
:1021AD00021C88C2AF121C88D2AF22748055A87051
:1021BD0003021A29C2AF121A29D2AF22748055A870
:1021CD0070030229FBC2AF1229FBD2AF22748055D6
:1021DD00A87003023106C2AF123106D2AF2274804D
:0F21ED0055A870030235B5C2AF1235B5D2AF2277
:03000E00021B8B47
:03001600021B5A70
:093A6700740EC0E07400C0E032EE
:101B5A0043A110D2A4C2A490BD147401F0E4F00011
:101B6A0000000000000000000090BF00E4F090A414
:101B7A00F4E04480F090BD10E05407781FF6752019
:101B8A000043A110D2A4C2A4D2A4C2A490BF00E46C
:101B9A00F090BD18740FF090BD007401F090BF0072
:101BAA007403F075A50075D00078FF79DFE4F618A4
:101BBA00D9FC781EF6D8FD75A4045387DFC2A0535A
:101BCA00A3FE75A70078007F00E4F208DFFC90010D
:101BDA00007F007E4DE4F0A3DFFCDEFA90C0007FB8
:101BEA00007E40E4F0A3DFFCDEFA75790090000085
:0E1BFA0078107455F0A3D8FC7581FF021C43CF
:10368B00904E00E090B803F0904E01E090B802F03D
:10369B00904E02E090B801F0904E03E090B800F02D
:0136AB0022FC
:103FC000C2AF90BD03E4F00000438E08F80000008B
:033FD00002000EDE
:103FE000C2AF90BD03E4F00000538EF7F80000006C
:033FF00002000EBE
:103795008E858F848C838D82EB600DE493A3759267
:0937A50001F0A3759200DBF32290
:1035FF008E858F848C838D82EA7003EB6015EB6070
:10360F0003EA04FAE493A3759201F0A3759200DB29
:04361F00F3DAF122C7
:0D3925008E838F82EB6005EDF0A3DBFB22AB
:1037AE008E838F82EA7003EB600DEB6003EA04FAFE
:0837BE00EDF0A3DBFBDAF922B8
:1036AC008E858F848C838D82AF031BEF6010E0A31B
:1036BC00FF759201E0A37592006F60ECD322C322D8
:1037C6008E858F848C838D82EB600CE0A3759201CD
:0837D600F0A3759200DBF42260
:103422008E858F848C838D82EB601EE0FFA3E0FE8D
:10343200A3E0FDA3E0A3759201F0A3EDF0A3EEF0EB
:0A344200A3EFF0A3759200DBE22275
:103623008E858F848C838D82EA7003EB6014EB604C
:1036330003EA04FAE0A3759201F0A3759200DBF4A8
:03364300DAF22296
:1036EC008E858F848C838D82EB60121BE493A3FFF9
:0F36FC00759201E0A37592006F60EDD322C32297
:10334F00D310AF01C3C0D0EFF5E9EDF5EDEEF5EA1F
:10335F00ECF5EE7402140070FC00E5E9FFE5EAFEFF
:0B336F00E5EBFDE5ECFCD0D092AF22B6
:1034F000D310AF01C3C0D0EFF5E9EEF5EAEDF5ED7D
:10350000ECF5EE7402140070FCE5E9FFE5EAFEE577
:08351000EDE5EED0D092AF22F0
:10325D00D310AF01C3C0D0EDF5E9ECF5EAEFF5EB16
:10326D00EEF5ECEBF5EDEAF5EE7404140070FCE50B
:10327D00E9FFE5EAFEE5EBFDE5ECFCE5EDE5EED07D
:04328D00D092AF220A
:10351800D310AF01C3C0D0EFF5E9EEF5EAEDF5ED54
:10352800ECF5EE7402140070FCE5E9E5EAE5EDFF60
:08353800E5EEFED0D092AF22B7
:1032C400D310AF01C3C0D0EDF5E9ECF5EAEFF5EBAF
:1032D400EEF5ECEBF5EDEAF5EE7404140070FCE5A4
:1032E400E9E5EAE5EBE5ECE5EDFFE5EEFED0D092AD
:0232F400AF2207
:102AF1008E858F848C838D82EB22E0FFA3E0FEA381
:102B0100E0FDA3E0FCA375920122122AF1601F12DD
:102B11002AFBF0A3DB028016EDF0A3DB02800FEEAF
:102B2100F0A3DB028008EFF0A3759200DBE1759260
:102B31000022122AF1602B122AFBEBC394044002FB
:102B4100ECF0A3EBC394034002EDF0A3EBC39402BA
:102B51004002EEF0A3EFF0A3759200EBC39404FBE7
:062B610050D57592002220
:10314700F582E43583F5837401F08F828E83E582FF
:10315700222424F582E5833401F58322F582E435C0
:1031670083F5832224E6F582E43EF5832278B6E6EA
:0B317700FE08E622789CE2FE08E2223F
:10366900E490DC2FF090DC30F090DC31F0784DF212
:1036790008F290DC3CF090B403F090BC22E0547F57
:02368900F0222D
:1023D900C2AF90BE12E04403F0D2AF90CC08E054F3
:1023E900FCF0E4F51C751DC9751E0F785DF290B8F7
:1023F9001BE04480F090B817E04404F0E490D0BBAF
:10240900F090D0BCF078787401F2087400F2E478A6
:1024190055F2785B7404F2E4FFEF75F009A4247EA9
:10242900F582E434CDF583E4F0EF75F009A424ECEA
:10243900F582E434CCF583E4F00FBF10DC788AE24E
:10244900541DF2788BE254A0F208E4F220000975D9
:10245900A50112C990E4F5A5E490CCD9F090D0A3D8
:10246900F0C22190BC23E054FDF07E147F2A90B67F
:102479000AEEF0A3EFF0783FEEF208EFF27E1C7F50
:102489005D90D8D5EEF0A3EFF090B60EEEF0A3EF85
:10249900F0E490D8DCF090B807F090B805F090D04F
:1024A90091F090D090F090D0A5F090D0A4F0C219FE
:0124B9002200
:041013008F438D4436
:10101700E4789EF208E5A5F275F06FEF90C90F121C
:1010270007E4EF2583AF82FE78B6F608EFF68E83E6
:10103700E0700FE54464026009E54464046003025C
:101047001258E544640B6013E5446404600D75A50C
:1010570001AF4312D6ECE4F5A5C223E5446404606E
:101067000B75A501AF4312D401E4F5A5123174F550
:10107700828E83E030E50B75A501AF43129CF5E442
:10108700F5A57B06AD437FFF12146C90DC2FE0B40F
:101097000103123669E543D39400401C123174FFF3
:1010A7008E83123158E06010123151123158E4F03A
:1010B70090DA18E0600214F0E54375F00AA424BF43
:1010C700F582E434D0AF82FE7B0AE4FD12392512A3
:1010D70031748E83246512315AE05406604390CDF3
:1010E7007CE07002A3E06039E49046AEF09046AF32
:1010F700F0A3F09046B2F09046B1F0122130789C00
:10110700EEF208EFF2240412316D7419F0EF2405A2
:1011170012316DE543F018E2FC08E2FD7F0812206A
:10112700FD123174FF7B6F7A01E4FD1237AE123185
:1011370074FF8E83241C1231637404123150241FF0
:10114700123163E4F0A37428123150240A12316378
:1011570074081231502415123147241312314724D1
:101167001412314724171231472426123163747D34
:10117700F0A3E41231502428123163E4F0A374FA87
:10118700F0904E36E014FF18E6FC08E6FD8C832449
:101197002212315AEFF08D828C83E58224191231A5
:1011A7006374FFF090DB5EE0FF8D828C83E5822421
:1011B7001712315AEFF0785BE2B543037404F2E596
:1011C70043C394015034C2AF90CC08E054FEF0E51D
:1011D70044640B600790CC04E054FCF0D2AF90DA83
:1011E7001BE4F090CBFE1207B300000000E490CBA5
:1011F700FDF0788BE254EFF2803090CC08E054FD9C
:10120700F0E544640B600BE020E00790CC04E05469
:10121700FCF090DA18E0701290DA07F090BC22E048
:10122700547FF0C221E490DA5CF090CE9DE0B543A4
:10123700037402F090CC04E070081223D9789E74EE
:1012470001F2789EE260057F01122FE7789FE2F5B1
:01125700A5F1
:011258002273
:0222F3008F4317
:1022F500E4789EF208E5A5F275F0F3EF90448212BA
:1023050007E4AF82AE83789CEEF208EFF2E070034B
:102315000223D812317BFF24E712316DE4F0EF126E
:10232500316BE0FF30E70590D091800E12317B12C2
:10233500316BE0FF30E60D90D090E0FEEFF4FFEE5C
:102345005FF0801C90D0A5E0FF789CE2FC08E224B9
:10235500E6F582E43CF583E0F4FEEF5E90D0A5F06F
:10236500E5434480F54475A501AF4312D6ECE4F589
:01237500A5C2
:1023760075A501AF4312D401E4F5A512317BFF7BAD
:10238600F37A00E4FD1237AE90BF23E04440F0E458
:102396007870F2786DF290CC08E054F3F090CC04AB
:1023A600E054F3F070111223D9C24E90B433E054C6
:1023B600FCF0789E7401F2789EE2601190DB56E0A4
:1023C600700B90DD08E060057F01122FE7789FE231
:0223D600F5A56B
:0123D80022E2
:0A396300E4F5A512F9E7E4F5A5224A
:0A396D0075A50112E76FE4F5A5222D
:05000600E47862F22223
:043291008F458D4692
:10329500122130904B42EEF0A3EFF02404F582E4C6
:1032A5003EF583E545F0EF2405F582E43EF583E53B
:0F32B50046F0904B42E0FCA3E0FD7F020220FDBB
:1035680090BE27E0904ADDF090BE24120701904AF1
:10357800D912079B90BE27E0FF904ADDE0B507E02F
:06358800904AD912070170
:01358E00221A
:022FE7008F4514
:102FE9007F0390CC04E07003D38001C34002E4FF67
:102FF90090DD08E0520790DB56E0B50703EF702833
:1030090090DB56EFF0122130904B3FEEF0A3EFF03A
:10301900904B3FE0FCA3E0FD2404F582E43CF583FA
:083029007445F07F051220FD43
:01303100227C
:083A7000063020063900302069
:0A39770075A50212D02AE4F5A5227E
:023182008F3D7F
:1031840085A53EE4F5A5E53D701275A5017E4E7F4B
:10319400007C407D007BF07A011235FFE53DB404EC
:1031A4001275A5017ED37FF57C447D907B207A0146
:0631B4001235FF853EA567
:0131BA0022F2
:1037DE0085A53DE4F5A57E147F2A7C407DC97BE05E
:0737EE00FA1235FF853DA52D
:0137F50022B1
:0C39320085A54375A50212E0E08543A5C1
:01393E002266
:0A39810075A50112B0ACE4F5A52213
:10374600E5A5F075A5012275F005A42467F582E4C8
:0C37560034DAF58322EFF0A3E0F5A522A1
:10307B0090DA61E012374DE0703B90DA61E0FB755E
:10308B00F005A4246AF582E434DAF583EEF0A3EFBD
:10309B00F0EB75F005A42468F582E434DAF583ECE3
:1030AB00F0A3EDF0EB12374D7401F090DA61E00410
:0630BB00F0E0540FF022CA
:0C393F0085A55B75A50112C84B855BA532
:01394B002259
:0F38B700904AB812374612D19A904AB8E0F5A558
:0138C60022DF
:0F38C700904AB812374612B595904AB8E0F5A569
:0138D60022CF
:0F38D700904AB912374612A5C1904AB812375B12
:0138E60022BF
:0836CC008E778F78AF05AE0484
:1036D40090DCEE123746AD03AC02AB78AA771297B2
:0736E4002890DCED12375BBA
:0136EB0022BC
:1035DA0090DCF01237467888ECF208EDF27884EA4B
:1035EA00F208EBF27886EEF208EFF212E2E090DCF3
:0435FA00EF12375B3A
:0135FE0022AA
:0F38E70090DD041237461275EA90DD04E0F5A576
:0138F60022AF
:0A398B00E4F5A512C5CBE4F5A52272
:1037F600759850758920E587547F4480F587758DC7
:08380600E6D28ED299C298228D
:0A39950075A5011298B1E4F5A52212
:10386B00E4F5A512F4F812A4D31272EE12DBE2E423
:03387B00F5A5228E
:1036460090B001EFF0A3ECF0A3EDF090B005E044EC
:1036560010F0E4904B5EF000904B5EE004F0E0B4B6
:023666000AF563
:01366800223F
:10100000353035305F535050000000000000203074
:03101000000300DA
:0A399F0075A50312DB45E4F5A5222F
:0A39A90075A50312D22DE4F5A52246
:0A39B30075A503129C1775A50422E8
:0939BD0075A50312A62E75A504E0
:0139C60022DE
:0939C70075A50312BD2C75A504C1
:0139D00022D4
:0E39170075F06DEE1207E4EE2583F583E022D5
:0A39D10075A50312D9BAE4F5A5228A
:10370B00E4FE90D14C123917B5070B90D1501239FA
:0D371B00176003AF06220EEEB401E77FFF3A
:01372800227E
:10303200904C1AEEF0A3EFF0EB4A603C90A403E050
:1030420020E1F9C2AFAF0590A406ECF0A3EFF0AF18
:103052000390A40AEAF0A3EFF0904C1AE0FFA3E079
:1030620090A412CFF0A3EFF090A403E04402F0D2B8
:09307200AF90A403E020E1F92273
:0A39DB0075A50312F31FE4F5A52201
:0A39E50075A50412F0CDE4F5A5224B
:10358F00A31207F08E827583001203CC6F22EEC454
:10359F003354E02492F582E43449227B017A4F7947
:0635AF00C7120810E4221F
:0A39EF0075A50412E111E4F5A5220C
:0A39F900E4F5A512F32075A50422E1
:1032F600E4FE12359DF583E0B50719EEC43354E0BC
:103306002495F582E43449F583E030E00712359DD3
:0C331600AF82FE220EEEB401D9E4FEFFEF
:013322002288
:1037290090A4B3EDF090A4B2EBF090A4B1EFF090B7
:0D373900A4B07480F090A4B0E020E7F92265
:1030C100904C09EEF0FAA3EFF0FBA3ECF0FEA3EDB8
:0230D100F0FF0E
:1030D300A37401F0AD03AC02FB7A0012339BEF70D3
:1030E3001C904C09E0FEA3E0FFA3E0FAA3E0FB7D04
:1030F300017C0012339EEF7004904C0DF0904C0D48
:02310300E0FFEB
:0131050022A7
:10387E00AB07AA06AE04AF05AC02AD037B017A001E
:03388E000233986A
:0A3A030075A50312B00575A5042295
:10389100904BFDE5A5F075A50412E62A904BFDE0DD
:0238A100F5A58B
:0138A3002202
:1038A400904C00E5A5F075A50412DB60904C00E097
:0238B400F5A578
:0138B60022EF
:0C394C0085A56075A50412F2878560A5B2
:01395800224C
:0A3A0D0075A50212FCDB75A504226A
:0A3A170075A50212FD2575A5042215
:0A3A210075A50212538E75A504224C
:0A3A2B0075A50212617575A504224D
:0A3A350075A502129F3B75A504223F
:0A3A3F0075A50412F28775A5022296
:0A3A490075A50412DB6075A50222CA
:0A3A530075A50412E62A75A50222EB
:1027D900904C051235AA904C04F0904C04E0FEC3CD
:1027E9009408500D12358F6008904C04E004F08075
:1027F900E9904C04E0120825281D002827012831FA
:1028090002283B03284504284F0528590628630751
:102819000000286CED6003D38001C3928022ED6033
:1028290003D38001C3928522ED6003D38001C39253
:102839009722ED6003D38001C392B122ED6003D3E7
:102849008001C392B222ED6003D38001C392B32207
:10285900ED6003D38001C392B422ED6003D38001FC
:03286900C392B760
:01286C002249
:102CB700904B7E1235AA904B7DF0904B7DE0FEC382
:102CC7009408500D12358F6008904B7DE004F0801A
:102CD700E9904B7DE01208252CFB002CFF012D030A
:102CE700022D07032D0B042D0F052D13062D170796
:102CF70000002D1DA280801AA2858016A29780123F
:102D0700A2B1800EA2B2800AA2B38006A2B480024A
:082D1700A2B7E433FF227F02A2
:012D1F002291
:0A3A5D00E4F5A512E78775A5042221
:1094360090B60A741CF0A37470F090B60E741CF00B
:10944600A37482F0C2152254F8FFE04F90B81BF0C7
:10945600E054874410F090B817E054074490FFE4B6
:1094660090B816F0A3EFF022F0A3EFF090BE27E03D
:109476000490BA03F02290BE2BE00490BA0BF09051
:10948600BA2B7402F022F090BF237460F090BE23D2
:10949600E04401F02290BE27E054FC440390BA0356
:1094A600F090BA237401F0784722E5822405F5820C
:1094B600E43583F58322E090CA33FF75F06F120717
:1094C600E4EF2583F58322F090BE23E054FCF022DE
:1094D600E025E0FFA3E0C413131354014F22E4F583
:1094E6001CF51C7EC97F0F8E1D8F1E8E1D8F1E22A2
:1094F60090BE26E0F2A3E054FC08F290CCE6E0FE33
:10950600A3E054FCFF08EEF2FE08EFF22290B61A32
:10951600741CF0A3745EF02290CC08E04402F0754F
:109526001C01751DCA751E7E2290BA237402F09026
:10953600BF23E054FEF022E4F08F828E83E5822280
:1095460090B85FE0640B2278AEE625E024D6F5827B
:10955600E4344DF583E0FEA3E02290BE27E054FC00
:1095660022D22F90BF23E04418F02254FC25E0FFBE
:10957600901C6CE054074FF02290B81BE0548722F1
:10958600E05402FF90BC23E054FD4F22904DDFE0F3
:10959600D3941022904DE3E054FDF02290BF23E0D7
:1095A6004401F0E054E7F0224440F090BE1AE05443
:1095B600FEF022904DDFE004F02290BE27E00490FA
:1095C600BA0BF0227857E2FF90BE27E06F2290B8E0
:1095D6001BE054F822904DF4E04410F0C22222E041
:0F95E60090B684F090B68EE02290BE0802070186
:1041C700E4F54F90DD06E0F54EE4F0C222788CE28C
:1041D7004401F2A220B34003024C1190C90EE01231
:1041E700082544D80146A702487F034A220442080B
:1041F7000543760642020700004BD612F447024BEE
:10420700DCD222904DEFE0540D24FB606724F87058
:0B4217000302432E240C6003024371DD
:1042220078A41294F678A5E26F700318E26E7044D7
:1042320078A8E624FE6003024BDC124C5312E856C7
:1042420012951390B81BE090C91012944D129472FB
:10425200E4FDFF12D5F390CA331295861294A67428
:1042620005F2904DEFE04404F07F1A12F385904D71
:06427200DF0247DEC2225C
:10427800024BDC78A8E624FE601B24026003024B94
:10428800DC12D99E12943612956044011294811260
:104298009535024BDC12954660FB90BF43E020E069
:1042A80009904DDFE0D39402404212F9B7124C4511
:1042B80090CBFE1207B300000000904DF0E0FF1213
:1042C800EB5F12F4A190CC047401F0C21112951E98
:1042D800904DEFE04408F07F1012F385D222E4906D
:1042E8004DDFF090CA81E04490F0802F12D99E12E1
:1042F800951312E85690B81BE090CBFD12944D121E
:104308009560440390BA03F0904DF0E0FFE4FD128D
:10431800D5F390BA237401F01295B978457405F273
:104328007847F2024BDC129592400E7F1912F38502
:1043380012EBBA1294E4024BDC12F01C12948D902A
:104348004DF0E090C9121294C0E04460F0C22275AA
:10435800F06FEF90CA331294C4E090DA2DF0904DCC
:10436800F01294BCE4F00244CDC222024BDCD2220B
:10437800904DE7E0546D24FB700302440924F87063
:104388000302447324E0700302447B24C0700302D8
:0943980044AC246C60030244D320
:1043A10078A81294F678A8E2FC08E2FDC3EF9DFF1D
:1043B100EE9CFED3EF9418EE9400504778ABE26D7B
:1043C100700318E26C6003024BDC78A8E624FE70EF
:1043D1002A124C1290CCDAE0FFE4FD12D5F390CC16
:1043E100DA1294BC129586129484904DE7E044044D
:1043F100F07F1D12F385E4904DDFF078457408F2EB
:05440100024BDCC222A9
:10440600024BDC78A8E6602E24FE6003024BDC1229
:104416009592400B7F1B12F385751C01024BDC1233
:104426004C12E4FDFF12D5F31294851295357845AA
:064436007408F20244CDFF
:10443C0012954660FBE0640460F6E0640560F19060
:10444C00BF43E0F55020E203024BDC124C5312F94F
:10445C006412956044011294A37408F2129567E4F7
:04446C00904DDFF0A0
:10447000024BDCE4FF12EB5F024BDC12BEA7904D57
:10448000E7746DF090CC047402F090CC08E0440125
:1044900012948CC2221294E490CA33F090CBFDE0C7
:1044A00090C910F01295B9D219024BC912959240D9
:1044B0001A7F1C12F38512F4A112952590CA81E08F
:1044C00044F0F0E490C90EF0024BDCC2221295B920
:1044D000024BDCC222024BDCD222904DF1E054317F
:1044E000640160030245C978A8E614604114606263
:1044F00014605F24036003024BDCE54E640160033B
:10450000024BDC12943612947212DD8612952F78CB
:10451000457401F290DD0604F0E490B81FF090B805
:1045200053F0C22F90BF23E054EFF0024BDC129403
:1045300093E54E64026003024BDC1294361295C080
:1045400012DD86129485784514F290DD0604F0029F
:104550004BDC1294CEE54E64047003024BDC1295E2
:104560004660FB90BF43E030E034E54E6402702EBD
:1045700078A8E6B4020512F9B7800312F9AB90DD12
:10458000067404F0D22F90BF23E04410F0784574F5
:1045900001F290BE27E024027857F2024BDC12F9B8
:1045A0006478A8E6B4020C12947212DD861294A705
:1045B0000247C0124C3812DD8690BA2B7401F07895
:1045C00047F290DD06F0024BDC904DF1E0F95431FA
:1045D000641170521295CA6003024BDC90BC1BE060
:1045E0004440F0E4783EF212954DFF240EFDE43E87
:1045F000FCAB0590B60AF0A3EBF0EF24FEFFE43E1F
:1046000090B60E12946EE490B805F090BA2374023E
:10461000F0E94420904DF1F0AF05AE047BF0E4FDED
:10462000123925024BDC904DF1E054716431705227
:10463000F550783EE204F2E264026003024BDC12C1
:10464000954660FB90BF43E030E01B90B85FE064AC
:104650000460F8E0640560F3000000000090BF43D0
:10466000E030E1058000755001E550600FE4FF1275
:0F467000E559904DF1E054CFF0024BDC12956705
:10467F00024BDC904DF1E0FF547164716003024B0B
:10468F00DCEF20E3047F018002E4FF12E559904D37
:10469F00F1E05487F0024BDCD222904DF4E0540D40
:1046AF0024FB70030247E424F8700302487A240CB9
:1046BF006003024BDC1294CE78A8E61460271460D6
:1046CF004414604124036003024BDCE54E64016037
:1046DF0003024BDC129472C21512C6C512952F78C5
:1046EF004574038017E54E64026003024BDC12959C
:1046FF00C0C21512C6C5129485784504F290DD0626
:10470F0014F0024BDC12954660FB90BF43E030E0A3
:10471F004AE54E6402704478A8E6B4020512F7D059
:10472F00800312F9B790BE24120701904DE01207D3
:10473F009B12959A904DEE7401F012D07A12949BC1
:10474F007404F21295D412945512EC7012951390C2
:10475F004DF4E04404F07F08024874904DECE030D3
:10476F00E11A78A8E664036003024BDC1295DB12B2
:10477F009493E490C90EF07F07024874904445E08B
:10478F0030E01A78A8E664036003024BDC1295DB75
:10479F00129493E490C90EF07F0702487412F964E3
:1047AF0078A8E6B4021512947212C6C51294A774B3
:1047BF0003F290DD06E54EF0024BDC124C3812C6C8
:1047CF00C590BA2B7401F078477403F290DD06742C
:1047DF0001F0024BDC78A8E624FE6024240260037B
:1047EF00024BDC904DE3E04402F012D07A12956058
:1047FF00440190BA0BF012943612948578458027B5
:10480F00904DEEE004F012954660FB90BF42E03011
:10481F00E01B12959A12D07A12951312EC70129522
:10482F00D412945512949B7404F2024BDC90BF4344
:10483F00E020E003024BDC12948D12F9B712F01C4A
:10484F0090CC047401F0C211124C4512951E90CAFF
:10485F0081E044F0F0E490CBA2F0C222904DF4E05E
:10486F004408F07F1012F385024BDCC222024BDCAE
:10487F00D2221294CEE04401F078457402F2904DAA
:10488F00EAE0FF541924F7604F24F0605F241860AA
:10489F0003024921EF30E6121295A2904DEBE02072
:1048AF00E6031295AE754F01806A78A8E664027030
:1048BF0063754F0112E19B12947C904DEAE04440E6
:1048CF00F090DB58E02401FB90DB57E03400FAE472
:1048DF00FD7F0F1221A7803C90DB52E06009904DC5
:1048EF00EBE04401F0802D904DEA8020904DEBE0FD
:1048FF0020E4217F0C12F385C2AF90BE12E0440377
:10490F00F0D2AF788CE254FEF2904DEBE04410F011
:10491F008002C222904DEBE0FF5407FEBE0109EF6B
:10492F0044021294CD024BDCEE640360030249F79C
:10493F001294CE1295CA6003024BDC1295D4F0E0AC
:10494F00547FF090B81AE054FEF0E054FDF090DB85
:10495F0081E0602590DB52E0FDD394115008129551
:10496F007F4418F08036EDD3947912957F5005442B
:10497F0050F080284470F0802390DB52E0FDD394F8
:10498F001B500812957F4420F08011EDD394B7127D
:10499F00957F50054458F080034478F090B817E0A5
:1049AF0054FC4402F0E054FBF090DB52E075F00849
:1049BF00A4FF90B817E05407FDED4FFFE5F01294F8
:1049CF006678477409F2901D11E0FFA3E090B61AC4
:1049DF00CF12946EE490B805F090BA2304F0904D86
:1049EF00EBE04404F0024BDC904DEBE0FD54076428
:1049FF00076003024BDC1294CE90B85BE0600302B9
:104A0F004BDCED54F8904DEBF0904DEAE04410F094
:104A1F00024BDCD222904DECE0FF543D24FB606A48
:104A2F0024E87003024B7B241C6003024BD2EF304F
:104A3F00E612904DEDE020E6031295AE1295A275A9
:104A4F004F01803E78A8E664027037754F0112E976
:104A5F00871294CEE04401F012947C904DECE04428
:104A6F0040F0904E06E070057B80FA800F90DB5C83
:104A7F00E02401FB90DB5BE03400FAE4FD7F0F12D2
:104A8F0021A778457406F2024BDC784AE2FDC37821
:104A9F00A8E69D5403F54D6401705112959A90BE8E
:104AAF0027E0C39D1313543F04904DEEF0E0FF64D5
:104ABF00057003024B74EFD3940540147F1312F368
:104ACF0085904DEC74801294CDE04401F0024B744C
:104ADF0012943690B85BE0640C60F8E0640160F308
:104AEF0012E11E90BE2712947F024B74904DEEE0A0
:024AFF006073E2
:104B0100E58E547070057551288003E4F551E4F584
:104B110050E550C39551500500055080F4E54D64B2
:104B2100036004E54D704C90BF43E030E04590B820
:104B31005FE0640560F8000090BF43E030E231902F
:104B4100B82BE054786410702790BE27E07858F2B3
:104B5100904DE3E04402F012E11E12F964129472E6
:104B610090BA237401F012956778457407F28003B7
:034B710012F9B77F
:104B740078457407F2806112BEA790BE27E0540303
:104B840078A8F6904DECE04420F090CC08E0440185
:104B9400F090CC047402F01294E490CBFDE090C940
:104BA4001012948C90CA33E4F012D99E129560448A
:104BB4000390BA0BF0783FE2FF08E290B60ACFF018
:104BC400A3EFF0D22290C912E04490F0800AC222EE
:104BD4008006788CE254FEF2302232E490B8BBF0C6
:104BE400E54F600B904E3A1295E54440F0800990F1
:104BF4004E391295E554BFF090BA23E020E00790B7
:0D4C0400BA2BE030E00790B87BE054FCF0E4
:104C11002212D99E90BE27E054FC440390BA0BF0B7
:104C210090B60A741CF0A37470F090B60E741CF068
:104C3100A37482F0C2152212EDF790BE27E0049012
:104C4100BA0BF0227ECB7FF37C4E7D007B0A1237BC
:0E4C5100C62212D99E904E36E0FF12B5822286
:10EDF700904DE5E0B4FF23904DF3E004F0904DE92A
:10EE0700E0FF904DF3E0B5070C904DF2E06402F09F
:10EE1700E4904DF3F0E4904DE5F090BE27E0541CEC
:10EE27001313543FFF7401A807088002C333D8FCAB
:07EE3700FF904DE5E04FF0F4
:01EE3E0022B1
:10EC700012F9CF1295EFEF2402F555E43EF554E476
:10EC80003DF553E43CF552E555129571E55425E008
:10EC9000FFE5551294DCA3F0E55325E0FFE554129F
:10ECA00094DCA3F0E55225E0541EFFE5531294DCFA
:10ECB000FFA3E054E04FF090DB52E06007901C654A
:04ECC000E04404F038
:01ECC400222D
:10E8560090BE17E04401F0E490DC93F090CC05E024
:10E86600FEA3E0FFC39438EE94015004EF4E7016F9
:10E876001295EFEF2402FFE43EFEE43DFDE43CFC8E
:10E8860090BE0812079B90BE0BE012957190BE0ACF
:10E896001294D6901C6DF090BE091294D6901C6E00
:10E8A600F090BE08E025E0541E1294D9FF901C6F2C
:06E8B600E054E04FF022E7
:02E559008F52DF
:10E55B0012954D24FFF582E43EF5837401F01221F0
:10E56B00418E538F5412953F24041294B4740FF0C0
:10E57B008F828E831294B0E552F012F9CF1295EF81
:10E58B00E5542406FBE435538B82F58312079B126B
:10E59B00F982E5542406FDE43553FCF583ED2404A0
:10E5AB001294B4EFF078AEE6FF8D828C831294B0A8
:10E5BB00EFF0AD54AC537F051220FD78AEE664014D
:01E5CB00F659
:01E5CC00222C
:10EB5F0075F06FEF90C90F1207E4EF2583AF82FEB8
:10EB6F00752220E4F525F5298E83E582241D129464
:10EB7F00B412953D241B1294B412953D241C12948B
:10EB8F00B4740412953E24231294B4E4F0A31295A6
:10EB9F003E241A1294B4E4F08F828E83A3A3F08FD5
:0AEBAF00828E83A3A3A3E04480F04C
:01EBB9002239
:07FA130012CA7C120006225A
:10B073008E4A8F4B8F828E83E5822404F582E435DA
:10B0830083F583E024FE602B24FD603224F96050B5
:10B0930024FD605D24FA605D1460342416600302AD
:10B0A300B1BFE54B2405F582E4354AF583E0FF1291
:10B0B300F41822AF4BAE4A12BFB512210E22E54B54
:10B0C3002405F582E4354AF583E0FF12E6AF22E575
:10B0D3004B2405F582E4354AF583E0FF129276228C
:10B0E300E54B2405F582E4354AF583E0FF12F4CD00
:10B0F3002212D90722E54B2405F582E4354AF5836C
:10B10300E0FF75F06FA42412F582E5F034C9F583EE
:10B11300EF2583F583E030E11975F06FEFA4245731
:10B12300F582E5F034CAF583EF2583F583E0440126
:10B13300F022E54B2405F582E4354AF583E0FF75FB
:10B14300F06FA4246FF582E5F034CAF583EF25830D
:10B15300F583E030E11875F06FEFA42457F582E52D
:10B16300F034CAF583EF2583F583E04402F0E54B21
:10B173002405F582E4354AF583E0FF75F06FA424D6
:10B183006FF582E5F034CAF583EF2583F583E0306C
:10B19300E21875F06FEFA42457F582E5F034CAF591
:10B1A30083EF2583F583E04404F0E54B2405F58222
:0DB1B300E4354AF583E0FD7F1C12F25222C4
:10CA7C00E4FF90B81BE04480F090B817E04404F059
:10CA8C007E147F2A90B602EEF0A3EFF090B60AEE79
:10CA9C00F0A3EFF0783FEEF208EFF27E1C7F5D9092
:10CAAC00D8D5EEF0FCA3EFF0FD90B60EECF0A3EDB4
:10CABC00F090B606ECF0A3EDF090B44A7414F0A329
:10CACC00742AF090B452EEF0A3EFF07E027FF09057
:10CADC00B622EEF0A3EFF090B62AEEF0A3EFF0E45E
:10CAEC007855F27522207EC97F0F8E1D8F1E8E1DEC
:10CAFC008F1E785B7404F2E4FF75F06FEFA4242BA7
:10CB0C00F582E5F034C9F5832FF5837404F075F0E4
:10CB1C006FEFA42429F582E5F034C9F5832FF58352
:10CB2C00E4F00FBF02D390AA07E030E406788CE261
:10CB3C004440F290DCE374FFF090B8417401F09043
:10CB4C00BE28E0FCA3E0FDA3E0FEA3E0FF90DCC95F
:03CB5C0012079B22
:01CB5F0022B3
:10BFB500EF2406FDE43EFC8D82F583A3E0F5288D94
:10BFC500828C83E0F52790DCCDE0FF600C1239957B
:10BFD50090DCCDE0600302C0C130430D78B1E6547A
:10BFE500FEF612A65DC22E801030460512F9DB80E2
:10BFF5000830380512AAE9C22E303E6212660730B3
:10C005001807E478A9F612BC7978A8E620E04390F1
:10C01500DA5CE0B4090990B677E0547FF0801090BF
:10C02500B677E0FF90DC87E0FEEF4E90B677F090B4
:10C03500DA2FE0B4090312E30C12FA1A9046ABE0CA
:10C0450030E00512F794800A9046ABE030E1031228
:10C05500E217301807E478A9F612BC79C232303DF0
:10C065002830152290B60EE0FEA3E0FF90D8D5E06B
:10C07500B50607A3E0B50702D21690B81BE0547FBA
:10C08500F0E4FF12CEDBC23022303B06E4FF12CED5
:10C09500DB22303C07302F24127A4C2230450C78B5
:10C0A500B1E6B40217E4F612F2862230440E90BFD0
:0DC0B50022E054CFF0E478B1F612F6F32249
:10AAE90090BF23E054FEF020190302AB7990CC0407
:10AAF900E06402707BE51E2468F582E51D3401F5EA
:10AB090083E0D394004026851E82851D83A3E0FF40
:10AB190090B82BE05407B50704E478A9F6E51E249C
:10AB29006AF582E51D3401F583E4F0801290B85F7F
:10AB3900E0640B60F8E0640460F3E0640560EE1221
:10AB4900BC79E51E2468F582E51D3401F583E064CE
:10AB590001600302AC5CE51E2449F582E51D340160
:10AB6900F583E06404600302AC5CAF1C124C5F2205
:10AB7900783CE224FA60792404600302AC5C12F99F
:10AB8900B712F895E490B81FF090BE27E00490BA88
:10AB990003F090BA237401F090B81BE054F8F0E088
:10ABA90054874410F090B817E054074490FF90B8C8
:10ABB90016E4F0A3EFF078477409F212EC7090B63E
:10ABC9001A741CF0A3745EF0904DEAE04408F0900A
:10ABD900DB52E0600990BE27E024047857F2788CB4
:10ABE900E24401F2782BE2FBE4FD7F0F1221B82247
:10ABF9007858E2784AF290BE17E04410F00000005D
:10AC09000090BE00E0FCA3E0FDA3E0FEA3E0FF90FE
:10AC19004DE012079B904DE3E04402F0E4904DEEC5
:10AC2900F012E11E12F964784AE20490BA03F09036
:10AC3900BA237401F0904DECE04404F090BE23E097
:10AC490054FCF07F0A12F385782BE2FBE4FD7F0FB9
:04AC59001221B822EA
:10E8BC0090CC04E0FF64046017EF6408601290C908
:10E8CC000EE0FF64076009EF64086004EFB4092AE6
:10E8DC0090DCCCE0FF90BE03E0C39FF54DC313FF6B
:10E8EC007E001221C990BE00E0FCA3E0FDA3E0FE77
:09E8FC00A3E0FF90DCC912079BA8
:10E905002290BE00E0FCA3E0FDA3E0FEA3E0FF90A3
:0DE91500DCC912079B7F017E001221C92280
:1066070090BE17E04403F00000000090BE03E05482
:106617000378A8F6E620E06B12E8BC786DE2600329
:10662700125B2678A9E6D39400400116302428C2CD
:1066370024C2AF90BE12E04440F07865E2FF08E262
:1066470090BE06CFF0A3EFF090BE13E04480F0D2E7
:10665700AF7862740CF2227847E2783DF2E478472B
:10666700F27845E2783CF2E47845F290DA5CE0FFB4
:1066770090DA2FF0E490DA5CF0BF090790BC22E0D3
:10668700547FF078A9E670031241C778A8E6FD3079
:10669700E0030269C190BE17E04403F090CC04E028
:1066A70064016003026827ED704C30112F08E67013
:1066B7002B788CE24402F290BF23E054FEF090BEA8
:1066C70003E054FC440190BA0BF012D99E7D01AF50
:1066D7001C12D5F312C3D5C2110269B120210302DE
:1066E70069B13022030269B178A9E660030269B192
:1066F70012DE0E0269B178A8E6640260030269B18E
:1067070030192208E6601C12F9B7E51E241AF58233
:10671700E4351DF583E4F078A9F690BF23E054E74C
:10672700F0C22FC21978A9E660030269B1783CE28A
:106737006410600302682190B85FE0640B60F8E0C2
:10674700640460F3E0640560EE90BF43E0F54C201D
:10675700E2030267EB90B82BE054077859F2851EE5
:1067670082851D83A3E0FFE2FEEF6E70641253CEB5
:10677700202F030269B190B85FE0702490BF43E017
:10678700F54C30E308E4FF12CEDB0269B1E54C308B
:10679700E406127A4C0269B1E4FF12CEDB0269B15A
:1067A700302924E51E241AF582E4351DF583E4F02B
:1067B700E51E241AF582E4351DF583E0FF90B81A2B
:1067C700E054FEFEEF4EF090BF23E04418F002695C
:1067D700B1E51E241AF582E4351DF583E4F012DED7
:1067E700940269B1E51E241AF582E4351DF583E4A8
:1067F700F012DE94E51E2449F582E51D3401F58388
:10680700E020E4030269B1E51E2458F582E51D3452
:1068170001F583E4F0A3F00269B112A1B60269B1F0
:1068270090CC04E0640260030269A7301803026990
:10683700B130191490BE17E04402F0000000009038
:10684700BE03E0540378A8F690DC30E064017034AE
:10685700D3784EE2940018E29400402890DC31E0AF
:10686700602208E224FFF218E234FFF208E2700225
:1068770018E27010D22590C92EE0FFA3E0784DCF23
:10688700F208EFF278A8E66402600302697A08E684
:1068970060030269B1A222B340030269B1A24CB3FB
:1068A70040030269B190C911E054036003026965AE
:1068B70030195FC21090B85BE0700A90CA77E0FFAA
:1068C70012D691800312D99E90CA77E0FFD3940025
:1068D700403CEF25E078A9F690BF23E04401F09013
:1068E700CA5AE030E35A90CA7AE0FF7E0090CA5F46
:1068F700E0FCA3E02FFFEE3CCF24FFCF34FF90CA8C
:1069070067F0A3EFF090CA5AE054F7F08032D21044
:10691700802E90DC2FE0B4010512EAA5801990C9FA
:106927003AE0FF90BE0AE0C39FC394044004D23309
:106937008002C23312D99ED21090BF23E054FEF0DA
:1069470078457410F2E4FDFF12D5F390BE03E054CE
:10695700FC440390BA0BF012C3D5C233804C90CAE3
:1069670058E030E40690CA6C7401F0788CE254FD6C
:10697700F28037301034A222B3502F78A8E6702A5D
:1069870008E67026A24CB3502190B85FE0640B6014
:10699700F8E0640460F3E0640560EE12BC79800AF5
:1069A70090CC04E0B40803129B2C785DE260057F6D
:0A69B70002124C5F788CE254BFF22C
:0169C10022B3
:02D5F3008F5354
:10D5F50075F06FEFA424FCF582E5F034C9F5832FAF
:10D60500F583E0FFED601675F06FE553A424FDF595
:10D6150082E5F034C9F5832553F583E0FFEF6061BA
:10D62500785BE26553605375F06FE553A42499F573
:10D6350082E5F034C9F5832553AD82FC7EAC7F4C81
:10D645007B101237C690CBF3E090B80BF090CBF47B
:10D65500E090B80AF090CBF5E090B809F090CBF6E1
:10D66500E090B808F090CBF7E090B80FF090CBF8C9
:10D67500E090B80EF0785BE553F290B8537403F080
:0BD6850022E490B853F0785B7404F2CC
:01D690002277
:10D90700904DEAE0FF54486440600AEF54A0700568
:10D91700E05424602F12F9B790BF23E054FEF0784B
:10D927002BE2FBE4FD7F0F1221B8202E69904DEA10
:10D93700E0FF30E20354FBF0904DEAE054FEF07F45
:10D947000B12F385904DECE0544464406006A3E06D
:10D957005405604212F9B790BF23E054FEF0782BCC
:10D96700E2FBE4FD7F0F1221B8202E2A904DEDE057
:10D97700FF30E703547FF0904DECE054FBF090BE8E
:10D9870023E054FCF0E04401F0783CE2B40602E402
:07D99700F27F0912F3852263
:10F4CD00EF24FE601204701C904DF1E04401F090A9
:10F4DD00C90E7401F0800D904DF4E04401F090C917
:0BF4ED000E7402F0788CE24401F22261
:10F41800851E82851D83E054466023A3A3E0540320
:10F42800701C75F06FEFA42412F582E5F034C9F56D
:0FF43800832FF583E04420F0788CE24402F22227
:107564008E4F8F508D828C83E0855082854F83F0BF
:107574008D828C83A3E0855082854F83A3F08D8216
:107584008C83A3A3E0855082854F83A3A3F08D82CF
:107594008C83A3A3A3E0855082854F83A3A3A3F088
:1075A400ED2404F582E43CF583E05403FFE5502424
:1075B40004F582E4354FF583EFF0ED2405F582E41C
:1075C4003CF583E0FFC4333354C0FFED2404F5825B
:1075D400E43CF583E0FE1313543F4FFFE5502405CC
:1075E400F582E4354FF583EFF0ED2406F582E43CB3
:1075F400F583E0FFC4333354C0FFED2405F582E482
:107604003CF583E0FE1313543F4FFFE5502406F589
:1076140082E4354FF583EFF0ED2407F582E43CF581
:1076240083E0FFC4333354C0FFED2406F582E43C09
:10763400F583E0FE1313543F4FFFE5502407F58212
:10764400E4354FF583EFF0ED2407F582E43CF58350
:10765400E0FFC45403FFE550240BF582E4354FF5F5
:1076640083EFF0ED2408F582E43CF583E0FFE55078
:107674002408F582E4354FF583EFF0ED2409F58213
:10768400E43CF583E0FFE5502409F582E4354FF549
:1076940083EFF0ED240AF582E43CF583E0FFE55046
:1076A400240AF582E4354FF583EFF0ED240BF582DF
:1076B400E43CF583E0FFE550240CF582E4354FF516
:1076C40083EFF0ED240CF582E43CF583E0FFE55014
:1076D400240DF582E4354FF583EFF0ED240DF582AA
:1076E400E43CF583E0FFE550240EF582E4354FF5E4
:1076F40083EFF0ED240EF582E43CF583E05407FFBC
:10770400E550240FF582E4354FF583EFF0ED240EB8
:10771400F582E43CF583E0FFC31354FCFFED240F32
:10772400F582E43CF583E0FEC433333354804FFFE9
:10773400E5502413F582E4354FF583EFF0ED241082
:10774400F582E43CF583E0FFC43333335480FFED2A
:10775400240FF582E43CF583E0FEC3134FFFE550AC
:107764002412F582E4354FF583EFF0ED2411F58210
:10777400E43CF583E0FFC43333335480FFED24103D
:10778400F582E43CF583E0FEC3134FFFE55024117A
:10779400F582E4354FF583EFF0ED2411F582E43CF6
:1077A400F583E0FFC313540FFFE5502410F582E482
:1077B400354FF583EFF0ED2411F582E43CF583E0D9
:1077C400FFC4135407FFE5502414F582E4354FF544
:0477D40083EFF0222D
:10E3830090BE17E04440F00000000090BE00E0544F
:10E393000FF0C390BE06E0648094805035A3E02460
:10E3A300E2FE90BE06E0340490C90CF0A3CEF090D8
:10E3B300BE00E0FCA3E0FDA3E0FEA3E024FFFFEE2C
:10E3C30034FFFEED34FFFDEC34FFFC90CCE8120784
:10E3D3009B2290BE06E0FFA3E090C90CCFF0A3EF11
:10E3E300F090BE00E0FCA3E0FDA3E0FEA3E0FF90FD
:06E3F300CCE812079B229A
:08EBBA0090C90FE054466052BF
:10EBC20090BF23E054BFF090BF337440F090CCE884
:10EBD200E0FCA3E0FDA3E0FEA3E0FF90BE0012076D
:10EBE2009B90C90CE0FFA3E090BE06CFF0A3EFF02C
:10EBF20090BE12E04470F00000000000000000909F
:10EC0200BF13E0F55290BF12E0F55290BF23E044EB
:02EC120040F0D0
:01EC140022DD
:10F4A10090BF23E054BFF090BF337440F090BE1280
:10F4B100E04403F000000000000090BF13E0FF9063
:0BF4C100BF12E0FF90BF23E04440F0CA
:01F4CC00221D
:0FF96400E490B807F090B81BE054874468F02295
:04F252008F558D56F1
:10F25600122130904B6AEEF0A3EFF02404F582E41D
:10F266003EF583E555F0EF2405F582E43EF583E5AA
:0FF2760056F0904B6AE0FCA3E0FD7F061220FDEE
:01F285002266
:02F385008F52A5
:10F38700122130904B5EEEF0A3EFF02404F582E4F7
:10F397003EF583E552F0EF2405F582E43EF583E47C
:0EF3A700F0904B5EE0FCA3E0FD7F051220FD20
:01F3B5002235
:10C3D50090BA2B7402F0E51E2424F582E51D340184
:10C3E500F583E05402FF90BC23E054FD4FF0AF1CF1
:10C3F50012E020788CE24402F290DC2FE0640170B8
:10C40500557E037F4A90B622EEF0A3EFF090B62654
:10C415007414F0A37429F090DC3CE0701B783F7431
:10C4250003F208744AF290B62AEEF0A3EFF090B644
:10C435000AEEF0A3EFF0803D783F7407F2087447E9
:10C44500F27E07FF90B62AEEF0A3EFF090B60AEE63
:10C45500F0A3EFF0801F783FE2FF08E290B60ACF25
:10C46500F0A3EFF090D8D5E0FFA3E090B60ECFF0A3
:10C47500A3EFF0D215E51E2447F582E51D3401F53D
:10C4850083E0540390B805F078457410F2904E1D82
:10C49500E030E12190DC2FE06401601920191620BD
:10C4A5003313851E82851D83E020E70990B868E077
:10C4B5004480F0800790B868E0547FF0904E39E0F2
:0CC4C50090B684F090B68EE054BFF022D8
:0EF98200904E22E0FF90B8B3E02FF404FF2275
:109E8900755001E51E241AF582E51D3401F583E0BC
:109E9900FF20E30302A02230190FE51E245EF5829C
:109EA900E51D3401F583E0F550E51E2419F582E539
:109EB9001D3401F583E0FE904E3CE0C36480F8EE6A
:109EC9006480984055EF30E10302A022E51E246624
:109ED900F582E51D3401F583E02550F0E51E246681
:109EE900F582E51D3401F583E0C3648094B2500323
:109EF90002A022E51E241AF582E51D3401F583E04E
:109F090054E4F0AD1C7F1D12F252E51E2466F58261
:109F1900E51D3401F583741EF022E51E2419F5822E
:109F2900E51D3401F583E0FF904E3BE0D36480F8F2
:109F3900EF6480984003029FE6E51E241AF582E546
:109F49001D3401F583E030E00302A022E51E2466FA
:109F5900F582E51D3401F583E0C39550F0E51E2433
:109F690066F582E51D3401F583E0D36480944E40A3
:109F79000302A022E51E241AF582E51D3401F583AA
:109F8900E054F4F0E51E241AF582E51D3401F58349
:109F9900E04410F0851E82851D83E030E528E582C6
:109FA9002456F582E5833401F583E0FEA3E0D394DA
:109FB90000EE94014010E51E241AF582E51D3401D6
:109FC900F583E04404F0AD1C7F1D12F252E51E2416
:109FD90066F582E51D3401F58374E2F022E51E245D
:109FE90066F582E51D3401F583E0FFD36480948032
:109FF9004010E51E2466F582E51D3401F583E01461
:10A00900F022C3EF64809480500FE51E2466F58228
:09A01900E51D3401F583E004F0BB
:01A02200221B
:0CF9AB0090BA23E054FCF0E0440CF02281
:0CF9B70090BA2BE054FCF0E0440CF0226D
:10F7D00090BA23E054FCF090BA2BE054FCF090BABD
:0DF7E00023E0440CF090BA2BE0440CF02222
:104000000011001B007900B700E00153FFFF000022
:10401000000000000000000000000000000000039D
:104020000303020202020101010101010101040472
:104030000404040404040404040404040404040341
:104040000303020202020101010101010101001B3F
:10405000000A0014001EFFFF001D007900B7FFFFDB
:10406000FFFF00E001530036FFFF003C005A005301
:10407000001D016F02280168021C02A703FD000257
:07408000FEFE01FE0102FE3D
:10A1B600E4F550C22A90DCF2F078B87601788CE2A9
:10A1C6004402F2E550600302A344A222B340030214
:10A1D600A344A24CB3400302A344E51E2436F582F1
:10A1E600E4351DF583E06401704A755001E51E24CF
:10A1F60036F582E4351DF583E4F090B81BE054870C
:10A206004418F090B817E054FC4401F0E490B816F6
:10A21600F0A3E05407F0E51E2434F582E4351DF57D
:10A22600837404F0E51E2435F582E4351DF583E4D8
:04A23600F002A2DAB6
:10A23A00851E82851D83A3A3A3E0F55230E75054FF
:10A24A003F90400E93F551B401097F0112E5CD8F7D
:10A25A0050803CE551B4020F7550017848E2FE087F
:10A26A00E2FF126D0A8028E551B40318785EE2FE17
:10A27A0008E2FF12ADC38F50E550701375500112FA
:10A28A00F9C3800BE551B4040675500312F990E541
:10A29A0050703D851E82851D83A3A3E05403702957
:10A2AA003029057550018021E51E2446F582E51DF9
:10A2BA003401F583E06012755001E51E2446F582EB
:10A2CA00E51D3401F583E014F0E550600312F9C38B
:10A2DA00E550B40203E4F550E5506045B403079035
:10A2EA00CA81E0549FF0D211851E82851D83A3E0A6
:10A2FA00FF90B81BE054F8FEEF4EF012A9677847BA
:10A30A007410F2E51E241FF582E4351DF583E0FE84
:10A31A00A3E024FFFBEE34FFFA7D01E4FF1221A73C
:10A32A0022C21130210EA222B35009A24CB350040A
:0AA33A0012DE0E22788CE254FDF2D0
:01A3440022F6
:109CDE00E4F55090DCF2F0C22A78B87601788CE286
:109CEE004402F230202E7550017848E2FE08E2FF61
:109CFE00F5828E83E030E00FEF4E600B18E2FE0827
:109D0E00E2FF126D0A8002C22090DC31E0B402152F
:109D1E00E4F0801190DC30E0600B90DC31E0600507
:109D2E0012CB608F50A222B34003029DBBE5507050
:109D3E007CA24CB3507790C945E06401702B7550EE
:109D4E0001F090B81BE054874418F090B817E05417
:109D5E00FC4401F0E490B816F0A3E05407F090C96B
:099D6E00437404F0A3E4F0804406
:109D770090C912E0FF543F90400E93F551EF30E742
:109D870033E551B40109E4FF12E5CD8F508025E595
:109D970051B4020F7550017848E2FE08E2FF126DD8
:109DA7000A8011E551B4030C785EE2FE08E2FF1267
:049DB700ADC38F5059
:109DBB00E550703E202912202B0F90CA5AE020E765
:109DCB000890DC30E0541E602975500112F9C3E590
:109DDB001E2449F582E51D3401F583E0541460120D
:109DEB0020290FE51E245DF582E51D3401F58374F2
:109DFB0001F0E550B40203E4F550E550605F90C903
:109E0B0010E0FF90B81BE054F8FEEF4EF012A9677C
:109E1B007847E2641160037410F2302A6090CA58DC
:109E2B00E05414605890CA67E0FEA3E0FF90CA614B
:109E3B00E0FCA3E0FDC39FEC9E404278B8E6FF7EBA
:109E4B0000ED2FFFEE3C90CA67F0A3EFF090CA58DD
:109E5B007404F090C911F0A3E04480F022E51E24B5
:109E6B0049F582E51D3401F583E05414600FE51EBE
:0D9E7B00245DF582E51D3401F5837401F0CE
:019E880022B7
:10CB600090DC3AE078B8F690DC31E0FFB4010BC21B
:10CB700025E490C929F07D01800FEFB40209E4900B
:10CB8000DC31F07D018002E4FDED700302CC4090C9
:10CB9000B81BE05487FF90DC32E0FE4F90B81BF0EA
:10CBA00090CA56E030E02AEE64706009EE6450608E
:10CBB00004EEB4200890DCF27401F08014EE647886
:10CBC0006009EE64586004EEB4400690DCF2740232
:10CBD000F090DC34E0FFA3E090B61ACFF0A3EFF0C2
:10CBE00090DC30E0541E601D90DC3BE0601ED22AD9
:10CBF000E490C943F090C912E020E31090C92AE004
:10CC00006402F0800790C92AE06402F090DC38E00A
:10CC1000FEA3E07803C333CE33CED8F9FF90B81724
:10CC2000E05407FBEEEF4BFF90B816EEF0A3EFF0E9
:10CC300090B817E054FCFF90DC33E04F90B817F049
:02CC4000AF053E
:01CC420022CF
:02E5CD008F536A
:10E5CF007F021FE51E242EF582E4351DF583E0FD45
:10E5DF00A3E090B81ACDF0A3EDF0E51E2430F5823C
:10E5EF00E4351DF583E0FDA3E090B816CDF0A3ED63
:10E5FF00F0E51E2432F582E4351DF583E0FDA3E03E
:10E60F0090B61ACDF0A3EDF0851D1D851E1EE51EDB
:10E61F00242DF582E4351DF583E078B8F6D22AE58E
:0FE62F001E2435F582E4351DF583E090DCF2F012
:01E63E0022B9
:106D0A008E538F5490B81BE054874418F090DC30AF
:106D1A00E0541E600D851E82851D83A3A3A3E02077
:106D2A00E30FE51E241BF582E4351DF583E06402BA
:106D3A00F090B817E054FC4403F0E5542404F582BB
:106D4A00E43553F583E075F008A4FF90B817E054D2
:106D5A0007FDE5F0ED4FFF90B816E5F0F0A3EFF070
:106D6A00855482855383A3A3E0FEA3E0FF90B61A5D
:106D7A00EEF0A3EFF0E51E2432F582E4351DF5832B
:106D8A00EEF0A3EFF0E51E2434F582E4351DF58319
:106D9A007402F090DCF2E0FFE51E2435F582E4355A
:106DAA001DF583EFF0D22A855482855383E054F08F
:106DBA0024E07003026E8F24D0602624F070030250
:106DCA006EA024E07003026EB12470600302702387
:106DDA00855482855383A3E0FD7F0A12F252027022
:016DEA002385
:106DEB0090BE24E0FCA3E0FDA3E0FEA3E0FF78014E
:106DFB001206B7904B5E12079B904B5EE0FCA3E034
:106E0B00FDA3E0FEA3E024F0FFE43EFEE43DFDE441
:106E1B003CFC90CCE412079B90CCE7E054FEFFF0D7
:106E2B00855482855383A3A3E0FCA3E0F5828C8376
:106E3B00A3EFF090CCE6E0FF855482855383A3A3A8
:106E4B00E0FCA3E0F5828C83A3A3EFF090CCE5E00C
:106E5B00FF855482855383A3A3E0FCA3E0F5828CCA
:106E6B0083A3A3A3EFF090CCE4E0FF85548285537A
:106E7B0083A3A3E0FCA3E02404F582E43CF583EFB9
:016E8B00F016
:106E8C00027023E51E24EEF582E4351DF5837401B2
:106E9C00F0027023855482855383A3E0FD7F0D128D
:056EAC00F25202702308
:106EB100E51E2449F582E51D3401F583E06030E5E6
:106EC1001E2456F582E51D3401F583A3E025E0FF7C
:106ED1000582D5820215831582E033904B66F0A3BB
:106EE100EFF0E02414F0904B66E03400F08024E5EC
:106EF1001E241FF582E4351DF583E0FEA3E078032F
:106F0100C333CE33CED8F92414FFE43E904B66F060
:106F1100A3EFF090BE24E0FCA3E0FDA3E0FEA3E01C
:106F2100FF78011206B7904B6212079B904B62E00B
:106F3100F8A3E0F9A3E0FAA3E0FB904B66E0FEA31F
:106F4100E0FFE4FCFDEB2FFFEA3EFEED39FDEC38FE
:106F5100FC904B6212079B904B65E054FEF0904B06
:106F610062E05407F0904B65E0FF855482855383BE
:106F7100A3A3E0FCA3E0F5828C83A3EFF0904B6424
:106F8100E0FF855482855383A3A3E0FCA3E0F5824F
:106F91008C83A3A3EFF0904B63E0FF85548285536C
:106FA10083A3A3E0FCA3E0F5828C83A3A3A3EFF06A
:106FB100904B62E0FF855482855383A3A3E0FCA339
:106FC100E02404F582E43CF583EFF0122141904B7B
:106FD10068EEF0FCA3EFF0FD904B68E0FEA3E0FF4C
:106FE1002404F582E43EF583740FF08554828553C1
:106FF10083A3E0FBEF2405F582E43EF583EBF08506
:107001005482855383A3A3E0FEA3E0FFED2406FB96
:10701100E43C8B82F583A3A3EEF0A3EFF07F06128D
:0270210020FD50
:0E702300851E82851D83A3A3A3E054FBF022EB
:04ADC3008E538F54C8
:10ADC7008F828E83A3E0FF75F06FA42457F582E589
:10ADD700F034CAF583EF2583F583E0545E60037F83
:10ADE7000022AF54AE53127EFC78B8A60785548272
:10ADF700855383A3A3E0FF90B817E054FCFEEF4E02
:10AE0700F0855482855383A3A3A3E0FFA3E090B604
:10AE17001ACFF0A3EFF0E51E2434F582E4351DF5D3
:10AE2700837404F0855482855383A3A3A3E0FEA310
:10AE3700E0FFE51E2432F582E4351DF583EEF0A32D
:10AE4700EFF090DCF2E0FFE51E2435F582E4351DD6
:10AE5700F583EFF0E5542405F582E43553F583E0F7
:10AE6700FEA3E0FF7860E2FC08E2FDD3EF9DEE9CD5
:10AE7700500F8E558F568554828553837403F08007
:10AE8700548C558D56855482855383A3A3A3E555CA
:10AE97008556F01204A8E5542405F582E43553F5E8
:10AEA70083C083C082C3A3E09DFF0582D5820215BC
:10AEB700831582E09CD082D083F0A3EFF085548283
:10AEC700855383A3A37401F0851E82851D83A3A3E5
:10AED700A3E04402F0E556AE557803C333CE33CE34
:10AEE700D8F9FF90B817E05407FDEEEF4DFF90B883
:10AEF70016EEF0A3EFF0D22AE51E241BF582E43507
:10AF07001DF583E06402F0851E82851D83A3A3A33C
:06AF1700E054FEF07F0192
:01AF1D002211
:0CF9C30090B81BE05487F078B876012261
:0EF9900090B81BE054874408F078B876012246
:10A96700E51E241BF582E4351DF583E0FF90B81A38
:10A97700E054FDFEEF4EF0E51E241AF582E4351D86
:10A98700F583E0FF90B81AE054FEFEEF4EF090BE5C
:10A9970017E04402F00000000078A9E6FF25E0FF79
:10A9A70090BE03E02F440190BA03F090CC04E0B4CA
:10A9B700020E90BA03E05403FFBF0304E024FEF045
:10A9C70030161930140DC216C21490B81BE044801B
:10A9D700F0801090B81BE0547FF0800790B81BE020
:10A9E7004480F090B817E04404F090DC2FE0540363
:10A9F700600512EAA5800312D99EE4FDAF1C12D5AB
:10AA0700F3E51E2424F582E51D3401F583E05402A5
:10AA1700FF90BC23E054FD4FF0AF1C12E02090B82C
:10AA27007BE054FCF0E0FF90DCF2E0FEEF4E90B8E4
:10AA37007BF0E51E2422F582E51D3401F583E0FF56
:10AA470012B5827847E264116015E51E2447F58246
:10AA5700E51D3401F583E0540390B807F08005E461
:10AA670090B807F020280D12F9AB0000000090BA4B
:10AA7700237401F0C22878B8E6FF78A926F6302AB1
:10AA870060851E82851D83A3A3A3E04408F0E51E0D
:10AA9700242DF582E4351DF583EFF090B81AE0FE1A
:10AAA700A3E0FFE51E242EF582E4351DF583EEF0C5
:10AAB700A3EFF090B816E0FEA3E0FFE51E2430F503
:10AAC70082E4351DF583EEF0A3EFF090CC04E0B4FB
:10AAD700010FE51E2446F582E51D3401F583740454
:02AAE700F0225B
:047EFC008E578F58B6
:107F00007F187E01E4F97860F2087411F2E51E240E
:107F100047F582E51D3401F583E030E01009E51EE8
:107F20002418F582E4351DF583E0FC800DE51E2460
:107F300017F582E4351DF583E0FCE5582405F5824C
:107F4000E43557F583E0FAA3E0FBE96066D3EB94F0
:107F500011EA940050057D01028006D3EB9436EAC5
:107F6000940050057D03028006D3EB9453EA9400FD
:107F7000500EEC30E2057D070280067D0B02800684
:107F8000D3EB946FEA940150047D0F8079D3EB9486
:107F900028EA9402500CEC30E4047D1F80687D2FA9
:107FA0008064D3EB94A7EA940250047D3F80577D10
:107FB0007F8053D3EB9411EA940050047D018046F6
:107FC000D3EB941BEA9400500CEC30E1047D038069
:107FD000357D078031D3EB9479EA940050047D0716
:107FE0008024D3EB94B7EA9400500CEC30E3047D8A
:107FF0000F80137D1F800FD3EB94E0EA94005004B0
:108000007D1F80027D3FEC5205E970030280AFEDD9
:10801000C3944040167F7878607403F20874FDF2D0
:108020007E0590DCF27402F0028110EDC3942040D2
:10803000167F7078607402F20874A7F27E0590DCF7
:10804000F27401F0028110EDC3941040167F58784D
:10805000607402F2087428F27E0390DCF27402F07D
:10806000028110EDC3940840167F5078607401F2CD
:1080700008746FF27E0390DCF27401F0028110ED5F
:10808000C3940440127F407860E4F2087453F29085
:10809000DCF27402F08079EDC3940240737F2078A3
:1080A00060E4F2087436F290DCF27401F08061ED65
:1080B000C39420400F7F7878607401F2087453F203
:1080C0007E05804CEDC39410400E7F707860E4F222
:1080D0000874E0F27E058038EDC39408400E7F58A6
:1080E0007860E4F20874B7F27E038024EDC3940450
:1080F000400E7F507860E4F2087479F27E038010BD
:10810000EDC39402400A7F207860E4F208741BF209
:0A81100090B81BE054874FF0AF0653
:01811A002242
:02B582008F53E5
:10B58400E4F554F555FF90DCD1E06404700302B691
:10B59400B8904E36E06553704F90B87BE05403602A
:10B5A400010F90DC86E0B50712783BE2B5530C90AE
:10B5B400DCE2E0FE90DCE4E06E6056EF601975F0CA
:10B5C40002E553A4242CF582E5F0344EF583E0F52E
:10B5D40054A3E0F555800A904E34E0F554A3E0F509
:10B5E4005590DC86EFF08029783BE2B5530C90DC73
:10B5F400E2E0FF90DCE4E06F601775F002E553A42D
:10B60400242CF582E5F0344EF583E0F554A3E0F5FF
:10B6140055E5554554700302B6B890DCE5E0605B2F
:10B62400AF55EF3395E0F5568F5790DCE2E0243DBB
:10B63400F582E4344EF583E0FFFD3395E0FCED251F
:10B6440057F557EC3556F556C3648094805005750C
:10B654005500804AC3E5579480E556648094804041
:10B6640009855454747FF5558034EF3395E0FEEF2B
:09B674002555F555EE3554F55449
:02B67D00802328
:10B67F00743D2553F582E4344EF583E0FF3395E0B6
:10B68F00EFFEE424F0F557E43EF556AD57FC7F0886
:03B69F001236461A
:10B6A20090DCE2E090DCE4F0AD55AC547F0B123656
:06B6B20046783BE553F26F
:01B6B800226F
:10EAA50090DC3DE014604404704A90CC04E0B4016D
:10EAB5001D78A8E6700C90DC3FE0248090BC22F025
:10EAC500803290DC3EE0248090BC22F0802678A83D
:10EAD500E6700C90DC3EE0248090BC22F08015901E
:10EAE500DC3FE0248090BC22F08009E490BC22F059
:0DEAF50090BC02F012D99EE490B853F022BC
:10F85F007862E2640E601390B86E7401F0A3E4F066
:0BF86F0090BE1AE04401F0740EF2227B
:10D99E007862E2640A60467ECB7FF312F05C90CB35
:10D9AE00F6E090B81FF090BC037480F090CC04E0C9
:10D9BE00B4010990BE1AE04401F0801C90BE1AE03A
:10D9CE0054FEF0E04402F090BE067402F0A37430F0
:10D9DE00F090BE1BE04401F07862740AF230331C02
:10D9EE0090B86E7409F0A37450F090BC1E7401F0E0
:10D9FE00A3745AF090BC277472F0801F7851E2FF26
:10DA0E0008E290BC1ECFF0A3EFF0785AE290BC274C
:10DA1E00F090B86E7403F0A37410F090B403E05459
:03DA2E007FF02264
:10D691008F4D7862E2FF640B700302D725EF640AB5
:10D6A100600D7ECB7FF312F05C90BC037480F09030
:10D6B100CBF6E090B81FF0E54D600C90B86E743A6F
:10D6C100F0A37498F080357850E2FDFB75F010A45A
:10D6D1002410FEE5F0340390B86EF0A3CEF0EB75A4
:10D6E100F004A4FFAEF0C374EA9F90BC1FF0740273
:10D6F1009E90BC1EF0ED240E90BC27F090B403E088
:10D70100547FF090BE1AE054FEF0E04402F090BE67
