:020000040000FA
:1028EF00FF00210200000000FF1EC40000000000D6
:1028FF00FFA92F0000000000FFD4C8010100000055
:10290F00FFB00E0102000000FFE28A01000000008C
:10291F00FF54D60101000000FF15F0010000000078
:10292F00FF76BD0202000000FF608202030000007C
:10293F00FFA59D0204000000FF7961020300000063
:10294F00FF8C4B0203000000FFB11C0204000000CB
:10295F00FFF9A60204000000FF00210200000000A2
:0100190022C4
:01001A0022C3
:01001E0022BF
:01001F0022BE
:0100200022BD
:0100210022BC
:08176C008F438D448A458B4632
:10177400E546454570030218DF903F4BE07002A335
:03178400E07023EF
:10178700122124904B99EEF0A3EFF0904B99E0FCD7
:10179700A3E0FD2404F582E43CF5837401F07F07A0
:0317A7001220F11C
:1017AA00AB47AD44AF43121460903F4BE0FFA3E058
:1017BA00904B9BCFF0A3EFF0E4A3F0A3F0904B9BE8
:1017CA00E0FEA3E0FF4E60458F828E83A3A3E0FE76
:1017DA00A3E0FFC39546EE95455032904B9BE0FC43
:1017EA00A3E0FDC3E5469FF546E5459EF545A3EC16
:1017FA00F0A3EDF0904B9BE0FEA3E0F5828E83E030
:10180A00FFA3E0904B9BCFF0A3EFF080B0903FBDD9
:10181A00E0FEA3E0FFF5828E83A3A3E545F0A3E5EE
:10182A0046F0EF2404F582E43EF583E547F0EF2421
:10183A0005F582E43EF583E543F0EF2406F582E4FC
:10184A003EF583E544F0904B9DE0FEA3E0FF4E7029
:10185A0011903FBDE0FDA3E0903F4BCDF0A3EDF02A
:10186A008010903FBDE0FDA3E08F828E83CDF0A370
:10187A00EDF0903FBDE0FEA3E0FFF5828E83E0FD30
:10188A00A3E0904B9DCDF0A3EDF0904B9BE0FCA321
:10189A00E0FD8F828E83ECF0A3EDF0F5828C83A3BA
:1018AA00A3C083C082C3A3E09546FF0582D5820206
:1018BA0015831582E09545D082D083F0A3EFF0908E
:1018CA004B9DE0FEA3E0FF903FBDEEF0A3EFF04E8C
:0518DA0070031233F45D
:0118DF0022E6
:04146000AA07A90529
:10146400903F4BE0FDA3E0904C06CDF0A3EDF0E4FB
:10147400A3F0A3F0904C06E0FCA3E0FD4C70030243
:1014840015EFED2404F582E43CF583E06B60030280
:1014940015CE904C06E0A3E02406F582E43CF583E7
:1014A400E06960030215CEED2405F582E43CF58382
:1014B400E06A6007EAF460030215AD904C06E0FCB4
:1014C400A3E0FDF5828C83E0F8A3E0F582888345F0
:1014D40083601F8D828C83A3A3E0FEA3E0FF8D8233
:1014E4008C83E0FCA3E0F5828C83A3A3EE8FF0123F
:1014F40004A8904C08E07002A3E0704D904C06E004
:10150400FEA3E0FFF5828E83E0FDA3E0903F4BCD88
:10151400F0A3EDF0903FBDE0FDA3E08F828E83CD7C
:10152400F0A3EDF0904C06E0FFA3E0903FBDCFF0B8
:10153400A3EFF0903F4BE0FFA3E0904C06CFF0A365
:10154400EFF0E4A3F0A3F08058904C06E0FEA3E093
:10155400F5828E83E0FEA3E0FF904C08E0FCA3E05C
:10156400F5828C83EEF0A3EFF0903FBDE0FEA3E0A4
:10157400FF904C06E0FCA3E0FDF5828C83EEF0A323
:10158400EFF0903FBDECF0A3EDF0904C08E0FEA32B
:10159400E0F5828E83E0FFA3E0904C06CFF0A3EF4A
:1015A400F0EAF4700302147822904C06E0FEA3E003
:1015B400FFA3EEF0A3EFF0F5828E83E0FFA3E090AB
:1015C4004C06CFF0A3EFF0021478904C06E0FEA393
:1015D400E0FFA3EEF0A3EFF0F5828E83E0FFA3E03B
:0B15E400904C06CFF0A3EFF00214784B
:0115EF0022D9
:1015F0008E338F348F828E83E5822404F582E43526
:1016000083F583E024FE601F147003021709147031
:101610000302173F2403600302176B7B007A04E484
:07162000FD7F0212219B2255
:10162700903F4BE0FEA3E0FF4E70030216F38F825C
:101637008E83A3A374FFF5F01204A8903F4BE0FE3E
:10164700A3E0F5828E83A3A3E0FEA3E04E6003022E
:1016570016F31221248E338F34903F4BE0FEA3E024
:10166700FF2405F582E43EF583E0FDE5342404F527
:1016770082E43533F583EDF0EF2406F582E43EF599
:1016870083E0FFE5342405F582E43533F583EFF095
:10169700903F4BE0FEA3E02404F582E43EF583E0AF
:1016A700FFAD34AC331220F1903F4BE0FEA3E0FFD7
:1016B700F5828E83E0FCA3E08C35F536903FBDE0E4
:1016C700FDA3E08F828E83CDF0A3EDF0903F4BE03A
:1016D700FFA3E0903FBDCFF0A3EFF0903F4BE53580
:1016E700F0A3E536F045356003021642903F4BE024
:1016F7007002A3E0606E7B007A04E4FD7F02122192
:011707009B46
:1017080022E5342406FFE43533FAA9077B0190006B
:10171800011203CCFF9000021203CCFD90000312CB
:1017280004D4FBAAF0E5342406F582E43533F583C6
:10173800E0F54712176C22E5342406FFE43533FA46
:10174800A9077B019000011203CCFF90000212034D
:10175800CCFDE5342406FBE435338B82F583E0FBCE
:0417680012146022D5
:0E2D14008F648D658A668B67E567456660543F
:102D2200122135904CABEEF0FCA3EFF0FD904CABD2
:102D3200E0FEA3E0FF2404F582E43EF5837403F091
:102D4200EF2406FFE43EFE8F82F583E568F0AA06D3
:102D5200A9077B01900001E56412043E900002E5A0
:102D62006512043E900003E5668567F012050C7F4C
:042D7200071220F133
:012D7600223A
:062F99008F5F8D608B616B
:102F9F00122135904C98EEF0FCA3EFF0FD904C9879
:102FAF00E0FEA3E0FF2404F582E43EF5837404F011
:102FBF00EF2406FFE43EFE8F82F583E561F0AA065B
:102FCF00A9077B01900001E55F12043E900002E526
:092FDF006012043E7F071220F18C
:012FE80022C6
:022A6D008F4395
:102A6F00E5437003FEFF229037F4E0C39543F090E7
:102A7F001DF3E0F544854345E544C394D0505074AD
:102A8F00232544F582E4341DF583E0703B1545E5BD
:102A9F00457038C3E544954304F5442423F582E497
:102AAF00341DAF82FEAB43AD4312393A901DF3E0B4
:102ABF00B544032543F075F020E544A424F4F582D2
:102ACF00E5F0341DAF82FE22854345054480A912EF
:052ADF003448E4FEFF95
:012AE40022CF
:102F4800EF4E604CC3EF94F4FFEE941DFEEF78054E
:102F5800CEC313CE13D8F9F543C394D0503274239B
:102F68002543F582E4341DF583E0FB9037F4E02B2C
:102F7800F074232543F582E4341DAF82FEE4FD128C
:102F8800393A901DF3E0FFE543C39F5003E543F052
:012F98002216
:10337300EF541FD39400E49400400FEF7805CEC3BD
:1033830013CE13D8F904F568800CEF7805CEC31378
:0B339300CE13D8F9F568AF681233CAFA
:01339E00220C
:1028610078A6E6FE08E6FFF5828E83A3A3A3E0FC2B
:10287100A3E0FD78BDECF208EDF2C2AF8F828E834A
:102881007405F078A6E6FE08E68E832408F582E456
:102891003583F583E0FEA3E018A60608F6D2AFED76
:0328A1004C70393F
:1028A40012212478BBEEF208EFF22404F582E43E10
:1028B400F5837403F0EF2405F582E43EF583740197
:1028C400F018E2FC08E2FD7F0E1220F17E907F00FA
:0928D40078BD7490F2087400F262
:1028DD00C2AF90D783E004F0D2AF78BDE2FE08E23C
:0128ED00FFEB
:0128EE0022C7
:10349C007814E2FE08E2FF8E2FF530452F60158F71
:1034AC00828E83E0FEA3E0FF18EEF208EFF24E707E
:0834BC000312341EAE2FAF30E5
:0134C40022E5
:1034C5007810E2FE08E2FF8E2FF530452F60158F4C
:1034D500828E83E0FEA3E0FF18EEF208EFF24E7055
:0834E5000312341EAE2FAF30BC
:0134ED0022BC
:1034EE007812E2FE08E2FF8E2FF530452F60158F21
:1034FE00828E83E0FEA3E0FF18EEF208EFF24E702C
:08350E000312341EAE2FAF3092
:013516002292
:103517007816E2FE08E2FF8E2FF530452F60158FF3
:10352700828E83E0FEA3E0FF18EEF208EFF24E7002
:083537000312341EAE2FAF3069
:01353F002269
:102EEE00300A1B782FE569F27825E2FE08E2F582BA
:102EFE008E83E0FFA3E07829CFF208EFF2223009AB
:102F0E001B781BE56AF2782CE2FE08E2F5828E83CE
:102F1E00E0FFA3E07819CFF208EFF22230081A781A
:102F2E0022E56CF2781CE2FE08E2F5828E83E0FF69
:0A2F3E00A3E07820CFF208EFF222A2
:102C3E008F828E83A3A3E024FE6020146033146081
:102C4E0046240370577816E2FD08E28F828E83CDFC
:102C5E00F0A3EDF018EEF208EFF2227812E2FD0882
:102C6E00E28F828E83CDF0A3EDF018EEF208EFF234
:102C7E00227810E2FD08E28F828E83CDF0A3EDF074
:102C8E0018EEF208EFF2227814E2FD08E28F828E3F
:0D2C9E0083CDF0A3EDF018EEF208EFF22266
:043156008E2F8F30F9
:10315A008F828E83E0FEA3E0FF4E700D853082855C
:10316A002F83ECF0A3EDF0801B8F828E83E0FAA30D
:10317A00E0FB4A6006AE02AF0380EE8F828E83ECDC
:0C318A00F0A3EDF08D828C83E4F0A3F044
:013196002216
:103605008F828E83E0FCA3E0FDFBAA044A60118D46
:10361500828C83E0FDA3E08F828E83CDF0A3EDF055
:04362500AE02AF033F
:01362900227E
:083A850000014343C7C7C7C796
:0A396E00E4F56BF569F56AF56C22CB
:101FE700C2AFE56B70030220E8903A8593F5213084
:101FF7000A4C7825E2FE08E2FFF5828E83A3A3A3AD
:10200700E0782BF2E4782FF2D2AF782BE2FD33336E
:102017003354F8FD9028F393F5A574EF2DF582E47A
:102027003428F583E493740193FA740293F5828A52
:10203700831208B6E4F5A5C2AF12216880A430095F
:102047004D782CE2FE08E2FFF5828E83A3A3A3E07E
:10205700782BF2E4781BF2D2AF782BE2FD333333DF
:1020670054F8FD9028F393F5A574EF2DF582E43429
:1020770028F583E493740193FA740293F5828A83B3
:102087001208B6E4F5A5C2AF122179021FE92008AC
:1020970003021FE9781CE2FE08E2FFF5828E83A3A4
:1020A700A3A3E0782BF2E47822F2D2AF782BE2FDFB
:1020B70033333354F8FD9028F393F5A574EF2DF5DA
:1020C70082E43428F583E493740193FA740293F558
:1020D700828A831208B6E4F5A5C2AF12218A021FCD
:0A20E700E9E4782BF2F521D2AF22D4
:10258600C2AF782BE27818F27824E521F2E56BD316
:102596009401500302264F7E00E56B54FE2485F518
:1025A60082EE343AF583E493F521300A4C7825E23D
:1025B600FE08E2FFF5828E83A3A3A3E0782BF2E464
:1025C600782FF2D2AF782BE2FD33333354F8FD90F7
:1025D60028F393F5A574EF2DF582E43428F583E40A
:1025E60093740193FA740293F5828A831208B6E40F
:1025F600F5A5C2AF1221688094300991782CE2FECD
:1026060008E2FFF5828E83A3A3A3E0782BF2E47899
:102616001BF2D2AF782BE2FD33333354F8FD90280A
:10262600F393F5A574EF2DF582E43428F583E4934E
:10263600740193FA740293F5828A831208B6E4F55C
:10264600A5C2AF1221790225937818E2782BF27889
:0726560024E2F521D2AF22BE
:102BCD00C2AF782BE27823F2782EE521F2E56BD3B4
:102BDD009403404F7521C77825E2FE08E2FFF58288
:102BED008E83A3A3A3E0782BF2E4782FF2D2AF78F3
:102BFD002BE2FD33333354F8FD9028F393F5A57490
:102C0D00EF2DF582E43428F583E493740193FA747F
:102C1D000293F5828A831208B6E4F5A5C2AF12219C
:102C2D006880AA7823E2782BF2782EE2F521D2AFD4
:012C3D002274
:10320B00D56903536BFB782FE270197825E2FE0822
:10321B00E2FFF5828E83E0FDA3E07829CDF208ED85
:10322B00F2122C3EE4782FF27829E2FF08E278259F
:06323B00CFF208EFF222C1
:10324100D56A03536BFD781BE27019782CE2FE08F6
:10325100E2FFF5828E83E0FDA3E07819CDF208ED5F
:10326100F2122C3EE4781BF27819E2FF08E2782C86
:06327100CFF208EFF2228B
:10327700D56C03536BFE7822E27019781CE2FE08C6
:10328700E2FFF5828E83E0FDA3E07820CDF208ED22
:10329700F2122C3EE47822F27820E2FF08E2781C52
:0632A700CFF208EFF22255
:101C7C008F2F8D308A318B32E53245317003021D46
:101C8C009F782BE2FBAD30AF2F121A1D7839E2FE94
:101C9C0008E28E6DF56EE4F56FF5707835E2FE08AE
:101CAC00E22532F532EE3531F531E56E456D6036B3
:101CBC00856E82856D83A3A3E0FEA3E0FFC39532FE
:101CCC00EE95315021C3E5329FF532E5319EF53169
:101CDC00856D6F856E70856E82856D83E0FEA3E0E9
:101CEC008E6DF56E80C47833E2FE08E2FFF5828ECD
:101CFC0083A3A3E531F0A3E532F0782BE2FDEF24CA
:101D0C0004F582E43EF583EDF07833E2FE08E2FF61
:101D1C002405F582E43EF583E52FF0EF2406F582E9
:101D2C00E43EF583E530F0E570456F70097839EEE7
:101D3C00F208EFF2800B857082856F83EEF0A3EFD3
:101D4C00F07833E2FE08E2FFF5828E83E0FCA3E03C
:101D5C008C6FF5708F828E83E56DF0A3E56EF0F5D8
:101D6C0082856D83A3A3C083C082C3A3E09532FF99
:101D7C000582D5820215831582E09531D082D083FD
:101D8C00F0A3EFF018E56FF208E570F2456F700301
:041D9C001233F422E8
:101A1D00AA07A9057839E2FC08E28C6DF56EE4F5AC
:101A2D006FF570E56E456D7003021B4DE56E240478
:101A3D00F582E4356DF583E06B6003021B36E56ED0
:101A4D002406F582E4356DF583E0696003021B36EB
:101A5D00E56E2405F582E4356DF583E06A6007EAED
:101A6D00F46003021B1F856E82856D83E0FCA3E08D
:101A7D00FD4C6019856D83856E82A3A3E0FEA3E006
:101A8D00FF8D828C83A3A3EE8FF01204A8E5704521
:101A9D006F703B856E82856D83E0FFA3E07839CF53
:101AAD00F208EFF27833E2FF08E2856E82856D83EE
:101ABD00CFF0A3EFF018E56DF208E56EF27839E29C
:101ACD00FE08E28E6DF56EE4F56FF570803C856E67
:101ADD0082856D83E0FFA3E0857082856F83CFF0F3
:101AED00A3EFF07833E2FF08E2856E82856D83CF38
:101AFD00F0A3EFF018E56DF208E56EF285708285C2
:101B0D006F83E0FEA3E08E6DF56EEAF47003021AAA
:101B1D003022856D6F856E70856E82856D83E0FEDA
:101B2D00A3E08E6DF56E021A30856D6F856E708532
:101B3D006E82856D83E0FEA3E08E6DF56E021A3028
:011B4D002275
:1029EF007836E22FF218E23EF27832E2706F7839E1
:1029FF00E2FE08E2FF4E605F8F828E83A3A3E0FEAC
:102A0F00A3E0FF7835E2FC08E2FDD3EF9DEE9C508A
:102A1F001108E2FC08E2FD7F011221F07832740107
:102A2F00F2227839E2FE08E2F5828E83A3A3C083F7
:102A3F00C0827835E2FE08E2FFC3A3E09FFF058264
:102A4F00D5820215831582E09ED082D083F0A3EF4A
:0E2A5F00F0E418F208F222E47835F208F222D0
:041EC4008E488F496C
:101EC8008F828E83E5822404F582E43583F583E0EE
:101ED8006003021FE67839E2FE08E2F5828E83A3EA
:101EE800A3E0FEA3E0FF7835E2FC08E2FDD3EF9D16
:101EF800EE9C4003021FA71221248E488F4978398F
:101F0800E2FE08E2FF2405F582E43EF583E0FDE504
:101F1800492404F582E43548F583EDF0EF2406F50D
:101F280082E43EF583E0FFE5492405F582E435487F
:101F3800F583EFF018E2FE08E22404F582E43EF5AA
:101F480083E0FFAD49AC481220F17839E2FE08E29F
:101F5800FFF5828E83A3A3E0FCA3E0FDC37836E2FD
:101F68009DF218E29CF28F828E83E0FEA3E0FF7858
:101F780033E2FC08E2FD7839E2FA08E2FBF5828AEE
:101F880083ECF0A3EDF07833EAF208EBF27839EE5F
:101F9800F208EFF24E6003021EDD7835F208F2789F
:101FA80035E2FE08E2FF4E602E7839E2FC08E2F5E1
:101FB800828C83A3A3C083C082C3A3E09FFF058252
:101FC800D5820215831582E09ED082D083F0A3EFDC
:0E1FD800F0E47835F208F2E47832F2122102D9
:011FE60022D8
:1021F0008D828C83A3A3A3EFF033333354F890285C
:10220000F2931460541470030222A02402600302AB
:1022100022E6E56970107825ECF208EDF27827ECFB
:10222000F208EDF280257827E2FE08E2F5828E833F
:10223000ECF0A3EDF018ECF208EDF2782FE2B40127
:102240000A7402F27829ECF208EDF20569436B0496
:102250008D828C83E4F0A3F022E56A7010782CEC78
:10226000F208EDF27830ECF208EDF280257830E2F9
:10227000FE08E2F5828E83ECF0A3EDF018ECF20894
:10228000EDF2781BE2B4010A7402F27819ECF2085C
:10229000EDF2056A436B028D828C83E4F0A3F02299
:1022A000E56C7010781CECF208EDF2781EECF20888
:1022B000EDF28025781EE2FE08E2F5828E83ECF0D6
:1022C000A3EDF018ECF208EDF27822E2B4010A7402
:1022D00002F27820ECF208EDF2056C436B018D827E
:0722E0008C83E4F0A3F0225F
:10387100E4901DF3F0FF7FD0901D23E4F0A3DFFC63
:063881009037F474D0F052
:01388700221E
:1018E000781474C4F208745CF2E4FF75F00AEFA493
:1018F0002466F582E5F034C4AD82FC75F00AEFA4ED
:10190000245CF582E5F034C4F583ECF0A3EDF075CA
:10191000F00AEFA4245EF582E5F034C4F583740484
:10192000F00FBF3FC6E490C6D2F0A3F0A37404F05A
:10193000781074C0F2087400F2E4FF75F00EEFA4A2
:10194000240EF582E5F034C0AD82FC75F00EEFA4F4
:101950002400F582E5F034C0F583ECF0A3EDF075DA
:10196000F00EEFA42402F582E5F034C0F583740391
:10197000F00FBF3FC6E490C372F0A3F0A37403F06E
:10198000781274C3F2087480F2E4FFEF75F016A4C5
:101990002496F582E434C3AD82FCEF75F016A424DE
:1019A00080F582E434C3F583ECF0A3EDF0EF75F03D
:1019B00016A42482F582E434C3F5837402F00FBFC9
:1019C00009C9E490C446F0A3F0A37402F078167439
:1019D000C6F20874DCF2E4FF75F046EFA42422F5A9
:1019E00082E5F034C7AD82FC75F046EFA424DCF547
:1019F00082E5F034C6F583ECF0A3EDF075F046EF28
:101A0000A424DEF582E5F034C6F5837401F00FBF3F
:0C1A100007C6E490C8C6F0A3F0A304F0E1
:011A1C0022A7
:102E9300E4FFEF75F007A42415F582E434CEAD8288
:102EA300FCEF75F007A4240EF582E434CEF583EC31
:102EB300F0A3EDF00FBF13DAE490CE93F0A3F07814
:102EC3003374CEF208740EF2E47839F208F27832F1
:102ED300F27835F208F21221247837EEF208EFF295
:0A2EE3002404F582E43EF583E4F0D8
:012EED0022C2
:102FE900E4904C37F0904C37E0FF75F007A4245477
:102FF900F582E4343FAD82FCEF75F007A4244DF56A
:1030090082E4343FF583ECF0A3EDF0904C37E00413
:05301900F0E0B40FD04F
:10301E00E4903FB6F0A3F0903FBD743FF0A3744D23
:09302E00F0E4903F4BF0A3F02206
:1033CA00D20E122A6DC20E22D20E122F48C20E221D
:1033DA00D20E12CEF0C20E22020FEE0238EA0236E6
:0A33EA002A02371C0238FA02390AE1
:1033F40090DB717402F0A3E5A5F0A37480F0AF81B3
:10340400A807E6A3F0A37414F0E58114F8E6A3F08A
:0A3414007CDB7D6D7F041220F122A5
:10341E0090DB717402F0A3E5A5F0A37480F0AF8188
:10342E00A807E6A3F0A37415F0E58114F8E6A3F05F
:0A343E007CDB7D6D7F041220F1227B
:1034480090DB717402F0A3E5A5F0A37480F0AF815E
:10345800A807E6A3F0A37417F0E58114F8E6A3F033
:0A3468007CDB7D6D7F041220F12251
:1000360090DB717402F0A3E5A5F0A37480F0AF81A4
:10004600A807E6A3F0A37416F0E58114F8E6A3F07A
:0D0056007CDB7D6D7F041220F1E4FEFF22B3
:1037AE00E51E2425F582E4351DF58322900440752F
:0937BE00F003E55B1207E4E022D0
:100BBB00E58E20E30690B8337401F090B825E0542D
:050BCB00FEF053A2F34F
:100BD000E4F557F558000000000000000000000098
:100BE00000000558E55870020557B498E8E557B479
:020BF00006E31A
:100BF200D2A4D2A053A1EE00000000C205D2007818
:100C02001FE6FF30E602800EEF30E704C2008011DB
:100C120020A40920A006D205C200800520A002C29D
:100C22000090A4F77481F01233E2781FE620E32DDE
:100C3200E4904FEEF0A3F07E4F7FEE7B02FA7DEE62
:100C42007C011233E8904FEEE0B4AA0BA3E0B45556
:100C5200067DFF7FFF800E7D017F048008904ED6C7
:100C6200E0FFA3E0FD1233E530050BE490BD03F095
:100C720075A50112AC8B120E0375A897E490B2030E
:100C8200F0121FE730002E75A50412C7FD904EB773
:100C9200E06006E4F5A512EFB5904EE5E06006E4EB
:100CA200F5A512C0F5904ECFE030E303129F4FE45A
:0E0CB200F5A5123954E4F5A512E4C9E4F5A540
:100CC00090BE2AE0FF90DB9FE06F7003020D9D90C5
:100CD000CC04E0FF64016008EF64026003020D953C
:100CE00090BE2AE078BAF290BE29E018F2A3E0FFA5
:100CF00008E2B507EBE22401F218E23400F2123701
:070D0000AEE07003020D9547
:100D0700C2AFE51E242A1237B2E0FFA3E078B5CFC1
:100D1700F208EFF2E51E24281237B2E0FFA3E0083D
:100D2700CFF208EFF2D2AF78B5E2FE08E2FFC37860
:100D3700BAE29F79B6F318E29E19F378B7E2FE0894
:100D4700E2FFD378B6E29F18E29E4042E4251EF503
:100D570082E51D3401F5837408F01237AEE4F01212
:100D67002124904C34EEF0A3EFF02404F582E43E06
:100D7700F5837404F0EF2405F582E43EF583E51C62
:0E0D8700F0904C34E0FCA3E0FD7F061220F15A
:080D950090BE2AE090DB9FF004
:100D9D00904E1EE030E00975A50112E700E4F5A5BF
:100DAD00E490BD0CF0E56B6003020C83F5A5904E4D
:100DBD00B5E030E00312EE35E4F5A5904E46E05473
:030DCD000F6014A0
:100DD000E4F5A512D2FC904C36EFF0E4F5A5EF60F7
:040DE00003020C837B
:100DE400904E46E054F07003020C83E56B600302FE
:0F0DF4000C83E58754FC4401F5870000020C8353
:100E0300E4F5A8781FE620E352E4904FEEF0A3F058
:100E1300904E1BF07E4E7F007BF07A01FDFC123377
:100E2300E87E377FF57BC27A007D307C031233E89E
:100E3300904E1CE090DBA0F0904FEEE064AA7004AB
:100E4300A3E06455601575A5017E4E7F007C407D4F
:100E5300007BF07A0112364FE4F5A590CBED7406D2
:100E6300F0E4F5A51280FBEF600675A50112AC8BCB
:100E7300E4F5A520000B904E217403F0758E0180DC
:100E830006904E20E0F58E1238291218E012396EC2
:100E9300122E93122FE9123871E4F5A512DDABE49B
:100EA300F5A5F5A51239A0E4F5A5781FE630E20D06
:100EB300120FC28F82F5837410F0120FE2781FE6CF
:100EC30054306010120FC28F82F5837410F0781FB4
:100ED300E6120FE2781FE630E3441221248E598F85
:100EE3005A8F828E83E5822404F582E43583F58369
:100EF3007402F0EF2406FFE43EFE8F82F583740E46
:100F0300F0A3E4F08F828E83A3A37403F08F828E09
:100F130083A3A3A3F0AD5AAC597F041220F1300090
:100F230014123A041239F01239FA1239B41239E6AA
:100F33001239BE8006781FE654C0F612398C123976
:100F43007812399612398212EFA1C288C28AE490CC
:100F5300BD13F090BD03F090BD1B740FF090BD0A5C
:100F6300743DF0A37409F090BD037401F0E490BDE7
:0B0F73000CF075A50112E6EDE4F5A5F9
:100F7E007E047F407B29FA7DF67C021233E89004D2
:100F8E0067E0FEA3E064557003EE64AA7025F55B7E
:100F9E001237BAFEA3E04E60139004421237BDFF23
:100FAE001237BAFCA3E0F5828C83EFF0055BE55BAC
:030FBE00B40DDD92
:100FC100221221248E598F5A8F828E83E582240426
:100FD100F582E43583F5837402F0EF2406FFE43EE5
:0D0FE10022A3F0AD5AAC597F041220F1227A
:1038880090D5F1E02473F582E434D6F583EFF09017
:06389800D5F1E004F0226E
:03000000021B4E92
:03003300021EB4F6
:03000300021DA03B
:03000B00021EB51D
:03001300021DE1EA
:03001B00021EC3FF
:03002300021E8A30
:03002B00021EC2F0
:03006300021EC3B7
:101DA000C0D0C0E030361153A4DF90B203E0547FBE
:101DB000F090B207E020E7F9C0F0C092C083C08283
:101DC000C085C08475D00875920012124D300F4145
:101DD000D084D085D082D083D092D0F0D0E0D0D043
:101DE00032C0D0C0E0C0F0C092C083C082C085C005
:101DF0008475D00875920012391A200503300E112F
:101E0000D084D085D082D083D092D0F0D0E0D0D012
:011E1000329F
:101E110075D000C0A5C000C001C002C003C004C08D
:101E210005C006C00775A500200E2F7435C0E074EB
:101E31001EC0E032122586D007D006D005D004D0CE
:101E410003D002D001D000D0A5D084D085D082D0DB
:101E510083D092D0F0D0E0D0D0227464C0E0741E60
:101E6100C0E032122BCDD007D006D005D004D0036C
:101E7100D002D001D000D0A5D084D085D082D0832B
:091E8100D092D0F0D0E0D0D022C4
:101E8A00C0D0C0E0C0F0C092C083C082C085C08408
:101E9A0075D00875920012296FD084D085D082D06F
:0A1EAA0083D092D0F0D0E0D0D03207
:101EB40032C000C0E0C0D0D0D0D0E0D00032323246
:1020F100748055A870030221F0C2AF1221F0D2AF53
:1021010022748055A87003022EEEC2AF122EEED2B9
:10211100AF22748055A87003022C3EC2AF122C3E30
:10212100D2AF22748055A8700302349CC2AF12341E
:102131009CD2AF22748055A870030234C5C2AF127D
:1021410034C5D2AF22748055A870030234EEC2AFF9
:102151001234EED2AF22748055A87003023517C233
:10216100AF123517D2AF22748055A8700302320B1B
:10217100C2AF12320BD2AF22748055A87003023263
:1021810041C2AF123241D2AF22748055A87003020E
:102191003277C2AF123277D2AF22748055A8700362
:1021A100021C7CC2AF121C7CD2AF22748055A87075
:1021B10003021A1DC2AF121A1DD2AF22748055A894
:1021C10070030229EFC2AF1229EFD2AF22748055FA
:1021D100A87003023156C2AF123156D2AF227480B9
:0F21E10055A87003023605C2AF123605D2AF22E1
:03000E00021B7F53
:03001600021B4E7C
:093A7C00740EC0E07400C0E032D9
:101B4E0043A110D2A4C2A490BD147401F0E4F0001D
:101B5E0000000000000000000090BF00E4F090A420
:101B6E00F4E04480F090BD10E05407781FF6752025
:101B7E000043A110D2A4C2A4D2A4C2A490BF00E478
:101B8E00F090BD18740FF090BD007401F090BF007E
:101B9E007403F075A50075D00078FF79DFE4F618B0
:101BAE00D9FC781EF6D8FD75A4045387DFC2A05366
:101BBE00A3FE75A70078007F00E4F208DFFC900119
:101BCE00007F007E4DE4F0A3DFFCDEFA90C0007FC4
:101BDE00007E40E4F0A3DFFCDEFA75730090000097
:0E1BEE0078107455F0A3D8FC7581FF021C37E7
:1036DB00904E00E090B803F0904E01E090B802F0ED
:1036EB00904E02E090B801F0904E03E090B800F0DD
:0136FB0022AC
:103FC000C2AF90BD03E4F00000438E08F80000008B
:033FD00002000EDE
:103FE000C2AF90BD03E4F00000538EF7F80000006C
:033FF00002000EBE
:1037C7008E858F848C838D82EB600DE493A3759235
:0937D70001F0A3759200DBF3225E
:10364F008E858F848C838D82EA7003EB6015EB601F
:10365F0003EA04FAE493A3759201F0A3759200DBD9
:04366F00F3DAF12277
:0D393A008E838F82EB6005EDF0A3DBFB2296
:1037F9008E838F82EA7003EB600DEB6003EA04FAB3
:08380900EDF0A3DBFBDAF9226C
:1036FC008E858F848C838D82AF031BEF6010E0A3CB
:10370C00FF759201E0A37592006F60ECD322C32287
:103811008E858F848C838D82EB600CE0A375920181
:08382100F0A3759200DBF42214
:103472008E858F848C838D82EB601EE0FFA3E0FE3D
:10348200A3E0FDA3E0A3759201F0A3EDF0A3EEF09B
:0A349200A3EFF0A3759200DBE22225
:103673008E858F848C838D82EA7003EB6014EB60FC
:1036830003EA04FAE0A3759201F0A3759200DBF458
:03369300DAF22246
:10373C008E858F848C838D82EB60121BE493A3FFA8
:0F374C00759201E0A37592006F60EDD322C32246
:10339F00D310AF01C3C0D0EFF5E9EDF5EDEEF5EACF
:1033AF00ECF5EE7402140070FC00E5E9FFE5EAFEAF
:0B33BF00E5EBFDE5ECFCD0D092AF2266
:10354000D310AF01C3C0D0EFF5E9EEF5EAEDF5ED2C
:10355000ECF5EE7402140070FCE5E9FFE5EAFEE527
:08356000EDE5EED0D092AF22A0
:1032AD00D310AF01C3C0D0EDF5E9ECF5EAEFF5EBC6
:1032BD00EEF5ECEBF5EDEAF5EE7404140070FCE5BB
:1032CD00E9FFE5EAFEE5EBFDE5ECFCE5EDE5EED02D
:0432DD00D092AF22BA
:10356800D310AF01C3C0D0EFF5E9EEF5EAEDF5ED04
:10357800ECF5EE7402140070FCE5E9E5EAE5EDFF10
:08358800E5EEFED0D092AF2267
:10331400D310AF01C3C0D0EDF5E9ECF5EAEFF5EB5E
:10332400EEF5ECEBF5EDEAF5EE7404140070FCE553
:10333400E9E5EAE5EBE5ECE5EDFFE5EEFED0D0925C
:02334400AF22B6
:102AE5008E858F848C838D82EB22E0FFA3E0FEA38D
:102AF500E0FDA3E0FCA375920122122AE5601F12F6
:102B05002AEFF0A3DB028016EDF0A3DB02800FEEC7
:102B1500F0A3DB028008EFF0A3759200DBE175926C
:102B25000022122AE5602B122AEFEBC3940440021F
:102B3500ECF0A3EBC394034002EDF0A3EBC39402C6
:102B45004002EEF0A3EFF0A3759200EBC39404FBF3
:062B550050D5759200222C
:10319700F582E43583F5837401F08F828E83E582AF
:1031A700222424F582E5833401F58322F582E43570
:1031B70083F5832224E6F582E43EF5832278AFE6A1
:0B31C700FE08E622789CE2FE08E222EF
:1036B900E490DACBF090DACCF090DACDF0784DF2F4
:1036C90008F290DAD8F090B403F090BC22E0547F6D
:0236D900F022DD
:1023CD00C2AF90BE12E04403F0D2AF90CC08E054FF
:1023DD00FCF0E4F51C751DC9751E0F785DF290B803
:1023ED001BE04480F090B817E04404F0E490D0BBBB
:1023FD00F090D0BCF078787401F2087400F2E478B3
:10240D0055F2785B7404F2E4FFEF75F009A4247EB5
:10241D00F582E434CDF583E4F0EF75F009A424ECF6
:10242D00F582E434CCF583E4F00FBF10DC788AE25A
:10243D00541DF2788BE254A0F208E4F220000975E5
:10244D00A50112C932E4F5A5E490CCD9F090D0A342
:10245D00F0C22190BC23E054FDF07E147F2A90B68B
:10246D000AEEF0A3EFF0783FEEF208EFF27E1C7F5C
:10247D005D90D77CEEF0A3EFF090B60EEEF0A3EFEB
:10248D00F0E490D783F090B807F090B805F090D0B5
:10249D0091F090D090F090D0A5F090D0A4F0C2190A
:0124AD00220C
:041013008F418D423A
:10101700E4789EF208E5A5F275F06FEF90C90F121C
:1010270007E4EF2583AF82FE78AFF608EFF68E83ED
:10103700E0700FE54264026009E542640460030260
:10104700124CE542640B600D75A501AF4112D68EB7
:10105700E4F5A5C22375A501AF4112D3A3E4F5A515
:101067001231C4F5828E83E030E50B75A501AF41DF
:10107700129C97E4F5A57B06AD417FFF12146090A3
:10108700DACBE0B401031236B9E541D39400401C32
:101097001231C4FF8E831231A8E060101231A11201
:1010A70031A8E4F090D8BFE0600214F0E54175F094
:1010B7000AA424BFF582E434D0AF82FE7B0AE4FDA4
:1010C70012393A1231C48E8324651231AAE05406CC
:1010D700604390CD7CE07002A3E06039E490DB943C
:1010E700F090DB95F0A3F090DB98F090DB97F0128F
:1010F7002124789CEEF208EFF224041231BD741912
:10110700F0EF24051231BDE541F018E2FC08E2FDDD
:101117007F081220F11231C4FF7B6F7A01E4FD12C0
:1011270037F91231C4FF8E83241C1231B3740412B1
:1011370031A0241F1231B3E4F0A374281231A02484
:101147000A1231B374081231A024151231972413EF
:10115700123197241412319724171231972426122B
:1011670031B3747DF0A3E41231A024281231B3E423
:10117700F0A374FAF0904E36E014FF18E6FC08E688
:10118700FD8C8324221231AAEFF08D828C83E582B5
:1011970024191231B374FFF0903FD4E0FF8D828C95
:1011A70083E58224171231AAEFF0785BE2B5410399
:1011B7007404F2E541C394015034C2AF90CC08E007
:1011C70054FEF0E542640B600790CC04E054FCF059
:1011D700D2AF90D8C2E4F090CBFE1207B300000064
:1011E70000E490CBFDF0788BE254EFF2803090CCA6
:1011F70008E054FDF0E542640B600BE020E0079047
:10120700CC04E054FCF090D8BFE0701290D8AEF058
:1012170090BC22E0547FF0C221E490D903F090CE35
:101227009DE0B541037402F090CC04E070081223EE
:10123700CD789E7401F2789EE260057F0112303707
:05124700789FE2F5A50F
:01124C00227F
:0222E7008F4125
:1022E900E4789EF208E5A5F275F0F3EF90394B1208
:1022F90007E4AF82AE83789CEEF208EFF2E0700358
:102309000223CC1231CBFF24E71231BDE4F0EF12E6
:1023190031BBE0FF30E70590D091800E1231CB122E
:1023290031BBE0FF30E60D90D090E0FEEFF4FFEE18
:102339005FF0801C90D0A5E0FF789CE2FC08E224C5
:10234900E6F582E43CF583E0F4FEEF5E90D0A5F07B
:10235900E5414480F54275A501AF4112D68EE4F5F9
:01236900A5CE
:10236A0075A501AF4112D3A3E4F5A51231CBFF7BCA
:10237A00F37A00E4FD1237F990BF23E04440F0E419
:10238A007870F2786DF290CC08E054F3F090CC04B7
:10239A00E054F3F070111223CDC24E90B433E054DE
:1023AA00FCF0789E7401F2789EE26011903FCCE0D6
:1023BA00700B90DBBAE060057F01123037789FE23C
:0223CA00F5A577
:0123CC0022EE
:0A397800E4F5A512EF75E4F5A522B1
:0A39820075A50112E706E4F5A52281
:05000600E47862F22223
:0432E1008F438D4446
:1032E500122124904C09EEF0A3EFF02404F582E4BA
:1032F5003EF583E543F0EF2405F582E43EF583E5ED
:0F33050044F0904C09E0FCA3E0FD7F020220F1B0
:1035B80090BE27E0904BA4F090BE24120701904BD8
:1035C800A012079B90BE27E0FF904BA4E0B507E050
:0635D800904BA012070158
:0135DE0022CA
:023037008F43C5
:103039007F0390CC04E07003D38001C34002E4FF16
:1030490090DBBAE05207903FCCE0B50703EF702858
:10305900903FCCEFF0122124904C06EEF0A3EFF054
:10306900904C06E0FCA3E0FD2404F582E43CF583E2
:083079007445F07F051220F1FF
:01308100222C
:083A8D00062520063900252062
:0A398C0075A50212CDC6E4F5A522D0
:0231D2008F3D2F
:1031D40085A53EE4F5A5E53D701275A5017E4E7FFB
:1031E400007C407D007BF07A0112364FE53DB4044B
:1031F4001275A5017E377FF57C447D907BC27A00F1
:0632040012364F853EA5C5
:01320A0022A1
:1037E00085A53DE4F5A57E147F2A7C407DC97B1F1D
:0837F0007A0112364F853DA558
:0137F80022AE
:0C39470085A54175A50212DE6A8541A528
:013953002251
:0A39960075A50112B04EE4F5A5225C
:10377800E5A5F075A5012275F005A4240EF582E4EF
:0C37880034D9F58322EFF0A3E0F5A52270
:1030CB0090D908E012377FE0703B90D908E0FB7590
:1030DB00F005A42411F582E434D9F583EEF0A3EFC7
:1030EB00F0EB75F005A4240FF582E434D9F583ECED
:1030FB00F0A3EDF0EB12377F7401F090D908E004E8
:06310B00F0E0540FF02279
:0C39540085A55975A50112C7ED8559A580
:013960002244
:0F0FEE00904B7F12377812D13C904B7FE0F5A5E6
:010FFD0022D1
:0F38EA00904B7F12377812B537904B7FE0F5A5E2
:0138F90022AC
:0F38FA00904B8012377812A563904B7F12378D59
:01390900229B
:08371C008E718F72AF05AE043F
:1037240090DBA2123778AD03AC02AB72AA71129689
:07373400CA90DBA112378DE2
:01373B00226B
:10362A0090DBA41237787888ECF208EDF27884EA15
:10363A00F208EBF27886EEF208EFF212E27790DB0C
:04364A00A312378D03
:01364E002259
:0F390A00904DFF12377812758C904DFFE0F5A5A8
:01391900228B
:0A39A000E4F5A512BD2BE4F5A52205
:10382900759850758920E587547F4480F587758D93
:08383900E6D28ED299C298225A
:0A39AA0075A501129853E4F5A5225B
:10389E00E4F5A512EA8E129AB512726E12D38BE46B
:0338AE00F5A5225B
:1036960090B001EFF0A3ECF0A3EDF090B005E0449C
:1036A60010F0E4904C25F000904C25E004F0E0B4D6
:0236B6000AF513
:0136B80022EF
:10100000353035305F53505000000000000020257F
:03101000000201DA
:0A39B40075A50312D956E4F5A5220B
:0A39BE0075A50312AB88E4F5A522FD
:0A39C80075A50312AA4575A5042297
:0939D20075A50312B03675A504B9
:0139DB0022C9
:0A39DC0075A503129CB875A504221E
:0A39E60075A50312CEEAE4F5A52250
:052E3700904C63EFF078
:102E3C00E4A3F0904C64E0FFC39401504775F06F2D
:102E4C00EF90D1511207E4EF2583F583E0FF904C0E
:102E5C0063E0FEEFB50625A3E0FF75F06F90D1554A
:102E6C001207E4EF2583F583120701E4FBFAF9F866
:102E7C00C31206A66006904C64E0FF22904C64E0FE
:062E8C0004F080AF7FFF9F
:012E9200221D
:10308200904D8DEEF0A3EFF0EB4A603C90A403E08C
:1030920020E1F9C2AFAF0590A406ECF0A3EFF0AFC8
:1030A2000390A40AEAF0A3EFF0904D8DE0FFA3E0B5
:1030B20090A412CFF0A3EFF090A403E04402F0D268
:0930C200AF90A403E020E1F92223
:0A39F00075A50412F98FE4F5A52275
:0A39FA0075A50412F3F2E4F5A5220E
:1035DF00A31207F08E827583001203CC6F22EE7553
:1035EF00F04BA4242EF582E4344A227B017A4F79E2
:0635FF00C7120810E422CF
:0A3A040075A50412E49EE4F5A52266
:0A3A0E00E4F5A512E8E775A504220F
:10334600E4FE1235EDF583E0B50719EE75F04BA4F2
:103356002431F582E4344AF583E030E0071235ED96
:0C336600AF82FE220EEEB401D9E4FEFF9F
:013372002238
:10375B0090A4B3EDF090A4B2EBF090A4B1EFF09085
:0D376B00A4B07480F090A4B0E020E7F92233
:10311100904C9EEEF0FAA3EFF0FBA3ECF0FEA3EDD2
:02312100F0FFBD
:10312300A37401F0AD03AC02FB7A001233EBEF7032
:103133001C904C9EE0FEA3E0FFA3E0FAA3E0FB7D1E
:10314300017C001233EEEF7004904CA2F0904CA27D
:02315300E0FF9B
:013155002257
:1038B100AB07AA06AE04AF05AC02AD037B017A00EB
:0338C1000233E8E7
:0A3A180075A50312B58F75A50422F1
:1038C400904C92E5A5F075A50412E9FA904C92E0AB
:0238D400F5A558
:0138D60022CF
:1038D700904C95E5A5F075A50412EA52904C95E039
:0238E700F5A545
:0138E90022BC
:0C39610085A55E75A50412F466855EA5C0
:01396D002237
:0A3A220075A50212FA6575A50422CD
:0A3A2C0075A50212FAAF75A5042279
:0A3A360075A50212450575A50422CE
:0A3A400075A5021260AF75A50422FF
:0A3A4A0075A502129FB275A50422B3
:0A3A540075A50412F46675A50222A0
:0A3A5E0075A50412EA5275A50222B4
:0A3A680075A50412E9FA75A5022203
:1027CD00904C9A1235FA904C99F0904C99E0FEC3CA
:1027DD009408500D1235DF6008904C99E004F0809C
:1027ED00E9904C99E0120825281100281B01282595
:1027FD0002282F03283904284305284D062857079A
:10280D0000002860ED6003D38001C3928022ED604B
:10281D0003D38001C3928522ED6003D38001C3925F
:10282D009722ED6003D38001C392B122ED6003D3F3
:10283D008001C392B222ED6003D38001C392B32213
:10284D00ED6003D38001C392B422ED6003D3800108
:03285D00C392B76C
:012860002255
:102CAB00904C421235FA904C41F0904C41E0FEC3EF
:102CBB009408500D1235DF6008904C41E004F08011
:102CCB00E9904C41E01208252CEF002CF3012CF776
:102CDB00022CFB032CFF042D03052D07062D0B07E0
:102CEB0000002D11A280801AA2858016A297801257
:102CFB00A2B1800EA2B2800AA2B38006A2B4800257
:082D0B00A2B7E433FF227F02AE
:012D1300229D
:0A3A7200E4F5A512DDAB75A50422F2
:109C3F0054F8FFE04F90B81BF0E054874410F090B9
:109C4F00B817E054074490FFE490B816F0A3EFF074
:109C5F002290BE2BE00490BA0BF090BA2B7402F056
:109C6F002290BE27E054FC440390BA03F090BA232D
:109C7F007401F02290B60A741CF0A37470F090B6C1
:109C8F000E741CF0A37482F0C21522F090BF2374DF
:109C9F0060F090BE23E04401F022E090CA33FF75DC
:109CAF00F06F1207E4EF2583F58322E025E0FFA391
:109CBF00E0C413131354014F22E4F51CF51C7EC9A5
:109CCF007F0F8E1D8F1E8E1D8F1E2290BE26E0F2DF
:109CDF00A3E054FC08F290CCE6E0FEA3E054FCFFB6
:109CEF0008EEF2FE08EFF222F090BE23E054FCF0F3
:109CFF002290B61A741CF0A3745EF022F582E4353C
:109D0F0083F583E4F08F828E832290CC08E04402A7
:109D1F00F0751C01751DCA751E7E2290BE27E004CA
:109D2F0090BA03F02290BE27E054FC2254FC25E0A9
:109D3F00FF901C6CE054074FF02290B85FE0640B6B
:109D4F002290B81BE0548722E05402FF90BC23E01E
:109D5F0054FD4F2290BF23E054FEF0229000EAE022
:109D6F00D39410229000EEE054FDF02290BF23E038
:109D7F004401F0E054E7F0224440F090BE1AE05462
:109D8F00FEF0229000EAE004F022D22F90BF23E0F1
:109D9F004418F02290BE27E00490BA0BF02290B83E
:109DAF001BE054F822E090B684F090B68EE022903B
:099DBF00BE08120701EF24022284
:10420000E4F54D90DBB8E0F54CE4F0C222788CE2A6
:104210004401F2A220B34003024A7F90C90EE02479
:10422000FE70030245181470030246E41470030282
:1042300048911460121470030243B4146003024ADC
:104240004412E9DC024A4AD2229000F9E0540D24DB
:10425000FB606924F8700302436C240C6003024382
:01426000AFAE
:1042610078A4129CDA78A5E26F700318E26E7046AA
:1042710078A2E624FE6003024A4A124AB412DF45DC
:10428100129D0090B81BE090C910129C3F129D2A0C
:10429100E4FDFF12CECA90CA33129D57129C7B785F
:1042A100477405F29000F9E04404F07F1A12E91A0C
:0842B1009000EA024641C2221E
:1042B900024A4A78A2E624FE601B24026003024AED
:1042C9004A12D1D8129C83129D344401129C651262
:1042D9009D63024A4A129D4960FB90BF43E020E07A
:1042E900099000EAE0D39402404212EF45124AA62F
:1042F90090CBFE1207B3000000009000FAE0FF1215
:10430900DFA812EA3690CC047401F0C211129D198B
:104319009000F9E04408F07F1012E91AD222E490E3
:1043290000EAF090CA81E04490F0802C12D1D812B2
:104339009D0012DF4590B81BE090CBFD129C3F1207
:104349009D34440390BA03F09000FAE0FFE4FD12B3
:10435900CECA129C7C129D9278457405F27847F278
:10436900024A4A129D6B400E7F1912E91A12E18620
:10437900129CC8024A4A12E614129C9B9000FAE069
:1043890090C912129CADE04460F0C22275F06FEF43
:1043990090CA33129CB1E090D8D4F09000FA129CE4
:1043A900A9E4F002450DC222024A4AD2229000F144
:1043B900E0546D24FB700302444724F8700302445F
:1043C900B324E070030244BB24C070030244EC240C
:0643D9006C6003024513B5
:1043DF0078A8129CDA78A8E2FC08E2FDC3EF9DFFF3
:1043EF00EE9CFED3EF9418EE9400504778ABE26D3D
:1043FF00700318E26C6003024A4A78A2E624FE704A
:10440F002A124A8090CCDAE0FFE4FD12CECA90CC9B
:10441F00DA129CA9129D57129C689000F1E0440497
:10442F00F07F1D12E91AE49000EAF078457408F263
:05443F00024A4AC222FE
:10444400024A4A78A2E6602E24FE6003024A4A1217
:104454009D6B400B7F1B12E91A751C01024A4A121C
:104464004A80E4FDFF12CECA129C69129D6378450E
:064474007408F202450D80
:10447A00129D4960FBE0640460F6E0640560F19017
:10448A00BF43E0F54E20E203024A4A124AB412EE52
:10449A00E4129D344401129C7878477408F2129D04
:0644AA0099E49000EAF025
:1044B000024A4AE4FF12DFA8024A4A12B4FD900001
:1044C000F1746DF090CC047402F090CC08E04401DB
:1044D000129C9AC222129CC890CA33F090CBFDE085
:1044E00090C910F0129D92D219024A37129D6B406A
:1044F0001A7F1C12E91A12EA36129D2090CA81E036
:1045000044F0F0E490C90EF0024A4AC222129D9291
:10451000024A4AC222024A4AD2229000FDE0540DC9
:1045200024FB700302464724F870030246DF240C84
:104530006003024A4A129CF878A2E614602D1460C7
:104540004A14604724036003024A4AE54C64016050
:1045500003024A4A129D2AC21512BE2590BA23743C
:1045600002F0129D63784574038017E54C64026085
:1045700003024A4A129DA3C21512BE25129C6978F5
:104580004504F290DBB814F0024A4A129D4960FBE0
:1045900090BF43E030E04CE54C6402704678A2E600
:1045A000B4020512ED5A800312EF4590BE241207A3
:1045B000019000EB12079B129D739000F87401F0BC
:1045C00012C8AF129C7078477404F2129DAD129C11
:1045D0004712E238129D009000FDE04404F07F088D
:1045E0000246D99000F6E030E12078A2E66403604C
:1045F00003024A4A9000FDE04410F0C222129CA13E
:10460000E490C90EF07F070246D912EEE478A2E6E4
:10461000B40217129D2A12BE25129C7C784774039F
:10462000F290DBB8E54CF0024A4A12E369129DA30E
:1046300012BE2590BA2B7401F078477403F290DB18
:10464000B87401F0024A4A78A2E624FE60242402EB
:104650006003024A4A9000EEE04402F012C8AF1232
:104660009D34440190BA0BF0129C83129C697845EA
:1046700080299000F8E004F0129D4960FB90BF4251
:10468000E030E01D129D7312C8AF129D0012E23897
:10469000129DAD129C47129C7078477404F2024A36
:1046A0004A90BF43E020E003024A4A129C9B12EF6B
:1046B0004512E61490CC047401F0C211124AA612FD
:1046C0009D1990CA81E044F0F0E490CBA2F0C222A0
:1046D0009000FDE04408F07F1012E91A024A4AC235
:1046E00022024A4AD222129CF8E04401F078457432
:1046F00002F29000F4E0FF541924F7604F24F060B8
:104700005F24186003024786EF30E612129D7B900B
:1047100000F5E020E603129D87754D01806A78A2BE
:10472000E664027063754D0112D82F129C609000F0
:10473000F4E04440F0903FCEE02401FB903FCDE018
:104740003400FAE4FD7F0F12219B803C903FC8E0CB
:1047500060099000F5E04401F0802D9000F4802085
:104760009000F5E020E4217F0C12E91AC2AF90BE60
:1047700012E04403F0D2AF788CE254FEF29000F5E0
:10478000E04410F08002C2229000F5E0FF5407FEE2
:10479000BE0109EF4402129CF7024A4AEE6403602C
:1047A00003024866129CF87857E2FF90BE27E06F3C
:1047B0006003024A4A129DADF0E0547FF090B81AAF
:1047C000E054FEF0E054FDF0903FF6E06025903FAD
:1047D000C8E0FDD394115008129D504418F0803663
:1047E000EDD39479129D5050054450F080284470C8
:1047F000F08023903FC8E0FDD3941B5008129D50D9
:104800004420F08011EDD394B7129D5050054458C8
:10481000F080034478F090B817E054FC4402F0E0D4
:1048200054FBF0903FC8E075F008A4FF90B817E083
:104830005407FDED4FFFE5F0129C5878477409F2DC
:10484000901D11E0FFA3E090B61ACFF0A3EFF01295
:104850009D2AE490B805F090BA2304F09000F5E0AA
:104860004404F0024A4A9000F5E0FD5407640760F2
:1048700003024A4A129CF890B85BE06003024A4A7D
:10488000ED54F89000F5F09000F4E04410F0024A86
:104890004AD2229000F6E0FF543D24FB606A24E8EF
:1048A00070030249E9241C6003024A40EF30E6121B
:1048B0009000F7E020E603129D87129D7B754D0165
:1048C000803E78A2E664027037754D0112E00B124B
:1048D0009CF8E04401F0129C609000F6E04440F047
:1048E000904E06E070057B80FA800F903FD2E02466
:1048F00001FB903FD1E03400FAE4FD7F0F12219BD1
:1049000078457406F2024A4A784AE2FDC378A2E684
:104910009D5403F54B64017051129D7390BE27E0C6
:10492000C39D1313543F049000F8F0E0FF6405703A
:10493000030249E2EFD3940540147F1312E91A9061
:1049400000F67480129CF7E04401F00249E2129CE8
:104950008390B85BE0640C60F8E0640160F312D708
:10496000B290BE27129C630249E29000F8E06072A8
:10497000E58E54707005754F288003E4F54FE4F51B
:104980004EE54EC3954F500500054E80F4E54B644F
:10499000036004E54B704B90BF43E030E04490B8B7
:1049A0005FE0640560F8000090BF43E030E23090C3
:1049B000B82BE054786410702690BE27E07858F247
:1049C0009000EEE04402F012D7B212EEE490BE275F
:1049D000E004129C78129D9978457407F2800312C6
:0249E000EF45A1
:1049E20078457407F2806112B4FD90BE27E054034B
:1049F20078A2F69000F6E04420F090CC08E0440162
:104A0200F090CC047402F0129CC890CBFDE090C9E7
:104A120010129C9A90CA33E4F012D1D8129D3444F9
:104A22000390BA0BF0783FE2FF08E290B60ACFF0AB
:104A3200A3EFF0D22290C912E04490F0800AC22281
:104A42008006788CE254FEF2302232E490B8BBF059
:104A5200E54D600B904E3A129DB44440F0800990AF
:104A62004E39129DB454BFF090BA23E020E0079073
:0D4A7200BA2BE030E00790B87BE054FCF078
:104A7F002212D1D890BE27E054FC440390BA0BF019
:104A8F0090B60A741CF0A37470F090B60E741CF0FC
:104A9F00A37482F0C215227ECB7FF37C4E7D007B08
:104AAF000A1238112212D1D8904E36E0FF12AD0300
:014ABF0022D4
:10E369009000EFE0B4FF239000FCE004F09000F38C
:10E37900E0FF9000FCE0B5070C9000FBE06402F0C0
:10E38900E49000FCF0E49000EFF090BE27E0541C0C
:10E399001313543FFF7401A807088002C333D8FC44
:07E3A900FF9000EFE04FF0D0
:01E3B000224A
:10E2380012EF5D129DBEF553E43EF552E43DF551F3
:10E24800E43CF550E553129D3BE55225E0FFE553CC
:10E25800129CC0A3F0E55125E0FFE552129CC0A333
:10E26800F0E55025E0541EFFE551129CC0FFA3E0E5
:10E2780054E04FF0903FC8E06007901C65E044040C
:01E28800F0A5
:01E289002272
:10DF450090BE17E04401F0E490DB2FF090CC05E0A3
:10DF5500FEA3E0FFC39438EE94015004EF4E701316
:10DF6500129DBEFFE43EFEE43DFDE43CFC90BE0890
:10DF750012079B90BE0BE0129D3B90BE0A129CBA05
:10DF8500901C6DF090BE09129CBA901C6EF090BE6C
:10DF950008E025E0541E129CBDFF901C6FE054E084
:03DFA5004FF02218
:10DFA80075F06FEF90C90F1207E4EF2583AF82FE7B
:10DFB800752220E4F525F5298E83E582241D129D1E
:10DFC8000BE582241B129D0BE582241CF582E435A7
:10DFD80083F5837404F08F828E83E5822423F5828F
:10DFE800E43583F583E4F0A3F08F828E83E5822401
:10DFF8001A129D0BA3A3F08F828E83A3A3A3E044E0
:02E0080080F0A6
:01E00A0022F3
:07EFA10012C2C1120006229A
:10A92F008E488F498F828E83E5822404F582E43529
:10A93F0083F583E024FE602B24FD603224F9605000
:10A94F0024FD605D24FA605D1460342416600302F8
:10A95F00AA7BE5492405F582E43548F583E0FF122B
:10A96F00E9AD22AF49AE4812B60B12210222E549DA
:10A97F002405F582E43548F583E0FF12DCD322E5A8
:10A98F00492405F582E43548F583E0FF128A112248
:10A99F00E5492405F582E43548F583E0FF12EE031F
:10A9AF002212D14122E5492405F582E43548F58389
:10A9BF00E0FF75F06FA42412F582E5F034C9F5833A
:10A9CF00EF2583F583E030E11975F06FEFA424577D
:10A9DF00F582E5F034CAF583EF2583F583E0440172
:10A9EF00F022E5492405F582E43548F583E0FF754B
:10A9FF00F06FA4246FF582E5F034CAF583EF258359
:10AA0F00F583E030E11875F06FEFA42457F582E578
:10AA1F00F034CAF583EF2583F583E04402F0E5496E
:10AA2F002405F582E43548F583E0FF75F06FA42423
:10AA3F006FF582E5F034CAF583EF2583F583E030B7
:10AA4F00E21875F06FEFA42457F582E5F034CAF5DC
:10AA5F0083EF2583F583E04404F0E5492405F5826F
:0DAA6F00E43548F583E0FD7F1C12E8192254
:10C2C100E4FF90B81BE04480F090B817E04404F01C
:10C2D1007E147F2A90B602EEF0A3EFF090B60AEE3C
:10C2E100F0A3EFF0783FEEF208EFF27E1C7F5D9055
:10C2F100D77CEEF0FCA3EFF0FD90B60EECF0A3EDD1
:10C30100F090B606ECF0A3EDF090B44A7414F0A3EB
:10C31100742AF090B452EEF0A3EFF07E027FF09019
:10C32100B622EEF0A3EFF090B62AEEF0A3EFF0E420
:10C331007855F27522207EC97F0F8E1D8F1E8E1DAE
:10C341008F1E785B7404F2E4FF75F06FEFA4242B69
:10C35100F582E5F034C9F5832FF5837404F075F0A7
:10C361006FEFA42429F582E5F034C9F5832FF58315
:10C37100E4F00FBF02D390AA07E030E406788CE224
:10C381004440F2903FFB74FFF090B8417401F0908B
:10C39100BE28E0FCA3E0FDA3E0FEA3E0FF90DB6587
:03C3A10012079BE5
:01C3A4002276
:10B60B00EF2406FDE43EFC8D82F583A3E0F5288D47
:10B61B00828C83E0F52790DB69E0FF600C1239AA7E
:10B62B0090DB69E0600302B71730430D78AAE6544C
:10B63B00FEF6129DC8C22E801030460512EF6980AF
:10B64B000830380512A254C22E303E6212609F3071
:10B65B001807E478A3F612B2CF78A2E620E0439065
:10B66B00D903E0B4090990B677E0547FF0801090CD
:10B67B00B677E0FF90DB23E0FEEF4E90B677F090CD
:10B68B00D8D6E0B4090312D9A012EFA8903F48E036
:10B69B0030E00512ED00800A903F48E030E10312E4
:10B6AB00D8AB301807E478A3F612B2CFC232303DD4
:10B6BB002830152290B60EE0FEA3E0FF90D77CE079
:10B6CB00B50607A3E0B50702D21690B81BE0547F6E
:10B6DB00F0E4FF12C7EFC23022303B06E4FF12C783
:10B6EB00EF22303C07302F241274C32230450C78E4
:10B6FB00AAE6B40217E4F612E84D2230440E90BFCE
:0DB70B0022E054CFF0E478AAF612EC5F22A1
:10A2540090BF23E054FEF020190302A2E490CC0442
:10A26400E06402707BE51E2468F582E51D3401F587
:10A2740083E0D394004026851E82851D83A3E0FFDE
:10A2840090B82BE05407B50704E478A3F6E51E2440
:10A294006AF582E51D3401F583E4F0801290B85F1D
:10A2A400E0640B60F8E0640460F3E0640560EE12BF
:10A2B400B2CFE51E2468F582E51D3401F583E06420
:10A2C40001600302A3C7E51E2449F582E51D34019C
:10A2D400F583E06404600302A3C7AF1C124AC022E2
:10A2E400783CE224FA60792404600302A3C712EFE5
:10A2F4004512EE1CE490B81FF090BE27E00490BA1B
:10A3040003F090BA237401F090B81BE054F8F0E025
:10A3140054874410F090B817E054074490FF90B865
:10A3240016E4F0A3EFF078477409F212E23890B61D
:10A334001A741CF0A3745EF09000F4E04408F090EA
:10A344003FC8E0600990BE27E024047857F2788C77
:10A35400E24401F2782BE2FBE4FD7F0F1221AC22F0
:10A364007858E2784AF290BE17E04410F0000000FA
:10A374000090BE00E0FCA3E0FDA3E0FEA3E0FF909C
:10A3840000EB12079B9000EEE04402F0E49000F82A
:10A39400F012D7B212EEE4784AE20490BA03F090D5
:10A3A400BA237401F09000F6E04404F090BE23E078
:10A3B40054FCF07F0A12E91A782BE2FBE4FD7F0FCC
:04A3C4001221AC2294
:10DE7A0090CC04E0FF64046017EF6408601290C954
:10DE8A000EE0FF64076009EF64086004EFB4092A32
:10DE9A0090DB68E0FF90BE03E0C39FF54BC313FF1E
:10DEAA007E001221BD90BE00E0FCA3E0FDA3E0FECF
:09DEBA00A3E0FF90DB6512079B59
:10DEC3002290BE00E0FCA3E0FDA3E0FEA3E0FF90F0
:0DDED300DB6512079B7F017E001221BD223E
:10609F0090BE17E04403F00000000090BE03E054F0
:1060AF000378A2F6E620E06B12DE7A786DE26003E9
:1060BF0012598778A3E6D39400400116302428C2E2
:1060CF0024C2AF90BE12E04440F07865E2FF08E2D0
:1060DF0090BE06CFF0A3EFF090BE13E04480F0D255
:1060EF00AF7862740CF2227847E2783DF2E4784799
:1060FF00F27845E2783CF2E47845F290D903E0FF7C
:10610F0090D8D6F0E490D903F0BF090790BC22E0F5
:10611F00547FF078A3E6700312420078A2E6FD30B8
:10612F00E00302645990BE17E04403F090CC04E002
:10613F00640160030262BFED704C30112F08E670EE
:10614F002B788CE24402F290BF23E054FEF090BE15
:10615F0003E054FC440190BA0BF012D1D87D01AF8B
:10616F001C12CECA12BB35C2110264492021030290
:10617F00644930220302644978A3E660030264494C
:10618F0012D4A202644978A2E66402600302644951
:10619F0030192208E6601C12EF45E51E241AF5821D
:1061AF00E4351DF583E4F078A3F690BF23E054E7C0
:1061BF00F0C22FC21978A3E66003026449783CE26B
:1061CF00641060030262B990B85FE0640B60F8E09E
:1061DF00640460F3E0640560EE90BF43E0F54A208D
:1061EF00E20302628390B82BE054077859F2851EC0
:1061FF0082851D83A3E0FFE2FEEF6E706412522FC3
:10620F00202F0302644990B85FE0702490BF43E0F1
:10621F00F54A30E308E4FF12C7EF026449E54A305C
:10622F00E4061274C3026449E4FF12C7EF02644923
:10623F00302924E51E241AF582E4351DF583E4F098
:10624F00E51E241AF582E4351DF583E0FF90B81A98
:10625F00E054FEFEEF4EF090BF23E04418F00264CE
:10626F0049E51E241AF582E4351DF583E4F012D5B5
:10627F0028026449E51E241AF582E4351DF583E4EE
:10628F00F012D528E51E2449F582E51D3401F5836A
:10629F00E020E403026449E51E2458F582E51D342D
:1062AF0001F583E4F0A3F0026449129926026449D0
:1062BF0090CC04E06402600302643F301803026470
:1062CF004930191490BE17E04402F000000000900E
:1062DF00BE03E0540378A2F690DACCE06401703488
:1062EF00D3784EE2940018E29400402890DACDE083
:1062FF00602208E224FFF218E234FFF208E2700293
:10630F0018E27010D22590C92EE0FFA3E0784DCF90
:10631F00F208EFF278A2E66402600302641208E664
:10632F006003026449A222B34003026449A24CB342
:10633F00400302644990C911E0540360030263FDF6
:10634F0030195FC21090B85BE0700A90CA77E0FF17
:10635F0012CF68800312D1D890CA77E0FFD3940090
:10636F00403CEF25E078A3F690BF23E04401F09086
:10637F00CA5AE030E35A90CA7AE0FF7E0090CA5FB3
:10638F00E0FCA3E02FFFEE3CCF24FFCF34FF90CAF9
:10639F0067F0A3EFF090CA5AE054F7F08032D210B2
:1063AF00802E90DACBE0B4010512E129801990C953
:1063BF003AE0FF90BE0AE0C39FC394044004D23377
:1063CF008002C23312D1D8D21090BF23E054FEF016
:1063DF0078457410F2E4FDFF12CECA90BE03E0546C
:1063EF00FC440390BA0BF012BB35C233804C90CAF9
:1063FF0058E030E40690CA6C7401F0788CE254FDDA
:10640F00F28037301034A222B3502F78A2E6702AD0
:10641F0008E67026A24CB3502190B85FE0640B6081
:10642F00F8E0640460F3E0640560EE12B2CF800A16
:10643F0090CC04E0B4080312910C785DE260057F04
:0A644F0002124AC0788CE254BFF23A
:016459002220
:02CECA008F5186
:10CECC0075F06FEFA424FCF582E5F034C9F5832FDF
:10CEDC00F583E0FFED601675F06FE551A424FDF5C8
:10CEEC0082E5F034C9F5832551F583E0FFEF6061ED
:10CEFC00785BE26551605375F06FE551A42499F5A8
:10CF0C0082E5F034C9F5832551AD82FC7EAC7F4CB3
:10CF1C007B1012381190CBF3E090B80BF090CBF45F
:10CF2C00E090B80AF090CBF5E090B809F090CBF611
:10CF3C00E090B808F090CBF7E090B80FF090CBF8F9
:10CF4C00E090B80EF0785BE551F290B8537403F0B2
:0BCF5C0022E490B853F0785B7404F2FC
:01CF670022A7
:10D141009000F4E0FF54486440600AEF54A0700579
:10D15100E05424602F12EF4590BF23E054FEF07895
:10D161002BE2FBE4FD7F0F1221AC202E699000F42D
:10D17100E0FF30E20354FBF09000F4E054FEF07F56
:10D181000B12E91A9000F6E0544464406006A3E0F3
:10D191005405604212EF4590BF23E054FEF0782B16
:10D1A100E2FBE4FD7F0F1221AC202E2A9000F7E074
:10D1B100FF30E703547FF09000F6E054FBF090BE9F
:10D1C10023E054FCF0E04401F0783CE2B40602E4D0
:07D1D100F27F0912E91A22A6
:10EE0300EF24FE700D9000FDE04401F090C90E74F4
:09EE130002F0788CE24401F222C5
:10E9AD00851E82851D83E054466023A3A3E0540396
:10E9BD00701C75F06FEFA42412F582E5F034C9F5E3
:0FE9CD00832FF583E04420F0788CE24402F2229D
:106D86008E4D8F4E8D828C83E0854E82854D83F0AD
:106D96008D828C83A3E0854E82854D83A3F08D8200
:106DA6008C83A3A3E0854E82854D83A3A3F08D82B9
:106DB6008C83A3A3A3E0854E82854D83A3A3A3F072
:106DC600ED2404F582E43CF583E05403FFE54E240C
:106DD60004F582E4354DF583EFF0ED2405F582E404
:106DE6003CF583E0FFC4333354C0FFED2404F58241
:106DF600E43CF583E0FE1313543F4FFFE54E2405B4
:106E0600F582E4354DF583EFF0ED2406F582E43C9A
:106E1600F583E0FFC4333354C0FFED2405F582E467
:106E26003CF583E0FE1313543F4FFFE54E2406F571
:106E360082E4354DF583EFF0ED2407F582E43CF569
:106E460083E0FFC4333354C0FFED2406F582E43CEF
:106E5600F583E0FE1313543F4FFFE54E2407F582FA
:106E6600E4354DF583EFF0ED2407F582E43CF58338
:106E7600E0FFC45403FFE54E240BF582E4354DF5DF
:106E860083EFF0ED2408F582E43CF583E0FFE54E60
:106E96002408F582E4354DF583EFF0ED2409F582FB
:106EA600E43CF583E0FFE54E2409F582E4354DF533
:106EB60083EFF0ED240AF582E43CF583E0FFE54E2E
:106EC600240AF582E4354DF583EFF0ED240BF582C7
:106ED600E43CF583E0FFE54E240CF582E4354DF500
:106EE60083EFF0ED240CF582E43CF583E0FFE54EFC
:106EF600240DF582E4354DF583EFF0ED240DF58292
:106F0600E43CF583E0FFE54E240EF582E4354DF5CD
:106F160083EFF0ED240EF582E43CF583E05407FFA1
:106F2600E54E240FF582E4354DF583EFF0ED240EA2
:106F3600F582E43CF583E0FFC31354FCFFED240F18
:106F4600F582E43CF583E0FEC433333354804FFFCF
:106F5600E54E2413F582E4354DF583EFF0ED24106C
:106F6600F582E43CF583E0FFC43333335480FFED10
:106F7600240FF582E43CF583E0FEC3134FFFE54E94
:106F86002412F582E4354DF583EFF0ED2411F582F8
:106F9600E43CF583E0FFC43333335480FFED241023
:106FA600F582E43CF583E0FEC3134FFFE54E241162
:106FB600F582E4354DF583EFF0ED2411F582E43CDE
:106FC600F583E0FFC313540FFFE54E2410F582E46A
:106FD600354DF583EFF0ED2411F582E43CF583E0C1
:106FE600FFC4135407FFE54E2414F582E4354DF52E
:046FF60083EFF02213
:10DA170090BE17E04440F00000000090BE00E054C4
:10DA27000FF0C390BE06E0648094805035A3E024D5
:10DA3700E2FE90BE06E0340490C90CF0A3CEF0904D
:10DA4700BE00E0FCA3E0FDA3E0FEA3E024FFFFEEA1
:10DA570034FFFEED34FFFDEC34FFFC90CCE81207F9
:10DA67009B2290BE06E0FFA3E090C90CCFF0A3EF86
:10DA7700F090BE00E0FCA3E0FDA3E0FEA3E0FF9072
:06DA8700CCE812079B220F
:08E1860090C90FE054466052FD
:10E18E0090BF23E054BFF090BF337440F090CCE8C2
:10E19E00E0FCA3E0FDA3E0FEA3E0FF90BE001207AB
:10E1AE009B90C90CE0FFA3E090BE06CFF0A3EFF06A
:10E1BE0090BE12E04470F0000000000000000090DD
:10E1CE00BF13E0F55090BF12E0F55090BF23E0442E
:02E1DE0040F00F
:01E1E000221C
:10EA360090BF23E054BFF090BF337440F090BE12F5
:10EA4600E04403F000000000000090BF13E0FF90D8
:0BEA5600BF12E0FF90BF23E04440F03F
:01EA61002292
:0FEEE400E490B807F090B81BE054874468F02220
:04E819008F538D5438
:10E81D00122124904C31EEF0A3EFF02404F582E4A4
:10E82D003EF583E553F0EF2405F582E43EF583E5EF
:0FE83D0054F0904C31E0FCA3E0FD7F061220F177
:01E84C0022A9
:02E91A008F501C
:10E91C00122124904C25EEF0A3EFF02404F582E4B0
:10E92C003EF583E550F0EF2405F582E43EF583E4F3
:0EE93C00F0904C25E0FCA3E0FD7F051220F1D9
:01E94A0022AA
:10BB350090BA2B7402F0E51E2424F582E51D34012C
:10BB4500F583E05402FF90BC23E054FD4FF0AF1C99
:10BB550012D6B4788CE24402F290DACBE06401703C
:10BB6500557E037F4A90B622EEF0A3EFF090B626FD
:10BB75007414F0A37429F090DAD8E0701B783F7440
:10BB850003F208744AF290B62AEEF0A3EFF090B6ED
:10BB95000AEEF0A3EFF0803D783F7407F208744792
:10BBA500F27E07FF90B62AEEF0A3EFF090B60AEE0C
:10BBB500F0A3EFF0801F783FE2FF08E290B60ACFCE
:10BBC500F0A3EFF090D77CE0FFA3E090B60ECFF0A6
:10BBD500A3EFF0D215E51E2447F582E51D3401F5E6
:10BBE50083E0540390B805F078457410F2904E1D2B
:10BBF500E030E12190DACBE06401601920191620CC
:10BC05003313851E82851D83E020E70990B868E01F
:10BC15004480F0800790B868E0547FF0904E39E09A
:0CBC250090B684F090B68EE054BFF02280
:0EEF0200904E22E0FF90B8B3E02FF404FF22FF
:10946900754E01E51E241AF582E51D3401F583E0E8
:10947900FF20E30302960230190FE51E245EF582F0
:10948900E51D3401F583E0F54EE51E2419F582E565
:109499001D3401F583E0FE904E3CE0C36480F8EE94
:1094A9006480984055EF30E103029602E51E246678
:1094B900F582E51D3401F583E0254EF0E51E2466AD
:1094C900F582E51D3401F583E0C3648094B250034D
:1094D900029602E51E241AF582E51D3401F583E0A2
:1094E90054E4F0AD1C7F1D12E819E51E2466F582CF
:1094F900E51D3401F583741EF022E51E2419F58259
:10950900E51D3401F583E0FF904E3BE0D36480F81C
:10951900EF64809840030295C6E51E241AF582E59A
:109529001D3401F583E030E003029602E51E24664E
:10953900F582E51D3401F583E0C3954EF0E51E245F
:1095490066F582E51D3401F583E0D36480944E40CD
:1095590003029602E51E241AF582E51D3401F583FE
:10956900E054F4F0E51E241AF582E51D3401F58373
:10957900E04410F0851E82851D83E030E528E582F0
:109589002456F582E5833401F583E0FEA3E0D39404
:1095990000EE94014010E51E241AF582E51D340100
:1095A900F583E04404F0AD1C7F1D12E819E51E2483
:1095B90066F582E51D3401F58374E2F022E51E2487
:1095C90066F582E51D3401F583E0FFD3648094805C
:1095D9004010E51E2466F582E51D3401F583E0148B
:1095E900F022C3EF64809480500FE51E2466F58253
:0995F900E51D3401F583E004F0E6
:019602002245
:0CEF390090BA23E054FCF0E0440CF022FD
:0CEF450090BA2BE054FCF0E0440CF022E9
:10ED5A0090BA23E054FCF090BA2BE054FCF090BA3D
:0DED6A0023E0440CF090BA2BE0440CF022A2
:104000000011001B007900B700E00153FFFF000022
:10401000000000000000000000000000000000039D
:104020000303020202020101010101010101040472
:104030000404040404040404040404040404040341
:104040000303020202020101010101010101001B3F
:10405000000A0014001EFFFF001D007900B7FFFFDB
:10406000FFFF00E001530036FFFF003C005A005301
:10407000001D016F02280168021C02A703FD000257
:07408000FEFE01FE0102FE3D
:10992600E4F54EC22A90DBA6F078B17601788CE297
:109936004402F2E54E6003029AB4A222B340030247
:109946009AB4A24CB34003029AB4E51E2436F582BB
:10995600E4351DF583E06401704A754E01E51E2469
:1099660036F582E4351DF583E4F090B81BE05487A4
:109976004418F090B817E054FC4401F0E490B8168F
:10998600F0A3E05407F0E51E2434F582E4351DF516
:10999600837404F0E51E2435F582E4351DF583E471
:0499A600F0029A4AE7
:1099AA00851E82851D83A3A3A3E0F55030E750549A
:1099BA003F90400E93F54FB401097F0112DC618F8D
:1099CA004E803CE54FB4020F754E017848E2FE081E
:1099DA00E2FF1267A28028E54FB40318785EE2FE20
:1099EA0008E2FF12A52E8F4EE54E7013754E011236
:1099FA00EF51800BE54FB40406754E0312EF10E5E4
:109A0A004E703D851E82851D83A3A3E054037029F1
:109A1A00302905754E018021E51E2446F582E51D93
:109A2A003401F583E06012754E01E51E2446F58285
:109A3A00E51D3401F583E014F0E54E600312EF51A1
:109A4A00E54EB40203E4F54EE54E6045B4030790D3
:109A5A00CA81E0549FF0D211851E82851D83A3E03E
:109A6A00FF90B81BE054F8FEEF4EF012A0D27847F0
:109A7A007410F2E51E241FF582E4351DF583E0FE1D
:109A8A00A3E024FFFBEE34FFFA7D01E4FF12219BE1
:109A9A0022C21130210EA222B35009A24CB35004A3
:0A9AAA0012D4A222788CE254FDF2DF
:019AB400228F
:1092BE00E4F54E90DBA6F0C22A78B17601788CE206
:1092CE004402F230202E754E017848E2FE08E2FF8D
:1092DE00F5828E83E030E00FEF4E600B18E2FE0851
:1092EE00E2FF1267A28002C22090DACDE0B402152E
:1092FE00E4F0801190DACCE0600B90DACDE06005FE
:10930E0012C3A58F4EA222B3400302939BE54E706B
:10931E007CA24CB3507790C945E06401702B754E1A
:10932E0001F090B81BE054874418F090B817E05441
:10933E00FC4401F0E490B816F0A3E05407F090C995
:09934E00437404F0A3E4F0804430
:1093570090C912E0FF543F90400E93F54FEF30E76E
:1093670033E54FB40109E4FF12DC618F4E8025E538
:109377004FB4020F754E017848E2FE08E2FF12670C
:10938700A28011E54FB4030C785EE2FE08E2FF12FB
:04939700A52E8F4E22
:10939B00E54E703E202912202B0F90CA5AE020E791
:1093AB000890DACCE0541E6029754E0112EF51E59E
:1093BB001E2449F582E51D3401F583E05414601237
:1093CB0020290FE51E245DF582E51D3401F583741C
:1093DB0001F0E54EB40203E4F54EE54E605F90C933
:1093EB0010E0FF90B81BE054F8FEEF4EF012A0D245
:1093FB007847E2641160037410F2302A6090CA5807
:10940B00E05414605890CA67E0FEA3E0FF90CA6175
:10941B00E0FCA3E0FDC39FEC9E404278B1E6FF7EEB
:10942B0000ED2FFFEE3C90CA67F0A3EFF090CA5807
:10943B007404F090C911F0A3E04480F022E51E24DF
:10944B0049F582E51D3401F583E05414600FE51EE8
:0D945B00245DF582E51D3401F5837401F0F8
:0194680022E1
:10C3A50090DAD6E078B1F690DACDE0FFB4010BC2B1
:10C3B50025E490C929F07D01800FEFB40209E490CE
:10C3C500DACDF07D018002E4FDED700302C48590B5
:10C3D500B81BE05487FF90DACEE0FE4F90B81BF013
:10C3E50090CA56E030E02AEE64706009EE64506051
:10C3F50004EEB4200890DBA67401F08014EE647896
:10C405006009EE64586004EEB4400690DBA6740241
:10C41500F090DAD0E0FFA3E090B61ACFF0A3EFF0EA
:10C4250090DACCE0541E601D90DAD7E0601ED22A67
:10C43500E490C943F090C912E020E31090C92AE0C6
:10C445006402F0800790C92AE06402F090DAD4E033
:10C45500FEA3E07803C333CE33CED8F9FF90B817E7
:10C46500E05407FBEEEF4BFF90B816EEF0A3EFF0AC
:10C4750090B817E054FCFF90DACFE04F90B817F072
:02C48500AF0501
:01C487002292
:02DC61008F51E1
:10DC63007F021FE51E242EF582E4351DF583E0FDBA
:10DC7300A3E090B81ACDF0A3EDF0E51E2430F582B1
:10DC8300E4351DF583E0FDA3E090B816CDF0A3EDD8
:10DC9300F0E51E2432F582E4351DF583E0FDA3E0B3
:10DCA30090B61ACDF0A3EDF0851D1D851E1EE51E51
:10DCB300242DF582E4351DF583E078B1F6D22AE50B
:0FDCC3001E2435F582E4351DF583E090DBA6F0D5
:01DCD200222F
:1067A2008E518F5290B81BE054874418F090DACC87
:1067B200E0541E600D851E82851D83A3A3A3E020E5
:1067C200E30FE51E241BF582E4351DF583E0640228
:1067D200F090B817E054FC4403F0E5522404F5822B
:1067E200E43551F583E075F008A4FF90B817E05442
:1067F20007FDE5F0ED4FFF90B816E5F0F0A3EFF0DE
:10680200855282855183A3A3E0FEA3E0FF90B61ACE
:10681200EEF0A3EFF0E51E2432F582E4351DF58398
:10682200EEF0A3EFF0E51E2434F582E4351DF58386
:106832007402F090DBA6E0FFE51E2435F582E43514
:106842001DF583EFF0D22A855282855183E054F000
:1068520024E0700302692724D0602624F07003022A
:10686200693824E0700302694924706003026ABB3C
:10687200855282855183A3E0FD7F0A12E819026ADC
:01688200BB5A
:1068830090BE24E0FCA3E0FDA3E0FEA3E0FF7801BB
:106893001206B7904C2512079B904C25E0FCA3E011
:1068A300FDA3E0FEA3E024F0FFE43EFEE43DFDE4AF
:1068B3003CFC90CCE412079B90CCE7E054FEFFF045
:1068C300855282855183A3A3E0FCA3E0F5828C83E8
:1068D300A3EFF090CCE6E0FF855282855183A3A31A
:1068E300E0FCA3E0F5828C83A3A3EFF090CCE5E07A
:1068F300FF855282855183A3A3E0FCA3E0F5828C3C
:1069030083A3A3A3EFF090CCE4E0FF8552828551EB
:1069130083A3A3E0FCA3E02404F582E43CF583EF26
:01692300F083
:10692400026ABBE51E24EEF582E4351DF58374018D
:10693400F0026ABB855282855183A3E0FD7F0D126C
:05694400E819026ABB26
:10694900E51E2449F582E51D3401F583E06030E553
:106959001E2456F582E51D3401F583A3E025E0FFE9
:106969000582D5820215831582E033904C2DF0A360
:10697900EFF0E02414F0904C2DE03400F08024E591
:106989001E241FF582E4351DF583E0FEA3E078039C
:10699900C333CE33CED8F92414FFE43E904C2DF006
:1069A900A3EFF090BE24E0FCA3E0FDA3E0FEA3E08A
:1069B900FF78011206B7904C2912079B904C29E0E9
:1069C900F8A3E0F9A3E0FAA3E0FB904C2DE0FEA3C5
:1069D900E0FFE4FCFDEB2FFFEA3EFEED39FDEC386C
:1069E900FC904C2912079B904C2CE054FEF0904CE3
:1069F90029E05407F0904C2CE0FF855282855183A1
:106A0900A3A3E0FCA3E0F5828C83A3EFF0904C2BC9
:106A1900E0FF855282855183A3A3E0FCA3E0F582C0
:106A29008C83A3A3EFF0904C2AE0FF855282855115
:106A390083A3A3E0FCA3E0F5828C83A3A3A3EFF0D7
:106A4900904C29E0FF855282855183A3A3E0FCA3E2
:106A5900E02404F582E43CF583EFF0122135904CF3
:106A69002FEEF0FCA3EFF0FD904C2FE0FEA3E0FF2A
:106A79002404F582E43EF583740FF0855282855132
:106A890083A3E0FBEF2405F582E43EF583EBF08573
:106A99005282855183A3A3E0FEA3E0FFED2406FB08
:106AA900E43C8B82F583A3A3EEF0A3EFF07F0612FB
:026AB90020F1CA
:0E6ABB00851E82851D83A3A3A3E054FBF02259
:04A52E008E518F5269
:10A532008F828E83A3E0FF75F06FA42457F582E526
:10A54200F034CAF583EF2583F583E0545E60037F20
:10A552000022AF52AE511276F378B1A6078552822D
:10A56200855183A3A3E0FF90B817E054FCFEEF4EA1
:10A57200F0855282855183A3A3A3E0FFA3E090B6A6
:10A582001ACFF0A3EFF0E51E2434F582E4351DF571
:10A59200837404F0855282855183A3A3A3E0FEA3B2
:10A5A200E0FFE51E2432F582E4351DF583EEF0A3CB
:10A5B200EFF090DBA6E0FFE51E2435F582E4351DC1
:10A5C200F583EFF0E5522405F582E43551F583E099
:10A5D200FEA3E0FF7860E2FC08E2FDD3EF9DEE9C73
:10A5E200500F8E538F548552828551837403F080AD
:10A5F200548C538D54855282855183A3A3A3E55372
:10A602008554F01204A8E5522405F582E43551F58B
:10A6120083C083C082C3A3E09DFF0582D582021559
:10A62200831582E09CD082D083F0A3EFF085528222
:10A63200855183A3A37401F0851E82851D83A3A384
:10A64200A3E04402F0E554AE537803C333CE33CED5
:10A65200D8F9FF90B817E05407FDEEEF4DFF90B820
:10A6620016EEF0A3EFF0D22AE51E241BF582E435A4
:10A672001DF583E06402F0851E82851D83A3A3A3DA
:06A68200E054FEF07F0130
:01A6880022AF
:0CEF510090B81BE05487F078B1760122E4
:0EEF100090B81BE054874408F078B1760122D7
:10A0D200E51E241BF582E4351DF583E0FF90B81AD6
:10A0E200E054FDFEEF4EF0E51E241AF582E4351D24
:10A0F200F583E0FF90B81AE054FEFEEF4EF090BEFA
:10A1020017E04402F00000000078A3E6FF25E0FF1C
:10A1120090BE03E02F440190BA03F090CC04E0B467
:10A12200020E90BA03E05403FFBF0304E024FEF0E2
:10A1320030161930140DC216C21490B81BE04480B8
:10A14200F0801090B81BE0547FF0800790B81BE0BD
:10A152004480F090B817E04404F090DACBE0540366
:10A16200600512E129800312D1D8E4FDAF1C12CEA2
:10A17200CAE51E2424F582E51D3401F583E054026C
:10A18200FF90BC23E054FD4FF0AF1C12D6B490B840
:10A192007BE054FCF0E0FF90DBA6E0FEEF4E90B8CF
:10A1A2007BF0E51E2422F582E51D3401F583E0FFF4
:10A1B20012AD037847E264116015E51E2447F5826B
:10A1C200E51D3401F583E0540390B807F08005E4FF
:10A1D20090B807F020280D12EF390000000090BA65
:10A1E200237401F0C22878B1E6FF78A326F6302A5C
:10A1F20060851E82851D83A3A3A3E04408F0E51EAB
:10A20200242DF582E4351DF583EFF090B81AE0FEB7
:10A21200A3E0FFE51E242EF582E4351DF583EEF062
:10A22200A3EFF090B816E0FEA3E0FFE51E2430F5A0
:10A2320082E4351DF583EEF0A3EFF090CC04E0B498
:10A24200010FE51E2446F582E51D3401F5837404F1
:02A25200F022F8
:0476F3008E558F56CB
:1076F7007F187E01E4F97860F2087411F2E51E2420
:1077070047F582E51D3401F583E030E01009E51EF9
:107717002418F582E4351DF583E0FC800DE51E2471
:1077270017F582E4351DF583E0FCE5562405F5825F
:10773700E43555F583E0FAA3E0FBE96066D3EB9403
:1077470011EA940050057D010277FDD3EB9436EAE8
:10775700940050057D030277FDD3EB9453EA940020
:10776700500EEC30E2057D070277FD7D0B0277FDB9
:10777700D3EB946FEA940150047D0F8079D3EB9497
:1077870028EA9402500CEC30E4047D1F80687D2FBA
:107797008064D3EB94A7EA940250047D3F80577D21
:1077A7007F8053D3EB9411EA940050047D01804607
:1077B700D3EB941BEA9400500CEC30E1047D03807A
:1077C700357D078031D3EB9479EA940050047D0727
:1077D7008024D3EB94B7EA9400500CEC30E3047D9B
:1077E7000F80137D1F800FD3EB94E0EA94005004C1
:1077F7007D1F80027D3FEC5205E970030278A6EDFC
:10780700C3944040167F7878607403F20874FDF2E1
:107817007E0590DBA67402F0027907EDC394204041
:10782700167F7078607402F20874A7F27E0590DB09
:10783700A67401F0027907EDC3941040167F5878BB
:10784700607402F2087428F27E0390DBA67402F0DB
:10785700027907EDC3940840167F5078607401F2EF
:1078670008746FF27E0390DBA67401F0027907EDCE
:10787700C3940440127F407860E4F2087453F29096
:10788700DBA67402F08079EDC3940240737F207801
:1078970060E4F2087436F290DBA67401F08061EDC3
:1078A700C39420400F7F7878607401F2087453F214
:1078B7007E05804CEDC39410400E7F707860E4F233
:1078C7000874E0F27E058038EDC39408400E7F58B7
:1078D7007860E4F20874B7F27E038024EDC3940461
:1078E700400E7F507860E4F2087479F27E038010CE
:1078F700EDC39402400A7F207860E4F208741BF21B
:0A79070090B81BE054874FF0AF0664
:017911002253
:02AD03008F516E
:10AD0500E4F552F553FF90DB77E06404700302AE7F
:10AD150039904E36E06551704F90B87BE054036032
:10AD2500010F90DB22E0B50712783BE2B5510C909C
:10AD35003FFAE0FE903FFCE06E6056EF601975F05B
:10AD450002E551A4242CF582E5F0344EF583E0F5B7
:10AD550052A3E0F553800A904E34E0F552A3E0F596
:10AD65005390DB22EFF08029783BE2B5510C903F00
:10AD7500FAE0FF903FFCE06F601775F002E551A423
:10AD8500242CF582E5F0344EF583E0F552A3E0F589
:10AD950053E5534552700302AE39903FFDE0605BC9
:10ADA500AF53EF3395E0F5548F55903FFAE0243DCE
:10ADB500F582E4344EF583E0FFFD3395E0FCED25A7
:10ADC50055F555EC3554F554C3648094805005759C
:10ADD5005300804AC3E5559480E5546480948040CF
:10ADE50009855252747FF5538034EF3395E0FEEFB9
:09ADF5002553F553EE3552F552D9
:02ADFE008023B0
:10AE0000743D2551F582E4344EF583E0FF3395E03F
:10AE1000EFFEE424F0F555E43EF554AD55FC7F0813
:03AE200012369651
:10AE2300903FFAE0903FFCF0AD53AC527F0B1236EB
:06AE330096783BE551F2A8
:01AE390022F6
:10E1290090DAD9E014604404704A90CC04E0B40158
:10E139001D78A2E6700C90DADBE0248090BC22F016
:10E14900803290DADAE0248090BC22F0802678A22E
:10E15900E6700C90DADAE0248090BC22F080159009
:10E16900DADBE0248090BC22F08009E490BC22F044
:0DE1790090BC02F012D1D8E490B853F0220F
:10EDCD007862E2640E601390B86E7401F0A3E4F003
:0BEDDD0090BE1AE04401F0740EF22218
:10D1D8007862E2640A60467ECB7FF312E65490CB15
:10D1E800F6E090B81FF090BC037480F090CC04E097
:10D1F800B4010990BE1AE04401F0801C90BE1AE008
:10D2080054FEF0E04402F090BE067402F0A37430BD
:10D21800F090BE1BE04401F07862740AF230331CCF
:10D2280090B86E7409F0A37450F090BC1E7401F0AD
:10D23800A3745AF090BC277472F0801F7851E2FFF3
:10D2480008E290BC1ECFF0A3EFF0785AE290BC271A
:10D25800F090B86E7403F0A37410F090B403E05427
:03D268007FF02232
:10CF68008F4B7862E2FF640B700302CFFCEF640A18
:10CF7800600D7ECB7FF312E65490BC037480F09072
:10CF8800CBF6E090B81FF0E54B600C90B86E743AA1
:10CF9800F0A37498F080357850E2FDFB75F010A48A
:10CFA8002410FEE5F0340390B86EF0A3CEF0EB75D4
:10CFB800F004A4FFAEF0C374EA9F90BC1FF07402A3
:10CFC8009E90BC1EF0ED240E90BC27F090B403E0B8
:10CFD800547FF090BE1AE054FEF0E04402F090BE98
:10CFE800067402F0A37430F090BE1BE04401F078A0
:0ECFF80062740BF2E54B600578537401F2226F
:10E00B007862E2640560427E4E7F0012E65412EAAB
:10E01B003690BC037401F090B86EE04480F0900031
:10E02B00F7E054BFF090B403E04480F078627405DD
:10E03B00F290BE1AE054FDF090BE067401F0A3748A
:10E04B0028F090BE1BE04401F09000F7E030E308AD
:10E05B0090BC02E04408F02290BC02E054F7F0229E
:10D82F0090B8137433F090B812748BF090B81174E1
:10D83F009EF09000F0E090BC13F07862E26402601A
:10D84F0044E490BC0CF0A3749EF0A3748BF0A3740B
:10D85F0033F090BC037402F012EA3690B86EE044D5
:10D86F0080F09000F5E054BFF090B403E04480F0F6
:10D87F0078627402F290BE0614F0A37428F090BE82
:10D88F001BE04401F09000F5E030E30890BC02E0AB
:0CD89F004408F02290BC02E054F7F02294
:10EE1C007862E26403600990BC037440F07403F2FE
:09EE2C00904E36E0FF12AD032206
:0ABE25007862E26404700302BF04B7
:10BE2F0090BE12E04403F090CC04E0707490BF23F6
:10BE3F00E078ACF2E4F090BF337440F090BE2BE0AA
:10BE4F0078ADF29000FEE0FF75F06FA4241DF5822F
:10BE5F00E5F034C9F583EF2583F583E0FCA3E0FD1E
:10BE6F00A3E0FEA3E0FF90BE28E0F8A3E0F9A3E073
:10BE7F00FAA3E02FFFEA3EFEE93DFDE83CFC90BE51
:10BE8F000012079B90BE13E04402F090BE2BE0FF20
:10BE9F0078ADE2B507A690BF13E0F218E290BF238A
:01BEAF00F0A2
:10BEB0009000FEE0FF75F06FA42413F582E5F034E6
:10BEC000C9F583EF2583AF82FE12E65490BC03745C
:10BED00004F07851E2FF08E290BC1ECFF0A3EFF02F
:10BEE000785AE290BC27F090B86E7402F0A374D830
:10BEF000F090BE1AE04401F090B403E04480F07882
:10BF0000627404F2904E36E014FF12AD0390BC024E
:0EBF1000E05401FF9000FBE04F90BC02F022D5
:10D7B2007862E2FF64076051EF640560077E4E7F86
:10D7C2000012E65490BC037420F07851E2FF08E2A4
:10D7D20090BC1ECFF0A3EFF0785AE290BC27F090F5
:10D7E200B86E740CF0A374D0F090BE1AE054FEF040
:10D7F20090B403E0547FF0E490B853F0904E03E00D
:10D8020090B81FF078627407F29000EBE0FCA3E09E
:10D81200FDA3E0FEA3E0FF90BE0012079B90BE12A4
