:020000040000FA
:200000000218850221DBE47862F2220222F00218BA000002221C02188522220222FE222200
:200020002222FF0222C5FFFFFFFFFF0222FDFFFFFFFFFF0222EF9068897402F0A3E5A5F066
:20004000A37480F0AF81A807E6A3F0A37416F0E58114F8E6A3F07C687D857F04122409E42D
:20006000FEFF220222FE0202A8E86480F8E933E83360110460F0ED33EC337009E8FCE9FD51
:20008000EAFEEBFF220460DED3EB9FEA9EE99DE8C2E78CF0C2F795F0400CE8CCF8E9CDF9CD
:2000A000EACEFAEBCFFB12027385D0F05804700320D5B3E80470075002B2D50202B292D53D
:2000C000EC0460F7E4CCC0E0C398F8603B94186008400DD0E0FB02028AE4FBFAC9FC8028BB
:2000E000E830E406E4C9FBE4CAFCE830E305E4C9CACBFCE854076010F8C3E913F9EA13FA14
:20010000EB13FBEC13FCD8F130F52FC3E49CFCEF9BFFEE9AFEED99FDD0E0FBEF4E4D4C700C
:200120001222DB030202AFEC2CFCEF33FFEE33FEED33FDED30E7EB02028AEF2BFFEE3AFECD
:20014000ED39FDD0E0FB50130BBB00030202B2ED13FDEE13FEEF13FFEC13FC02028A020265
:20016000B2EC5D046005E8590470030202A8120273580460F6EC4860F2EC7004FDFEFF227C
:20018000C860DB2481C85009C398600250060202AF9850CAF582E9294B4A7005AB8202025A
:2001A0009E75F0007C1A7880C3EF9BEE9AED99400DC3EF9BFFEE9AFEED99FDE842F0DC2398
:2001C000ACF0D0E0FFD0E0FED0E0FDAB8220E7101BEB60BAEC2CFCEF33FFEE33FEED33FDA4
:2001E00002028AE803F830E705C0F075F000EF2FFFEE33FEED33FD40B830E7C280AA75F0A4
:2002000020800E75F010800575F0087D007E007F003392D530D503120681EC334010EF3383
:20022000FFEE33FEED33FDEC33FCD5F0ED22E5F0247EA2D513CC92E7CDCEFF22EDD2E7CD1F
:2002400033EC3392D524814006E4FFFEFDFC22FCE4CFCECDCC24E0501174FF80EDC3CC1301
:20026000CCCD13CDCE13CECF13CF0470F030D5DE020681E9D2E7C933E833F892D5EDD2E717
:20028000CD33EC33FC5002B2D522EC30E7100FBF000C0EBE00080DBD00040BEB6014A2D5D8
:2002A000EB13FCED92E7FD2274FFFCFDFEFF22E480F8A2D574FF13FC7D80E480EFE709F6A9
:2002C00008DFFA8046E709F208DFFA803E88828C83E709F0A3DFFA8032E309F608DFFA808C
:2002E00078E309F208DFFA807088828C83E309F0A3DFFA806489828A83E0A3F608DFFA8090
:200300005889828A83E0A3F208DFFA804C80D280FA80C680D4806980F28033801080A680A1
:20032000EA809A80A880DA80E280CA803389828A83ECFAE493A3C8C582C8CCC583CCF0A376
:20034000C8C582C8CCC583CCDFE9DEE7800D89828A83E493A3F608DFF9ECFAA9F0EDFB223B
:2003600089828A83ECFAE0A3C8C582C8CCC583CCF0A3C8C582C8CCC583CCDFEADEE880DB11
:2003800089828A83E493A3F208DFF980CC88F0EF60010E4E60C388F0ED2402B4040050B97A
:2003A000F582EB2402B4040050AF232345822390030D73BB010689828A83E0225002E72284
:2003C000BBFE02E32289828A83E49322BB010CE58229F582E5833AF583E0225006E92582DB
:2003E000F8E622BBFE06E92582F8E222E58229F582E5833AF583E49322BB010FF8E58229A5
:20040000F582E5833AF583E028F0225009C58229F8E58226F622BBFE09C58229F8E2258218
:20042000F222F8EA2583F583E9932822BB010689828A83F0225002F722BBFE01F322F8BB07
:20044000010DE58229F582E5833AF583E8F0225006E92582C8F622BBFE05E92582C8F22283
:20046000EF8DF0A4A8F0CF8CF0A428CE8DF0A42EFE22C5F0F8A3E028F0C5F0F8E58215828D
:2004800070021583E038F022A3F8E0C5F025F0F0E582158270021583E0C838F0E822BB0155
:2004A00010E58229F582E5833AF583E0F5F0A3E0225009E92582F886F008E622BBFE0AE98E
:2004C0002582F8E2F5F008E222E5832AF583E993F5F0A3E99322BB010A89828A83F0E5F05B
:2004E000A3F0225006F709A7F01922BBFE06F3E5F009F31922F8BB0111E58229F582E5832D
:200500003AF583E8F0E5F0A3F0225009E92582C8F608A6F022BBFE09E92582C8F2E5F00877
:20052000F222EF2BFFEE3AFEED39FDEC38FC22C3EF9BFFEE9AFEED99FDEC98FC22E88FF0A5
:20054000A4CC8BF0A42CFCE98EF0A42CFC8AF0EDA42CFCEA8EF0A4CDA8F08BF0A42DCC38BD
:2005600025F0FDE98FF0A42CCD35F0FCEB8EF0A4FEA9F0EB8FF0A4CFC5F02ECD39FEE43CBB
:20058000FCEAA42DCE35F0FDE43CFC2275F008758200EF2FFFEE33FECD33CDCC33CCC582F7
:2005A00033C5829BED9AEC99E58298400CF582EE9BFEED9AFDEC99FC0FD5F0D6E4CEFBE491
:2005C000CDFAE4CCF9A88222B800C1B90059BA002DEC8BF084CFCECDFCE5F0CBF97818EF84
:2005E0002FFFEE33FEED33FDEC33FCEB33FB10D703994004EB99FB0FD8E5E4F9FA227818C2
:20060000EF2FFFEE33FEED33FDEC33FCC933C910D7059BE99A4007EC9BFCE99AF90FD8E08A
:20062000E4C9FAE4CCFB2275F010EF2FFFEE33FEED33FDCC33CCC833C810D7079BEC9AE8F3
:2006400099400AED9BFDEC9AFCE899F80FD5F0DAE4CDFBE4CCFAE4C8F922EF5BFFEE5AFEDD
:20066000ED59FDEC58FC22EF4BFFEE4AFEED49FDEC48FC22EF6BFFEE6AFEED69FDEC68FC8F
:2006800022C3E49FFFE49EFEE49DFDE49CFC22EB9FF5F0EA9E42F0E99D42F0E89C45F0229B
:2006A000E8600FECC313FCED13FDEE13FEEF13FFD8F122E8600FEFC333FFEE33FEED33FDC6
:2006C000EC33FCD8F122BB010DE58229F582E5833AF58302071A5007E92582F8020899BBCA
:2006E000FE07E92582F80208A5E58229F582E5833AF583020726BB010DE58229F582E58336
:200700003AF58302074F5007E92582F80208B1BBFE07E92582F802075B22E0FCA3E0FDA368
:20072000E0FEA3E0FF22E493FC740193FD740293FE740393FF22E0F8A3E0F9A3E0FAA3E039
:20074000FB22E2FB08E2F908E2FA08E2CBF822ECF0A3EDF0A3EEF0A3EFF022ECF208EDF2C3
:2007600008EEF208EFF222A8828583F0D083D08212077E12077E12077E12077EE473E49395
:20078000A3C583C5F0C583C8C582C8F0A3C583C5F0C583C8C582C822A42582F582E5F035FD
:2007A00083F58322E0FBA3E0FAA3E0F922F8E0FBA3A3E0F925F0F0E582158270021583E047
:2007C000FA38F022EBF0A3EAF0A3E9F022E493FB740193FA740293F922D083D082F8E49333
:2007E0007012740193700DA3A393F8740193F5828883E4737402936860EFA3A3A380DFD068
:2008000083D082F8E4937012740193700DA3A393F8740193F5828883E473740293B5F00627
:200820007403936860E9A3A3A3A380D8D083D082E4937012740193700DA3A393F87401931D
:20084000F5828883E4737402936C70127403936D700C7404936E70067405936F60DDA3A3E8
:20086000A3A3A3A380CA8A838982E473EC8EF0A4CCC5F0CCCDF8EFA4CEC5F02DFDE43CFCB7
:20088000E8A42EC8C5F03DFDE43CFCEFA4FFE5F028FEE43DFDE43CFC22E6FC08E6FD08E627
:2008A000FE08E6FF22E2FC08E2FD08E2FE08E2FF22ECF608EDF608EEF608EFF622E58E2018
:2008C000E30690B8337401F090B825E054FEF053A2F3E4F55DF55E0000000000000000004F
:2008E00000000000055EE55E7002055DB498E8E55DB406E35387F790B83AE054DFF0D2A49F
:20090000D2A0D2A053A1EE00000000C205D200781FE6FF30E602800EEF30E704C2008011F9
:2009200020A40920A006D205C200800520A002C20090A4F77481F01233D3781FE620E33C9E
:20094000E4906FEEF0A3F07E6F7FEE7B02FA7DEE7C041233D9906FEEE0B4AA0BA3E0B455A7
:20096000067DFF7FFF80047D237F021233D630002175A50412E14FE4F5A58016781FE6B4C1
:20098000AA05E4FDFF8008906CD2E0FFA3E0FD1233D6781FE664AA6003020A77758E1290E2
:2009A000BF007403F0E490BD03F090B203F090B007E04401F0E4F5A57E037F4A7C407DD08B
:2009C0007B2D7A011236D5E4F5A57E587F787B5FFA7DA07C011233D9E478B5F278B5E2FFEF
:2009E000C3943B502D75F002EF90034A120798E0F55EA3E0F55FE4F5A5EF90408793F55D51
:200A0000AD5FAC5EFF12F01DE4F5A578B5E204F280CAE4F5A5FDFC7F1D12F01D7D007C2288
:200A20007F1D12F01DE4F5A57E037F4A7C587D787B5F1238C3E478B5F278B5E2FFC3941803
:200A40005025123158FEA3E04E6015E2FF90036312313CFE123158FCA3E0F5828C83EEF070
:200A600078B5E204F280D2E490BF00F075A50412F24AE4F5A5800E30050BE490BD03F075AB
:200A8000A50112B5E21214FF30030B43A380C28712316412316475A897E490B203F01222A6
:200AA000FF30002E75A50512C0B3906CB5E06006E4F5A512FCAF906CE4E06006E4F5A5124D
:200AC000A835906CAFE030E30312A222E4F5A5123AA2E4F5A512F1C1E4F5A590BE2AE0FF3F
:200AE0009068C9E06F7003020BB890510EE0FF64016008EF64026003020BB090BE2AE078CE
:200B0000BBF290BE29E018F2A3E0FF08E2B507EBE22401F218E23400F2123144E0700302BF
:200B20000BB0C2AFE51E242A123148E0FFA3E078B6CFF208EFF2E51E2428123148E0FFA317
:200B4000E008CFF208EFF2D2AF78B6E2FE08E2FFC378BBE29F79B7F318E29E19F378B8E23B
:200B6000FE08E2FFD378B7E29F18E29E4042E4251EF582E51D3401F5837408F0123144E4CD
:200B8000F012243C9058D7EEF0A3EFF02404F582E43EF5837404F0EF2405F582E43EF5830A
:200BA000E51CF09058D7E0FCA3E0FD7F0612240990BE2AE09068C9F0906B2EE030E00975C5
:200BC000A50112EE69E4F5A5E490BD0CF0E56F6003020A9EF5A512FAE7E4F5A5906B56E0BE
:200BE000540F6014E4F5A512DEC99058D9EFF0E4F5A5EF6003020A9E906B56E054F07003E5
:200C0000020A9EE56F6003020A9EE58754FC4401F5870000020A9E752D0190680FE5A5F07E
:200C200090BF3374FFF090BF12E0F52BA3E0F52A205B03020D16789EE6FE08E6F5828E83B9
:200C4000E0FB30E14690BE27E030E03190BA0BE0FF90BE27E0C39F601390BE00120767FFA1
:200C6000FFFFFF90BE13E04420F0801190BE001207670000000190BE13E04420F0789EE6F1
:200C8000FE08E6F5828E83EB54FDF078A1E664011846701190BA23F07431F090B469741C42
:200CA000F0E4F608F6904953E0FF30E12554F5FFBF611F90BE27E030E01190BE0012076760
:200CC000FFFFFFFF90BE13E04420F0904953E04480F0787AE625E02413F582E43468F58340
:200CE000E0FEA3E0FF788CEEF608EFF62406F582E43EF583E52AF0EF2407F582E43EF5835A
:200D0000E52BF018E6FC08E6FD7F02122508787AE6045407F622306004122DDC223036099F
:200D200053A4FEC212C236C21F787AE625E02413F582E43468F583E0FEA3E0FF788CEEF646
:200D400008EFF62406F582E43EF583E52AF0EF2407F582E43EF583E52BF0305F3E20973B82
:200D600053A4FE90B822E0547FF090BF22E0547FF0E4F52D9057ACE0FEA3E0FF4E601C900A
:200D800055CA7404F090A62EEEF0A3EFF0905367EEF0A3EFF090A6327480F0305602D23286
:200DA000205003020E73D22E90BE27E07858F290BC1B7401F07853E27003020E73E4F29051
:200DC000B85FE0640460F8E0640560F390BF43E020E203020E73904E1AE0FF90B82BE05448
:200DE000076F6003020E7390BF23E054BFF090BF337440F090BE27E07858F2E2FF90BA0BCF
:200E0000E0C39F04FF3395E0FEFDFC90BE0012074F90BE13E04420F090B82BE05478F52E61
:200E2000D2186470602FE52E64786029E52E64506023E52E6458601D90BE17E04402F000DC
:200E400000000090BE03E0440190BA03F090BA237401F0D228E52E600D64086009D22F902D
:200E6000BF23E04410F090BF13E0F52E90BF23E04440F030542D30182AE51E241AF582E482
:200E8000351DF5837401F0E51E241AF582E4351DF583E0FF90B81AE054FEFEEF4EF030559A
:200EA00002D230E52D6013788CE6FC08E6FD7F02122508787AE6045407F62278147443F294
:200EC000087488F2E4FF75F00AEFA42492F582E5F03443AD82FC75F00AEFA42488F582E589
:200EE000F03443F583ECF0A3EDF075F00AEFA4248AF582E5F03443F5837404F00FBF3FC691
:200F0000E49045FEF0A3F0A37404F07810743FF208742CF2E4FF75F00EEFA4243AF582E522
:200F2000F0343FAD82FC75F00EEFA4242CF582E5F0343FF583ECF0A3EDF075F00EEFA42410
:200F40002EF582E5F0343FF5837403F00FBF3FC6E490429EF0A3F0A37403F078127442F2DF
:200F60000874ACF2E4FFEF75F016A424C2F582E43442AD82FCEF75F016A424ACF582E43417
:200F800042F583ECF0A3EDF0EF75F016A424AEF582E43442F5837402F00FBF09C9E4904355
:200FA00072F0A3F0A37402F078167446F2087408F2E4FF75F046EFA4244EF582E5F034462A
:200FC000AD82FC75F046EFA42408F582E5F03446F583ECF0A3EDF075F046EFA4240AF582FF
:200FE000E5F03446F5837401F00FBF07C6E49047F2F0A3F0A304F02200014343C7C7C7C79E
:20100000353035365F5350500000000000002235000107E4F52E3056547878E6704C760165
:2010200090AA5FE0F52D7883F224FE601C0470327A00791278127C007D007B017AAA7960E3
:201040007E007F0412038D80247A00791278127C007D007B017AAA79647E007F0412038DA1
:20106000800BE47878F680058003752E012057030211D37878E6640160030211D37883E2AE
:2010800024FE70030211200460030211BC7879E625E0247BF8E6FE08E6FF788CEEF6FA0824
:2010A000EFF6FBAA0EAB0F18E6FE08E6FF8E832404F582E43583F5837421F08F828E83E5A5
:2010C000822406F582E43583F583E510F0A3E511F0AF15AE14AD13AC128B828A83E58224C2
:2010E00009F582E43583F58312074F906828E06401F025E0248BF582E43420F583E0FEA343
:20110000E08E10F51130000B902089E0FEA3E08E10F51190AA9AE510F0A3E511F00211BCC1
:201120007879E625E0247BF8E6FE08E6FF788CA60E08A60F78AAE6FE08E6FF8E832407F5D2
:2011400082E43583F583E0FD788CE6FA08E68A832405F582E43583F583EDF08F828E83E5A5
:20116000822408F582E43583F583E0FEA3E078AAA60E08F618E6FE08E6F5828E83A3A3A3A6
:20118000E0FEA3E090AA7BF0EE90AA7AF0788CE6FA08E6FB8A832404F582E43583F58374B6
:2011A00022F0AF15AE14AD13AC128B828A83E5822409F582E43583F58312074FE47878F6AE
:2011C000788CE6FC08E6FD7F041225087879E6045407F6E52E604A7878760190AA5FE0F5BE
:2011E0002D7883F224FE601C0470327A00791278127C007D007B017AAA79607E007F04127D
:20120000038D801D7A00791278127C007D007B017AAA79647E007F0412038D8004E47878A1
:20122000F63055347879E625E0247BF8E6FE08E6FF788CA60E08A60F18E6FC08E6FD8C8352
:201240002404F582E43583F5837440F07F041225087879E6045407F630520690AA0B740206
:20126000F0E52B5478FFE52A541B4F6017E52A30E106781F76208004781F7610E490BD0337
:20128000F012000E305A2D300504121D032230002312243C9057B0EEF0A3EFF09057B0E0C7
:2012A000FCA3E0FD2404F582E43CF58374C5F07F0E122409228F438D44E4789EF208E5A543
:2012C000F275F06F904E191231A278B5F608EFF68E83E0700FE54464026009E54464046003
:2012E000030214FEE544640B6013E5446404600D75A501AF4312DE69E4F5A5C223E5446478
:2013000004600B75A501AF4312DBD6E4F5A5123191F5828E83E030E50B75A501AF4312A5F0
:2013200029E4F5A57B06AD437FFF1216F29067CCE0B4010312373FE543D39400401C1231EC
:2013400091FF8E8312317EE0601012317712317EE4F090650CE0600214F0E54375F00AA40A
:201360002433F582E4345DAF82FE7B0AE4FD123A881231918E832465123180E054066049AD
:20138000905286E07002A3E0603FE49068BBF09068BCF0A3F09068BFF09068BEF012243CF4
:2013A000789CEEF208EFF22404F582E43EF5837419F0EF2405F582E43EF583E543F018E25F
:2013C000FC08E2FD7F08122409123191FFF5828E83E4F07B6F7A01FD1238AB123191FF8E7D
:2013E00083241C1231897404123176241F123189E4F0A37428123176240A123189740812CA
:201400003176241512316D241312316D241412316D241712316D2426123189747DF0A3E404
:201420001231762428123189E4F0A374FAF0906B46E014FF18E6FC08E6FD8C832422123155
:2014400080EFF08D828C83E582241912318974FFF09066CFE0FF8D828C83E5822417123195
:2014600080EFF0785BE2B543037404F2E543C394015034C2AF905112E054FEF0E544640BD1
:20148000600790510EE054FCF0D2AF90650FE4F090510812076700000000E4905107F078E0
:2014A0008BE254EFF28030905112E054FDF0E544640B600BE020E00790510EE054FCF0903D
:2014C000650CE070129064FBF090BC22E0547FF0C221E4906550F0905B11E0B54303740200
:2014E000F090510EE070081226EA789E7401F2789EE260057F01123092789FE2F5A522E4CC
:20150000F5A8781FE620E346E4906FEEF0A3F0906B2BF020030D7E6B7F007BF07A04FDFC84
:201520001233D9906B2CE09068CAF0906FEEE064AA7004A3E06455601575A5017E6B7F0051
:201540007C407D007BF07A041236D5E4F5A5906B3BE0B401035387F79050F77406F0E4F515
:20156000A5128432EF600675A50112B5E2E4F5A520000B906B317403F0758E018006906B24
:2015800030E0F58E1238DB120EBB123AC8122E9C12304412390BE4F5A512EA67E4F5A5F598
:2015A000A5123AFAE4F5A5781FE630E20D1216BE741012312674101216E7781FE65430605F
:2015C000191216BE7410F0781FE6FFE5612407F582E43560F583EF1216E7781FE630E33D78
:2015E00012243C8E608F61123151240412312F7402123150240612312F740E123126E412E7
:201600003150240812312F7403123150240912312F7403F0AD61AC607F041224093000147B
:20162000123B5E123B4A123B54123B0E123B40123B188006781FE654C0F6123AE6123AD21D
:20164000123AF0123ADC12FC9BC288C28AE490BD13F090BD03F090BD1B740FF090BD0A74CD
:201660003DF0A37409F090BD037401F0E490BD0CF075A50112EE62E4F5A57E047F4E7B295D
:20168000FA7D047C061233D9900475E0FEA3E064557003EE64AA7025F562123137FEA3E0B6
:2016A0004E601390045012313AFF123137FCA3E0F5828C83EFF00562E562B40DDD22122407
:2016C0003C8E608F618F828E83E5822404F582E43583F5837402F08F828E83E5822406F5A6
:2016E00082E43583F58322F0AD61AC607F0412240922AA07A9059063B0E0FDA3E090583FBB
:20170000CDF0A3EDF0E4A3F0A3F090583FE0FCA3E0FD4C7003021884ED2404F582E43CF501
:2017200083E06B600302186390583FE0A3E02406F582E43CF583E0696003021863ED2405F9
:20174000F582E43CF583E06A6007EAF4600302184290583FE0FCA3E0FDF5828C83E0F8A3A8
:20176000E0F58288834583601F8D828C83A3A3E0FEA3E0FF8D828C83E0FCA3E0F5828C83F9
:20178000A3A3EE8FF0120472905841E07002A3E0704D90583FE0FEA3E0FFF5828E83E0FD67
:2017A000A3E09063B0CDF0A3EDF0906422E0FDA3E08F828E83CDF0A3EDF090583FE0FFA348
:2017C000E0906422CFF0A3EFF09063B0E0FFA3E090583FCFF0A3EFF0E4A3F0A3F0805890F3
:2017E000583FE0FEA3E0F5828E83E0FEA3E0FF905841E0FCA3E0F5828C83EEF0A3EFF0900B
:201800006422E0FEA3E0FF90583FE0FCA3E0FDF5828C83EEF0A3EFF0906422ECF0A3EDF007
:20182000905841E0FEA3E0F5828E83E0FFA3E090583FCFF0A3EFF0EAF4700302170A220234
:20184000170A90583FE0FEA3E0FFA3EEF0A3EFF0F5828E83E0FFA3E090583FCFF0A3EFF08B
:2018600002170A90583FE0FEA3E0FFA3EEF0A3EFF0F5828E83E0FFA3E090583FCFF0A3EF59
:20188000F002170A2243A110D2A4C2A490BD147401F0E4F00000000000000000000090BF5A
:2018A00000E4F07411F58E90A4F4E04480F090BD10E05407781FF675200043A110D2A4C2AA
:2018C000A4D2A4C2A490BF00E4F090BD18740FF090BD007401F090BF007403F075A5007596
:2018E000D00078FF79DFE4F618D9FC781EF6D8FD75A40C5387DF43A11153A3DFC2A0D2A0A5
:201900000000308542C2A0000020853BD2A00000308534C2A0000020852DC20353A3FE53F3
:20192000A1EF53AFF920801220A40F20B10C30B209D2037480781FF6800D74AA781FF643FE
:20194000AF40C2B60219C1C2A053A3FE75A70078007F00E4F208DFFC9001007F007E6AE446
:20196000F0A3DFFCDEFA90C0007F007E40E4F0A3DFFCDEFA75770090000078107455F0A30A
:20198000D8FC7581FF0219C122E493A3F8E493A34003F68001F208DFF4802FE493A3F854B8
:2019A00007240CC8C333C4540F4420C8834004F456800146F6DFE48011010204081020403E
:2019C00080902F511219CA0208BDE47E019360B8A3FF543F30E509541FFEE493A360010E60
:2019E000CF54C025E060A240B2E493A3FAE493A3F8E493A3C8C582C8CAC583CAF0A3C8C5F8
:201A000082C8CAC583CADFE9DEE780BE8E338F348F828E83E5822404F582E43583F583E035
:201A200024FE601F147003021B2A147003021B6024036003021B8C7B007A04E4FD7F021293
:201A400024B3229063B0E0FEA3E0FF4E7003021B148F828E83A3A374FFF5F012047290635D
:201A6000B0E0FEA3E0F5828E83A3A3E0FEA3E04E6003021B1412243C8E338F349063B0E0CB
:201A8000FEA3E0FF2405F582E43EF583E0FDE5342404F582E43533F583EDF0EF2406F582C6
:201AA000E43EF583E0FFE5342405F582E43533F583EFF09063B0E0FEA3E02404F582E43E8C
:201AC000F583E0FFAD34AC331224099063B0E0FEA3E0FFF5828E83E0FCA3E08C35F536904A
:201AE0006422E0FDA3E08F828E83CDF0A3EDF09063B0E0FFA3E0906422CFF0A3EFF0906352
:201B0000B0E535F0A3E536F045356003021A5E8003021A5E9063B0E07002A3E0606E7B0048
:201B20007A04E4FD7F021224B322E5342406FFE43533FAA9077B019000011203CCFF900005
:201B4000021203CCFD90000312049EFBAAF0E5342406F582E43533F583E0F547121B8D2253
:201B6000E5342406FFE43533FAA9077B019000011203CCFF9000021203CCFDE5342406FB92
:201B8000E435338B82F583E0FB1216F2228F438D448A458B46E54645457003021D029063DE
:201BA000B0E07002A3E0702312243C9057D2EEF0A3EFF09057D2E0FCA3E0FD2404F582E4EA
:201BC0003CF5837401F07F07122409AB47AD44AF431216F29063B0E0FFA3E09057D4CFF0B9
:201BE000A3EFF0E4A3F0A3F09057D4E0FEA3E0FF4E60478F828E83A3A3E0FEA3E0FFC39529
:201C000046EE954550349057D4E0FCA3E0FDC3E5469FF546E5459EF545A3ECF0A3EDF090C2
:201C200057D4E0FEA3E0F5828E83E0FFA3E09057D4CFF0A3EFF080B080AE906422E0FEA33D
:201C4000E0FFF5828E83A3A3E545F0A3E546F0EF2404F582E43EF583E547F0EF2405F5822C
:201C6000E43EF583E543F0EF2406F582E43EF583E544F09057D6E0FEA3E0FF4E701190648F
:201C800022E0FDA3E09063B0CDF0A3EDF08010906422E0FDA3E08F828E83CDF0A3EDF090ED
:201CA0006422E0FEA3E0FFF5828E83E0FDA3E09057D6CDF0A3EDF09057D4E0FCA3E0FD8FB6
:201CC000828E83ECF0A3EDF08D828C83A3A3C083C082C3A3E09546FF0582D582021583157F
:201CE00082E09545D082D083F0A3EFF09057D6E0FEA3E0FF906422EEF0A3EFF04E7003122B
:201D0000354422906B2EE064026003021DC390A622E0FEA3E0FFC390A627E09FFF90A626C2
:201D2000E09E903325F0A3EFF0903329E0FEA3E0FF903325E0FAA3E0FB6F7002EA6E607630
:201D4000E4905F7FF0903329E0FCA3E0FDD39BEC9A4016903325E0FEA3E0FFED9FFFEC9E52
:201D60009057B2F0A3EFF0801A903325E0FEA3E0FFC3E49FCF74049ECF2DCF3C9057B2F0BB
:201D8000A3EFF09057B2E0FEA3E0FFC3EE64809480500DE42FFFEE34049057B2F0A3EFF07F
:201DA0009057B2E0FFA3E090A62ECFF0A3EFF090A6327480F022905F7F7401F0788BE25409
:201DC000DFF22290A622E0FEA3E0FFC390A627E09FFF90A626E09E903325F0A3EFF09033C3
:201DE00029E0FEA3E0FF903325E0FCA3E0FD6F7002EC6E605BE490332BF0C390332AE09D31
:201E0000FF903329E09CFE9057B2F0A3EFF0C3EE6480948050249068D6E060109057B3E09D
:201E20002400F09057B2E03402F0800E9057B3E02400F09057B2E03404F09057B2E0FFA317
:201E4000E090A62ECFF0A3EFF090A6327480F02290332B7401F0788BE254DFF222AA07A9B6
:201E6000057839E2FC08E28C71F572E4F573F574E57245717003021F90E5722404F582E4C0
:201E80003571F583E06B6003021F79E5722406F582E43571F583E0696003021F79E5722421
:201EA00005F582E43571F583E06A6007EAF46003021F62857282857183E0FCA3E0FD4C6035
:201EC00019857183857282A3A3E0FEA3E0FF8D828C83A3A3EE8FF0120472E5744573703B3C
:201EE000857282857183E0FFA3E07839CFF208EFF27833E2FF08E2857282857183CFF0A369
:201F0000EFF018E571F208E572F27839E2FE08E28E71F572E4F573F574803C857282857170
:201F200083E0FFA3E0857482857383CFF0A3EFF07833E2FF08E2857282857183CFF0A3EFCC
:201F4000F018E571F208E572F2857482857383E0FEA3E08E71F572EAF47003021E7022021E
:201F60001E70857173857274857282857183E0FEA3E08E71F572021E70857173857274855D
:201F80007282857183E0FEA3E08E71F572021E70228F2F8D308A318B32E532453170030266
:201FA00020B6782BE2FBAD30AF2F121E5D7839E2FE08E28E71F572E4F573F5747835E2FE60
:201FC00008E22532F532EE3531F531E57245716038857282857183A3A3E0FEA3E0FFC3958A
:201FE00032EE95315023C3E5329FF532E5319EF531857173857274857282857183E0FEA3C7
:20200000E08E71F57280C480C27833E2FE08E2FFF5828E83A3A3E531F0A3E532F0782BE27D
:20202000FDEF2404F582E43EF583EDF07833E2FE08E2FF2405F582E43EF583E52FF0EF24D9
:2020400006F582E43EF583E530F0E574457370097839EEF208EFF2800B857482857383EEF1
:20206000F0A3EFF07833E2FE08E2FFF5828E83E0FCA3E08C73F5748F828E83E571F0A3E53B
:2020800072F0F582857183A3A3C083C082C3A3E09532FF0582D5820215831582E09531D092
:2020A00082D083F0A3EFF018E573F208E574F245737003123544228E4A8F4B8F828E83E593
:2020C000822404F582E43583F583E060030221DA7839E2FE08E2F5828E83A3A3E0FEA3E0E1
:2020E000FF7835E2FC08E2FDD3EF9DEE9C400302219B12243C8E4A8F4B7839E2FE08E2FFE7
:202100002405F582E43EF583E0FDE54B2404F582E4354AF583EDF0EF2406F582E43EF583F7
:20212000E0FFE54B2405F582E4354AF583EFF018E2FE08E22404F582E43EF583E0FFAD4B44
:20214000AC4A1224097839E2FE08E2FFF5828E83A3A3E0FCA3E0FDC37836E29DF218E29C2E
:20216000F28F828E83E0FEA3E0FF7833E2FC08E2FD7839E2FA08E2FBF5828A83ECF0A3ED19
:20218000F07833EAF208EBF27839EEF208EFF2EF4E60030220D07835F208F27835E2FE08A9
:2021A000E2FF4E602E7839E2FC08E2F5828C83A3A3C083C082C3A3E09FFF0582D5820215BF
:2021C000831582E09ED082D083F0A3EFF0E47835F208F2E47832F212241A22C0D0C0E03081
:2021E000361153A4DF90B203E0547FF090B207E020E7F9C0F0C092C083C082C085C084752C
:20220000D008759200120C17300F41D084D085D082D083D092D0F0D0E0D0D032C0D0C0E008
:20222000C0F0C092C083C082C085C08475D008759200123938200503300E11D084D085D0C7
:2022400082D083D092D0F0D0E0D0D03275D000C0A5C000C001C002C003C004C005C006C046
:202260000775A500200E2F7470C0E07422C0E0321227CBD007D006D005D004D003D002D025
:2022800001D000D0A5D084D085D082D083D092D0F0D0E0D0D022749FC0E07422C0E03212E9
:2022A0002C32D007D006D005D004D003D002D001D000D0A5D084D085D082D083D092D0F03F
:2022C000D0E0D0D022C0D0C0E0C0F0C092C083C082C085C08475D008759200122A46D08422
:2022E000D085D082D083D092D0F0D0E0D0D03232C000C0E0C0D0D0D0D0E0D000323232C2A6
:20230000AFE56F7003022400900FF893F521300A4C7825E2FE08E2FFF5828E83A3A3A3E0A4
:20232000782BF2E4782FF2D2AF782BE2FD33333354F8FD9029CA93F5A574C62DF582E43400
:2023400029F583E493740193FA740293F5828A8312086AE4F5A5C2AF12248080A430094D03
:20236000782CE2FE08E2FFF5828E83A3A3A3E0782BF2E4781BF2D2AF782BE2FD33333354B1
:20238000F8FD9029CA93F5A574C62DF582E43429F583E493740193FA740293F5828A8312E9
:2023A000086AE4F5A5C2AF122491022301200803022301781CE2FE08E2FFF5828E83A3A353
:2023C000A3E0782BF2E47822F2D2AF782BE2FD33333354F8FD9029CA93F5A574C62DF58202
:2023E000E43429F583E493740193FA740293F5828A8312086AE4F5A5C2AF1224A2022301AD
:20240000E4782BF2F521D2AF22748055A87003022508C2AF122508D2AF22748055A8700340
:20242000022EF7C2AF122EF7D2AF22748055A87003022CA3C2AF122CA3D2AF22748055A80F
:20244000700302349CC2AF12349CD2AF22748055A870030234C6C2AF1234C6D2AF227480CD
:2024600055A870030234F0C2AF1234F0D2AF22748055A8700302351AC2AF12351AD2AF2252
:20248000748055A87003023280C2AF123280D2AF22748055A870030232B6C2AF1232B6D2C1
:2024A000AF22748055A870030232ECC2AF1232ECD2AF22748055A87003021F91C2AF121FCB
:2024C00091D2AF22748055A87003021E5DC2AF121E5DD2AF22748055A87003022AC6C2AF7F
:2024E000122AC6D2AF22748055A8700302323FC2AF12323FD2AF22748055A8700302368BA2
:20250000C2AF12368BD2AF228D828C83A3A3A3EFF033333354F89029C993146054147003A5
:202520000225B8240260030225FEE56D70107825ECF208EDF27827ECF208EDF28025782732
:20254000E2FE08E2F5828E83ECF0A3EDF018ECF208EDF2782FE2B4010A7402F27829ECF2C1
:2025600008EDF2056D436F048D828C83E4F0A3F022E56E7010782CECF208EDF27830ECF2E3
:2025800008EDF280257830E2FE08E2F5828E83ECF0A3EDF018ECF208EDF2781BE2B4010A48
:2025A0007402F27819ECF208EDF2056E436F028D828C83E4F0A3F022E5707010781CECF248
:2025C00008EDF2781EECF208EDF28025781EE2FE08E2F5828E83ECF0A3EDF018ECF208EDE5
:2025E000F27822E2B4010A7402F27820ECF208EDF20570436F018D828C83E4F0A3F0228F8B
:2026000043E4789EF208E5A5F275F09C9049C01231A2789CF208EFF28E83E070030226E924
:202620001231ADFF248312319AE4F0EF123198E0FF30E705905D05800E1231AD123198E063
:20264000FF30E60D905D04E0FEEFF4FFEE5FF0801D905D19E0FF789CE2FC08E22482F582EF
:20266000EC3401F583E0F4FEEF5E905D19F0E5434480F54475A501AF4312DE69E4F5A5752E
:20268000A501AF4312DBD6E4F5A51231ADFF7B9C7A01E4FD1238AB90BF23E04440F0E478E8
:2026A00070F2786DF2905112E054F3F090510EE054F3FFF0788BE254BFF2EF70111226EA56
:2026C000C24E90B433E054FCF0789E7401F2789EE260119066C7E0700B9068E1E060057FB8
:2026E00001123092789FE2F5A522C2AF90BE12E04403F0D2AF905112E054FCF0E4F51C756A
:202700001D4E751E19785DF290B81BE04480F090B817E04404F0E4905D2FF0905D30F078F8
:20272000787401F2087400F2E47855F2785B7404F2E4FFEF75F009A42488F582E43452F506
:2027400083E4F0EF75F009A424F6F582E43451F583E4F00FBF10DC788AE2541DF2788BE2F5
:2027600054A0F208E4F220000975A50112D03EE4F5A5E49051E3F0905D17F0C22190BC23D5
:20278000E054FDF07E147F2A90B60AEEF0A3EFF0783FEEF208EFF27E1C7F5D90642DEEF038
:2027A000A3EFF090B60EEEF0A3EFF0E4906434F090B807F090B805F0905D05F0905D04F0A8
:2027C000905D19F0905D18F0C21922C2AF782BE27818F27824E521F2E56FD39401500302F4
:2027E00028947E00E56F54FE24F8F582EE340FF583E493F521300A4C7825E2FE08E2FFF54F
:20280000828E83A3A3A3E0782BF2E4782FF2D2AF782BE2FD33333354F8FD9029CA93F5A5B5
:2028200074C62DF582E43429F583E493740193FA740293F5828A8312086AE4F5A5C2AF1276
:2028400024808094300991782CE2FE08E2FFF5828E83A3A3A3E0782BF2E4781BF2D2AF7841
:202860002BE2FD33333354F8FD9029CA93F5A574C62DF582E43429F583E493740193FA7438
:202880000293F5828A8312086AE4F5A5C2AF1224910227D87818E2782BF27824E2F521D277
:2028A000AF22905964123433905963F0905963E0FEC39408500D1234186008905963E00469
:2028C000F080E9905963E01207D928E60028F00128FA02290403290E04291805292206290B
:2028E0002C0700002935ED6003D38001C3928022ED6003D38001C3928522ED6003D3800168
:20290000C3929722ED6003D38001C392B122ED6003D38001C392B222ED6003D38001C39217
:20292000B322ED6003D38001C392B422ED6003D38001C392B72278AAE6FE08E6FFF5828E29
:2029400083A3A3A3E0FCA3E0FD78BEECF2FC08EDF2FDC2AF8F828E837405F078AAE6FE08B1
:20296000E68E832408F582E43583F583E0FEA3E018A60608F6D2AFED4C703912243C78BC7D
:20298000EEF208EFF22404F582E43EF5837403F0EF2405F582E43EF5837401F018E2FC0842
:2029A000E2FD7F0E1224097E907F0078BE7490F2087400F2C2AF906434E004F0D2AF78BE21
:2029C000E2FE08E2FF22FF00210200000000FF20B70000000000FFB3550000000000FFDC32
:2029E0001D0101000000FF8C9D0102000000FFF0A90100000000FF57D90101000000FF1AAA
:202A00000C0100000000FF719B0202000000FF55F50203000000FFB8D40204000000FF9923
:202A2000B20203000000FF80B60203000000FF84D00203000000FFF5540205000000FF00FF
:202A400021020000000030983930051A905F7DE02422F582E43421F583E599F0905F7DE08F
:202A600004F0E0F0801A905F7DE02480F582E4345FF583E599F0905F7DE004F0E0547FF051
:202A8000C298309940C299905F7EE0FF905F7CE0FE6F602B30050F74222EF582E43422F53B
:202AA00083E0F599800D74002EF582E43460F583E0F599905F7CE004F0E4905F7FF02290EE
:202AC0005F7F7401F0227836E22FF218E23EF27832E2706F7839E2FE08E2FF4E605F8F82B3
:202AE0008E83A3A3E0FEA3E0FF7835E2FC08E2FDD3EF9DEE9C501108E2FC08E2FD7F011204
:202B0000250878327401F2227839E2FE08E2F5828E83A3A3C083C0827835E2FE08E2FFC34E
:202B2000A3E09FFF0582D5820215831582E09ED082D083F0A3EFF0E418F208F222E4783535
:202B4000F208F2228F43E5437003FEFF22903322E0C39543F0902121E0F544854345E5446A
:202B6000C39490505074912544F582E43420F583E0703B1545E5457038C3E544954304F5C5
:202B8000442491F582E43420AF82FEAB43AD43123A88902121E0B544032543F075F020E53C
:202BA00044A42422F582E5F03421AF82FE22854345054480A9123598E4FEFF228E858F846E
:202BC0008C838D82EB22E0FFA3E0FEA3E0FDA3E0FCA375920122122BBC601F122BC6F0A390
:202BE000DB028016EDF0A3DB02800FEEF0A3DB028008EFF0A3759200DBE175920022122BE5
:202C0000BC602B122BC6EBC394044002ECF0A3EBC394034002EDF0A3EBC394024002EEF0F8
:202C2000A3EFF0A3759200EBC39404FB50D575920022C2AF782BE27823F2782EE521F2E5D3
:202C40006FD39403404F7521C77825E2FE08E2FFF5828E83A3A3A3E0782BF2E4782FF2D214
:202C6000AF782BE2FD33333354F8FD9029CA93F5A574C62DF582E43429F583E4937401937B
:202C8000FA740293F5828A8312086AE4F5A5C2AF12248080AA7823E2782BF2782EE2F521AA
:202CA000D2AF228F828E83A3A3E024FE6020146033146046240370577816E2FD08E28F82D0
:202CC0008E83CDF0A3EDF018EEF208EFF2227812E2FD08E28F828E83CDF0A3EDF018EEF2F9
:202CE00008EFF2227810E2FD08E28F828E83CDF0A3EDF018EEF208EFF2227814E2FD08E2C1
:202D00008F828E83CDF0A3EDF018EEF208EFF2229058EB1234339058EAF09058EAE0FEC3D0
:202D20009408500D12341860089058EAE004F080E99058EAE01207D92D54002D58012D5C91
:202D4000022D60032D64042D68052D6C062D700700002D76A280801AA2858016A297801288
:202D6000A2B1800EA2B2800AA2B38006A2B48002A2B7E433FF227F02228F688D698A6A8B41
:202D80006BE56B456A605412244D9059A9EEF0FCA3EFF0FD9059A9E0FEA3E0FF2404F58216
:202DA000E43EF5837403F0EF2406FFE43EFE8F82F583E56CF0AA06A9077B01900001E56856
:202DC00012043E900002E56912043E900003E56A856BF01204F57F071224092253B5F7C2F6
:202DE0006053A4FEC236C21F90BFA7E0543FF0905577E04430FD90556FE0FB7F0B1238405C
:202E0000E490BFA3F090BFA204F0A37410F0E490B203F0788AE24401F212243C9057B0EEC5
:202E2000F0A3EFF09057B0E0FCA3E0FD2404F582E43CF5837431F07F0E1224092242FFD65C
:202E4000B00243FFD9860244FFD4F90245FFD7050246FFDB470247FFD9D40250FFE3A900B0
:202E600051FFEBA20063FFED770167FFDAB60268FFCD2E0169FFD3E00271FFBBD00153FFE8
:202E80009C740054FFE77A0173FFE1290274FFD24F0275FFEC110076FFEC2700E4FFEF7519
:202EA000F007A42429F582E43463AD82FCEF75F007A42422F582E43463F583ECF0A3EDF002
:202EC0000FBF13DAE49063A7F0A3F078337463F2087422F2E47839F208F27832F27835F276
:202EE00008F212243C7837EEF208EFF22404F582E43EF583E4F022300A1B782FE56DF27807
:202F000025E2FE08E2F5828E83E0FFA3E07829CFF208EFF22230091B781BE56EF2782CE2B9
:202F2000FE08E2F5828E83E0FFA3E07819CFF208EFF22230081A7822E570F2781CE2FE08B3
:202F4000E2F5828E83E0FFA3E07820CFF208EFF2224168D6004168D5004168E400415F799E
:202F600000415D490041540B004153650041557800415572004155770041556F0041540D07
:202F8000004153660041536A004153630041554F0041540C0041540E00415369004200CA10
:202FA000000000EF4E604CC3EF9422FFEE9421FEEF7805CEC313CE13D8F9F543C3949050EF
:202FC0003274912543F582E43420F583E0FB903322E02BF074912543F582E43420AF82FE25
:202FE000E4FD123A88902121E0FFE543C39F5003E543F0228F668D678B6812244D905962AA
:20300000EEF0FCA3EFF0FD905962E0FEA3E0FF2404F582E43EF5837404F0EF2406FFE43ED1
:20302000FE8F82F583E568F0AA06A9077B01900001E56612043E900002E56712043E7F0708
:2030400012240922E49058DAF09058DAE0FF75F007A424B9F582E43463AD82FCEF75F00773
:20306000A424B2F582E43463F583ECF0A3EDF09058DAE004F0E0B40FD0E490641BF0A3F091
:203080009064227463F0A374B2F0E49063B0F0A3F0228F457F0390510EE07003D38001C3BF
:2030A0004002E4FF9068E1E052079066C7E0B50703EF70289066C7EFF012243C90583FEED3
:2030C000F0A3EFF090583FE0FCA3E0FD2404F582E43CF5837445F07F0512240922905980CD
:2030E000EEF0A3EFF0EB4A603C90A403E020E1F9C2AFAF0590A406ECF0A3EFF0AF0390A4EB
:203100000AEAF0A3EFF0905980E0FFA3E090A412CFF0A3EFF090A403E04402F0D2AF90A4F5
:2031200003E020E1F922F08F828E83E5822407F582E43583F5832290044EE56275F003129C
:203140000798E022E51E2425F582E4351DF58322F08F828E83E5822275F003EF9003611243
:203160000798E022D287C287D287C28722F582E43583F5837401F08F828E83E58222242465
:20318000F582E5833401F58322F582E43583F5832278B5E6FE08E6222482F582EE3401F57E
:2031A0008322EF120798EF2583AF82FE22789CE2FE08E222906555E0123864E0703B90658A
:2031C00055E0FB75F005A4245EF582E43465F583EEF0A3EFF0EB75F005A4245CF582E4345B
:2031E00065F583ECF0A3EDF0EB1238647401F0906555E004F0E0540FF02290594FEEF0FA15
:20320000A3EFF0FBA3ECF0FEA3EDF0FFA37401F0AD03AC02FB7A001233DCEF701C90594F86
:20322000E0FEA3E0FFA3E0FAA3E0FB7D017C001233DFEF7004905953F0905953E0FF228EBB
:203240002F8F308F828E83E0FEA3E0FF4E700D853082852F83ECF0A3EDF0801B8F828E83AC
:20326000E0FAA3E0FB4A6006AE02AF0380EE8F828E83ECF0A3EDF08D828C83E4F0A3F02251
:20328000D56D03536FFB782FE270197825E2FE08E2FFF5828E83E0FDA3E07829CDF208ED77
:2032A000F2122CA3E4782FF27829E2FF08E27825CFF208EFF222D56E03536FFD781BE270FF
:2032C00019782CE2FE08E2FFF5828E83E0FDA3E07819CDF208EDF2122CA3E4781BF278196E
:2032E000E2FF08E2782CCFF208EFF222D57003536FFE7822E27019781CE2FE08E2FFF582B2
:203300008E83E0FDA3E07820CDF208EDF2122CA3E47822F27820E2FF08E2781CCFF208EFFE
:20332000F222D310AF01C3C0D0EDF5E9ECF5EAEFF5EBEEF5ECEBF5EDEAF5EE7404140070C9
:20334000FCE5E9FFE5EAFEE5EBFDE5ECFCE5EDE5EED0D092AF228F458D4612243C90584252
:20336000EEF0A3EFF02404F582E43EF583E545F0EF2405F582E43EF583E546F0905842E04C
:20338000FCA3E0FD7F02022409D310AF01C3C0D0EDF5E9ECF5EAEFF5EBEEF5ECEBF5EDEA30
:2033A000F5EE7404140070FCE5E9E5EAE5EBE5ECE5EDFFE5EEFED0D092AF22D20E122B44EE
:2033C000C20E22D20E122FA3C20E22D20E12D5ACC20E220239E80239F80236B00237C402A3
:2033E0003A080239B00239C3023A18E4FE123426F583E0B50719EE75F021A42492F582E4AA
:203400003456F583E030E007123426AF82FE220EEEB401D9E4FEFF22A31207A48E82758301
:20342000001203CC6F22EE75F021A4248FF582E43456227B017A6E79261207C4E422E5A5D8
:20344000F075A50522EF541FD39400E49400400FEF7805CEC313CE13D8F904F56A800CEF0B
:203460007805CEC313CE13D8F9F56AAF6A1233BB22D310AF01C3C0D0EFF5E9EDF5EDEEF57A
:20348000EAECF5EE7402140070FC00E5E9FFE5EAFEE5EBFDE5ECFCD0D092AF227814E2FEDA
:2034A00008E2FF8E2FF530452F60168F828E83E0FEA3E0FF18EEF2FE08EFF24E70031235EE
:2034C0006EAE2FAF30227810E2FE08E2FF8E2FF530452F60168F828E83E0FEA3E0FF18EEFB
:2034E000F2FE08EFF24E700312356EAE2FAF30227812E2FE08E2FF8E2FF530452F60168FF1
:20350000828E83E0FEA3E0FF18EEF2FE08EFF24E700312356EAE2FAF30227816E2FE08E22D
:20352000FF8E2FF530452F60168F828E83E0FEA3E0FF18EEF2FE08EFF24E700312356EAE3B
:203540002FAF30229068897402F0A3E5A5F0A37480F0AF81A807E6A3F0A37414F0E58114C3
:20356000F8E6A3F07C687D857F04122409229068897402F0A3E5A5F0A37480F0AF81A807A6
:20358000E6A3F0A37415F0E58114F8E6A3F07C687D857F04122409229068897402F0A3E572
:2035A000A5F0A37480F0AF81A807E6A3F0A37417F0E58114F8E6A3F07C687D857F041224EF
:2035C00009228E858F848C838D82EB601EE0FFA3E0FEA3E0FDA3E0A3759201F0A3EDF0A3F2
:2035E000EEF0A3EFF0A3759200DBE222D310AF01C3C0D0EFF5E9EEF5EAEDF5EDECF5EE7450
:2036000002140070FCE5E9FFE5EAFEE5EDE5EED0D092AF22D310AF01C3C0D0EFF5E9EEF550
:20362000EAEDF5EDECF5EE7402140070FCE5E9E5EAE5EDFFE5EEFED0D092AF2225000102A2
:20364000030405060708090A260B0C0D0E0F101112131415161718191A1B1C1D1E1F202116
:203660002223242790BE27E09057DDF090BE2412071A9057D912074F90BE27E0FF9057DDCC
:20368000E0B507E09057D912071A228F828E83E0FCA3E0FDFBAA044A60118D828C83E0FDBC
:2036A000A3E08F828E83CDF0A3EDF0AE02AF03229068CE12385D7888ECF208EDF27884EA8C
:2036C000F208EBF27886EEF208EFF212E9F59068CD123872228E858F848C838D82EA700318
:2036E000EB6015EB6003EA04FAE493A3759201F0A3759200DBF3DAF1228E858F848C838DFB
:2037000082EA7003EB6014EB6003EA04FAE0A3759201F0A3759200DBF4DAF22290B001EF23
:20372000F0A3ECF0A3EDF090B005E04410F0E4905861F000905861E004F0E0B40AF522E45E
:203740009067CCF09067CDF09067CEF0784DF208F29067D9F090B403F090BC22E0547FF094
:20376000228E858F848C838D82EA7003EB6013EB6003EA04FAE0A3759201F0759200DBF5A0
:20378000DAF322906B00E090B803F0906B01E090B802F0906B02E090B801F0906B03E0908A
:2037A000B800F0228E858F848C838D82AF031BEF6010E0A3FF759201E0A37592006F60EC00
:2037C000D322C3228E758F76AF05AE049068CC12385DAD03AC02AB76AA75129E1D9068CB08
:2037E000123872228E858F848C838D82EB60121BE493A3FF759201E0A37592006F60EDD3F5
:2038000022C32285A53DE4F5A5EF701275A5017E6B7F007C407D007BF07A041236D5853DC7
:20382000A522E4FE90F02B123A28B5070B90F030123A286003AF06220EEEB401E77FFF2263
:2038400090A4B3EDF090A4B2EBF090A4B1EFF090A4B07480F090A4B0E020E7F922E5A5F0F7
:2038600075A5012275F005A4245BF582E43465F58322EFF0A3E0F5A5228E858F848C838D10
:2038800082EB600DE493A3759201F0A3759200DBF32285A53DE4F5A57E147F2A7C407DD079
:2038A0007B2D7A011236D5853DA5228E838F82EA7003EB600DEB6003EA04FAEDF0A3DBFBDC
:2038C000DAF9228E858F848C838D82EB600CE0A3759201F0A3759200DBF4227598507589E7
:2038E00020E587547F4480F587758DE6D28ED299C2982200000002000400100022001F00A3
:203900002A003F0054007F00FF0200E4902121F0FF7F90902091E4F0A3DFFC90332274903A
:20392000F022905F7EE02400F582E43460F583EFF0905F7EE004F022906810E5A5F090BF8A
:2039400017E0F52A90BF16E0F52B121013220265A5950500010203040503665A0A050066A8
:20396000778899AA75A50512F26212B64412A9C412D5A7E4F5A522AB07AA06AE04AF05AC53
:2039800002AD037B017A000233D990594FE5A5F075A50412EFA590594FE0F5A52290594FEF
:2039A000E5A5F075A50412F1AC90594FE0F5A522905991E5A5F075A501129918905991E0C0
:2039C000F5A522905991E5A5F075A50112A9BF905991E0F5A52290B000EFF0A3EDF0A3EB5F
:2039E000F090B0067410F0229057C412385D12D9389057C4E0F5A5229057C412385D12BD1E
:203A0000309057C4E0F5A5229057C512385D12AEE79057C4123872229068DD12385D127DA1
:203A2000A09068DDE0F5A52275F065EE120798EE25E02583F583E02290594D12343E12C962
:203A40009590594DE0F5A52290597112343E12E1A3905971E0F5A52290594612343E12D2FE
:203A6000C9905946E0F5A522E4FE75A504129B8EAE0775A505AF0622034A05660782099EE4
:203A80000BBA0DD60FF2120E8E838F82EB6005EDF0A3DBFB2285A54375A50212B2BC8543A2
:203AA000A52285A56075A50112CF658560A52285A56475A50512F0738564A52290B002EFA5
:203AC000F090B0067404F022E4F56FF56DF56EF57022E4F5A512FC6FE4F5A52275A50112CA
:203AE000EE6FE4F5A52275A50212A15EE4F5A52275A50112B9A9E4F5A522E4F5A512C7B3C3
:203B0000E4F5A52275A501129FABE4F5A52275A50312DE0EE4F5A52275A50312DD85E4F5C9
:203B2000A52275A50312B19C75A5052275A50312B38975A5052275A50312D3B475A505225E
:203B400075A50312E188E4F5A52275A50312F7DDE4F5A52275A50412F3E3E4F5A52275A5CA
:203B60000512D6BAE4F5A522E4F5A512F6B775A50522E4F5A512C3AB75A5052275A5041211
:203B8000E04775A5052275A50412F6E975A5052275A50412F77D75A5052275A504124460B4
:203BA00075A5052275A50412BD8675A5052275A50412B65975A5052275A50512F07375A5E2
:203BC000042275A50512D2C975A5042275A50512E1A375A50422E4F5A512EA6775A505229C
:203BE000740EC0E07400C0E0320635220639003522E4FF000FBF11FB228032807280B28035
:203C0000F212B72B75A50422126A1E75A50422001208001000FFFFFFFFFFFFFFFFFFFFFF85
:203FC000C2AF90BD03E4F00000438E08D285C28500000002000EFFFFFFFFFFFFFFFFFFFFCF
:203FE000C2AF90BD03E4F00000538EF7D285C28500000002000EFFFFFFFFFFFFFFFFFFFFB0
:204000000011001B007900B700E00153FFFF0000000000000000000000000000000000030F
:20402000030302020202010101010101010104040404040404040404040404040404040323
:204040000303020202020101010101010101001B000A0014001EFFFF001D007900B7FFFFAA
:20406000FFFF00E001530036FFFF003C005A0053001D016F02280168021C02A703FD000208
:20408000FEFE01FE0102FE0B1441420102030405060708090A0C0D0E0F1011131516171A85
:2040A0001E1F2021232425262728292A2B2C2D2E2F3031323334353637383D3E3F4445470F
:2040C0004E4F03020504070609080B0A0D0C0F0E04360012111111114000289A07010A30F8
:2040E000365540000F08B0F03F000FFF1716F766F5445644E124C07258C03E8000043FF450
:20410000000210035F107F00550040006BA000402444F7660C900B3368860DCF0C0000093E
:20412000F54456440C03F06A42109AA124440000000000000000B0F0B0F0B0F0B0F0B0F02E
:2041400021018F80000000A10B01D612C544554400220026009C880000004ECDCC304440F0
:204160003000381021242842525E9D4B86009B0531CB0F63103011131B112A246411200F6A
:204180001E468720A0506208010D108001726D0258000280460360023001000C01E2078C02
:2041A0000C1300000B270203020205000404B599016996000000000000000000000000004A
:2041C0000000000000000000000000000000000000000000000000000000000000000000DF
:2041E000000000000000000000000000000000000000000000000000000000AA55010100BE
:204200000201000301000400000500010600010700010800010900010A0100E4F54F906840
:20422000DFE0F54EE4F0C222788CE24401F2A220B34003024C5C904E18E01207D9454101F6
:2042400047100248E8034A7C0442650543D706425907425F0C00004C2112F6E5024C27120C
:20426000D573024C27D2229066B3E0540D24FB606724F8700302438B240C60030243D2783C
:20428000A41296CD78A5E26F700318E26E704478A6E624FE6003024C27124C9E12ED771286
:2042A00096EA90B81BE0904E1A12963812965DE4FDFF12DAB2904F3D129777129682740501
:2042C000F29066B3E04404F07F1A12F6269066A3024847C222024C2778A6E624FE601B241C
:2042E000026003024C2712DC85129621129751440112966C12970C024C2712972460FB9073
:20430000BF43E020E0099066A3E0D39402404212FC3F124C9090510812076700000000901A
:2043200066B4E0FF12EEDC12F76A90510E7401F0C2111296F59066B3E04408F07F1012F615
:2043400026D222E49066A3F0904F8BE04490F0802F12DC851296EA12ED7790B81BE090517A
:2043600007129638129751440390BA03F09066B4E0FFE4FD12DAB290BA237401F01297B69F
:2043800078457405F27847F2024C279066A3E0D39420400E7F1912F62612ED1C1296AB024B
:2043A0004C2712F24612960F9066B4E0904E1C129690E04460F0C22275F06FEF904F3D1284
:2043C0009694E0906521F09066B412968CE4F0024536C222024C27D2229066ABE0546D24EB
:2043E000FB700302446A24F870030244D824E070030244E024C07003024511246C600302B1
:20440000453C78A81296CD78A8E2FC08E2FDC3EF9DFFEE9CFED3EF9418EE9400504778AB21
:20442000E26D700318E26C6003024C2778A6E624FE702A124C5D9051E4E0FFE4FD12DAB2DE
:204440009051E412968C12977712966F9066ABE04404F07F1D12F626E49066A3F07845740B
:2044600008F2024C27C222024C2778A6E6603224FE6003024C279066A3E0D39410400B7F2A
:204480001B12F626751C01024C27124C5DE4FDFF12DAB212967012970C78457408F2024554
:2044A0003612972460FBE0640460F6E0640560F190BF43E0F55020E203024C27124C9E1227
:2044C000FBEC129751440112967F7408F2129758E49066A3F0024C27E4FF12EEDC024C270A
:2044E00012C1909066AB746DF090510E7402F0905112E0440112960EC2221296AB904F3D71
:20450000F0905107E0904E1AF01297B6D219024C149066A3E0D39420401A7F1C12F626121A
:20452000F76A1296FC904F8BE044F0F0E4904E18F0024C27C2221297B6024C27C222024CDF
:2045400027D2229066B5E054316401600302463278A6E614604114606214605F2403600302
:20456000024C27E54E64016003024C2712962112965D12E06C12970678457401F29068DF80
:2045800004F0E490B81FF090B853F0C22F90BF23E054EFF0024C27129615E54E64026003BD
:2045A000024C271296211297BD12E06C129670784514F29068DF04F0024C27129714E54EEE
:2045C00064047003024C2712972460FB90BF43E030E034E54E6402702E78A6E6B4020512A5
:2045E000FC3F800312FC339068DF7404F0D22F90BF23E04410F078457401F290BE27E02449
:20460000027857F2024C2712FBEC78A6E6B4020C12965D12E06C129683024829124C8312AF
:20462000E06C90BA2B7401F07847F29068DFF0024C279066B5E0F95431641170521297C7B7
:204640006003024C2790BC1BE04440F0E4783EF212972BFF240EFDE43EFCAB0590B60AF02B
:20466000A3EBF0EF24FEFFE43E90B60E129659E490B805F090BA237402F0E944209066B549
:20468000F0AF05AE047BF0E4FD123A88024C279066B5E0547164317052F550783EE204F2B5
:2046A000E264026003024C2712972460FB90BF43E030E01B90B85FE0640460F8E064056025
:2046C000F3000000000090BF43E030E1058000755001E550600FE4FF12E9FF9066B5E054B9
:2046E000CFF0024C27129758024C279066B5E0FF547164716003024C27EF20E3047F01801E
:2047000002E4FF12E9FF9066B5E05487F0024C27D2229066B8E0540D24FB700302484D24BF
:20472000F870030248E3240C6003024C2712971478A6E61460271460441460412403600386
:20474000024C27E54E64016003024C2712965DC21512C8AD129706784574038017E54E6400
:20476000026003024C271297BDC21512C8AD129670784504F29068DF14F0024C27129724B3
:2047800060FB90BF43E030E04AE54E6402704478A6E6B4020512FA25800312FC3F90BE2473
:2047A00012071A9066A412074F1297839066B27401F012D4071296777404F21297D11296F3
:2047C0004012EF7F1296EA9066B8E04404F07F080248DD9066B0E030E11A78A6E664036097
:2047E00003024C271297D8129615E4904E18F07F070248DD904953E030E01A78A6E66403EB
:204800006003024C271297D8129615E4904E18F07F070248DD12FBEC78A6E6B4021512969B
:204820005D12C8AD1296837403F29068DFE54EF0024C27124C8312C8AD90BA2B7401F078D7
:20484000477403F29068DF7401F0024C2778A6E624FE602424026003024C279066A7E0448E
:2048600002F012D407129751440190BA0BF0129621129670784580279066B2E004F012976B
:204880002460FB90BF42E030E01B12978312D4071296EA12EF7F1297D112964012967774DD
:2048A00004F2024C2790BF43E020E003024C2712960F12FC3F12F24690510E7401F0C2112E
:2048C000124C901296F5904F8BE044F0F0E49050ACF0C2229066B8E04408F07F1012F62614
:2048E000024C27C222024C27D22212961578457402F29066AEE0FF541924F7604324F060F2
:204900005324187075EF30E61212978B9066AFE020E6031297AB754F01806178A6E66402E6
:20492000705A754F0112E4FB1296679066AEE04440F09066C8129797FD7F0F1224B3803CC2
:204940009066C3E060099066AFE04401F0802D9066AE80209066AFE020E4217F0C12F62647
:20496000C2AF90BE12E04403F0D2AF788CE254FEF29066AFE04410F08002C2229066AFE0F0
:20498000FF5407FEBE010AEF4402F0129714024C27EE64036003024A511297141297C760BD
:2049A00003024C271297D1F0E0547FF090B81AE054FEF0E054FDF09066F2E060259066C3C7
:2049C000E0FDD3941150081297704418F08036EDD3947912977050054450F080284470F004
:2049E00080239066C3E0FDD3941B50081297704420F08011EDD394B712977050054458F0A1
:204A000080034478F090B817E054FC4402F0E054FBF09066C3E075F008A4FF90B817E05447
:204A200007FDED4FFFE5F012965178477409F290207FE0FFA3E090B61ACF129659E490B84E
:204A400005F090BA2304F09066AFE04404F0024C279066AFE0FD540764076003024C27129C
:204A6000971490B85BE06003024C27ED54F89066AFF09066AEE04410F0024C27D22290663B
:204A8000B0E0FF543D24FB605D24E87003024BC6241C6003024C1DEF30E6129066B1E020BC
:204AA000E6031297AB12978B754F01803178A6E66402702A754F0112EC021296151296677A
:204AC0009066B0E04440F0906B06E070057B80FA80069066CC129797FD7F0F1224B37845D8
:204AE0007406F2024C27784AE2FDC378A6E69D5403F54D6401704E12978390BE27E0C39D33
:204B00001313543F049066B2F0E0FF64057003024BBEEFD3940540117F1312F6269066B068
:204B20007480F0129615024BBE12962190B85BE0640C60F8E0640160F312E40290BE27129E
:204B4000966A024BBE9066B2E06073E58E547070057551288003E4F551E4F550E550C395F2
:204B600051500500055080F4E54D64036004E54D704C90BF43E030E04590B85FE0640560C4
:204B8000F8000090BF43E030E23190B82BE054786410702790BE27E07858F29066A7E04466
:204BA00002F012E40212FBEC12965D90BA237401F012975878457407F2800312FC3F784583
:204BC0007407F2024C2712C19090BE27E0540378A6F69066B0E04420F0905112E04401F0EE
:204BE00090510E7402F01296AB905107E0904E1A12960E904F3DE4F012DC851297514403F3
:204C000090BA0BF0783FE2FF08E290B60ACFF0A3EFF0D222904E1CE04490F0800AC22280BC
:204C200006788CE254FEF2302232E490B8BBF0E54F600B906B4A1297E24440F08009906B82
:204C4000491297E254BFF090BA23E020E00790BA2BE030E00790B87BE054FCF02212DC8545
:204C600090BE27E054FC440390BA0BF090B60A741CF0A37470F090B60E741CF0A37482F05F
:204C8000C2152212F06190BE27E00490BA0BF0227E507FFD7C6B7D007B0A1238C32212DCA8
:204CA00085906B46E0FF12B86A228F51E478A8F278AAF2784C7406F2E490683FF078ABF2BF
:204CC0000804F278A9E51CF2E2FB75F06FA42419F582E5F0344EF583EB2583AF82F5528F50
:204CE00053F583E5822449F582E5833401F583E0541F18F2700302540E90BE17E04402F0DA
:204D00000000000090BE00E0FCA3E0FDA3E0FEA3E0FF78011206A078A6EEF208EFF278AAAC
:204D2000E204F278A8E2146023147003024E7424FE70030250B224F470030252B4240860FF
:204D40000302540E78ABE204F202540EE553245AF582E5523401F583E0FEA3E0FF78A6E21C
:204D6000FC08E2FDC3EF9DFFEE9CCF24FFCF34FFFEE5532454F582E5523401F583EEF0A3FA
:204D8000EFF0E553246BF582E5523401F583E0FFE553245AF582E5523401F583E0FCA3E0C3
:204DA000C39FFFEC9400CF24FFCF34FFFEE553245AF582E5523401F583EEF0A3EFF0E55377
:204DC0002449F582E5523401F5837402F0AD03782BE2FB7F051224C4E553246BF582E55282
:204DE0003401F583E0FF7846E2F9FDEF2DFFE433FEE5532454F582E5523401F583E0FCA3D7
:204E0000E0D39FEC9E500302540EE553245AF582E5523401F583E0FEA3E0FF78A6E2FC088A
:204E2000E2FDC3EF9DFFEE9CFEE9FDC3EF9DFFEE9400CF24FECF34FFFE78A4F2FA08EFF225
:204E4000FB78A9E2FD7F051224B3E5532449F582E5523401F5837408F0E478ACF218E20486
:204E6000F2E553244AF582E5523401F583E04401F002540EE5532454F582E5523401F583BB
:204E800074FFF5F012047278A6E2FE08E2FFF554E553245AF582E5523401F583E0FCA3E092
:204EA000FDC39554F554784CE2FBE554C39B5009E55494004003E554F2784CE2FB785CE2DD
:204EC000FAC39B5006784FEAF28004784FEBF2EF6D7002EE6C6003025045E553246BF582F9
:204EE000E5523401F583E0FF7E00E5532450F582E5523401F583E0FCA3E02FFFEE3CCF24C0
:204F0000FFCF34FFFEE5532458F582E5523401F583EEF0A3EFF090510EE064027072E553D4
:204F20002468F582E5523401F583E0605DE553246AF582E5523401F583E06011E5532468B7
:204F4000F582E5523401F5837402F0801CE5532469F582E5523401F583E0FFE5532468F53C
:204F600082E5523401F583EFF0E5532468F582E5523401F583E0FF12F455E553244BF58275
:204F8000E5523401F583E04408F0E47862F2802E78A9E2FF75F06FA4241CF582E5F0344E2B
:204FA000F583EF2583F583E04460F090683FEFF0E5532446F582E5523401F583E4F0E553D7
:204FC000244BF582E5523401F583E04480F0855382855283A3A37404F078A9E2FF75F06F3B
:204FE000A4241CF582E5F0344EF583EF2583F583E04480F0E5532449F582E5523401F583E4
:205000007404F0D219E553246BF582E5523401F583E0FFE5532454F582E5523401F583E44D
:20502000F0A3EFF0E553244BF582E5523401F583E04420F0E553245DF582E5523401F583B4
:20504000E4F002540EE5532454F582E5523401F583E0FEA3E04E600302540EE5532456F5F0
:2050600082E5523401F583E0FEA3E0FFE553245AF582E5523401F583EE8FF0120472E5532C
:205080002455F582E5523401F5837480F0E553244BF582E5523401F583E04480F078A9E2BF
:2050A000FF128E69EF700302540E78ABE204F202540EE553245AF582E5523401F583E0FED4
:2050C000A3E0FF78A7E2B5071818E2B50613E553244BF582E5523401F583E030E503025461
:2050E0000EE553244BF582E5523401F583E030E533E5532456F582E5523401F583E0FEA3EA
:20510000E0FFE553245AF582E5523401F583EE8FF0120472E553244BF582E5523401F583A8
:20512000E054DFF0E5532454F582E5523401F58374FFF5F0120472E5532458F582E55234EB
:2051400001F583E0FEA3E04E6013E5532458F582E5523401F58374FFF5F0120472AF53AE15
:205160005212F339E5532458F582E5523401F583E0FEA3E04E600302520285538285528374
:20518000A3A37402F078A9E2FF75F06FA4241CF582E5F0344EF583EF2583F583E0547FF0B1
:2051A000E5532452F582E5523401F583E0FCA3E04C6042E553245DF582E5523401F583E0A5
:2051C0007033E5532449F582E5523401F5837410F0E5532452F582E5523401F583E0FCA330
:2051E000E0FDE5532458F582E5523401F583ECF0A3EDF08045128E69EF603F78ABE204F210
:20520000803878A9E2D394004030E553244BF582E5523401F583E030E720E5532454F582BC
:20522000E5523401F583E0FEA3E04E600D855382855283A3A3A3E04420F0E5532454F58276
:20524000E5523401F583E0FEA3E04E7022E5532456F582E5523401F583E0FEA3E0FFE55384
:205260002454F582E5523401F583EEF0A3EFF0E553245AF582E5523401F583E0FEA3E0FF8A
:2052800078A7E26F700318E26E600302540EE5532456F582E5523401F583E0FEA3E0FFE5AA
:2052A00053245AF582E5523401F583EE8FF012047202540EE5532454F582E5523401F5835E
:2052C00074FFF5F0120472855382855283A3A37402F078A9E2FF75F06FA4241CF582E5F088
:2052E000344EF583EF2583F583E0547FF0E5532458F582E5523401F583E0FEA3E04E6013D1
:20530000E5532458F582E5523401F58374FFF5F0120472AF53AE5212F339E5532458F58233
:20532000E5523401F583E0FEA3E04E700F78A9E2FF128E69EF600578ABE204F2E553245A4B
:20534000F582E5523401F583E0FEA3E0FF78A7E26F700318E26E600302540EE553246BF5C4
:2053600082E5523401F583E0FF7E00E5532450F582E5523401F583E0FCA3E02FFFEE3CCFDD
:2053800024FFCF34FFFEE5532458F582E5523401F583EEF0A3EFF0855382855283A3A3740D
:2053A00004F078A9E2FF75F06FA4241CF582E5F0344EF583EF2583F583E04480F0E55324FA
:2053C00049F582E5523401F5837404F0E553246BF582E5523401F583E0FFE5532454F58299
:2053E000E5523401F583E4F0A3EFF0E5532456F582E5523401F583E0FEA3E0FFE553245A50
:20540000F582E5523401F583EE8FF012047278ABE26006788CE254F7F22278A87401F29075
:20542000B82BE0547878A6F2C22FC22BC229E408F2E054077859F278A6E21207D954CD080D
:2054400055331054981854982054A42854AE3054B738551F40552A4854845054845854C028
:205460006054C068546E70546E780000553578A7740426F6D22978A87405F2187401F2D2D0
:205480002F02553578A70606D22978A87403F2187401F2D22F025535D22978A77401F2D243
:2054A0002F02553578A77401F2D22F02553578A77401F2D22F807E78A77401F2D22F80751D
:2054C00078A7060678A77401F2D22F8068D22B904E18E0B4061690510EE0B4020FE4904E39
:2054E00018F07F1612F626E49066ABF0904E18E0B404159066B0E030E30EE4904E18F090C8
:2055000066B0F07F1612F6269067CDE0B40126904E38E0FFA3E0784DCFF208EFF28016784E
:20552000A77401F2D229D22F800B78A77401F2D22F8002D22F90B82BE030E70F851E8285A9
:205540001D83A3A3A3E04410F0801B851E82851D83A3A3A3E054EFF0E51E2446F582E51DD7
:205560003401F583E4F0851E82851D83A3A3A3E0FF20E30302578890B82AE020E003025703
:2055800088851E82851D83A3A3A3EF54F7F0E51E2434F582E4351DF583E020E2030256B0B9
:2055A000785EE2FE08E2F5828E83E0640360030256B018E2FE08E2F5828E837404F0122409
:2055C0003C78A4EEF2FC08EFF2FD18E2FE08E2FF2404F582E43EF5837405F0785EE2FA0874
:2055E000E22407F582E43AF583E0FBEF2405F582E43EF583EBF07F0312240975F06FE51C1C
:20560000A4241CF582E5F0344EF583251CF583E054FDF0E51E2448F582E51D3401F583E011
:20562000FF30E057E51E2448F582E51D3401F583EF54FEF0E51E2460F582E51D3401F58391
:20564000E030E110E51E2448F582E51D3401F583E04402F0E51E2460F582E51D3401F583F1
:20566000E030E210E51E2448F582E51D3401F583E04404F0AD1C7F1C12F4BF785EE2FE0894
:20568000E22408F582E43EF583E0FEA3E0FF18EEF2FE08EFF24E601875F06FE51CA4241C2D
:2056A000F582E5F0344EF583251CF583E04401F0E51E2434F582E4351DF583E064026003AD
:2056C0000257887849E2700218E2700302578812243C78A4EEF208EFF22404F582E43EF579
:2056E000837406F0EF2405F582E43EF583E51CF018E2FC08E2FD7F031224097848E2FE085D
:20570000E2F5828E83E030E25E12243C78A4EEF208EFF22404F582E43EF5837403F0EF24C5
:2057200005F582E43EF583E51CF07848E2FE08E2FF2405F582E43EF583E0FB78A4E2FC08C2
:20574000E2FD2406F582E43CF583EBF0EF2406F582E43EF583E0FFED2407F582E43CF58326
:20576000EFF07F06122409C2207848E2FE08E2FFF5828E83E054F0FDBD700690684174068C
:20578000F08F828E837408F09067CDE0541E600302581920290302581990B82AE05402F543
:2057A0004EE51E2446F582E51D3401F5837404F0E51E241DF582E4351DF583E0654E703103
:2057C000E51E241EF582E4351DF583E0FF90B82FE05403B5071B9067CCE0703DC22F12FCAC
:2057E0003FE51E241AF582E4351DF5837401F0802878A8E2D39401402090683FE0601AC2DA
:20580000297401F2C22F12FC3FE51E241AF582E4351DF583E4F078A7F6E51E2449F582E59F
:205820001D3401F583E0FF541E7003025997EF5414602A90510EE0B4010B851E82851D832E
:20584000A3A37404F075F06FE51CA4241CF582E5F0344EF583251CF583E04480F020290302
:2058600002590BE51E2452F582E51D3401F583E0FEA3E0FF78A8E2FD7C00EF2DF54FEC3EBE
:20588000F54EE51E2458F582E51D3401F583E0FEA3E0C3954FEE954E505790510EE0B4011C
:2058A0001DE54F24FFFFE54E34FFFEE51E2458F582E51D3401F583EEF0A3EFF08013E51E76
:2058C0002458F582E51D3401F583E54EF0A3E54FF0E51E2449F582E51D3401F583E054284A
:2058E000700FE51E2449F582E51D3401F5837404F090B82FE05403FFBF0310E51E244BF545
:2059000082E51D3401F583E04440F0E51E244BF582E51D3401F583E030E62030291D851E3B
:2059200082851D83A3A3A3E04420F0E51E244BF582E51D3401F583E054BFF090510EE064F5
:20594000017054E51E244BF582E51D3401F583E0FF30E723783CE2B4101DE51E244BF58271
:20596000E51D3401F583EF547FF0851E82851D83A3A3A3E054DFF020291D851E82851D83E0
:20598000A3A3A3E0542F700FE51E245DF582E51D3401F5837401F090510EE0B4011178A878
:2059A000E2D394014003025AEE12A093025AEE129D4EE51E244BF582E51D3401F583E0FF0D
:2059C00030E723783CE2B4101DE51E244BF582E51D3401F583EF547FF0851E82851D83A3DF
:2059E000A3A3E054DFF09067CDE0541E7003025AEE78A7E27003025AEE90B82FE05403FF20
:205A0000BF030918E264187003025AEE78A6E2FF131313541FF54E9067CFEFF090B82FE09E
:205A200054039067D0F090B82EE0541FFEA3E054F87803CEC313CE13D8F9FF9067D5EEF048
:205A4000A3EFF0E54EC39404405F74FC254EF54E9067DDE0FF7028E54E25E0244EF582E421
:205A60003440F583E493FC740193FDD39067D6E09D9067D5E09C4031ECF0A3EDF0802AEFF7
:205A8000B42026E54E25E02466F582E43440F583E493FE740193FFD39067D6E09F9067D59C
:205AA000E09E4005EEF0A3EFF0A229E4339067D8F09067CE7402F09067D9E070167E037FC1
:205AC0004A9067D3EEF0A3EFF09067D1EEF0A3EFF080147E077F479067D3EEF0A3EFF09091
:205AE00067D1EEF0A3EFF09067D9E06401F09066B3E030E01AA3E0B51C15904E18E0B4055E
:205B000002E4F0E49066B3F07F1412F6268023904E18E0B4021C9066B9E0B51C159066B803
:205B2000E030E30EE4904E18F09066B8F07F1412F62612FC5790BE09E0FFE51E242AF582D8
:205B4000E4351DF583EFF090BE0AE0FFE51E242BF582E4351DF583EFF012FC0AE51E2419D3
:205B6000F582E51D3401F583EFF0851E82851D83E030E603129EF922E478AAF208F208F226
:205B800008F208F278A8F208F278A9E2FFC3940240030262AF75F09CEFA424C0F582E5F090
:205BA0003449F583EF2583F583E020E7030262A7E2FB75F09CA424C0F582E5F03449F58345
:205BC000EB2583AF8278A6F208EFF278ACE204F290BE17E04402F00000000090BE00E0FC67
:205BE000A3E0FDA3E0FEA3E0FF78011206A078A4EEF208EFF208E2FE08E2F5828E83A3E02F
:205C0000FF08F26402707C789EE6FE08E68E83248AF582E5833401F583E06005AF0312708D
:205C20008D78A6E2FE08E2FF2425F582E43EF583E0FCA3E0FD78A4E2FA08E2FBC3ED9BFD15
:205C4000EC9AFC7869E2F9FBC3ED9BFDEC9400CD24FFCD34FFFC78ADF208EDF2EF2481F5D0
:205C600082EE3401F583E02402FFE92FFF78AAF2D3ED9F7480F86C98500978A87408F2E4BD
:205C8000786EF278A8E224F87003025D1824F87003025D2824D06032243E600302629C784B
:205CA0009EE6FE08E68E83248AF582E5833401F583E0700778A9E2FF12708D78A9E2FF12AD
:205CC000B20278ABE204F202629C90510EE06408702A78A6E2FE08E22448F582E43EF583DB
:205CE000E0FF54076016EF20E41218E2FE08E2248BF582EE3401F583E020E00B90532AE074
:205D00005403700302629C78A9E2FF78A4E2FC08E2FD12761C02629C78A6E2FE08E2F582D3
:205D20008E83A37410F0D24E78A6E2FE08E2FF2489F582EE3401F583E0F4600DEF2489F5A3
:205D400082EE3401F583E014F078A6E2FE08E22425F582E43EF583E0FEA3E0FF78A5E26F32
:205D6000700318E26E600302623F78A6E2FE08E2FF2489F582EE3401F58374FFF0EF248B9B
:205D8000F582EE3401F583E06401707918E2FE08E2FF2423F582E43EF583E0FCA3E0240106
:205DA000FDE43CFCEF2440F582E43EF583E0FEA3E0D39DEE9C403A18E2FE08E2FF2440F557
:205DC00082E43EF583C083C082E0FCA3E0FDEF2423F582E43EF583E0FEA3E02401FFE43ED8
:205DE000FEC3ED9FFFEC9ED082D083F0A3EFF0802978A6E2FE08E22440F582E43EF583E4CC
:205E0000F0A3F0801578A6E2FE08E22440F582E43EF58374FFF5F012047278A6E2FE08E245
:205E2000FF2429F582E43EF583E020E203025FF4EF241DF582E43EF583E0FCA3E0FDEF241B
:205E400033F582E43EF583E0FEA3E06D7002EE6C6003025FF418E2FE08E2FF2436F582E416
:205E60003EF583E0FCA3E0FDEF243EF582E43EF583ECF0A3EDF018E2FE08E2FF2429F582AD
:205E8000E43EF583E054FBF08F828E83E04410F018E2FE08E2FF248BF582EE3401F583E081
:205EA000B4041490510EE0B4080DEF248BF582EE3401F5837401F078A6E2FE08E2FF242D31
:205EC000F582E43EF583E0FCA3E0FDEF2421F582E43EF583E0FEA3E06D7002EE6C602218DC
:205EE000E2FE08E22421F582E43EF583ECF0A3EDF018E2FE08E22435F582E43EF583740165
:205F0000F078A6E2FE08E2FF242FF582E43EF583E0FCA3E0FDEF2423F582E43EF583E0FEC5
:205F2000A3E06D7002EE6C602218E2FE08E22423F582E43EF583ECF0A3EDF018E2FE08E2AB
:205F40002435F582E43EF5837401F078A6E2FE08E2FF2431F582E43EF583E0FCA3E0FDEFDA
:205F6000243CF582E43EF583E0FEA3E06D7002EE6C605418E2FE08E2243CF582E43EF5830F
:205F8000ECF0A3EDF018E2FE08E2FF2436F582E43EF583E0FCA3E0FDEF243EF582E43EF51E
:205FA00083ECF0FCA3EDF0FD18E2FE08E2FF2440F582E43EF583ECF0A3EDF0EF2435F58298
:205FC000E43EF5837401F078A6E2FE08E2242BF582E43EF583C083C082A3E025E0FF0582E7
:205FE000D5820215831582E033D082D083F0A3EFF002615D90510EE0FF64046008EF640836
:2060000060030260F878A6E2FC08E2FD2421F582E43CF583A3E025E0FF0582D5820215838D
:206020001582E033FEED2425F582E43CF583EE8FF0120472304D3E786BE2FF78A9E2FE6F8F
:20604000600302615D75F09CEEA424C0F582E5F03449F583EE2583AF82FE78A6F208EFF2A7
:206060008E8374C0F0C24D90510EE06404600302615D02615D78A7E6702BA24CB35026A269
:2060800022B3502178A6E2FE08E2FFF5828E83E0FD54906490700302615D8F828E83ED4410
:2060A000C0F002615D78A6E2FE08E22421F582E43EF583A3E025E0FF0582D582021583151E
:2060C00082E033FE7869E2FDC3EF9DFFEE9400CF24FFF54EEF34FFF54D78A9E2FDAB4EAA61
:2060E0004D7F161224B3D24E78A6E2FE08E2F5828E83A37440F0806578A6E2FE08E22421EC
:20610000F582E43EF583A3E025E0FF0582D5820215831582E033FE7869E2FDC3EF9DFDEECD
:206120009400CD24FFF54EED34FFF54D78A6E2FC08E22425F582E43CF583EE8FF012047203
:2061400078A9E2FDAB4EAA4D7F161224B3D24E78A6E2FE08E2F5828E83A37440F078A6E2FA
:20616000FE08E22440F582E43EF583E0FEA3E04E600302629C12243C8E4D8F4E8F828E8364
:20618000E5822404F582E43583F5837402F078A9E24480FFE54E2405F582E4354DF583EF19
:2061A000F08E83E54E2406F582E43583F5837405F0E478A0F608F690BA23E0548CF090BA36
:2061C0002BE0548CF090BA23E0440CF090BA2BE0440CF090B433E054FEF078A6E2FE08E241
:2061E000FFF5828E83E054BFF0EF2442F582E43EF583E07021C24CE54E2407F582E4354D15
:20620000F583E4F018E2FE08E22417F582E43EF583743EF0801EE54E2407F582E4354DF594
:2062200083E4F078A6E2FE08E22417F582E43EF5837408F0AD4EAC4D7F04122409805D785C
:20624000A6E2FC08E2FD2489F582EC3401F583E0704A18E2FE08E2FF241DF582E43EF58349
:20626000E475F001120472EF2421F582E43EF583A3E025E0FF0582D5820215831582E0335E
:20628000FEED2425F582E43CF583EE8FF012047278ABE204F278A9E2FF12B20278ABE2609E
:2062A00006788BE254BFF278A9E204F2025B892290BE17E04403F00000000090BE03E054EC
:2062C0000378A6F6E620E06B12EB36786DE26003125B7878A7E6D39400400116302428C213
:2062E00024C2AF90BE12E04440F07865E2FF08E290BE06CFF0A3EFF090BE13E04480F0D251
:20630000AF7862740CF2227847E2783DF2E47847F27845E2783CF2E47845F2906550E0FF87
:20632000906523F0E4906550F0BF090790BC22E0547FF078A7E6700312421B78A6E6FD3044
:20634000E00302666A90BE17E04403F090510EE0640160030264D0ED704C30112F08E670C8
:206360002B788CE24402F290BF23E054FEF090BE03E054FC440190BA0BF012DC857D01AF95
:206380001C12DAB212C5BBC21102665A20210302665A30220302665A78A7E6600302665AD5
:2063A00012E0F402665A78A6E66402600302665A30192208E6601C12FC3FE51E241AF582CC
:2063C000E4351DF583E4F078A7F690BF23E054E7F0C22FC21978A7E6600302665A783CE21D
:2063E000641060030264CA90B85FE0640B60F8E0640460F3E0640560EE90BF43E0F54C2043
:20640000E20302649490B82BE054077859F2851E82851D83A3E0FFE2FEEF6E706412541ACF
:20642000202F0302665A90B85FE0702490BF43E0F54C30E308E4FF12D26802665AE54C300D
:20644000E406127B0702665AE4FF12D26802665A302924E51E241AF582E4351DF583E4F054
:20646000E51E241AF582E4351DF583E0FF90B81AE054FEFEEF4EF090BF23E04418F0026612
:206480005AE51E241AF582E4351DF583E4F012E17A02665AE51E241AF582E4351DF583E4EF
:2064A000F012E17AE51E2449F582E51D3401F583E020E40302665AE51E2458F582E51D3414
:2064C00001F583E4F0A3F002665A12A09302665A90510EE064026003026650301803026610
:2064E0005A30191490BE17E04402F00000000090BE03E0540378A6F69067CDE06401703421
:20650000D3784EE2940018E2940040289067CEE0602208E224FFF218E234FFF208E27002D5
:2065200018E27010D225904E38E0FFA3E0784DCFF208EFF278A6E66402600302662308E6BD
:20654000600302665AA222B3400302665AA24CB3400302665A904E1BE05403600302660EEB
:2065600030195FC21090B85BE0700A904F81E0FF12DB50800312DC85904F81E0FFD394008C
:20658000403CEF25E078A7F690BF23E04401F0904F64E030E35A904F84E0FF7E00904F6957
:2065A000E0FCA3E02FFFEE3CCF24FFCF34FF904F71F0A3EFF0904F64E054F7F08032D2107C
:2065C000802E9067CCE0B4010512EC628019904E44E0FF90BE0AE0C39FC394044004D23378
:2065E0008002C23312DC85D21090BF23E054FEF078457410F2E4FDFF12DAB290BE03E05405
:20660000FC440390BA0BF012C5BBC233804C904F62E030E406904F767401F0788CE254FD73
:20662000F28037301034A222B3502F78A6E6702A08E67026A24CB3502190B85FE0640B60BD
:20664000F8E0640460F3E0640560EE12BF64800A90510EE0B40803129063785DE260057F23
:2066600002124CAA788CE254BFF222753301E4F5347E577FB77C1C7D7012AB21129C01240C
:2066800006129BA51207369057C712071A12052F78021206A0EE547F9057CDF0A3129BFF46
:2066A000240B129BA5E09057D4F090667F129C5B9066BAE06401600302678A9057D304F057
:2066C000E49057B5F09057B5E0FFC394014003026772EF75F008A424DEF582E43466F583EA
:2066E000E024FE600C24FE606124037076E402675FE49057B4F09057B6F09057B6E0FFC355
:206700009403503CE0FE9057B5E0FD75F008A424E2F582E43466129C8AFCED129D13129C62
:206720008A5CFE74C32FF582E43457F583E05CB506069057B4E004F09057B6E004F080BA9A
:206740009057B4E06403701B80159057B5E0129D13AD82FC7E577FBC7B061237A4E43390A9
:2067600057D3F09057D3E060099057B5E004F00266C59057D3E0B40111A3129BC3FEA3E06B
:2067800024FF129BA5E4F00269BE129C53FF4E6051E533604DA3EEF0A3EFF02403FFE43E78
:2067A000FE7C577DBC7B061237A4E433F5337026129C53FFF5828E83A3A3E0B40218787D1B
:2067C000E2FC08E22405129BB8700B7534018F828E83A3A304F0129C53F5828E83129C5B50
:2067E00080A8E53364016009E534640160030269B190667F8011129C53FF4E600FA3EEF04A
:20680000A3EFF0F5828E83129C5B80EA7F01122B44EE129C604E7003026981129C53FFF55C
:20682000828E83E4F0A3F090667FE07002A3E0700590667F800D129C53FFA3E0FCA3E0F5A6
:20684000828C83EEF0A3EFF0129BC0FEA3E0FF7C577DBC7B081238C312243C9057D5EEF0B2
:20686000A3EFF09066DDE0704E129BC0FEA3E02409FFE43EFE7C577DC37B031238C3905766
:20688000CDA3E0FF9057D4E0FD129BC4FAA3E0240CF582E43AF583EFF09057CDE0FFED1275
:2068A0009BC4129CE93CF583EF129CAD2406129BA57402F00269449066DDE06401701A129F
:2068C00069C5129BF4240A129BA5E0FF129BC0129CE93CF583EF0269369066DDE0640270B9
:2068E000631269C5129BF4FF240A129BA5E0FD129BC0FA129CEA3AF583EDF09057CFE0FCD8
:20690000A3E0FDF5828C83A3A3E4F09057CCE06028129BA2E070148D828C83A3A304129C73
:20692000AD2406129BA5742FF08019129C53F5828E83A3A37402F08000129CAE2406129B1A
:20694000A57422F0129BC0FCA3E0FD9057D0E02403FF9057CFE03400FE7B061238C3129C62
:20696000AEFF2404129BA57402F09057D4E0FD129BA2EDF09057D5E0FCA3E0FD7F041224F5
:20698000099057CFE07002A3E07033129C437F861224C412243C787DEEF208EFF224041266
:2069A0009BA5740D129BA1129C4A7F05122409800D129BC0FEA3E024FF129BA5E4F0906752
:2069C000807405F0229057D4E025E0249AF582E43466F583E0FEA3E02408FFE43EFE7C5762
:2069E0007DC37B031238C39057CDA3E0FF9057D4E0FD25E0249AF582E43466F583E0FAA351
:206A0000E0240BF582E43AF583EFF09057CDE0FFED25E0249AF582E43466F583E02290B683
:206A2000B1E04407F07D527C00E4FF12FC907D227C907F1E12F01DE4FDFC1F12F01D7C229E
:206A400012F01DE490593DF012D933C3940940F87D227C107F1E12F01DE490593DF012D99B
:206A600033C3940A40F890BA23740CF090BA2BF0E490593DF090B86E7402F0A37458F01281
:206A8000D91990B85FE0B40AF990B85FE070FA12D936B403E07DFF7C7F7F1C12F01D7D3F30
:206AA0007CD80F12F01D12FC937D7F7F1D12F01D9003C47F0C12D8CA9003C612F017900361
:206AC000C812F0179003CA12F017E4FDFC7F0812F01D9003C212D9077DAE7C197F1E12F036
:206AE0001D7DA17C00E4FF12F01D9003CC7F2112D9099003CE12F0179003D012F0177D0077
:206B00007C0C7F2C12F01D90B0017411F090B005E04404F090B005E020E2F990B02AE0FFA7
:206B2000A3E0905938CFF0A3EFF0905938E0FEA3E07803CEC313CE13D8F9FFEE4401FE905D
:206B40005938F0FCA3EFF0FD7F1112F01D12D8D290B8E274D9F0A3741AF090B87AE0444020
:206B6000F090B68CE0548F4440F090B83BE04480F090B83AE044E0F090B87AE0547FF0909A
:206B8000BC227480F090B86EF012D91990B85FE0B40BF912D8D212FC9312FC939003C4A352
:206BA000E090593BF07F0112D8EC12D93EFAA3E0FBD39FEA9E400A7CC512D96374C5F0806E
:206BC0002512D929EB9FEA9E501C7F2A12D8EC12D929905937E09F905936E09E50087CC794
:206BE00012D96374C7F090593CE0FE90593BE07C002400FFEC3EFE12FB5B12D8F712D93EDC
:206C0000FCA3E0FDD39FEC9E400990593BE024FEF0801012D929ED9FEC9E501690593BE079
:206C20002402F090593BE0FFD394014005EF942840B4905936E0FEA3E0FF7D077C0012342A
:206C40007190593212074F90593212071A7D0A7C001235EC905936EEF0A3EFF0E490593A36
:206C6000F090593AE0FFC3940E5030EF12D94BE4FD12D8DA12FC9390B8E512D9570090597A
:206C800036E0FEA3E0FFD390B8E7E09F90B8E6E09E400890593AE004F080C690593AE0FFAA
:206CA000900413E0FEC3EF9E90593AF09003E6E090B68CF090B8E5E054FEF090040AE09074
